:020000040800F2
:10000000383A002039030008A53D00087135000882
:10001000A13D00086F060008E55D00080000000033
:10002000000000000000000000000000790200084D
:10003000FD07000800000000D50200089B420008F0
:100040005303000853030008530300085303000838
:100050005303000853030008530300085303000828
:100060005303000853030008530300083507000832
:100070005303000853030008530300085303000808
:100080005303000800000000530300085303000856
:1000900053030008530300085303000853030008E8
:1000A00053030008530300085303000853030008D8
:1000B00053030008530300082D43000853030008AE
:1000C00053030008530300085303000853030008B8
:1000D0005303000853030008D55D000853030008CC
:1000E0005303000853030008530300085303000898
:1000F00053030008530300085303000800000000E6
:100100000000000053030008000000005303000833
:1001100053030008000000005303000853030008C5
:100120005303000853030008530300085303000857
:100130005303000800000000000000005303000803
:1001400053030008530300080000000000000000F3
:10015000000000000000000000000000000000009F
:100160000000000000000000000000005303000831
:100170005303000800000000000000000000000021
:100180000000000053030008000000000000000011
:10019000000000000000000000000000000000005F
:1001A0000000000000000000530300085303000893
:1001B0005303000853030008530300080000000025
:1001C00000000000530300080000000000000000D1
:1001D000530300085303000800F002F800F03CF855
:1001E0000AA090E8000C82448344AAF10107DA4592
:1001F00001D100F031F8AFF2090EBAE80F0013F0A8
:10020000010F18BFFB1A43F0010318474C88000088
:100210006C880000103A24BF78C878C1FAD8520719
:1002200024BF30C830C144BF04680C607047000070
:100230000023002400250026103A28BF78C1FBD8EF
:10024000520728BF30C148BF0B6070471FB508F088
:100250004DFB1FBD10B510BD00F0D0F91146FFF7E2
:10026000F5FF05F0E3FE00F0EEF903B4FFF7F2FF4F
:1002700003BC00F0F5F900002C4B19680868B0E8E1
:10028000F04F80F30988BFF36F8F4FF0000080F3C9
:10029000118870470000000008480068006880F37B
:1002A00008884FF0000080F3148862B661B6BFF38F
:1002B0004F8FBFF36F8F00DF00BF00BF08ED00E07E
:1002C000DFF80C00016841F470010160704700BF65
:1002D00088ED00E0EFF30980BFF36F8F134B1A68CE
:1002E0001EF0100F08BF20ED108A20E9F04F1060BB
:1002F00009B44FF0500080F31188BFF34F8FBFF364
:100300006F8F07F091FB4FF0000080F3118809BC5C
:1003100019680868B0E8F04F1EF0100F08BFB0EC85
:10032000108A80F30988BFF36F8F70474000002068
:10033000EFF30580704700000948804709480047EF
:10034000FEE7FEE7FEE7FEE7FEE7FEE7FEE7FEE785
:10035000FEE7FEE704480549054A064B70470000E2
:1003600019430008D901000838340020383A002029
:10037000383600203836002053EA020C00F069803D
:100380002DE9F04B4FF00006002B1FBFB3FA83F5A9
:1003900003FA05F424FA05F65E4012BF1643B2FADA
:1003A00082F502FA05F4C5F120051EBF22FA05FC0C
:1003B00044EA0C04203556EA044C4FEA144418BFB2
:1003C000641C4FF000084FF00009904271EB030CE1
:1003D00039D3002919BFB1FA81F701FA07F6B0FA4B
:1003E00080F700FA07F6C7F120071EBF20FA07FCC6
:1003F00046EA0C062037B6FBF4FCA7EB0507103FD6
:1004000007F01F0BCBF120060CFA0BFB2CFA06F6BB
:1004100044BFB3460026202FA4BF5E464FF0000B1A
:100420005BEA060C08BF4FF0010B19EB0B09ABFBA5
:10043000027C48EB0608C01B06FB02CC0BFB03CC7E
:1004400071EB0C01C1E70B46024641464846BDE848
:10045000F08B13B54FF000004FF00001AFF30080B8
:10046000BDE81C407047032A40F2308010F0030CB6
:1004700000F0158011F8013BBCF1020F624498BFF7
:1004800011F801CB00F8013B38BF11F8013BA2F194
:10049000040298BF00F801CB38BF00F8013B11F00F
:1004A000030300F02580083AC0F0088051F8043BAF
:1004B000083A51F804CBA0E80810F5E7121D5CBF1C
:1004C00051F8043B40F8043BAFF30080D20724BF4F
:1004D00011F8013B11F801CB48BF11F8012B24BFE3
:1004E00000F8013B00F801CB48BF00F8012B704732
:1004F00010B5203AC0F00B80B1E81850203AA0E8BF
:100500001850B1E81850A0E81850BFF4F5AF5FEAF2
:10051000027C24BFB1E81850A0E8185044BF18C9A5
:1005200018C0BDE810405FEA827C24BF51F8043B4C
:1005300040F8043B08BF7047D20728BF31F8023BA0
:1005400048BF11F8012B28BF20F8023B48BF00F834
:10055000012B704702F0FF0343EA032242EA024202
:1005600000F02CB84FF0000200B5134694469646B2
:10057000203922BFA0E80C50A0E80C50B1F12001B6
:10058000BFF4F7AF090728BFA0E80C5048BF0CC064
:100590005DF804EB890028BF40F8042B08BF7047C2
:1005A00048BF20F8022B11F0804F18BF00F8012B34
:1005B00070477047704770474FF000020429C0F041
:1005C000128010F0030C3FF4CFAFCCF1040CBCF15F
:1005D000020F18BF00F8012BA8BF20F8022BA1EBD7
:1005E0000C01FFF7C1BF5FEAC17C24BF00F8012BFB
:1005F00000F8012B48BF00F8012B7047754600F04A
:100600002BF8AE4605006946534620F007008546A4
:1006100018B020B5FFF79EFEBDE820404FF0000661
:100620004FF000074FF000084FF0000B21F00701DA
:10063000AC46ACE8C009ACE8C009ACE8C009ACE81D
:10064000C0098D46704710B50446AFF300802046C0
:10065000BDE81040FFF709BE00487047D4330020C2
:1006600001491820ABBEFEE726000200704700BF1C
:10067000FEE700002DE9F04105F0C9FD0546002424
:1006800045E0E0B203F0C8FC0746062F00D13DE08C
:100690002148005D78B3214850F8240000B935E0C6
:1006A0001E4850F824002E1AB6F5FA6F0CD31C48D9
:1006B000005DF8B92B46022239461A4804F0F8FCCE
:1006C00001201749085515E0B6F5FA7F12D31648F0
:1006D00050F8240028B1144850F82400281A96280D
:1006E00008D32B46012239460E4804F0E1FC0E489F
:1006F00040F8245009E0FFE70020084941F82400B1
:10070000094941F824000649085500BF641C052C1E
:10071000B7DBBDE8F08100001E330020000200209E
:100720000900002040330020140200207047704769
:100730007047000010B5024800F0EDF810BD000051
:100740008805002030B5114D0468AC4206D210492E
:100750000478083C1425B4FBF5F207E00C4920317D
:100760000478083C1425B4FBF5F4A21D0B46446C38
:10077000A40803EB84048464054C8034C46402F050
:100780001F050124AC40046530BD00000804024090
:1007900000080240027902F07F014A1E064B03EB7B
:1007A00082024265044A403282654A1E02F01F03FB
:1007B00001229A40C26570470009024030B5D0E975
:1007C00013546C60446D14B1D0E916546C6090F809
:1007D000444004F01F050124AC40056C6C600468C3
:1007E00063608468102C04D10468A2600468E1602E
:1007F00003E00468A1600468E26030BD704772B62F
:1008000000BFFEE70146002209B90120704791F8B8
:100810002500022803D00420C863012227E00868CD
:10082000006820F001000B6818600868006820F07C
:100830000E000B681860886C006820F480708B6C68
:10084000186091F8440000F01F03012098400B6CE1
:100850005860D1E913305860486D40B1486D006868
:1008600020F480704B6D1860D1E91630586001207B
:1008700081F8250000BF002081F8240000BF104649
:10088000C4E770B50446002594F8250002280BD073
:100890000420E063012084F8250000BF002084F8D4
:1008A000240000BF012534E02068006820F001002A
:1008B000216808602068006820F00E002168086048
:1008C000A06C006820F48070A16C086094F844006B
:1008D00000F01F0101208840216C4860D4E913100A
:1008E0004860606D40B1606D006820F48070616D9B
:1008F0000860D4E916104860012084F8250000BF84
:10090000002084F8240000BFA06B10B12046A16B2A
:100910008847284670BD70B50446206C056820687D
:10092000066894F8440000F01F0104208840284025
:10093000E0B106F00400C8B12068006800F02000B3
:1009400028B92068006820F004002168086094F845
:10095000440000F01F0104208840216C4860206B97
:10096000002856D02046216B884752E094F8440076
:1009700000F01F0102208840284018B306F0020052
:1009800000B32068006800F0200040B920680068CB
:1009900020F00A0021680860012084F8250094F8FE
:1009A000440000F01F0102208840216C486000BF15
:1009B000002084F8240000BFE06A50B32046E16ABA
:1009C000884726E094F8440000F01F010820884082
:1009D0002840F0B106F00800D8B12068006820F087
:1009E0000E002168086094F8440000F01F01012007
:1009F0008840216C48600120E06384F8250000BF36
:100A0000002084F8240000BF606B10B12046616BA9
:100A1000884770BD70B504460CB9012070BD3049DF
:100A2000206888420BD22F492068401A1421B0FB5D
:100A3000F1F0800060642B48083820640AE02849FF
:100A40002068401A1421B0FBF1F080006064244853
:100A500008382064022084F825002068056847F6DD
:100A6000F0708543D4E902010843216908436169B4
:100A70000843A1690843E1690843216A0843054323
:100A8000206805602046FFF75DFEA068B0F5804F46
:100A900001D100206060207900F07F00A16C086027
:100AA000D4E913104860606860B16068042809D810
:100AB0002046FFF76FFE0020616D0860D4E9161034
:100AC000486003E000206065A065E0650020E06309
:100AD000012084F82500002084F8240000BF9DE751
:100AE00008040240080002402DE9F04104460D468A
:100AF00016461F464FF0000800BF94F82400012856
:100B000002D10220BDE8F081012084F8240000BF5A
:100B100094F8250001283FD1022084F82500002008
:100B2000E0632068006820F00100216808603B460F
:100B3000324629462046FFF741FE206B30B120683F
:100B4000006840F00E00216808600BE02068006833
:100B500020F00400216808602068006840F00A0066
:100B600021680860A06C006800F4803028B1A06C97
:100B7000006840F48070A16C0860606D28B1606D01
:100B8000006840F48070616D08602068006840F083
:100B900001002168086006E000BF002084F82400FE
:100BA00000BF4FF002084046ACE7000070B50446B5
:100BB00000F016F906462546681C10B10448006886
:100BC000054400BF00F00CF9801BA842FAD370BDA9
:100BD0003800002078B503460022D2E00126964076
:100BE0000D6805EA0604002C7BD00D7905F003059D
:100BF000012D04D00D7905F00305022D13D198685D
:100C000056000325B540A8435600CD68B54028439B
:100C10009860586801259540A8430D79C5F30015E3
:100C20009540284358600D7905F00305032D07D141
:100C30000D7905F00305032D0CD18D68012D09D028
:100C4000D86856000325B540A84356008D68B540C6
:100C50002843D8600D7905F00305022D13D1D6087D
:100C600003F1200555F826005507EE0E0F25B54077
:100C7000A8435607F60E0D69B5402843D60803F180
:100C8000200545F82600186856000325B540A843FE
:100C90000D7905F003055600B540284318604D68EE
:100CA00005F44035002D6BD000BF394D2D6E45F059
:100CB0000105374E356635462D6E05F00105009568
:100CC00000BF00BF4FEAB635960855F826009507D5
:100CD0002E0F0F25B540A843B3F1904F02D1002548
:100CE0001AE04DE02B4DAB4201D1012514E02A4D15
:100CF000AB4201D102250FE0284DAB4201D10325C3
:100D00000AE0274DAB4201D1042505E0254DAB4259
:100D100001D1052500E006259607360FB54028438A
:100D2000214D960845F82600204D2868A0434D68BF
:100D300005F4801505B120431C4D28602D1D286841
:100D4000A0434D6805F4001505B12043174D2D1D36
:100D50002860164D2D1F2868A0434D6805F4003506
:100D600005B12043114D2D1F28602D1F2868A04379
:100D70004D6805F4803505B120430C4D083D2860D1
:100D8000521C0D68D540002D7FF428AF78BD0000BF
:100D9000001002400004004800080048000C004811
:100DA00000100048001400480800014008040140F9
:100DB000024613690B400BB1012000E00020704790
:100DC00010B5426921EA020302EA010443EA04433E
:100DD000836110BD0AB1816100E08162704700004B
:100DE0000148006870470000300000200348006898
:100DF0000349096808440149086070473000002031
:100E00003800002010B50024032000F0D1F80F2096
:100E100000F008F808B1012401E000F051F8204684
:100E200010BD0000F0B587B004460026002700BFC3
:100E30001E48806D40F004001C4988650846806D9E
:100E400000F00400009000BF00BF01A902A800F05C
:100E500023FC00F049FC06461548B6FBF0F0471E9F
:100E600014481549086040F2E7311348C1604760F3
:100E700000210161816001F09EF9054695B90E4897
:100E800001F04AFA05466DB91E2000F03FF8102C1B
:100E900007D2002221461E2000F04CF807480460CB
:100EA00000E00125284607B0F0BD00000010024018
:100EB00040420F0000080040E805002034000020F8
:100EC00008B500BF1048006E40F001000E490866EA
:100ED0000846006E00F00100009000BF00BF00BF98
:100EE0000846806D40F0805088650846806D00F0AF
:100EF0008050009000BF00BF00220F21901E00F024
:100F000019F800F0F5F808BD001002400146084647
:100F100000280DDB00BF00BF00F01F0301229A4034
:100F200043099B0003F1E023C3F8002100BF00BF89
:100F300000BF70472DE9F05F80460D46164604F06D
:100F400053FF074639462A46334601F00700C0F1F1
:100F5000070ABAF1040F02D94FF0040A01E0C0F108
:100F6000070AD14600F1040ABAF1070F02D24FF086
:100F7000000A01E0A0F1030AD4464FF0010A0AFA80
:100F800009FAAAF1010A0AEA020A0AFA0CFA4FF06F
:100F9000010B0BFA0CFBABF1010B0BEA030B4AEA5A
:100FA0000B042146404604F027FFBDE8F09F0000F7
:100FB00000BF00F00702064B19684FF6FF03194007
:100FC000044B0B4343EA0221014B196000BF7047F9
:100FD0000CED00E00000FA0502468ABB41480068BB
:100FE00000F4C060B0F5806F2BD13E4880300068BF
:100FF00020F480703B4BC3F880001846006820F452
:10100000C06040F4007018603748006832235843CD
:10101000364BB0FBF3F0411C00E0491E31484069FB
:1010200000F48060B0F5806F01D10029F5D12D4822
:10103000406900F48060B0F5806F51D103207047A3
:1010400008E028488030006820F48070254BC3F801
:10105000800045E0B2F5007F3AD12248006800F4F4
:10106000C060B0F5806F2AD11E488030006840F41F
:1010700080701C4BC3F880001846006820F4C060E4
:1010800040F4007018601848006832235843174B2A
:10109000B0FBF3F0411C00E0491E1248406900F427
:1010A0008060B0F5806F01D10029F5D10D4840690D
:1010B00000F48060B0F5806F12D10320BFE70948CB
:1010C0008030006840F48070064BC3F8800007E071
:1010D0000448006820F4C06040F48060014B186050
:1010E0000020ACE7007000403C00002040420F00B0
:1010F0000348806840F480400149886070470000E0
:10110000007000402DE9F84304460027B8462068E7
:1011100000F40020B0F5002F73D1B946D348806D9C
:1011200000F0805078B900BFD048806D40F080500A
:10113000CE4988650846806D00F08050009000BF61
:1011400000BF4FF00109CA48006840F48070C849E8
:101150000860FFF745FE064606E0FFF741FE801BEC
:10116000022801D9032705E0C148006800F4807017
:101170000028F2D000BF002F46D1BC489030006854
:1011800000F44075CDB1206CA84216D0B74890301D
:10119000006820F44075B548D0F8900040F48030E5
:1011A000B249C1F890000846D0F8900020F4803091
:1011B000C1F890000846C0F8905005F00100A0B1B9
:1011C000FFF70EFE064608E0FFF70AFE801B41F21D
:1011D0008831884201D9032706E0A448903000688E
:1011E00000F002000028EFD000BF5FB99F489030A8
:1011F000006820F44070216C08439C49C1F89000BD
:1012000003E00CE0B84600E0B846B9F1010F05D1A3
:101210009648806D20F080509449886500BF207802
:1012200000F0010048B191488830006820F00300C8
:10123000616808438D49C1F88800207800F00200F9
:10124000022809D189488830006820F00C00A16884
:1012500008438649C1F88800207800F0040004287B
:1012600009D182488830006820F03000E1680843E6
:101270007E49C1F88800207800F00800082809D1CC
:101280007A488830006820F0C00021690843774917
:10129000C1F88800207800F02000202809D1734888
:1012A0008830006820F44060616908436F49C1F8E4
:1012B0008800207800F04000402809D16B48883031
:1012C000006820F44050A16908436849C1F88800CB
:1012D000207800F08000802809D1644888300068B8
:1012E00020F44040E16908436049C1F88800208843
:1012F00000F48070B0F5807F09D15C4888300068C8
:1013000020F44030216A08435849C1F888002088F9
:1013100000F40070B0F5007F09D1544888300068AF
:1013200020F44020616A08435049C1F888002088B1
:1013300000F48060B0F5806F13D14C4888300068AD
:1013400020F44010A16A0843484988310860A06A27
:10135000B0F5801F05D14548C06840F4801043496E
:10136000C860208800F40060B0F5006F13D13F48DA
:101370008830006820F44000E16A08433B49883126
:101380000860E06AB0F5800F05D13848C06840F4C5
:1013900080103649C860208800F48050B0F5805F26
:1013A00013D132488830006820F04070216B084328
:1013B0002E4988310860206BB0F1807F05D12B4821
:1013C000C06840F480102949C860208800F40050AB
:1013D000B0F5005F13D125488830006820F04060E8
:1013E000616B0843214988310860606BB0F1006F80
:1013F00005D11E48C06840F480101C49C860208890
:1014000000F48040B0F5804F13D118488830006850
:1014100020F04060A16B0843144988310860A06B3C
:10142000B0F1006F05D11148C06840F480100F4939
:10143000C860208800F40040B0F5004F13D10B487D
:101440008830006820F04050E16B0843074988313C
:101450000860E06BB0F1805F05D10448C06840F4DB
:1014600080300249C8604046BDE8F8830010024061
:10147000007000402DE9F04104460D464FF0000891
:1014800014B90120BDE8F0817D48006800F00F002C
:10149000A8420ED27A48006820F00F00284378490D
:1014A00008600846006800F00F00A84201D0012043
:1014B000E8E7207800F00100002864D06068032885
:1014C00023D17048006800F0007008B90120D9E706
:1014D00002F07CFE06466C48864237D9694880682F
:1014E00000F0F00030B1207800F0020002282DD189
:1014F000A06858BB6348806820F0F00040F080008E
:10150000604988604FF0800820E06068022806D1BA
:101510005C48006800F4003040B90120B2E7594847
:10152000006800F4806008B90120ABE700F000F922
:1015300006465548864209D95248806820F0F00096
:1015400040F080004F4988604FF080084D48806827
:1015500020F00300616808434A498860FFF740FCB7
:10156000074608E0FFF73CFCC01B41F28831884287
:1015700001D9032086E74348806800F00C006168C9
:10158000B0EB810FEED1207800F00200022820D1CC
:10159000207800F00400042805D13A48806840F41F
:1015A000E06038498860207800F00800082807D1FA
:1015B0003448806820F4605040F4E060314988602D
:1015C0003048806820F0F000A16808432D49886009
:1015D00008E0B8F1800F05D12A48806820F0F000BB
:1015E000284988602648006800F00F00A84219D9F1
:1015F0002348006820F00F00284321490860FFF7C6
:10160000EFFB074608E0FFF7EBFBC01B41F2883118
:10161000884201D9032035E71948006800F00F001F
:10162000A842F0D1207800F00400042807D1154822
:10163000806820F4E060E1680843124988602078FF
:1016400000F00800082808D10E48806820F4605097
:10165000216940EAC1000B49886000F069F8094936
:101660008968C1F30311094A515C01F01F01C840A8
:101670000749086007480068FFF7D4FB02E700004D
:10168000002002400010024000B4C4049089000809
:101690003C000020340000200F2202600D4A9268B6
:1016A00002F0030242600B4A926802F0F00282608C
:1016B000084A926802F4E062C260064A926802F444
:1016C0006052D2080261044A126802F00F020A60F6
:1016D00070470000001002400020024001480068EE
:1016E000704700003C00002000B5FFF7F7FF0549F8
:1016F0008968C1F30221044A515C01F01F01C8400E
:1017000000BD000000100240A089000800B5FFF7EE
:10171000E5FF05498968C1F3C221044A515C01F023
:101720001F01C84000BD000000100240A089000851
:1017300070B5224DAD6805F00C05042D01D120488F
:101740003AE01E4DAD6805F00C05082D01D11D488D
:1017500032E01A4DAD6805F00C050C2D2BD1174D5C
:10176000ED6805F00304154DED68C5F303156A1C1B
:10177000022C0CD0032C09D1124DB5FBF2F50F4E03
:10178000F668C6F3062605FB06F10AE000BF0C4D1D
:10179000B5FBF2F5094EF668C6F3062605FB06F121
:1017A00000BF00BF054DED68C5F341656D1C6B00C2
:1017B000B1FBF3F000E0002070BD0000001002401B
:1017C0000024F40000127A002DE9F843044614B90D
:1017D0000120BDE8F883207800F00100002865D0E2
:1017E000FC48806800F00C07FA48C06800F0030667
:1017F0000C2F01D1032E01D0082F0AD1F548006823
:1018000000F40030002851D0606800284ED101203B
:10181000DFE700BF6068B0F5803F06D1ED480068A3
:1018200040F48030EB4908601AE06068B0F5A02F02
:101830000BD1E848006840F48020E649086008467B
:10184000006840F4803008600AE0E248006820F454
:101850008030E04908600846006820F48020086075
:1018600000BF606888B1FFF7BBFA054606E0FFF7E6
:10187000B7FA401B642801D90320AAE7D5480068BD
:1018800000F400300028F2D010E0FFF7A9FA054676
:1018900006E0FFF7A5FA401B642801D9032098E76A
:1018A000CC48006800F400300028F2D1207800F025
:1018B0000200022860D1C748806800F00C07C548C4
:1018C000C06800F003060C2F01D1022E01D0042FB6
:1018D00018D1C048006800F4806018B1E06808B909
:1018E000012076E7BB48406820F0FE40217C40EABA
:1018F0000160B8494860B8480068FFF793FA18B328
:10190000012066E7E06800B3B248006840F48070E8
:10191000B0490860FFF764FA054606E0FFF760FA91
:10192000401B022801D9032053E7AA48006800F4AD
:1019300080600028F2D0A748406820F0FE40217C5B
:1019400040EA0160A349486016E0A248006820F41C
:101950008070A0490860FFF743FA054606E0FFF7EC
:101960003FFA401B022801D9032032E7994800685A
:1019700000F480600028F2D1207800F008000828E8
:1019800036D16069D0B193489430006840F00100CE
:101990009049C1F89400FFF723FA054606E0FFF7E7
:1019A0001FFA401B022801D9032012E7894894300E
:1019B000006800F002000028F1D019E0854894305A
:1019C000006820F001008349C1F89400FFF708FA8D
:1019D000054606E0FFF704FA401B022801D9032060
:1019E000F7E67C489430006800F002000028F1D14E
:1019F000207800F00400042872D14FF000087548E8
:101A0000806D012121EA107078B100BF7148806DAE
:101A100040F080506F4988650846806D00F0805026
:101A2000009000BF00BF4FF001086C48006800F450
:101A30008070B0B96948006840F4807067490860F8
:101A4000FFF7CEF9054606E0FFF7CAF9401B02286A
:101A500001D90320BDE66148006800F480700028C9
:101A6000F2D000BFA068012808D15A489030006821
:101A700040F001005749C1F8900021E0A068052816
:101A80000FD154489030006840F004005149C1F82B
:101A900090000846D0F8900040F00100C1F8900096
:101AA0000EE04C489030006820F001004949C1F830
:101AB00090000846D0F8900020F00400C1F8900093
:101AC00000BFA068A8B1FFF78BF9054609E0FFF752
:101AD00087F9401B41F28831884202D9032078E619
:101AE00025E03C489030006800F002000028EED06D
:101AF00013E0FFF775F9054608E0FFF771F9401BA1
:101B000041F28831884201D9032062E631489030A1
:101B1000006800F002000028EFD1B8F1010F05D1F4
:101B20002C48806D20F080502A49886500BF2078BD
:101B300000F02000202836D1A069D0B12548983087
:101B4000006840F001002349C1F89800FFF748F908
:101B5000054606E0FFF744F9401B022801D903209F
:101B600037E61C489830006800F002000028F1D0E9
:101B700019E018489830006820F001001549C1F8B4
:101B80009800FFF72DF9054606E0FFF729F9401BFD
:101B9000022801D903201CE60E489830006800F0A6
:101BA00002000028F1D1E069002860D0094880686F
:101BB00000F00C000C287AD0E069022858D10548C2
:101BC000006820F0807003490860FFF709F90546B6
:101BD0000DE00000001002403400002000700040C2
:101BE000FFF7FEF8401B022801D90320F1E54A481F
:101BF000006800F000700028F2D1D4E90810401EFF
:101C000041EA0011A06A41EA0021208E0122C2EBC4
:101C1000500041EA40513420005DC2EB500041EADF
:101C200040612C20005D41EAC0603B49C9683B4AE5
:101C3000114008433849C8600846006840F0807089
:101C400008600846C06840F08070C860FFF7C8F8B8
:101C5000054606E0FFF7C4F8401B022801D903201F
:101C6000B7E52D48006800F000700028F2D051E080
:101C70002948006820F0807027490860FFF7B0F815
:101C8000054606E0FFF7ACF8401B022801D9032007
:101C90009FE52148006800F000700028F2D11E483E
:101CA000C0681F4908401C49C86033E0FFE7E0698D
:101CB000012800D18DE51848C66806F00301206AA6
:101CC000814225D106F0F001606A401EB1EB001F91
:101CD0001ED106F4FE41A06AB1EB002F18D106F028
:101CE00078412C20005DB1EBC06F11D106F4C0012A
:101CF000208E0122C2EB5000B1EB405F08D106F00C
:101D0000C0613420005DC2EB5000B1EB406F01D0E8
:101D100001205EE500205CE5001002400C809F0180
:101D2000FCFFEEFE2DE9F04104460D4616461F4627
:101D300014B90120BDE8F081D4F8880028B900204A
:101D400084F88400204601F0E7FA2420C4F88800D3
:101D50002068006820F0010021680860A06A10B1C6
:101D6000204603F09FFB204603F0B8FD012800D178
:101D7000E0E72068806840F480402168886020683F
:101D8000806820F400402843216888604FEA465864
:101D900048EA0748206800680749084040EA080008
:101DA000216808602068006840F001002168086030
:101DB000204603F0F3FBBDE7FFFF00FC70B50446CF
:101DC0000CB9012070BD606A38B96068B0F5827FD7
:101DD00000D105E00021E16102E0002121616161A3
:101DE0000021A16294F85D0028B9002084F85C000D
:101DF000204600F061F8022084F85D002068006849
:101E000020F0400021680860E068B0F5E06F01D97B
:101E1000002501E04FF48055E068B0F5706F05D003
:101E2000E068B0F5E06F01D00021A162A08800F465
:101E30008270218901F404410843217C01F00201F0
:101E40000843217D01F001010843218B01F4007159
:101E50000843217F01F0380108432021095D01F08A
:101E600080010843218D01F4005108432168086076
:101E70000421A06901EA104094F8241001F0100137
:101E8000084394F8341001F008010843A18901F4D3
:101E90007061084305F48051084321684860206858
:101EA000C06920F400602168C8610020206601201C
:101EB00084F85D00002085E710B586B00446142143
:101EC00001A8FEF74FFB17492068884228D100BFC0
:101ED0001548006E40F48050134908660846006EAD
:101EE00000F48050009000BF00BF00BF0846C06CE7
:101EF00040F00100C8640846C06C00F0010000908A
:101F000000BF00BFE020019002200290002003905B
:101F100004900520059001A94FF09040FEF75AFE6D
:101F200006B010BD003001400010024070477047FD
:101F30007047000010B50346002200BF93F83C0034
:101F4000012801D1022010BD012083F83C0000BF10
:101F500022F0FF00CC6840EA040222F440708C6852
:101F600040EA040222F480604C6840EA040222F451
:101F700000600C6840EA040222F480500C6940EAD8
:101F8000040222F400504C6940EA040222F480402A
:101F90000C6B40EA040222F470200C8B40EA0442ED
:101FA00022F08050CC6940EA0402124C1868A0422A
:101FB00003D0114C1868A04213D122F470000C8D8C
:101FC00040EA045222F080700C6A40EA040222F0D7
:101FD00000704C6A40EA040222F00050CC6A40EAE9
:101FE00004021868426400BF002083F83C0000BF70
:101FF00000BFA8E7002C01400034014070470146B3
:102000000868406D40F400300A6850650020704751
:102010007047704730B502460B4600BF92F83C004F
:10202000012801D1022030BD012082F83C0000BF10
:10203000022082F83D0010684168106884681D4DD8
:102040001068A84203D01C4D1068A84203D121F4A7
:10205000700158680143194801401868014310682D
:102060004160144D1068A84213D01068B0F1804F41
:102070000FD0134D1068A8420BD0124D1068A84223
:1020800007D00D4D1068A84203D00F4D1068A8422C
:1020900005D124F08004986804431068846001200E
:1020A00082F83D0000BF002082F83C0000BF00BF66
:1020B000B9E70000002C0140003401408FFFFFFD14
:1020C00000040040000800400040014070B5044694
:1020D0000D4615B994F844000BE0042D02D14520BB
:1020E000005D06E0082D02D14620005D01E047209A
:1020F000005D012801D0012070BD1DB9022084F8C7
:1021000044000EE0042D03D102214520015508E0D2
:10211000082D03D102214620015502E0022147206B
:10212000015504222946206802F07BF92068406CA2
:1021300040F400402168486418492068884213D060
:102140002068B0F1804F0FD01549206888420BD02D
:1021500014492068884207D013492068884203D078
:1021600012492068884210D120688068104900EA2E
:102170000106062E0FD0B6F5803F0CD0206800680F
:1021800040F001002168086005E02068006840F028
:102190000100216808600020AEE70000002C01402B
:1021A00000040040000800400034014000400140AD
:1021B00007000100704710B504460CB9012010BD9E
:1021C00094F83D0028B9002084F83C00204600F037
:1021D00029F8022084F83D00211D206802F0AEF8A5
:1021E000012084F8480000BF84F83E0001213F2010
:1021F0000155402001554120015542200155432001
:10220000015500BF00BF012084F84400452001555E
:10221000462001554720015500BF012084F83D00AC
:102220000020CCE708B5364A016891420DD100BFC5
:102230003449096E41F40061324A11661146096E53
:1022400001F40061009100BF59E00168B1F1804FD5
:102250000DD100BF2B49896D41F00101294A9165DB
:102260001146896D01F00101009100BF47E0264A47
:10227000016891420DD100BF2249896D41F00201F0
:10228000204A91651146896D01F00201009100BF5D
:1022900035E01E4A016891420DD100BF1949096E0F
:1022A00041F40051174A11661146096E01F40051BC
:1022B000009100BF23E0164A016891420DD100BF92
:1022C0001049096E41F480310E4A11661146096EBB
:1022D00001F48031009100BF11E00E4A0168914283
:1022E0000DD100BF0749096E41F40031054A11665E
:1022F0001146096E01F40031009100BF00BF08BD16
:10230000002C014000100240000400400034014055
:102310000040014000440140014691F83D00012881
:1023200001D001207047022081F83D000868C06894
:1023300040F001000B68D860184B0868984213D031
:102340000868B0F1804F0FD0154B086898420BD049
:10235000144B0868984207D0134B0868984203D082
:10236000124B0868984210D108688068104B00EA48
:102370000302062A0FD0B2F5803F0CD0086800682F
:1023800040F001000B68186005E00868006840F044
:1023900001000B6818600020C4E70000002C014019
:1023A00000040040000800400034014000400140AB
:1023B000070001002DE9F04104460D46002700BF4B
:1023C00094F83C00012802D10220BDE8F0810120F0
:1023D00084F83C0000BF022084F83D002068866835
:1023E0003F48064026F47F462068866028687028AB
:1023F00024D00CDC00F00F01002964D10011072863
:1024000061D2DFE800F05354555649353F00354A54
:10241000811A90424FD009DCB0F5805F0DD0B0F545
:10242000005F18D0B0F1101F4DD143E0102943D008
:10243000202942D0502946D140E046E0D5E9021398
:102440006A68206801F0FEFF2068866846F077061B
:102450002068866039E0D5E902136A68206801F0D7
:10246000F1FF2068806840F48040216888602CE09B
:10247000EA686968206802F0D9F95021206801F003
:10248000EDFF22E0EA686968206802F005FA602141
:10249000206801F0E3FF18E0EA686968206802F04C
:1024A000C5F94021206801F0D9FF0EE000BF00BF50
:1024B00000BF00BF00BF00BF00BF00BF2968206889
:1024C00001F0CCFF01E0012700BF00BF012084F82C
:1024D0003D0000BF002084F83C0000BF384674E790
:1024E00088FFCEFF20001000704770B504462068BA
:1024F000C6682068056905F00200022819D106F0B7
:102500000200022815D1401F2168086101202077B0
:102510002068806900F0030018B12046FFF7E4FF4F
:1025200005E0204600F052FA204600F040FB002073
:10253000207705F00400042819D106F004000428CF
:1025400015D1C04321680861022020772068806986
:1025500000F4407018B12046FFF7C6FF05E02046A2
:1025600000F034FA204600F022FB0020207705F02E
:102570000800082819D106F00800082815D1C04322
:1025800021680861042020772068C06900F00300FA
:1025900018B12046FFF7A8FF05E0204600F016FA24
:1025A000204600F004FB0020207705F010001028E2
:1025B00019D106F01000102815D1C0432168086118
:1025C000082020772068C06900F4407018B12046C8
:1025D000FFF78AFF05E0204600F0F8F9204600F0FA
:1025E000E6FA0020207705F0010048B106F001006E
:1025F00030B16FF0010021680861204600F07EFBD9
:1026000005F08000802804D005F40050B0F5005F8C
:102610000AD106F08000802806D16FF402502168AC
:1026200008612046FFF783FC05F48070B0F5807FD9
:102630000AD106F08000802806D16FF480702168EE
:1026400008612046FFF772FC05F04000402809D1E0
:1026500006F04000402805D1C043216808612046AB
:1026600000F058FB05F02000202809D106F02000DA
:10267000202805D1C043216808612046FFF758FC97
:1026800005F48010B0F5801F0BD106F48010B0F572
:10269000801F06D16FF48010216808612046FFF783
:1026A000B7FC05F40010B0F5001F0BD106F40010C4
:1026B000B0F5001F06D16FF40010216808612046B4
:1026C000FFF79CFC05F48000B0F5800F0BD106F4F9
:1026D0008000B0F5800F06D16FF48000216808619A
:1026E0002046FFF796FC05F40000B0F5000F0BD173
:1026F00006F40000B0F5000F06D16FF40000216869
:1027000008612046FFF756FD70BD000010B586B089
:102710000446142101A8FDF725FFA449206888423A
:1027200043D100BFA248C06C40F00400A049C86477
:102730000846C06C00F00400009000BF00BF00BF5E
:102740000846C06C40F00200C8640846C06C00F047
:102750000200009000BF00BF0F20019002200290F5
:102760000020039004900220059001A99148FEF7F3
:1027700031FA202001900220029000200390049062
:102780000620059001A98B48FEF724FA46F20200C4
:1027900001900220029000200390049006200590F2
:1027A00001A98548FEF716FAFEE02068B0F1804FD7
:1027B0001CD100BF7E48C06C40F001007C49C86459
:1027C0000846C06C00F00100009000BF00BF01206F
:1027D00001900220029000200390049001200590B7
:1027E00001A94FF09040FEF7F5F9DDE0734920684C
:1027F00088421BD100BF6E48C06C40F002006C499B
:10280000C8640846C06C00F00200009000BF00BF22
:1028100010200190022002900020039004900220DA
:10282000059001A96448FEF7D5F9BDE06449206828
:10283000884244D100BF5E48C06C40F004005C494F
:10284000C8640846C06C00F00400009000BF00BFE0
:1028500000BF0846C06C40F00200C8640846C06C67
:1028600000F00200009000BF00BF4FF40050019044
:10287000022002900020039004900620059001A9F8
:102880004C48FEF7A7F90120019002200290002099
:10289000039004900420059001A94748FEF79AF997
:1028A0004FF4BE500190022002900020039004904B
:1028B0000420059001A93F48FEF78CF974E04149D6
:1028C0002068884236D100BF3948C06C40F0010012
:1028D0003749C8640846C06C00F00100009000BF92
:1028E00000BF00BF0846C06C40F00200C864084644
:1028F000C06C00F00200009000BF00BF04200190F7
:10290000022002900020039004900920059001A964
:10291000C006FEF75FF94FF40040019002200290DC
:102920000020039004900220059001A92248FEF7A0
:1029300051F939E024492068884235D100BF1C484C
:10294000C06C40F001001A49C8640846C06C00F031
:102950000100009000BF00BF00BF0846C06C40F0FF
:102960000200C8640846C06C00F00200009000BF7E
:1029700000BF881401900220029000200390049070
:102980000120059001A94FF09040FEF723F9402067
:1029900001900220029000200390049001200590F5
:1029A00001A90548FEF716F906B010BD002C01403C
:1029B00000100240000800480004004800040040E5
:1029C00000340140004001400044014070472DE9BF
:1029D000F04104460D461646002700BF94F83C001F
:1029E000012802D10220BDE8F081012084F83C00DA
:1029F00000BF0C2E51D005DC4EB1042E1ED0082E87
:102A00007AD133E0102E60D0142EF9D175E029462A
:102A1000206801F02FFD2068806940F008002168DF
:102A200088612068806920F004002168886120683E
:102A30008069296908432168886178E0294620680F
:102A400001F070FD2068806940F4006021688861B1
:102A50002068806920F4806021688861206880692E
:102A6000296940EA01202168886160E029462068E0
:102A700001F0B4FD2068C06940F008002168C86119
:102A80002068C06920F004002168C8612068C0691E
:102A9000296908432168C86149E02946206801F096
:102AA000F9FD2068C06940F400602168C8612068B1
:102AB000C06920F480602168C8612068C069296904
:102AC00040EA01202168C86131E02946206801F010
:102AD0003DFE2068006D40F0080021680865206810
:102AE000006D20F00400216808652068006D2969E8
:102AF0000843216808651AE017E02946206801F0BC
:102B00005DFE2068006D40F4006021680865206863
:102B1000006D20F48060216808652068006D2969D7
:102B200040EA01202168086501E0012700BF00BFDD
:102B300000BF002084F83C0000BF384653E710B5C2
:102B400004460CB9012010BD94F83D0028B90020BE
:102B500084F83C00204600F029F8022084F83D006B
:102B6000211D206801F0EAFB012084F8480000BF25
:102B700084F83E0001213F200155402001554120AD
:102B80000155422001554320015500BF00BF0120DF
:102B900084F8440045200155462001554720015541
:102BA00000BF012084F83D000020CCE7704770474B
:102BB00070B504460D4615B994F83E0015E0042D95
:102BC00002D13F20005D10E0082D02D14020005DC1
:102BD0000BE00C2D02D14120005D06E0102D02D14A
:102BE0004220005D01E04320005D012801D001206A
:102BF00070BD1DB9022084F83E001AE0042D03D1F7
:102C000002213F20015514E0082D03D1022140206C
:102C100001550EE00C2D03D102214120015508E0A1
:102C2000102D03D102214220015502E00221432050
:102C3000015501222946206801F0E2FB274920685E
:102C400088420FD02649206888420BD02549206849
:102C5000884207D024492068884203D0234920684D
:102C6000884201D1012000E0002028B12068406C9A
:102C700040F400402168486418492068884213D015
:102C80002068B0F1804F0FD01949206888420BD0DE
:102C900018492068884207D011492068884203D02B
:102CA00010492068884210D120688068124900EAE3
:102CB0000106062E0FD0B6F5803F0CD020680068C4
:102CC00040F001002168086005E02068006840F0DD
:102CD00001002168086000208AE70000002C014004
:102CE00000340140004001400044014000480140E0
:102CF00000040040000800400700010010B5044631
:102D000003492068884201D1FEF770F810BD000029
:102D1000000800407047014600BF91F88400012878
:102D200001D102207047012081F8840000BF2420D7
:102D3000C1F88800086802680868006820F001008F
:102D40000B68186022F00052002048660868026094
:102D50002020C1F8880000BF002081F8840000BF57
:102D600000BFDFE72DE9F04104460E461746D4F8D0
:102D70008C00202825D106B117B90120BDE8F081CB
:102D80000120E066002020673A463146204602F0E6
:102D900067FF05469DB9E06E01280FD1102021681C
:102DA000086200BF00BF216851E8001F41F0100019
:102DB000226842E800010029F5D100E001252846FB
:102DC000DCE70220DAE7000070B504460D460C4946
:102DD0002068884213D129460A4801F06FF94FF460
:102DE000807208490848FFF7BDFFD4F880000068EA
:102DF000006820F00400D4F880100968086070BDF5
:102E000000440040C4000020F4040020704770B566
:102E100004460D4600BF94F88400012801D1022029
:102E200070BD012084F8840000BF2420C4F888000D
:102E3000206806682068006820F0010021680860AA
:102E40002068806820F06060284321688860204600
:102E500002F0FCFA206806602020C4F8880000BF59
:102E6000002084F8840000BF00BFD9E770B5044695
:102E70000D4600BF94F88400012801D1022070BDE6
:102E8000012084F8840000BF2420C4F88800206852
:102E900006682068006820F001002168086020684A
:102EA000806820F06040284321688860204602F056
:102EB000CDFA206806602020C4F8880000BF0020FA
:102EC00084F8840000BF00BFD9E77047704770479F
:102ED0002DE9F04704462068C56920680668206827
:102EE000876840F60F0005EA0009B9F1000F0FD11D
:102EF00005F0200060B106F0200010B907F0805006
:102F000030B1606F10B12046616F8847BDE8F0872F
:102F1000B9F1000F7ED0DF48384018B9DE483040A4
:102F20000028F7D005F0010058B106F4807040B1D8
:102F3000012021680862D4F8900040F00100C4F834
:102F4000900005F0020058B107F0010040B10220E6
:102F500021680862D4F8900040F00400C4F89000A2
:102F600005F0040058B107F0010040B104202168C9
:102F70000862D4F8900040F00200C4F8900005F018
:102F8000080070B106F0200010B9C248384040B1C6
:102F9000082021680862D4F8900040F00800C4F8C6
:102FA000900005F4006060B106F0806048B14FF415
:102FB000006021680862D4F8900040F02000C4F856
:102FC0009000D4F89000002852D005F0200050B1B5
:102FD00006F0200010B907F0805020B1606F10B1EA
:102FE0002046616F8847D4F890A02068806800F080
:102FF0004000402802D00AF0280070B3204602F0BA
:10300000FFFB2068806800F04000402826D100BF08
:1030100000BF00E02DE02168083151E8001F21F0D9
:1030200040002168083141E80002002AF1D100BFC8
:10303000D4F8800068B19948D4F880108863D4F837
:103040008000FDF71EFC98B1D4F88000816B8847A2
:103050000EE02046FFF73BFF0AE003E02046FFF7C3
:1030600036FF05E02046FFF732FF0020C4F890004D
:103070004CE7E06E012865D105F01000002861D012
:1030800006F010000028FAD010202168086220689D
:10309000806800F0400040287AD1D4F880000068B1
:1030A00040681FFA80F8B8F1000F5CD0B4F85C00FB
:1030B000404558DDA4F85E80D4F8800000680068C0
:1030C00000F02000E8BB00BF00BF216851E8001FEE
:1030D00021F48070226842E800010029F5D100BF88
:1030E00000BF00BF2168083151E8001F21F0010036
:1030F0002168083141E80002002AF3D100BF00BF77
:1031000000BF2168083151E8001F21F0400021680C
:10311000083141E80002002AF3D100BF2020C4F8A2
:103120008C000020E06600BF00BF216851E8001F4E
:1031300021F01000226842E800010029F5D100BF0B
:1031400001E004E068E0D4F88000FDF75BFB0220BA
:103150002067B4F85C00B4F85E20801A81B2204683
:10316000FFF732FE12E0B4F85C0040450ED1D4F80F
:1031700080000068006800F02000202806D10220AE
:103180002067B4F85C102046FFF71EFEBEE6FFE79E
:1031900034F85C0F6188401A1FFA80F860885C3C44
:1031A000C8B3B8F1000F36D000BF00BF216851E8A6
:1031B000001F21F49070226842E800010029F5D137
:1031C00000BF00BF00BF2168083151E8001F314A2D
:1031D000D24301EA02002168083141E80002002AD6
:1031E000F1D100BF2020C4F88C000020E0666067A9
:1031F00000BF00BF216851E8001F21F010002268C5
:1032000042E800010029F5D100BF022020674146B5
:103210002046FFF7D9FD79E605F4801050B107F498
:10322000800038B14FF48010216808622046FFF713
:103230004DFE6BE605F0800058B106F0800010B935
:1032400007F4000028B1A06F10B12046A16F884795
:103250005CE605F0400030B106F0400018B12046B1
:1032600002F004FB52E605F4000030B106F08040A5
:1032700018B12046FFF729FE48E605F0807030B10E
:1032800006F0004018B12046FFF7C0FD3EE600BF43
:103290003CE60000010000102001000487560008F1
:1032A00010B504460CB9012010BDA06900B100E0C2
:1032B00000BFD4F8880028B9002084F88400204694
:1032C00000F02AF82420C4F888002068006820F064
:1032D000010021680860A06A10B1204602F0E2F8FF
:1032E000204602F0FBFA012800D1DDE720684068A3
:1032F00020F49040216848602068806820F02A000F
:10330000216888602068006840F00100216808603A
:10331000204602F043F9C7E710B598B004461421DF
:1033200013A8FDF71FF9442102A8FDF71BF9644912
:10333000206888424ED1012002900020039002A80C
:10334000FDF7E0FE08B1FDF75AFA00BF5D48006ED8
:1033500040F480405B4908660846006E00F48040F7
:10336000019000BF00BF00BF0846C06C40F00400E1
:10337000C8640846C06C00F00400019000BF00BFA4
:1033800000BF0846C06C40F00100C8640846C06C2D
:1033900000F00100019000BF00BF10201390022038
:1033A00014900020159016900720179013A94648F6
:1033B000FDF710FC4FF48060139002201490002061
:1033C000159016900720179013A94FF09040FDF725
:1033D00001FC73E03D49206888426FD102200290D1
:1033E0000020049002A8FDF78DFE08B1FDF707FA52
:1033F00000BF3448806D40F400303249886508468B
:10340000806D00F40030019000BF00BF00BF08468F
:10341000C06C40F00100C8640846C06C00F00100B8
:10342000019000BF00BF00BF0846C06C40F0020022
:10343000C8640846C06C00F00200019000BF00BFE5
:103440000A20139002201490002015901690072057
:10345000179013A94FF09040FDF7BCFB0820139084
:10346000022014900020159016900720179013A9A1
:103470001748FDF7AFFB1748174908601A20486046
:10348000002115488160C1608021016100214161F6
:103490008161C1610162FDF7BDFA08B1FDF7AFF9C5
:1034A00000BF0D48C4F88000846200BF00220621DE
:1034B0002620FDF73FFD2620FDF728FD18B010BDA2
:1034C000003801400010024000080048004400405D
:1034D000000400480800024088050020704770473B
:1034E0007047000010B500B910BD0A4B1B680A4CAC
:1034F000B3FBF4F101B901218B0803FB00F202B91F
:10350000024600E000BF131EA2F10102FAD100BF83
:10351000EAE700003C00002040420F0010B54FF4E5
:1035200000614FF09040FDF743FC012800D110BD31
:103530000020FCE710B5044622464FF400714FF01E
:103540009040FDF747FC10BD10B5044622464FF4ED
:1035500000614FF09040FDF73DFC10BD10B50446F2
:1035600022464FF480714FF09040FDF733FC10BDC0
:1035700000BFFEE708B500BF1148806C40F00400B2
:103580000F4988640846806C00F00400009000BF7A
:1035900000BF00BF0846806C40F001008864084608
:1035A000806C00F00100009000BF00BF00220521E8
:1035B0000B20FDF7BFFC0B20FDF7A8FC08BD0000A9
:1035C0000010024010B50D4802F0C1FE0C49086021
:1035D0000C4A0421084602F06DFE0B4908600B4AB4
:1035E00000210B4802F00CFF0A4908600A4A00213A
:1035F0000A4802F005FF0A49086010BD5889000812
:10360000240000204089000820000020F8880008DD
:1036100091420008180000201C890008354200086B
:103620001C00002000B587B0142102A8FCF79AFF07
:1036300000BF3D48C06C40F004003B49C8640846E8
:10364000C06C00F00400019000BF00BF00BF08463E
:10365000C06C40F02000C8640846C06C00F0200038
:10366000019000BF00BF00BF0846C06C40F00100E1
:10367000C8640846C06C00F00100019000BF00BFA4
:1036800000BF0846C06C40F00200C8640846C06C29
:1036900000F00200019000BF00BF00224FF428613B
:1036A0002248FDF797FB00224FF430614FF0904025
:1036B000FDF790FB4FF4286002900120039000205A
:1036C0000490059002A91948FDF784FA4FF4805040
:1036D00002904FF4881003900020049002A9134830
:1036E000FDF778FA012211024FF09040FDF772FBCE
:1036F0000122D1024FF09040FDF76CFB00224FF405
:1037000000714FF09040FDF765FB4FF43060029080
:103710001120039000200490059002A94FF09040E2
:10372000FDF758FA07B000BD001002400004004841
:1037300010B51248124908604FF4827048600021A9
:103740000F4881604FF44071C16000210161416107
:103750004FF4007181613021C16100210162416239
:1037600081620721C1620021016308214163FEF7E4
:1037700025FB08B1FDF743F810BD00000030014003
:103780003402002000B59BB00020179018901990CB
:103790001A901490159016901C210DA8FCF7E2FECB
:1037A00034216846FCF7DEFE2F48304908600420CB
:1037B000486000212D48816040F2A361C160002172
:1037C000016141618161FEF7F6FC08B1FDF717F870
:1037D0004FF48050179017A92448FEF7EBFD08B16D
:1037E000FDF70DF82148FFF7AAF908B1FDF707F832
:1037F00000201490169014A91C48FEF70BFC08B189
:10380000FCF7FDFF60200D9000200E900F901090AF
:1038100011901290139000220DA91448FFF7D7F8C9
:1038200008B1FCF7ECFF1148FEF7E9FB4FF400602C
:10383000009040100190002002906420039000202E
:1038400004904FF400500590002006900C906946BB
:103850000648FEF76FFB08B1FCF7D1FF0348FEF7FF
:1038600055FF1BB000BD000000400140C803002010
:1038700000B595B01C210EA8FCF774FE342101A8F8
:10388000FCF770FE254826490860042048600021A6
:103890002348816040F2A361C16000210161416160
:1038A0008161FEF788FC08B1FCF7A9FF1C48FFF70F
:1038B00046F908B1FCF7A3FF60200E9000200F909E
:1038C0001090119012901390149000220EA9144899
:1038D000FFF77DF808B1FCF792FF1148FEF78FFB68
:1038E0004FF400600190401002900020039064208B
:1038F0000490002005904FF400500690002007909F
:103900000D9001A90648FEF715FB08B1FCF777FFFB
:103910000348FEF7FBFE15B000BD00000044014067
:103920001404002000B59BB0002017901890199047
:103930001A901490159016901C210DA8FCF712FEF9
:1039400034216846FCF70EFE3F48404908600420D9
:10395000486000213D48816040F2A361C1600021C0
:10396000016141618161FEF726FC08B1FCF747FF68
:103970004FF48050179017A93448FEF71BFD08B18B
:10398000FCF73DFF3148FFF7DAF808B1FCF737FFE5
:10399000002014901590169014A92C48FEF73AFBBD
:1039A00008B1FCF72CFF60200D9000200E900F90C6
:1039B000109011901290139000220DA92348FFF748
:1039C00006F808B1FCF71BFF04220DA91F48FEF7FB
:1039D000FEFF08B1FCF713FF08220DA91B48FEF7F4
:1039E000F6FF08B1FCF70BFF0C220DA91748FEF7F4
:1039F000EEFF08B1FCF703FF1448FEF700FB4FF49D
:103A0000006000904010019000200290632003901D
:103A1000002004904FF4005005900020069007907D
:103A200008904FF00070099000200A900B900C90C5
:103A300069460648FEF77EFA08B1FCF7E0FE034847
:103A4000FEF764FE1BB000BD002C01409802002070
:103A500000B58FB000200B900C900D900E90089048
:103A600009900A901C2101A8FCF77CFD4FF08040D2
:103A70001F4908604320486000211D48816040F2D2
:103A8000E731C160002101618161FEF794FB08B15B
:103A9000FCF7B5FE4FF480500B900BA91448FEF7CD
:103AA00089FC08B1FCF7ABFE1148FFF748F808B1F4
:103AB000FCF7A5FE002008900A9008A90C48FEF724
:103AC000A9FA08B1FCF79BFE60200190002002904B
:103AD00003900590002201A90548FEF778FF08B180
:103AE000FCF78DFE0248FEF711FE0FB000BD00008E
:103AF000E402002000B58FB000200B900C900D90D8
:103B00000E90089009900A901C2101A8FCF72AFD4C
:103B10001F48204908605420486000211D488160EA
:103B200040F2E731C160002101618161FEF743FB92
:103B300008B1FCF764FE4FF480500B900BA91548B8
:103B4000FEF738FC08B1FCF75AFE1248FEF7F7FF03
:103B500008B1FCF754FE002008900A9008A90D480F
:103B6000FEF758FA08B1FCF74AFE602001900020E9
:103B7000029003900590002201A90648FEF727FF56
:103B800008B1FCF73CFE0348FEF7C0FD0FB000BDD6
:103B9000000400403003002000B59BB000201790C7
:103BA000189019901A901490159016901C210DA839
:103BB000FCF7D8FC34216846FCF7D4FC3F48404968
:103BC00008600020486000213D48816040F2A36108
:103BD000C1600021016141618161FEF7ECFA08B129
:103BE000FCF70DFE4FF48050179017A93448FEF7EC
:103BF000E1FB08B1FCF703FE3148FEF7A0FF08B176
:103C0000FCF7FDFD002014901590169014A92C4887
:103C1000FEF700FA08B1FCF7F2FD60200D900020DD
:103C20000E900F90109011901290139000220DA9F9
:103C30002348FEF7CCFE08B1FCF7E1FD04220DA9F4
:103C40001F48FEF7C4FE08B1FCF7D9FD08220DA9F4
:103C50001B48FEF7BCFE08B1FCF7D1FD0C220DA9F4
:103C60001748FEF7B4FE08B1FCF7C9FD1448FEF78B
:103C7000C6F94FF4006000904010019000200290BF
:103C800096200390002004904FF4005005900020EF
:103C90000690079008904FF00070099000200A905D
:103CA0000B900C9069460648FEF744F908B1FCF702
:103CB000A6FD0348FEF72AFD1BB000BD00340140FD
:103CC0007C03002010B51848184908604FF4E13013
:103CD0004860002115488160C16001610C2141618B
:103CE00000218161C1610162416200200F49886247
:103CF0000846FFF7D5FA08B1FCF781FD00210B4813
:103D0000FFF7B4F808B1FCF77AFD00210748FFF788
:103D10007EF808B1FCF773FD0448FEF7FCFF08B11C
:103D2000FCF76DFD10BD000000380140600400206C
:103D300010B51948194908604FF4E1304860002176
:103D400016488160C16001610C21416100218161DF
:103D5000C1610162416200201049886200231A4655
:103D600019460E48FDF7DEFF08B1FCF748FD0021BB
:103D70000A48FFF77BF808B1FCF741FD002107482E
:103D8000FFF745F808B1FCF73AFD0448FEF7C3FF1A
:103D900008B1FCF734FD10BD00440040F4040020DD
:103DA00000BFFEE700BFFEE710B5032000F010F8EB
:103DB00010BD10B5042000F00BF810BD10B50020A8
:103DC00000F006F810BD10B5012000F001F810BD9C
:103DD00070B50446204600F01FF90646062E00D1B5
:103DE00070BD02F014FA0546084840F8245000203F
:103DF000074941F82400074908552B46002231465F
:103E0000054801F055F900BFEAE700000002002074
:103E100014020020090000204033002010B50220C9
:103E2000FFF7D6FF10BD000000B50146B0EE402AF6
:103E300001B900BD81ED002AC1ED010A81ED021A30
:103E4000C1ED0A1A9FED0A0A81ED060A9FED090AE3
:103E500081ED070A9FED080A81ED080A9FED070A28
:103E600081ED090A084600F00BF800BFE1E7000009
:103E70000000C8420000C8C200004842000048C21A
:103E800000B970479FED060A80ED040A9FED040A11
:103E900080ED050A9FED020A80ED030A00BFF0E7FE
:103EA0000000000000B9704780ED070AC0ED060A67
:103EB00080ED091AC0ED081A00BFF4E710B5012221
:103EC0000421044800F03AFF00220421014800F0D8
:103ED00035FF10BD083300202DE9F0410446254888
:103EE00000F0BEFD0CB9BDE8F0812546642095FBCD
:103EF000F0F0C6B20A2095FBF0F00A2190FBF1F237
:103F000001FB1200C7B20A2095FBF0F100FB115033
:103F100000F0FF0800230E221946164800F034FF77
:103F2000002E12DD002332460121124800F02CFF42
:103F300000233A4602210F4800F026FF00234246A4
:103F400003210C4800F020FF11E000231A46012154
:103F5000084800F019FF00233A460221054800F006
:103F600013FF002342460321024800F00DFF00BF6B
:103F7000B9E700000833002010B52DED028B044690
:103F800000EE104AB8EEC00AB0EE408A9FED0F0A6C
:103F9000B4EEC08AF1EE10FA03DD9FED0C0AB0EE2C
:103FA000408A9FED0B0AB4EEC08AF1EE10FA03D2FC
:103FB0009FED070AB0EE408A0021B0EE480A05489E
:103FC00000F000FFBDEC028B10BD0000003C1C4661
:103FD00000C079C40833002010B52DED028BB0EE7F
:103FE000408A0121B0EE480A024800F0EBFEBDEC29
:103FF000028B10BD0833002070B504460D46012C1D
:1040000006DB072C04DC2A462146024800F096FE17
:1040100070BD000008330020014605290ED2DFE8FC
:1040200001F0030507090B00002070470120FCE7A1
:104030000220FAE70320F8E70420F6E70620F4E779
:1040400010B500F03FFD154800F0E0FFDFED141A59
:104050009FED141AF7EE000AB3EE0E0A1248FFF7AE
:10406000E3FEDFED121A9FED121ADFED120A9FED4B
:10407000100A0D48FFF716FF0121B3EE090A0E489A
:1040800000F0A0FE012204210B4800F057FE01229F
:104090000521094800F052FE10BD00004033002009
:1040A000CDCCCC3D00000000C40100200000C8447D
:1040B00000002F440060D4440833002070B505464A
:1040C0000E46002404E0285D00F006F8601C84B26F
:1040D000B442F8DB70BD000078B53649097821B1EB
:1040E00001290AD0022962D11BE0AA2804D1324951
:1040F000087001212F4A117059E0552807D12E4927
:10410000487002212D4A11702A4A117008E0AA282D
:1041100003D10121274A117002E00021254A1170C4
:1041200045E026490A780978491C244B1970224930
:10413000885419460978092938DB0023022104E054
:104140001D4A525C1A44D3B2491C0729F8DD1A49AA
:10415000097A994226D1184A9178D478012920DB2E
:1041600004291EDC4A1E164DAC54D4B96A46124DC1
:104170002D791570104D6D7955700F4DAD79957085
:104180000D4DED79D5709DED000A4D1E0D4E06EBDF
:10419000850585ED000A022902D101250A4E3570F8
:1041A00000BF00BF0021034A117000BF00BF00BF65
:1041B00078BD000014000020280200201500002017
:1041C00002000020F00100200800002070B5164D0C
:1041D000ED6805F00304144DED68C5F303156B1C81
:1041E000022C0CD0032C09D1104DB5FBF3F50E4E6B
:1041F000F668C6F3062605FB06F10AE000BF0C4D83
:10420000B5FBF3F5084EF668C6F3062605FB06F186
:1042100000BF00BF044DED68C5F341656D1C6A0029
:10422000B1FBF2F070BD00000010024000127A00F5
:104230000024F40000BF01F0EAFF04460F480068C4
:10424000201A142816D30D4804600D4800F095FC80
:10425000FCF710FA21460B4801F05EF80A480068A6
:10426000201AB0F5FA7F05D307480460802107487B
:10427000FCF7A6FD052001F0BBFFDCE728000020CD
:1042800008330020403300202C00002000040048A8
:1042900000BF0A2001F0ACFFFBE710B54FF0E020B3
:1042A000006904F0C3F8012801D003F0B9FC10BD87
:1042B00000B593B0382105A8FCF754F914216846DD
:1042C000FCF750F90020FCF787FE01200590000460
:1042D000069002200C9003210D9102210E91552190
:1042E0000F91022110911191129105A8FDF76CFA1E
:1042F00008B1FCF784FA0F20009003200190002001
:1043000002900390049004216846FDF7B3F808B1C9
:10431000FCF775FA13B000BD0348006840F4700064
:10432000014908607047000088ED00E010B50248C0
:10433000FEF7DBF810BD0000E805002010B50268AC
:10434000284B98420BD0B0F1804F08D0264B9842B2
:1043500005D0264B984202D0254B984203D122F03B
:1043600070024B681A431F4B984214D0B0F1804F33
:1043700011D01D4B98420ED01C4B98420BD01C4BB9
:10438000984208D01B4B984205D01B4B984202D054
:104390001A4B984203D122F44072CB681A4322F0A0
:1043A00080034C6943EA04028B68C3620B68836232
:1043B0000C4B98420BD00E4B984208D00D4B9842B4
:1043C00005D00D4B984202D00C4B984201D10B699D
:1043D0000363036843F00403036001234361026045
:1043E00010BD0000002C0140000400400008004007
:1043F00000340140004001400044014000480140B9
:1044000030B501F01F05012404FA05F3046A9C434A
:104410000462046A01F01F0502FA05F52C430462E8
:1044200030BD30B501F00F05042404FA05F3046A29
:104430009C430462046A01F00F0502FA05F52C435F
:10444000046230BD30B50C46816821F47F4142EAF8
:10445000032525432943816030BD00000A46816859
:10446000034B194042F00703194381607047000075
:104470008FFFCFFF30B5026A056A25F0010505629E
:1044800043688469214D2C4024F003040D682C43BB
:1044900022F002028D682A431D4DA84200D10FE090
:1044A0001C4DA84200D10BE01B4DA84200D107E0F3
:1044B0001A4DA84200D103E0194DA84208D100BF0F
:1044C000056A25F00405056222F00802CD682A433A
:1044D0000F4DA8420BD00F4DA84208D00E4DA84258
:1044E00005D00E4DA84202D00D4DA84207D123F4AD
:1044F000807323F400734D692B438D692B43436014
:1045000084614D684563026230BD00008FFFFEFF8D
:10451000002C0140003401400040014000440140B3
:104520000048014030B5026A056A25F010050562B1
:1045300043688469234D2C4024F440740D6844EA98
:10454000052422F020028D6842EA05121E4DA84281
:1045500000D10FE01D4DA84200D10BE01C4DA84238
:1045600000D100BF1B4DA84200D100BF1A4DA84288
:1045700009D108E0056A25F04005056222F08002B5
:10458000CD6842EA0512104DA8420BD00F4DA8424B
:1045900008D00F4DA84205D00E4DA84202D00E4DB6
:1045A000A84209D123F4806323F400634D6943EAF0
:1045B00085038D6943EA8503436084614D688563A3
:1045C000026230BDFF8FFFFE002C0140003401402D
:1045D00000400140004401400048014030B5026AFB
:1045E000056A25F4807505624368C469234D2C4033
:1045F00024F003040D682C4322F400728D6842EA13
:1046000005221F4DA84200D10FE01E4DA84200D147
:104610000BE01D4DA84200D100BF1C4DA84200D1A7
:1046200000BF1B4DA84209D108E0056A25F480654A
:10463000056222F40062CD6842EA0522104DA842CC
:104640000BD0104DA84208D00F4DA84205D00F4DF9
:10465000A84202D00E4DA84209D123F4805323F47E
:1046600000534D6943EA05138D6943EA051343601E
:10467000C4614D68C563026230BD00008FFFFEFF5C
:10468000002C014000340140004001400044014042
:104690000048014030B5026A056A25F4805505627C
:1046A0004368C469234D2C4024F440740D6844EAE7
:1046B000052422F400528D6842EA05321E4DA842BC
:1046C00000D10FE01D4DA84200D10BE01C4DA842C7
:1046D00000D100BF1B4DA84200D100BF1A4DA84217
:1046E00009D108E0056A25F48045056222F40042FC
:1046F000CD6842EA0532104DA8420BD00F4DA842BA
:1047000008D00F4DA84205D00E4DA84202D00E4D44
:10471000A84209D123F4804323F400434D6943EABE
:1047200085138D6943EA85134360C4614D68056450
:10473000026230BDFF8FFFFE002C014000340140BB
:1047400000400140004401400048014030B5026A89
:10475000056A25F4803505624368046D114D2C40CF
:104760000D682C4322F400320D8942EA05420E4DB9
:10477000A8420BD00D4DA84208D00D4DA84205D03F
:104780000C4DA84202D00C4DA84204D123F4803332
:104790004D6943EA0523436004654D688564026200
:1047A00030BD00008FFFFEFF002C014000340140AF
:1047B00000400140004401400048014030B5026A19
:1047C000056A25F4801505624368046D114D2C407F
:1047D0000D6844EA052422F400120D8942EA0552CC
:1047E0000D4DA8420BD00D4DA84208D00C4DA8424B
:1047F00005D00C4DA84202D00B4DA84204D123F4A1
:1048000080234D6943EA8523436004654D68C56490
:10481000026230BDFF8FFFFE002C014000340140DA
:1048200000400140004401400048014030B50B46C3
:104830001446026A056A25F001050562114DA84279
:1048400000D10FE0104DA84200D10BE00F4DA8425F
:1048500000D107E00E4DA84200D103E00D4DA84263
:1048600004D100BF056A25F004050562816921F0C5
:10487000F00141EA041122F00A021A438161026246
:1048800030BD0000002C01400034014000400140D8
:10489000004401400048014030B50B461446026A0E
:1048A000056A25F010050562114DA84200D10FE000
:1048B000104DA84200D10BE00F4DA84200D100BF1F
:1048C0000E4DA84200D100BF0D4DA84204D103E017
:1048D000056A25F040050562816921F4704141EACD
:1048E000043122F0A00242EA03128161026230BD6B
:1048F000002C0140003401400040014000440140D0
:104900000048014070B50446012021688847002016
:10491000616888470120A168884764202169884729
:1049200000250CE00120616888470520216988473F
:104930000020616888470520216988476D1C102D7B
:10494000F0DB01202168884700206168884701204A
:10495000A168884764202169884770BD01463029D5
:1049600006DB392904DCA1F130003B4A105C7047BA
:10497000612904DB7A2902DCA1F1200000E008466D
:10498000C1B2084649293ED018DC44282CD00CDCA2
:10499000412820D004DC202859D02D285AD153E0BA
:1049A00042281BD0432855D11BE045281FD046285C
:1049B00020D0472821D048284CD121E04A3810285F
:1049C00048D2DFE800F023472647292C2F4732350D
:1049D000383B4747473E21480078C8E71F484078A2
:1049E000C5E71E488078C2E71C480079BFE71B482E
:1049F0004079BCE719488079B9E71848C079B6E72B
:104A00001648007AB3E71548807AB0E71348C07AB1
:104A1000ADE71248007BAAE71048407BA7E70F48A4
:104A2000807BA4E70D48007CA1E70C48407C9EE712
:104A30000A48807C9BE70948C07C98E70748007DCE
:104A400095E70648807D92E70448C07D8FE70348DC
:104A5000007E8CE700208AE7A8890008B289000858
:104A600070B504464021204600F078FA0120216804
:104A700088470020616888470120A1688847052091
:104A8000216988470020216888470A2021698847D2
:104A9000C021204600F024F9002504E00021204632
:104AA00000F01EF96D1C102DF8DB002061688847AE
:104AB0000120A16888470120216888470A202169D0
:104AC000884770BD00B585B014220D496846FBF7D4
:104AD0000FFD6420FCF76AF869460A4800F014F8F4
:104AE00001220521074800F01EF90220FCF75EF8BC
:104AF00001220521034800F016F905B000BD0000B1
:104B0000CC8900080833002070B504460D461422F5
:104B100029462046FBF7ECFC052020750120607536
:104B2000002009E0002204F116010A54891D41F811
:104B3000202014310A54401C0528F3DB2046FFF7DF
:104B4000E1FE6420FCF732F82046FFF789FF0220DF
:104B5000FCF72CF8204600F0F1F90220FCF726F8CB
:104B6000204600F0EBF90220FCF720F8204600F088
:104B7000E5F92046FFF7C6FE70BD3EB504460120AC
:104B8000216888470020616888470120A16888471C
:104B90000520216988470020216888470A2021696B
:104BA00088474221204600F09BF8002505E020467A
:104BB00000F061F802A948556D1C042DF7DB0020B8
:104BC000616888470120A1688847012021688847DB
:104BD0000A20216988479DF80800C0F380008DF8FD
:104BE00000009DF80800C0F380108DF801009DF8CA
:104BF0000900C0F380008DF802009DF80900C0F3A1
:104C000080108DF803009DF80A00C0F380008DF835
:104C1000040000252CE01DF8051004F11600405D8D
:104C2000814204D1002104F1300041551FE004F11C
:104C30003000405D401CC1B204F130004155405D80
:104C4000032814DB002104F1300041551DF8051044
:104C50001A3841551DF8050048B104F11C0050F800
:104C6000250020B104F11C0151F8250080476D1C7E
:104C7000052DD0DB3EBD70B5044600250120A1689E
:104C80008847142021698847002615E06D10002010
:104C9000616888470A202169884701206168884740
:104CA000052021698847E068804708B145F0800504
:104CB0000A2021698847761C082EE7DB00206168FE
:104CC00088470120A1688847052021698847284630
:104CD00070BD052903DA00F11C0343F82120704759
:104CE00070B504460D46002611E000206168884733
:104CF00005F00100A16888476D100A2021698847E6
:104D00000120616888470A2021698847761C082E9F
:104D1000EBDB0020616888470120A16888470520F7
:104D20002169884770BD70B504460E461546267544
:104D30006575204600F002F970BD000070B50646AA
:104D40000C461546012C01DB072C00DD70BD4DB172
:104D5000601E012101FA00F00A4909780843094957
:104D6000087007E0601E01218140064800788843F2
:104D700004490870034802780821304600F014F90D
:104D800000BFE3E7C00000202DE9F04781460C4654
:104D900015461F46042C01DA092D01DDBDE8F08718
:104DA00060064FEA10680648465D0FB146F080067F
:104DB00032464146484600F0F7F800BFEEE70000F3
:104DC000A88900082DE9F34F2DED020B2DED028B84
:104DD00081B0B0EE408A0E46032E00DD03264FF070
:104DE0000008B5EEC08AF1EE10FA05D24FF00108C6
:104DF000B1EE480AB0EE408A0025F7EE008A0020A6
:104E000006E0B2EE040A28EE800AF0EE408A401C6A
:104E1000B042F6DBB6EE000A08EE280ABCEEC00A85
:104E200010EE105A42F20F70854200D905460A2052
:104E3000B5FBF0F100FB11508DF803000A20B5FB23
:104E4000F0F00A21B0FBF1F201FB12008DF8020034
:104E50006420B5FBF0F0B0FBF1F201FB12008DF81D
:104E600001004FF47A70B5FBF0F0B0FBF1F201FBFA
:104E700012008DF800004FF00109C6F1030700246D
:104E800037E0BC4201D1012000E0002082461DF83D
:104E9000040008B9BC4201D14FF00009B9F1000F7C
:104EA0001FD0601CB84202D01DF8000008B10120DC
:104EB00000E000208346B8F1000F0BD0BBF1000FDB
:104EC00008D06006010E4022059800F06DF84FF002
:104ED000000805E06006010E0022059800F064F865
:104EE00006E01DF80420E1B253460598FFF74CFF99
:104EF000641C042CC5DB01B0BDEC028BBDE8FF8F48
:104F00002DE9F04106460D463046FFF7A9FD0DB9E3
:104F1000BDE8F08100240AE0285DFFF71FFD074689
:104F20006006010E3A46304600F03EF8641C042C40
:104F300002DA285D0028EFD100BFE9E770B504462A
:104F40008025607D28B145F00805207D00F0070030
:104F500005432946204600F001F870BD70B50446AF
:104F60000D4601202168884700206168884701209C
:104F7000A168884705202169884700202168884763
:104F80000A202169884729462046FFF7A9FE00200C
:104F9000616888470120A168884701202168884707
:104FA0000A202169884770BD70B504460D46164633
:104FB00044212046FFF7D2FF0120216888470020C6
:104FC000616888470120A1688847052021698847D2
:104FD0000020216888470A202169884705F00F00D2
:104FE00040F0C0012046FFF77BFE31462046FFF728
:104FF00077FE0020616888470120A168884701206A
:10500000216888470A202169884770BD10B5044689
:1050100004B910BD002020706070A070E070207195
:10502000A060E06020612075A061002137E0C1EB45
:10503000011304F11C0202EB8300B3EE090A80EDB8
:10504000000AB3EE090A80ED010AB3EE090A80ED09
:10505000020A0022C2600274427480F8382080F88C
:105060002820428582859FED110A80ED0C0A9FED74
:105070000F0A80ED0D0AB3EE090A80ED050A4FF420
:1050800096730383B7EE000A80ED070AB2EE060AB4
:1050900080ED080A1E2383844F23C384491C022900
:1050A000C5DB204602F03CF800BFB2E7000000007C
:1050B0002DE9F0472DED048B04460F4690461E4621
:1050C0001CB9BDEC048BBDE8F087204600F035FF2D
:1050D0000546B8F1000F04D0022F02D0032F00D0F4
:1050E000EFE72078012800D1A661B7EE008AB8F179
:1050F000010F03D1B1EE040AB0EE408AB8F1020FFD
:1051000003D1B3EE040AB0EE408A062F7DD2DFE869
:1051100007F0162F67B25503284600F087FE58B9EE
:105120006178481C00EBD0714910A0EB410161701F
:1051300000202071A07001E0FEF7C0FEE5E02846E7
:1051400000F074FE88B92078401C032190FBF1F236
:1051500001FB1200207000202071A070207801282F
:1051600005D132202075A66101E0FEF7A7FECCE054
:10517000287CC0B9207840B9204600F054FE814612
:105180004946204600F059FE0AE02078012807D160
:10519000204600F048FE81464946204600F06FFE5A
:1051A0000020A07009E0204600F03DFE81464946FF
:1051B000204600F098FE0020A070A6E0207801288C
:1051C0000DD1284600F032FE48B9E078401C062197
:1051D00090FBF1F201FB1200E0703220207594E0A8
:1051E000284600F023FEE8BB2078D8B995ED010AE7
:1051F000DFED470A00EE880A85ED010A95ED010A08
:10520000DFED440AB4EEE00A00E07DE0F1EE10FAD2
:1052100003DD9FED400A85ED010A01202071A660A3
:10522000A07027E02078012824D1E07800F0C6FEA5
:10523000F0EE409AE178284600F0D0FE09EE880AA8
:10524000F0EE408AE07800F081FEB0EE409AF4EE95
:10525000C98AF1EE10FA01DDF0EE498AE178B0EE8C
:10526000680A00E006E0284602F034F801202071C8
:10527000A66000BF49E0284600F0D8FDF0BB2078CA
:10528000C8B995ED010ADFED220A00EEC80A85EDE6
:10529000010A95ED010AFAEE040AB4EEE00AF1EE15
:1052A00010FA03D2BAEE040A85ED010A012020713A
:1052B000A660A07027E02078012824D1E07800F0D3
:1052C0007DFEF0EE409AE178284600F087FE09EE78
:1052D000C80AF0EE408AE07800F056FEB0EE409A40
:1052E000F4EEC98AF1EE10FA01D2F0EE498AE178C3
:1052F000B0EE680A284601F0EDFF00E003E001206F
:105300002071A66000BF00E000BF00BF00BFD8E66C
:10531000CDCCCC3D0000DC422DE9F04104460D46E9
:105320000CB9BDE8F081204600F007FE804600265B
:1053300018E0C6EB061104F11C0000EB8107387C75
:1053400070B1787C60B9F86850B1F868281A40F6F6
:10535000B831884204D984223146204601F0A6FFA4
:10536000701CC6B2022EE4DB2069281AB0F57A7FE1
:105370001DD32561002618E0C6EB061104F11C00C0
:1053800000EB8107387C012806D14FF47A72314650
:10539000204602F00DF806E0387C022803D13146A1
:1053A000204602F029F8701CC6B2022EE4DB2078F9
:1053B00088B9207978B998F8110060B9E068281A9E
:1053C00040F6B831884206D3E560A07808B90120DC
:1053D00000E00020A070207940B1A068281A41F2B6
:1053E0008831884202D300202071A07020780128E3
:1053F00010D1207D70B9A06960B1A069A84209D21E
:10540000A069281A41F28831884203D30020207015
:105410002071A070204601F083FE00BF81E730B507
:1054200003460BB1022900DB30BDC1EB011503F1CE
:105430001C0404EB850080ED000AC260447C842CCF
:1054400001D10024447400BFEEE7000070B5456E42
:105450002DB90125A0F86A50A0F868501CE0082377
:1054600008240568AD68C5F342610568AD686A0F38
:105470000A4DAD5C15FB04F5094EB65C95FBF6F5DF
:10548000A0F86A50054D6D5C15FB03F5044E765C83
:1054900095FBF6F5A0F8685070BD00008089000803
:1054A0008889000890F8281001F00801082907D120
:1054B0000168496821F40041826B11430268516020
:1054C00090F8281001F0010139B10168496821F410
:1054D0000031C26A11430268516090F8281001F04F
:1054E0000201022907D10168496821F48031026B69
:1054F00011430268516090F8281001F0040104295A
:1055000007D10168496821F48021426B1143026888
:10551000516090F8281001F01001102907D101689E
:10552000896821F48051C26B11430268916090F840
:10553000281001F02001202907D10168896821F491
:105540000051026C11430268916090F8281001F03C
:105550004001402913D10168496821F48011426C4F
:10556000114302685160416CB1F5801F07D1016899
:10557000496821F4C001826C11430268516090F8BF
:10558000281001F08001802907D10168496821F4C1
:105590000021C26C114302685160704738B504465F
:1055A0000020C4F89000FBF71BFC0546206800684B
:1055B00000F00800082821D16FF07E402B46002221
:1055C0004FF400110090204600F0AEFBB0B100BFD8
:1055D00000BF216851E8001F21F08000226842E8E6
:1055E00000010029F5D100BF2020C4F8880000BFC9
:1055F000002084F8840000BF032038BD20680068C4
:1056000000F00400042830D16FF07E402B460022C9
:105610004FF480010090204600F086FB28B300BFC5
:1056200000BF216851E8001F21F49070226842E811
:1056300000010029F5D100BF00BF00BF216808317B
:1056400051E8001F21F001002168083141E8000203
:10565000002AF3D100BF2020C4F88C0000BF002036
:1056600084F8840000BF0320C7E72020C4F8880026
:10567000C4F88C000020E066206700BF84F8840036
:1056800000BF00BFB9E770B50446A56A2846FDF71C
:105690001EFC70BD2DE9F0410546AC6AD4F8886067
:1056A000D4F88C702068806800F08000802804D1D5
:1056B000212E02D1204600F0F1F82068806800F029
:1056C0004000402804D1222F02D1204600F098F853
:1056D000D4F8900040F01000C4F890002046FDF788
:1056E000F6FBBDE8F08170B50546AC6A2868006835
:1056F00000F02000E0BB0020A4F85E0000BF00BF67
:10570000216851E8001F21F48070226842E80001FE
:105710000029F5D100BF00BF00BF2168083151E862
:10572000001F21F001002168083141E80002002A31
:10573000F3D100BF00BF00BF2168083151E8001F4E
:1057400021F040002168083141E80002002AF3D12D
:1057500000BF2020C4F88C00E06E01280ED100BFED
:1057600000BF216851E8001F21F01000226800E00E
:1057700004E042E800010029F3D100BF00202067C7
:10578000E06E012815D10020A4F85E00286840686A
:1057900086B2B4F85C00B04201DDA4F85E60B4F8F3
:1057A0005C00B4F85E20801A81B22046FDF70CFB45
:1057B00002E02046FDF792FE70BD70B50546AC6A6A
:1057C00001202067E06E012816D134F85C0F4008F4
:1057D00060802868406886B234F85C09B04201DB1A
:1057E000A4F85E60B4F85C00B4F85E20801A81B260
:1057F0002046FDF7E9FA02E02046FDF770FE70BD95
:1058000000BF00BF026852E8002F22F490710368C5
:1058100043E80012002AF5D100BF00BF00BF0268B4
:10582000083252E8002F104B02EA030102680832E6
:1058300042E80013002BF2D100BFC16E01290CD148
:1058400000BF00BF026852E8002F22F01001036879
:1058500043E80012002AF5D100BF2021C0F88C10C7
:105860000021C16641677047FEFFFFEF10B5044697
:1058700000BF00BF216851E8001F21F040002268EE
:1058800042E800010029F5D100BF2020C4F88800BB
:105890000020A0672046FDF723FE10BD00BF00BF1B
:1058A000026852E8002F22F0C001036843E80012AA
:1058B000002AF5D100BF00BF00BF0268083252E8DD
:1058C000002F22F400010268083242E80013002B86
:1058D000F3D100BF2021C0F8881070472DE9FE4F9A
:1058E000044600200290D4492068884200D100E09C
:1058F00000BF2169A068084361690843E16940EA83
:10590000010820680068CD49084040EA0800216885
:1059100008602068406820F44050E168084321682E
:105920004860D4F81880C4492068884202D0206AB0
:1059300040EA080820688068C149084040EA080039
:10594000216888602068C06A20F00F00616A0843FF
:105950002168C86200BFBB492068884216D1BA4896
:10596000006800F0030030B1012808D0022804D0FC
:10597000032808D105E0012507E0022505E00425FC
:1059800003E0082501E0102500BF6FE0AF49206863
:10599000884216D1AC48006800F00C0030B10428F1
:1059A00008D0082804D00C2808D105E0002507E01D
:1059B000022505E0042503E0082501E0102500BFCD
:1059C00054E0A3492068884216D19F48006800F03F
:1059D000300030B1102808D0202804D0302808D159
:1059E00005E0002507E0022505E0042503E0082581
:1059F00001E0102500BF39E096492068884216D1A1
:105A00009148006800F0C00030B1402808D08028DC
:105A100004D0C02808D105E0002507E0022505E0F4
:105A2000042503E0082501E0102500BF1EE082499F
:105A30002068884219D18448006800F4406048B169
:105A4000B0F5806F0AD0B0F5006F05D0B0F5406FAB
:105A500008D105E0002507E0022505E0042503E064
:105A6000082501E0102500BF00E0102500BF7249A5
:105A70002068884259D135B1022D08D0042D08D0B4
:105A8000082D0DD109E0FBF72FFE06460CE0724E03
:105A90000AE0FBF74DFE064606E04FF4004603E041
:105AA00000260120029000BF00BF002E10D06B49DD
:105AB000606A31F81000B6FBF0F9606800EB400056
:105AC000484503D860680003484502D2012002908F
:105AD000A6E06249606A31F810C062460023304691
