:020000040800F2
:10000000D0DF0020790300082590000885820008D1
:1000100021900008AB30000875B700080000000010
:10002000000000000000000000000000B90200080D
:10003000E93900080000000015030008B198000825
:100040009303000893030008930300089303000838
:100050009303000893030008930300089303000828
:10006000930300089303000893030008B5310008C8
:10007000C5310008D5310008930300089303000838
:1000800093030008930300089303000893030008F8
:1000900093030008930300089303000893030008E8
:1000A00093030008930300089303000893030008D8
:1000B00093030008930300089303000893030008C8
:1000C00093030008930300089303000893030008B8
:1000D0009303000865B70008930300089303000822
:1000E0009303000893030008930300089303000898
:1000F0009303000893030008930300089303000888
:100100009303000893030008930300089303000877
:10011000930300089303000845990008930300081F
:100120009303000893030008930300089303000857
:100130009303000893030008930300089303000847
:100140009303000893030008930300089303000837
:100150009303000893030008930300089303000827
:100160009303000893030008930300089303000817
:100170009303000893030008930300089303000807
:1001800093030008930300089303000893030008F7
:100190009303000800000000930300089303000885
:1001A00093030008930300089303000893030008D7
:1001B00093030008930300089303000893030008C7
:1001C00093030008930300089303000893030008B7
:1001D000930300089303000800F002F800F05CF8B5
:1001E0000AA090E8000C82448344AAF10107DA4592
:1001F00001D100F051F8AFF2090EBAE80F0013F088
:10020000010F18BFFB1A43F00103184714EA00005E
:1002100034EA00000A444FF0000C10F8013B13F0E0
:10022000070408BF10F8014B1D1108BF10F8015B4F
:10023000641E05D010F8016B641E01F8016BF9D142
:1002400013F0080F1EBF10F8014BAD1C0C1B09D199
:100250006D1E58BF01F801CBFAD505E014F8016B0B
:1002600001F8016B6D1EF9D59142D6D3704700009D
:100270000023002400250026103A28BF78C1FBD8AF
:10028000520728BF30C148BF0B6070471FB50EF042
:100290000BFB1FBD10B510BD00F0D0F91146FFF7E4
:1002A000F5FF0BF08BFB00F0EEF903B4FFF7F2FF64
:1002B00003BC00F0F5F900002C4B19680868B0E8A1
:1002C000F04F80F30988BFF36F8F4FF0000080F389
:1002D000118870470000000008480068006880F33B
:1002E00008884FF0000080F3148862B661B6BFF34F
:1002F0004F8FBFF36F8F00DF00BF00BF08ED00E03E
:10030000DFF80C00016841F470010160704700BF24
:1003100088ED00E0EFF30980BFF36F8F134B1A688D
:100320001EF0100F08BF20ED108A20E9F04F10607A
:1003300009B44FF0500080F31188BFF34F8FBFF323
:100340006F8F0DF069F94FF0000080F3118809BC40
:1003500019680868B0E8F04F1EF0100F08BFB0EC45
:10036000108A80F30988BFF36F8F70476000002008
:10037000EFF30580704700000948804709480047AF
:10038000FEE7FEE7FEE7FEE7FEE7FEE7FEE7FEE745
:10039000FEE7FEE704480549054A064B70470000A2
:1003A00031990008D9010008D03F0020D0DF00209B
:1003B000D05F0020D05F002053EA020C00F069807B
:1003C0002DE9F04B4FF00006002B1FBFB3FA83F569
:1003D00003FA05F424FA05F65E4012BF1643B2FA9A
:1003E00082F502FA05F4C5F120051EBF22FA05FCCC
:1003F00044EA0C04203556EA044C4FEA144418BF72
:10040000641C4FF000084FF00009904271EB030CA0
:1004100039D3002919BFB1FA81F701FA07F6B0FA0A
:1004200080F700FA07F6C7F120071EBF20FA07FC85
:1004300046EA0C062037B6FBF4FCA7EB0507103F95
:1004400007F01F0BCBF120060CFA0BFB2CFA06F67B
:1004500044BFB3460026202FA4BF5E464FF0000BDA
:100460005BEA060C08BF4FF0010B19EB0B09ABFB65
:10047000027C48EB0608C01B06FB02CC0BFB03CC3E
:1004800071EB0C01C1E70B46024641464846BDE808
:10049000F08B13B54FF000004FF00001AFF3008078
:1004A000BDE81C407047032A40F2308010F0030C76
:1004B00000F0158011F8013BBCF1020F624498BFB7
:1004C00011F801CB00F8013B38BF11F8013BA2F154
:1004D000040298BF00F801CB38BF00F8013B11F0CF
:1004E000030300F02580083AC0F0088051F8043B6F
:1004F000083A51F804CBA0E80810F5E7121D5CBFDC
:1005000051F8043B40F8043BAFF30080D20724BF0E
:1005100011F8013B11F801CB48BF11F8012B24BFA2
:1005200000F8013B00F801CB48BF00F8012B7047F1
:1005300010B5203AC0F00B80B1E81850203AA0E87E
:100540001850B1E81850A0E81850BFF4F5AF5FEAB2
:10055000027C24BFB1E81850A0E8185044BF18C965
:1005600018C0BDE810405FEA827C24BF51F8043B0C
:1005700040F8043B08BF7047D20728BF31F8023B60
:1005800048BF11F8012B28BF20F8023B48BF00F8F4
:10059000012B704702F0FF0343EA032242EA0242C2
:1005A00000F02CB84FF0000200B513469446964672
:1005B000203922BFA0E80C50A0E80C50B1F1200176
:1005C000BFF4F7AF090728BFA0E80C5048BF0CC024
:1005D0005DF804EB890028BF40F8042B08BF704782
:1005E00048BF20F8022B11F0804F18BF00F8012BF4
:1005F00070477047704770474FF000020429C0F001
:10060000128010F0030C3FF4CFAFCCF1040CBCF11E
:10061000020F18BF00F8012BA8BF20F8022BA1EB96
:100620000C01FFF7C1BF5FEAC17C24BF00F8012BBA
:1006300000F8012B48BF00F8012B7047754600F009
:100640002BF8AE4605006946534620F00700854664
:1006500018B020B5FFF79EFEBDE820404FF0000621
:100660004FF000074FF000084FF0000B21F007019A
:10067000AC46ACE8C009ACE8C009ACE8C009ACE8DD
:10068000C0098D46704710B50446AFF30080204680
:10069000BDE81040FFF709BE004870476C3F0020DE
:1006A00001491820ABBEFEE726000200704700009B
:1006B0002DE9F05F044688464FF000094746206860
:1006C00007F016FE8246206807F0F9FD8346BAF16E
:1006D000000F02D1BBF1000F72D02068C06800F09B
:1006E000007000B3607F01281DD1207F01281AD13E
:1006F00001270FE0334881450AD3E06D40F0100038
:10070000E065206E40F0010020660120BDE8F09F0A
:1007100009F1010920680068C0F380100028E9D0C1
:10072000402021680860022F10D0206807F0E0FD0B
:1007300060B1206807F0C8FD40B920688168224A8E
:10074000114041F01001816000BF00BF012F10D0A7
:10075000206807F0B4FD60B1206807F0B5FD40B92E
:1007600020688168184A114041F02001816000BF73
:1007700000BF022F03D0032F03D10C2503E008256F
:1007800001E0042500BF00BF04F030FE064612E081
:1007900004F02CFE801B05280DD9206880682840B5
:1007A00048B1E06D40F01000E065206E40F00100BF
:1007B00020660120AAE72068806828400028E7D149
:1007C0000020A3E7000040A3C0FFFF7F70B50546EF
:1007D000AC6AE06D00F0500098BBE06D40F4007032
:1007E000E0652068006800F00800A8B1206807F004
:1007F00089FD10B32068C06800F40050E8B9E06DCE
:1008000020F48070E065E06D00F48050A8B9E06DE0
:1008100040F00100E06510E02068C06800F00200D0
:1008200058B9E06D20F48070E065E06D00F4805010
:1008300018B9E06D40F00100E065204603F0C6FC09
:100840000CE0FFE7E06D00F0100018B1204603F067
:10085000DFFC03E0606D416B2846884770BD70B5D2
:100860000546AC6AE06D40F04000E065206E40F067
:1008700004002066204603F0CBFC70BD70B5044632
:10088000A56A284603F0C2FC70BD000070B504469E
:10089000206807F019FD0646206807F01AFD98B396
:1008A00096BB2068806800F00D0001280AD12068FE
:1008B00081681A4A1140891C816000BF03202168A9
:1008C000086009E0E06D40F01000E065206E40F047
:1008D00001002066012070BD04F088FD054614E08B
:1008E00004F084FD401B02280FD92068806800F0C6
:1008F000010050B1E06D40F01000E065206E40F066
:10090000010020660120E6E705E02068806800F02D
:1009100001000028E4D10020DDE70000C0FFFF7FD8
:1009200038B5044600200090206807F0D2FC00286B
:1009300058D1206880682C49084048B1E06D40F0EB
:100940001000E065206E40F001002066012038BDF7
:10095000206807F099FC2168B1F1A04F03D0234A29
:100960002168914201D1224900E02249084607F05E
:1009700093FC00F4000080B11F4800681F49B0FBE1
:10098000F1F0401C00EB40008000009002E0009875
:10099000401E009000980028F9D104F027FD05467C
:1009A0001AE0206807F095FC10B9206807F06CFC8D
:1009B00004F01CFD401B02280ED92068006800F0DE
:1009C000010048B9E06D40F01000E065206E40F095
:1009D000010020660120BAE72068006800F00100ED
:1009E0000028DED00020B2E73F0000800001005068
:1009F00000030050000700505C000020400D030081
:100A000070B58AB00546142105A8FFF7CBFD142167
:100A10006846FFF7C7FD05B9012500262DE0022035
:100A20000BF050F8002424E0294A611D32F811002F
:100A300000F010FB05A800EB8400D0ED000A30EEBA
:100A4000200A05A800EB840080ED000A214931F856
:100A5000140000F0FFFA684600EB8400D0ED000AB5
:100A600030EE200A684600EB840080ED000A601C2E
:100A7000C4B2052CD8D3701C86B2AE42CFDB0024A2
:100A800021E005A800EB8400D0ED000A00EE105A2A
:100A9000B8EE400A80EE801A0F4800EB840080ED2B
:100AA000001A684600EB8400D0ED000A00EE105AF0
:100AB000B8EE400A80EE801A084800EB840080ED12
:100AC000001A601CC4B2052CDBD30AB070BD000054
:100AD0005A3900206E390020F4000020080100205F
:100AE00030B589B0202101A8FFF75CFD06200390F6
:100AF0007F2004900420059000200690002417E039
:100B00000D4850F8240001900C4850F82400029041
:100B100001A90B4803F0A0F805463DB1094800685B
:100B2000401C08490860284609B030BD601CC4B2AA
:100B30000A2CE5D30020F7E788E90008B0E90008AF
:100B400050050020EC00002030B589B0202101A81C
:100B5000FFF728FD042003907F20049004200590D7
:100B600000200690002417E00D4850F82400019062
:100B70000C4850F82400029001A90B4803F06CF8CF
:100B800005463DB109480068401C084908602846F0
:100B900009B030BD601CC4B2052CE5D30020F7E7D6
:100BA000D8E90008ECE90008BC050020F0000020AE
:100BB000002007E0194931F81010194A22F81010E6
:100BC000411CC8B20A28F5D315490988154A118075
:100BD00013494988144A118011498988134A1180A0
:100BE0000F49C988124A11800D490989114A11809B
:100BF0000B494989104A1180094989890F4A118096
:100C00000749C9890E4A11800549098A0D4A118090
:100C10000349498A0C4A1180704700003C39002082
:100C20005A3900201C0100201E0100202001002054
:100C3000220100202401002026010020280100209C
:100C40002A0100202C0100202E010020002007E0B6
:100C50000F4931F810100F4A22F81010411CC8B289
:100C60000528F5D30B4909880B4A118009494988A1
:100C70000A4A118007498988094A11800549C988AB
:100C8000084A118003490989074A1180704700000A
:100C9000503900206E390020940100209601002078
:100CA000980100209A0100209C010020F0EE401ADB
:100CB00031EEE02AB3EE040A61EE002A82EE220A47
:100CC0007047000010B52DED028B002463E0AC49A5
:100CD00031F8140000F0BEF9AA4800EB840080ED62
:100CE000000AA84800EB840090ED000AA64800EB3B
:100CF0008400D0ED000A20EE200AA44800EB840016
:100D000080ED000A9E4A611D32F8110000F0A2F940
:100D1000B0EE408A9E4800EB840080ED008A9D483A
:100D200000EB840090ED000AB0EE401A9A4800EB08
:100D3000840090ED000AF0EE400AB0EE480AFFF79A
:100D4000B5FF964800EB840080ED000A944931F825
:100D5000140000F07FF9B0EE408A924800EB840066
:100D600080ED008A904800EB840090ED000AB0EE20
:100D7000401A8E4800EB840090ED000AF0EE400A25
:100D8000B0EE480AFFF792FF894800EB840080ED3F
:100D9000000A601CC4B2052C99D37A4890ED000A71
:100DA000844880ED000A774890ED010A824880ED82
:100DB000000A744890ED020A804880ED000A7148EC
:100DC00090ED030A7E4880ED000A6E4890ED040A1B
:100DD0007C4880ED000A6D4890ED000A7A4880ED6D
:100DE000000A6A4890ED010A784880ED000A6748D9
:100DF00090ED020A764880ED000A644890ED030AFF
:100E0000744880ED000A614890ED040A724880ED54
:100E1000000A5F4890ED000A704880ED000A5C48C7
:100E200090ED010A6E4880ED000A594890ED020AE3
:100E30006C4880ED000A564890ED030A6A4880ED40
:100E4000000A534890ED040A684880ED000A5248B1
:100E500090ED000A664880ED000A4F4890ED010AC7
:100E6000644880ED000A4C4890ED020A624880ED2B
:100E7000000A494890ED030A604880ED000A4648A0
:100E800090ED040A5E4880ED000A444890ED000AA7
:100E90005C4880ED000A414890ED010A5A4880ED17
:100EA000000A3E4890ED020A584880ED000A3B488F
:100EB00090ED030A564880ED000A384890ED040A88
:100EC000544880ED000A374890ED000A524880ED02
:100ED000000A344890ED010A504880ED000A31487C
:100EE00090ED020A4E4880ED000A2E4890ED030A6C
:100EF0004C4880ED000A2B4890ED040A4A4880EDEA
:100F0000000A2A4890ED000A484880ED000A274868
:100F100090ED010A464880ED000A244890ED020A4F
:100F2000444880ED000A214890ED030A424880EDD4
:100F3000000A1E4890ED040A404880ED000A1C4853
:100F400090ED000A3E4880ED000A194890ED010A34
:100F50003C4880ED000A164890ED020A3A4880EDC0
:100F6000000A134890ED030A384880ED000A104843
:100F700090ED040A364880ED000ABDEC028B10BDEE
:100F80005A390020783900204CE900088C390020BB
:100F9000A039002060E90008F4000020B4390020E6
:100FA0006E390020C839002074E9000808010020CB
:100FB000DC390020300100203401002038010020FD
:100FC0003C01002040010020440100204801002095
:100FD0004C01002050010020540100205801002045
:100FE0005C010020600100206401002068010020F5
:100FF0006C010020700100207401002078010020A5
:101000007C01002080010020840100208801002054
:101010008C01002090010020A0010020A4010020EC
:10102000A8010020AC010020B0010020B401002084
:10103000B8010020BC010020C0010020C401002034
:10104000C8010020CC010020D0010020D4010020E4
:10105000D801002000EE100AB8EE400ADFED040AC5
:1010600060EE200A9FED031A80EE810A70470000AF
:101070003333534000F07F4510B500F021F80D499F
:1010800008700846007808B1012010BD00F044F84F
:10109000094908700846007808B10220F5E700F019
:1010A00067F8064908700846007808B10320ECE7A5
:1010B0000020EAE7E0000020E1000020E20000203C
:1010C00010B5124803F0FAFBFFF70AFD04460CB115
:1010D000204610BD7F210D4802F08AFC044634B141
:1010E0000B480068401C0A4908602046F1E70A22C4
:1010F0000849064803F036FB044624B1044800685A
:10110000401C034908602046E3E70000500500202A
:10111000EC0000203C39002010B5124803F0CEFB53
:10112000FFF712FD04460CB1204610BD7F210D488B
:1011300002F05EFC044634B10B480068401C0A49CA
:1011400008602046F1E705220849064803F00AFB3B
:10115000044624B104480068401C03490860204646
:10116000E3E70000BC050020F0000020503900201B
:1011700010B508480068006800F0010008B10020C0
:1011800010BD0020034909684862024805F0D2FEFC
:10119000F6E70000480A0020F0EE400AF5EEC00A2B
:1011A000F1EE10FA02D2B1EE600A7047B0EE600ABA
:1011B000FBE70000002032E000EB4001284A12F873
:1011C0003110284A115400EB4001254A02EBC101BD
:1011D00091ED020A244901EB800181ED000A00EB48
:1011E000400102EBC10191ED010A204901EB8001B0
:1011F00081ED000A00EB400102EBC10191ED030A11
:101200001B4901EB800181ED000A00EB400102EB7C
:10121000C101098A174A22F81010411CC8B20228DD
:10122000CAD3002019E0144901EB800191ED000AB6
:10123000124901EB800181ED000A114901EB8001A7
:1012400091ED000A0F4901EB800181ED000A0E4982
:10125000095C0E4A1154411CC8B20428E3D37047FC
:10126000683B0020E8010020F0010020F801002088
:1012700000020020EA0100207C0300200802002078
:10128000483C0020F039002078030020180200209C
:10129000F8B504460F46052C00D3F8BD2548047068
:1012A00025480770012025490855254850F8240095
:1012B000401C234941F824002248007800B1ECE7A3
:1012C000204602F021F8064606B9E6E71E481F4B05
:1012D0001F4A31460090204600F0E6FE054605F024
:1012E0000300032801D1002004E004EB4400174967
:1012F00011F810001749085505F03F003F2801D1AB
:10130000002000E002201449085504EB4400104975
:1013100011F810001149085504EB44000C4901EB89
:10132000400040780E49085515B101200D49085577
:1013300000BFB2E75E0200205F0200202B02002007
:10134000983A0020DC01002097020020AC3A0020EF
:1013500079020020650200206A0200206F0200204E
:1013600074020020600200202DE9F84F04468846F0
:101370004FF0000A052C02D30020BDE8F88F884802
:101380000470884850F82400401C864941F8240025
:10139000854800F8048085480470854880F80080FE
:1013A0000120844908550020834908558349085580
:1013B00083490855FF20834908558349085500256E
:1013C00008E0FF2004EB4401804A02EB410148554C
:1013D000681CC5B2062DF4D37D48007808B1002002
:1013E000CBE7204601F090FF07460FB90020C4E785
:1013F0004FF000090FE0484601F086FF8346BBF13D
:10140000000F04D09FED730A584602F0B3F909F1BA
:10141000010000F0FF09B9F1050FECD300200090A6
:1014200002E00098401C00900098B0F5FA6FF8D3E5
:1014300069486A4B654A39460090204600F06AFECA
:10144000064604EB4400614A02EB40013246204666
:1014500000F0E0FA90B3012058490855604850F870
:101460002400401C5E4941F8240002205D490855D3
:101470005D4908555D4908555D480655002519E048
:1014800004EB4400514901EB4000405D04EB440192
:10149000584A02EB4101485504EB44004F4901EB27
:1014A0004000405D04EB4401534A02EB41014855C2
:1014B000681CC5B2062DE3D300205EE7FFE706F007
:1014C0000300032801D1002004E004EB4400434959
:1014D00011F810004349085506F03F003F2801D19C
:1014E000002000E002204049085506F0010048B302
:1014F00004EB4400354911F81090324800F804908C
:1015000006F0020030B104EB440001EB40004078EB
:101510002D49085509F0320027490855484600F082
:1015200071FA82462F48005D344908552548005D10
:10153000334908552448005D324908550120324995
:10154000085500BF36B3002519E004EB44001F49DD
:1015500001EB4000405D04EB4401264A02EB4101EF
:10156000485504EB44001D4901EB4000405D04EB8D
:101570004401214A02EB41014855681CC5B2062DC1
:10158000E3D31B4806551848005D1849085501204B
:101590001D490855384601F049FF5046EDE6000068
:1015A0009C020020CC3A00209D0200205E02002018
:1015B0005F0200202B020020B6020020DE02002085
:1015C000E3020020AC020020B1020020BB02002098
:1015D000DC01002000000000D9020020E03A0020D9
:1015E000003B0020A2020020A70200206A02002087
:1015F0009702002079020020AC3A0020650200200A
:101600006F02002074020020600200202DE9F843E0
:1016100005460E460027052D00D20EB9BDE8F88319
:10162000002417E0FF2000906A462146304602F071
:1016300078F880469DF80000C5EBC5010A4A1144C0
:101640000855B8F1000F03D10120A040C0B20743F4
:10165000601CC4B2062CE5D3C5EBC50002490844A2
:10166000877100BFDAE70000E80200202DE9F843A7
:1016700005460E460027052D00D20EB9BDE8F883B9
:1016800000241EE0FF2005EB4501334A02EB410137
:101690000855022005EB4501304A02EB410108558F
:1016A000002005EB45012E4A02EB810121F81400D0
:1016B00005EB45012B4A02EB810121F81400601C67
:1016C000C4B2062CDED3002027494855002431E05F
:1016D000FF2000906A462146304602F022F88046FC
:1016E00005EB45001D4901EB400000F80480B6F809
:1016F0004C0005EB45011A4A02EB810121F8140068
:10170000B6F84E0005EB4501164A02EB810121F8BF
:1017100014009DF8000005EB45010F4A02EB410162
:101720000855B8F1000F03D10120A040C0B2074313
:10173000601CC4B2062CCBD33F2F01D1002000E0A7
:1017400002200A4948553F2F01D1012000E0002026
:101750000549485500BF91E73A020020003A0020B1
:101760001E3A00205A3A00203002002035020020A4
:101770002DE9F84306463048007808B1BDE8F88303
:101780002E480068301A642800D2F7E72B4806601C
:10179000002447E04FF00008002507E0FF20C4EBDD
:1017A000C401274A11444855681CC5B2062DF5D31B
:1017B0000020C4EBC401224A114488712148005D15
:1017C00000B92DE02048005D00B929E0204601F075
:1017D0009BFD074607B923E0002518E0FF20009095
:1017E0006A462946384601F09CFF81469DF8000074
:1017F000C4EBC401124A11444855B9F1000F04D199
:101800000120A840C0B240EA0808681CC5B2062DF5
:10181000E4D3C4EBC4000A49084480F8068000BF42
:10182000601CC4B2052CB5D308480068401C0749A9
:10183000086000BFA2E70000DC0100207403002064
:101840000B0300202102002026020020300300208C
:10185000014611B940F2371070474FF49C70FBE716
:10186000014609B9002070470220FCE70146022921
:1018700001D30020704701EB4100044A02EBC00095
:10188000008A08B10020F5E70120F3E7683B00205B
:101890002DE9F04106462B48007808B1BDE8F081FB
:1018A00029480068301AB0F5FA7F00D2F6E72648DA
:1018B0000660002441E02548005D00B93BE0244873
:1018C000005D00B937E0204601F01EFD074607B96C
:1018D00031E0384601F046FD054615B3294620465D
:1018E000FFF742FD00B926E0042C10D140F23B1175
:1018F000002000F079FE40F23B11012000F074FE60
:10190000002001F01DF8012001F01AF812E0012C6E
:1019100008D840F23711002000F066FE002001F0E8
:101920000FF807E04FF49C71012000F05DFE0120EC
:1019300001F006F800BF601CC4B2052CBBD300BF89
:10194000ACE70000DC010020700300202102002031
:10195000260200207047F0EE401AF4EEE01AF1EE95
:1019600010FA02D2B0EE600A7047F4EEC11AF1EE3E
:1019700010FA02DDB0EE410AF6E7B0EE610AF3E7D5
:101980002DE9F041044606ADE0CD052C01D3BDE8BC
:10199000F081002013E011F800C004EB440805EBCF
:1019A000480808F800C012F800C004EB440806EB31
:1019B000480808F800C000F1010C0CF0FF000628F0
:1019C000E9D33B5500BFE2E70246052A10D20A4898
:1019D000805C68B102EB4200084B03EB4000405CC6
:1019E000FF2805D002EB420003EB4000405C70474B
:1019F0000348405CFBE70000300200203A02002070
:101A000058020020014601F032020AB1012070475D
:101A10000020FCE72DE9F04107460C469046052FD3
:101A200000D214B90120BDE8F081B8F13F0F01D018
:101A30000120F8E72678FF2E01D10120F3E70225E7
:101A40000AE029463846FFF7BFFF615D884201D0B2
:101A50000120E8E7681CC5B2052DF2D906F0300078
:101A600018B1607808B90120DDE70020DBE710B588
:101A700002460B46002107E0505C5C5CA04201D0AE
:101A8000002010BD481CC1B20629F5D30120F8E79B
:101A900010B5002202210C200AF0B6F89749086020
:101AA0000846006818B901209549087010BD002447
:101AB0003AE0002004EB4401924A02F8310004EBC2
:101AC000440102EBC101487004EB440102EBC10187
:101AD000887004EB440102EBC101C870BAEE040A3D
:101AE00004EB4400114601EBC00080ED010AB3EEA7
:101AF000090A04EB440001EBC00080ED020A9FEDEF
:101B0000820A04EB440001EBC00080ED030A0020D0
:101B100004EB440102EBC101088204EB440102EB37
:101B2000C1014861601CC4B2022CC2D300243BE056
:101B3000002076490855B3EE090A754800EB840089
:101B400080ED000A9FED700A724800EB840080ED82
:101B5000000A0020704941F82400704941F824002F
:101B600004EB440101EBC4016D4A02EB8100DFED9F
:101B70006D1A9FED651ADFED6C0A9FED6C0A07F098
:101B800007FB04EB440101EBC401654A02EB810051
:101B9000DFED671A9FED671ADFED650A9FED650AB5
:101BA00007F034FB601CC4B2042CC1D3002495E0C0
:101BB0000021614A1155614A42F82410604A1155CA
:101BC000604A1155604A1155FF21604A1155604A1B
:101BD000115500215F4A115500200FE0FF2104EB51
:101BE00044025D4B03EB42021154002104EB44021A
:101BF0005A4B03EB42021154411CC8B20628EDD3E4
:101C00000021574A1155574A115500201DE0FF2168
:101C100004EB4402544B03EB42021154002104EB49
:101C20004402524B03EB4202115404EB4402504B6A
:101C300003EB820222F8101004EB44024D4B03EB3D
:101C4000820222F81010411CC8B20628DFD30021FE
:101C5000494A42F82410494A1155494A1155494AFE
:101C60001155FF21484A1155484A11550021484A4B
:101C70001155484A1155484A1155484A42F824100E
:101C8000474A115500201AE0FF2104EB4402454B5E
:101C900003EB42021154002104EB4402424B03EBDC
:101CA00042021154FF21C4EBC402404B1A441154A8
:101CB000C4EBC4023E4B1A441154411CC8B206285E
:101CC000E2D30021C4EBC402384B1A449171C4EB37
:101CD000C402374B1A449171601CC4B2052CFFF446
:101CE00067AF00203349086033490860FFF762FAA4
:101CF00000200349087000BFD8E600006C030020F4
:101D0000DE010020683B0020000000007803002076
:101D10007C030020483C0020583C0020683C002008
:101D2000983B0020CDCC4C3E6F12033B295C0F3D0D
:101D3000CDCCCC3ECDCCCCBE60020020983A002069
:101D4000650200206A020020260200206F020020A7
:101D5000740200209702002079020020AC3A002093
:101D600030020020350200203A020020003A002014
:101D70001E3A00205A3A0020CC3A00209D02002052
:101D8000A2020020A7020020AC020020B102002025
:101D9000B6020020D9020020DE020020003B002015
:101DA000E3020020BB020020E03A0020E80200200D
:101DB0000B03002074030020300300200146792922
:101DC00007D07A2905D07B2903D07C2901D084292A
:101DD00001D1012070470020FCE7000010B54FF052
:101DE000FF310248006809F09FFF10BD400000204D
:101DF00038B505460C46022C00D338BD0D480068A6
:101E000028B90D480068401C0B490860F5E78DF8BB
:101E100000508DF8014000231A46694605480068C5
:101E200009F040FF20B104480068401C02490860E6
:101E300000BFE2E76C030020E40100202DE9F0413F
:101E400004460125052C02D30120BDE8F0812E486F
:101E5000007840B101202D4908552D490855002032
:101E60002C490855F1E72948005D08B10020ECE74E
:101E7000204601F049FA07460FB90120E5E701269F
:101E80002BE025480655204601F04EFA05461DB9BF
:101E9000204601F0FBF905462DB940F6E4413846ED
:101EA00001F0DCFC05461DB9384601F0BFFA0546D5
:101EB0003DB9384601F02DFC39462046FFF7D6FBE8
:101EC0000DE029462046FFF7E3F9384601F0F2FC21
:101ED000052009F0F7FD701CC6B2032ED1D900BF52
:101EE0000DB9012000E00020084908550DB9012076
:101EF00000E00020064908550DB1012000E0002057
:101F0000044908552846A0E7DC01002021020020F2
:101F1000260200202B0200201C02002008B515E03C
:101F20009DF80100022800D310E09DF8000020B9C0
:101F30009DF8010000F034FC07E09DF80000012846
:101F400003D19DF8010000F0FBFC00BF06480068CB
:101F500040B100231A4669460348006809F014FEA0
:101F60000028DDD008BD00006C0300202DE9F843F7
:101F700007463348007808B1BDE8F8833148006867
:101F8000381AC82800D2F7E72E48076000244DE031
:101F90000026002508E0FF2004EB44012A4A02EB5A
:101FA00041014855681CC5B2062DF4D300202749CD
:101FB0000855012026490855204601F0A5F980461C
:101FC000B8F1000F00D12FE0002520E0FF200090A5
:101FD0006A462946404601F0A4FB81469DF8000070
:101FE00004EB4401184A02EB41014855B9F1000FD6
:101FF00004D10120A840C0B2064306E01448005DA9
:10200000012802D1124800F80490681CC5B2062DC0
:10201000DCD30E48065536B13F2E01D1002000E03A
:1020200002200B49085500BF601CC4B2052CAFD379
:1020300008480068401C0749086000BF9CE7000092
:10204000DC010020940300204403002062030020F0
:1020500067030020400300202DE9F84305460E46A3
:1020600017464FF0000815B90020BDE8F88300249A
:1020700016E0FF2000906A462146284601F051FBF9
:1020800081469DF80000305507F80490B9F1000F23
:1020900004D10120A040C0B240EA0808601CC4B2CC
:1020A000062CE6D34046E0E72DE9F84F05460E46FC
:1020B00090469946DDF828B00027052D00D216B9C4
:1020C0000020BDE8F88F00241DE0FF2000906A4644
:1020D0002146304601F025FB824605EB450009EB21
:1020E000400000F804A09DF8000005EB450108EB56
:1020F00041010855BAF1000F03D10120A040C0B240
:102100000743601CC4B2062CDFD30BF805703846B9
:10211000D7E700002DE9F04F8FB0044689461746F7
:102120009846DDF860A0002533A103C9CDE90D0173
:1021300031A103C9CDE90B01002009900A90079055
:102140000890069000260590834643E009AA0DA951
:102150004846FFF781FF05462A460DA92046FFF7AE
:1021600059FC0490049808B100262FE0069838B175
:102170000DA90BA8FFF77BFC10B1701CC6B212E0D2
:10218000002009E00DA9095C0BAA115409A9095CFA
:1021900007AA1154411CC8B20628F3D301210691A5
:1021A0000126059500BF022E0FD38DE8800507AAF2
:1021B0000BA92046059BFFF7E3FB052C01D2104835
:1021C000065505980FB0BDE8F08F00BF0BF1010078
:1021D00000F0FF0BBBF1080FB8D32B4609AA0DA9DD
:1021E00020468DE88005FFF7CBFB052C01D2044883
:1021F00006552846E6E70000FFFFFFFFFFFF00004F
:10220000E302002001460C48007808B10020704726
:102210000A480068081A40F2DC52904201D20020BD
:10222000F5E701F11400064A10600448016001203E
:10223000014A107000BFEAE7380300209003002035
:102240008C0300202DE9F0472DED028B4FF00009A3
:102250000025F8E02846FFF703FB064605EB45009E
:10226000894911F8300028B105EB450001EBC000A9
:10227000008A48B19FED850A05EB4500824901EBD4
:10228000C00080ED030ADCE04FF00109002005EBFF
:1022900045017D4A02EBC10188703446B2E07C48BA
:1022A000005D00B9ACE000207949085509F019FC3F
:1022B0008046784850F82400A8EB000787B175489D
:1022C00050F8240060B100EE107AB8EE400ADFED5D
:1022D000720A80EE801A714800EB840080ED001ACB
:1022E0006C4840F824806E4850F8240008B309F088
:1022F000F8FB6B4951F82410401A00EE100AB8EEB2
:10230000400ADFED680A20EE200AF0EE408AB7EEC0
:10231000001ADFED650AB0EE680AFFF71CFB04EB5C
:10232000440000EBC400614901EB800080ED0A0A23
:102330000AE09FED5F0A04EB440000EBC4005B4938
:1023400001EB800080ED0A0A09F0CBFB544941F80B
:10235000240005EB45014C4A02EBC101D1ED010A15
:10236000B0EE600A04EB440101EBC4014F4A02EBFA
:10237000810006F057FF4F4901EB8401D1ED000ABF
:10238000B0EE600A04EB440101EBC401474A02EBE2
:10239000810006F08FFEB1EE400AB0EE408A9FED5C
:1023A000461ADFED460AB0EE480AFFF7D4FAB0EE5F
:1023B000408AB0EE480AFEF7EFFEDFED3A0AB4EECF
:1023C000E00AF1EE10FA03D29FED300AB0EE408A37
:1023D0003B4800EB840080ED008AB0EE480A2046BE
:1023E00000F03AF958B12846FFF732FA0746394665
:1023F000284600F0F9F8284600F0A2FA07E000BFEE
:10240000601CC4B2701CC0B2A042BFF648AF00BF8F
:102410002B4800EB860090ED000A2949701C01EB67
:102420008000D0ED000A30EE200AF6EE000A20EE21
:10243000200A05EB4500144901EBC00080ED030ABA
:1024400000BF681CC5B2022DFFF404AFB9F1000F44
:1024500015D09FED1C0A042000F0FEF878B140F280
:102460003B11002000F0C0F840F23B11012000F0C9
:10247000BBF8002000F064FA012000F061FABDEC26
:10248000028BBDE8F0870000683B002000000000E0
:1024900078030020A83C002000007A44443B002040
:1024A000683C00206F12833A0AD7A33C983B002077
:1024B000CDCC4C3D7C030020CDCCCC3ECDCCCCBE95
:1024C000483C0020CDCC4C3E2DE9F041064600248E
:1024D0005BE004EB44002F4901EBC000008A0028B8
:1024E00051D004EB440001EBC000406900284AD001
:1024F00004EB440001EBC0004069301A41F288311E
:10250000884240D3002004EB4401224A02F8310003
:1025100004EB440102EBC101487004EB440102EBFF
:10252000C101887004EB440102EBC101C8709FED4A
:102530001A0A04EB4400114601EBC00080ED030AC7
:102540002046FFF78DF907463D4614E005EB4501AF
:1025500001EBC501114A02EB810006F045FE0020A7
:102560000F4948559FED0C0A0E4800EB850080EDA1
:10257000000A681CC5B2781CC0B2A842E6DA002185
:10258000204600F031F8601CC4B2022CA1D3BDE893
:10259000F0810000683B002000000000983B002014
:1025A00078030020483C002010B504460A48007813
:1025B00088B10A480068201AB0F1004F0BD2002001
:1025C00005490870064805F093FA4FF480720549F2
:1025D000034805F0D1F910BD380300208C0300201A
:1025E000940A0020E803002070B504460D46022C32
:1025F00000D370BD85B104EB4400144901EBC00069
:10260000008AA84208D009F06CFA04EB44010F4A92
:1026100002EBC101486107E035B9002004EB440139
:102620000A4A02EBC101486104EB4400074901EB8F
:10263000C0000582064820F814502846FFF7BEFB6C
:1026400010B9FF200349085500BFD2E7683B0020BE
:10265000EA0100203603002070B52DED028B0546FF
:10266000B0EE408A052D03D30120BDEC028B70BD76
:102670003048007808B10020F7E7B0EE480AFEF7CE
:102680008BFDDFED2D0AB4EEE00AF1EE10FA04D274
:102690002A48405D08B90020E7E7284600F034FEEC
:1026A00006460EB90120E0E72846FFF7C7FB0446BF
:1026B0000CB12046D9E72148405D70BB304601F09F
:1026C0005CF9044644B100201C494855214628467F
:1026D000FEF7DEFD2046C8E7284600F0D7FD044699
:1026E0002CB940F6E441304601F0B8F804461CB974
:1026F000304600F09BFE044614B9304601F009F85C
:1027000044B100200D49485521462846FEF7C0FD3A
:102710002046AAE7012009494855B0EE480A30464C
:1027200001F028F804461CB121462846FEF7B0FD0A
:1027300020469AE7DC0100206F12833A260200202F
:102740000448007810B90348007E08B101207047A2
:102750000020FCE7683B002070B50546052D02D23D
:102760000C48007800B170BD284600F0CDFD04464D
:1027700074B19FED090A204600F0FCFF214628466F
:10278000FEF744FF204601F095F800200349485524
:1027900000BFE8E7DC010020000000002602002066
:1027A0002DE9F0410546022D01D3BDE8F081284610
:1027B000FFF75CF818B9284600F0C2F8F5E728469C
:1027C000FFF74EF8044627462046FFF737FB06463C
:1027D00036B9601CC7B2611CC8B2FFF72FFB0646B2
:1027E00026B904270420FFF729FB0646F6B1042F7B
:1027F00010D140F23B110020FFF7F6FE40F23B11F2
:102800000120FFF7F1FE002000F09AF8012000F00F
:1028100097F80AE02846FFF71BF88046414628460D
:10282000FFF7E2FE284600F08BF8BEE704EB440118
:1028300001EBC4013A4A02EB810006F0D5FC611CB1
:1028400001EB410202EBC101354A02EB810006F0C7
:10285000CBFC05EB4501334A02EBC101D1ED010A86
:10286000B0EE600A04EB440101EBC4012C4A02EB18
:10287000810006F0D7FC05EB45012A4A02EBC101B5
:10288000D1ED010AB0EE600A611C01EB410202EBDE
:10289000C101234A02EB810006F0C4FC224850F833
:1028A0002400224941F824001F49601C51F82010DF
:1028B0001E4A42F8201009F014F91D4941F824007D
:1028C000084650F824100246601C42F820100020F0
:1028D000184908550021174A601C11549FED160A2B
:1028E000164800EB840080ED000A9FED130A13499F
:1028F000601C01EB800080ED000A002005EB450123
:10290000084A02EBC1018870012005EB450102F87D
:10291000310005EB450102EBC101487000BF44E7FF
:10292000983B0020683B0020C8030020583C002052
:10293000683C00207803002000000000483C002094
:1029400070B50546022D00D370BD2846FEF788FFFE
:102950000446002005EB45012E4A02F8310005EB44
:10296000450102EBC101487005EB450102EBC101D5
:1029700088709FED290A05EB4500114601EBC00068
:1029800080ED030A04EB440101EBC401234A02EB8E
:10299000810006F029FC611C01EB410202EBC10140
:1029A0001E4A02EB810006F01FFC00201C4908555E
:1029B00000211B4A601C11549FED170A194800EBB7
:1029C000840080ED000A9FED140A1649601C01EB9B
:1029D000800080ED000A9FED100A2046FFF73CFEC4
:1029E000611CC8B29FED0C0AFFF736FE2046FFF7C8
:1029F000B3FE611CC8B2FFF7AFFEFFF7A1FE38B906
:102A00009FED050A0420FFF727FE0420FFF7A4FE30
:102A100000BF99E7683B002000000000983B0020C1
:102A200078030020483C00202DE9F0412DED028B79
:102A30000646FFF7D3F96D48007800287ED06C4831
:102A40000078002853D1002449E0204600F06CFCB7
:102A500005461DB9204600F019FC0546CDB92046B3
:102A600000F052FC07469FB140F6E441384600F0C2
:102A7000F5FE384600F0DAFC384600F04AFE3946EA
:102A80002046FEF7F3FD042C02D0384600F012FF7A
:102A900000BF0DB9012000E00020564908559FED08
:102AA000560A564800EB840080ED000A0020544985
:102AB0000870544840F824600DB9012000E000205F
:102AC000514908551DB9042C01D1012000E0002016
:102AD0004E49085500204E490855601CC4B2052CCB
:102AE000B3D30120424908704549087000BF4448EB
:102AF000007801286CD104243E48005D80B3204654
:102B000000F002FC054665B33E4850F82400301A38
:102B1000B0F5FA6F3FD33B4840F82460374800EBEC
:102B2000840090ED000A3B48005700EE900AF8EE52
:102B3000E00A9FED391A01EE200A00E036E0B0EE1F
:102B4000408A9FED360AB4EEC08AF1EE10FA09DB36
:102B50009FED320AB0EE408AFF202E4908550FE063
:102B60001AE018E09FED2E0AB4EEC08AF1EE10FADA
:102B700006D89FED2B0AB0EE408A01202549085562
:102B80001E4800EB840080ED008AB0EE480A28461B
:102B900000F0F0FD00BF00BF3046FEF779FE304682
:102BA000FEF7E6FD3046FFF7E1F911E03046FFF7AA
:102BB000FBFCFFF7B3F9304600F0AAF8FEF7CAFEB7
:102BC0003046FEF765FE3046FFF77EFCFFF73AFB26
:102BD000FEF7F0FA13480068401C1249086000F044
:102BE00051F8BDEC028BBDE8F081000039030020F4
:102BF0009C0300203B03002000000000543B002009
:102C00003A030020C83C00202102002026020020B8
:102C10002B0200209D030020CDCC4C3DCDCCCC3EE2
:102C2000CDCCCCBEE001002010B50446042C01D36D
:102C3000002010BD085D08B10020FAE752F824001A
:102C400008B90020F5E70448005D1E2801D30020E4
:102C5000EFE70120EDE7000098030020014631B1C5
:102C6000012906D0022906D0032908D105E07920E0
:102C700070477A20FCE77B20FAE77C20F8E7842085
:102C8000F6E7000010B50248006809F0D7F810BD5B
:102C900040000020FEB505460E4605B9FEBDFFF713
:102CA0009DF8002414E004EB4400184901EBC00037
:102CB00090ED020A01A800EB840080ED000A04EB0D
:102CC000440001EBC000008A2DF81400601CC4B25F
:102CD000022CE8D3FFF7D6FF002413E001A800EB95
:102CE0008400D0ED000AB0EE600A32462146284644
:102CF00008F024F83DF814202146284607F086FF06
:102D0000601CC4B2022CE9D300BFC7E7683B0020B7
:102D10002DE9F04F8FB0804600246BE0AF4800EB08
:102D2000840090ED000A0BA800EB840080ED000AFF
:102D3000AB48005D0AA90855AA4850F8240006A926
:102D400041F82400A84850F8240002A941F82400C2
:102D500006A850F82400A54941F8240002A850F81C
:102D60002400A34941F8240006A850F82400A149F2
:102D700051F82410884209D006A850F824009D4933
:102D800041F8240000209C49085508E09A48005D5D
:102D90001E2804D29848005D401C9749085506A893
:102DA00050F82400954951F82410884220D09449C5
:102DB00051F82410A8EB010080B1914951F824107A
:102DC00061B100EE100AB8EE400ADFED8E0A80EE27
:102DD000801A8D4901EB840181ED001A06A951F892
:102DE0002410864A42F82410854941F8248000BF07
:102DF000601CC4B2042C91D30025E9E06806060EDD
:102E0000701CC7B2434606AA0AA93046FFF70CFF5A
:102E10008146434606AA0AA93846FFF705FF8246BF
:102E2000B9F1000F44D0BAF1000F41D00BA800EB6C
:102E3000860090ED000A0BA800EB8700D0ED000A99
:102E400030EE200AF6EE000A20EE200A05EB4500DF
:102E50006E4901EBC00080ED020A05EB45016B4AAB
:102E600002EBC101088AFEF7A9FF30B1FF206849D3
:102E7000485500212846FFF7B7FB05EB450063499D
:102E800001EBC000C07858B105EB450001EBC00074
:102E9000C078401E05EB45015C4A02EBC101C870D9
:102EA0005C48405D20B15B48405D401E5949485533
:102EB000B9F1000F20D00BA800EB860090ED000ABE
:102EC000554800EB860080ED000A06A850F8260061
:102ED000524951F8261088420ED006A850F8260014
:102EE0004E4941F8260001204D49885505EB450122
:102EF000464A02EBC1018870BAF1000F20D00BA83E
:102F000000EB870090ED000A434800EB870080ED5E
:102F1000000A06A850F82700404951F827108842B7
:102F20000ED006A850F827003C4941F827000120A0
:102F30003B49C85505EB4501344A02EBC101887095
:102F400005EB4500314911F8300000B93EE0B9F118
:102F5000000F02D0BAF1000F37D1B9F1000F01D143
:102F6000304600E03846834605EB4500274901EB33
:102F7000C000C078032819D24046FFF743F918B3C0
:102F800005EB4500214901EBC000C078401C05EB72
:102F900045011E4A02EBC101C87005EB4500114610
:102FA00001EBC000C0781B4948550DE0184800F8F7
:102FB00005B05846FFF752FE014601902846FFF73C
:102FC00013FB2846FFF7BCFC00BF00BF681CC5B25E
:102FD000022DFFF413AF0FB0BDE8F08FB80300204F
:102FE00009000020C8030020D8030020243B002053
:102FF000143B0020B83C002098030020783C0020BF
:10300000883C002000007A44343B0020683B0020CC
:1030100036030020340300207C030020583C0020AD
:103020007803002070B500201649096848631549E7
:103030000968886313490968C86312490968086404
:103040001149096848630F480068C56A681C400850
:103050000E490860084600680A490968886400202B
:10306000094909684862074909684862064800F04A
:103070000FF804460CB1204670BD024800F008F875
:10308000FAE7000018090020640900203000002041
:1030900010B504462068006800F0010008B1002067
:1030A00010BD204603F046FFFAE700BFFEE7000030
:1030B0002DE9F04108F015FD0546002443E0E0B29B
:1030C00006F060F90746062F00D13BE02048005D7E
:1030D00070B3204850F8240000B933E01D4850F880
:1030E00024002E1AB6F5FA6F0BD31B48005D40B9C9
:1030F0002B4602223946194807F0F4FB01201649F5
:103100000855B6F5FA7F12D3154850F8240028B1B7
:10311000134850F82400281A962808D32B46012279
:1031200039460E4807F0DEFB0D4840F8245008E011
:103130000020084941F82400094941F824000649C3
:10314000085500BF641C062CB9DBBDE8F081000007
:10315000463F00201405002011000020943E00206E
:103160002C05002010B52DED028B0446B0EE408AF0
:10317000022C02D3BDEC028B10BDFEF72FFE04EB38
:103180004400044901EBC00080ED018AFFF77AFD9D
:1031900000BFEFE7683B002010B504462146002041
:1031A000FEF726FE10BD10B5044621460120FEF7AD
:1031B0001FFE10BD10B5024801F0BCFE10BD00009E
:1031C0008806002010B5024801F0B4FE10BD0000D2
:1031D000BC0B002010B5024801F0ACFE10BD000091
:1031E0002806002030B50E4D0468AC4201D20D49CE
:1031F00001E00C4920310B460478083C1425B4FB4F
:10320000F5F2446CA40803EB84048464054C803418
:10321000C46402F01F050124AC40046530BD000009
:10322000080402400008024001794A1E064B03EBE5
:1032300082024265044A403282654A1E02F01F0340
:1032400001229A40C26570470009024030B5D0E9BA
:1032500013546C60446D14B1D0E916546C6090F84E
:10326000444004F01F050124AC40056C6C60046808
:1032700063608468102C04D10468A2600468E16073
:1032800003E00468A1600468E26030BD70B586B0F8
:103290000646304600F038F8054615B9012006B05C
:1032A00070BD284600F069FB04460CB12046F6E7E5
:1032B000684600F03EF99DE8070003AB07C303A989
:1032C000284600F0C7F8EAE710B5012204210C48AF
:1032D00002F086F801221021094802F081F801224B
:1032E0004021074802F07CF801228021044802F0C6
:1032F00077F801224021034802F072F810BD000067
:10330000000C0048000400480146052901D30020B4
:10331000704701EB410000EBC100024A02EBC00024
:10332000F6E70000DC3C002010B50446052C01D374
:10333000012010BDFFF7C8FF04EB440202EB0412AA
:10334000064B03EB820104EB440202EBC402044B84
:1033500003EBC20000F038F9EBE7000000EA0008D8
:10336000DC3C00202DE9F8430446204600F0ACF98F
:1033700010B90120BDE8F883206B48B3002605276B
:1033800000251EE0A18E206B02F018F8804694F80C
:103390004A0030B1B8F1000F01D1012000E0002057
:1033A0008046B8F1010F01D1701CC6B20020009018
:1033B00002E00098401C009000983228F9D3681C65
:1033C000C5B2BD42DEDBBE4201D10420D2E700BF60
:1033D000A06B48B30027052600251EE0A18FA06B37
:1033E00001F0ECFF804694F84A0030B1B8F1000FCC
:1033F00001D1012000E000208046B8F1010F01D189
:10340000781CC7B20020009002E00098401C009099
:1034100000983228F9D3681CC5B2B542DEDBB7424A
:1034200001D10520A6E700BF0020A3E770B505463F
:1034300001220221284600F0B7FA04460CB12046CA
:1034400070BD012001F0C0FE00220221284600F0DC
:10345000ABFAF5E72DE9F04781460C4614B9012097
:10346000BDE8F087484600F080FA06460EB13046C7
:10347000F6E720788007070E607808B147F020074C
:10348000A07800F0030047EAC007E07800F00700EA
:103490000743207940074FEA5068A07908B148F007
:1034A0008008607900F00F0040EA0808E0798007A2
:1034B000050E207A08B145F02005607A00F003007F
:1034C00045EAC005A07A08B145F00405E07A00F0AD
:1034D000030005433A460321484600F065FA0646D4
:1034E0000EB13046BCE742460421484600F05CFA83
:1034F00006460EB13046B3E72A460521484600F09D
:1035000053FA06460EB13046AAE74846FFF78EFF4B
:10351000A6E710B50446A18B0122A06901F060FF67
:1035200010BD10B50446A18B0022A06901F058FF20
:1035300010BD0EB503218DF8001000218DF801108B
:103540008DF8021007218DF803108DF8041000216A
:103550008DF805108DF806108DF807108DF80810FD
:103560008DF809108DF80A1001218DF80B100099C3
:10357000016001994160029981600EBD70B52DED29
:10358000028B0446B0EE408A60680068C56A94ED1C
:10359000110AB0EE401ADFED0B0AB0EE480A00F057
:1035A000A3F8B0EE408A681C00EE100AB8EE400A9C
:1035B00020EE080ABCEEC00A10EE100ABDEC028B29
:1035C00070BD00000000000070B504460D4604B157
:1035D0000DB9012070BD58212046FCF7E3FF4C22B5
:1035E00029462046FCF7A4FFE08F08B90A20E087AF
:1035F000B4F8400010B90220A4F84000B4F842002A
:1036000018B940F6E440A4F8420094ED110AB5EE72
:10361000C00AF1EE10FA03D89FED080A84ED110AF2
:10362000204600F051F808B90120D3E7012084F8C2
:103630005600204600F004F8CCE700003333733F17
:1036400010B50446204600F03FF808B9012010BD2F
:103650002046FFF75EFFA18D0022A06A01F0C0FEA8
:10366000A18C0022206A01F0BBFED4E9010104F024
:1036700063F808B10320EAE70021204600F0C8F80B
:1036800094F8480088B1E06808B90120DFE7D4E980
:10369000030101F075FB08B10320D8E700212046A3
:1036A00000F0DCF808B10320D1E794F8490048B1F4
:1036B000606908B90120CAE7606902F0FDF808B145
:1036C0000320C4E70020C2E7014659B1086848B1A9
:1036D000486838B1886928B1086A18B1886A08B1A1
:1036E000012070470020FCE7F0EE401AF4EEC11A0A
:1036F000F1EE10FA02DDB0EE410A7047F4EEE01A86
:10370000F1EE10FA02D2B0EE600AF6E7B0EE610A0E
:10371000F3E710B5044630220221204600F044F9B8
:1037200010BD2DE9F84380460C4615460020009058
:103730000DB10F2C02D90120BDE8F88304F00F0071
:103740004FF4004141EAC0266A463146404600F047
:10375000C4F807461FB1FF2028703846ECE7BDF8D3
:1037600000002870062C03D2297808F1500001557A
:103770000020E1E770B52DED028B0446B0EE408AE3
:103780002046FFF7A1FF18B90120BDEC028B70BDE8
:1037900094ED110AB0EE401A94ED110AB1EE400A10
:1037A000F0EE400AB0EE480AFFF79EFFB0EE408A06
:1037B000B5EEC08AF1EE10FA0FDDA18D0122A06AEC
:1037C00001F00EFEB0EE480A2046FFF7D7FE054690
:1037D0002946204600F01CF818E0B5EEC08AF1EE4C
:1037E00010FA0FD2A18D0022A06A01F0F9FDB1EE0E
:1037F000480A2046FFF7C2FE05462946204600F04B
:1038000007F803E00021204600F002F80020BCE7A2
:1038100082681AB94268126851631EE08268042AFD
:1038200003D142681268916317E08268082A03D1C5
:1038300042681268D16310E082680C2A03D14268A2
:103840001268116409E08268102A03D14268126884
:10385000916402E042681268D164704770B5044612
:103860000D462046FFF730FF08B9012070BD94F8DF
:10387000480008B90020F9E7E06810B1B4F8420048
:1038800008B90120F2E7B4F84200A84201DAB4F81E
:103890004250C5EB0530B4F84210B0FBF1F63346A8
:1038A0000022D4E9030101F047FA08B10320DDE763
:1038B0000020DBE710B504462046FFF705FF08B9F6
:1038C000012010BD00212046FFF7A2FFA18C00229D
:1038D000206A01F085FD0020F3E7FEB504460D46A1
:1038E00016462046FFF7F0FE00B10EB90120FEBDDE
:1038F000280A8DF80800E8B28DF8090000208DF83C
:1039000004008DF805002046FFF703FE012001F0BA
:103910005BFC2046FFF705FE0020009002E00098C7
:10392000401C009000980A28F9D3E08F00900223F1
:1039300001AA02A9206803F019F807462046FFF7FC
:10394000E8FD012001F040FC24F84C5F9DF80500E3
:103950009DF8041040EA0120608060884C3C308073
:103960000FB10220C3E70020C1E710B504461822BA
:103970000221204600F018F810BD10B5044620467C
:10398000FFF7A2FE08B9012010BD00212046FFF775
:103990003FFFA18C0122206A01F022FDB4F8400013
:1039A00001F012FC0020EFE72DE9F84307460C4632
:1039B0001546002000900F2C02D90120BDE8F883A5
:1039C00004F00F0045EAC0201FFA80F86A4641461D
:1039D0003846FFF782FF064626B9062C02D207F1C9
:1039E000500005553046E9E7704772B600BFFEE764
:1039F000F8B504460D460020009000BF94F858002A
:103A0000012801D10220F8BD012084F8580000BF30
:103A10002046FCF73BFF06468EBBE06D20F4885045
:103A200040F00200E065206881681B4A114005F003
:103A3000804242F000421143816000BF13E00098D1
:103A4000401C00901549009888420CD3E06D20F08E
:103A5000020040F01000E06500BF002084F858002C
:103A600000BF0120CFE720688168C90F0029E6D197
:103A7000E06D20F0020040F00100E06504E0FFE7A7
:103A8000E06D40F01000E06500BF002084F85800B1
:103A900000BF3046B7E70000C0FFFF3F02DE040072
:103AA0002DE9F0439BB004460E464FF00008306805
:103AB00000B100BF00BF94F85800012803D10220D4
:103AC0001BB0BDE8F083012084F8580000BF00203F
:103AD000179018902068B0F1A04F02D1584800907C
:103AE00008E058492068884202D15748009001E018
:103AF00000200090009850B9E06D40F02000E06593
:103B000000BF002084F8580000BF0120D8E70098CB
:103B100004F0F3FB0746206804F0EFFB00287DD19A
:103B2000002F7FD12068B0F1A04F03D04449206816
:103B3000884201D1454800E0454805463068D8B381
:103B400094F83800716841EA4030A96821F4604176
:103B50000843A8602068B0F1A04F03D0384920681E
:103B6000884201D1394800E03948384988420AD1B1
:103B70004FF0A04004F0B2FB8146314804F0AEFBA8
:103B800049EA00000DE02F4804F0A8FB81462E48CA
:103B900004F0A4FB49EA00092E4804F09FFB49EA1F
:103BA0000000E0BBB16830680843A96840F61F72A6
:103BB00091430843A8603BE0FFE7A86820F4604019
:103BC000A8602068B0F1A04F03D01D49206888424A
:103BD00001D11E4800E01E481C4988420AD14FF01E
:103BE000A04004F07BFB8146154804F077FB49EACE
:103BF00000000DE0134804F071FB8146124804F008
:103C00006DFB49EA0009134804F068FB49EA00002B
:103C100028B9A86840F61F71884301E002E007E078
:103C2000A86005E0E06D40F02000E0654FF001087D
:103C300000BF002084F8580000BF404640E7000065
:103C40000001005000040050000500500003005027
:103C500000070050000600502DE9F84F05460C46BD
:103C60004FF0000A00200090FE49E068884200D032
:103C700000E000BF00BF95F85800012802D10220E3
:103C8000BDE8F88F012085F8580000BF286804F0CF
:103C90002FFB00287DD12968D4E9002001F1300CE8
:103CA000C0F3012B0CEB8B03D3F800C000F01F0E08
:103CB0004FF01F0B0BFA0EFB2CEA0B0C00F01F0B46
:103CC000C2F3846E0EFA0BFE4CEA0E0CC3F800C071
:103CD00000BF286804F00CFB8146286804F0EFFA66
:103CE0008046B9F1000F64D1B8F1000FFBD1A06894
:103CF000B0F1004F0AD121680022286804F014FBBB
:103D00004FF00041286804F034FB08E0A268216805
:103D1000286804F009FB0021286804F02AFB606988
:103D20002968C968C1F3C101490000FA01F7206997
:103D300004283FD028682268216900F1600C0CEB50
:103D40008103D3F800C0DFF820B30CEA0B0C02F0BB
:103D5000F84B4BF0004B4BEA070B4CEA0B0CC3F84B
:103D600000C000BF2868A269216900F1600C0CEB5B
:103D70008103D3F800C02CF0807C4CEA020CC3F81D
:103D800000C000BF2868227F2169012A02D15206A3
:103D900001E0F6E10022134600F1600C0CEB810219
:103DA000D2F800C02CF0007C4CEA030CC2F800C032
:103DB00000BFA7E00021286804F078FAC0F31200E1
:103DC00030B90021286804F071FAC0F3846007E07C
:103DD0000021286804F06AFA90FAA0F0B0FA80F0A6
:103DE0002168C1F3120119B92168C1F3846104E0AB
:103DF000216891FAA1F1B1FA81F1884204D100223F
:103E00001146286804F0AAFA0121286804F04EFA45
:103E1000C0F3120030B90121286804F047FAC0F35A
:103E2000846007E00121286804F040FA90FAA0F0CD
:103E3000B0FA80F02168C1F3120119B92168C1F309
:103E4000846104E0216891FAA1F1B1FA81F188421C
:103E500004D100220121286804F080FA0221286898
:103E600004F024FAC0F3120030B90221286804F0EB
:103E70001DFAC0F3846007E00221286804F016FAF6
:103E800090FAA0F0B0FA80F02168C1F3120119B9DC
:103E90002168C1F3846104E0216891FAA1F1B1FACB
:103EA00081F1884204D100220221286804F056FAE8
:103EB0000321286804F0FAF9C0F3120030B9032195
:103EC000286804F0F3F9C0F3846007E00321286850
:103ED00004F0ECF990FAA0F0B0FA80F02168C1F398
:103EE000120119B92168C1F3846104E0216891FAD3
:103EF000A1F1B1FA81F1884204D10022032128689E
:103F000004F02CFA286804F0E4F9002870D128683D
:103F1000E2682168D0F8B0C0C1F312032CEA030CA8
:103F200002F0180B514B23FA0BF30B404CEA030C35
:103F3000C0F8B0C000BF4B49E068884258D1236840
:103F4000C3F312031BB92368C3F3846304E023683B
:103F500093FAA3F3B3FA83F35B1C03F01F03092B5B
:103F60003ED82368C3F312031BB92368C3F38463E9
:103F700004E0236893FAA3F3B3FA83F35B1C03F022
:103F80001F034FF0010C0CFA03FC2368C3F3120368
:103F90001BB92368C3F3846304E0236893FAA3F393
:103FA000B3FA83F35B1C03F01F034CEA836C2368B2
:103FB000C3F312031BB92368C3F3846304E02368CB
:103FC00093FAA3F3B3FA83F35B1C03F01F0303EB31
:103FD00043034FF0000B4BEA03534CEA03033FE06B
:103FE0002368C3F3120323B92368C3F3846305E092
:103FF00042E0236893FAA3F3B3FA83F35B1C03F064
:104000001F034FF0010C0CFA03FC2368C3F31203E7
:104010001BB92368C3F3846304E0236893FAA3F312
:10402000B3FA83F35B1C03F01F034CEA836C236831
:10403000C3F312031BB92368C3F3846304E023684A
:1040400093FAA3F3B3FA83F35B1C03F01F030A3B59
:1040500003EB43034FF0007B4BEA03534CEA0303AB
:10406000194605E000007F4000F0FF03FFFF070056
:10407000A268286804F058F94849206808400028D8
:1040800042D02968B1F1A04F03D0454A2968914236
:1040900001D1444900E04449084604F0FDF80646D1
:1040A00042492068884203D04149206888422CD187
:1040B00006F4000048BB2868B0F1A04F03D03D498A
:1040C0002868884263D12A68B2F1A04F03D0344BEC
:1040D0002A689A4201D1334A00E0334A104646F436
:1040E000000104F035F9344800683449B0FBF1F0C0
:1040F000401C00EB40008000009002E00098401E51
:10410000009000980028F9D141E02D4920688842AC
:104110001BD106F08070C0B921492868884203D1BC
:1041200028492868884232D02A68B2F1A04F03D0CB
:104130001B4B2A689A4201D11A4A00E01A4A1046DB
:1041400046F0807104F004F921E01F49206888429C
:104150001DD106F48000D0B911492868884216D0D4
:104160002A68B2F1A04F03D00B462A689A4201D1C7
:104170000C4A00E00C4A104646F4800104F0E8F8CE
:1041800005E0E86D40F02000E8654FF0010A00BF4F
:10419000002085F8580000BF504671E500000880F7
:1041A000000100500003005000070050000021C330
:1041B0001000C090000600505C000020400D03007D
:1041C000000052C700050050000084CB10B5044623
:1041D0002068B0F1A04F07D1FCF7EAFC084800685E
:1041E000401C074908600AE006492068884206D159
:1041F000FCF72CFD04480068401C0349086010BD12
:10420000E400002000010050E8000020704700009A
:104210000168B1F1A04F05D107490968491C064A58
:10422000116008E0054A0168914204D10449096817
:10423000491C034A11607047EC0000200001005047
:10424000F00000202DE9F84304464FF0000800205C
:10425000009014B90120BDE8F883606920B194F89A
:104260002400012800D100BFE06D30B9204600F0E5
:1042700045F90020206684F8580020688168C1F361
:10428000407131B120688168914A1140816000BF5E
:1042900000BF206804F027F8B0B9206881688D4A13
:1042A000114041F08051816000BF8B4800688B490C
:1042B000B0FBF1F0401C4000009002E00098401E6E
:1042C000009000980028F9D1206804F00CF848B953
:1042D000E06D40F01000E065206E40F001002066C7
:1042E0004FF00108206804F003F80646E06D00F086
:1042F000100000287ED1002EFCD1E06D20F48070EB
:1043000040F00200E065206803F0E3FF88BB20680E
:10431000B0F1A04F03D072492068884201D17148A2
:1043200000E071486F4988420AD14FF0A04003F085
:10433000D0FF81466A4803F0CCFF49EA00000DE057
:104340006A4803F0C6FF8146694803F0C2FF49EAA4
:104350000009684803F0BDFF49EA000048B9226837
:10436000B2F1A04F03D05E4B22689A4202D15D4A5F
:1043700001E009E05C4A10466168826822F47C1220
:104380000A43826000BF00BF607FE16B41EA4030BA
:10439000E1680843A168084394F8241040EA014505
:1043A00094F82400012803D1208D401E45EA4045A1
:1043B000E06A28B1A08D00F47870216B08430543B2
:1043C0002068C0684C49084028432168C8602068BC
:1043D000006920F04060616B084321680861206833
:1043E00003F06DFF0746EEBBE7BB207F002141EAEB
:1043F000803100E064E094F8380041EA400520682C
:10440000C06844F20201884328432168C8602069DB
:1044100080B12068006940F480302168086120681C
:10442000D0F8C0006FF30D00216908432168C1F87E
:10443000C0000DE02068006920F480302168086128
:104440002068D0F8C0006FF30D002168C1F8C000EB
:1044500094F84000012813D1606C40F00101A06C79
:10446000084300E012E0E16C0843216D0843216835
:10447000096940F2FC72914308432168086105E034
:104480002068006920F00100216808616069012846
:1044900009D12068006B20F00F00216A491E0843F3
:1044A0002168086305E02068006B20F00F00216898
:1044B0000863E06D20F0020040F00100E06505E0D7
:1044C000E06D40F01000E0654FF001084046C2E6A4
:1044D000C0FFFF5FC0FFFF7F5C000020400D0300B6
:1044E000000100500003005000070050000400507D
:1044F00000050050000600500740F0FF10B59CB0CA
:104500000446142117A8FCF74DF8542102A8FCF723
:1045100049F82068B0F1A04F7DD14FF400400290DF
:104520008003139002A801F079FA08B1FFF75DFA51
:1045300084480068401C83490860084600680128D8
:104540000DD100BF8048C06C40F400507E49C86463
:104550000846C06C00F40050019000BF00BF00BFCF
:104560007948C06C40F004007749C8640846C06CC4
:1045700000F00400019000BF00BF00BF0846C06CFF
:1045800040F00100C8640846C06C00F001000190D2
:1045900000BF00BF00BF0846C06C40F00200C86406
:1045A0000846C06C00F00200019000BF00BF0F2061
:1045B0001790032018900020199017A9634800F065
:1045C00017FE0B201790032018900020199017A9B0
:1045D0004FF0904000F00CFE44F6010017900320CD
:1045E00018900020199017A9594800F001FE594869
:1045F0005949086005204860002157488160C16022
:104600008021016149004161890081612021C161EE
:104610000021016200E009E000F00CFD08B1FFF7A5
:10462000E4F900BF4C486065846289E04B4920682A
:104630008842FAD1C00102908003139002A801F0D1
:10464000EDF908B1FFF7D1F93E480068401C3D493B
:1046500008600846006801280DD100BF3A48C06CC8
:1046600040F400503849C8640846C06C00F400505B
:10467000019000BF00BF00BF3348C06C40F0010094
:104680003149C8640846C06C00F00100019000BFC9
:1046900000BF00BF0846C06C40F00400C864084674
:1046A000C06C00F00400019000BF00BF00BF0846CE
:1046B000C06C40F00200C8640846C06C00F0020004
:1046C000019000BF00BFA020179003201890002089
:1046D000199017A94FF0904000F08AFD30201790F4
:1046E000032018900020199017A9184800F080FDA9
:1046F00004201790032018900020199017A914483F
:1047000000F076FD134828381549086024204860D9
:10471000002113488160C16080210161490041612D
:10472000890081612021C1610021016200F082FCC9
:1047300008B1FFF75AF900BF09486065846200BFFD
:104740001CB010BD4C0000200010024000080048C2
:1047500000040048300002402806002000010050FC
:10476000880600202DE9F04104460F469046216856
:10477000B1F1A04F03D0484A2168914201D1474985
:1047800000E04749084603F08CFD0646206803F028
:10479000AFFD00287CD100BF94F85800012802D159
:1047A0000220BDE8F081012084F8580000BF3D4997
:1047B0002068884201D1012000E0002020B91EB10C
:1047C000052E01D0092E5DD12046FCF7A9F805463B
:1047D000002D52D1E06D40F60161884340F48070B5
:1047E000E0652D492068884202D14FF0A04006E0E4
:1047F0002D492068884201D12C4800E020682168BA
:10480000884200D01EB9E06D20F48010E065E06DB4
:1048100000F4805020B1206E20F00600206601E0F8
:10482000002020662248616DC8622248616D0863DD
:104830002148616D48631C202168086000BF00208A
:1048400084F8580000BF2068406840F010002168DC
:1048500048602068C06840F001002168C860226894
:1048600002F1400143463A46606D00F04BFC0546BC
:10487000206803F051FD0CE00AE000BF002084F83E
:10488000580006E0012500BF002084F8580000E031
:104890000225284685E70000000100500003005073
:1048A00000070050000600500005005000040050B2
:1048B000CD0700087D0800085F08000870B50446B1
:1048C00000BF94F85800012801D1022070BD0120DA
:1048D00084F8580000BF03212046FBF7E9FE054697
:1048E0004DBB2068C06820F001002168C860606D81
:1048F00090F82500022808D1606D00F093FA054673
:104900001DB1E06D40F04000E0652068406820F097
:1049100010002168486025B92046FBF7B7FF05461F
:1049200002E02046FBF7B2FF2DB9E06D20F488507D
:1049300040F00100E06500BF002084F8580000BF8F
:104940002846C3E7704700002DE9F84F04460D469E
:1049500016460020009004B115B90120BDE8F88F7B
:10496000E869012800D100BFA868042800D100BF71
:1049700000BF6079012801D10220EFE701206071BA
:1049800000BF02202071A868042859D100F02EFD34
:104990008246E6B911E000F029FDA0EB0A000128EB
:1049A0000BD92068406B00F4004030B1206940F022
:1049B0000800206103202071D0E72068406B00F4DC
:1049C00000400028E7D1686A216808641BE011E014
:1049D00000F00CFDA0EB0A0001280BD92068406B09
:1049E00000F0004030B1206940F008002061032051
:1049F0002071B3E72068406B00F000400028E7D149
:104A0000686A216848642068806C06F0100240F2F1
:104A1000FF319140884306F01002A96A9140084393
:104A2000216888642068C06C06F01002FF21914064
:104A3000884306F01002E96A914008432168C8647F
:104A4000E86901280FD12068876B06F010011F204C
:104A500088408743D5F8208006F0100008FA00F05F
:104A60000743206887632068C76B06F010010720A2
:104A700088408743A869012802D14FF000090CE063
:104A8000A869022802D14FF0010906E0686910B94F
:104A90004FF0010901E04FF000096969A868084377
:104AA00040EA090806F010014FF4807088408743FF
:104AB0002879012801D1000200E0002040EA08081E
:104AC00006F010014FF40070884087436879012890
:104AD00001D1400200E0002040EA080827F44047E6
:104AE000286802280FD101F0D9FA83462C498B455A
:104AF00002D947F4004708E02A48834502D947F421
:104B0000804702E001E02868074306F0100108FA38
:104B100001F007432068C7632068006806F01002B0
:104B20004FF48041914088432168086020680768FD
:104B300006F0100140F6FE7088408743D5F80C80DF
:104B400006F0100108FA01F00743206807602068AA
:104B5000006806F01002C021914088432168086077
:104B6000287BC0F38308287CC0F3830048EA002830
:104B70002068006E06F0100240F60F7191408843E5
:104B800006F0100108FA01F10843216808660120C7
:104B9000207100BF0020607100BF0098DEE60000B9
:104BA0000068890900B4C404704770B504462068E1
:104BB00005682068466B05F40050B0F5005F17D11A
:104BC00006F40050B0F5005F12D104202071206976
:104BD00040F0010020614FF40050216848632068D4
:104BE000006820F48050216808602046FFF7DCFF51
:104BF00005F00050B0F1005F17D106F00050B0F1A1
:104C0000005F12D104202071206940F00200206171
:104C10004FF00050216848632068006820F0805001
:104C2000216808602046FFF78DFE70BD10B5044670
:104C30000CB9012010BD207920B9002060712046F8
:104C400000F008F80220207100202061012020716E
:104C50000020EFE710B586B00446142101A8FBF749
:104C6000A1FC3149206888422ED100BF2F48C06C7A
:104C700040F480302D49C8640846C06C00F4803090
:104C8000009000BF00BF00BF0846C06C40F00100AC
:104C9000C8640846C06C00F00100009000BF00BF6F
:104CA00010200190032002900020039001A94FF0F2
:104CB000904000F09DFA00220F21362000F040FCC9
:104CC000362000F029FC2CE019492068884216D1D2
:104CD00000BF1648C06C40F480201449C8640846E0
:104CE000C06C00F48020009000BF00BF00220F21A4
:104CF000362000F025FC362000F00EFC11E00D49B6
:104D0000206888420DD100BF0848C06C40F40020E4
:104D10000649C8640846C06C00F40020009000BF3B
:104D200000BF06B010BD0000000800500010024097
:104D3000001000500014005078B504460020009088
:104D40000CB9012078BD2068C06B01F010064FF44B
:104D50008075B540284000B900BF2068009029B98F
:104D600002F10800009D2844009004E002F11400C4
:104D7000009D28440090009803600020E2E70000B6
:104D800018B502460AB9012018BD00BF50790128A4
:104D900001D10220F8E70120507100BF02201071FC
:104DA0001068006801F010040123A3401843136841
:104DB00018601A4800681A4BB0FBF3F0401C0090D2
:104DC00002E00098401E009000980028F9D161B9D7
:104DD0001068006800F03E00022816D11068406894
:104DE00040F00100136858600FE01068006800F49C
:104DF000781301F010040220A040834205D110680E
:104E0000406840F00200136858600120107100BF34
:104E10000020507100BF00BFB6E700005C0000201A
:104E2000400D03000146002091F82520022A03D0FE
:104E30000422CA63012027E00A68126822F00E02E9
:104E40000B681A608A6C126822F480728B6C1A608C
:104E50000A68126822F001020B681A6091F8442077
:104E600002F01F0301229A400B6C5A60D1E9133201
:104E70005A604A6D42B14A6D126822F480724B6DDD
:104E80001A60D1E916325A60012281F8252000BF4C
:104E9000002281F8242000BF704770B50446002529
:104EA00094F8250002280BD00420E063012084F848
:104EB000250000BF002084F8240000BF012534E055
:104EC0002068006820F00E002168086020680068F3
:104ED00020F0010021680860A06C006820F4807058
:104EE000A16C086094F8440000F01F010120884084
:104EF000216C4860D4E913104860606D40B1606D6A
:104F0000006820F48070616D0860D4E91610486074
:104F1000012084F8250000BF002084F8240000BF91
:104F2000A06B10B12046A16B8847284670BD014692
:104F3000C86B704770B50446206C05682068066829
:104F400094F8440000F01F01042088402840E0B19C
:104F500006F00400C8B12068006800F0200028B9FD
:104F60002068006820F004002168086094F844007C
:104F700000F01F0104208840216C4860206B00284D
:104F800056D02046216B884752E094F8440000F048
:104F90001F0102208840284018B306F0020000B329
:104FA0002068006800F0200040B92068006820F008
:104FB0000A0021680860012084F8250094F8440064
:104FC00000F01F0102208840216C486000BF0020D3
:104FD00084F8240000BFE06A50B32046E16A8847A5
:104FE00026E094F8440000F01F0108208840284083
:104FF000F0B106F00800D8B12068006820F00E007B
:105000002168086094F8440000F01F0101208840E6
:10501000216C48600120E06384F8250000BF002077
:1050200084F8240000BF606B10B12046616B884794
:1050300070BD000070B504460CB9012070BD2F4949
:10504000206888420BD22E492068401A1421B0FBF8
:10505000F1F0800060642A48083820640AE027499B
:105060002068401A1421B0FBF1F0800060642348EE
:1050700008382064022084F825002068056847F677
:10508000F0708543D4E9020108432169084361694E
:105090000843A1690843E1690843216A08430543BD
:1050A000206805602046FEF79DF8A068B0F5804FA7
:1050B00001D1002060602079A16C0860D4E9131050
:1050C0004860606860B16068042809D82046FEF72F
:1050D000ABF80020616D0860D4E91610486003E069
:1050E00000206065A065E0650020E063012084F891
:1050F0002500002084F8240000BF9FE70804024038
:10510000080002402DE9F04104460D4616461F46B0
:105110004FF0000800BF94F82400012802D10220BB
:10512000BDE8F081012084F8240000BF94F8250038
:1051300001283FD1022084F825000020E063206888
:10514000006820F00100216808603B46324629468D
:105150002046FEF77BF8206B30B12068006840F0F5
:105160000E00216808600BE02068006820F0040051
:10517000216808602068006840F00A002168086023
:10518000A06C006800F4803028B1A06C006840F486
:105190008070A16C0860606D28B1606D006840F49B
:1051A0008070616D08602068006840F0010021682F
:1051B000086006E000BF002084F8240000BF4FF024
:1051C00002084046ACE7000070B5044600F00EF956
:1051D00006462546681C10B104480068054400BF17
:1051E00000F004F9801BA842FAD370BD58000020DB
:1051F00078B502460B460021CAE001268E401D68A4
:1052000005EA0604002C73D01D7905F00305012D75
:1052100004D01D7905F00305022D13D190684E00CE
:105220000325B540A8434E00DD68B5402843906093
:10523000506801258D40A8431D79C5F300158D40A8
:10524000284350601D7905F00305032D09D0D0686F
:105250004E000325B540A8434E009D68B540284345
:10526000D0601D7905F00305022D13D1CE0802F19F
:10527000200555F826004D07EE0E0F25B540A84332
:105280004E07F60E1D69B5402843CE0802F12005F1
:1052900045F8260010684E000325B540A8431D7947
:1052A00005F003054E00B540284310605D6805F425
:1052B0004035002D6BD000BF384D2D6E45F00105F7
:1052C000364E356635462D6E05F00105009500BF5A
:1052D00000BF4FEAB6358E0855F826008D072E0F11
:1052E0000F25B540A843B2F1904F02D100251AE036
:1052F0004DE02B4DAA4201D1012514E0294DAA42CF
:1053000001D102250FE0284DAA4201D103250AE070
:10531000264DAA4201D1042505E0254DAA4201D11E
:10532000052500E006258E07360FB5402843214DA0
:105330008E0845F82600204D2868A0435D6805F4D6
:10534000801505B120431C4D28602D1D2868A04301
:105350005D6805F4001505B12043174D2D1D28602B
:10536000154D2D1F2868A0435D6805F4003505B173
:105370002043114D2D1F28602D1F2868A0435D6814
:1053800005F4803505B120430B4D083D2860491CCC
:105390001D68CD40002D7FF430AF78BD0010024075
:1053A0000004004800080048000C004800100048B5
:1053B0000014004808000140080401400246136937
:1053C0000B400BB1012000E00020704710B542698E
:1053D00021EA020302EA010443EA0443836110BDA7
:1053E0000AB1816100E081627047000001480068F5
:1053F0007047000050000020034800680349096816
:1054000008440149086070475000002058000020FF
:1054100010B50024032000F0D1F80F2000F008F8A8
:1054200008B1012401E000F051F8204610BD000051
:10543000F0B587B004460026002700BF1E48806DE7
:1054400040F010001C4988650846806D00F010008F
:10545000009000BF00BF01A902A800F0FDFD00F010
:1054600023FE06461548B6FBF0F0471E14481549C2
:10547000086040F2E7311348C160476000210161D4
:10548000816001F0BAFC054695B90E4801F0A6FD11
:1054900005466DB9362000F03FF8102C07D20022E7
:1054A0002146362000F04CF80748046000E0012552
:1054B000284607B0F0BD00000010024040420F0037
:1054C000001000401C0C00205400002008B500BF54
:1054D0001048006E40F001000E4908660846006E54
:1054E00000F00100009000BF00BF00BF0846806DC3
:1054F00040F0805088650846806D00F08050009034
:1055000000BF00BF00220F21901E00F019F800F02C
:105510007BFA08BD001002400146084600280DDB5A
:1055200000BF00BF00F01F0301229A4043099B0007
:1055300003F1E023C3F8002100BF00BF00BF7047A4
:105540002DE9F05F80460D46164606F015F9074630
:1055500039462A46334601F00700C0F1070ABAF17E
:10556000040F02D94FF0040A01E0C0F1070AD14646
:1055700000F1040ABAF1070F02D24FF0000A01E06D
:10558000A0F1030AD4464FF0010A0AFA09FAAAF177
:10559000010A0AEA020A0AFA0CFA4FF0010B0BFAA6
:1055A0000CFBABF1010B0BEA030B4AEA0B0421469F
:1055B000404606F0E9F8BDE8F09F000000BF00F0AB
:1055C0000702064B19684FF6FF031940044B0B43C3
:1055D00043EA0221014B196000BF70470CED00E067
:1055E0000000FA0538B5044600250CB9012038BD85
:1055F00094F83A00052801D10120F8E794F83A0020
:10560000022801D10120F2E7A06800B900BFA0691B
:1056100000B100BFA068402800D100BFE06A102898
:1056200000D100BF00BF4248006E40F00100404979
:1056300008660846006E00F00100009000BF00BF41
:1056400094F83A0010B9002084F83900204600F0A0
:1056500073F8A068402802D0A068602826D120688E
:10566000006820F01000E16A084321680860D4E96E
:105670000101084321690843217D012901D1090263
:1056800000E000210843616A0843A16A0843218EB3
:1056900040EAC14194F8340041EA00602168096899
:1056A000244A114008432168086027E02068006808
:1056B00020F01000E16A084321680860D4E9010184
:1056C0000843E168084321690843217D012901D18C
:1056D000090200E000210843616A0843A16A084307
:1056E000218E40EAC14194F8340041EA006021680B
:1056F0000968104A114008432168086020688069E1
:1057000000F0004058B9D4E906010843216A084373
:105710002168896921F03F0108432168886194F874
:105720003A0010B9012084F83A0028465FE70000EB
:1057300000100240113E00E010B586B0044614216E
:1057400001A8FAF72FFF58492068884219D100BFF5
:105750005648C06C40F001005449C8640846C06C0B
:1057600000F00100009000BF00BF04200190032062
:1057700002900020039001A94FF09040FFF738FD00
:1057800090E04949091D2068884231D100BF47484F
:10579000C06C40F001004549C8640846C06C00F088
:1057A0000100009000BF00BF00BF0846C06C40F081
:1057B0000800C8640846C06C00F00800009000BFF4
:1057C00000BF40200190032002900020039001A917
:1057D0004FF09040FFF70CFD4FF480400190032004
:1057E00002900020039001A93148FFF701FD59E024
:1057F0002D4908312068884218D100BF2B48C06C61
:1058000040F002002949C8640846C06C00F002005C
:10581000009000BF00BF02200190032002900020F2
:10582000039001A92348FFF7E3FC3BE01E490C313C
:105830002068884218D100BF1C48C06C40F00200AC
:105840001A49C8640846C06C00F00200009000BF0E
:1058500000BF88140190032002900020039001A94A
:105860001448FFF7C5FC1DE00F491031206888423D
:1058700018D100BF0D48C06C40F001000B49C8644E
:105880000846C06C00F00100009000BF00BF881502
:105890000190032002900020039001A94FF0904056
:1058A000FFF7A6FC06B010BD000301400010024047
:1058B000000C0048000400480146002009B90120FE
:1058C00014E091F83A20052A01D101200EE091F868
:1058D0003A20012A09D10A68126842F001020B68D5
:1058E0001A60042281F83A2000E00120704700008D
:1058F00002468ABB4148006800F4C060B0F5806F82
:105900002BD13E488030006820F480703B4BC3F8B8
:1059100080001846006820F4C06040F400701860F1
:105920003748006832235843364BB0FBF3F0411C34
:1059300000E0491E3148406900F48060B0F5806F96
:1059400001D10029F5D12D48406900F48060B0F5FF
:10595000806F51D10320704708E0284880300068EC
:1059600020F48070254BC3F8800045E0B2F5007F3D
:105970003AD12248006800F4C060B0F5806F2AD1A7
:105980001E488030006840F480701C4BC3F88000D3
:105990001846006820F4C06040F400701860184891
:1059A000006832235843174BB0FBF3F0411C00E072
:1059B000491E1248406900F48060B0F5806F01D143
:1059C0000029F5D10D48406900F48060B0F5806F82
:1059D00012D10320BFE709488030006840F480708E
:1059E000064BC3F8800007E00448006820F4C0605C
:1059F00040F48060014B18600020ACE7007000406C
:105A00005C00002040420F000348806840F4804062
:105A10000149886070470000007000402DE9F8439C
:105A200004460027B846206800F40020B0F5002F97
:105A300073D1B946FD48806D00F0805078B900BF41
:105A4000FA48806D40F08050F84988650846806DBE
:105A500000F08050009000BF00BF4FF00109F448F3
:105A6000006840F48070F2490860FFF7BFFC06460A
:105A700006E0FFF7BBFC801B022801D9032705E0E5
:105A8000EB48006800F480700028F2D000BF002FBF
:105A900046D1E6489030006800F44075CDB1206DE5
:105AA000A84216D0E1489030006820F44075DF48E5
:105AB000D0F8900040F48030DC49C1F890000846EE
:105AC000D0F8900020F48030C1F890000846C0F86B
:105AD000905005F00100A0B1FFF788FC064608E0F1
