:020000040800F2
:1000000070EA00209D030008B79F0008999300083C
:10001000B59F00082D3E0008E5C300080000000061
:10002000000000000000000000000000DD020008E9
:10003000BF5000080000000039030008F9A80008BC
:10004000B7030008B7030008B7030008B7030008A8
:10005000B7030008B7030008B7030008B703000898
:10006000B7030008B7030008B70300085D4900089C
:100070006949000875490008B7030008B70300087C
:10008000B7030008B7030008B7030008B703000868
:10009000B7030008B7030008B7030008B703000858
:1000A000B7030008B7030008B7030008B703000848
:1000B000B7030008B7030008B7030008B703000838
:1000C000B7030008B7030008B7030008B703000828
:1000D000B7030008D9C30008B7030008B703000836
:1000E000B7030008B7030008B7030008B703000808
:1000F000B7030008B7030008B7030008B7030008F8
:10010000B7030008B7030008B7030008B7030008E7
:10011000B7030008B703000889A90008B70300085F
:10012000B7030008B7030008B7030008B7030008C7
:10013000B7030008B7030008B7030008B7030008B7
:10014000B7030008B7030008B7030008B7030008A7
:10015000B7030008B7030008B7030008B703000897
:10016000B7030008B7030008B7030008B703000887
:10017000B7030008B7030008B7030008B703000877
:10018000B7030008B7030008B7030008B703000867
:10019000B703000800000000B7030008B703000819
:1001A000B7030008B7030008B7030008B703000847
:1001B000B7030008B7030008B7030008B703000837
:1001C000B7030008B7030008B7030008B703000827
:1001D000B7030008B703000800F002F800F06FF85A
:1001E0000AA090E8000C82448344AAF10107DA4592
:1001F00001D100F064F8AFF2090EBAE80F0013F075
:10020000010F18BFFB1A43F001031847C0F10000AB
:10021000E0F100000A444FF0000C10F8013B13F02D
:10022000070408BF10F8014B1D1108BF10F8015B4F
:10023000641E05D010F8016B641E01F8016BF9D142
:1002400013F0080F1EBF10F8014BAD1C0C1B09D199
:100250006D1E58BF01F801CBFAD505E014F8016B0B
:1002600001F8016B6D1EF9D59142D6D3704700009D
:100270000023002400250026103A28BF78C1FBD8AF
:10028000520728BF30C148BF0B60704766290EF087
:100290000185752900F05E81782900F097810020A2
:1002A00070471FB50EF0F1FC00F0DAFD04000020ED
:1002B00000210EF05DFCE0601FBD10B510BD00F028
:1002C000CFFE1146FFF7EDFF0CF09EF900F0EDFEBA
:1002D00003B4FFF7F2FF03BC00F030FF2C4B1968AA
:1002E0000868B0E8F04F80F30988BFF36F8F4FF0D4
:1002F000000080F311887047000000000848006883
:10030000006880F308884FF0000080F3148862B61C
:1003100061B6BFF34F8FBFF36F8F00DF00BF00BF29
:1003200008ED00E0DFF80C00016841F470010160A5
:10033000704700BF88ED00E0EFF30980BFF36F8FD7
:10034000134B1A681EF0100F08BF20ED108A20E929
:10035000F04F106009B44FF0500080F31188BFF3E4
:100360004F8FBFF36F8F0DF0DDFC4FF0000080F377
:10037000118809BC19680868B0E8F04F1EF0100F2A
:1003800008BFB0EC108A80F30988BFF36F8F704705
:100390007C000020EFF3058070470000094880478B
:1003A00009480047FEE7FEE7FEE7FEE7FEE7FEE757
:1003B000FEE7FEE7FEE7FEE704480549054A064B6F
:1003C0007047000079A90008D9010008704A002090
:1003D00070EA0020706A0020706A002053EA020C64
:1003E00000F069802DE9F04B4FF00006002B1FBF95
:1003F000B3FA83F503FA05F424FA05F65E4012BF5A
:100400001643B2FA82F502FA05F4C5F120051EBFC3
:1004100022FA05FC44EA0C04203556EA044C4FEA63
:10042000144418BF641C4FF000084FF000099042BC
:1004300071EB030C39D3002919BFB1FA81F701FA26
:1004400007F6B0FA80F700FA07F6C7F120071EBFDB
:1004500020FA07FC46EA0C062037B6FBF4FCA7EBB3
:100460000507103F07F01F0BCBF120060CFA0BFB22
:100470002CFA06F644BFB3460026202FA4BF5E46E2
:100480004FF0000B5BEA060C08BF4FF0010B19EBB5
:100490000B09ABFB027C48EB0608C01B06FB02CC39
:1004A0000BFB03CC71EB0C01C1E70B460246414646
:1004B0004846BDE8F08B13B54FF000004FF0000147
:1004C000AFF30080BDE81C40704700000FB47CB55E
:1004D0000C0009AA009001D02044401E084B7B4428
:1004E00069460190089800F078FC05461CB1002090
:1004F000694600F085FC28467CBC5DF814FB0000D2
:100500002909000070B5044685690068C10601D557
:10051000302600E02026C00707D070BDD4E90121B5
:1005200030469047206A401C20626D1EF6D570BD93
:1005300070B5044685690078C00707D170BDD4E95D
:10054000012120209047206A401C20626D1EF6D5B4
:1005500070BD00002DE9F0410646002410687529A1
:10056000314616A510D0AFF30080002802DA4042D1
:1005700013A507E031688A0701D512A502E04907F3
:1005800004D511A5012401E0AFF3008000210A2267
:1005900006F1240709E0B0FBF2FCB0FBF2F302FB2A
:1005A0001C00303078541846491C0028F3D12346EB
:1005B0002A463046BDE8F04100F0A1B90000000035
:1005C0002D0000002B0000002000000070B5044644
:1005D0000D4621461068AFF300802188090502D539
:1005E0000F4A7A4402E00E4A7A440E32002104F1A6
:1005F000240305E000F00F060009965D5E54491CD7
:100600000028F7D120780023000704D5702D02D0F0
:1006100009B1022311322046BDE8704000F06FB9E5
:10062000B2EB00002DE9F05F894604464FF0000A66
:10063000DFF874B1FB44C0F820A02046E168884789
:10064000002874D0252806D0D4E901219047206ADB
:10065000401C2062F1E700265F462046E16888479B
:100660002028054607DB312D05D2781910F8200C1B
:1006700008B10643F1E7B00701D526F00406C4F837
:100680001CA00027C4F818A02A2D09D028460BF07A
:10069000D2FE38B304EB8708303DC8F8185019E093
:1006A00059F8041B204604EB87029161E1688847F2
:1006B000012F054618D1E069002820DA26F020062F
:1006C0001DE0D8F8180000EB800005EB4000303842
:1006D000C8F818002046E168884705460BF0ABFED5
:1006E0000028EED1012F0AD02E2D08D12046E16836
:1006F00088477F1C0546022F46F02006C4DBA06910
:10070000002803DA404246F00106A061F00701D05C
:1007100026F010066C2D0BD0682D09D04C2D39D049
:100720006A2D35D0742D35D07A2D33D016E038E0CF
:10073000E1682F4620468847B842054609D16C2F0C
:1007400026D04FF48060E16806432046884705467E
:1007500004E06C2F1AD04FF4807006430DB3A5F15E
:100760004100192802D8203546F400664A46294639
:10077000204626604E46FFF789FD80B101280BD048
:10078000F61D26F0070000F1080956E74020E4E7CF
:100790008020D8E70020D6E706F104094DE7284677
:1007A00052E7206ABDE8F09F88EB0000032A40F280
:1007B000308010F0030C00F0158011F8013BBCF103
:1007C000020F624498BF11F801CB00F8013B38BF1B
:1007D00011F8013BA2F1040298BF00F801CB38BF29
:1007E00000F8013B11F0030300F02580083AC0F047
:1007F000088051F8043B083A51F804CBA0E80810EF
:10080000F5E7121D5CBF51F8043B40F8043BAFF321
:100810000080D20724BF11F8013B11F801CB48BF7B
:1008200011F8012B24BF00F8013B00F801CB48BFB1
:1008300000F8012B704710B5203AC0F00B80B1E8EA
:100840001850203AA0E81850B1E81850A0E8185005
:10085000BFF4F5AF5FEA027C24BFB1E81850A0E80E
:10086000185044BF18C918C0BDE810405FEA827C28
:1008700024BF51F8043B40F8043B08BF7047D2073F
:1008800028BF31F8023B48BF11F8012B28BF20F8E0
:10089000023B48BF00F8012B704702F0FF0343EA18
:1008A000032242EA024200F0BABA4FF0000200B559
:1008B000134694469646203922BFA0E80C50A0E883
:1008C0000C50B1F12001BFF4F7AF090728BFA0E831
:1008D0000C5048BF0CC05DF804EB890028BF40F8FD
:1008E000042B08BF704748BF20F8022B11F0804F3F
:1008F00018BF00F8012B70477047704770472DE90B
:10090000F0470D4699469246044600F124080168D6
:10091000880604D5E06921F01001216000E0012083
:10092000A84201DD471B00E00027A1697A1902EB0C
:100930000900081AA0612078C00602D42046FFF7FB
:10094000E1FD002608E0D4E901211AF806009047ED
:10095000206A401C761C20624E45F4DB2078C006DD
:100960000AD52046FFF7CEFD06E0D4E9012130206C
:100970009047206A401C2062381EA7F10107F4DC72
:1009800007E0D4E9012118F805009047206A401CCF
:100990002062281EA5F10105F3DC2046FFF7C8FD03
:1009A0002078000602D50220BDE8F0870120FBE791
:1009B00070472DE9FF4F0C461E464FF0FF378BB0B6
:1009C000D2E90001DDF860800A908A46C1F30A5539
:1009D00005B93D46002108464FF00000BAF1000F6E
:1009E00000F4400005DA00EB80004FF4400101EA1A
:1009F00050004FEA9059B9F1010F00DDB9460A984D
:100A000050EA4A000ED044F61050A5F2FF35454397
:100A10002F14B8F1000F1ED07542291E1EDDC9F13A
:100A200000021CE0B8F1010F4FF0000001D03021AE
:100A300003E0F24305E02154401CB042FBDB3046AA
:100A40000022002121540B99C1F80880C1E900203F
:100A50000FB0BDE8F08FBD1B6D1CDEE74A4600DA23
:100A6000694206A800F086FA06AB93E8070003ABDC
:100A700083E8070050460A9900F067FB8DE80700FD
:100A8000A0F500501F3800900398002D0ADD42F2B7
:100A90001F014A460844002303A90390684600F05A
:100AA000D0FD09E0A0F500504A461F38002303A9F5
:100AB0000390684600F0DAFD8DE807000004000CA2
:100AC00003D04FF0FF30410800E01046B8F1000FAE
:100AD00003D00022009215461EE0751E05D400F0DA
:100AE000C3F9303262556D1EF9D5B3460122084371
:100AF00002D000227F1C04E02078302801D100229F
:100B00007F1E002A099784D01DE0112D07DA00F01E
:100B1000ABF9303262556D1C50EA0102F5D1084341
:100B200002D00098C8B10EE00021681E05E0235CE9
:100B3000625C63542254401E491C8142F7DBAB4681
:100B4000A81B401E0990002004F80B000B98099A7E
:100B5000C0F80880C0E9002B7AE711264FF00008A2
:100B600057E72DE9F04F88460446D21D22F00701D1
:100B700091B0D1E90001CDE90A010BF034FC024645
:100B80000B98C00F01D02D2007E02068810701D508
:100B90002B2002E0202101EAC000032A099001D0A5
:100BA000072A05DB03464146204600F0A3F90BE186
:100BB0002078800601D5E06900E00620B8F1650FD5
:100BC000814606D0B8F1660F18D0B8F1670F70D122
:100BD00031E00020B9F1110F009001DB112301E099
:100BE00009F101030AAA01A90CA8FFF7E2FEDDE959
:100BF0000C70002609F10105834647E001204B46B1
:100C000000904FF000470AAA01A90CA8FFF7D1FEF7
:100C1000DDE90DB00C995D46002610B909F101001F
:100C20000D18B9EB050003D4C0F1FF3609F1010539
:100C3000A5EB09002BE0B9F1010F01DA4FF0010932
:100C40000020B9F1110F0090484601DD112300E0AA
:100C500003460AAA01A90CA8FFF7ABFEDDE90C7058
:100C60004D4600268346207800070AD4AB4500DABB
:100C70005D4601A8012D04DD411911F8011C302940
:100C800007D04F4502DA17F1040F04DA012082463B
:100C90000FE06D1EEEE7002F02DCED1B3E4403E08B
:100CA000781CA84200DD7D1CB81B00F1010A4FF042
:100CB00000472078000703D4AA4501DB4FF0FF3A34
:100CC0000021B7F1004F0DF143088DF8431024D0F7
:100CD00002202B23002F01DA7F422D230A21021E3E
:100CE000A0F1010000DC5FB197FBF1FC97FBF1F292
:100CF00001FB1C7C17460CF1300C08F801CDEEE727
:100D0000A8F1010003702188090501D5452100E003
:100D10006521A0F1010800F8011C09980FA9A1EBB9
:100D20000807FF1D00B10120411901EBEA70A1691C
:100D30003844081A401EA0612078C00602D420461C
:100D4000FFF7E0FB099828B1D4E901219047206A18
:100D5000401C20622078C00622D52046FFF7D2FB37
:100D60001EE0002E04DBB34502DD01A8805D00E03B
:100D70003020D4E901219047206A401C2062761C73
:100D8000AAF101005FEA000A0AD100F069F8C06820
:100D90000168405CD4E901219047206A401C206230
:100DA000281EA5F10105DCDC07E0D4E9012118F8D3
:100DB000010B9047206A401C2062381EA7F10107F2
:100DC000F3DC2046FFF7B4FB032011B041E600003E
:100DD00001694A1C02610878704700B58FB0CDE9FF
:100DE00001310021059105497944CDE903101146EF
:100DF0006846FFF717FC0FB000BD0000E5FFFFFFDE
:100E00000A6802F8010B0A607047D1E900239A4290
:100E100002D2531C0B60107070474FF0000204297F
:100E2000C0F0128010F0030C3FF441ADCCF1040C83
:100E3000BCF1020F18BF00F8012BA8BF20F8022B4D
:100E4000A1EB0C01FFF733BD5FEAC17C24BF00F8C2
:100E5000012B00F8012B48BF00F8012B7047000060
:100E6000004870472C4A002030B5B0F10A024FEA22
:100E7000900E71F100034EEA817EB0EB0E0061EB43
:100E800091014FEA101E4EEA017E10EB0E0041EB7D
:100E900011114FEA102E4EEA016E10EB0E0041EBDD
:100EA00011214FEA104E4EEA014E10EB0E0041EBBD
:100EB0001141401841F100014FEAD00040EA417071
:100EC0004FEAD10110EB80054FEA810444EA9074A7
:100ED00044EB01046D1944EB0404521BA3414FF091
:100EE000000348BF0A3200D530BD401C41F100016B
:100EF00030BD00002DE9F0411F460446032601687D
:100F0000072A01F4006004DB08B116A505E016A568
:100F100003E008B115A500E015A521F01000206040
:100F2000A069C01EA0610FB1401EA0612046FFF75E
:100F3000E9FA4FB1D4E9012138469047206A401CB4
:100F40002062C01C206206E0206AFAE7D4E9012191
:100F500015F8010B9047761EF8D22046FFF7E8FA05
:100F6000BDE8F0814E414E006E616E00494E460074
:100F7000696E66002DE9F047814616468AB035480D
:100F800078440DC88DE80D0032487844801C03ACCD
:100F90000DC884E80D0041F69B300844372190FBD2
:100FA000F1F290FBF1F5A5F1800501FB12041B3C69
:100FB00002D56442012000E00020DFF898A08046BE
:100FC0000027FA44AAF1BE0A0EE0E0070AD0324632
:100FD000684607EB470101230AEB810100F046FB5D
:100FE0008DE8070064107F1C002CEED1194F7F4460
:100FF000AE3F19E0E80715D007EB04100DF1180A11
:1010000090E80E008AE80E00C068F04201D19819FD
:1010100008903246012306A903A800F027FB03AB82
:1010200083E807006D10641C002DE3D14FF001032D
:1010300032466946B8F1000F03A802D000F001FB68
:1010400001E000F013FBC9E90001C9F808200AB06B
:10105000BDE8F087CCE20000004870470C4A002051
:101060007546FFF7F9FFAE4605006946534620F086
:101070000700854618B020B5FFF79EF9BDE820406F
:101080004FF000064FF000074FF000084FF0000B44
:1010900021F00701AC46ACE8C009ACE8C009ACE8F7
:1010A000C009ACE8C0098D46704710B50446AFF3DF
:1010B00000802046BDE81040FFF70AB94FF0013C20
:1010C00050F8042B51F8043B9A4221D1A2EB0C03B7
:1010D000934313EACC1317D150F8042B51F8043B77
:1010E0009A4215D1A2EB0C03934313EACC130BD114
:1010F00050F8042B51F8043B9A4209D1A2EB0C039F
:10110000934313EACC13DBD04FF00000704700BFCD
:10111000D01A01BAB1FA81F101F0180122FA01F0F6
:10112000CB40C1F12001DBB2C0B2C01A2CFA01F3EE
:10113000D11A914311EAC311E6D170470149182031
:10114000ABBEFEE72600020070475FEA400C08BF16
:1011500091F0000F4FEA8C234FEAC12243EA51512C
:101160004FEA1C5018BF00F5F0404FEA300018BF9E
:1011700041F000415FEA6C5C00F02980BCF1FF3F68
:1011800008BF40F080407047130C06BF12044FF0B8
:10119000100C4FF0000C130E04BF12020CF1080CDF
:1011A000130F04BF12010CF1040C930F04BF920043
:1011B0000CF1020CD30F04BF52000CF1010C1146CC
:1011C0004FF00002A0F11F00A0EB0C00704711F0DF
:1011D000004F08BF704731F000413FF4D5AF0B0C12
:1011E00006BF09044FF0100C4FF0000C0B0E04BFAB
:1011F00009020CF1080C0B0F04BF09010CF1040CDF
:101200008B0F04BF89000CF1020CCB0F04BF490007
:101210000CF1010CCCF12003A0EB0C0022FA03F33B
:1012200002FA0CF241EA030100F10100704720F0DC
:101230007F4C80EA030023F07F47ACEB070303F504
:101240007C5300F0004003F1FF032DE980494FEA91
:10125000154B09B44FEA144325EA0B4E24EA034820
:101260000FF2042606EB132749083E785FEA3202A4
:1012700003FB0667C7F5000707FB06F64FEA54377E
:101280004FEAD64606F1020607FB066CCCF1005C7D
:101290004FEA1C472CEA074C07FB06F40CFB06F54B
:1012A00004EB15464FEA961634BF00204FF000407D
:1012B0004FEAD13706FB07FC4FEA1C4C0CFB0BF73F
:1012C000D21B03FB0CF761EB07010CFB0EF7B0EB35
:1012D000074072EB17420CFB08F734BFA2EB074242
:1012E000B2EB074261EB17414FEA0C444FEA91071A
:1012F00006FB07FC4FEA1C4C0CFB0BF7B0EBC7409E
:1013000072EB573203FB0CF734BFA2EBC742B2EBD0
:10131000C74261EB57310CFB0EF7B0EBC70072EB25
:1013200057720CFB08F734BFA2EBC702B2EBC7023F
:1013300061EB5771039F4FEA816141EA921104EB1F
:10134000CC044FEAD1374FEA826206FB07FC42EA3F
:1013500090124FEA80604FEA1C4C0CFB0BF7D21B3B
:1013600003FB0CF761EB07010CFB0EF7B0EB07403A
:1013700072EB17420CFB08F734BFA2EB0742B2EB4B
:10138000074261EB17414FEA8C554FEA910704EB96
:101390009C2406FB07FC4FEA1C4C0CFB0BF7B0EB44
:1013A000C74072EB573203FB0CF734BFA2EBC742C6
:1013B000B2EBC74261EB57310CFB0EF7B0EBC70045
:1013C00072EB57720CFB08F734BFA2EBC702B2EB0B
:1013D000C70261EB577115EB4C254FEA816141EA79
:1013E00092114FEA82624FEAD13742EA901206FB2D
:1013F00007FC44F100044FEA80604FEA1C4C0CFBF0
:101400000BF7D21B03FB0CF761EB07010CFB0EF78C
:10141000B0EB074072EB17420CFB08F734BFA2EBAE
:101420000742B2EB074261EB174115EB1C154FEA7F
:10143000813141EA92414FEA823242EA90424FEAD8
:1014400080304FEA0C7644F1000448EA03434EEA48
:101450000B484FF0000EB2EB080C71EB030724BFF2
:10146000624639464EEB0E0E4FF0000B001852410B
:1014700049414BEB0B0BB2EB080C71EB03077BF113
:10148000000B24BF624639464EEB0E0E4FF0000BA8
:101490000018524149414BEB0B0BB2EB080C71EBBE
:1014A00003077BF1000B24BF624639464EEB0E0E5C
:1014B00051EA020718BF46F0010616EB0E7655F109
:1014C000000254F1000103D5BDE88901BDE80088A0
:1014D000BDE88901BDE80048B619524141EB010160
:1014E000A3F10103704780807F7E7D7C7B7A7978D1
:1014F000777676757473727171706F6E6E6D6C6CD9
:101500006B6A6A696868676666656464636362617A
:101510006160605F5F5E5E5D5D5C5C5B5B5A5A59FB
:101520005958585757565655555554545353525267
:101530005251515050504F4F4F4E4E4D4D4D4C4CBF
:101540004C4B4B4B4A4A4A49494948484847474708
:101550004746464645454544444444434343434245
:10156000424242414141002B9C4630D477002BD06F
:101570001CB54FEA370703B44FF010004FF01001CD
:10158000BAF1000F06D0BCF1000FDCBF40F008003C
:1015900040F008014FF000000FBCBDE810400BF117
:1015A000010BBBF1010F08BF5FEA170722BF12F161
:1015B000010211F101014FF0004143F1000300F07D
:1015C000004043EA00007047F9D35708D0E746EAE5
:1015D000064613F1400F4FEA16461FDD13F1200FA8
:1015E000DFBF16430A46002120335B42BED0C3F161
:1015F000200746EA064602FA07F74FEA164646EA89
:101600000706C3F1200722FA03F201FA07F721FACD
:1016100003F14FF0000342EA0702A7E746EA020699
:1016200046EA06464FEA164646EA0106BCBF46EAC7
:101630000646360C4FF000034FF000024FF0000159
:1016400094E72DE9804C9A46934670B491E83800AF
:1016500007C831EA400C48BF34EA430C03D5FFF712
:10166000E6FDFFF780FFF0BCBDE8008C2DE9804C63
:101670009A46934670B491E8380007C810F0804F3E
:1016800008BF13F0804F03D100F005F8FFF76BFFA0
:10169000F0BCBDE8008C20F07F4780EA030023F017
:1016A0007F4C07EB0C03A3F57C5300F00040A3F143
:1016B000FE0392F0000F00F0B38095F0000F00F0F1
:1016C00077802DE901494FEA11404FEA144621EA9B
:1016D000004800FB06FC24EA064708FB06F607FB69
:1016E00008F800FB07F718EB06484CEB164C4FEADE
:1016F000124B18EB07484FEA15464CEB174022EA0D
:101700000B4E0BFB06FC25EA06470EFB06F607FB15
:101710000EFE0BFB07F71EEB064E4CEB164C4FF084
:1017200000061EEB074E4CEB174B18EB0B0840F175
:10173000000018EB0E0B58EB000840F100008F1A68
:101740004FF000013CBFC943661B14BFB5EB040C4E
:1017500000213CBFC943F61B4FEA17444EEA8E0EE8
:1017600027EA04454FEA1C4704FB07622CEA074CB2
:1017700005FB07F70CFB05F604FB0CFC16EB074614
:1017800042EB174216EB0C4642EB1C421BEB0606E3
:1017900058EB0202414146EA9E0601D5BDE80189A7
:1017A000B619524141EB0101A3F10103BDE80189E2
:1017B0004FEA14454FEA114724EA054621EA074C4F
:1017C00005FB07F406FB07F70CFB06F105FB0CFC19
:1017D00011EB074144EB17444FEA124711EB0C4160
:1017E00044EB1C4422EA074C05FB07F206FB07F713
:1017F0000CFB06F605FB0CFC16EB074642EB17420A
:1018000016EB0C4642EB1C456A1854F1000148BF28
:101810007047B619524141EB0101A3F10103704732
:1018200095F0000F37D04FEA11424FEA144721EAF2
:10183000024624EA074C02FB07F106FB07F70CFB04
:1018400006F402FB0CFC14EB074441EB17414FEA92
:10185000154714EB0C4441EB1C4125EA074C02FBF5
:1018600007F506FB07F70CFB06F602FB0CFC16EB74
:10187000074645EB174516EB0C4645EB1C42121983
:1018800051F1000148BF7047B619524141EB0101C7
:10189000A3F1010370474FEA14454FEA114724EAC8
:1018A000054621EA074C05FB07F106FB07F70CFB91
:1018B00006F24FF0000605FB0CFC12EB074241EB71
:1018C000174112EB0C4251EB1C4148BF7047921874
:1018D00041EB0101A3F10103704700002DE9F04144
:1018E00004460E460025206807F065FD074620687F
:1018F00007F059FD074365D02068C16889011CD5F0
:10190000617F012919D1217F012916D101262E4994
:101910000DE08D420AD3E06D40F01000E065206ECE
:1019200040F0010020660120BDE8F0816D1C0268D6
:10193000D2435206EDD440210160244D022E0DD039
:10194000206807F038FD48B120688168C1F3400184
:1019500021B98168294041F010018160012E0DD02C
:10196000206807F020FD48B120688168C1F340017C
:1019700021B98168294041F020018160022E08D000
:10198000032E04D0042505F0B9F9064616E00C250F
:10199000F9E70825F7E705F0B1F9801B05280DD90F
:1019A00020688068284209D0E06D40F01000E065B2
:1019B000206E40F0010020660120B5E720688068B5
:1019C0002842E8D10020AFE7000040A3C0FFFF7F1E
:1019D00010B5846AE16D11F0500F06D0E16DC906B3
:1019E00030D5204604F00EF910BDE06D40F40070D3
:1019F000E06520680168090712D507F0E4FCE8B14A
:101A00002068C068800419D4E06D20F48070E0651F
:101A1000E06DC00412D4E06D40F00100E0650DE01F
:101A2000C06880070AD4E06D20F48070E065E06D46
:101A3000C00403D4E06D40F00100E065204604F0EE
:101A4000C5F810BD616D496BBDE81040084710B581
:101A5000806AC16D41F04001C165016E41F0040131
:101A6000016604F0CFF810BD10B5806A04F0C8F824
:101A700010BD000070B5044620688168C1F34005C0
:101A800007F095FC78B375BB2068816801F00D0103
:101A9000012909D0E06D40F01000E065206E40F0B3
:101AA00001002066012070BD8168124A1140891C26
:101AB000816021680320086005F020F9054613E0E5
:101AC00005F01CF9401B02280ED920688068C00769
:101AD0000AD0E06D40F01000E065206E40F001009B
:101AE0002066012070BD03E020688068C007E7D150
:101AF0000020F7E7C0FFFF7FF8B504460020009004
:101B0000206807F054FC002859D1206881682D4ACC
:101B1000114209D0E06D40F01000E065206E40F009
:101B2000010020660120F8BD8168264E7F3E3140CD
:101B3000491C81602068B0F1A04F02D02249884240
:101B400001D1224800E02248806800F0E0700002E5
:101B500010D5204820490068B0FBF1F0401C00EB94
:101B600040008000009002E00098401E0090009825
:101B70000028F9D105F0C2F805461BE007F017FC74
:101B800020B9206881683140491C816005F0B6F8B1
:101B9000401B02280ED920680068C043C00709D046
:101BA000E06D40F01000E065206E40F0010020661E
:101BB0000120F8BD20680168C943C907DED10020B3
:101BC000F8BD00003F0000800001005000030050FD
:101BD0000007005078000020400D03002DE9F04779
:101BE0008AB00546142105A8FEF75FFE1421684659
:101BF000FEF75BFE05B90125002605AFEA4626E0A3
:101C000002200AF08DFD0024DFF8948008F1140909
:101C1000601D38F8100000F001FA07EB8400D0EDE9
:101C2000000A30EE200A80ED000A39F8140000F0B6
:101C3000F5F90AEB8400D0ED000A30EE200A80EDC1
:101C4000000A641CE4B2052CE2D3761CB6B2AE42A4
:101C5000D6D30021134A02F1140000EE105A07EB0C
:101C60008103B8EE400AD3ED000A02EB810380EE57
:101C7000801A83ED001A00EE105A0AEB8103B8EEC9
:101C8000400AD3ED000A00EB810380EE801A83ED59
:101C9000001A491CC9B20529DFD30AB0BDE8F08794
:101CA000B2390020D001002070B588B020216846EC
:101CB000FEF7FBFD062002907F2003900420049095
:101CC0000020059000240D4D05F1280655F824004C
:101CD000009056F8240001906946094803F036FD4B
:101CE00028B1084AD16A491CD16208B070BD641C91
:101CF000E4B20A2CEAD30020F7E700006CED0008FC
:101D0000A8050020FC00002070B588B0202168469E
:101D1000FEF7CBFD042002907F2103910490002068
:101D2000059000240C4D05F1140655F82400009090
:101D300056F8240001906946084803F007FD28B1D1
:101D4000074A116B491C116308B070BD641CE4B2F2
:101D5000052CEAD30020F7E7BCED000814060020AC
:101D6000FC0000200020104A02F11E0132F8103061
:101D700021F81030401CC0B20A28F7D30A880B485B
:101D800082804A88C2808A880281CA8842810A8900
:101D900082814A89C2818A890282CA8942820A8AE8
:101DA0008282498AC182704794390020FC00002059
:101DB00000200B4A02F11E0132F8103021F81030D9
:101DC000401CC0B20528F7D30A88064802834A8817
:101DD00042838A888283CA88C283098901847047C2
:101DE000A8390020FC00002070EE600AB3EE040A5F
:101DF00021EE001A80EE810A704700002DE9F05FA5
:101E00000024DFF80CB2DFF80CA20BF11E0505F17F
:101E1000140805F1280905F13C0605F150073BF8C7
:101E2000140000F0FBF805EB840080ED000A90ED53
:101E3000000A794800EB8400D0ED000A08EB84002A
:101E400020EE200A80ED000A601D3BF8100000F033
:101E5000E5F809EB840080ED000A6F48143000EBD0
:101E6000840090ED001A0AEB8400D0ED000AFFF721
:101E7000BBFF06EB840080ED000A6548143030F8A3
:101E8000140000F0CBF807EB840080ED000A6248F4
:101E9000283000EB840090ED001A5E48143000EB0F
:101EA0008400D0ED000AFFF79FFF5948823000EB15
:101EB000840080ED000A641CE4B2052CAFD35548C1
:101EC00095ED000AD43880ED0D0A95ED010A80EDFC
:101ED0000E0A95ED020A80ED0F0A95ED030A80EDDA
:101EE000100A95ED040A80ED110A98ED000A80EDC4
:101EF000120A98ED010A80ED130A98ED020A80EDAE
:101F0000140A98ED030A80ED150A98ED040A80ED95
:101F1000160A99ED000A80ED170A99ED010A80ED85
:101F2000180A99ED020A80ED190A99ED030A80ED6D
:101F30001A0A99ED040A80ED1B0A9AED000A80ED59
:101F40001C0A9AED010A80ED1D0A9AED020A80ED45
:101F50001E0A9AED030A80ED1F0A9AED040A8030EA
:101F600080ED000A96ED000A80ED010A96ED010A67
:101F700080ED020A96ED020A80ED030A96ED030A4F
:101F800080ED040A96ED040A80ED050A97ED000A3B
:101F900080ED060A97ED010A80ED070A97ED020A27
:101FA00080ED080A97ED030A80ED090A97ED040A0F
:101FB00080ED0A0A00F1680191ED000A80ED0B0A3C
:101FC00091ED010A80ED0C0A91ED020A80ED0D0AF7
:101FD00091ED030A80ED0E0A91ED040A80ED0F0ADF
:101FE0000B49823191ED000A80ED100A91ED010A52
:101FF00080ED110A91ED020A80ED120A91ED030ABB
:1020000080ED130A91ED040A80ED140ABDE8F09FFB
:10201000B2390020D001002030ED000800EE100A97
:10202000DFED050A9FED051AB8EE400A60EE200AC2
:1020300080EE810A704700003333534000F07F4543
:1020400010B500F019F80B4C2070207808B1012071
:1020500010BD00F035F86070607808B1022010BD46
:1020600000F052F8A070A07808B1032010BD002045
:1020700010BD0000FC00002010B50E4804F08CF8E4
:10208000FFF712FE002808D17F210A4803F05AFA10
:10209000094C18B1E16A491CE16210BD0A220749E6
:1020A000044803F0E1FF0028F7D0E16A491CE1622F
:1020B00010BD0000A8050020FC000020943900207D
:1020C00010B50E4804F068F8FFF71EFE002808D18E
:1020D0007F210A4803F036FA094C18B1216B491CDC
:1020E000216310BD05220749044803F0BDFF002805
:1020F000F7D0216B491C216310BD0000140600209D
:10210000FC000020A8390020054800680168C907C4
:1021100001D00020704700214162014806F0F2B86A
:10212000A00A0020B5EEC00AF1EE10FA01D2B1EE1D
:10213000400A7047F0B50020274B264A03F1C2043D
:1021400003F1CA0503F1D20603F10E0700EB4001CB
:1021500012F831C003F800C002EBC10104EB800C9F
:1021600091ED020A8CED000A91ED010A05EB800C5D
:102170008CED000A91ED030A06EB800C8CED000A51
:10218000098A27F81010401CC0B20228DED30020B4
:10219000124A104BA2F1D001843BA3F5BC74A1F10B
:1021A000B405A1F1C80602EB800797ED000A01EB28
:1021B000800787ED000A03EB800797ED000A04EB28
:1021C000800787ED000A2F5C3754401CC0B20428FA
:1021D000E9D3F0BD443C002002020020AC03002003
:1021E000F8B50446052C43D224488470C17000F130
:1021F000570101250D55224951F82420521C41F860
:1022000024200078002833D1204602F049FC014602
:1022100000292DD019481A4B7F3000F1930200900D
:102220001433204600F064FE0146CA43930704EBD2
:1022300044001ED0124B143313F810300F4E6B367F
:102240003355920617D002220C4B70331A5503F106
:10225000A20212F81030A2F19D06335502EB4000A5
:102260004078983A1055002902D0A2F11400055583
:10227000F8BD0023E2E70022E6E70000F8010020B5
:10228000F03A00202DE9F04F04462DED028B83B08B
:1022900000200190052C04D303B0BDEC028BBDE8F7
:1022A000F08F7B4A14717B4850F824305B1C40F857
:1022B000243002F1840001559470D1702D384FF014
:1022C000010A00F804A046304FF0000800F804802E
:1022D0000A3000F80480401D00F80480FF211938FE
:1022E0000155401D0155002002F5987704EB440B81
:1022F00007EB4B052954401CC0B20628FAD31078CE
:1023000008B10020C8E7204602F0CAFB02900298FC
:1023100098B100269FED608A304602F0C1FB18B1EB
:10232000B0EE480A02F0BBFD761CF6B2052EF3D3E0
:10233000CDF800804FF4FA6104E00020ACE700988B
:10234000401C009000988842F9D35148514BA2306C
:1023500000F18E02009014332046029900F0FAFD3D
:10236000064629463246204600F038FA484A49498E
:102370005FEA000C02F1890201F1140104EB440050
:1023800002F18907A1F1340902F1050307EB4007C7
:1023900001EB400809EB400920D002F11E0000F8D3
:1023A00004A001F1200050F82410491C40F824102A
:1023B000022010551855A2F11901085501F10F001E
:1023C00006550020295C395418F8001009F800104F
:1023D000401CC0B20628F5D300205DE7F0435FEA59
:1023E000807C50D011F81B10294A89321155800683
:1023F0004BD0022026498E310855F00728D001F134
:10240000A20010F81B0001F1050B0BF80400B10746
:1024100003D56A780BF105010A551D4900F0320217
:102420009D310A5500F0D2F9019019488930005DBC
:1024300017496B3108551BF804000A31085501F1A2
:102440002300005D491D0855A1F1140000F804A007
:10245000A6B10020295C395418F8001009F80010C2
:10246000401CC0B20628F5D309487F3006550F300E
:10247000015D1E3801550A3800F804A0029802F0E8
:1024800096FB019808E70021AEE70020B2E70000C4
:10249000F8010020243B0020000000002DE9F84353
:1024A0008946002505281ED2B9F1000F1BD0002453
:1024B0000E49C0EBC00046184FF0FF080127CDF8C9
:1024C00000806A462146484602F0C4FC9DF8001090
:1024D000315518B907FA04F0C0B20543641CE4B2E0
:1024E000062CECD3B571BDE8F8830000460300204C
:1024F0002DE9F84F06460F460025052E5AD2002F2B
:1025000058D00020DFF8B0C006EB46010CEB4108C4
:10251000DFF8A8C000220CEB41090CF11E0C0CEBFB
:10252000810A02240CF13C0CFF230CEB810B08F810
:10253000003009F800402AF810202BF81020401C29
:10254000C0B20628F3D31C48983882550024FF20D7
:1025500000906A462146384602F07CFC09F80400E7
:10256000B7F84C102AF81410B7F84E102BF81410C6
:102570009DF8001008F8041018B90120A040C0B25E
:102580000543641CE4B2062CE1D33F2D09D04FF083
:1025900002000949A1F19301885505D14FF00100CE
:1025A00004E04FF00000F4E74FF000000249A1F111
:1025B00098018855BDE8F88FEC020020583A0020B9
:1025C0002DE9F84FDFF89CB09BF80010002946D1A8
:1025D000DBF82C10411A642941D3CBF82C000025DC
:1025E0004FF0FF09002700201F4AC5EBC5018E18D8
:1025F00006F80090401CC0B20628F9D30020B07144
:1026000018484D30405D08B316485230405DE8B17F
:10261000284602F045FA80465FEA080016D00024FA
:102620004FF0010ACDF800906A462146404602F07C
:1026300011FC9DF80010315518B90AFA04F0C0B227
:102640000743641CE4B2062CECD3B7716D1CEDB2E9
:10265000052DC7D3DBF82000401CCBF82000BDE8D7
:10266000F88F0000F801002069030020002802D044
:102670004FF49C70704740F237107047002801D02B
:102680000220704700207047022801D300207047C5
:10269000054900EB400001EBC000008A08B10020B2
:1026A0007047012070470000443C002070B5254968
:1026B0000A78002A44D18A6A821AB2F5FA7F3FD397
:1026C0008862002401F14D05285D60B31D48523039
:1026D000005D40B3204602F0E3F920B302F00CFAAB
:1026E000014601B32046FFF7CDFDE0B1042C0AD02E
:1026F000012C19D840F23711002000F043FE0020D1
:1027000000F0AAFF18E040F23B163146002000F02E
:1027100039FE3146012000F035FE002000F09CFF1C
:10272000012000F099FF07E04FF49C71012000F0B8
:1027300029FE012000F090FF641CE4B2052CC3D3F5
:1027400070BD0000F80100207047B4EEE00AF1EE21
:1027500010FA02D2B0EE600A7047B4EEC10AF1EE90
:1027600010FAF9DDB0EE410A7047F0B5DDE906C7B1
:10277000059D052813D2002400EB400605EB460515
:102780000CEB460611F804C005F804C012F804C0AA
:1027900006F804C0641CE4B2062CF3D33B54F0BD2D
:1027A00005280DD2084A125C52B100EB40020648DF
:1027B000983000EB4200425CFF2A01D0405C704739
:1027C00001486930405C70475402002000F032003C
:1027D000002801D001207047002070472DE9F0410A
:1027E00007460D46052F05D225B13F2A04D001200A
:1027F000BDE8F0810120FBE72E78FF2E09D00224EE
:1028000021463846FFF7CCFF295D884203D00120DE
:10281000EEE70120ECE7641CE4B2052CF0D916F0D9
:10282000300F01D0687808B10020E1E70120DFE730
:1028300010B50022835C8C5CA34201D0002010BD47
:10284000521CD2B2062AF5D3012010BD10B5DFED1F
:102850003A0A042802D3B0EE600A10BD43088B2167
:10286000364C4B4304EB83010A1DC0070ED001F523
:10287000BA7114F8230058B1D1ED000AF4EEC00A81
:10288000F1EE10FA07DB92ED000A10BDBC31F0E763
:10289000B0EE600A10BDD1ED2D0AF4EEC00AF1EEE3
:1028A00010FA02D892ED2D0A10BD002001EB800332
:1028B000D3ED000A431C01EB830494ED001AB4EE3F
:1028C000E01AF1EE10FA1DD9B4EEE00AF1EE10FABA
:1028D00018DBB4EEC10AF1EE10FA13D830EE600A3C
:1028E00031EE601AC0EE010A411C02EB810102EBDD
:1028F000800091ED001A90ED000A31EE401A01EED1
:10290000200A10BDD8B22D28D0D3012001EB8003BE
:10291000D3ED000AF4EEC00AF1EE10FA05DD401E18
:1029200002EB800090ED000A10BD401CC0B22E28C2
:10293000ECD392ED2D0A10BD00000000243D0020D4
:1029400010B50C480078022801D30A2010BDFFF70B
:1029500095FE09490A5C0AB10A2010BD401CC0B2AC
:10296000085C08B10A2010BD087908B10A2010BD22
:10297000002010BDD30300204F0200202DE9F05F9E
:102980002DED088B002202210C2009F045FF874E17
:10299000706400287ED00021854ABAEE040AF3EE66
:1029A000098A9FED848A002401EB410002F830403F
:1029B00002EBC00044708470C47080ED010AC0ED69
:1029C000028A80ED038A04824461491CC9B202294B
:1029D000EAD30025DFF8D491DFF8D4B109F130094A
:1029E000ABF1840B09F5C27A0BF1B4089FED72AA22
:1029F000DFED72AA9FED72BA9FED729ADFED729AC7
:102A000009F805400AEB8500C0ED008A0BEB850054
:102A1000B0EE481A80ED001A6548743840F8254039
:102A2000103040F8254005EB450000EBC50008EBF1
:102A30008007F0EE4A1AF0EE6A0AB0EE4B0A38460A
:102A400007F04EFBF0EE490AB0EE690A3846F0EEA8
:102A5000601AB0EE401A07F077FB6D1CEDB2042D42
:102A6000CED30020DFF864B1DFF864E10BF13C095C
:102A70004FF0FF0809F1230A4C4966310C545449C0
:102A8000143941F8204049496B310C54491D0C540C
:102A90001E3900E087E00C54233101F80080491D05
:102AA00001F80080491D0C54002100EB40020BEBA3
:102AB00042030EEB420503F801806C54491CC9B275
:102AC0000629F8D339495C310C54491D0C540021B6
:102AD0003E4B3F4D1E3B03EB42073D4BDFF8F0C042
:102AE000AC3B8E3DACF1520C03EB420305EB82058F
:102AF0000CEB820C07F801805C5425F811402CF88F
:102B00001140491CC9B20629F4D33149203141F89A
:102B10002040264984310C54491D0C54491D0C5445
:102B2000491D01F80080491D01F80080491D0C5421
:102B3000491D0C54491D0C542549543141F820407D
:102B4000224966390C540021204B1E3303EB420509
:102B50001F4B343303EB4207C0EBC00303EB090206
:102B6000534405F801807C5402F8018003F8018089
:102B7000491CC9B20629F4D394719C71401CC0B29F
:102B80000528FFF479AFF4623462002000F030F8D9
:102B9000012000F02DF8FFF7CDFA74700020BDEC95
:102BA000088BBDE8F09F01207070F8E7F801002065
:102BB000443C002000000000CDCC4C3E0AD7233C12
:102BC000CDCCCC3D3333B33E3333B3BE0A03002008
:102BD000043B0020792809D07A2807D07B2805D02B
:102BE0007C2803D0842801D0002070470120704742
:102BF00070B5ADF53C7D0646022E2CD200208B210F
:102C0000164D06FB01F405F824004FF43B7101A8B2
:102C1000FDF74BFE01A9304601F040FB00281AD118
:102C2000002101A800EB011205EB840392ED020ADA
:102C300003EB810383ED010A92ED030A83ED2F0A72
:102C400092ED040A83ED5D0A491CC9B22E29E9D32D
:102C5000012005F824000DF53C7D70BD243D0020C9
:102C600002484FF0FF31006809F04CBE44000020DC
:102C700038B50246022910D20A4C606C70B18DF84A
:102C800000208DF8011000231A46694609F002FE63
:102C9000002802D06069401C606138BD6069401C3A
:102CA000606138BDF80100202DE9F05F0546052D73
:102CB00002D30120BDE8F09F37480078DFF8D890B4
:102CC00009F1520909F1050AA9F1050840B10120ED
:102CD00008F8050009F8050000200AF80500E9E7F2
:102CE00018F8050008B10020E4E7284601F0D8FEF6
:102CF000074638000CD00126DFF89CB00BF1480BDA
:102D00000BF80560284601F0D9FE044614B105E031
:102D10000120CFE7284601F086FE04462CB940F694
:102D2000E441384602F01AF904461CB9384601F06D
:102D30003EFF0446BCB121462846FFF751FA38460B
:102D400002F031F9052009F0EBFC761CF6B2032EF7
:102D5000D6D9002C0FD04FF0000008F805000DD197
:102D60004FF001000CE0384602F070F83946284672
:102D7000FFF7BEFBEDE74FF00100EEE74FF000007C
:102D800009F8050002D04FF0010001E04FF000000B
:102D90000AF8050020468DE7F801002038B50E4CF2
:102DA0000EE09DF8010002280AD29DF8001011B132
:102DB000012905D102E000F0AFFB01E000F04CFC7E
:102DC000606C002806D000231A46694609F0EEFC24
:102DD0000028E6D038BD0000F80100202DE9F84FAA
:102DE0002D490A78002A52D1CA6B821AC82A4ED3BA
:102DF000C86300244FF0FF084FF0010A01F1BB093E
:102E000000260020254A04EB440102EB410707F8A5
:102E10000080401CC0B20628F9D31F480021B630FC
:102E2000015509F804A0204601F03AFE83465FEA06
:102E30000B0024D00025CDF800806A46294658466C
:102E400002F008F89DF80010795520B119F8041027
:102E5000012905D006E00AFA05F0C0B2064301E0F8
:102E600009F804006D1CEDB2062DE4D30A48B63013
:102E7000065526B13F2E0CD0022009F80400641C30
:102E8000E4B2052CBCD30448416A491C4162BDE848
:102E9000F88F0020F1E70000F80100208C030020EB
:102EA0002DE9F84F82460E4617460025BAF1000F6D
:102EB00011D000244FF0FF094FF00108CDF8009029
:102EC0006A462146504601F0C5FF9DF80010315575
:102ED000385518B106E00020BDE8F88F08FA04F074
:102EE000C0B20543641CE4B2062CE7D32846F3E7DE
:102EF0002DE9F84F0646DDF828B08A460025052E54
:102F000019D2BAF1000F16D0002406EB46004FF09C
:102F1000FF0903EB400702EB4008CDF800906A463A
:102F20002146504601F096FF38559DF8001008F8EC
:102F3000041018B106E00020BDE8F88F0120A04081
:102F4000C0B20543641CE4B2062CE6D30BF806506D
:102F50002846F1E72DE9FF4F8BB00646904699468B
:102F600033A003C8CDE9090131A003C8CDE90701A9
:102F7000002005900690039004908246002483462A
:102F8000002505AA09A90C98FFF78AFF07463A46CB
:102F900009A93046FFF722FC08B1002433E0BAF15A
:102FA000000F07D009A907A8FFF742FC10B1641C65
:102FB000E4B214E0002009A907AA05AB03AC11F89C
:102FC00000C002F800C013F800C004F800C0401CA4
:102FD000C0B20628F3D34FF0010A0124BB46022CED
:102FE00011D3189802905B4603AA07A9CDE900897E
:102FF0003046FFF7BAFB052E01D20F4884555846DC
:103000000FB0BDE8F08F6D1CEDB2082DB9D3189844
:1030100002903B4605AA09A9CDE900893046FFF791
:10302000A4FB052E01D2044884553846E8E7000089
:10303000FFFFFFFFFFFF0000A40200200A494A79BA
:10304000002A01D0002070478A6B40F2DC53821ABC
:103050009A4201D20020704700F114024A6388634B
:103060000120487170470000F80100202DE9F04F61
:103070002DED028B81B0002000900026DFF8F4B126
:10308000DFED7D8A3046FFF7F9FA0746794906EB0E
:103090004600303911F830201AB101EBC0052A8AF8
:1030A00022B101EBC000C0ED038ABAE0012000901C
:1030B0000020A8703C4607F1010909F0FF0A9BE0D7
:1030C0006E48015D00297DD00021015509F036FBD5
:1030D000684B643B53F82420811A71B16AB100EE49
:1030E000101AB8EE400ADFED660AA3F1740101EB95
:1030F000840180EE801A81ED001A43F82400DFF885
:103100007481A8F1940858F82400D8B109F016FB8E
:1031100058F82410401A00EE100AB8EE400ADFED0D
:10312000590A20EE200AB7EE001ADFED570AFFF722
:103130000CFB04EB440000EBC4000BEB800080EDC3
:103140000A0A09E09FED510A04EB440000EBC400B9
:103150000BEB800080ED0A0A09F0F0FA48F8240031
:1031600004EB440000EBC4000BEB800095ED010A7A
:10317000804606F0F4FF95ED010A2046FFF766FB56
:10318000B0EE408A424800EB840090ED000A4046D1
:1031900006F04AFFF1EE400A9FED3E1A38EE200A93
:1031A000DFED3D0AFFF7D1FAB0EE408AB0EE480AF3
:1031B000FEF7B8FF10EE100A3849884201DAB0EE87
:1031C000688A00E016E02B48B43800EB840080EDFC
:1031D000008AB0EE480A204600F0FCF850B13046B4
:1031E000FFF744FA0146304600F0CCF8304600F0D4
:1031F00033FA04E0641CE4B2A245BFF461AF1D4899
:10320000B43800EB870100EB890091ED000AD0EDA6
:10321000000A30EE200AF6EE000A20EE200A85EDC4
:10322000030A761CF6B2022EFFF42CAF0098002899
:103230001BD004209FED1A0A00F0CCF8002814D00F
:1032400040F23B142146002000F09CF8214601206A
:1032500000F098F8002000F0FFF901B00120BDEC6B
:10326000028BBDE8F04F00F0F7B901B0BDEC028B66
:10327000BDE8F08F743C0020000000002802002010
:1032800000007A446F12833A0AD7A33CCDCC4C3D60
:10329000AC0300203333B33E3333B3BE6F12833AF3
:1032A000CDCC4C3E2DE9F05F83462DED028B002501
:1032B0009FED228A0027224B05EB450103EBC1005D
:1032C000028A9AB342698AB3ABEB020241F28834B4
:1032D000A2422BD303F8317047708770C77080ED1E
:1032E000038A2846FFF7CAF90446DFF85480401CD9
:1032F00008F13008DFF84C90A8F1B40AC6B20FE02C
:1033000004EB440000EBC40008EB800006F00EFF65
:1033100009F804700AEB840080ED008A641CE4B2B2
:10332000A642EDD20021284600F02CF86D1CEDB22B
:10333000022DC0D3BDEC028BBDE8F09F0000000061
:10334000443C00202802002010B50B494A79002A8D
:1033500011D04A6B801AB0F1004F0CD20020487196
:10336000064805F08DFCBDE810404FF4807204491A
:10337000024805F0DDBB10BDF8010020EC0A00207A
:103380007904002070B506460C46022E1CD20F4967
:1033900006EB460001EBC00534B1288AA04203D0F9
:1033A00009F0CCF9686102E00CB9002068612C8258
:1033B000074820F816402046FFF70CFC002803D1F0
:1033C0000349FF200A39885570BD0000443C0020A5
:1033D000100200202DE9F04105462DED028BB0EEE4
:1033E000408A052D04D30120BDEC028BBDE8F0819D
:1033F0002F48007808B10020F6E7B0EE480AFEF743
:1034000091FE10EE100A2A4E2A495236884201DAFD
:10341000705D68B1284601F043FB0746380009D0CB
:103420002846FFF741FC0028DED1705D20B131E075
:103430000020D9E70120D7E7384601F00FFE044607
:103440004FF000083CB106F8058021462846FEF7FB
:10345000C7FE2046C8E7284601F0E5FA04462CB925
:1034600040F6E441384601F079FD04461CB938467F
:1034700001F09DFB044614B9384601F0E7FC3CB16D
:1034800006F8058021462846FEF7AAFE2046ABE74F
:1034900001207055B0EE480A384601F000FD0446A0
:1034A0001CB121462846FEF79BFE20469CE7000003
:1034B000F80100206F12833A04480178002902D1F4
:1034C000007E002800D0012070470000443C00200E
:1034D00070B50546052D19D20D480078002815D184
:1034E000284601F0DDFA0446002C0FD020469FED5F
:1034F000090A01F0D4FC21462846FEF7CFFF2046FA
:1035000001F051FD024900205231485570BD0000C4
:10351000F8010020000000002DE9F0470646022EC9
:103520007DD23046FFF7B0F848B13046FFF7A6F835
:10353000044625462046FFF7B7FB28B109E0304690
:10354000BDE8F04700F088B8601CC5B2C0B2FFF714
:10355000ABFB18B904250420FFF7A6FBF8B1042D36
:103560000BD03046FFF782F801463046FFF70AFFDE
:103570003046BDE8F04700F06FB840F23B142146FA
:103580000020FFF7FFFE21460120FFF7FBFE002091
:1035900000F062F8BDE8F047012000F05DB804EBF0
:1035A0004400DFF8A48000EBC40008EB8007384635
:1035B00006F0BCFD651C05EB450000EBC50008EB03
:1035C0008000824606F0B2FDDFF87C9006EB4608EC
:1035D000A9F1300909EBC806384696ED010A06F054
:1035E000BEFD96ED010A504606F0B9FD174951F8A7
:1035F0002420A9F1740040F8242051F8251040F847
:10360000251009F09BF8A9F1640141F8240041F864
:1036100025000F49002008552144487000E010E0C3
:10362000A9F184019FED0B0A01EB840282ED000AEF
:1036300001EB850181ED000AB070012009F8380026
:103640007070BDE8F0870000743C0020200400206A
:1036500028020020000000002DE9F04105462DED74
:10366000028B022D53D22846FFF708F804462A4958
:1036700005EB4500002601F8306001EBC000467004
:1036800086709FED268A80ED038A04EB440000EBF0
:10369000C40001F1300707EB800006F047FD601C15
:1036A000054600EB400101EBC00007EB800006F08F
:1036B0003DFD1B490E5508194670A7F1B40101EBF9
:1036C000840080ED008A01EB850080ED008AB0EE79
:1036D000480A2046FFF77EFEE8B2B0EE480AFFF740
:1036E00079FE2046FFF7F4FEE8B2FFF7F1FEFFF7A0
:1036F000E3FE00280BD1B0EE480A0420FFF76AFE73
:10370000BDEC028B0420BDE8F041FFF7E1BEBDEC4B
:10371000028BBDE8F0810000443C00200000000066
:10372000280200202DE9F05F06462DED028BFFF701
:1037300097FADFF8E08198F806004FF0000A4FF0A2
:10374000010900287ED098F80800DFF8CCB1E8BB6A
:1037500000249FED728A204601F0B0F9054628004A
:1037600003D1204601F05FF90546C5B9204601F0B6
:1037700097F90746380012D040F6E44101F0EEFB1D
:10378000384601F014FA384601F060FB394620460D
:10379000FEF7AEFE042C02D0384601F004FC002DEA
:1037A00015D04FF000005B4901F1B10108555A48AE
:1037B000A0F1840000EB840080ED008A88F807A067
:1037C0004BF8246006D14FF0010005E01AE04FF0FD
:1037D0000100E8E74FF000004E4901F14D010855A6
:1037E00001D1042C13D000204A4952310855481DFC
:1037F00000F804A0641CE4B2052CACD388F808904F
:1038000088F8079098F80700012802D075E0012099
:10381000EAE704203F49B1310979A9B301F040F941
:1038200090B3DBF81010711AB1F5FA6F2CD3CBF806
:1038300010603949843991ED040A3649C03191F953
:10384000042000E02AE000EE902A9FED351AF8EE01
:10385000E00A00EE810A334B10EE102A9A4204DB94
:103860009FED310AFF220A7108E010EE102A2F4B5B
:103870009A4203D39FED2E0A81F804902649843999
:1038800081ED040A01F00BFB3046FEF70FFF3046D6
:10389000FEF796FE3046FFF7A1FA2EE0254C207881
:1038A00060B188F809903046FEF700FFFFF748F84E
:1038B00008B100F0B9FB304600F042FE2078E0B9D4
:1038C00098F8090038B188F809A00020FFF790F9AE
:1038D0000120FFF78DF93046FFF736FDFFF75EFA5E
:1038E000304600F091F8FEF72FFF3046FEF7DEFE7F
:1038F0003046FFF7D7FCFFF7B9FBFEF71BFCD8F803
:103900001000401CC8F81000BDEC028BBDE8F05F51
:1039100000F03CB8F8010020303C0020000000001E
:10392000CDCC4C3D3333B33E3333B33E3333B3BEF0
:103930003333B3BED0030020042801D300207047E6
:10394000095C09B10020704752F8201029B10549DF
:10395000085C1E2803D30020704700207047012018
:103960007047000038020020002807D0012807D047
:10397000022807D0032807D0842070477920704799
:103980007A2070477B2070477C2070470148006890
:1039900009F032B8440000202DE9FE43074688466E
:1039A000002F2CD0FFF75CF90021164801AD6E46C0
:1039B00001EB410200EBC20305EB810293ED020A29
:1039C00082ED000A1A8A26F81120491CC9B2022980
:1039D000EED3FFF7DBFF002405EB8400424690EDB9
:1039E000000A2146384608F0D1F836F8142021465E
:1039F000384608F03FF8641CE4B2022CECD3BDE872
:103A0000FE830000443C00202DE9F14F8EB00020E1
:103A1000DFF83CA28F4F0AF1A408A8F130050DF1A0
:103A2000240E0DF10409AAF1100B05F110060AACE1
:103A30000DF1140C884901EB800191ED000A04EBB3
:103A4000800181ED000A8549095C0EF80010844967
:103A500051F820104CF82010824A52F8202049F8E2
:103A600020204AF820104BF8202058F820209142BE
:103A700004D048F8201000223A5404E03A5C1E2A90
:103A800001D2521C3A5455F82020914218D056F8D1
:103A900020300E9AD21A72B16BB100EE102AB8EE35
:103AA000400ADFED710A6A4A80EE801A103202EB9A
:103AB000800282ED001A45F820100E9946F8201079
:103AC000401CC0B20428B5D30025DFF884B10BF147
:103AD000C80B6806060E701CC7B205AA09A93046B5
:103AE0000E9BFFF729FF804605AA09A938460E9BC1
:103AF000FFF722FF8146B8F1000F30D0B9F1000F77
:103B00002DD004EB860090ED000A04EB8700D0ED89
:103B1000000A05EB45000BEBC00A30EE200AF6EE7A
:103B2000000A20EE200A8AED020ABAF81000FFF718
:103B300051F838B14748FF21323841550021284615
:103B4000FFF720FC9AF8030010B1401E8AF803002A
:103B500040483438415D11B1415D491E4155B8F1CD
:103B6000000F1CD004EB860090ED000A3F4800EBEC
:103B7000860080ED000A364905A8543150F8260029
:103B800051F8262090420AD041F826003149012000
:103B90001039885505EB45010BEBC1018870B9F16F
:103BA000000F1CD004EB870090ED000A2F4800EBBB
:103BB000870080ED000A264905A8543150F82700F7
:103BC00051F8272090420AD041F8270021490120CE
:103BD0001039C85505EB45010BEBC101887005EBA9
:103BE00045011BF8310050B3B8F1000F02D0B9F114
:103BF000000F24D1B8F1000F13D038460BEBC108E9
:103C000098F8031003290ED20E98FFF717FAB0B1F7
:103C100098F80300401C88F803000E4934394855D1
:103C20000DE03046EAE70B4932394855FFF79CFE74
:103C300001462846FFF7A6FB2846FFF70DFD6D1C41
:103C4000EDB2022DFFF445AF0FB0BDE8F08F0000DC
:103C50007C3B0020380200201004002005000020DA
:103C6000200400203004002000007A44AC0300202F
:103C70002DE9F04FC5B0054639480078394C002889
:103C800004D00020207145B0BDE8F08F207920B924
:103C90000120207134A000F07DF86069281AB0F589
:103CA0007A7FF0D36561DFF8D4A09AED010A10EEB7
:103CB000100A0AF079FFDFF8C8B004460D469BED04
:103CC000010A10EE100A0AF06FFF06462D480F4653
:103CD00090ED010A10EE100A0AF066FF9AED000A54
:103CE0008046894610EE100A0AF05EFFCDE9120107
:103CF0009BED000A10EE100A0AF056FF824621489A
:103D00008B4690ED000A10EE100A0AF04DFF0A46AD
:103D100001461D48C368D0F808C0D0F804E0006828
:103D2000CDE90FECCDE908890E901848CDE90C4596
:103D3000CDE90A67119343780693DDE912348DE8E3
:103D4000060CCDE904340378114AC02114A8FCF70D
:103D5000BDFB401EBF2896D214A800F01BF892E7C6
:103D6000D0030020240000204150502C4E4F524DD3
:103D7000414C5F53544152540D0A0000D4020020BC
:103D8000CC020020C40200207C3B00200202002064
:103D900068F2000830B40022034600280ED002E08A
:103DA000521C92B25B1C1C78002CF9D1002A05D061
:103DB000014630BC1423024805F054BA30BC7047A9
:103DC000800B002070B5124900200A6850630A6811
:103DD00090630A68D0630A6810640E4C22685063CE
:103DE0000A68D36A5B1C5D080B4B9D609B689364FB
:103DF0002268506209684862204600F00FF80028E7
:103E000004D1BDE87040024800F008B870BD000061
:103E100070090020BC090020240000200168096806
:103E2000C90701D00020704704F06CBAFEE700001B
:103E300030B503464FF6FF700022074C08E09D5C4A
:103E400085EA102534F8155085EA002080B2521C0E
:103E50008A42F4D330BD000098EF00080748806A1A
:103E6000002808D000EE900AB8EE601AC0EE010AF1
:103E7000B0EE600A704700F077B90000D003002070
:103E80002DE9F04FADF5637D8346BBF1010F22D8DC
:103E90005B4636A2802108A8FCF718FB401E7F284D
:103EA00002D208A800F080FC4FF43B7128A8FCF770
:103EB000FCFC28A9584600F0F1F980B100905B465F
:103EC00031A2802108A8FCF701FB401E7F2802D206
:103ED00008A800F069FC0DF5637DBDE8F08FBDF822
:103EE00088039DF8A410CDE900105B4630A2802124
:103EF00008A8FCF7EBFA401E7F2802D208A800F0C1
:103F000053FC00240DF1A00A0AEB041528690AF0FD
:103F10004BFE06460F46E8680AF046FE8046894694
:103F2000A8680AF041FE2A7D8DE803030692234625
:103F3000CDE904672CA2802108A8FCF7C7FA401E2F
:103F40007F2802D208A800F02FFC641CE4B22E2CBB
:103F5000DAD35B462DA2802108A8FCF7B7FA401EF1
:103F60007F28B8D208A800F01FFCB4E743414C49B1
:103F7000422C4C4F41442C43454C4C3A25752C4225
:103F80004547494E0D0A000043414C49422C4C4FD5
:103F900041442C43454C4C3A25752C4E4F545F46BA
:103FA0004F554E442C4552523A25750D0A000000DB
:103FB00043414C49422C4C4F41442C43454C4C3AD4
:103FC00025752C464F554E442C43454C4C5F53545D
:103FD0004F5245443A25752C4352433A30782530A8
:103FE00034580D0A0000000043414C49422C535400
:103FF00045502C25752C252B2E32662C252E31660E
:104000002C252E31662C25750D0A000043414C49A4
:10401000422C4C4F41442C43454C4C3A25752C4581
:104020004E440D0A0000000005490A78002A06D017
:1040300000B90A20C8600520487000204871704708
:10404000D00300202DE9F0432DED028B9FB00446F4
:10405000DFF8089199ED080AFFF700FFB0EE408AFB
:1040600099ED090AFFF7FAFEF0EE401A99F80200FE
:1040700000F056FA3A4999F8020001EB001080ED81
:10408000000A99F8020001EB001080ED018A99F80E
:10409000020001EB0010C0ED021A0CB1012000E09B
:1040A000002099F8022001EB0212107399F8020027
:1040B00001EB0010447399F8020000F031FAF0EEC1
:1040C000408A11EE900A0AF06FFD05460E4618EE82
:1040D000100A0AF069FD0746884618EE900A0AF0B1
:1040E00063FD0CB1012200E0002202ABA3E88301D2
:1040F000CDE90656CDE9082499F80200401C00904D
:1041000099F80330174A50210BA8FCF7DFF9401E3D
:104110004F2802D20BA800F047FB99F80200401C80
:1041200089F8020099F802002E2810D300F052FB03
:1041300048B1C9F80C00052089F801001FB0BDEC9A
:10414000028BBDE8F083042089F80100F6E700F057
:104150006DF8022089F80100F0E70000D00300208C
:104160000C44002024F300080C49C8784006000ED7
:10417000421CD2B20A4B03EB800090ED000A03EB25
:104180008200D0ED000A81ED040AC1ED050A30EE8F
:10419000200AF6EE000A20EE200A7047D003002025
:1041A00010040020002802D04FF400607047002067
:1041B0007047000070B500F067F868B31848408990
:1041C000C838C821B0FBF1F201FB1203154C04EB17
:1041D0008300D0ED000AB0EE601A01201A18B2FB7D
:1041E000F1F501FB152204EB820292ED000AB4EE18
:1041F000E00AF1EE10FA01DDF0EE400AB4EEC10A79
:10420000F1EE10FA01D2B0EE401A401C80B2C8287C
:10421000E4D330EEC10A70BD9FED030A70BD00000B
:10422000D0030020EC46002000C07944094800215A
:104230008161C161817141819FED070A80ED080AAA
:1042400080ED090A8162C1624FF448710348FCF7AE
:104250002CBB0000D003002000000000EC46002032
:104260000749C8784006000E064A52F82000CA6A7C
:10427000904202D0C86201207047002070470000C1
:10428000D00300203004002003484089C82801D30F
:104290000120704700207047D003002070B50C4605
:1042A000FFF780FF3CB14FF43B72214601F07AF8F2
:1042B00018B1022070BD012070BD094920688842F4
:1042C00001D0032070BDB4F8E85240F2EA21204644
:1042D000FFF7AEFD854201D0042070BD002070BD07
:1042E000455349422DE9F04F2DED028BBBB00446FA
:1042F000364E3078002862D0306B201AB0F57A7FC5
:104300005DD33463B0780E900E982E2803D20E98A9
:1043100000F006F901E09FED2E0AF0EE408AFFF76B
:1043200023FFB0EE408AFFF7AFFF10B1FFF742FF67
:1043300001E0BFEE000AB069F0B3221A0D9210EE50
:10434000100A0AF031FC04460D4618EE100A0AF075
:104350002BFC82461D488B4690ED050A10EE100A94
:104360000AF022FC064619480F4690ED040A10EEAA
:10437000100A0AF019FC8046894618EE900A0AF0E5
:1043800013FC06AB0D9AA3E8C00C02ABA3E8030331
:104390000E49CDE90A450C92C9780E98CDE9001076
:1043A0000A4843780B4AB0210FA8FCF78FF8401E4B
:1043B000AF2804D20FA800E006E000F0F5F93BB00A
:1043C000BDEC028BBDE8F08F0022B7E7D0030020E0
:1043D000000000006CF30008074AC8215089B0FBB8
:1043E000F1F301FB1301054B03EB810181ED000AA1
:1043F000401C508170470000D0030020EC46002094
:1044000010B52DED028B0E49887800F089F8B0EEDA
:10441000408AC8784006040EB0EE480A2046FEF7EF
:10442000D9FF641CE0B2B0EE480AFEF7D3FFBDEC42
:10443000028B0420BDE810409FED020AFEF7CABFC0
:10444000D0030020CDCC4C3E10B58AB00446012CE0
:1044500005D90AB01AA0BDE8104000F0A5B920495E
:10446000087838B10220C8600AB01EA0BDE810402C
:1044700000F09AB9CC7000228A70CA60012048709E
:104480000870487108719FED1E0A81ED040A81EDE4
:10449000050A0A63CA710A724A724FF438711948E0
:1044A000FCF703FA234618A228216846FCF70EF809
:1044B000401E272802D2684600F076F90AB010BDE7
:1044C00043414C49422C53544152545F52454A4552
:1044D00043542C4241445F43454C4C0D0A000000BC
:1044E000D003002043414C49422C53544152545F65
:1044F00052454A4543542C4143544956450D0A0000
:10450000000000000C44002043414C49422C53540D
:104510004152542C43454C4C3A25750D0A0000007D
:1045200000EE100A9FED041AF8EE400A9FED030A10
:1045300000EE810A704700000AD7A3BC6666E63E1B
:104540002DE9F0412DED028B94B005462846FFF78A
:10455000C9FE6F4C6078002601279FED6E8A062801
:1045600016D2DFE800F015031A3783AC00F0D2FE54
:10457000FFF75CFEE37868A228210AA8FBF7A6FFF4
:10458000401E272802D20AA800F00EF9022060700F
:1045900014B0BDEC028BBDE8F081FFF731FFA561DF
:1045A000A078FFF7BDFF10EE100A0AF0FDFACDE982
:1045B0000201A0780090E3785DA2402104A8FBF7F7
:1045C00085FF401E3F2802D204A800F0EDF803202A
:1045D0006070DDE7A069281A6149884207D314B0EA
:1045E0000020BDEC028BBDE8F041FFF72BBDFFF7CB
:1045F00037FE0028CCD0FFF7B7FDFFF7EDFEFFF741
:1046000043FE0028C4D0FFF7D5FD10EE100A55492F
:10461000884229DAA07930B9A771E56184ED088A6A
:1046200084ED098AA66294ED080AD4ED040A30EEFE
:10463000200A84ED080A94ED090AD4ED050A30EE4B
:10464000200A84ED090AA06A401CA062E06942F2D7
:104650001071281A88429BD314B00120BDEC028B44
:10466000BDE8F041FFF7EEBCA67191E794F8038036
:104670004FEA4860050EB0EE480A2846FEF7AAFE4B
:104680006D1CE8B2B0EE480AFEF7A4FEB0EE480A90
:104690000420FEF79FFEE07970B9E7712E200090AC
:1046A000434631A2302108A8FBF710FF401E2F28F7
:1046B00002D208A800F078F82670667168E794F8CE
:1046C00003804FEA4860050EB0EE480A2846FEF720
:1046D00081FE6D1CE8B2B0EE480AFEF77BFEB0EE3C
:1046E000480A0420FEF776FE207A70B92772E06847
:1046F0000090434624A2302108A8FBF7E7FE401EA5
:104700002F2802D208A800F04FF8267066713FE704
:10471000D00300200000000043414C49422C494E88
:1047200049542C43454C4C3A25750D0A00000000B5
:1047300043414C49422C535445505F5354415254C9
:104740002C43454C4C3A25752C535445503A25750D
:104750002C445554593A252B2E32660D0A00000080
:10476000C0270900CDCCCC3D43414C49422C444F9D
:104770004E452C43454C4C3A25752C5354455053CB
:104780003A25750D0A00000043414C49422C464130
:10479000554C542C43454C4C3A25752C4552524FA0
:1047A000523A256C750D0A0030B40022034602E02F
:1047B000521C92B25B1C1C78002CF9D1002A05D047
:1047C000014630BC1423024804F04CBD30BC704795
:1047D000800B0020F0B5ADF53B7D4FF43B752946CD
:1047E0006846FCF762F820480090204EF0788DF87B
:1047F000040000201E496A4601EB001302EB00147E
:1048000093ED000A84ED020A93ED010A84ED030A98
:1048100093ED020A84ED040A1F7B27755B7B6375A9
:10482000401CC0B22E28E7D340F2EA216846FFF7C9
:10483000FFFAADF8E802F078FFF7B4FC0646EFF3B4
:10484000108472B6C6F3C72000F04CFD20B92A468A
:104850006946304600F0C8FD84F310880028FFD177
:104860000DF53B7DF0BD000045534942D0030020CB
:104870000C4400202DE9F04707F060FF05460024B6
:10488000DFF880A0DFF880800AF11809E0B205F0B7
:10489000F5FC0746062F2FD01C482044807D20B30E
:1048A0005AF8240000B32E1AB6F5FA6F0BD318F895
:1048B000040040B92B4602223946154806F040FF55
:1048C000012008F80400B6F5FA7F15D359F8240042
:1048D00010B1281A96280FD32B46012239460C48CE
:1048E00006F02EFF49F8245006E000204AF8240084
:1048F00049F8240008F80400641C062CC6DBBDE857
:10490000F0870000400400201C000020D04300205D
:104910003443002010B504462DED028BB0EE408AE2
:10492000022C0ED2FEF79CF9074904EB440001EB80
:10493000C00080ED018ABDEC028BBDE81040FFF79E
:1049400025B8BDEC028B10BD443C00200146002080
:10495000FEF78EB901460120FEF78AB9014801F041
:10496000C6BE0000E0060020014801F0C0BE000005
:10497000140C0020014801F0BABE0000800600209F
:104980000D4902688A4201D20C4901E00B492031ED
:10499000D2B2083A1423B2FBF3F2436C23F00303C0
:1049A0001944816405498031C16402F01F0201216C
:1049B0009140016570470000080402400008024071
:1049C0000179074A491E02EB81024265044A4032DE
:1049D000826501F01F0201219140C165704700000E
:1049E0000009024030B5D0E913546C60446D002CCE
:1049F00002D0D0E916546C6090F8444004F01F05D2
:104A00000124AC40056C6C60046863608368102B03
:104A100004D0036899600068C26030BD03689A6082
:104A20000068C16030BD10B586B000F039F80446AA
:104A30008CB1204600F012FB00280AD1684600F035
:104A400028F99DE8070003AB07C303A9204600F03F
:104A5000C2F806B010BD0120FBE7000010B50E4CF7
:104A600001220421204602F042F9012210212046B1
:104A700002F03DF901224021204602F038F90122DE
:104A80008021204602F033F90122BDE81040402188
:104A9000024802F02CB90000000C00480004004855
:104AA000052801D30020704700EB400101EBC00056
:104AB000014901EBC00070477C41002010B504465D
:104AC000052C01D3012010BDFFF7C8FF04EB440003
:104AD000074900EB041001EB800104EB440000EBFC
:104AE000C400044ABDE8104002EBC00000F00EB95B
:104AF000E4ED00087C4100202DE9F84304462046FF
:104B000000F084F938B1206B002738B300264FF04D
:104B1000050800251CE00120BDE8F883A18E206B6C
:104B200002F0D6F894F84A1009B118B10020012813
:104B300002D003E00120FAE7761CF6B2009702E00B
:104B40000098401C009000983228F9D36D1CEDB2FB
:104B50004545E3D3464501D10420DDE7A06B20B3F2
:104B600000264FF00508002519E0A18FA06B02F088
:104B7000AFF894F84A1009B118B10020012802D00A
:104B800003E00120FAE7761CF6B2009702E00098F5
:104B9000401C009000983228F9D36D1CEDB24545B9
:104BA000E3D3464501D10520B6E70020B4E710B5B0
:104BB000044601220221204600F067FA002809D1AC
:104BC000012001F0A3FE20460022BDE81040022192
:104BD00000F05BBA10BD70B505460C46002C4CD0F9
:104BE000284600F037FA002848D120788007000EC8
:104BF000617809B140F02000A17801F0030140EA9A
:104C0000C100E17801F00702024320794007400E1D
:104C1000A17909B140F08000617901F00F060643E7
:104C2000E0798007000E217A09B140F02000617A16
:104C300001F0030140EAC100A17A09B140F004008B
:104C4000E17A01F0030404430321284600F01DFA31
:104C5000002813D132460421284600F016FA002815
:104C60000CD122460521284600F00FFA002805D174
:104C70002846BDE87040FFF79ABF012070BD818BC8
:104C80008069012202F033B8818B8069002202F032
:104C90002EB80EB503218DF8001000218DF80110FB
:104CA0008DF8021007228DF803208DF804208DF86E
:104CB00005108DF806108DF807108DF808108DF886
:104CC00009108DF80A1001218DF80B100099016070
:104CD00001994160029981600EBD000010B54168E4
:104CE0000968CC6A90ED111ADFED070A00F09EF812
:104CF000641C00EE904AF8EE600A20EE800ABCEEDA
:104D0000C00A10EE100A10BD0000000070B5044685
:104D10000D46002C0CD05DB158212046FBF7C5FD97
:104D20004C2229462046FBF786FDE08F10B103E0B8
:104D3000012070BD0A20E087B4F8400010B90220BD
:104D4000A4F84000B4F8420018B940F6E440A4F8D2
:104D5000420094ED110AB5EEC00AF1EE10FA03D844
:104D60009FED080A84ED110A204600F04FF838B193
:104D7000012084F856002046BDE8704000F004B8D9
:104D8000012070BD3333733F10B50446204600F058
:104D90003DF898B12046FFF772FFA18D0022A06A6E
:104DA00001F0A5FFA18C0022206A01F0A0FFD4E948
:104DB000010103F0D5FD18B1032010BD012010BD85
:104DC0000021204600F0B1F894F8480080B1E06876
:104DD00028B1216901F0D6FB18B1032010BD0120D4
:104DE00010BD0021204600F0B9F808B1032010BD25
:104DF00094F8490040B1606920B102F05BF918B144
:104E0000032010BD012010BD002010BD00280BD0D4
:104E1000016849B1416839B1816929B1016A19B1A3
:104E2000806A08B10120704700207047B4EEC10AC3
:104E3000F1EE10FA02DDB0EE410A7047B4EEE00A7E
:104E4000F1EE10FAF9D2B0EE600A7047302202217A
:104E500000F01BB9F8B506460C4615460020009038
:104E6000002D01D00F2C01D90120F8BD04F00F0056
:104E70004FF4004141EAC0216A46304600F0A6F8EE
:104E800010B1FF212970F8BDBDF80000C0B2287034
:104E9000062C02D2311981F850000020F8BD10B55F
:104EA00004462DED028BB0EE408A2046FFF7AEFFA0
:104EB000E8B194ED111AB0EE480AF1EE410AFFF79D
:104EC000B5FFB0EE408AB5EEC08AF1EE10FA12DD01
:104ED000A18D0122A06A01F00AFFB0EE480A204627
:104EE000FFF7FCFE0146204600F01FF81BE0012002
:104EF000BDEC028B10BDB5EEC08AF1EE10FA0ED2F9
:104F0000A18D0022A06A01F0F2FEB1EE480A20460F
:104F1000FFF7E4FE0146204600F007F803E0002119
:104F2000204600F002F80020E2E782684068002A8C
:104F3000006809D0042A09D0082A09D00C2A09D00F
:104F4000102A09D0C164704741637047816370477C
:104F5000C1637047016470478164704770B504464F
:104F60000E462046FFF752FFA8B194F84800A0B1C2
:104F7000E068A0B1B4F842508DB1B54200D22E46DF
:104F8000C6EB0631B1FBF5F30022216901F0DCFA32
:104F900038B1032070BD012070BD002070BD01201C
:104FA00070BD002070BD10B504462046FFF72EFFEF
:104FB00050B100212046FFF7B8FFA18C0022206AE3
:104FC00001F095FE002010BD012010BDFEB5044685
:104FD0000D4617462046FFF719FFA8B1A7B1280ACA
:104FE0008DF808008DF8095000268DF804608DF8C2
:104FF00005602046FFF743FE012001F087FC2046B4
:10500000FFF742FE009604E00120FEBD0098401C20
:10501000009000980A28F9D3E08F0090022301AA9B
:1050200002A9206802F006FF06462046FFF727FE89
:10503000012001F06BFC24F84C5F9DF805009DF801
:10504000041040EA0120608038800EB10220FEBDCD
:105050000020FEBD1822022100F017B810B504464A
:105060002046FFF7D3FE70B100212046FFF75DFF19
:10507000A18C0122206A01F03AFEB4F8400001F050
:1050800045FC002010BD012010BDF8B506460C46B9
:105090001546002000900F2C01D90120F8BD04F026
:1050A0000F0045EAC0216A463046FFF78FFF00280F
:1050B000F4D1062CF2D2311981F85050F8BD704766
:1050C00072B6FEE7144A107F1449012801D0032864
:1050D0000FD10B6823F400730B600B6843F400637B
:1050E0000B600B6823F400630B600B6843F40073E0
:1050F0000B60022801D003280BD1086840F48050CF
:105100000860086820F480500860086840F48060F7
:1051100008600020107770475800002000200240EF
:105120000D490A6A52020CD5C20703D04A6942F0FF
:1051300004024A61800709D5486940F4004048618B
:1051400004E0486948F2040210434861486940F4A9
:10515000803048617047000000200240114A136A05
:105160005B0204D4516921F4006151610AE0C9076E
:1051700004D0516921F40061516103E0516941F4A7
:10518000006151615169C0B221F47E7141EAC000F1
:105190005061506940F002005061506940F4803025
:1051A000506170470020024010B505494C6944F039
:1051B00001044C610260BFF36F8F436010BD0000BB
:1051C0000020024010B54022084B5C6944F4802462
:1051D0005C61EFF3108372B610C910C0521ED2B2D8
:1051E000002AF9D183F3108810BD0000002002408E
:1051F00070B5054601F082FD0646154C06E001F04B
:105200007DFD801BA84201D9032070BD2069C00329
:10521000F5D420694CF2FA31084088B10D494A684A
:1052200002434A60010F04D0A16900F070421143AB
:10523000A161010102D020F070402061012070BD09
:105240002069C00701D001202061002070BD00004E
:105250000020024058000020F0B585B01E49096AC0
:105260004A02A0F100614FEAD12120D51B4D4FF633
:10527000FF764FF400222C88B44201D1134602E09D
:105280002B881B049B094FF0006707EB53038342F5
:105290000BD8B44202D0298809048A09A0EB520035
:1052A000A0F10060C10A022002E0012000E001201C
:1052B000002201920391012104910290694601A804
:1052C00001F036FB10B1032005B0F0BD0448416881
:1052D000491C41600020F7E700200240E075FF1FF5
:1052E0000404002010B5042803D3094901200870E4
:1052F00010BD00F047F8044600F00CF80028F7D184
:105300002046FFF7A9FFBDE8104000F027B80000D5
:105310000404002010B509480069094CC043C003CB
:1053200002D40520207010BD01F0E6FB10B1022070
:10533000207010BD0020207010BD00000020024031
:1053400004040020002205E0835CFF2B01D0002034
:105350007047521C8A42F7D30120704770B504464B
:10536000054D2C7001F060FB00B10CB1204670BD02
:105370000620287070BD000004040020C0F3C72080
:10538000704700000149C0024018704700E007085C
:1053900010B50146002001F055FB08B1042010BDF6
:1053A000002010BD70B50D4601210D4C002D06D01A
:1053B0002AB1B0F5005F05D32170012070BD2170C6
:1053C000012070BDC0F50053934200D21A46054932
:1053D000002641182846FBF7E9F92670002070BD29
:1053E0000404002000E007082DE9FC5F05460F4695
:1053F0000120DFF844A1002F07D032B1B5F5005FDE
:1054000007D38AF80000BDE8FC9F8AF8000001205D
:10541000F9E7C5F50050904200D2024625F0070496
:1054200005EB020808F1070020F00709FFF772FFFB
:105430000028E8D1FF2672E02046FFF79FFF834651
:10544000B34512D05846FFF79DFF06464FF4006162
:105450003046FFF777FF38B93046FFF7FDFE18B149
:10546000BDE8FC5FFFF77ABF5E465846FFF78AFF4C
:10547000CBF1000104EBC12100EB010C00216A46D5
:105480006018A84204D22D4BC0180078505418E080
:10549000804503D9401B385C505412E0DFF89CB0C3
:1054A000002310EB0B00DFF898B043F10003B0EBE2
:1054B0000B0B73F1000302D20078505401E0FF207F
:1054C0005054491C0829DBD39DF801009DF80020A9
:1054D0009DF80210030E42EA002242EA014243EA2A
:1054E00011439DF803109DF8040043EA1123034380
:1054F0009DF8050042EA016243EA00239DF8060098
:1055000043EA00439DF8070043EA00636046FFF763
:105510003FFF18B1BDE8FC5FFFF720BF08344C45E2
:105520008AD3DAF80800401CCAF80800BDE8FC5F1E
:105530000020FFF713BF00000404002000E007086C
:10554000FFFF0708F8B504460E460025009594F8BD
:105550005800012810D0012084F858002046FCF79C
:1055600089FA0346180009D0E06D40F01000E065AC
:1055700084F858501846F8BD0220F8BDE06D20F4BC
:10558000885040F00200E06520688168124A1140AE
:1055900006F08042114341F0004181600F492068CC
:1055A0000FE0009A521C0092009A8A4209D3E06DE3
:1055B00020F0020040F01000E06584F8585001200F
:1055C000F8BD8268D20F002AEBD1E06D20F0020016
:1055D00040F00100E065CBE7C0FFFF3F02DE0400C2
:1055E0002DE9F04F9DB004460D464FF0000A94F8A7
:1055F0005800012811D0012084F85800002719977D
:105600001A9720684FF0A04BDFF82881DFF8289127
:105610004A4E584505D1029609E002201DB0BDE86A
:10562000F08F404502D1CDF8089000E00297029833
:1056300040B1029803F0C3FE0190206803F0BFFE62
:1056400040B109E0E06D40F02000E06584F858705A
:105650000120E3E7019848B1E06D40F02000E065EB
:105660004FF0010A84F858705046D7E72068584533
:1056700001D0B04201D1324800E03248324B2968B3
:1056800040F61F7281B3816894F838C021F46041FC
:1056900041EA4C31D5F804C041EA0C01816021682F
:1056A000594501D0B14208D1DBF80810C1F300011F
:1056B000B368C3F3000319430CE0D8F80810C1F332
:1056C0000001D9F80860C6F3000631439B68C3F3B4
:1056D000000319430029C5D1AB68296819438368C1
:1056E000934319438160BDE7FFE7816821F460417E
:1056F00081602168594501D0B14208D1DBF808101A
:10570000C1F30001B368C3F3000319430CE0D8F8F8
:105710000810C1F30001D9F80850C5F3000529436A
:105720009B68C3F30003194300299BD1816891430F
:10573000816097E700040050000500500001005010
:105740000003005000070050000600502DE9F84FFC
:1057500004460D46002600270097DFF8349494F89D
:105760005800012811D04FF0010884F858802068B3
:1057700003F021FE58B1E06D40F02000E065012605
:1057800084F858703046BDE8F88F0220FBE7A988FE
:1057900020682A6801F4407300EB9310036B01F05A
:1057A0001F014FF01F0C0CFA01FCC2F3846223EAC4
:1057B0000C038A4013430363206803F0FCFD824618
:1057C000206803F0F0FD5AEA000A3CD1AA68B2F161
:1057D000004F39D02968206803F0FDFD2068416939
:1057E00021F00041416120686A69C168C1F3C101CB
:1057F00049008A402969042934D02B6800EB8100D4
:10580000016EDFF890C303F0F84301EA0C01134383
:10581000194341F00041016620682A69A96900EB3B
:105820008200026E22F080720A430266297F20689D
:105830002A69012913D0002100EB8200026E22F0B8
:1058400000720A4302667CE029680022206803F0A7
:10585000C2FD2068416941F000414161C3E74FF05A
:105860000071E9E7002103F098FD40036ED00021AC
:10587000206803F092FD90FAA0F0B0FA80F1286859
:1058800042036AD090FAA0F0B0FA80F0814204D1CD
:1058900000221146206803F0ADFD0121206803F0CD
:1058A0007CFD40035CD00121206803F076FD90FA76
:1058B000A0F0B0FA80F12868420358D090FAA0F026
:1058C000B0FA80F0814204D100220121206803F067
:1058D00091FD0221206803F060FD40034AD00221BF
:1058E000206803F05AFD90FAA0F0B0FA80F1286821
:1058F000420346D090FAA0F0B0FA80F0814204D181
:1059000000220221206803F075FD0321206803F0C6
:1059100044FD400338D00321206803F03EFD90FA97
:10592000A0F0B0FA80F12868420334D090FAA0F0D9
:10593000B0FA80F0814204D100220321206803F0F4
:1059400059FD206803F033FD40B3B0E0002120682A
:1059500003F023FDC0F3846191E7C0F3846095E711
:105960000121206803F019FDC0F38461A3E7C0F3AF
:105970008460A7E70221206803F00FFDC0F3846173
:10598000B5E7C0F38460B9E70321206803F005FDA3
:10599000C0F38461C7E7C0F38460CBE720682A7B4B
:1059A000296850F8B03FC1F3120C23EA0C0302F04F
:1059B000180C794A22FA0CF20A4013430360E86893
:1059C000484574D12868410319D090FAA0F1B1FA82
:1059D00081F1491C01F01F01092931D84103002937
:1059E00010D090FAA0F1B1FA81F101F1010101F0BA
:1059F0001F0108FA01F808D1C0F3846109E0C0F37F
:105A00008461E6E7C0F38461EFE790FAA0F1B1FAB0
:105A100081F101F1010101F01F0148EA816102D128
:105A2000C0F3846003E090FAA0F0B0FA80F000F1D7
:105A3000010000F01F0000EB400041EA005132E09D
:105A40004FEA403100290DD090FAA0F1B1FA81F16E
:105A500001F1010101F01F0108FA01F805D1C0F3BD
:105A6000846106E0C0F38461F2E790FAA0F1B1FA34
:105A700081F101F1010101F01F0148EA816102D1C8
:105A8000C0F3846003E090FAA0F0B0FA80F000F177
:105A9000010000F01F00A0F10A0000EB400041EA05
:105AA000005040F00071AA68206803F094FC3B4865
:105AB0002A6802423FF464AE20684FF0A048384B99
:105AC000DFF8E0C0384D404501D0A84201D1194669
:105AD00000E06146896801F0E071DFF8D0904A4546
