:020000040800F2
:10000000E0E700209D03000891BD0008F1AF000863
:100010008DBD0008EB46000879E7000800000000ED
:10002000000000000000000000000000DD020008E9
:10003000915E0008000000003903000839C800087C
:10004000B7030008B7030008B7030008B7030008A8
:10005000B7030008B7030008B7030008B703000898
:10006000B7030008B7030008B70300085D5600088F
:100070006D5600087D560008B7030008B703000856
:10008000B7030008B7030008B7030008B703000868
:10009000B7030008B7030008B7030008B703000858
:1000A000B7030008B7030008B7030008B703000848
:1000B000B7030008B7030008B7030008B703000838
:1000C000B7030008B7030008B7030008B703000828
:1000D000B703000869E70008B7030008B703000882
:1000E000B7030008B7030008B7030008B703000808
:1000F000B7030008B7030008B7030008B7030008F8
:10010000B7030008B7030008B7030008B7030008E7
:10011000B7030008B7030008CDC80008B7030008FC
:10012000B7030008B7030008B7030008B7030008C7
:10013000B7030008B7030008B7030008B7030008B7
:10014000B7030008B7030008B7030008B7030008A7
:10015000B7030008B7030008B7030008B703000897
:10016000B7030008B7030008B7030008B703000887
:10017000B7030008B7030008B7030008B703000877
:10018000B7030008B7030008B7030008B703000867
:10019000B703000800000000B7030008B703000819
:1001A000B7030008B7030008B7030008B703000847
:1001B000B7030008B7030008B7030008B703000837
:1001C000B7030008B7030008B7030008B703000827
:1001D000B7030008B703000800F002F800F06FF85A
:1001E0000AA090E8000C82448344AAF10107DA4592
:1001F00001D100F064F8AFF2090EBAE80F0013F075
:10020000010F18BFFB1A43F001031847741F0100C8
:10021000941F01000A444FF0000C10F8013B13F04A
:10022000070408BF10F8014B1D1108BF10F8015B4F
:10023000641E05D010F8016B641E01F8016BF9D142
:1002400013F0080F1EBF10F8014BAD1C0C1B09D199
:100250006D1E58BF01F801CBFAD505E014F8016B0B
:1002600001F8016B6D1EF9D59142D6D3704700009D
:100270000023002400250026103A28BF78C1FBD8AF
:10028000520728BF30C148BF0B607047662911F084
:10029000CF83752900F05E81782900F097810020D6
:1002A00070471FB511F0BFFB00F0DAFD040000201D
:1002B000002111F02BFBE0601FBD10B510BD00F058
:1002C000CFFE1146FFF7EDFF0EF0A0FB00F0EDFEB4
:1002D00003B4FFF7F2FF03BC00F030FF2C4B1968AA
:1002E0000868B0E8F04F80F30988BFF36F8F4FF0D4
:1002F000000080F311887047000000000848006883
:10030000006880F308884FF0000080F3148862B61C
:1003100061B6BFF34F8FBFF36F8F00DF00BF00BF29
:1003200008ED00E0DFF80C00016841F470010160A5
:10033000704700BF88ED00E0EFF30980BFF36F8FD7
:10034000134B1A681EF0100F08BF20ED108A20E929
:10035000F04F106009B44FF0500080F31188BFF3E4
:100360004F8FBFF36F8F10F089F94FF0000080F3CB
:10037000118809BC19680868B0E8F04F1EF0100F2A
:1003800008BFB0EC108A80F30988BFF36F8F704705
:100390009C000020EFF3058070470000094880476B
:1003A00009480047FEE7FEE7FEE7FEE7FEE7FEE757
:1003B000FEE7FEE7FEE7FEE704480549054A064B6F
:1003C00070470000B9C80008D9010008E0470020C4
:1003D000E0E70020E0670020E067002053EA020C1D
:1003E00000F069802DE9F04B4FF00006002B1FBF95
:1003F000B3FA83F503FA05F424FA05F65E4012BF5A
:100400001643B2FA82F502FA05F4C5F120051EBFC3
:1004100022FA05FC44EA0C04203556EA044C4FEA63
:10042000144418BF641C4FF000084FF000099042BC
:1004300071EB030C39D3002919BFB1FA81F701FA26
:1004400007F6B0FA80F700FA07F6C7F120071EBFDB
:1004500020FA07FC46EA0C062037B6FBF4FCA7EBB3
:100460000507103F07F01F0BCBF120060CFA0BFB22
:100470002CFA06F644BFB3460026202FA4BF5E46E2
:100480004FF0000B5BEA060C08BF4FF0010B19EBB5
:100490000B09ABFB027C48EB0608C01B06FB02CC39
:1004A0000BFB03CC71EB0C01C1E70B460246414646
:1004B0004846BDE8F08B13B54FF000004FF0000147
:1004C000AFF30080BDE81C40704700000FB47CB55E
:1004D0000C0009AA009001D02044401E084B7B4428
:1004E00069460190089800F078FC05461CB1002090
:1004F000694600F085FC28467CBC5DF814FB0000D2
:100500002909000070B5044685690068C10601D557
:10051000302600E02026C00707D070BDD4E90121B5
:1005200030469047206A401C20626D1EF6D570BD93
:1005300070B5044685690078C00707D170BDD4E95D
:10054000012120209047206A401C20626D1EF6D5B4
:1005500070BD00002DE9F0410646002410687529A1
:10056000314616A510D0AFF30080002802DA4042D1
:1005700013A507E031688A0701D512A502E04907F3
:1005800004D511A5012401E0AFF3008000210A2267
:1005900006F1240709E0B0FBF2FCB0FBF2F302FB2A
:1005A0001C00303078541846491C0028F3D12346EB
:1005B0002A463046BDE8F04100F0A1B90000000035
:1005C0002D0000002B0000002000000070B5044644
:1005D0000D4621461068AFF300802188090502D539
:1005E0000F4A7A4402E00E4A7A440E32002104F1A6
:1005F000240305E000F00F060009965D5E54491CD7
:100600000028F7D120780023000704D5702D02D0F0
:1006100009B1022311322046BDE8704000F06FB9E5
:10062000661901002DE9F05F894604464FF0000A83
:10063000DFF874B1FB44C0F820A02046E168884789
:10064000002874D0252806D0D4E901219047206ADB
:10065000401C2062F1E700265F462046E16888479B
:100660002028054607DB312D05D2781910F8200C1B
:1006700008B10643F1E7B00701D526F00406C4F837
:100680001CA00027C4F818A02A2D09D028460EF077
:10069000B2F838B304EB8708303DC8F8185019E0B9
:1006A00059F8041B204604EB87029161E1688847F2
:1006B000012F054618D1E069002820DA26F020062F
:1006C0001DE0D8F8180000EB800005EB4000303842
:1006D000C8F818002046E168884705460EF08BF8F8
:1006E0000028EED1012F0AD02E2D08D12046E16836
:1006F00088477F1C0546022F46F02006C4DBA06910
:10070000002803DA404246F00106A061F00701D05C
:1007100026F010066C2D0BD0682D09D04C2D39D049
:100720006A2D35D0742D35D07A2D33D016E038E0CF
:10073000E1682F4620468847B842054609D16C2F0C
:1007400026D04FF48060E16806432046884705467E
:1007500004E06C2F1AD04FF4807006430DB3A5F15E
:100760004100192802D8203546F400664A46294639
:10077000204626604E46FFF789FD80B101280BD048
:10078000F61D26F0070000F1080956E74020E4E7CF
:100790008020D8E70020D6E706F104094DE7284677
:1007A00052E7206ABDE8F09F3C190100032A40F29D
:1007B000308010F0030C00F0158011F8013BBCF103
:1007C000020F624498BF11F801CB00F8013B38BF1B
:1007D00011F8013BA2F1040298BF00F801CB38BF29
:1007E00000F8013B11F0030300F02580083AC0F047
:1007F000088051F8043B083A51F804CBA0E80810EF
:10080000F5E7121D5CBF51F8043B40F8043BAFF321
:100810000080D20724BF11F8013B11F801CB48BF7B
:1008200011F8012B24BF00F8013B00F801CB48BFB1
:1008300000F8012B704710B5203AC0F00B80B1E8EA
:100840001850203AA0E81850B1E81850A0E8185005
:10085000BFF4F5AF5FEA027C24BFB1E81850A0E80E
:10086000185044BF18C918C0BDE810405FEA827C28
:1008700024BF51F8043B40F8043B08BF7047D2073F
:1008800028BF31F8023B48BF11F8012B28BF20F8E0
:10089000023B48BF00F8012B704702F0FF0343EA18
:1008A000032242EA024200F0BABA4FF0000200B559
:1008B000134694469646203922BFA0E80C50A0E883
:1008C0000C50B1F12001BFF4F7AF090728BFA0E831
:1008D0000C5048BF0CC05DF804EB890028BF40F8FD
:1008E000042B08BF704748BF20F8022B11F0804F3F
:1008F00018BF00F8012B70477047704770472DE90B
:10090000F0470D4699469246044600F124080168D6
:10091000880604D5E06921F01001216000E0012083
:10092000A84201DD471B00E00027A1697A1902EB0C
:100930000900081AA0612078C00602D42046FFF7FB
:10094000E1FD002608E0D4E901211AF806009047ED
:10095000206A401C761C20624E45F4DB2078C006DD
:100960000AD52046FFF7CEFD06E0D4E9012130206C
:100970009047206A401C2062381EA7F10107F4DC72
:1009800007E0D4E9012118F805009047206A401CCF
:100990002062281EA5F10105F3DC2046FFF7C8FD03
:1009A0002078000602D50220BDE8F0870120FBE791
:1009B00070472DE9FF4F0C461E464FF0FF378BB0B6
:1009C000D2E90001DDF860800A908A46C1F30A5539
:1009D00005B93D46002108464FF00000BAF1000F6E
:1009E00000F4400005DA00EB80004FF4400101EA1A
:1009F00050004FEA9059B9F1010F00DDB9460A984D
:100A000050EA4A000ED044F61050A5F2FF35454397
:100A10002F14B8F1000F1ED07542291E1EDDC9F13A
:100A200000021CE0B8F1010F4FF0000001D03021AE
:100A300003E0F24305E02154401CB042FBDB3046AA
:100A40000022002121540B99C1F80880C1E900203F
:100A50000FB0BDE8F08FBD1B6D1CDEE74A4600DA23
:100A6000694206A800F086FA06AB93E8070003ABDC
:100A700083E8070050460A9900F067FB8DE80700FD
:100A8000A0F500501F3800900398002D0ADD42F2B7
:100A90001F014A460844002303A90390684600F05A
:100AA000D0FD09E0A0F500504A461F38002303A9F5
:100AB0000390684600F0DAFD8DE807000004000CA2
:100AC00003D04FF0FF30410800E01046B8F1000FAE
:100AD00003D00022009215461EE0751E05D400F0DA
:100AE000C3F9303262556D1EF9D5B3460122084371
:100AF00002D000227F1C04E02078302801D100229F
:100B00007F1E002A099784D01DE0112D07DA00F01E
:100B1000ABF9303262556D1C50EA0102F5D1084341
:100B200002D00098C8B10EE00021681E05E0235CE9
:100B3000625C63542254401E491C8142F7DBAB4681
:100B4000A81B401E0990002004F80B000B98099A7E
:100B5000C0F80880C0E9002B7AE711264FF00008A2
:100B600057E72DE9F04F88460446D21D22F00701D1
:100B700091B0D1E90001CDE90A010DF0FFFD024677
:100B80000B98C00F01D02D2007E02068810701D508
:100B90002B2002E0202101EAC000032A099001D0A5
:100BA000072A05DB03464146204600F0A3F90BE186
:100BB0002078800601D5E06900E00620B8F1650FD5
:100BC000814606D0B8F1660F18D0B8F1670F70D122
:100BD00031E00020B9F1110F009001DB112301E099
:100BE00009F101030AAA01A90CA8FFF7E2FEDDE959
:100BF0000C70002609F10105834647E001204B46B1
:100C000000904FF000470AAA01A90CA8FFF7D1FEF7
:100C1000DDE90DB00C995D46002610B909F101001F
:100C20000D18B9EB050003D4C0F1FF3609F1010539
:100C3000A5EB09002BE0B9F1010F01DA4FF0010932
:100C40000020B9F1110F0090484601DD112300E0AA
:100C500003460AAA01A90CA8FFF7ABFEDDE90C7058
:100C60004D4600268346207800070AD4AB4500DABB
:100C70005D4601A8012D04DD411911F8011C302940
:100C800007D04F4502DA17F1040F04DA012082463B
:100C90000FE06D1EEEE7002F02DCED1B3E4403E08B
:100CA000781CA84200DD7D1CB81B00F1010A4FF042
:100CB00000472078000703D4AA4501DB4FF0FF3A34
:100CC0000021B7F1004F0DF143088DF8431024D0F7
:100CD00002202B23002F01DA7F422D230A21021E3E
:100CE000A0F1010000DC5FB197FBF1FC97FBF1F292
:100CF00001FB1C7C17460CF1300C08F801CDEEE727
:100D0000A8F1010003702188090501D5452100E003
:100D10006521A0F1010800F8011C09980FA9A1EBB9
:100D20000807FF1D00B10120411901EBEA70A1691C
:100D30003844081A401EA0612078C00602D420461C
:100D4000FFF7E0FB099828B1D4E901219047206A18
:100D5000401C20622078C00622D52046FFF7D2FB37
:100D60001EE0002E04DBB34502DD01A8805D00E03B
:100D70003020D4E901219047206A401C2062761C73
:100D8000AAF101005FEA000A0AD100F069F8C06820
:100D90000168405CD4E901219047206A401C206230
:100DA000281EA5F10105DCDC07E0D4E9012118F8D3
:100DB000010B9047206A401C2062381EA7F10107F2
:100DC000F3DC2046FFF7B4FB032011B041E600003E
:100DD00001694A1C02610878704700B58FB0CDE9FF
:100DE00001310021059105497944CDE903101146EF
:100DF0006846FFF717FC0FB000BD0000E5FFFFFFDE
:100E00000A6802F8010B0A607047D1E900239A4290
:100E100002D2531C0B60107070474FF0000204297F
:100E2000C0F0128010F0030C3FF441ADCCF1040C83
:100E3000BCF1020F18BF00F8012BA8BF20F8022B4D
:100E4000A1EB0C01FFF733BD5FEAC17C24BF00F8C2
:100E5000012B00F8012B48BF00F8012B7047000060
:100E6000004870479C47002030B5B0F10A024FEAB5
:100E7000900E71F100034EEA817EB0EB0E0061EB43
:100E800091014FEA101E4EEA017E10EB0E0041EB7D
:100E900011114FEA102E4EEA016E10EB0E0041EBDD
:100EA00011214FEA104E4EEA014E10EB0E0041EBBD
:100EB0001141401841F100014FEAD00040EA417071
:100EC0004FEAD10110EB80054FEA810444EA9074A7
:100ED00044EB01046D1944EB0404521BA3414FF091
:100EE000000348BF0A3200D530BD401C41F100016B
:100EF00030BD00002DE9F0411F460446032601687D
:100F0000072A01F4006004DB08B116A505E016A568
:100F100003E008B115A500E015A521F01000206040
:100F2000A069C01EA0610FB1401EA0612046FFF75E
:100F3000E9FA4FB1D4E9012138469047206A401CB4
:100F40002062C01C206206E0206AFAE7D4E9012191
:100F500015F8010B9047761EF8D22046FFF7E8FA05
:100F6000BDE8F0814E414E006E616E00494E460074
:100F7000696E66002DE9F047814616468AB035480D
:100F800078440DC88DE80D0032487844801C03ACCD
:100F90000DC884E80D0041F69B300844372190FBD2
:100FA000F1F290FBF1F5A5F1800501FB12041B3C69
:100FB00002D56442012000E00020DFF898A08046BE
:100FC0000027FA44AAF1BE0A0EE0E0070AD0324632
:100FD000684607EB470101230AEB810100F046FB5D
:100FE0008DE8070064107F1C002CEED1194F7F4460
:100FF000AE3F19E0E80715D007EB04100DF1180A11
:1010000090E80E008AE80E00C068F04201D19819FD
:1010100008903246012306A903A800F027FB03AB82
:1010200083E807006D10641C002DE3D14FF001032D
:1010300032466946B8F1000F03A802D000F001FB68
:1010400001E000F013FBC9E90001C9F808200AB06B
:10105000BDE8F08780100100004870477C47002001
:101060007546FFF7F9FFAE4605006946534620F086
:101070000700854618B020B5FFF79EF9BDE820406F
:101080004FF000064FF000074FF000084FF0000B44
:1010900021F00701AC46ACE8C009ACE8C009ACE8F7
:1010A000C009ACE8C0098D46704710B50446AFF3DF
:1010B00000802046BDE81040FFF70AB94FF0013C20
:1010C00050F8042B51F8043B9A4221D1A2EB0C03B7
:1010D000934313EACC1317D150F8042B51F8043B77
:1010E0009A4215D1A2EB0C03934313EACC130BD114
:1010F00050F8042B51F8043B9A4209D1A2EB0C039F
:10110000934313EACC13DBD04FF00000704700BFCD
:10111000D01A01BAB1FA81F101F0180122FA01F0F6
:10112000CB40C1F12001DBB2C0B2C01A2CFA01F3EE
:10113000D11A914311EAC311E6D170470149182031
:10114000ABBEFEE72600020070475FEA400C08BF16
:1011500091F0000F4FEA8C234FEAC12243EA51512C
:101160004FEA1C5018BF00F5F0404FEA300018BF9E
:1011700041F000415FEA6C5C00F02980BCF1FF3F68
:1011800008BF40F080407047130C06BF12044FF0B8
:10119000100C4FF0000C130E04BF12020CF1080CDF
:1011A000130F04BF12010CF1040C930F04BF920043
:1011B0000CF1020CD30F04BF52000CF1010C1146CC
:1011C0004FF00002A0F11F00A0EB0C00704711F0DF
:1011D000004F08BF704731F000413FF4D5AF0B0C12
:1011E00006BF09044FF0100C4FF0000C0B0E04BFAB
:1011F00009020CF1080C0B0F04BF09010CF1040CDF
:101200008B0F04BF89000CF1020CCB0F04BF490007
:101210000CF1010CCCF12003A0EB0C0022FA03F33B
:1012200002FA0CF241EA030100F10100704720F0DC
:101230007F4C80EA030023F07F47ACEB070303F504
:101240007C5300F0004003F1FF032DE980494FEA91
:10125000154B09B44FEA144325EA0B4E24EA034820
:101260000FF2042606EB132749083E785FEA3202A4
:1012700003FB0667C7F5000707FB06F64FEA54377E
:101280004FEAD64606F1020607FB066CCCF1005C7D
:101290004FEA1C472CEA074C07FB06F40CFB06F54B
:1012A00004EB15464FEA961634BF00204FF000407D
:1012B0004FEAD13706FB07FC4FEA1C4C0CFB0BF73F
:1012C000D21B03FB0CF761EB07010CFB0EF7B0EB35
:1012D000074072EB17420CFB08F734BFA2EB074242
:1012E000B2EB074261EB17414FEA0C444FEA91071A
:1012F00006FB07FC4FEA1C4C0CFB0BF7B0EBC7409E
:1013000072EB573203FB0CF734BFA2EBC742B2EBD0
:10131000C74261EB57310CFB0EF7B0EBC70072EB25
:1013200057720CFB08F734BFA2EBC702B2EBC7023F
:1013300061EB5771039F4FEA816141EA921104EB1F
:10134000CC044FEAD1374FEA826206FB07FC42EA3F
:1013500090124FEA80604FEA1C4C0CFB0BF7D21B3B
:1013600003FB0CF761EB07010CFB0EF7B0EB07403A
:1013700072EB17420CFB08F734BFA2EB0742B2EB4B
:10138000074261EB17414FEA8C554FEA910704EB96
:101390009C2406FB07FC4FEA1C4C0CFB0BF7B0EB44
:1013A000C74072EB573203FB0CF734BFA2EBC742C6
:1013B000B2EBC74261EB57310CFB0EF7B0EBC70045
:1013C00072EB57720CFB08F734BFA2EBC702B2EB0B
:1013D000C70261EB577115EB4C254FEA816141EA79
:1013E00092114FEA82624FEAD13742EA901206FB2D
:1013F00007FC44F100044FEA80604FEA1C4C0CFBF0
:101400000BF7D21B03FB0CF761EB07010CFB0EF78C
:10141000B0EB074072EB17420CFB08F734BFA2EBAE
:101420000742B2EB074261EB174115EB1C154FEA7F
:10143000813141EA92414FEA823242EA90424FEAD8
:1014400080304FEA0C7644F1000448EA03434EEA48
:101450000B484FF0000EB2EB080C71EB030724BFF2
:10146000624639464EEB0E0E4FF0000B001852410B
:1014700049414BEB0B0BB2EB080C71EB03077BF113
:10148000000B24BF624639464EEB0E0E4FF0000BA8
:101490000018524149414BEB0B0BB2EB080C71EBBE
:1014A00003077BF1000B24BF624639464EEB0E0E5C
:1014B00051EA020718BF46F0010616EB0E7655F109
:1014C000000254F1000103D5BDE88901BDE80088A0
:1014D000BDE88901BDE80048B619524141EB010160
:1014E000A3F10103704780807F7E7D7C7B7A7978D1
:1014F000777676757473727171706F6E6E6D6C6CD9
:101500006B6A6A696868676666656464636362617A
:101510006160605F5F5E5E5D5D5C5C5B5B5A5A59FB
:101520005958585757565655555554545353525267
:101530005251515050504F4F4F4E4E4D4D4D4C4CBF
:101540004C4B4B4B4A4A4A49494948484847474708
:101550004746464645454544444444434343434245
:10156000424242414141002B9C4630D477002BD06F
:101570001CB54FEA370703B44FF010004FF01001CD
:10158000BAF1000F06D0BCF1000FDCBF40F008003C
:1015900040F008014FF000000FBCBDE810400BF117
:1015A000010BBBF1010F08BF5FEA170722BF12F161
:1015B000010211F101014FF0004143F1000300F07D
:1015C000004043EA00007047F9D35708D0E746EAE5
:1015D000064613F1400F4FEA16461FDD13F1200FA8
:1015E000DFBF16430A46002120335B42BED0C3F161
:1015F000200746EA064602FA07F74FEA164646EA89
:101600000706C3F1200722FA03F201FA07F721FACD
:1016100003F14FF0000342EA0702A7E746EA020699
:1016200046EA06464FEA164646EA0106BCBF46EAC7
:101630000646360C4FF000034FF000024FF0000159
:1016400094E72DE9804C9A46934670B491E83800AF
:1016500007C831EA400C48BF34EA430C03D5FFF712
:10166000E6FDFFF780FFF0BCBDE8008C2DE9804C63
:101670009A46934670B491E8380007C810F0804F3E
:1016800008BF13F0804F03D100F005F8FFF76BFFA0
:10169000F0BCBDE8008C20F07F4780EA030023F017
:1016A0007F4C07EB0C03A3F57C5300F00040A3F143
:1016B000FE0392F0000F00F0B38095F0000F00F0F1
:1016C00077802DE901494FEA11404FEA144621EA9B
:1016D000004800FB06FC24EA064708FB06F607FB69
:1016E00008F800FB07F718EB06484CEB164C4FEADE
:1016F000124B18EB07484FEA15464CEB174022EA0D
:101700000B4E0BFB06FC25EA06470EFB06F607FB15
:101710000EFE0BFB07F71EEB064E4CEB164C4FF084
:1017200000061EEB074E4CEB174B18EB0B0840F175
:10173000000018EB0E0B58EB000840F100008F1A68
:101740004FF000013CBFC943661B14BFB5EB040C4E
:1017500000213CBFC943F61B4FEA17444EEA8E0EE8
:1017600027EA04454FEA1C4704FB07622CEA074CB2
:1017700005FB07F70CFB05F604FB0CFC16EB074614
:1017800042EB174216EB0C4642EB1C421BEB0606E3
:1017900058EB0202414146EA9E0601D5BDE80189A7
:1017A000B619524141EB0101A3F10103BDE80189E2
:1017B0004FEA14454FEA114724EA054621EA074C4F
:1017C00005FB07F406FB07F70CFB06F105FB0CFC19
:1017D00011EB074144EB17444FEA124711EB0C4160
:1017E00044EB1C4422EA074C05FB07F206FB07F713
:1017F0000CFB06F605FB0CFC16EB074642EB17420A
:1018000016EB0C4642EB1C456A1854F1000148BF28
:101810007047B619524141EB0101A3F10103704732
:1018200095F0000F37D04FEA11424FEA144721EAF2
:10183000024624EA074C02FB07F106FB07F70CFB04
:1018400006F402FB0CFC14EB074441EB17414FEA92
:10185000154714EB0C4441EB1C4125EA074C02FBF5
:1018600007F506FB07F70CFB06F602FB0CFC16EB74
:10187000074645EB174516EB0C4645EB1C42121983
:1018800051F1000148BF7047B619524141EB0101C7
:10189000A3F1010370474FEA14454FEA114724EAC8
:1018A000054621EA074C05FB07F106FB07F70CFB91
:1018B00006F24FF0000605FB0CFC12EB074241EB71
:1018C000174112EB0C4251EB1C4148BF7047921874
:1018D00041EB0101A3F10103704700002DE9F05F26
:1018E000044688464FF000094746206809F0B6FBD9
:1018F0008246206809F099FB8346BAF1000F02D1B5
:10190000BBF1000F72D02068C06800F0007000B317
:10191000607F01281DD1207F01281AD101270FE007
:10192000334881450AD3E06D40F01000E065206E39
:1019300040F0010020660120BDE8F09F09F1010997
:1019400020680068C0F380100028E9D0402021689A
:101950000860022F10D0206809F080FB60B1206879
:1019600009F068FB40B920688168224A114041F0C3
:101970001001816000BF00BF012F10D0206809F066
:1019800054FB60B1206809F055FB40B920688168BC
:10199000184A114041F02001816000BF00BF022FB2
:1019A00003D0032F03D10C2503E0082501E0042513
:1019B00000BF00BF06F03CFB064612E006F038FB15
:1019C000801B05280DD920688068284048B1E06D4B
:1019D00040F01000E065206E40F00100206601201C
:1019E000AAE72068806828400028E7D10020A3E704
:1019F000000040A3C0FFFF7F70B50546AC6AE06DF4
:101A000000F0500098BBE06D40F40070E065206885
:101A1000006800F00800A8B1206809F029FB10B3A5
:101A20002068C06800F40050E8B9E06D20F48070D0
:101A3000E065E06D00F48050A8B9E06D40F0010071
:101A4000E06510E02068C06800F0020058B9E06D61
:101A500020F48070E065E06D00F4805018B9E06D0E
:101A600040F00100E065204605F0C8F80CE0FFE713
:101A7000E06D00F0100018B1204605F0E1F803E039
:101A8000606D416B2846884770BD70B50546AC6AED
:101A9000E06D40F04000E065206E40F004002066FC
:101AA000204605F0CDF870BD70B50446A56A2846FD
:101AB00005F0C4F870BD000070B50446206809F058
:101AC000B9FA0646206809F0BAFA98B396BB2068BE
:101AD000806800F00D0001280AD1206881681A4A48
:101AE0001140891C816000BF03202168086009E063
:101AF000E06D40F01000E065206E40F001002066CF
:101B0000012070BD06F094FA054614E006F090FA44
:101B1000401B02280FD92068806800F0010050B1F6
:101B2000E06D40F01000E065206E40F0010020669E
:101B30000120E6E705E02068806800F00100002849
:101B4000E4D10020DDE70000C0FFFF7F38B5044688
:101B500000200090206809F072FA002858D120680F
:101B600080682C49084048B1E06D40F01000E06505
:101B7000206E40F001002066012038BD206809F089
:101B800039FA2168B1F1A04F03D0234A216891426C
:101B900001D1224900E02249084609F033FA00F455
:101BA000000080B11F4800681F49B0FBF1F0401CE5
:101BB00000EB40008000009002E00098401E009082
:101BC00000980028F9D106F033FA05461AE020689B
:101BD00009F035FA10B9206809F00CFA06F028FA75
:101BE000401B02280ED92068006800F0010048B9A7
:101BF000E06D40F01000E065206E40F001002066CE
:101C00000120BAE72068006800F001000028DED05B
:101C10000020B2E73F0000800001005000030050A8
:101C20000007005098000020400D030070B58AB0F6
:101C30000546142105A8FEF738FE14216846FEF774
:101C400034FE05B9012500262DE002200CF06CFFC2
:101C5000002424E0294A611D32F8110000F010FB35
:101C600005A800EB8400D0ED000A30EE200A05A89C
:101C700000EB840080ED000A214931F8140000F0E7
:101C8000FFFA684600EB8400D0ED000A30EE200A2F
:101C9000684600EB840080ED000A601CC4B2052C8D
:101CA000D8D3701C86B2AE42CFDB002421E005A859
:101CB00000EB8400D0ED000A00EE105AB8EE400AA6
:101CC00080EE801A0F4800EB840080ED001A684611
:101CD00000EB8400D0ED000A00EE105AB8EE400A86
:101CE00080EE801A084800EB840080ED001A601C2A
:101CF000C4B2052CDBD30AB070BD0000E23900206D
:101D0000F6390020300100204401002030B589B0B0
:101D1000202101A8FEF7C9FD062003907F20049032
:101D20000420059000200690002417E00D4850F88C
:101D3000240001900C4850F82400029001A90B489F
:101D400004F0A2FC05463DB109480068401C084962
:101D50000860284609B030BD601CC4B20A2CE5D327
:101D60000020F7E7081B0108301B0108D8050020F8
:101D70002801002030B589B0202101A8FEF795FD8B
:101D8000042003907F2004900420059000200690FA
:101D9000002417E00D4850F8240001900C4850F83A
:101DA0002400029001A90B4804F06EFC05463DB1E9
:101DB00009480068401C08490860284609B030BD41
:101DC000601CC4B2052CE5D30020F7E7581B0108BE
:101DD0006C1B0108440600202C010020002007E0B5
:101DE000194931F81010194A22F81010411CC8B2D4
:101DF0000A28F5D315490988154A118013494988DD
:101E0000144A118011498988134A11800F49C988E1
:101E1000124A11800D490989114A11800B494989DB
:101E2000104A1180094989890F4A11800749C989D7
:101E30000E4A11800549098A0D4A11800349498AD1
:101E40000C4A118070470000C4390020E23900209C
:101E5000580100205A0100205C0100205E01002092
:101E60006001002062010020640100206601002062
:101E7000680100206A010020002007E00F4931F8C6
:101E800010100F4A22F81010411CC8B20528F5D3D3
:101E90000B4909880B4A1180094949880A4A11806F
:101EA00007498988094A11800549C988084A11806B
:101EB00003490989074A118070470000D83900207A
:101EC000F6390020D0010020D2010020D4010020EA
:101ED000D6010020D8010020F0EE401A31EEE02AB1
:101EE000B3EE040A61EE002A82EE220A7047000077
:101EF00010B52DED028B002463E0AC4931F81400DD
:101F000000F0BEF9AA4800EB840080ED000AA84862
:101F100000EB840090ED000AA64800EB8400D0EDB1
:101F2000000A20EE200AA44800EB840080ED000A9D
:101F30009E4A611D32F8110000F0A2F9B0EE408A0D
:101F40009E4800EB840080ED008A9D4800EB8400F1
:101F500090ED000AB0EE401A9A4800EB840090ED34
:101F6000000AF0EE400AB0EE480AFFF7B5FF9648C7
:101F700000EB840080ED000A944931F8140000F071
:101F80007FF9B0EE408A924800EB840080ED008A31
:101F9000904800EB840090ED000AB0EE401A8E48A5
:101FA00000EB840090ED000AF0EE400AB0EE480A23
:101FB000FFF792FF894800EB840080ED000A601C67
:101FC000C4B2052C99D37A4890ED000A844880ED7C
:101FD000000A774890ED010A824880ED000A7448B3
:101FE00090ED020A804880ED000A714890ED030AE6
:101FF0007E4880ED000A6E4890ED040A7C4880ED32
:10200000000A6D4890ED000A7A4880ED000A6A489F
:1020100090ED010A784880ED000A674890ED020AC9
:10202000764880ED000A644890ED030A744880ED1C
:10203000000A614890ED040A724880ED000A5F488A
:1020400090ED000A704880ED000A5C4890ED010AAE
:102050006E4880ED000A594890ED020A6C4880ED08
:10206000000A564890ED030A6A4880ED000A53487A
:1020700090ED040A684880ED000A524890ED000A8D
:10208000664880ED000A4F4890ED010A644880EDF3
:10209000000A4C4890ED020A624880ED000A494867
:1020A00090ED030A604880ED000A464890ED040A6E
:1020B0005E4880ED000A444890ED000A5C4880EDDF
:1020C000000A414890ED010A5A4880ED000A3E4856
:1020D00090ED020A584880ED000A3B4890ED030A53
:1020E000564880ED000A384890ED040A544880EDC7
:1020F000000A374890ED000A524880ED000A344843
:1021000090ED010A504880ED000A314890ED020A36
:102110004E4880ED000A2E4890ED030A4C4880EDB1
:10212000000A2B4890ED040A4A4880ED000A2A482C
:1021300090ED000A484880ED000A274890ED010A1A
:10214000464880ED000A244890ED020A444880ED9C
:10215000000A214890ED030A424880ED000A1E481B
:1021600090ED040A404880ED000A1C4890ED000AFA
:102170003E4880ED000A194890ED010A3C4880ED88
:10218000000A164890ED020A3A4880ED000A13480A
:1021900090ED030A384880ED000A104890ED040ADB
:1021A000364880ED000ABDEC028B10BDE2390020FC
:1021B000003A0020CC1A0108143A0020283A0020E6
:1021C000E01A0108300100203C3A0020F6390020D6
:1021D000503A0020F41A010844010020643A00201B
:1021E0006C010020700100207401002078010020A3
:1021F0007C01002080010020840100208801002053
:102200008C01002090010020940100209801002002
:102210009C010020A0010020A4010020A8010020B2
:10222000AC010020B0010020B4010020B801002062
:10223000BC010020C0010020C4010020C801002012
:10224000CC010020DC010020E0010020E40100209E
:10225000E8010020EC010020F0010020F401002042
:10226000F8010020FC0100200002002004020020F0
:10227000080200200C02002010020020140200209E
:1022800000EE100AB8EE400ADFED040A60EE200A04
:102290009FED031A80EE810A7047000033335340EC
:1022A00000F07F4510B500F021F80D490870084690
:1022B000007808B1012010BD00F044F80949087009
:1022C0000846007808B10220F5E700F067F80649F3
:1022D00008700846007808B10320ECE70020EAE720
:1022E0001C0100201D0100201E01002010B5124815
:1022F00004F0FCFFFFF70AFD04460CB1204610BDB8
:102300007F210D4804F08CF8044634B10B48006876
:10231000401C0A4908602046F1E70A22084906489D
:1023200004F038FF044624B104480068401C034907
:1023300008602046E3E70000D805002028010020BF
:10234000C439002010B5124804F0D0FFFFF712FD89
:1023500004460CB1204610BD7F210D4804F060F802
:10236000044634B10B480068401C0A490860204606
:10237000F1E705220849064804F00CFF044624B1A1
:1023800004480068401C034908602046E3E7000059
:10239000440600202C010020D839002010B5084840
:1023A0000068006800F0010008B1002010BD0020A6
:1023B000034909684862024807F0DEFBF6E70000BF
:1023C000D00A0020F0EE400AF5EEC00AF1EE10FA55
:1023D00002D2B1EE600A7047B0EE600AFBE700007F
:1023E000002032E000EB4001284A12F83110284A60
:1023F000115400EB4001254A02EBC10191ED020AA4
:10240000244901EB800181ED000A00EB400102EB61
:10241000C10191ED010A204901EB800181ED000A23
:1024200000EB400102EBC10191ED030A1B4901EBF6
:10243000800181ED000A00EB400102EBC101098A35
:10244000174A22F81010411CC8B20228CAD3002033
:1024500019E0144901EB800191ED000A124901EBEA
:10246000800181ED000A114901EB800191ED000A24
:102470000F4901EB800181ED000A0E49095C0E4A0B
:102480001154411CC8B20428E3D37047F03B00202C
:10249000240200202C020020340200203C020020F4
:1024A00026020020B803002044020020D03C002077
:1024B000783A0020B403002054020020F8B5044606
:1024C0000F46052C00D3F8BD254804702548077039
:1024D000012025490855254850F82400401C23496F
:1024E00041F824002248007800B1ECE7204603F0D0
:1024F0005FF9064606B9E6E71E481F4B1F4A3146FC
:102500000090204600F0FCFF054605F0030003287C
:1025100001D1002004E004EB4400174911F8100039
:102520001749085505F03F003F2801D1002000E081
:1025300002201449085504EB4400104911F810001A
:102540001149085504EB44000C4901EB4000407868
:102550000E49085515B101200D49085500BFB2E7D5
:102560009A0200209B02002067020020203B0020EE
:1025700018020020D3020020343B0020B5020020C6
:10258000A1020020A6020020AB020020B002002021
:102590009C0200202DE9F84F044688464FF0000ABF
:1025A000052C02D30020BDE8F88F884804708848C5
:1025B00050F82400401C864941F82400854800F862
:1025C000048085480470854880F800800120844993
:1025D0000855002083490855834908558349085503
:1025E000FF208349085583490855002508E0FF204E
:1025F00004EB4401804A02EB41014855681CC5B216
:10260000062DF4D37D48007808B10020CBE72046A2
:1026100003F0CEF807460FB90020C4E74FF00009D9
:102620000FE0484603F0C4F88346BBF1000F04D026
:102630009FED730A584603F0F1FA09F1010000F02A
:10264000FF09B9F1050FECD30020009002E00098DB
:10265000401C00900098B0F5FA6FF8D369486A4BB7
:10266000654A39460090204600F080FF064604EB9C
:102670004400614A02EB40013246204600F0E0FA95
:1026800090B3012058490855604850F82400401C78
:102690005E4941F8240002205D4908555D4908550E
:1026A0005D4908555D480655002519E004EB4400D6
:1026B000514901EB4000405D04EB4401584A02EBF4
:1026C0004101485504EB44004F4901EB4000405D97
:1026D00004EB4401534A02EB41014855681CC5B262
:1026E000062DE3D300205EE7FFE706F00300032892
:1026F00001D1002004E004EB4400434911F810002C
:102700004349085506F03F003F2801D1002000E072
:1027100002204049085506F0010048B304EB44008C
:10272000354911F81090324800F8049006F0020084
:1027300030B104EB440001EB400040782D490855CE
:1027400009F0320027490855484600F071FA8246E0
:102750002F48005D344908552548005D3349085528
:102760002448005D3249085501203249085500BF10
:1027700036B3002519E004EB44001F4901EB40008B
:10278000405D04EB4401264A02EB4101485504EB4D
:1027900044001D4901EB4000405D04EB4401214A27
:1027A00002EB41014855681CC5B2062DE3D31B4816
:1027B00006551848005D1849085501201D4908555F
:1027C000384603F087F85046EDE60000D8020020B6
:1027D000543B0020D90200209A0200209B020020D6
:1027E00067020020F20200201A0300201F030020CD
:1027F000E8020020ED020020F7020020180200206D
:102800000000000015030020683B0020883B0020EA
:10281000DE020020E3020020A6020020D3020020F6
:10282000B5020020343B0020A1020020AB020020B2
:10283000B00200209C0200202DE9F84305460E4618
:102840000027052D00D20EB9BDE8F883002417E05B
:10285000FF2000906A462146304603F0B6F98046D4
:102860009DF80000C5EBC5010A4A11440855B8F1AE
:10287000000F03D10120A040C0B20743601CC4B2C6
:10288000062CE5D3C5EBC50002490844877100BF9B
:10289000DAE70000240300202DE9F84305460E4640
:1028A0000027052D00D20EB9BDE8F88300241EE0F4
:1028B000FF2005EB4501334A02EB41010855022098
:1028C00005EB4501304A02EB41010855002005EBBC
:1028D00045012E4A02EB810121F8140005EB450168
:1028E0002B4A02EB810121F81400601CC4B2062CB3
:1028F000DED3002027494855002431E0FF20009016
:102900006A462146304603F060F9804605EB4500F3
:102910001D4901EB400000F80480B6F84C0005EBBF
:1029200045011A4A02EB810121F81400B6F84E0065
:1029300005EB4501164A02EB810121F814009DF8D0
:10294000000005EB45010F4A02EB41010855B8F1C3
:10295000000F03D10120A040C0B20743601CC4B2E5
:10296000062CCBD33F2F01D1002000E002200A49E2
:1029700048553F2F01D1012000E00020054948556E
:1029800000BF91E776020020883A0020A63A002096
:10299000E23A00206C020020710200202DE9F84389
:1029A00006463048007808B1BDE8F8832E48006834
:1029B000301A642800D2F7E72B480660002447E06D
:1029C0004FF00008002507E0FF20C4EBC401274AB0
:1029D00011444855681CC5B2062DF5D30020C4EB40
:1029E000C401224A114488712148005D00B92DE0DC
:1029F0002048005D00B929E0204602F0D9FE0746D4
:102A000007B923E0002518E0FF2000906A46294618
:102A1000384603F0DAF881469DF80000C4EBC401A3
:102A2000124A11444855B9F1000F04D10120A840C1
:102A3000C0B240EA0808681CC5B2062DE4D3C4EB56
:102A4000C4000A49084480F8068000BF601CC4B274
:102A5000052CB5D308480068401C0749086000BF32
:102A6000A2E7000018020020B00300204703002066
:102A70005D020020620200206C030020014611B9B3
:102A800040F2371070474FF49C70FBE7014609B9DC
:102A9000002070470220FCE70146022901D30020F4
:102AA000704701EB4100044A02EBC000008A08B104
:102AB0000020F5E70120F3E7F03B00202DE9F0418D
:102AC00006462B48007808B1BDE8F0812948006827
:102AD000301AB0F5FA7F00D2F6E7264806600024E7
:102AE00041E02548005D00B93BE02448005D00B9A5
:102AF00037E0204602F05CFE074607B931E0384671
:102B000002F084FE054615B329462046FFF742FD34
:102B100000B926E0042C10D140F23B11002000F057
:102B20009FFF40F23B11012000F09AFF002001F0CE
:102B300043F9012001F040F912E0012C08D840F2DD
:102B40003711002000F08CFF002001F035F907E07C
:102B50004FF49C71012000F083FF012001F02CF95B
:102B600000BF601CC4B2052CBBD300BFACE70000A3
:102B700018020020AC0300205D0200206202002049
:102B80007047F0EE401AF4EEE01AF1EE10FA02D2BD
:102B9000B0EE600A7047F4EEC11AF1EE10FA02DDF1
:102BA000B0EE410AF6E7B0EE610AF3E72DE9F04135
:102BB000044606ADE0CD052C01D3BDE8F081002030
:102BC00013E011F800C004EB440805EB480808F8CE
:102BD00000C012F800C004EB440806EB480808F8EF
:102BE00000C000F1010C0CF0FF000628E9D33B55B2
:102BF00000BFE2E70246052A10D20A48805C68B1AD
:102C000002EB4200084B03EB4000405CFF2805D07C
:102C100002EB420003EB4000405C70470348405C1D
:102C2000FBE700006C0200207602002094020020E6
:102C3000014601F032020AB1012070470020FCE792
:102C40002DE9F04107460C469046052F00D214B9F5
:102C50000120BDE8F081B8F13F0F01D00120F8E775
:102C60002678FF2E01D10120F3E702250AE029464C
:102C70003846FFF7BFFF615D884201D00120E8E7D9
:102C8000681CC5B2052DF2D906F0300018B1607885
:102C900008B90120DDE70020DBE710B502460B464E
:102CA000002107E0505C5C5CA04201D0002010BD18
:102CB000481CC1B20629F5D30120F8E770B50446D7
:102CC000F0EE400A042C02D39FED460A70BD620864
:102CD0008B255543444E06EB8505291D04F001055F
:102CE0002DB98B25554306EB8505BC3506E08B25B4
:102CF00055433D4E06EB850505F5BA752B468B25EC
:102D00005543394E16F8255015B99FED360ADDE7C3
:102D100093ED000AB4EEE00AF1EE10FA02DB91ED59
:102D2000000AD3E793ED2D0AB4EEE00AF1EE10FAB3
:102D300002D891ED2D0AC9E7002039E003EB8005A8
:102D400095ED000AB0EE401A451C03EB850595EDA4
:102D5000000AF0EE401AF4EEC11AF1EE10FA00D8B3
:102D600024E0F4EEC10AF1EE10FA1EDBF4EEE10A03
:102D7000F1EE10FA19D830EEC10A71EEC12A80EED8
:102D8000223AB0EE432A451C01EB850595ED000A79
:102D900001EB8005D5ED002A70EE622A01EB80057B
:102DA00095ED000A02EE820A90E700BF451CE8B2EA
:102DB0002D28C3D3012010E003EB800595ED000A18
:102DC000B4EEE00AF1EE10FA05DD451E01EB8505D3
:102DD00095ED000A7AE7451CE8B22E28ECD391ED78
:102DE0002D0A73E700000000643D002070B50E4816
:102DF0000578022D01D30A2070BD2846FFF746FE54
:102E000004460A48005D08B10A20F5E7601CC0B21C
:102E10000649085C08B10A20EEE70448007908B1C9
:102E20000A20E9E70020E7E7F70300206702002017
:102E300010B5002202210C200BF018FF9949086000
:102E40000846006818B901209749087010BD002491
:102E50003AE0002004EB4401944A02F8310004EB0C
:102E6000440102EBC101487004EB440102EBC101D3
:102E7000887004EB440102EBC101C870BAEE040A89
:102E800004EB4400114601EBC00080ED010AB3EEF3
:102E9000090A04EB440001EBC00080ED020A9FED3B
:102EA000840A04EB440001EBC00080ED030A00201B
:102EB00004EB440102EBC101088204EB440102EB84
:102EC000C1014861601CC4B2022CC2D300243BE0A3
:102ED000002078490855B3EE090A774800EB8400D2
:102EE00080ED000A9FED720A744800EB840080EDCB
:102EF000000A0020724941F82400724941F8240078
:102F000004EB440101EBC4016F4A02EB8100DFEDE9
:102F10006F1A9FED671ADFED6E0A9FED6E0A08F0DB
:102F2000EDFF04EB440101EBC401674A02EB8100B1
:102F3000DFED691A9FED691ADFED670A9FED670AF9
:102F400009F01AF8601CC4B2042CC1D3002495E027
:102F50000021634A1155634A42F82410624A115510
:102F6000624A1155624A1155FF21624A1155624A5F
:102F700011550021614A115500200FE0FF2104EB9B
:102F800044025F4B03EB42021154002104EB440264
:102F90005C4B03EB42021154411CC8B20628EDD32E
:102FA0000021594A1155594A115500201DE0FF21B1
:102FB00004EB4402564B03EB42021154002104EB94
:102FC0004402544B03EB4202115404EB4402524BB3
:102FD00003EB820222F8101004EB44024F4B03EB88
:102FE000820222F81010411CC8B20628DFD300214B
:102FF0004B4A42F824104B4A11554B4A11554B4A43
:103000001155FF214A4A11554A4A115500214A4A91
:1030100011554A4A11554A4A11554A4A42F8241054
:10302000494A115500201AE0FF2104EB4402474BA6
:1030300003EB42021154002104EB4402444B03EB26
:1030400042021154FF21C4EBC402424B1A441154F2
:10305000C4EBC402404B1A441154411CC8B20628A8
:10306000E2D30021C4EBC4023A4B1A449171C4EB81
:10307000C402394B1A449171601CC4B2052CFFF490
:1030800067AF0020354908603549086000F07AF8DC
:10309000012000F077F8FFF7A3F90020024908703B
:1030A00000BFD3E6A80300201A020020F03B002056
:1030B00000000000B4030020B8030020D03C002032
:1030C000E03C0020F03C0020203C0020CDCC4C3ED9
:1030D0000AD7233CCDCCCC3D3333B33E3333B3BEE0
:1030E0009C020020203B0020A1020020A60200201C
:1030F00062020020AB020020B0020020D3020020B8
:10310000B5020020343B00206C0200207102002038
:1031100076020020883A0020A63A0020E23A0020F9
:10312000543B0020D9020020DE020020E3020020F0
:10313000E8020020ED020020F2020020150300202A
:103140001A030020883B00201F030020F702002004
:10315000683B00202403002047030020B003002028
:103160006C0300200146792907D07A2905D07B29F4
:1031700003D07C2901D0842901D10120704700208F
:10318000FCE7000070B5ADF53C7D0546022D02D38D
:103190000DF53C7D70BD00218B206843244A02F868
:1031A00020104FF43B7101A8FDF77FFB01A92846D1
:1031B00001F04EFD064606B1EAE700242DE003A823
:1031C00000EB041090ED000A8B206843184901EBD6
:1031D0008000001D00EB840080ED000A03A800EBD6
:1031E000041090ED010A8B20684301EB8000BC3095
:1031F00000EB840080ED000A03A800EB041090EDC2
:10320000020A8B20684301EB800000F5BA7000EBE6
:10321000840080ED000A601CC4B22E2CCFD30121A3
:103220008B206843024A02F8201000BFB0E700007C
:10323000643D002010B54FF0FF31024800680BF0EC
:10324000A5FD10BD5400002038B505460C46022CE3
:1032500000D338BD0D48006828B90D480068401CEF
:103260000B490860F5E78DF800508DF80140002308
:103270001A466946054800680BF046FD20B104482F
:103280000068401C0249086000BFE2E7A803002074
:10329000200200202DE9F04104460125052C02D32F
:1032A0000120BDE8F0812E48007840B101202D4971
:1032B00008552D49085500202C490855F1E72948A3
:1032C000005D08B10020ECE7204602F071FA0746E5
:1032D0000FB90120E5E701262BE0254806552046D9
:1032E00002F076FA05461DB9204602F023FA05469B
:1032F0002DB940F6E441384602F004FD05461DB9FB
:10330000384602F0E7FA05463DB9384602F055FC6A
:1033100039462046FFF7C0FA0DE029462046FFF760
:10332000CDF8384602F01AFD05200BF0FDFB701CAD
:10333000C6B2032ED1D900BF0DB9012000E0002094
:10334000084908550DB9012000E00020064908553C
:103350000DB1012000E00020044908552846A0E7EF
:10336000180200205D020020620200206702002097
:103370005802002008B515E09DF80100022800D38E
:1033800010E09DF8000020B99DF8010000F044FC19
:1033900007E09DF80000012803D19DF8010000F02E
:1033A0000BFD00BF0648006840B100231A4669467D
:1033B000034800680BF01AFC0028DDD008BD0000AF
:1033C000A80300202DE9F84307463348007808B1E8
:1033D000BDE8F88331480068381AC82800D2F7E7FA
:1033E0002E48076000244DE00026002508E0FF205D
:1033F00004EB44012A4A02EB41014855681CC5B25E
:10340000062DF4D3002027490855012026490855E8
:10341000204602F0CDF98046B8F1000F00D12FE030
:10342000002520E0FF2000906A462946404602F031
:10343000CCFB81469DF8000004EB4401184A02EBE6
:1034400041014855B9F1000F04D10120A840C0B294
:10345000064306E01448005D012802D1124800F836
:103460000490681CC5B2062DDCD30E48065536B153
:103470003F2E01D1002000E002200B49085500BF7B
:10348000601CC4B2052CAFD308480068401C074933
:10349000086000BF9CE7000018020020D003002055
:1034A000800300209E030020A30300207C03002053
:1034B0002DE9F84305460E4617464FF0000815B9AA
:1034C0000020BDE8F883002416E0FF2000906A4643
:1034D0002146284602F079FB81469DF800003055D0
:1034E00007F80490B9F1000F04D10120A040C0B248
:1034F00040EA0808601CC4B2062CE6D34046E0E768
:103500002DE9F84F05460E4690469946DDF828B05D
:103510000027052D00D216B90020BDE8F88F002441
:103520001DE0FF2000906A462146304602F04DFB28
:10353000824605EB450009EB400000F804A09DF829
:10354000000005EB450108EB41010855BAF1000FF9
:1035500003D10120A040C0B20743601CC4B2062CB6
:10356000DFD30BF805703846D7E700002DE9F04FA0
:103570008FB00446894617469846DDF860A00025BE
:1035800033A103C9CDE90D0131A103C9CDE90B0177
:10359000002009900A900790089006900026059058
:1035A000834643E009AA0DA94846FFF781FF054677
:1035B0002A460DA92046FFF743FB0490049808B162
:1035C00000262FE0069838B10DA90BA8FFF765FB80
:1035D00010B1701CC6B212E0002009E00DA9095C10
:1035E0000BAA115409A9095C07AA1154411CC8B2BD
:1035F0000628F3D3012106910126059500BF022E6E
:103600000FD38DE8800507AA0BA92046059BFFF77D
:10361000CDFA052C01D21048065505980FB0BDE82B
:10362000F08F00BF0BF1010000F0FF0BBBF1080FA2
:10363000B8D32B4609AA0DA920468DE88005FFF7CF
:10364000B5FA052C01D2044806552846E6E70000E5
:10365000FFFFFFFFFFFF00001F03002001460C4893
:10366000007808B1002070470A480068081A40F244
:10367000DC52904201D20020F5E701F11400064A25
:103680001060044801600120014A107000BFEAE7A1
:1036900074030020CC030020C80300202DE9F0476C
:1036A0002DED048B4FF00009002508E12846FFF7B7
:1036B000EDF9064605EB4500914911F8300028B1B7
:1036C00005EB450001EBC000008A48B19FED8D0A73
:1036D00005EB45008A4901EBC00080ED030AECE0F0
:1036E0004FF00109002005EB4501854A02EBC101BD
:1036F00088703446C2E08448005D00B9BCE0002018
:10370000814908550BF01FFA8046804850F8240084
:10371000A8EB000787B17D4850F8240060B100EEA7
:10372000107AB8EE400ADFED7A0A80EE801A794806
:1037300000EB840080ED001A744840F8248076483D
:1037400050F8240008B30BF0FEF9734951F8241027
:10375000401A00EE100AB8EE400ADFED700A20EEC3
:10376000200AF0EE408AB7EE001ADFED6D0AB0EEE7
:10377000680AFFF706FA04EB440000EBC40069494D
:1037800001EB800080ED0A0A0AE09FED670A04EB76
:10379000440000EBC400634901EB800080ED0A0A9D
:1037A0000BF0D1F95C4941F8240005EB4501544A7E
:1037B00002EBC101D1ED010AB0EE600A04EB440155
:1037C00001EBC401574A02EB810008F0E1FB05EB75
:1037D00045004B4901EBC000D0ED010AB0EE600A94
:1037E0002046FFF76BFAF0EE408A504901EB840166
:1037F000D1ED000AB0EE600A04EB440101EBC40114
:10380000484A02EB810008F00BFBB1EE400AB0EE33
:10381000409A78EE890AB0EE600A9FED451ADFED16
:10382000450AFFF7AEF9B0EE408AB0EE480AFEF75F
:10383000C9FDDFED3A0AB4EEE00AF1EE10FA03D268
:103840009FED300AB0EE408A3B4800EB840080EDEB
:10385000008AB0EE480A204600F03AF958B12846EE
:10386000FFF70CF907463946284600F0F9F82846D4
:1038700000F0A2FA07E000BF601CC4B2701CC0B226
:10388000A042BFF638AF00BF2B4800EB860090ED9A
:10389000000A2949701C01EB8000D0ED000A30EECF
:1038A000200AF6EE000A20EE200A05EB4500144936
:1038B00001EBC00080ED030A00BF681CC5B2022DF9
:1038C000FFF4F4AEB9F1000F15D09FED1C0A0420EF
:1038D00000F0FEF878B140F23B11002000F0C0F893
:1038E00040F23B11012000F0BBF8002000F064FA28
:1038F000012000F061FABDEC048BBDE8F087000008
:10390000F03B002000000000B4030020303D002008
:1039100000007A44CC3B0020F03C00206F12833A38
:103920000AD7A33C203C0020CDCC4C3DB80300205E
:103930003333B33E3333B3BED03C0020CDCC4C3E0A
:103940002DE9F041064600245BE004EB44002F49DA
:1039500001EBC000008A002851D004EB440001EBC9
:10396000C000406900284AD004EB440001EBC000CD
:103970004069301A41F28831884240D3002004EB7C
:103980004401224A02F8310004EB440102EBC10178
:10399000487004EB440102EBC101887004EB440160
:1039A00002EBC101C8709FED1A0A04EB44001146F6
:1039B00001EBC00080ED030A2046FFF767F80746D9
:1039C0003D4614E005EB450101EBC501114A02EB50
:1039D000810008F0BFFA00200F4948559FED0C0AFE
:1039E0000E4800EB850080ED000A681CC5B2781C0B
:1039F000C0B2A842E6DA0021204600F031F8601C8F
:103A0000C4B2022CA1D3BDE8F0810000F03B00203D
:103A100000000000203C0020B4030020D03C002027
:103A200010B504460A48007888B10A480068201A90
:103A3000B0F1004F0BD2002005490870064806F08F
:103A400095FE4FF480720549034806F0B7FD10BD9E
:103A500074030020C80300201C0B00207004002009
:103A600070B504460D46022C00D370BD85B104EB41
:103A70004400144901EBC000008AA84208D00BF0B2
:103A800062F804EB44010F4A02EBC101486107E010
:103A900035B9002004EB44010A4A02EBC101486138
:103AA00004EB4400074901EBC0000582064820F8FA
:103AB00014502846FFF756FB10B9FF20034908555C
:103AC00000BFD2E7F03B0020260200207203002056
:103AD00070B52DED028B0546B0EE408A052D03D35F
:103AE0000120BDEC028B70BD3048007808B1002089
:103AF000F7E7B0EE480AFEF765FCDFED2D0AB4EEFD
:103B0000E00AF1EE10FA04D22A48405D08B900201C
:103B1000E7E7284601F04CFE06460EB90120E0E733
:103B20002846FFF7B7FB04460CB12046D9E72148E9
:103B3000405D70BB304602F074F9044644B1002089
:103B40001C49485521462846FEF7B8FC2046C8E7E0
:103B5000284601F0EFFD04462CB940F6E44130461A
:103B600002F0D0F804461CB9304601F0B3FE04461A
:103B700014B9304602F021F844B100200D494855EF
:103B800021462846FEF79AFC2046AAE7012009496B
:103B90004855B0EE480A304602F040F804461CB1E1
:103BA00021462846FEF78AFC20469AE718020020A4
:103BB0006F12833A620200200448007810B903486B
:103BC000007E08B1012070470020FCE7F03B002098
:103BD00070B50546052D02D20C48007800B170BDC5
:103BE000284601F0E5FD044674B19FED090A204620
:103BF00002F014F821462846FEF71EFE204602F089
:103C0000ADF800200349485500BFE8E7180200203E
:103C100000000000620200202DE9F0410546022D5F
:103C200001D3BDE8F0812846FEF736FF18B92846D3
:103C300000F0C2F8F5E72846FEF728FF04462746BD
:103C40002046FFF727FB064636B9601CC7B2611C49
:103C5000C8B2FFF71FFB064626B904270420FFF76A
:103C600019FB0646F6B1042F10D140F23B1100209B
:103C7000FFF7F6FE40F23B110120FFF7F1FE0020B6
:103C800000F09AF8012000F097F80AE02846FEF7C5
:103C9000F5FE804641462846FFF7E2FE284600F042
:103CA0008BF8BEE704EB440101EBC4013A4A02EB96
:103CB000810008F04FF9611C01EB410202EBC101E8
:103CC000354A02EB810008F045F905EB4501334A1E
:103CD00002EBC101D1ED010AB0EE600A04EB440130
:103CE00001EBC4012C4A02EB810008F051F905EB0D
:103CF00045012A4A02EBC101D1ED010AB0EE600A8A
:103D0000611C01EB410202EBC101234A02EB81007D
:103D100008F03EF9224850F82400224941F82400D6
:103D20001F49601C51F820101E4A42F820100AF06A
:103D30000AFF1D4941F82400084650F824100246A5
:103D4000601C42F820100020184908550021174A2D
:103D5000601C11549FED160A164800EB840080ED9C
:103D6000000A9FED130A1349601C01EB800080EDEF
:103D7000000A002005EB4501084A02EBC1018870EA
:103D8000012005EB450102F8310005EB450102EB8E
:103D9000C101487000BF44E7203C0020F03B0020F8
:103DA00050040020E03C0020F03C0020B403002040
:103DB00000000000D03C002070B50546022D00D365
:103DC00070BD2846FEF762FE0446002005EB450163
:103DD0002E4A02F8310005EB450102EBC1014870A3
:103DE00005EB450102EBC10188709FED290A05EB47
:103DF0004500114601EBC00080ED030A04EB4401CD
:103E000001EBC401234A02EB810008F0A3F8611C16
:103E100001EB410202EBC1011E4A02EB810008F0F6
:103E200099F800201C49085500211B4A601C1154B8
:103E30009FED170A194800EB840080ED000A9FED02
:103E4000140A1649601C01EB800080ED000A9FED0A
:103E5000100A2046FFF73CFE611CC8B29FED0C0A19
:103E6000FFF736FE2046FFF7B3FE611CC8B2FFF72E
:103E7000AFFEFFF7A1FE38B99FED050A0420FFF75A
:103E800027FE0420FFF7A4FE00BF99E7F03B0020C7
:103E900000000000203C0020B4030020D03C0020A3
:103EA0002DE9F0412DED028B0646FFF7C3F97E4860
:103EB000007800287ED07D480078002853D1002467
:103EC00049E0204601F084FC05461DB9204601F07A
:103ED00031FC0546CDB9204601F06AFC07469FB18A
:103EE00040F6E441384601F00DFF384601F0F2FC9F
:103EF000384601F062FE39462046FEF7CDFC042C20
:103F000002D0384601F02AFF00BF0DB9012000E0C1
:103F10000020674908559FED670A674800EB840059
:103F200080ED000A002065490870654840F824606B
:103F30000DB9012000E00020624908551DB9042C8C
:103F400001D1012000E000205F49085500205F49B1
:103F50000855601CC4B2052CB3D301205349087026
:103F60005649087000BF55480078012859D10424EB
:103F70004F48005D80B3204601F01AFC054665B34A
:103F80004F4850F82400301AB0F5FA6F3FD34C4830
:103F900040F82460484800EB840090ED000A4C484B
:103FA000005700EE900AF8EEE00A9FED4A1A01EE83
:103FB000200A00E036E0B0EE408A9FED470AB4EEFA
:103FC000C08AF1EE10FA09DB9FED430AB0EE408A99
:103FD000FF203F4908550FE01AE018E09FED3F0A27
:103FE000B4EEC08AF1EE10FA06D89FED3C0AB0EEAE
:103FF000408A0120364908552F4800EB840080EDA7
:10400000008AB0EE480A284601F008FE00BF00BF53
:104010003046FEF753FD3046FEF7C0FC3046FFF752
:10402000D1F933E02E48007880B101202D49087085
:104030003046FEF743FDFEF7D9FE044614B1204694
:1040400000F07EFC304600F095FF00BF2448007869
:10405000E0B92448007838B1002022490870FFF701
:1040600091F80120FFF78EF83046FFF7D9FCFFF7F3
:1040700081F9304600F0AEF8FEF782FD3046FEF7DB
:104080001DFD3046FFF75CFCFFF708FBFEF7A8F9C3
:1040900015480068401C1449086000F055F8BDEC54
:1040A000028BBDE8F081000075030020D8030020DA
:1040B0007703002000000000DC3B00207603002096
:1040C000503D00205D0200206202002067020020B7
:1040D000D9030020CDCC4C3D3333B33E3333B3BE94
:1040E000F4030020DE0300201C02002010B504466B
:1040F000042C01D3002010BD085D08B10020FAE7B0
:1041000052F8240008B90020F5E70448005D1E2895
:1041100001D30020EFE70120EDE70000D4030020E9
:10412000014631B1012906D0022906D0032908D160
:1041300005E0792070477A20FCE77B20FAE77C20B5
:10414000F8E78420F6E7000010B5024800680AF09E
:10415000A7FE10BD54000020FEB505460E4605B969
:10416000FEBDFFF767F8002414E004EB4400184993
:1041700001EBC00090ED020A01A800EB840080ED85
:10418000000A04EB440001EBC000008A2DF8140083
:10419000601CC4B2022CE8D3FFF7D6FF002413E062
:1041A00001A800EB8400D0ED000AB0EE600A3246B0
:1041B0002146284609F09CFD3DF81420214628465A
:1041C00009F0FEFC601CC4B2022CE9D300BFC7E7B3
:1041D000F03B00202DE9F04F8FB0804600246BE0CB
:1041E000AF4800EB840090ED000A0BA800EB8400C0
:1041F00080ED000AAB48005D0AA90855AA4850F8AE
:10420000240006A941F82400A84850F8240002A977
:1042100041F8240006A850F82400A54941F82400DC
:1042200002A850F82400A34941F8240006A850F839
:104230002400A14951F82410884209D006A850F85A
:1042400024009D4941F8240000209C49085508E0BD
:104250009A48005D1E2804D29848005D401C97498A
:10426000085506A850F82400954951F824108842B2
:1042700020D0944951F82410A8EB010080B1914955
:1042800051F8241061B100EE100AB8EE400ADFEDDB
:104290008E0A80EE801A8D4901EB840181ED001AAF
:1042A00006A951F82410864A42F82410854941F89D
:1042B000248000BF601CC4B2042C91D30025E9E027
:1042C0006806060E701CC7B2434606AA0AA9304605
:1042D000FFF70CFF8146434606AA0AA93846FFF7B6
:1042E00005FF8246B9F1000F44D0BAF1000F41D06A
:1042F0000BA800EB860090ED000A0BA800EB8700EE
:10430000D0ED000A30EE200AF6EE000A20EE200A78
:1043100005EB45006E4901EBC00080ED020A05EB9C
:1043200045016B4A02EBC101088AFEF71BFF30B161
:10433000FF206849485500212846FFF791FB05EB0F
:104340004500634901EBC000C07858B105EB45005A
:1043500001EBC000C078401E05EB45015C4A02EB52
:10436000C101C8705C48405D20B15B48405D401EA3
:1043700059494855B9F1000F20D00BA800EB860031
:1043800090ED000A554800EB860080ED000A06A873
:1043900050F82600524951F8261088420ED006A83F
:1043A00050F826004E4941F8260001204D49885515
:1043B00005EB4501464A02EBC1018870BAF1000FD6
:1043C00020D00BA800EB870090ED000A434800EBDB
:1043D000870080ED000A06A850F82700404951F8F0
:1043E000271088420ED006A850F827003C4941F813
:1043F000270001203B49C85505EB4501344A02EB33
:10440000C101887005EB4500314911F8300000B951
:104410003EE0B9F1000F02D0BAF1000F37D1B9F187
:10442000000F01D1304600E03846834605EB4500D9
:10443000274901EBC000C078032819D24046FFF796
:104440000DF918B305EB4500214901EBC000C07818
:10445000401C05EB45011E4A02EBC101C87005EB8B
:104460004500114601EBC000C0781B4948550DE0DE
:10447000184800F805B05846FFF752FE0146019073
:104480002846FFF7EDFA2846FFF796FC00BF00BF6D
:10449000681CC5B2022DFFF413AF0FB0BDE8F08F5A
:1044A0004004002009000020500400206004002087
:1044B000AC3B00209C3B0020403D0020D40300206A
:1044C000003D0020103D002000007A44BC3B00204D
:1044D000F03B00207203002070030020B80300208E
:1044E000E03C0020B403002030B52DED0C8BC3B0B0
:1044F00005464248007830B100204149087043B079
:10450000BDEC0C8B30BD3E48007828B901203C49F9
:1045100008703CA000F08EF83F480068281AB0F5FB
:104520007A7F00D2EBE73C4805603C4890ED010AF9
:1045300010EE101A08460DF005FA41EC180B384839
:1045400090ED010A10EE101A08460DF0FBF941EC4F
:10455000190B344890ED010A10EE101A08460DF0C0
:10456000F1F941EC1A0B2D4890ED000A10EE101AEB
:1045700008460DF0E7F941EC1B0B294890ED000AC5
:1045800010EE101A08460DF0DDF941EC1C0B254821
:1045900090ED000A10EE101A08460DF0D3F941EC28
:1045A0001D0B2148C068204989681F4A52681E4B6C
:1045B0001B68CDE90E32CDE910108DED0C8B8DED21
:1045C0000A9B8DED08AB1948407806908DED04BB31
:1045D0008DED02CB8DED00DB14480378144AC02129
:1045E00013A8FBF773FF0446002C04DDC02C02DA8D
:1045F00013A800F01FF800BF81E70000F4030020BB
:10460000640000204150502C4E4F524D414C5F539E
:10461000544152540D0A0000600000203C0200206A
:10462000340200202C020020AC3B00202402002099
:104630001C20010870B504460026254604B970BD4B
:1046400002E0701C86B26D1C28780028F9D12EB1CA
:10465000142332462146024806F01CFC00BFEEE758
:10466000B00B002070B50020164909684863154951
:104670000968886313490968C863124909680864AE
:104680001149096848630F480068C56A681C4008FA
:104690000E490860084600680A49096888640020D5
:1046A000094909684862074909684862064800F0F4
:1046B0000FF804460CB1204670BD024800F008F81F
:1046C000FAE70000A0090020EC09002044000020C7
:1046D00010B504462068006800F0010008B1002011
:1046E00010BD204605F048FAFAE700BFFEE70000DB
:1046F00030B502460B464FF6FF7000210AE0545CCD
:1047000084EA2024E4B2054D35F8144084EA0024FC
:10471000A0B2491C9942F2D330BD00004C1D0108E3
:1047200000B5B0EE402A0748006810B900F0C2F9A1
:1047300000BD044890ED000AF8EE400A82EE200A1F
:10474000F6E7000024040020F0B52DED068BADF552
:10475000637D0746012F04D90DF5637DBDEC068B03
:10476000F0BD3B4647A2802108A8FBF7AFFE0446F8
:10477000002C04DD802C02DA08A800F085FD4FF43F
:104780003B7128A8FCF791F828A9384600F060FA98
:1047900006467EB13B4642A2802108A80096FBF760
:1047A00095FE0446002C04DD802C02DA08A800F0F7
:1047B0006BFDD1E7BDF888039DF8A4103B4642A2EB
:1047C000CDE90010802108A8FBF780FE0446002CEC
:1047D00004DD802C02DA08A800F056FD00253EE03A
:1047E0002AA800EB051090ED020A10EE101A0846F8
:1047F0000DF0A8F841EC180B2AA800EB051090ED7D
:10480000010A10EE101A08460DF09CF841EC190B45
:104810002AA800EB051090ED000A10EE101A0846C9
:104820000DF090F841EC1A0B2AA800EB0510007B64
:1048300006908DED048B8DED029B8DED00AB2B462C
:104840002FA2802108A8FBF741FE0446002C04DDBE
:10485000802C02DA08A800F017FD681CC5B22E2DC6
:10486000BED33B462FA2802108A8FBF72FFE0446AB
:10487000002C04DD802C02DA08A800F005FD00BF42
:104880006AE7000043414C49422C4C4F41442C43C1
:10489000454C4C3A25752C424547494E0D0A0000BF
:1048A00043414C49422C4C4F41442C43454C4C3ADB
:1048B00025752C4E4F545F464F554E442C45525251
:1048C0003A25750D0A00000043414C49422C4C4FDB
:1048D00041442C43454C4C3A25752C464F554E448B
:1048E0002C43454C4C5F53544F5245443A25752C4C
:1048F0004352433A3078253034580D0A0000000006
:1049000043414C49422C535445502C25752C252BA2
:104910002E32662C252E31662C252E31662C2575DF
:104920000D0A000043414C49422C4C4F41442C435A
:10493000454C4C3A25752C454E440D0A00000000AC
:104940000749097801B9704700B90A20054908608C
:104950000521054A11700021044A117000BFF2E7D9
:10496000F4030020F8030020F5030020FD030020DD
:1049700070B52DED088B9EB00446464890ED000AB8
:10498000FFF7CEFEB0EE408A434890ED000AFFF7F5
:10499000C7FEF0EE408A4148007800F0E5FA404852
:1049A0003E49097800EB011080ED000A3C483B4984
:1049B000097800EB011080ED018A39483749097800
:1049C00000EB0110C0ED028A0CB1012000E00020D4
:1049D0003349324A127801EB0211087330482F49EB
:1049E000097800EB011044732C48007800F0BCFA01
:1049F00010EE106A18EE900A0CF0A4FF41EC190BAF
:104A000018EE100A0CF09EFF41EC1A0B30460CF029
:104A100099FF41EC1B0B0CB1012000E00020CDE917
:104A200008048DED069B8DED04AB8DED02BB1B489C
:104A30000078401C00901B4803781B4A50210AA8AC
:104A4000FBF744FD0546002D04DD502D02DA0AA8CF
:104A500000F01AFC11480078401C10490870084604
:104A6000007868B100F026FC05461DB904200F4906
:104A7000087004E00E48056005200C49087004E049
:104A800000F092F80220094908701EB0BDEC088BB6
:104A900070BD00001C04002020040020F60300204C
:104AA0004C440020F7030020D8200108F503002023
:104AB000F8030020104B1A785306180E431CD9B285
:104AC0000E4B03EB800393ED000AF0EE400A0B4B14
:104AD00003EB810393ED000AB0EE401A084BC3EDDF
:104AE000000A084B83ED001A30EE810AF6EE001A38
:104AF00020EE210A70470000F70300204004002048
:104B00000004002004040020014609B90020704779
:104B10004FF48050FBE7000070B52DED028B00F0E4
:104B20008DF820B99FED1D0ABDEC028B70BD1C48AD
:104B3000008814381421B0FBF1F201FB120419486B
:104B400000EB840090ED008A164800EB8400D0ED65
:104B5000008A01251CE060191421B0FBF1F201FB71
:104B60001200104901EB8000D0ED000AB0EE600A9F
:104B7000B4EEC80AF1EE10FA01DDB0EE408AB4EEF0
:104B8000E80AF1EE10FA01D2F0EE408A681C85B214
:104B9000142DE0D338EE680AC6E7000000C079445F
:104BA000180400202C47002010B500200D49086093
:104BB0000D4908600D4908700D4908809FED0D0AE8
:104BC0000D4880ED000A9FED0B0A0C4880ED000AAD
:104BD00000200B4908600B49086050210A48FBF788
:104BE00064FE10BD080400200C0400201004002006
:104BF00018040020000000001C04002020040020F5
:104C000024040020280400202C47002008480278B3
:104C10005006030E074850F82310074800688142E9
:104C200003D005480160012070470020FCE7000028
:104C3000F7030020600400202804002003480088B7
:104C4000142801D3012070470020FCE7180400203D
:104C50002DE9F04780460C464046FFF755FF814658
:104C600014B90120BDE8F0874FF43B722146484655
:104C700001F0CAFA05460DB10220F3E709492068A0
:104C8000884201D00320EDE7B4F8E8724FF43A719E
:104C90002046FFF72DFD0646B74201D00420E1E78C
:104CA0000020DFE7455349422DE9F0432DED0C8B01
:104CB000B9B004463A48007820B939B0BDEC0C8B45
:104CC000BDE8F08337480068201AB0F57A7F00D23B
:104CD000F3E734480460344806781EB9304600F0E3
:104CE00043F901E09FED310A10EE107AFFF7E2FE82
:104CF000B0EE408AFFF7A2FF10B1FFF70DFF01E011
:104D0000BFEE000A10EE108A2948006808B900209A
:104D100002E027480068201A814640460CF012FE47
:104D200041EC190B18EE100A0CF00CFE41EC1A0BBA
:104D3000204890ED000A10EE100A0CF003FE41EC42
:104D40001B0B1D4890ED000A10EE100A0CF0FAFD46
:104D500041EC1C0B38460CF0F5FD41EC1D0BCDF879
:104D600030908DED0A9B8DED08AB8DED06BB8DED82
:104D700004CB8DED02DB11480078CDE90006104828
:104D80000378104AB0210DA8FBF7A0FB0546002DC3
:104D900004DDB02D02DA0DA800F076FA00BF8CE732
:104DA000F40300202C040020F60300200000000083
:104DB000080400200404002000040020F703002061
:104DC000F503002020210108084800881421B0FBC9
:104DD000F1F201FB1200064901EB800080ED000AB0
:104DE00002480088401C01490880704718040020D0
:104DF0002C47002070B52DED028B0E48007800F096
:104E0000B3F8B0EE408A0C4805786806040EB0EEA0
:104E1000480A2046FEF75CFE611CC8B2B0EE480AA4
:104E2000FEF756FE9FED050A0420FEF751FEBDEC8D
:104E3000028B70BDF6030020F7030020CDCC4C3E62
:104E400030B58BB00446012C04D923A000F01CFA25
:104E50000BB030BD2848007830B1022027490860E7
:104E600027A000F011FAF3E72C48047000202C4929
:104E700008702249086001202A4908701E490870FC
:104E800029490870294908709FED290A294880EDB1
:104E9000000A9FED270A284880ED000A00202749D4
:104EA00008602749087027490870274908704FF49F
:104EB00038712648FBF7F9FC234625A2282101A8D2
:104EC000FBF704FB0546002D04DD282D02DA01A8BE
:104ED00000F0DAF900BFBBE743414C49422C535480
:104EE0004152545F52454A4543542C4241445F432A
:104EF000454C4C0D0A000000F4030020F80300208C
:104F000043414C49422C53544152545F52454A4507
:104F100043542C4143544956450D0A00F7030020E1
:104F2000F6030020F5030020FD030020FC03002011
:104F30000000000000040020040400202C040020D5
:104F40003004002031040020320400204C440020B2
:104F500043414C49422C53544152542C43454C4CF0
:104F60003A25750D0A0000009FED010A7047000008
:104F700000000000F0B52DED028B95B004462046F0
:104F8000FFF792FE8C48007806287DD2DFE800F01B
:104F900003041B42AADB09E101F0DAF8FFF704FE83
:104FA0008648037886A228210BA8FBF78FFA0546CE
:104FB000002D04DD282D02DA0BA800F065F902208F
:104FC0007D490870F2E0FFF715FF834804608348CD
:104FD0000078FFF7C9FF10EE106A30460CF0B2FC03
:104FE00041EC180B8DED028B7C48007800907348E3
:104FF00003787BA2402105A8FBF768FA0546002D3F
:1050000004DD402D02DA05A800F03EF903206A49CC
:105010000870CBE070480068251A42F21070854293
:1050200003D30020FFF7A4FCC0E0FFF7EFFD00B9B9
:10503000BCE0FFF73FFDB0EE408AB0EE480AFFF754
:10504000C3FEFFF7FBFDE8B3FFF766FDF0EE408A15
:105050009FED6F0AF4EEC08AF1EE10FA3DD26D4872
:10506000007898B901206B4908706B4804609FED87
:105070006B0A6B4880ED000A9FED680A694880ED75
:10508000000A0020684900E08FE00860644890ED65
:10509000000A6648D0ED000A30EE200A604880ED34
:1050A000000A604890ED000A6148D0ED000A30EE39
:1050B000200A5C4880ED000A5B480068401C5A49A1
:1050C000086000E00DE054480068201AB0F57A7FCF
:1050D00006D30120FFF74CFC02E000204D49087088
:1050E00000BF63E0354805786806060E9FED4B0A61
:1050F0003046FEF7EDFC711CC8B29FED480AFEF782
:10510000E7FC9FED460A0420FEF7E2FC49480078E0
:1051100098B90120474908702E202B4646A230211D
:10512000009009A8FBF7D2F90746002F04DD302FC5
:1051300002DA09A800F0A8F800BF0020464908706C
:105140004649087032E01D4805786806060E9FED56
:10515000330A3046FEF7BCFC711CC8B29FED2F0A23
:10516000FEF7B6FC9FED2D0A0420FEF7B1FC3C488B
:105170000078A0B901203A4908703A4800682B46E7
:1051800039A23021009009A8FBF7A0F90746002FAB
:1051900004DD302F02DA09A800F076F800BF002005
:1051A0002D4908702D49087000E000BF00BF15B000
:1051B000BDEC028BF0BD0000F5030020F7030020DA
:1051C00043414C49422C494E49542C43454C4C3A9E
:1051D00025750D0A0000000008040020F6030020D9
:1051E00043414C49422C535445505F53544152540F
:1051F0002C43454C4C3A25752C535445503A257553
:105200002C445554593A252B2E32660D0A000000C5
:1052100000C07944100400200C04002000000000AD
:105220001C0400202004002024040020000400208E
:10523000040400203004002043414C49422C444FD8
:105240004E452C43454C4C3A25752C5354455053F0
:105250003A25750D0A000000F4030020FD0300202C
:1052600031040020F803002043414C49422C4641C0
:10527000554C542C43454C4C3A25752C4552524FB5
:10528000523A256C750D0A0070B504460025264675
:1052900002E0681C85B2761C30780028F9D12DB167
:1052A00014232A462146024805F0F4FD70BD000093
:1052B000B00B00202DE9F04FADF5517D4FF43B715F
:1052C00016A8FBF7F2FA67481690674800788DF841
:1052D0005C00002534E00DB9294600E000210846B5
:1052E000624901EB001191ED000A18A901EB0511CB
:1052F00081ED000A5D4901EB001191ED010A18A949
:1053000001EB051181ED010A584901EB001191ED06
:10531000020A18A901EB051181ED020A534901EBBC
:1053200000110A7B18A901EB05110A734F4901EB23
:1053300000114A7B18A901EB05114A73681CC5B21C
:105340002E2DC8D34FF43A7116A8FFF7D1F9ADF856
:10535000400345480078FFF7D7FB0746C7F3C72946
:10536000434817EB00084048CDF80080037841A27D
:105370004FF0500102A8FBF7A9F80446002C04DD09
:10538000502C02DA02A8FFF77FFF09F02EFA8246BE
:1053900072B6484600F0C0FE0646504609F028FAAC
:1053A00033463FA2502102A8FBF790F80446002C98
:1053B00004DD502C02DA02A8FFF766FF09F015FAA7
:1053C000824672B6D8F800B0504609F011FA43464A
:1053D0003CA2502102A8CDF800B0FBF777F80446B4
:1053E000002C04DD502C02DA02A8FFF74DFF002E3E
:1053F0002FD14FF43B70434640A25021009002A8A9
:10540000FBF764F80446002C04DD502C02DA02A8F5
:10541000FFF73AFF09F0E9F9824672B64FF43B72A2
:1054200016A9384600F01AFF0646504609F0E0F982
:10543000BDF8400333463CA25021009002A8FBF780
:1054400045F80446002C04DD502C02DA02A8FFF7D0
:105450001BFF26B130460DF5517DBDE8F08F0020D1
:10546000F9E7000045534942F70300204C4400206F
:1054700000E0030843414C49422C464C4153485FED
:1054800045524153452C43454C4C3A25752C4144DB
:1054900044523A30782530386C580D0A000000002C
:1054A00043414C49422C464C4153485F455241537D
:1054B000455F444F4E452C5354415455533A25753E
:1054C0000D0A000043414C49422C464C4153485F71
:1054D00045524153455F5645524946592C41444433
:1054E000523A30782530386C582C444154413A3087
:1054F000782530386C580D0A0000000043414C49B3
:10550000422C464C4153485F57524954452C414424
:1055100044523A30782530386C582C53495A453A21
:1055200025750D0A0000000043414C49422C464CB1
:105530004153485F57524954455F444F4E452C53A1
:1055400054415455533A25752C4352433A307825EB
:105550003034580D0A0000002DE9F04109F0F3FA4B
:105560000546002443E0E0B206F0C2FD0746062FE0
:1055700000D13BE02048005D70B3204850F8240083
:1055800000B933E01D4850F824002E1AB6F5FA6F22
:105590000BD31B48005D40B92B46022239461948FF
:1055A00008F07AF9012016490855B6F5FA7F12D3AA
:1055B000154850F8240028B1134850F82400281A40
:1055C000962808D32B46012239460E4808F064F984
:1055D0000D4840F8245008E00020084941F8240014
:1055E000094941F824000649085500BF641C062CEF
:1055F000B9DBBDE8F0810000264400209C050020B6
:105600002500002074430020B405002010B52DEDC6
:10561000028B0446B0EE408A022C02D3BDEC028B12
:1056200010BDFDF707FE04EB4400044901EBC00088
:1056300080ED018AFEF788FD00BFEFE7F03B002018
:1056400010B5044621460020FDF7FEFD10BD10B543
:10565000044621460120FDF7F7FD10BD10B50248B4
:1056600002F080F910BD00001007002010B50248BC
:1056700002F078F910BD0000440C002010B502487B
:1056800002F070F910BD0000B006002030B50E4DDC
:105690000468AC4201D20D4901E00C4920310B46AF
:1056A0000478083C1425B4FBF5F2446CA40803EB21
:1056B00084048464054C8034C46402F01F05012412
:1056C000AC40046530BD0000080402400008024000
:1056D00001794A1E064B03EB82024265044A4032BE
:1056E00082654A1E02F01F0301229A40C26570477C
:1056F0000009024030B5D0E913546C60446D14B118
:10570000D0E916546C6090F8444004F01F05012461
:10571000AC40056C6C60046863608468102C04D134
:105720000468A2600468E16003E00468A1600468A2
:10573000E26030BD70B586B00646304600F038F8FD
:10574000054615B9012006B070BD284600F069FB7A
:1057500004460CB12046F6E7684600F03EF99DE8A5
:10576000070003AB07C303A9284600F0C7F8EAE720
:1057700010B5012204210C4802F054FC0122102132
:10578000094802F04FFC01224021074802F04AFC80
:1057900001228021044802F045FC012240210348F7
:1057A00002F040FC10BD0000000C0048000400485E
:1057B0000146052901D30020704701EB410000EBB1
:1057C000C100024A02EBC000F6E70000BC41002025
:1057D00010B50446052C01D3012010BDFFF7C8FF0A
:1057E00004EB440202EB0412064B03EB820104EBD0
:1057F000440202EBC402044B03EBC20000F038F990
:10580000EBE70000801B0108BC4100202DE9F843B4
:105810000446204600F0ACF910B90120BDE8F88339
:10582000206B48B30026052700251EE0A18E206BC3
:1058300002F0E6FB804694F84A0030B1B8F1000F60
:1058400001D1012000E000208046B8F1010F01D114
:10585000701CC6B20020009002E00098401C00902E
:1058600000983228F9D3681CC5B2BD42DEDBBE42C7
:1058700001D10420D2E700BFA06B48B30027052662
:1058800000251EE0A18FA06B02F0BAFB804694F8C1
:105890004A0030B1B8F1000F01D1012000E0002032
:1058A0008046B8F1010F01D1781CC7B200200090EA
:1058B00002E00098401C009000983228F9D3681C40
:1058C000C5B2B542DEDBB74201D10520A6E700BF75
:1058D0000020A3E770B5054601220221284600F00A
:1058E000B7FA04460CB1204670BD012002F084F9DD
:1058F00000220221284600F0ABFAF5E72DE9F04737
:1059000081460C4614B90120BDE8F087484600F0F6
:1059100080FA06460EB13046F6E720788007070E7B
:10592000607808B147F02007A07800F0030047EA4C
:10593000C007E07800F007000743207940074FEAEE
:105940005068A07908B148F08008607900F00F0035
:1059500040EA0808E0798007050E207A08B145F092
:105960002005607A00F0030045EAC005A07A08B17E
:1059700045F00405E07A00F0030005433A460321B0
:10598000484600F065FA06460EB13046BCE742468E
:105990000421484600F05CFA06460EB13046B3E7F3
:1059A0002A460521484600F053FA06460EB1304615
:1059B000AAE74846FFF78EFFA6E710B50446A18B7D
:1059C0000122A06902F02EFB10BD10B50446A18B88
:1059D0000022A06902F026FB10BD0EB503218DF850
:1059E000001000218DF801108DF8021007218DF8AC
:1059F00003108DF8041000218DF805108DF80610A5
:105A00008DF807108DF808108DF809108DF80A1020
:105A100001218DF80B1000990160019941600299F4
:105A200081600EBD70B52DED028B0446B0EE408A4C
:105A300060680068C56A94ED110AB0EE401ADFEDA7
:105A40000B0AB0EE480A00F0A3F8B0EE408A681CDA
:105A500000EE100AB8EE400A20EE080ABCEEC00ABA
:105A600010EE100ABDEC028B70BD000000000000BB
:105A700070B504460D4604B10DB9012070BD582122
:105A80002046FAF712FF4C2229462046FAF7D3FEA9
:105A9000E08F08B90A20E087B4F8400010B902206E
:105AA000A4F84000B4F8420018B940F6E440A4F865
:105AB000420094ED110AB5EEC00AF1EE10FA03D8D7
:105AC0009FED080A84ED110A204600F051F808B94C
:105AD0000120D3E7012084F85600204600F004F8A6
