:020000040800F2
:10000000E8F700209D030008E1C1000859B400088A
:10001000DDC10008474B000851EC0008000000005B
:10002000000000000000000000000000DD020008E9
:10003000ED620008000000003903000811CD00083F
:10004000B7030008B7030008B7030008B7030008A8
:10005000B7030008B7030008B7030008B703000898
:10006000B7030008B7030008B7030008B95A00082F
:10007000C95A0008D95A0008B7030008B703000896
:10008000B7030008B7030008B7030008B703000868
:10009000B7030008B7030008B7030008B703000858
:1000A000B7030008B7030008B7030008B703000848
:1000B000B7030008B7030008B7030008B703000838
:1000C000B7030008B7030008B7030008B703000828
:1000D000B703000841EC0008B7030008B7030008A5
:1000E000B7030008B7030008B7030008B703000808
:1000F000B7030008B7030008B7030008B7030008F8
:10010000B7030008B7030008B7030008B7030008E7
:10011000B7030008B7030008A5CD0008B70300081F
:10012000B7030008B7030008B7030008B7030008C7
:10013000B7030008B7030008B7030008B7030008B7
:10014000B7030008B7030008B7030008B7030008A7
:10015000B7030008B7030008B7030008B703000897
:10016000B7030008B7030008B7030008B703000887
:10017000B7030008B7030008B7030008B703000877
:10018000B7030008B7030008B7030008B703000867
:10019000B703000800000000B7030008B703000819
:1001A000B7030008B7030008B7030008B703000847
:1001B000B7030008B7030008B7030008B703000837
:1001C000B7030008B7030008B7030008B703000827
:1001D000B7030008B703000800F002F800F06FF85A
:1001E0000AA090E8000C82448344AAF10107DA4592
:1001F00001D100F064F8AFF2090EBAE80F0013F075
:10020000010F18BFFB1A43F0010318476C240100CB
:100210008C2401000A444FF0000C10F8013B13F04D
:10022000070408BF10F8014B1D1108BF10F8015B4F
:10023000641E05D010F8016B641E01F8016BF9D142
:1002400013F0080F1EBF10F8014BAD1C0C1B09D199
:100250006D1E58BF01F801CBFAD505E014F8016B0B
:1002600001F8016B6D1EF9D59142D6D3704700009D
:100270000023002400250026103A28BF78C1FBD8AF
:10028000520728BF30C148BF0B607047662911F084
:100290003B86752900F05E81782900F09781002067
:1002A00070471FB511F02BFE00F0DAFD04000020AE
:1002B000002111F097FDE0601FBD10B510BD00F0EA
:1002C000CFFE1146FFF7EDFF0EF00CFE00F0EDFE45
:1002D00003B4FFF7F2FF03BC00F030FF2C4B1968AA
:1002E0000868B0E8F04F80F30988BFF36F8F4FF0D4
:1002F000000080F311887047000000000848006883
:10030000006880F308884FF0000080F3148862B61C
:1003100061B6BFF34F8FBFF36F8F00DF00BF00BF29
:1003200008ED00E0DFF80C00016841F470010160A5
:10033000704700BF88ED00E0EFF30980BFF36F8FD7
:10034000134B1A681EF0100F08BF20ED108A20E929
:10035000F04F106009B44FF0500080F31188BFF3E4
:100360004F8FBFF36F8F10F0F5FB4FF0000080F35D
:10037000118809BC19680868B0E8F04F1EF0100F2A
:1003800008BFB0EC108A80F30988BFF36F8F704705
:100390009C000020EFF3058070470000094880476B
:1003A00009480047FEE7FEE7FEE7FEE7FEE7FEE757
:1003B000FEE7FEE7FEE7FEE704480549054A064B6F
:1003C0007047000091CD0008D9010008E8470020DF
:1003D000E8F70020E8770020E877002053EA020CD5
:1003E00000F069802DE9F04B4FF00006002B1FBF95
:1003F000B3FA83F503FA05F424FA05F65E4012BF5A
:100400001643B2FA82F502FA05F4C5F120051EBFC3
:1004100022FA05FC44EA0C04203556EA044C4FEA63
:10042000144418BF641C4FF000084FF000099042BC
:1004300071EB030C39D3002919BFB1FA81F701FA26
:1004400007F6B0FA80F700FA07F6C7F120071EBFDB
:1004500020FA07FC46EA0C062037B6FBF4FCA7EBB3
:100460000507103F07F01F0BCBF120060CFA0BFB22
:100470002CFA06F644BFB3460026202FA4BF5E46E2
:100480004FF0000B5BEA060C08BF4FF0010B19EBB5
:100490000B09ABFB027C48EB0608C01B06FB02CC39
:1004A0000BFB03CC71EB0C01C1E70B460246414646
:1004B0004846BDE8F08B13B54FF000004FF0000147
:1004C000AFF30080BDE81C40704700000FB47CB55E
:1004D0000C0009AA009001D02044401E084B7B4428
:1004E00069460190089800F078FC05461CB1002090
:1004F000694600F085FC28467CBC5DF814FB0000D2
:100500002909000070B5044685690068C10601D557
:10051000302600E02026C00707D070BDD4E90121B5
:1005200030469047206A401C20626D1EF6D570BD93
:1005300070B5044685690078C00707D170BDD4E95D
:10054000012120209047206A401C20626D1EF6D5B4
:1005500070BD00002DE9F0410646002410687529A1
:10056000314616A510D0AFF30080002802DA4042D1
:1005700013A507E031688A0701D512A502E04907F3
:1005800004D511A5012401E0AFF3008000210A2267
:1005900006F1240709E0B0FBF2FCB0FBF2F302FB2A
:1005A0001C00303078541846491C0028F3D12346EB
:1005B0002A463046BDE8F04100F0A1B90000000035
:1005C0002D0000002B0000002000000070B5044644
:1005D0000D4621461068AFF300802188090502D539
:1005E0000F4A7A4402E00E4A7A440E32002104F1A6
:1005F000240305E000F00F060009965D5E54491CD7
:100600000028F7D120780023000704D5702D02D0F0
:1006100009B1022311322046BDE8704000F06FB9E5
:100620005E1E01002DE9F05F894604464FF0000A86
:10063000DFF874B1FB44C0F820A02046E168884789
:10064000002874D0252806D0D4E901219047206ADB
:10065000401C2062F1E700265F462046E16888479B
:100660002028054607DB312D05D2781910F8200C1B
:1006700008B10643F1E7B00701D526F00406C4F837
:100680001CA00027C4F818A02A2D09D028460EF077
:100690001EFB38B304EB8708303DC8F8185019E04A
:1006A00059F8041B204604EB87029161E1688847F2
:1006B000012F054618D1E069002820DA26F020062F
:1006C0001DE0D8F8180000EB800005EB4000303842
:1006D000C8F818002046E168884705460EF0F7FA8A
:1006E0000028EED1012F0AD02E2D08D12046E16836
:1006F00088477F1C0546022F46F02006C4DBA06910
:10070000002803DA404246F00106A061F00701D05C
:1007100026F010066C2D0BD0682D09D04C2D39D049
:100720006A2D35D0742D35D07A2D33D016E038E0CF
:10073000E1682F4620468847B842054609D16C2F0C
:1007400026D04FF48060E16806432046884705467E
:1007500004E06C2F1AD04FF4807006430DB3A5F15E
:100760004100192802D8203546F400664A46294639
:10077000204626604E46FFF789FD80B101280BD048
:10078000F61D26F0070000F1080956E74020E4E7CF
:100790008020D8E70020D6E706F104094DE7284677
:1007A00052E7206ABDE8F09F341E0100032A40F2A0
:1007B000308010F0030C00F0158011F8013BBCF103
:1007C000020F624498BF11F801CB00F8013B38BF1B
:1007D00011F8013BA2F1040298BF00F801CB38BF29
:1007E00000F8013B11F0030300F02580083AC0F047
:1007F000088051F8043B083A51F804CBA0E80810EF
:10080000F5E7121D5CBF51F8043B40F8043BAFF321
:100810000080D20724BF11F8013B11F801CB48BF7B
:1008200011F8012B24BF00F8013B00F801CB48BFB1
:1008300000F8012B704710B5203AC0F00B80B1E8EA
:100840001850203AA0E81850B1E81850A0E8185005
:10085000BFF4F5AF5FEA027C24BFB1E81850A0E80E
:10086000185044BF18C918C0BDE810405FEA827C28
:1008700024BF51F8043B40F8043B08BF7047D2073F
:1008800028BF31F8023B48BF11F8012B28BF20F8E0
:10089000023B48BF00F8012B704702F0FF0343EA18
:1008A000032242EA024200F0BABA4FF0000200B559
:1008B000134694469646203922BFA0E80C50A0E883
:1008C0000C50B1F12001BFF4F7AF090728BFA0E831
:1008D0000C5048BF0CC05DF804EB890028BF40F8FD
:1008E000042B08BF704748BF20F8022B11F0804F3F
:1008F00018BF00F8012B70477047704770472DE90B
:10090000F0470D4699469246044600F124080168D6
:10091000880604D5E06921F01001216000E0012083
:10092000A84201DD471B00E00027A1697A1902EB0C
:100930000900081AA0612078C00602D42046FFF7FB
:10094000E1FD002608E0D4E901211AF806009047ED
:10095000206A401C761C20624E45F4DB2078C006DD
:100960000AD52046FFF7CEFD06E0D4E9012130206C
:100970009047206A401C2062381EA7F10107F4DC72
:1009800007E0D4E9012118F805009047206A401CCF
:100990002062281EA5F10105F3DC2046FFF7C8FD03
:1009A0002078000602D50220BDE8F0870120FBE791
:1009B00070472DE9FF4F0C461E464FF0FF378BB0B6
:1009C000D2E90001DDF860800A908A46C1F30A5539
:1009D00005B93D46002108464FF00000BAF1000F6E
:1009E00000F4400005DA00EB80004FF4400101EA1A
:1009F00050004FEA9059B9F1010F00DDB9460A984D
:100A000050EA4A000ED044F61050A5F2FF35454397
:100A10002F14B8F1000F1ED07542291E1EDDC9F13A
:100A200000021CE0B8F1010F4FF0000001D03021AE
:100A300003E0F24305E02154401CB042FBDB3046AA
:100A40000022002121540B99C1F80880C1E900203F
:100A50000FB0BDE8F08FBD1B6D1CDEE74A4600DA23
:100A6000694206A800F086FA06AB93E8070003ABDC
:100A700083E8070050460A9900F067FB8DE80700FD
:100A8000A0F500501F3800900398002D0ADD42F2B7
:100A90001F014A460844002303A90390684600F05A
:100AA000D0FD09E0A0F500504A461F38002303A9F5
:100AB0000390684600F0DAFD8DE807000004000CA2
:100AC00003D04FF0FF30410800E01046B8F1000FAE
:100AD00003D00022009215461EE0751E05D400F0DA
:100AE000C3F9303262556D1EF9D5B3460122084371
:100AF00002D000227F1C04E02078302801D100229F
:100B00007F1E002A099784D01DE0112D07DA00F01E
:100B1000ABF9303262556D1C50EA0102F5D1084341
:100B200002D00098C8B10EE00021681E05E0235CE9
:100B3000625C63542254401E491C8142F7DBAB4681
:100B4000A81B401E0990002004F80B000B98099A7E
:100B5000C0F80880C0E9002B7AE711264FF00008A2
:100B600057E72DE9F04F88460446D21D22F00701D1
:100B700091B0D1E90001CDE90A010EF06BF802460F
:100B80000B98C00F01D02D2007E02068810701D508
:100B90002B2002E0202101EAC000032A099001D0A5
:100BA000072A05DB03464146204600F0A3F90BE186
:100BB0002078800601D5E06900E00620B8F1650FD5
:100BC000814606D0B8F1660F18D0B8F1670F70D122
:100BD00031E00020B9F1110F009001DB112301E099
:100BE00009F101030AAA01A90CA8FFF7E2FEDDE959
:100BF0000C70002609F10105834647E001204B46B1
:100C000000904FF000470AAA01A90CA8FFF7D1FEF7
:100C1000DDE90DB00C995D46002610B909F101001F
:100C20000D18B9EB050003D4C0F1FF3609F1010539
:100C3000A5EB09002BE0B9F1010F01DA4FF0010932
:100C40000020B9F1110F0090484601DD112300E0AA
:100C500003460AAA01A90CA8FFF7ABFEDDE90C7058
:100C60004D4600268346207800070AD4AB4500DABB
:100C70005D4601A8012D04DD411911F8011C302940
:100C800007D04F4502DA17F1040F04DA012082463B
:100C90000FE06D1EEEE7002F02DCED1B3E4403E08B
:100CA000781CA84200DD7D1CB81B00F1010A4FF042
:100CB00000472078000703D4AA4501DB4FF0FF3A34
:100CC0000021B7F1004F0DF143088DF8431024D0F7
:100CD00002202B23002F01DA7F422D230A21021E3E
:100CE000A0F1010000DC5FB197FBF1FC97FBF1F292
:100CF00001FB1C7C17460CF1300C08F801CDEEE727
:100D0000A8F1010003702188090501D5452100E003
:100D10006521A0F1010800F8011C09980FA9A1EBB9
:100D20000807FF1D00B10120411901EBEA70A1691C
:100D30003844081A401EA0612078C00602D420461C
:100D4000FFF7E0FB099828B1D4E901219047206A18
:100D5000401C20622078C00622D52046FFF7D2FB37
:100D60001EE0002E04DBB34502DD01A8805D00E03B
:100D70003020D4E901219047206A401C2062761C73
:100D8000AAF101005FEA000A0AD100F069F8C06820
:100D90000168405CD4E901219047206A401C206230
:100DA000281EA5F10105DCDC07E0D4E9012118F8D3
:100DB000010B9047206A401C2062381EA7F10107F2
:100DC000F3DC2046FFF7B4FB032011B041E600003E
:100DD00001694A1C02610878704700B58FB0CDE9FF
:100DE00001310021059105497944CDE903101146EF
:100DF0006846FFF717FC0FB000BD0000E5FFFFFFDE
:100E00000A6802F8010B0A607047D1E900239A4290
:100E100002D2531C0B60107070474FF0000204297F
:100E2000C0F0128010F0030C3FF441ADCCF1040C83
:100E3000BCF1020F18BF00F8012BA8BF20F8022B4D
:100E4000A1EB0C01FFF733BD5FEAC17C24BF00F8C2
:100E5000012B00F8012B48BF00F8012B7047000060
:100E600000487047A847002030B5B0F10A024FEAA9
:100E7000900E71F100034EEA817EB0EB0E0061EB43
:100E800091014FEA101E4EEA017E10EB0E0041EB7D
:100E900011114FEA102E4EEA016E10EB0E0041EBDD
:100EA00011214FEA104E4EEA014E10EB0E0041EBBD
:100EB0001141401841F100014FEAD00040EA417071
:100EC0004FEAD10110EB80054FEA810444EA9074A7
:100ED00044EB01046D1944EB0404521BA3414FF091
:100EE000000348BF0A3200D530BD401C41F100016B
:100EF00030BD00002DE9F0411F460446032601687D
:100F0000072A01F4006004DB08B116A505E016A568
:100F100003E008B115A500E015A521F01000206040
:100F2000A069C01EA0610FB1401EA0612046FFF75E
:100F3000E9FA4FB1D4E9012138469047206A401CB4
:100F40002062C01C206206E0206AFAE7D4E9012191
:100F500015F8010B9047761EF8D22046FFF7E8FA05
:100F6000BDE8F0814E414E006E616E00494E460074
:100F7000696E66002DE9F047814616468AB035480D
:100F800078440DC88DE80D0032487844801C03ACCD
:100F90000DC884E80D0041F69B300844372190FBD2
:100FA000F1F290FBF1F5A5F1800501FB12041B3C69
:100FB00002D56442012000E00020DFF898A08046BE
:100FC0000027FA44AAF1BE0A0EE0E0070AD0324632
:100FD000684607EB470101230AEB810100F046FB5D
:100FE0008DE8070064107F1C002CEED1194F7F4460
:100FF000AE3F19E0E80715D007EB04100DF1180A11
:1010000090E80E008AE80E00C068F04201D19819FD
:1010100008903246012306A903A800F027FB03AB82
:1010200083E807006D10641C002DE3D14FF001032D
:1010300032466946B8F1000F03A802D000F001FB68
:1010400001E000F013FBC9E90001C9F808200AB06B
:10105000BDE8F087781501000048704788470020F8
:101060007546FFF7F9FFAE4605006946534620F086
:101070000700854618B020B5FFF79EF9BDE820406F
:101080004FF000064FF000074FF000084FF0000B44
:1010900021F00701AC46ACE8C009ACE8C009ACE8F7
:1010A000C009ACE8C0098D46704710B50446AFF3DF
:1010B00000802046BDE81040FFF70AB94FF0013C20
:1010C00050F8042B51F8043B9A4221D1A2EB0C03B7
:1010D000934313EACC1317D150F8042B51F8043B77
:1010E0009A4215D1A2EB0C03934313EACC130BD114
:1010F00050F8042B51F8043B9A4209D1A2EB0C039F
:10110000934313EACC13DBD04FF00000704700BFCD
:10111000D01A01BAB1FA81F101F0180122FA01F0F6
:10112000CB40C1F12001DBB2C0B2C01A2CFA01F3EE
:10113000D11A914311EAC311E6D170470149182031
:10114000ABBEFEE72600020070475FEA400C08BF16
:1011500091F0000F4FEA8C234FEAC12243EA51512C
:101160004FEA1C5018BF00F5F0404FEA300018BF9E
:1011700041F000415FEA6C5C00F02980BCF1FF3F68
:1011800008BF40F080407047130C06BF12044FF0B8
:10119000100C4FF0000C130E04BF12020CF1080CDF
:1011A000130F04BF12010CF1040C930F04BF920043
:1011B0000CF1020CD30F04BF52000CF1010C1146CC
:1011C0004FF00002A0F11F00A0EB0C00704711F0DF
:1011D000004F08BF704731F000413FF4D5AF0B0C12
:1011E00006BF09044FF0100C4FF0000C0B0E04BFAB
:1011F00009020CF1080C0B0F04BF09010CF1040CDF
:101200008B0F04BF89000CF1020CCB0F04BF490007
:101210000CF1010CCCF12003A0EB0C0022FA03F33B
:1012200002FA0CF241EA030100F10100704720F0DC
:101230007F4C80EA030023F07F47ACEB070303F504
:101240007C5300F0004003F1FF032DE980494FEA91
:10125000154B09B44FEA144325EA0B4E24EA034820
:101260000FF2042606EB132749083E785FEA3202A4
:1012700003FB0667C7F5000707FB06F64FEA54377E
:101280004FEAD64606F1020607FB066CCCF1005C7D
:101290004FEA1C472CEA074C07FB06F40CFB06F54B
:1012A00004EB15464FEA961634BF00204FF000407D
:1012B0004FEAD13706FB07FC4FEA1C4C0CFB0BF73F
:1012C000D21B03FB0CF761EB07010CFB0EF7B0EB35
:1012D000074072EB17420CFB08F734BFA2EB074242
:1012E000B2EB074261EB17414FEA0C444FEA91071A
:1012F00006FB07FC4FEA1C4C0CFB0BF7B0EBC7409E
:1013000072EB573203FB0CF734BFA2EBC742B2EBD0
:10131000C74261EB57310CFB0EF7B0EBC70072EB25
:1013200057720CFB08F734BFA2EBC702B2EBC7023F
:1013300061EB5771039F4FEA816141EA921104EB1F
:10134000CC044FEAD1374FEA826206FB07FC42EA3F
:1013500090124FEA80604FEA1C4C0CFB0BF7D21B3B
:1013600003FB0CF761EB07010CFB0EF7B0EB07403A
:1013700072EB17420CFB08F734BFA2EB0742B2EB4B
:10138000074261EB17414FEA8C554FEA910704EB96
:101390009C2406FB07FC4FEA1C4C0CFB0BF7B0EB44
:1013A000C74072EB573203FB0CF734BFA2EBC742C6
:1013B000B2EBC74261EB57310CFB0EF7B0EBC70045
:1013C00072EB57720CFB08F734BFA2EBC702B2EB0B
:1013D000C70261EB577115EB4C254FEA816141EA79
:1013E00092114FEA82624FEAD13742EA901206FB2D
:1013F00007FC44F100044FEA80604FEA1C4C0CFBF0
:101400000BF7D21B03FB0CF761EB07010CFB0EF78C
:10141000B0EB074072EB17420CFB08F734BFA2EBAE
:101420000742B2EB074261EB174115EB1C154FEA7F
:10143000813141EA92414FEA823242EA90424FEAD8
:1014400080304FEA0C7644F1000448EA03434EEA48
:101450000B484FF0000EB2EB080C71EB030724BFF2
:10146000624639464EEB0E0E4FF0000B001852410B
:1014700049414BEB0B0BB2EB080C71EB03077BF113
:10148000000B24BF624639464EEB0E0E4FF0000BA8
:101490000018524149414BEB0B0BB2EB080C71EBBE
:1014A00003077BF1000B24BF624639464EEB0E0E5C
:1014B00051EA020718BF46F0010616EB0E7655F109
:1014C000000254F1000103D5BDE88901BDE80088A0
:1014D000BDE88901BDE80048B619524141EB010160
:1014E000A3F10103704780807F7E7D7C7B7A7978D1
:1014F000777676757473727171706F6E6E6D6C6CD9
:101500006B6A6A696868676666656464636362617A
:101510006160605F5F5E5E5D5D5C5C5B5B5A5A59FB
:101520005958585757565655555554545353525267
:101530005251515050504F4F4F4E4E4D4D4D4C4CBF
:101540004C4B4B4B4A4A4A49494948484847474708
:101550004746464645454544444444434343434245
:10156000424242414141002B9C4630D477002BD06F
:101570001CB54FEA370703B44FF010004FF01001CD
:10158000BAF1000F06D0BCF1000FDCBF40F008003C
:1015900040F008014FF000000FBCBDE810400BF117
:1015A000010BBBF1010F08BF5FEA170722BF12F161
:1015B000010211F101014FF0004143F1000300F07D
:1015C000004043EA00007047F9D35708D0E746EAE5
:1015D000064613F1400F4FEA16461FDD13F1200FA8
:1015E000DFBF16430A46002120335B42BED0C3F161
:1015F000200746EA064602FA07F74FEA164646EA89
:101600000706C3F1200722FA03F201FA07F721FACD
:1016100003F14FF0000342EA0702A7E746EA020699
:1016200046EA06464FEA164646EA0106BCBF46EAC7
:101630000646360C4FF000034FF000024FF0000159
:1016400094E72DE9804C9A46934670B491E83800AF
:1016500007C831EA400C48BF34EA430C03D5FFF712
:10166000E6FDFFF780FFF0BCBDE8008C2DE9804C63
:101670009A46934670B491E8380007C810F0804F3E
:1016800008BF13F0804F03D100F005F8FFF76BFFA0
:10169000F0BCBDE8008C20F07F4780EA030023F017
:1016A0007F4C07EB0C03A3F57C5300F00040A3F143
:1016B000FE0392F0000F00F0B38095F0000F00F0F1
:1016C00077802DE901494FEA11404FEA144621EA9B
:1016D000004800FB06FC24EA064708FB06F607FB69
:1016E00008F800FB07F718EB06484CEB164C4FEADE
:1016F000124B18EB07484FEA15464CEB174022EA0D
:101700000B4E0BFB06FC25EA06470EFB06F607FB15
:101710000EFE0BFB07F71EEB064E4CEB164C4FF084
:1017200000061EEB074E4CEB174B18EB0B0840F175
:10173000000018EB0E0B58EB000840F100008F1A68
:101740004FF000013CBFC943661B14BFB5EB040C4E
:1017500000213CBFC943F61B4FEA17444EEA8E0EE8
:1017600027EA04454FEA1C4704FB07622CEA074CB2
:1017700005FB07F70CFB05F604FB0CFC16EB074614
:1017800042EB174216EB0C4642EB1C421BEB0606E3
:1017900058EB0202414146EA9E0601D5BDE80189A7
:1017A000B619524141EB0101A3F10103BDE80189E2
:1017B0004FEA14454FEA114724EA054621EA074C4F
:1017C00005FB07F406FB07F70CFB06F105FB0CFC19
:1017D00011EB074144EB17444FEA124711EB0C4160
:1017E00044EB1C4422EA074C05FB07F206FB07F713
:1017F0000CFB06F605FB0CFC16EB074642EB17420A
:1018000016EB0C4642EB1C456A1854F1000148BF28
:101810007047B619524141EB0101A3F10103704732
:1018200095F0000F37D04FEA11424FEA144721EAF2
:10183000024624EA074C02FB07F106FB07F70CFB04
:1018400006F402FB0CFC14EB074441EB17414FEA92
:10185000154714EB0C4441EB1C4125EA074C02FBF5
:1018600007F506FB07F70CFB06F602FB0CFC16EB74
:10187000074645EB174516EB0C4645EB1C42121983
:1018800051F1000148BF7047B619524141EB0101C7
:10189000A3F1010370474FEA14454FEA114724EAC8
:1018A000054621EA074C05FB07F106FB07F70CFB91
:1018B00006F24FF0000605FB0CFC12EB074241EB71
:1018C000174112EB0C4251EB1C4148BF7047921874
:1018D00041EB0101A3F10103704700002DE9F05F26
:1018E000044688464FF000094746206809F0EAFDA3
:1018F0008246206809F0CDFD8346BAF1000F02D17F
:10190000BBF1000F72D02068C06800F0007000B317
:10191000607F01281DD1207F01281AD101270FE007
:10192000334881450AD3E06D40F01000E065206E39
:1019300040F0010020660120BDE8F09F09F1010997
:1019400020680068C0F380100028E9D0402021689A
:101950000860022F10D0206809F0B4FD60B1206843
:1019600009F09CFD40B920688168224A114041F08D
:101970001001816000BF00BF012F10D0206809F066
:1019800088FD60B1206809F089FD40B92068816850
:10199000184A114041F02001816000BF00BF022FB2
:1019A00003D0032F03D10C2503E0082501E0042513
:1019B00000BF00BF06F070FD064612E006F06CFDA9
:1019C000801B05280DD920688068284048B1E06D4B
:1019D00040F01000E065206E40F00100206601201C
:1019E000AAE72068806828400028E7D10020A3E704
:1019F000000040A3C0FFFF7F70B50546AC6AE06DF4
:101A000000F0500098BBE06D40F40070E065206885
:101A1000006800F00800A8B1206809F05DFD10B36F
:101A20002068C06800F40050E8B9E06D20F48070D0
:101A3000E065E06D00F48050A8B9E06D40F0010071
:101A4000E06510E02068C06800F0020058B9E06D61
:101A500020F48070E065E06D00F4805018B9E06D0E
:101A600040F00100E065204605F0FCFA0CE0FFE7DD
:101A7000E06D00F0100018B1204605F015FB03E002
:101A8000606D416B2846884770BD70B50546AC6AED
:101A9000E06D40F04000E065206E40F004002066FC
:101AA000204605F001FB70BD70B50446A56A2846C6
:101AB00005F0F8FA70BD000070B50446206809F022
:101AC000EDFC0646206809F0EEFC98B396BB206852
:101AD000806800F00D0001280AD1206881681A4A48
:101AE0001140891C816000BF03202168086009E063
:101AF000E06D40F01000E065206E40F001002066CF
:101B0000012070BD06F0C8FC054614E006F0C4FCD8
:101B1000401B02280FD92068806800F0010050B1F6
:101B2000E06D40F01000E065206E40F0010020669E
:101B30000120E6E705E02068806800F00100002849
:101B4000E4D10020DDE70000C0FFFF7F38B5044688
:101B500000200090206809F0A6FC002858D12068D9
:101B600080682C49084048B1E06D40F01000E06505
:101B7000206E40F001002066012038BD206809F089
:101B80006DFC2168B1F1A04F03D0234A2168914236
:101B900001D1224900E02249084609F067FC00F41F
:101BA000000080B11F4800681F49B0FBF1F0401CE5
:101BB00000EB40008000009002E00098401E009082
:101BC00000980028F9D106F067FC05461AE0206865
:101BD00009F069FC10B9206809F040FC06F05CFCD3
:101BE000401B02280ED92068006800F0010048B9A7
:101BF000E06D40F01000E065206E40F001002066CE
:101C00000120BAE72068006800F001000028DED05B
:101C10000020B2E73F0000800001005000030050A8
:101C20000007005098000020400D030001B582B06D
:101C3000002001906420012301AA02A9009003481A
:101C400007F0EAFE9DF804000EBD000048090020E0
:101C500070B506460C46154630460AF0ADFE4021EA
:101C600041EA8401C8B2FFF7E1FF2846FFF7DEFF33
:101C700030460AF099FE70BD70B58AB00546142151
:101C800005A8FEF712FE14216846FEF70EFE05B900
:101C9000012500262DE002200DF0B2F9002424E0F9
:101CA000294A611D32F8110000F010FB05A800EB75
:101CB0008400D0ED000A30EE200A05A800EB840075
:101CC00080ED000A214931F8140000F0FFFA68465F
:101CD00000EB8400D0ED000A30EE200A684600EBED
:101CE000840080ED000A601CC4B2052CD8D3701C9F
:101CF00086B2AE42CFDB002421E005A800EB8400D1
:101D0000D0ED000A00EE105AB8EE400A80EE801ABC
:101D10000F4800EB840080ED001A684600EB840059
:101D2000D0ED000A00EE105AB8EE400A80EE801A9C
:101D3000084800EB840080ED001A601CC4B2052C3A
:101D4000DBD30AB070BD0000EE390020023A00205B
:101D5000300100204401002030B589B0202101A8C5
:101D6000FEF7A3FD062003907F2004900420059039
:101D700000200690002417E00D4850F82400019040
:101D80000C4850F82400029001A90B4804F0B0FE62
:101D900005463DB109480068401C084908602846CE
:101DA00009B030BD601CC4B20A2CE5D30020F7E7AF
:101DB000E01F010808200108E40500202801002098
:101DC00030B589B0202101A8FEF76FFD04200390F3
:101DD0007F2004900420059000200690002417E046
:101DE0000D4850F8240001900C4850F8240002904F
:101DF00001A90B4804F07CFE05463DB10948006886
:101E0000401C08490860284609B030BD601CC4B2B7
:101E1000052CE5D30020F7E7302001084420010815
:101E2000500600202C010020002007E0194931F85D
:101E30001010194A22F81010411CC8B20A28F5D314
:101E400015490988154A118013494988144A118097
:101E500011498988134A11800F49C988124A118093
:101E60000D490989114A11800B494989104A11808D
:101E7000094989890F4A11800749C9890E4A118089
:101E80000549098A0D4A11800349498A0C4A118083
:101E900070470000D0390020EE39002058010020A2
:101EA0005A0100205C0100205E010020600100203A
:101EB000620100206401002066010020680100200A
:101EC0006A010020002007E00F4931F810100F4A86
:101ED00022F81010411CC8B20528F5D30B49098817
:101EE0000B4A1180094949880A4A118007498988A3
:101EF000094A11800549C988084A1180034909899E
:101F0000074A118070470000E4390020023A00209F
:101F1000D0010020D2010020D4010020D6010020F1
:101F2000D8010020F0EE401A31EEE02AB3EE040AA8
:101F300061EE002A82EE220A7047000010B52DEDF6
:101F4000028B002463E0AC4931F8140000F0BEF9C4
:101F5000AA4800EB840080ED000AA84800EB84004A
:101F600090ED000AA64800EB8400D0ED000A20EEB8
:101F7000200AA44800EB840080ED000A9E4A611DFF
:101F800032F8110000F0A2F9B0EE408A9E4800EB52
:101F9000840080ED008A9D4800EB840090ED000AEB
:101FA000B0EE401A9A4800EB840090ED000AF0EE83
:101FB000400AB0EE480AFFF7B5FF964800EB8400F0
:101FC00080ED000A944931F8140000F07FF9B0EE7A
:101FD000408A924800EB840080ED008A904800EB34
:101FE000840090ED000AB0EE401A8E4800EB8400A9
:101FF00090ED000AF0EE400AB0EE480AFFF792FFBB
:10200000894800EB840080ED000A601CC4B2052CF6
:1020100099D37A4890ED000A844880ED000A774809
:1020200090ED010A824880ED000A744890ED020AA2
:10203000804880ED000A714890ED030A7E4880EDEB
:10204000000A6E4890ED040A7C4880ED000A6D4855
:1020500090ED000A7A4880ED000A6A4890ED010A86
:10206000784880ED000A674890ED020A764880EDD6
:10207000000A644890ED030A744880ED000A614844
:1020800090ED040A724880ED000A5F4890ED000A66
:10209000704880ED000A5C4890ED010A6E4880EDC2
:1020A000000A594890ED020A6C4880ED000A564833
:1020B00090ED030A6A4880ED000A534890ED040A47
:1020C000684880ED000A524890ED000A664880EDAD
:1020D000000A4F4890ED010A644880ED000A4C4820
:1020E00090ED020A624880ED000A494890ED030A2B
:1020F000604880ED000A464890ED040A5E4880ED95
:10210000000A444890ED000A5C4880ED000A41480E
:1021100090ED010A5A4880ED000A3E4890ED020A0F
:10212000584880ED000A3B4890ED030A564880ED80
:10213000000A384890ED040A544880ED000A3748F8
:1021400090ED000A524880ED000A344890ED010AF3
:10215000504880ED000A314890ED020A4E4880ED6B
:10216000000A2E4890ED030A4C4880ED000A2B48E7
:1021700090ED040A4A4880ED000A2A4890ED000AD2
:10218000484880ED000A274890ED010A464880ED56
:10219000000A244890ED020A444880ED000A2148D4
:1021A00090ED030A424880ED000A1E4890ED040AB3
:1021B000404880ED000A1C4890ED000A3E4880ED42
:1021C000000A194890ED010A3C4880ED000A1648C3
:1021D00090ED020A3A4880ED000A134890ED030A98
:1021E000384880ED000A104890ED040A364880ED2A
:1021F000000ABDEC028B10BDEE3900200C3A002025
:10220000A41F0108203A0020343A0020B81F01081A
:1022100030010020483A0020023A00205C3A0020B9
:10222000CC1F010844010020703A00206C010020FE
:102230007001002074010020780100207C01002042
:102240008001002084010020880100208C010020F2
:102250009001002094010020980100209C010020A2
:10226000A0010020A4010020A8010020AC01002052
:10227000B0010020B4010020B8010020BC01002002
:10228000C0010020C4010020C8010020CC010020B2
:10229000DC010020E0010020E4010020E801002032
:1022A000EC010020F0010020F4010020F8010020E2
:1022B000FC0100200002002004020020080200208F
:1022C0000C020020100200201402002000EE100A70
:1022D000B8EE400ADFED040A60EE200A9FED031A13
:1022E00080EE810A704700003333534000F07F4591
:1022F00010B500F021F80D4908700846007808B1C3
:10230000012010BD00F044F8094908700846007823
:1023100008B10220F5E700F067F8064908700846A2
:10232000007808B10320ECE70020EAE71C01002058
:102330001D0100201E01002010B5124805F00AFA08
:10234000FFF70AFD04460CB1204610BD7F210D4861
:1023500004F09AFA044634B10B480068401C0A495C
:1023600008602046F1E70A220849064805F046F9C8
:10237000044624B104480068401C03490860204614
:10238000E3E70000E405002028010020D039002008
:1023900010B5124805F0DEF9FFF712FD04460CB146
:1023A000204610BD7F210D4804F06EFA044634B17A
:1023B0000B480068401C0A4908602046F1E70522E6
:1023C0000849064805F01AF9044624B10448006893
:1023D000401C034908602046E3E700005006002047
:1023E0002C010020E439002010B50848006800687E
:1023F00000F0010008B1002010BD00200349096869
:102400004862024807F0ECFDF6E70000DC0A002015
:1024100070B5064616B9BFEE000A70BD30460AF028
:10242000CBFAFF20FFF702FC0404FF20FFF7FEFBBE
:1024300044EA0024FF20FFF7F9FB044330460AF08A
:10244000B3FA04F4000010B144F07F4500E02546E3
:1024500000EE105AB8EEC00ADFED040A60EE200A62
:102460009FED031A80EE810AD7E7000000007A454D
:102470000000804B10B5044604B910BD1E48C0686A
:10248000B0F5E06F05D04FF4E0611B48C16007F084
:10249000CBF9A1880122206805F0F8FF20460AF058
:1024A0008BFA0620FFF7C2FB20460AF07DFA0120D6
:1024B0000CF0A6FD322200212046FFF7C9FB0422C2
:1024C00001212046FFF7C4FB542202212046FFF7DA
:1024D000BFFB202203212046FFF7BAFB01200CF0AE
:1024E0008FFD20460AF068FA0820FFF79FFB204680
:1024F0000AF05AFA00BFC0E74809002010B50024CE
:102500000CE0104A02EB041291880E4A02EB04120E
:102510001068012205F0BAFF601CC4B2002CF0D094
:1025200064200CF06DFD002409E0064901EB041065
:10253000FFF7A0FF0A200CF063FD601CC4B2002C62
:10254000F3D010BD2424010810B504460CB90020B6
:1025500010BDA189A06805F087FF08B90120F7E741
:102560000020F5E7F0EE400A9FED4F1AF0EE413AF9
:102570009FED4E1AB0EE414A9FED4D1AF0EE414AE2
:102580009FED4C1AB0EE415A9FED471A30EEC11A3A
:10259000DFED491A81EE212AB0EE420A9FED471A7B
:1025A000B4EEC10AF1EE10FA03DD9FED441AB0EE6D
:1025B000410A9FED431AB4EEC10AF1EE10FA03D2BC
:1025C0009FED3F1AB0EE410A002069E0B5EEC00A67
:1025D000F1EE10FA1ADB9FED353AF7EE002A43EEE2
:1025E000002A9FED333A20EE033A43EE002A9FED96
:1025F0002E3A22EE831ADFED2D2A9FED323A43EE7A
:10260000002A9FED293A62EE831A36E060EE005A06
:10261000F0EE652A62EE805AB0EE653A9FED236ACD
:10262000F7EE005A46EE005A9FED216A46EE225A16
:102630009FED256A30EE466ADFED1E6A26EE266AB9
:1026400046EE035A9FED186A25EE861AF1EE005AFF
:1026500023EE256ADFED1D5A05EEE26ADFED135A1F
:10266000DFED186A46EE805ADFED126A46EE865AB2
:102670009FED0D6A65EE861A00BF70EEC12A82EEEC
:10268000A12A70EE022AB0EE620AF0EEC22A9FED95
:10269000103AF4EEC32AF1EE10FA00D202E0401C28
:1026A000052893DB00BF704700007A443211803B5D
:1026B0007F051BB51D2D93AC96217A4000805444B4
:1026C000000048C37F059BB50000C8420000964348
:1026D00017B7D1382DE9F0412DED068B94B00CF0F1
:1026E0009EFC06462F480068301AB0F57A7F04D267
:1026F00014B0BDEC068BBDE8F0812A4806600025C9
:102700004BE0294800EB0510877B274901EB0510BA
:10271000FFF71AFF88B93B4624A2402104A8FDF721
:10272000D5FE0446002C07DD402C05DAA2B21423A6
:1027300004A9254808F0E2FD2DE01B4901EB051036
:10274000FFF766FEB0EE408AB0EE480AFFF70AFFD8
:1027500010EE108A40460FF061FB41EC190B18EEA9
:10276000100A0FF05BFB41EC1A0B8DED029B8DED17
:1027700000AB3B4615A2402104A8FDF7A7FE044686
:10278000002C07DD402C05DAA2B2142304A90E4860
:1027900008F0B4FD00BF681CC5B2002DB1D000BF69
:1027A000A6E70000480400202424010841445331D6
:1027B0003232302C434825752C4E4F545F524541E0
:1027C00044590D0A00000000BC0B00204144533165
:1027D0003232302C434825752C523A252E31662C46
:1027E000543A252E32660D0A00000000F0EE400A31
:1027F000F5EEC00AF1EE10FA02D2B1EE600A7047AF
:10280000B0EE600AFBE70000002032E000EB400180
:10281000284A12F83110284A115400EB4001254A89
:1028200002EBC10191ED020A244901EB800181ED27
:10283000000A00EB400102EBC10191ED010A2049C1
:1028400001EB800181ED000A00EB400102EBC101C8
:1028500091ED030A1B4901EB800181ED000A00EBB9
:10286000400102EBC101098A174A22F81010411CED
:10287000C8B20228CAD3002019E0144901EB800134
:1028800091ED000A124901EB800181ED000A114926
:1028900001EB800191ED000A0F4901EB800181ED10
:1028A000000A0E49095C0E4A1154411CC8B20428A2
:1028B000E3D37047FC3B0020240200202C020020C0
:1028C000340200203C02002026020020B803002031
:1028D00044020020DC3C0020843A0020B4030020A5
:1028E00054020020F8B504460F46052C00D3F8BD6D
:1028F00025480470254807700120254908552548BA
:1029000050F82400401C234941F824002248007854
:1029100000B1ECE7204603F079F9064606B9E6E790
:102920001E481F4B1F4A31460090204600F0FCFF16
:10293000054605F00300032801D1002004E004EB64
:102940004400174911F810001749085505F03F00D9
:102950003F2801D1002000E002201449085504EB73
:102960004400104911F810001149085504EB4400C7
:102970000C4901EB400040780E49085515B1012083
:102980000D49085500BFB2E79A0200209B020020C3
:10299000670200202C3B002018020020D3020020F8
:1029A000403B0020B5020020A1020020A60200202A
:1029B000AB020020B00200209C0200202DE9F84F5D
:1029C000044688464FF0000A052C02D30020BDE8DB
:1029D000F88F88480470884850F82400401C8649C5
:1029E00041F82400854800F8048085480470854833
:1029F00080F800800120844908550020834908554B
:102A00008349085583490855FF2083490855834960
:102A10000855002508E0FF2004EB4401804A02EB42
:102A200041014855681CC5B2062DF4D37D48007895
:102A300008B10020CBE7204603F0E8F807460FB9BD
:102A40000020C4E74FF000090FE0484603F0DEF82D
:102A50008346BBF1000F04D09FED730A584603F084
:102A60000BFB09F1010000F0FF09B9F1050FECD3F0
:102A70000020009002E00098401C00900098B0F503
:102A8000FA6FF8D369486A4B654A39460090204688
:102A900000F080FF064604EB4400614A02EB40016F
:102AA0003246204600F0E0FA90B30120584908551C
:102AB000604850F82400401C5E4941F82400022080
:102AC0005D4908555D4908555D4908555D480655FD
:102AD000002519E004EB4400514901EB4000405D42
:102AE00004EB4401584A02EB4101485504EB440011
:102AF0004F4901EB4000405D04EB4401534A02EBB7
:102B000041014855681CC5B2062DE3D300205EE79D
:102B1000FFE706F00300032801D1002004E004EBE6
:102B20004400434911F810004349085506F03F009E
:102B30003F2801D1002000E002204049085506F05E
:102B4000010048B304EB4400354911F810903248B5
:102B500000F8049006F0020030B104EB440001EBF1
:102B6000400040782D49085509F0320027490855A2
:102B7000484600F071FA82462F48005D34490855F6
:102B80002548005D334908552448005D3249085501
:102B900001203249085500BF36B3002519E004EB87
:102BA00044001F4901EB4000405D04EB4401264A0C
:102BB00002EB4101485504EB44001D4901EB400084
:102BC000405D04EB4401214A02EB41014855681C79
:102BD000C5B2062DE3D31B4806551848005D1849B9
:102BE000085501201D490855384603F0A1F8504604
:102BF000EDE60000D8020020603B0020D902002052
:102C00009A0200209B02002067020020F2020020AE
:102C10001A0300201F030020E8020020ED0200201C
:102C2000F702002018020020000000001503002019
:102C3000743B0020943B0020DE020020E3020020D1
:102C4000A6020020D3020020B5020020403B002055
:102C5000A1020020AB020020B00200209C02002054
:102C60002DE9F84305460E460027052D00D20EB982
:102C7000BDE8F883002417E0FF2000906A46214653
:102C8000304603F0D0F980469DF80000C5EBC50141
:102C90000A4A11440855B8F1000F03D10120A040A1
:102CA000C0B20743601CC4B2062CE5D3C5EBC50017
:102CB00002490844877100BFDAE7000024030020BE
:102CC0002DE9F84305460E460027052D00D20EB922
:102CD000BDE8F88300241EE0FF2005EB4501334AE0
:102CE00002EB41010855022005EB4501304A02EB99
:102CF00041010855002005EB45012E4A02EB8101F8
:102D000021F8140005EB45012B4A02EB810121F863
:102D10001400601CC4B2062CDED30020274948559D
:102D2000002431E0FF2000906A462146304603F03F
:102D30007AF9804605EB45001D4901EB400000F89B
:102D40000480B6F84C0005EB45011A4A02EB8101FC
:102D500021F81400B6F84E0005EB4501164A02EBC7
:102D6000810121F814009DF8000005EB45010F4A90
:102D700002EB41010855B8F1000F03D10120A0403A
:102D8000C0B20743601CC4B2062CCBD33F2F01D185
:102D9000002000E002200A4948553F2F01D10120C0
:102DA00000E000200549485500BF91E77602002069
:102DB000943A0020B23A0020EE3A00206C02002043
:102DC000710200202DE9F84306463048007808B12A
:102DD000BDE8F8832E480068301A642800D2F7E76F
:102DE0002B480660002447E04FF00008002507E06C
:102DF000FF20C4EBC401274A11444855681CC5B2E2
:102E0000062DF5D30020C4EBC401224A1144887179
:102E10002148005D00B92DE02048005D00B929E09F
:102E2000204602F0F3FE074607B923E0002518E02C
:102E3000FF2000906A462946384603F0F4F88146A0
:102E40009DF80000C4EBC401124A11444855B9F181
:102E5000000F04D10120A840C0B240EA0808681C55
:102E6000C5B2062DE4D3C4EBC4000A49084480F877
:102E7000068000BF601CC4B2052CB5D308480068AA
:102E8000401C0749086000BFA2E7000018020020AC
:102E9000B0030020470300205D02002062020020F2
:102EA0006C030020014611B940F2371070474FF40F
:102EB0009C70FBE7014609B9002070470220FCE73F
:102EC0000146022901D30020704701EB4100044A6A
:102ED00002EBC000008A08B10020F5E70120F3E70B
:102EE000FC3B00202DE9F04106462B48007808B154
:102EF000BDE8F08129480068301AB0F5FA7F00D2A9
:102F0000F6E726480660002441E02548005D00B948
:102F10003BE02448005D00B937E0204602F076FE31
:102F2000074607B931E0384602F09EFE054615B364
:102F300029462046FFF742FD00B926E0042C10D1B7
:102F400040F23B11002000F09FFF40F23B110120B6
:102F500000F09AFF002001F043F9012001F040F950
:102F600012E0012C08D840F23711002000F08CFF4D
:102F7000002001F035F907E04FF49C71012000F0CA
:102F800083FF012001F02CF900BF601CC4B2052CA6
:102F9000BBD300BFACE7000018020020AC03002048
:102FA0005D020020620200207047F0EE401AF4EE4D
:102FB000E01AF1EE10FA02D2B0EE600A7047F4EEB9
:102FC000C11AF1EE10FA02DDB0EE410AF6E7B0EEFA
:102FD000610AF3E72DE9F041044606ADE0CD052C8A
:102FE00001D3BDE8F081002013E011F800C004EB2C
:102FF000440805EB480808F800C012F800C004EBCC
:10300000440806EB480808F800C000F1010C0CF079
:10301000FF000628E9D33B5500BFE2E70246052A38
:1030200010D20A48805C68B102EB4200084B03EB07
:103030004000405CFF2805D002EB420003EB40005B
:10304000405C70470348405CFBE700006C020020D6
:103050007602002094020020014601F032020AB1FB
:10306000012070470020FCE72DE9F04107460C469F
:103070009046052F00D214B90120BDE8F081B8F1C7
:103080003F0F01D00120F8E72678FF2E01D1012063
:10309000F3E702250AE029463846FFF7BFFF615DE6
:1030A000884201D00120E8E7681CC5B2052DF2D99D
:1030B00006F0300018B1607808B90120DDE7002083
:1030C000DBE710B502460B46002107E0505C5C5C74
:1030D000A04201D0002010BD481CC1B20629F5D382
:1030E0000120F8E770B50446F0EE400A042C02D344
:1030F0009FED460A70BD62088B255543444E06EB92
:103100008505291D04F001052DB98B25554306EBD6
:103110008505BC3506E08B2555433D4E06EB850500
:1031200005F5BA752B468B255543394E16F82550B3
:1031300015B99FED360ADDE793ED000AB4EEE00A1B
:10314000F1EE10FA02DB91ED000AD3E793ED2D0AC0
:10315000B4EEE00AF1EE10FA02D891ED2D0AC9E7BB
:10316000002039E003EB800595ED000AB0EE401A2F
:10317000451C03EB850595ED000AF0EE401AF4EED0
:10318000C11AF1EE10FA00D824E0F4EEC10AF1EE13
:1031900010FA1EDBF4EEE10AF1EE10FA19D830EE67
:1031A000C10A71EEC12A80EE223AB0EE432A451CD4
:1031B00001EB850595ED000A01EB8005D5ED002AB0
:1031C00070EE622A01EB800595ED000A02EE820A9C
:1031D00090E700BF451CE8B22D28C3D3012010E0C2
:1031E00003EB800595ED000AB4EEE00AF1EE10FA6B
:1031F00005DD451E01EB850595ED000A7AE7451CC6
:10320000E8B22E28ECD391ED2D0A73E70000000000
:10321000703D002070B50E480578022D01D30A20BC
:1032200070BD2846FFF746FE04460A48005D08B117
:103230000A20F5E7601CC0B20649085C08B10A2004
:10324000EEE70448007908B10A20E9E70020E7E743
:10325000FB0300206702002010B5002202210C2091
:103260000BF070FF994908600846006818B9012002
:103270009749087010BD00243AE0002004EB440197
:10328000944A02F8310004EB440102EBC10148709A
:1032900004EB440102EBC101887004EB440102EB32
:1032A000C101C870BAEE040A04EB4400114601EBF8
:1032B000C00080ED010AB3EE090A04EB440001EB03
:1032C000C00080ED020A9FED840A04EB440001EB8C
:1032D000C00080ED030A002004EB440102EBC101B1
:1032E000088204EB440102EBC1014861601CC4B2D6
:1032F000022CC2D300243BE0002078490855B3EEED
:10330000090A774800EB840080ED000A9FED720AFD
:10331000744800EB840080ED000A0020724941F8F7
:103320002400724941F8240004EB440101EBC4017C
:103330006F4A02EB8100DFED6F1A9FED671ADFED38
:103340006E0A9FED6E0A09F001F804EB440101EBEF
:10335000C401674A02EB8100DFED691A9FED691A2B
:10336000DFED670A9FED670A09F02EF8601CC4B212
:10337000042CC1D3002495E00021634A1155634A0F
:1033800042F82410624A1155624A1155624A115599
:10339000FF21624A1155624A11550021614A1155B7
:1033A00000200FE0FF2104EB44025F4B03EB4202DD
:1033B0001154002104EB44025C4B03EB4202115414
:1033C000411CC8B20628EDD30021594A1155594A6B
:1033D000115500201DE0FF2104EB4402564B03EB86
:1033E00042021154002104EB4402544B03EB42020D
:1033F000115404EB4402524B03EB820222F81010EA
:1034000004EB44024F4B03EB820222F81010411CE4
:10341000C8B20628DFD300214B4A42F824104B4A99
:1034200011554B4A11554B4A1155FF214A4A115526
:103430004A4A115500214A4A11554A4A11554A4AE9
:1034400011554A4A42F82410494A115500201AE001
:10345000FF2104EB4402474B03EB420211540021CD
:1034600004EB4402444B03EB42021154FF21C4EB32
:10347000C402424B1A441154C4EBC402404B1A44D8
:103480001154411CC8B20628E2D30021C4EBC40287
:103490003A4B1A449171C4EBC402394B1A449171EE
:1034A000601CC4B2052CFFF467AF002035490860EA
:1034B0003549086000F07AF8012000F077F8FFF74E
:1034C000A3F900200249087000BFD3E6A80300203A
:1034D0001A020020FC3B002000000000B403002082
:1034E000B8030020DC3C0020EC3C0020FC3C002029
:1034F0002C3C0020CDCC4C3E0AD7233CCDCCCC3D3F
:103500003333B33E3333B3BE9C0200202C3B002048
:10351000A1020020A602002062020020AB020020CF
:10352000B0020020D3020020B5020020403B002062
:103530006C0200207102002076020020943A0020E4
:10354000B23A0020EE3A0020603B0020D902002071
:10355000DE020020E3020020E8020020ED0200204D
:10356000F2020020150300201A030020943B0020E3
:103570001F030020F7020020743B002024030020DA
:1035800047030020B00300206C0300200146792986
:1035900007D07A2905D07B2903D07C2901D0842942
:1035A00001D1012070470020FCE7000070B5ADF5A7
:1035B0003C7D0546022D02D30DF53C7D70BD0021FA
:1035C0008B206843244A02F820104FF43B7101A875
:1035D000FDF76BF901A9284601F068FD064606B122
:1035E000EAE700242DE003A800EB041090ED000AA8
:1035F0008B206843184901EB8000001D00EB84001C
:1036000080ED000A03A800EB041090ED010A8B2066
:10361000684301EB8000BC3000EB840080ED000AC1
:1036200003A800EB041090ED020A8B20684301EB25
:10363000800000F5BA7000EB840080ED000A601C89
:10364000C4B22E2CCFD301218B206843024A02F84A
:10365000201000BFB0E70000703D002010B54FF013
:10366000FF31024800680BF0FDFD10BD5400002042
:1036700038B505460C46022C00D338BD0D4800680D
:1036800028B90D480068401C0B490860F5E78DF823
:1036900000508DF8014000231A466946054800682D
:1036A0000BF09EFD20B104480068401C02490860F0
:1036B00000BFE2E7A8030020200200202DE9F0412E
:1036C00004460125052C02D30120BDE8F0812E48D7
:1036D000007840B101202D4908552D49085500209A
:1036E0002C490855F1E72948005D08B10020ECE7B6
:1036F000204602F08BFA07460FB90120E5E70126C4
:103700002BE025480655204602F090FA05461DB9E3
:10371000204602F03DFA05462DB940F6E441384610
:1037200002F01EFD05461DB9384602F001FB0546B4
:103730003DB9384602F06FFC39462046FFF7C0FA23
:103740000DE029462046FFF7CDF8384602F034FD5B
:1037500005200BF055FC701CC6B2032ED1D900BF5A
:103760000DB9012000E00020084908550DB90120DD
:1037700000E00020064908550DB1012000E00020BE
:10378000044908552846A0E7180200205D020020E1
:1037900062020020670200205802002008B515E0F0
:1037A0009DF80100022800D310E09DF8000020B928
:1037B0009DF8010000F044FC07E09DF8000001289E
:1037C00003D19DF8010000F00BFD00BF0648006822
:1037D00040B100231A466946034800680BF072FCAA
:1037E0000028DDD008BD0000A80300202DE9F84323
:1037F00007463348007808B1BDE8F88331480068CF
:10380000381AC82800D2F7E72E48076000244DE098
:103810000026002508E0FF2004EB44012A4A02EBC1
:1038200041014855681CC5B2062DF4D30020274934
:103830000855012026490855204602F0E7F9804640
:10384000B8F1000F00D12FE0002520E0FF2000900C
:103850006A462946404602F0E6FB81469DF8000094
:1038600004EB4401184A02EB41014855B9F1000F3D
:1038700004D10120A840C0B2064306E01448005D10
:10388000012802D1124800F80490681CC5B2062D28
:10389000DCD30E48065536B13F2E01D1002000E0A2
:1038A00002200B49085500BF601CC4B2052CAFD3E1
:1038B00008480068401C0749086000BF9CE70000FA
:1038C00018020020D0030020800300209E03002067
:1038D000A30300207C0300202DE9F84305460E4693
:1038E00017464FF0000815B90020BDE8F883002402
:1038F00016E0FF2000906A462146284602F093FB1E
:1039000081469DF80000305507F80490B9F1000F8A
:1039100004D10120A040C0B240EA0808601CC4B233
:10392000062CE6D34046E0E72DE9F84F05460E4663
:1039300090469946DDF828B00027052D00D216B92B
:103940000020BDE8F88F00241DE0FF2000906A46AB
:103950002146304602F067FB824605EB450009EB45
:10396000400000F804A09DF8000005EB450108EBBD
:1039700041010855BAF1000F03D10120A040C0B2A7
:103980000743601CC4B2062CDFD30BF80570384621
:10399000D7E700002DE9F04F8FB00446894617465F
:1039A0009846DDF860A0002533A103C9CDE90D01DB
:1039B00031A103C9CDE90B01002009900A900790BD
:1039C0000890069000260590834643E009AA0DA9B9
:1039D0004846FFF781FF05462A460DA92046FFF716
:1039E00043FB0490049808B100262FE0069838B1F4
:1039F0000DA90BA8FFF765FB10B1701CC6B212E051
:103A0000002009E00DA9095C0BAA115409A9095C61
:103A100007AA1154411CC8B20628F3D3012106910C
:103A20000126059500BF022E0FD38DE8800507AA59
:103A30000BA92046059BFFF7CDFA052C01D21048B3
:103A4000065505980FB0BDE8F08F00BF0BF10100DF
:103A500000F0FF0BBBF1080FB8D32B4609AA0DA944
:103A600020468DE88005FFF7B5FA052C01D2044801
:103A700006552846E6E70000FFFFFFFFFFFF0000B6
:103A80001F03002001460C48007808B10020704751
:103A90000A480068081A40F2DC52904201D2002025
:103AA000F5E701F11400064A1060044801600120A6
:103AB000014A107000BFEAE774030020CC03002025
:103AC000C80300202DE9F0472DED048B4FF00009CD
:103AD000002508E12846FFF7EDF9064605EB45000D
:103AE000914911F8300028B105EB450001EBC00009
:103AF000008A48B19FED8D0A05EB45008A4901EB2C
:103B0000C00080ED030AECE04FF00109002005EB56
:103B10004501854A02EBC10188703446C2E0844801
:103B2000005D00B9BCE00020814908550BF077FA30
:103B30008046804850F82400A8EB000787B17D48F4
:103B400050F8240060B100EE107AB8EE400ADFEDC4
:103B50007A0A80EE801A794800EB840080ED001A22
:103B6000744840F82480764850F8240008B30BF0DD
:103B700056FA734951F82410401A00EE100AB8EEB4
:103B8000400ADFED700A20EE200AF0EE408AB7EE20
:103B9000001ADFED6D0AB0EE680AFFF706FA04EBD3
:103BA000440000EBC400694901EB800080ED0A0A83
:103BB0000AE09FED670A04EB440000EBC400634990
:103BC00001EB800080ED0A0A0BF029FA5C4941F80C
:103BD000240005EB4501544A02EBC101D1ED010A75
:103BE000B0EE600A04EB440101EBC401574A02EB5A
:103BF000810008F0F5FB05EB45004B4901EBC000E7
:103C0000D0ED010AB0EE600A2046FFF76BFAF0EE45
:103C1000408A504901EB8401D1ED000AB0EE600A00
:103C200004EB440101EBC401484A02EB810008F0B7
:103C30001FFBB1EE400AB0EE409A78EE890AB0EE72
:103C4000600A9FED451ADFED450AFFF7AEF9B0EEC9
:103C5000408AB0EE480AFEF7C9FDDFED3A0AB4EE3D
:103C6000E00AF1EE10FA03D29FED300AB0EE408A7E
:103C70003B4800EB840080ED008AB0EE480A204605
:103C800000F03AF958B12846FFF70CF907463946D3
:103C9000284600F0F9F8284600F0A2FA07E000BF35
:103CA000601CC4B2701CC0B2A042BFF638AF00BFE7
:103CB0002B4800EB860090ED000A2949701C01EBAF
:103CC0008000D0ED000A30EE200AF6EE000A20EE69
:103CD000200A05EB4500144901EBC00080ED030A02
:103CE00000BF681CC5B2022DFFF4F4AEB9F1000F9D
:103CF00015D09FED1C0A042000F0FEF878B140F2C8
:103D00003B11002000F0C0F840F23B11012000F010
:103D1000BBF8002000F064FA012000F061FABDEC6D
:103D2000048BBDE8F0870000FC3B00200000000091
:103D3000B40300203C3D002000007A44D83B002022
:103D4000FC3C00206F12833A0AD7A33C2C3C002095
:103D5000CDCC4C3DB80300203333B33E3333B3BE38
:103D6000DC3C0020CDCC4C3E2DE9F0410646002441
:103D70005BE004EB44002F4901EBC000008A0028FF
:103D800051D004EB440001EBC000406900284AD048
:103D900004EB440001EBC0004069301A41F2883165
:103DA000884240D3002004EB4401224A02F831004B
:103DB00004EB440102EBC101487004EB440102EB47
:103DC000C101887004EB440102EBC101C8709FED92
:103DD0001A0A04EB4400114601EBC00080ED030A0F
:103DE0002046FFF767F807463D4614E005EB45011E
:103DF00001EBC501114A02EB810008F0D3FA002063
:103E00000F4948559FED0C0A0E4800EB850080EDE8
:103E1000000A681CC5B2781CC0B2A842E6DA0021CC
:103E2000204600F031F8601CC4B2022CA1D3BDE8DA
:103E3000F0810000FC3B0020000000002C3C002032
:103E4000B4030020DC3C002010B504460A4800788A
:103E500088B10A480068201AB0F1004F0BD2002048
:103E600005490870064806F0B5FE4FF48072054912
:103E7000034806F0D7FD10BD74030020C8030020DE
:103E8000280B00207C04002070B504460D46022C4F
:103E900000D370BD85B104EB4400144901EBC000B0
:103EA000008AA84208D00BF0BAF804EB44010F4A8C
:103EB00002EBC101486107E035B9002004EB440181
:103EC0000A4A02EBC101486104EB4400074901EBD7
:103ED000C0000582064820F814502846FFF756FB1C
:103EE00010B9FF200349085500BFD2E7FC3B002072
:103EF000260200207203002070B52DED028B0546CE
:103F0000B0EE408A052D03D30120BDEC028B70BDBD
:103F10003048007808B10020F7E7B0EE480AFEF715
:103F200065FCDFED2D0AB4EEE00AF1EE10FA04D2E2
:103F30002A48405D08B90020E7E7284601F066FE00
:103F400006460EB90120E0E72846FFF7B7FB044616
:103F50000CB12046D9E72148405D70BB304602F0E5
:103F60008EF9044644B100201C4948552146284694
:103F7000FEF7B8FC2046C8E7284601F009FE0446D3
:103F80002CB940F6E441304602F0EAF804461CB988
:103F9000304601F0CDFE044614B9304602F03BF83D
:103FA00044B100200D49485521462846FEF79AFCA9
:103FB0002046AAE7012009494855B0EE480A304694
:103FC00002F05AF804461CB121462846FEF78AFC46
:103FD00020469AE7180200206F12833A62020020FE
:103FE0000448007810B90348007E08B101207047EA
:103FF0000020FCE7FC3B002070B50546052D02D2F1
:104000000C48007800B170BD284601F0FFFD044661
:1040100074B19FED090A204602F02EF82146284689
:10402000FEF71EFE204602F0C7F80020034948555F
:1040300000BFE8E718020020000000006202002034
:104040002DE9F0410546022D01D3BDE8F081284657
:10405000FEF736FF18B9284600F0C2F8F5E7284603
:10406000FEF728FF044627462046FFF727FB0646B3
:1040700036B9601CC7B2611CC8B2FFF71FFB064609
:1040800026B904270420FFF719FB0646F6B1042FD2
:1040900010D140F23B110020FFF7F6FE40F23B1139
:1040A0000120FFF7F1FE002000F09AF8012000F057
:1040B00097F80AE02846FEF7F5FE80464146284676
:1040C000FFF7E2FE284600F08BF8BEE704EB440160
:1040D00001EBC4013A4A02EB810008F063F9611C6C
:1040E00001EB410202EBC101354A02EB810008F00D
:1040F00059F905EB4501334A02EBC101D1ED010A43
:10410000B0EE600A04EB440101EBC4012C4A02EB5F
:10411000810008F065F905EB45012A4A02EBC1016F
:10412000D1ED010AB0EE600A611C01EB410202EB25
:10413000C101234A02EB810008F052F9224850F8ED
:104140002400224941F824001F49601C51F8201026
:104150001E4A42F820100AF062FF1D4941F824006F
:10416000084650F824100246601C42F82010002037
:10417000184908550021174A601C11549FED160A72
:10418000164800EB840080ED000A9FED130A1349E6
:10419000601C01EB800080ED000A002005EB45016A
:1041A000084A02EBC1018870012005EB450102F8C5
:1041B000310005EB450102EBC101487000BF44E747
:1041C0002C3C0020FC3B00205C040020EC3C002048
:1041D000FC3C0020B403002000000000DC3C002078
:1041E00070B50546022D00D370BD2846FEF762FE6D
:1041F0000446002005EB45012E4A02F8310005EB8C
:10420000450102EBC101487005EB450102EBC1011C
:1042100088709FED290A05EB4500114601EBC000AF
:1042200080ED030A04EB440101EBC401234A02EBD5
:10423000810008F0B7F8611C01EB410202EBC101FB
:104240001E4A02EB810008F0ADF800201C49085519
:1042500000211B4A601C11549FED170A194800EBFE
:10426000840080ED000A9FED140A1649601C01EBE2
:10427000800080ED000A9FED100A2046FFF73CFE0B
:10428000611CC8B29FED0C0AFFF736FE2046FFF70F
:10429000B3FE611CC8B2FFF7AFFEFFF7A1FE38B94D
:1042A0009FED050A0420FFF727FE0420FFF7A4FE78
:1042B00000BF99E7FC3B0020000000002C3C0020E0
:1042C000B4030020DC3C00202DE9F0412DED028BF1
:1042D0000646FFF7C3F98048007800287ED07F4863
:1042E0000078002853D1002449E0204601F09EFCCC
:1042F00005461DB9204601F04BFC0546CDB92046C8
:1043000001F084FC07469FB140F6E441384601F0D5
:1043100027FF384601F00CFD384601F07CFE394697
:104320002046FEF7CDFC042C02D0384601F044FFB5
:1043300000BF0DB9012000E00020694908559FED3C
:10434000690A694800EB840080ED000A0020674993
:104350000870674840F824600DB9012000E0002093
:10436000644908551DB9042C01D1012000E000204A
:1043700061490855002061490855601CC4B2052CEC
:10438000B3D30120554908705849087000BF5748F9
:104390000078012859D104245148005D80B320469B
:1043A00001F034FC054665B3514850F82400301A3A
:1043B000B0F5FA6F3FD34E4840F824604A4800EB0E
:1043C000840090ED000A4E48005700EE900AF8EE87
:1043D000E00A9FED4C1A01EE200A00E036E0B0EE54
:1043E000408A9FED490AB4EEC08AF1EE10FA09DB6B
:1043F0009FED450AB0EE408AFF20414908550FE085
:104400001AE018E09FED410AB4EEC08AF1EE10FA0E
:1044100006D89FED3E0AB0EE408A01203849085583
:10442000314800EB840080ED008AB0EE480A28464F
:1044300001F022FE00BF00BF3046FEF753FD3046BC
:10444000FEF7C0FC3046FFF7D1F933E03048007882
:1044500080B101202F4908703046FEF743FDFEF77A
:10446000D9FE044614B1204600F098FC304600F016
:10447000AFFF00BF26480078E0B92648007838B181
:10448000002024490870FFF791F80120FFF78EF80B
:104490003046FFF7D9FCFFF781F9304600F0B2F85B
:1044A000FEF782FD3046FEF71DFD3046FFF75CFC4F
:1044B000FFF708FB304600F02FFAFEF70BF9FEF786
:1044C000A3F915480068401C1349086000F054F82F
:1044D000BDEC028BBDE8F08175030020D8030020FD
:1044E0007703002000000000E83B00207603002056
:1044F0005C3D00205D020020620200206702002077
:10450000D9030020CDCC4C3D3333B33E3333B3BE5F
:10451000F8030020DE0300201C02002010B5044632
:10452000042C01D3002010BD085D08B10020FAE77B
:1045300052F8240008B90020F5E70448005D1E2861
:1045400001D30020EFE70120EDE70000D4030020B5
:10455000014631B1012906D0022906D0032908D12C
:1045600005E0792070477A20FCE77B20FAE77C2081
:10457000F8E78420F6E7000010B5024800680AF06A
:10458000FBFE10BD54000020FEB505460E4605B9E1
:10459000FEBDFFF763F8002414E004EB4400184963
:1045A00001EBC00090ED020A01A800EB840080ED51
:1045B000000A04EB440001EBC000008A2DF814004F
:1045C000601CC4B2022CE8D3FFF7D6FF002413E02E
:1045D00001A800EB8400D0ED000AB0EE600A32467C
:1045E0002146284609F0F0FD3DF8142021462846D2
:1045F00009F052FD601CC4B2022CE9D300BFC7E72A
:10460000FC3B00202DE9F04F8FB0804600246BE08A
:10461000AF4800EB840090ED000A0BA800EB84008B
:1046200080ED000AAB48005D0AA90855AA4850F879
:10463000240006A941F82400A84850F8240002A943
:1046400041F8240006A850F82400A54941F82400A8
:1046500002A850F82400A34941F8240006A850F805
:104660002400A14951F82410884209D006A850F826
:1046700024009D4941F8240000209C49085508E089
:104680009A48005D1E2804D29848005D401C974956
:10469000085506A850F82400954951F8241088427E
:1046A00020D0944951F82410A8EB010080B1914921
:1046B00051F8241061B100EE100AB8EE400ADFEDA7
:1046C0008E0A80EE801A8D4901EB840181ED001A7B
:1046D00006A951F82410864A42F82410854941F869
:1046E000248000BF601CC4B2042C91D30025E9E0F3
:1046F0006806060E701CC7B2434606AA0AA93046D1
:10470000FFF70CFF8146434606AA0AA93846FFF781
:1047100005FF8246B9F1000F44D0BAF1000F41D035
:104720000BA800EB860090ED000A0BA800EB8700B9
:10473000D0ED000A30EE200AF6EE000A20EE200A44
:1047400005EB45006E4901EBC00080ED020A05EB68
:1047500045016B4A02EBC101088AFEF717FF30B131
:10476000FF206849485500212846FFF78DFB05EBDF
:104770004500634901EBC000C07858B105EB450026
:1047800001EBC000C078401E05EB45015C4A02EB1E
:10479000C101C8705C48405D20B15B48405D401E6F
:1047A00059494855B9F1000F20D00BA800EB8600FD
:1047B00090ED000A554800EB860080ED000A06A83F
:1047C00050F82600524951F8261088420ED006A80B
:1047D00050F826004E4941F8260001204D498855E1
:1047E00005EB4501464A02EBC1018870BAF1000FA2
:1047F00020D00BA800EB870090ED000A434800EBA7
:10480000870080ED000A06A850F82700404951F8BB
:10481000271088420ED006A850F827003C4941F8DE
:10482000270001203B49C85505EB4501344A02EBFE
:10483000C101887005EB4500314911F8300000B91D
:104840003EE0B9F1000F02D0BAF1000F37D1B9F153
:10485000000F01D1304600E03846834605EB4500A5
:10486000274901EBC000C078032819D24046FFF762
:1048700009F918B305EB4500214901EBC000C078E8
:10488000401C05EB45011E4A02EBC101C87005EB57
:104890004500114601EBC000C0781B4948550DE0AA
:1048A000184800F805B05846FFF752FE014601903F
:1048B0002846FFF7E9FA2846FFF792FC00BF00BF41
:1048C000681CC5B2022DFFF413AF0FB0BDE8F08F26
:1048D0004C040020090000205C0400206C0400202F
:1048E000B83B0020A83B00204C3D0020D403002012
:1048F0000C3D00201C3D002000007A44C83B0020F5
:10490000FC3B00207203002070030020B80300204D
:10491000EC3C0020B403002010B5044607480068B2
:10492000201AB0F57A7F00D210BD044804604FF41D
:104930008061034803F0A0FD00BFF5E7E00300201D
:104940000004004830B52DED0C8BC3B0054642483D
:10495000007830B100204149087043B0BDEC0C8BA9
:1049600030BD3E48007828B901203C4908703CA081
:1049700000F08EF83F480068281AB0F57A7F00D220
:10498000EBE73C4805603C4890ED010A10EE101A38
:1049900008460DF043FA41EC180B384890ED010A37
:1049A00010EE101A08460DF039FA41EC190B344894
:1049B00090ED010A10EE101A08460DF02FFA41ECA6
:1049C0001A0B2D4890ED000A10EE101A08460DF053
:1049D00025FA41EC1B0B294890ED000A10EE101A45
:1049E00008460DF01BFA41EC1C0B254890ED000A1F
:1049F00010EE101A08460DF011FA41EC1D0B21487B
:104A0000C068204989681F4A52681E4B1B68CDE95F
:104A10000E32CDE910108DED0C8B8DED0A9B8DEDD6
:104A200008AB1948407806908DED04BB8DED02CBA4
:104A30008DED00DB14480378144AC02113A8FBF75E
:104A400045FD0446002C04DDC02C02DA13A800F05A
:104A50001FF800BF81E70000F80300206400002079
:104A60004150502C4E4F524D414C5F535441525483
:104A70000D0A0000600000203C02002034020020EB
:104A80002C020020B83B002024020020142501083D
:104A900070B504460026254604B970BD02E0701CBE
:104AA00086B26D1C28780028F9D12EB11423324625
:104AB0002146024806F022FC00BFEEE7BC0B0020B6
:104AC00070B500201649096848631549096888636C
:104AD00013490968C86312490968086411490968DB
:104AE00048630F480068C56A681C40080E490860A2
:104AF000084600680A49096888640020094909686D
:104B00004862074909684862064800F00FF8044601
:104B10000CB1204670BD024800F008F8FAE700002A
:104B2000AC090020F80900204400002010B504461C
:104B30002068006800F0010008B1002010BD204688
:104B400005F04EFAFAE700BFFEE7000030B5024676
:104B50000B464FF6FF7000210AE0545C84EA2024E3
:104B6000E4B2054D35F8144084EA0024A0B2491C93
:104B70009942F2D330BD00002422010800B5B0EE06
:104B8000402A0748006810B900F0C2F900BD044887
:104B900090ED000AF8EE400A82EE200AF6E70000E7
:104BA00028040020F0B52DED068BADF5637D07469A
:104BB000012F04D90DF5637DBDEC068BF0BD3B469E
:104BC00047A2802108A8FBF781FC0446002C04DDE5
:104BD000802C02DA08A800F085FD4FF43B7128A86C
:104BE000FBF763FE28A9384600F060FA06467EB15E
:104BF0003B4642A2802108A80096FBF767FC0446CA
:104C0000002C04DD802C02DA08A800F06BFDD1E74F
:104C1000BDF888039DF8A4103B4642A2CDE90010E0
:104C2000802108A8FBF752FC0446002C04DD802CF0
:104C300002DA08A800F056FD00253EE02AA800EBA5
:104C4000051090ED020A10EE101A08460DF0E6F875
:104C500041EC180B2AA800EB051090ED010A10EEAC
:104C6000101A08460DF0DAF841EC190B2AA800EBEF
:104C7000051090ED000A10EE101A08460DF0CEF85F
:104C800041EC1A0B2AA800EB0510007B06908DED75
:104C9000048B8DED029B8DED00AB2B462FA2802166
:104CA00008A8FBF713FC0446002C04DD802C02DA74
:104CB00008A800F017FD681CC5B22E2DBED33B46D8
:104CC0002FA2802108A8FBF701FC0446002C04DD7C
:104CD000802C02DA08A800F005FD00BF6AE700009A
:104CE00043414C49422C4C4F41442C43454C4C3A97
:104CF00025752C424547494E0D0A000043414C4959
:104D0000422C4C4F41442C43454C4C3A25752C4E7B
:104D10004F545F464F554E442C4552523A25750D1F
:104D20000A00000043414C49422C4C4F41442C4363
:104D3000454C4C3A25752C464F554E442C43454C1A
:104D40004C5F53544F5245443A25752C4352433AD5
:104D50003078253034580D0A0000000043414C499A
:104D6000422C535445502C25752C252B2E32662C65
:104D7000252E31662C252E31662C25750D0A000056
:104D800043414C49422C4C4F41442C43454C4C3AF6
:104D900025752C454E440D0A00000000074909788E
:104DA00001B9704700B90A20054908600521054A84
:104DB00011700021044A117000BFF2E7F8030020CF
:104DC000FC030020F90300200104002070B52DED44
:104DD000088B9EB00446464890ED000AFFF7CEFED1
:104DE000B0EE408A434890ED000AFFF7C7FEF0EEB0
:104DF000408A4148007800F0E5FA40483E49097889
:104E000000EB011080ED000A3C483B49097800EBBB
:104E1000011080ED018A39483749097800EB01100B
:104E2000C0ED028A0CB1012000E000203349324A73
:104E3000127801EB0211087330482F49097800EB12
:104E4000011044732C48007800F0BCFA10EE106A90
:104E500018EE900A0CF0E2FF41EC190B18EE100A64
:104E60000CF0DCFF41EC1A0B30460CF0D7FF41ECA4
:104E70001B0B0CB1012000E00020CDE908048DEDF2
:104E8000069B8DED04AB8DED02BB1B480078401CEA
:104E900000901B4803781B4A50210AA8FBF716FB19
:104EA0000546002D04DD502D02DA0AA800F01AFC98
:104EB00011480078401C104908700846007868B115
:104EC00000F026FC05461DB904200F49087004E0D7
:104ED0000E48056005200C49087004E000F092F8C7
:104EE0000220094908701EB0BDEC088B70BD00009F
:104EF0002004002024040020FA030020584400204D
:104F0000FB030020D0250108F9030020FC0300204A
:104F1000104B1A785306180E431CD9B20E4B03EBF4
:104F2000800393ED000AF0EE400A0B4B03EB810384
:104F300093ED000AB0EE401A084BC3ED000A084B8F
:104F400083ED001A30EE810AF6EE001A20EE210AF7
:104F500070470000FB0300204C04002004040020E4
:104F600008040020014609B9002070474FF4805022
:104F7000FBE7000070B52DED028B00F08DF820B935
:104F80009FED1D0ABDEC028B70BD1C4800881438D3
:104F90001421B0FBF1F201FB1204194800EB84006C
:104FA00090ED008A164800EB8400D0ED008A0125C0
:104FB0001CE060191421B0FBF1F201FB1200104952
:104FC00001EB8000D0ED000AB0EE600AB4EEC80A32
:104FD000F1EE10FA01DDB0EE408AB4EEE80AF1EE2F
:104FE00010FA01D2F0EE408A681C85B2142DE0D38D
:104FF00038EE680AC6E7000000C079441C040020AF
:105000003847002010B500200D4908600D490860A0
:105010000D4908700D4908809FED0D0A0D4880ED7F
:10502000000A9FED0B0A0C4880ED000A00200B4996
:1050300008600B49086050210A48FBF736FC10BD98
:105040000C04002010040020140400201C04002084
:105050000000000020040020240400202804002078
:105060002C04002038470020084802785006030E20
:10507000074850F8231007480068814203D00548CC
:105080000160012070470020FCE70000FB030020C6
:105090006C0400202C04002003480088142801D34D
:1050A000012070470020FCE71C0400202DE9F04798
:1050B00080460C464046FFF755FF814614B9012053
:1050C000BDE8F0874FF43B722146484601F0D0FA24
:1050D00005460DB10220F3E709492068884201D056
:1050E0000320EDE7B4F8E8724FF43A712046FFF779
:1050F0002DFD0646B74201D00420E1E70020DFE79E
:10510000455349422DE9F0432DED0C8BB9B00446CF
:105110003A48007820B939B0BDEC0C8BBDE8F0837B
:1051200037480068201AB0F57A7F00D2F3E7344898
:105130000460344806781EB9304600F043F901E0B7
:105140009FED310A10EE107AFFF7E2FEB0EE408AD2
:10515000FFF7A2FF10B1FFF70DFF01E0BFEE000A5D
:1051600010EE108A2948006808B9002002E027489C
:105170000068201A814640460CF050FE41EC190BA5
:1051800018EE100A0CF04AFE41EC1A0B204890ED84
:10519000000A10EE100A0CF041FE41EC1B0B1D48FA
:1051A00090ED000A10EE100A0CF038FE41EC1C0BDA
:1051B00038460CF033FE41EC1D0BCDF830908DEDF0
:1051C0000A9B8DED08AB8DED06BB8DED04CB8DED0F
:1051D00002DB11480078CDE9000610480378104A38
:1051E000B0210DA8FBF772F90546002D04DDB02DA6
:1051F00002DA0DA800F076FA00BF8CE7F803002071
:1052000030040020FA030020000000000C040020FD
:105210000804002004040020FB030020F903002000
:1052200018260108084800881421B0FBF1F201FBA0
:105230001200064901EB800080ED000A0248008858
:10524000401C0149088070471C040020384700209A
:1052500070B52DED028B0E48007800F0B3F8B0EE7B
:10526000408A0C4805786806040EB0EE480A2046CD
:10527000FEF742FE611CC8B2B0EE480AFEF73CFEE3
:105280009FED050A0420FEF737FEBDEC028B70BDD2
:10529000FA030020FB030020CDCC4C3E30B58BB090
:1052A0000446012C04D923A000F01CFA0BB030BD39
:1052B0002848007830B102202749086027A000F074
:1052C00011FAF3E72C48047000202C490870224999
:1052D000086001202A4908701E4908702949087091
:1052E000294908709FED290A294880ED000A9FEDA1
:1052F000270A284880ED000A00202749086027492E
:10530000087027490870274908704FF438712648FB
:10531000FBF7CBFA234625A2282101A8FBF7D6F8F4
:105320000546002D04DD282D02DA01A800F0DAF987
:1053300000BFBBE743414C49422C53544152545F98
:1053400052454A4543542C4241445F43454C4C0D21
:105350000A000000F8030020FC03002043414C49F0
:10536000422C53544152545F52454A4543542C41B8
:1053700043544956450D0A00FB030020FA03002060
:10538000F9030020010400200004002000000000B8
:10539000040400200804002030040020340400200D
:1053A00035040020360400205844002043414C4975
:1053B000422C53544152542C43454C4C3A25750DC4
:1053C0000A0000009FED010A704700000000000085
:1053D000F0B52DED028B95B004462046FFF792FE06
:1053E0008C48007806287DD2DFE800F003041B42D9
:1053F000AADB09E101F0E0F8FFF704FE8648037834
:1054000086A228210BA8FBF761F80546002D04DDD4
:10541000282D02DA0BA800F065F902207D490870FA
:10542000F2E0FFF715FF8348046083480078FFF738
:10543000C9FF10EE106A30460CF0F0FC41EC180B7E
:105440008DED028B7C4800780090734803787BA236
:10545000402105A8FBF73AF80546002D04DD402D54
:1054600002DA05A800F03EF903206A490870CBE093
:1054700070480068251A42F21070854203D300205C
:10548000FFF7A4FCC0E0FFF7EFFD00B9BCE0FFF7B9
:105490003FFDB0EE408AB0EE480AFFF7C3FEFFF7CB
:1054A000FBFDE8B3FFF766FDF0EE408A9FED6F0A63
:1054B000F4EEC08AF1EE10FA3DD26D48007898B94A
:1054C00001206B4908706B4804609FED6B0A6B48C4
:1054D00080ED000A9FED680A694880ED000A00200F
:1054E000684900E08FE00860644890ED000A664873
:1054F000D0ED000A30EE200A604880ED000A6048D6
:1055000090ED000A6148D0ED000A30EE200A5C48B8
:1055100080ED000A5B480068401C5A49086000E0C2
:105520000DE054480068201AB0F57A7F06D30120B8
:10553000FFF74CFC02E000204D49087000BF63E01B
:10554000354805786806060E9FED4B0A3046FEF793
:10555000D3FC711CC8B29FED480AFEF7CDFC9FED4D
:10556000460A0420FEF7C8FC4948007898B9012093
:10557000474908702E202B4646A23021009009A8EA
:10558000FAF7A4FF0746002F04DD302F02DA09A83E
:1055900000F0A8F800BF002046490870464908708E
:1055A00032E01D4805786806060E9FED330A304646
:1055B000FEF7A2FC711CC8B29FED2F0AFEF79CFCFF
:1055C0009FED2D0A0420FEF797FC3C480078A0B917
:1055D00001203A4908703A4800682B4639A2302128
:1055E000009009A8FAF772FF0746002F04DD302F5C
:1055F00002DA09A800F076F800BF00202D490870F3
:105600002D49087000E000BF00BF15B0BDEC028B53
:10561000F0BD0000F9030020FB03002043414C498A
:10562000422C494E49542C43454C4C3A25750D0AA1
:10563000000000000C040020FA03002043414C4904
:10564000422C535445505F53544152542C43454CC3
:105650004C3A25752C535445503A25752C445554D5
:10566000593A252B2E32660D0A00000000C07944FD
:10567000140400201004002000000000200400207A
:105680002404002028040020040400200804002032
:105690003404002043414C49422C444F4E452C4396
:1056A000454C4C3A25752C53544550533A25750DAD
:1056B0000A000000F8030020010400203504002047
:1056C000FC03002043414C49422C4641554C542C8C
:1056D00043454C4C3A25752C4552524F523A256C55
:1056E000750D0A0070B504460025264602E0681CC8
:1056F00085B2761C30780028F9D12DB114232A46C2
:105700002146024805F0FAFD70BD0000BC0B0020E8
:105710002DE9F04FADF5517D4FF43B7116A8FBF725
:10572000C4F867481690674800788DF85C0000253B
:1057300034E00DB9294600E000210846624901EB3A
:10574000001191ED000A18A901EB051181ED000A85
:105750005D4901EB001191ED010A18A901EB05115A
:1057600081ED010A584901EB001191ED020A18A9D7
:1057700001EB051181ED020A534901EB00110A7B8F
:1057800018A901EB05110A734F4901EB00114A7B7F
:1057900018A901EB05114A73681CC5B22E2DC8D398
:1057A0004FF43A7116A8FFF7D1F9ADF84003454818
:1057B0000078FFF7D7FB0746C7F3C729434817EB25
:1057C00000084048CDF80080037841A24FF0500116
:1057D00002A8FAF77BFE0446002C04DD502C02DA06
:1057E00002A8FFF77FFF09F06CFA824672B64846BE
:1057F00000F0C6FE0646504609F066FA33463FA260
:10580000502102A8FAF762FE0446002C04DD502C59
:1058100002DA02A8FFF766FF09F053FA824672B671
:10582000D8F800B0504609F04FFA43463CA2502148
:1058300002A8CDF800B0FAF749FE0446002C04DDBA
:10584000502C02DA02A8FFF74DFF002E2FD14FF4A3
:105850003B70434640A25021009002A8FAF736FE62
:105860000446002C04DD502C02DA02A8FFF73AFFB0
:1058700009F027FA824672B64FF43B7216A93846F1
:1058800000F020FF0646504609F01EFABDF840031E
:1058900033463CA25021009002A8FAF717FE0446B6
:1058A000002C04DD502C02DA02A8FFF71BFF26B102
:1058B00030460DF5517DBDE8F08F0020F9E700007E
:1058C00045534942FB0300205844002000E00308F0
:1058D00043414C49422C464C4153485F4552415349
:1058E000452C43454C4C3A25752C414444523A30A2
:1058F000782530386C580D0A0000000043414C49AF
:10590000422C464C4153485F45524153455F444FFA
:105910004E452C5354415455533A25750D0A0000F9
:1059200043414C49422C464C4153485F45524153F8
:10593000455F5645524946592C414444523A3078C5
:105940002530386C582C444154413A307825303851
:105950006C580D0A0000000043414C49422C464C53
:105960004153485F57524954452C414444523A30C0
:10597000782530386C582C53495A453A25750D0A0C
:105980000000000043414C49422C464C4153485FC3
:1059900057524954455F444F4E452C53544154553A
:1059A000533A25752C4352433A3078253034580DFC
:1059B0000A0000002DE9F04109F031FB0546002402
:1059C00043E0E0B206F0BCFD0746062F00D13BE005
:1059D0002048005D70B3204850F8240000B933E03F
:1059E0001D4850F824002E1AB6F5FA6F0BD31B4849
:1059F000005D40B92B4602223946194808F0B8F933
:105A0000012016490855B6F5FA7F12D3154850F80B
:105A1000240028B1134850F82400281A962808D3E7
:105A20002B46012239460E4808F0A2F90D4840F8ED
:105A3000245008E00020084941F82400094941F8B1
:105A400024000649085500BF641C062CB9DBBDE8DC
:105A5000F081000032440020A8050020250000202D
:105A600080430020C005002010B52DED028B0446B8
:105A7000B0EE408A022C02D3BDEC028B10BDFDF7C4
:105A8000EDFD04EB4400044901EBC00080ED018A08
:105A9000FEF772FD00BFEFE7FC3B002010B50446A7
:105AA00021460020FDF7E4FD10BD10B50446214657
:105AB0000120FDF7DDFD10BD10B5024802F086F9AA
:105AC00010BD00001C07002010B5024802F07EF94E
:105AD00010BD0000500C002010B5024802F076F90D
