:020000040800F2
:10000000280A00203502000861390008E935000897
:1000100081380008791500089144000800000000AC
:10002000000000000000000000000000B53D0008D6
:10003000DD15000800000000DD3B0008993E0008C7
:100040004F0200084F0200084F0200084F0200084C
:100050004F0200084F0200084F0200084F0200083C
:100060004F0200084F0200084F0200084F0200082C
:100070004F0200084F0200087D1500084F020008DB
:100080004F0200084F0200084F0200084F0200080C
:100090004F0200084F0200084F0200084F020008FC
:1000A0004F0200084F0200084F0200084F020008EC
:1000B0004F0200084F0200084F0200084F020008DC
:1000C0004F0200084F0200084F0200084F020008CC
:1000D0004F0200084F0200084F0200084F020008BC
:1000E0004F0200084F0200084F02000800F002F81B
:1000F00000F090F80AA090E8000C82448344AAF132
:100100000107DA4501D100F085F8AFF2090EBAE82F
:100110000F0013F0010F18BFFB1A43F0010318473B
:10012000BC580000DC580000103A24BF78C878C1E1
:10013000FAD8520724BF30C830C144BF04680C60ED
:10014000704700000023002400250026103A28BF35
:1001500078C1FBD8520728BF30C148BF0B60704739
:100160006E2900F08581702900F0C782662905F0AC
:100170006083652905F05D83672905F05A8361294D
:1001800005F0598303681B0A28BF41F080016929E3
:1001900000F03281642900F02F81752900F02C8154
:1001A0006F2900F05582782900F09382E92900F048
:1001B000EF81E42900F0EC81F52900F0E981EF29D5
:1001C00000F05282F82900F092820368DB0928BF10
:1001D00041F08001632900F09387732900F098872C
:1001E000E32900F0A387F32900F0A88700207047D7
:1001F0001FB500F0F9FF04000020002104F082FF89
:10020000401C60600020002104F066FFE0601FBD1C
:1002100010B510BD00F0BAFF1146FFF7E9FF04F07A
:1002200099F901F097F803B4FFF7F2FF03BC01F06E
:10023000DFF800000948804709480047FEE7FEE76D
:10024000FEE7FEE7FEE7FEE7FEE7FEE7FEE7FEE786
:1002500004480549054A064B704700000D3F000859
:10026000ED00000828040020280A002028060020AD
:10027000280600200FB41CB5084B06AA7B4469462B
:100280000090059800F00DF904460020694600F042
:100290001BF920461CBC5DF814FB0000490200005D
:1002A00010B5431C02E010F8011B71B18107FAD1AF
:1002B0004FF0013202C88C1A8C4314EAC211F9D0F3
:1002C000C01A0A0603D0C01E10BDC01A10BD0A0411
:1002D00001D0801E10BD0902FCD0401E10BD4FF0A1
:1002E000000200B5134694469646203922BFA0E886
:1002F0000C50A0E80C50B1F12001BFF4F7AF090792
:1003000028BFA0E80C5048BF0CC05DF804EB890082
:1003100028BF40F8042B08BF704748BF20F8022BC5
:1003200011F0804F18BF00F8012B704770477047DD
:10033000704770B5044685690068C10601D530264E
:1003400000E02026C00707D070BDD4E90121304667
:100350009047206A401C20626D1EF6D570BD70B5B6
:10036000044685690078C00707D170BDD4E9012132
:1003700020209047206A401C20626D1EF6D570BD7B
:1003800009684A0501D540B27047C905FCD500B2DD
:10039000704709684A0501D5C0B27047C905FCD548
:1003A00080B2704770B50C460546012A05D0287802
:1003B000800600D5EA69002302E0012305E05B1C0A
:1003C000934202D2E05C0028F9D1A869E618C01A6D
:1003D000A861286A184428622846FFF7AAFF04E0AB
:1003E000D5E9012114F8010B9047B442F8D328460F
:1003F000FFF7B5FF70BD00002DE9F041064600246F
:1004000010687529314616A510D0FFF7B9FF0028EE
:1004100002DA404213A507E031688A0701D512A528
:1004200002E0490704D511A5012401E0FFF7B1FF5F
:1004300000210A2206F1240709E0B0FBF2FCB0FB20
:10044000F2F302FB1C00303078541846491C002897
:10045000F3D123462A463046BDE8F04100F061BAA8
:10046000000000002D0000002B0000002000000014
:1004700011680268006A530501D508700AE0D305C7
:1004800001D5088006E0130603D5C217C1E90002B2
:1004900000E008600120704701694A1C0261087889
:1004A000704700B58FB0CDE90131002105910549B4
:1004B0007944CDE903101146684600F029F90FB0E0
:1004C00000BD0000E5FFFFFF0A6802F8010B0A60AB
:1004D000704700002DE9FF5F15468A460446DFF8A5
:1004E000AC80F8440027D8E900103E46CDE9001062
:1004F00010E03AF816106A4602A800F023FE411CEC
:1005000007D02178890603D5E269391891420DD8C0
:100510000744761C2078800602D5E069B84205DDE4
:10052000AE42E6DB3AF816000028E2D1A069C01B13
:10053000A0612046FFF7FDFED8E90010CDE90010CC
:10054000002017E03AF818106A4602A800F0FAFDF9
:10055000B0F1FF3F81460BD000250DF1080B05E0FF
:10056000D4E901211BF8050090476D1C4D45F7D3D8
:1005700008F10100B0428046E4DB206A3844206282
:100580002046FFF7ECFEBDE8FF9F00005653000039
:100590002DE9F0418046D21D22F007020025D2E964
:1005A0000002F52915A614D0011E72F1000106DA29
:1005B0000023D0EB030063EB020211A608E0D8F899
:1005C00000108B0701D50FA602E0490701D50EA642
:1005D00001251146002408F1240704E000F05CF92D
:1005E00030323A55641C50EA0102F7D12B463246AC
:1005F00021464046BDE8F04100F093B900000000FC
:100600002D0000002B0000002000000030B400216D
:1006100000F1240408E002F00705D208303542EA70
:100620004372DB086554491C52EA0305F3D10468A0
:10063000002310A2250708D504F020040C4304D0A1
:10064000C46901230CA2641EC46130BC00F069B906
:1006500010B5044621461068FFF79BFE024620466F
:10066000BDE810400023D1E7D21D22F00701D1E9F7
:100670000023CBE70000000030000000F0B40D467E
:100680000188090502D5214C7C4402E01F4C7C44C2
:100690000E34002100F1240608E002F00F071209D1
:1006A000E75D42EA03721B097754491C52EA0307CB
:1006B000F3D102780023120704D5702D06D009B1BA
:1006C000022311342246F0BC00F02BB90123103470
:1006D000F8E770B504460D4621461068FFF759FE4D
:1006E000024629462046BDE870400023C6E7D21DD9
:1006F00022F00703D3E90023C0E70368126843F040
:10070000200303600823C3610023B7E7B85100004A
:100710002DE9F05F894604464FF0000ADFF874B116
:10072000FB44C0F820A02046E1688847002874D028
:10073000252806D0D4E901219047206A401C206278
:10074000F1E700265F462046E168884720280546F5
:1007500007DB312D05D2781910F8200C08B10643BB
:10076000F1E7B00701D526F00406C4F81CA0002765
:10077000C4F818A02A2D09D0284604F0A5FC38B3E7
:1007800004EB8708303DC8F8185019E059F8041BED
:10079000204604EB87029161E1688847012F0546F6
:1007A00018D1E069002820DA26F020061DE0D8F8EC
:1007B000180000EB800005EB40003038C8F8180046
:1007C0002046E1688847054604F07EFC0028EED10B
:1007D000012F0AD02E2D08D12046E16888477F1CC2
:1007E0000546022F46F02006C4DBA069002803DA84
:1007F000404246F00106A061F00701D026F0100645
:100800006C2D0BD0682D09D04C2D39D06A2D35D0E8
:10081000742D35D07A2D33D016E038E0E1682F46BC
:1008200020468847B842054609D16C2F26D04FF4A0
:100830008060E168064320468847054604E06C2F47
:100840001AD04FF4807006430DB3A5F1410019286A
:1008500002D8203546F400664A46294620462660DE
:100860004E46FFF77DFC80B101280BD0F61D26F027
:10087000070000F1080956E74020E4E78020D8E7A8
:100880000020D6E706F104094DE7284652E7206A22
:10089000BDE8F09F4851000030B5B0F10A0271F197
:1008A00000034FEA900E4EEA817EB0EB0E0061EB42
:1008B00091014FEA101E4EEA017E10EB0E0041EB53
:1008C00011114FEA102E4EEA016E10EB0E0041EBB3
:1008D00011214FEA104E4EEA014E10EB0E0041EB93
:1008E0001141401841F100014FEAD00040EA417047
:1008F0004FEAD1014FEA810444EA907410EB80057D
:1009000044EB01046D1944EB0404521BA3414FF066
:10091000000348BF0A3200D530BD401C41F1000140
:1009200030BD2DE9F0470D4699469246044600F148
:1009300024080168880604D5E06921F010012160CF
:1009400000E00120A84201DD471B00E00027A1696B
:100950007A1902EB0900081AA0612078C00602D4B7
:100960002046FFF7E6FC002608E0D4E901211AF84A
:1009700006009047206A401C761C20624E45F4DB3E
:100980002078C0060AD52046FFF7D3FC06E0D4E95C
:10099000012130209047206A401C2062381EA7F1B8
:1009A0000107F4DC07E0D4E9012118F805009047BD
:1009B000206A401C2062281EA5F10105F3DC2046B8
:1009C000FFF7CDFC2078000602D50220BDE8F087B5
:1009D0000120FBE72DE9FF4F0C461E464FF0FF3785
:1009E0008BB0D2E90001DDF860800A908A46C1F33D
:1009F0000A5505B93D46002108464FF00000BAF1FE
:100A0000000F00F4400005DA00EB80004FF44001D5
:100A100001EA50004FEA9059B9F1010F00DDB946E3
:100A20000A9850EA4A000ED044F61050A5F2FF355D
:100A300045432F14B8F1000F1ED07542291E1EDD4C
:100A4000C9F100021CE0B8F1010F4FF0000001D025
:100A5000302103E0F24305E02154401CB042FBDBAF
:100A600030460022002121540B99C1F80880C1E9C9
:100A700000200FB0BDE8F08FBD1B6D1CDEE74A46BD
:100A800000DA694206A800F0F3FB06AB93E8070022
:100A900003AB83E8070050460A9903F038FF8DE85E
:100AA0000700A0F500501F3800900398002D0ADDC4
:100AB00042F21F014A460844002303A903906846F6
:100AC00004F0A2F909E0A0F500504A461F380023BF
:100AD00003A90390684604F0ACF98DE80700000410
:100AE000000C03D04FF0FF30410800E01046B8F191
:100AF000000F03D00022009215461EE0751E05D49B
:100B0000FFF7CAFE303262556D1EF9D5B346012299
:100B1000084302D000227F1C04E02078302801D155
:100B200000227F1E002A099784D01DE0112D07DACC
:100B3000FFF7B2FE303262556D1C50EA0102F5D16A
:100B4000084302D00098C8B10EE00021681E05E0FD
:100B5000235C625C63542254401E491C8142F7DBD3
:100B6000AB46A81B401E0990002004F80B000B9810
:100B7000099AC0F80880C0E9002B7AE711264FF0E7
:100B8000000857E72DE9F04F88460446D21D22F0B1
:100B9000070191B0D1E90001CDE90A0104F080FA22
:100BA00002460B98C00F01D02D2007E02068810776
:100BB00001D52B2002E0202101EAC000032A099080
:100BC00001D0072A05DB03464146204600F010FB12
:100BD0000BE12078800601D5E06900E00620B8F13D
:100BE000650F814606D0B8F1660F18D0B8F1670FCF
:100BF00070D131E00020B9F1110F009001DB112319
:100C000001E009F101030AAA01A90CA8FFF7E2FE1D
:100C1000DDE90C70002609F10105834647E001205B
:100C20004B4600904FF000470AAA01A90CA8FFF715
:100C3000D1FEDDE90DB00C995D46002610B909F131
:100C400001000D18B9EB050003D4C0F1FF3609F11E
:100C50000105A5EB09002BE0B9F1010F01DA4FF016
:100C600001090020B9F1110F0090484601DD112360
:100C700000E003460AAA01A90CA8FFF7ABFEDDE9D4
:100C80000C704D4600268346207800070AD4AB45F9
:100C900000DA5D4601A8012D04DD411911F8011C9F
:100CA000302907D04F4502DA17F1040F04DA01208A
:100CB00082460FE06D1EEEE7002F02DCED1B3E4486
:100CC00003E0781CA84200DD7D1CB81B00F1010A7E
:100CD0004FF000472078000703D4AA4501DB4FF00E
:100CE000FF3A0021B7F1004F0DF143088DF8431092
:100CF00024D002202B23002F01DA7F422D230A214A
:100D0000021EA0F1010000DC5FB197FBF1FC97FB34
:100D1000F1F201FB1C7C17460CF1300C08F801CDF8
:100D2000EEE7A8F1010003702188090501D54521EE
:100D300000E06521A0F1010800F8011C09980FA945
:100D4000A1EB0807FF1D00B10120411901EBEA707A
:100D5000A1693844081A401EA0612078C00602D458
:100D60002046FFF7E6FA099828B1D4E90121904717
:100D7000206A401C20622078C00622D52046FFF75A
:100D8000D8FA1EE0002E04DBB34502DD01A8805D29
:100D900000E03020D4E901219047206A401C206205
:100DA000761CAAF101005FEA000A0AD100F01CFAE1
:100DB000C0680168405CD4E901219047206A401C6A
:100DC0002062281EA5F10105DCDC07E0D4E9012141
:100DD00018F8010B9047206A401C2062381EA7F1CA
:100DE0000107F3DC2046FFF7BAFA032011B041E611
:100DF0002DE9F04F04460D46D21D22F0070089B0C0
:100E0000D0E900974846394604F04AF90246F80FFF
:100E100001D02D2307E02068810701D52B2302E0B4
:100E2000202101EAC0038DF820300BB1012000E041
:100E30000020032A824601D0072A04DB29462046E7
:100E400000F0D6F93FE12078800601D40D2500E0BE
:100E5000E569C7F30A560D2D49DA00214FEA175B01
:100E600008464FF00000002F00F4400007DA00EBC6
:100E700080004FF4400100EBD07001EA6000811562
:100E8000012901DD4FF0FF3100224FEA850CBCF152
:100E9000180F06D31346ACF118004FF08052C24031
:100EA00003E04FF4801323FA0CF30CF10C0CBCF1AB
:100EB000200F04D3ACF1200C09FA0CF001E007FA82
:100EC0000CF000294FF0004801DD18B90FE00ED1F9
:100ED00040450CD319EB02095F4121B9404502D1CD
:100EE0009F4329EA0209BBEB175F00D0761C2088DC
:100EF000000502D57B48784402E07A4878441938E6
:100F000008AA302302F80A30037C0AF10101002EFE
:100F10000AF1020A53546A4602DC4FF0300101E044
:100F20004FF031014FF001088DF8001002D0A6F209
:100F3000FF3603E059EA470100D06B4E002D02DC7A
:100F40002178090704D54FF002082E218DF80110F1
:100F5000C44600210BE0C7F303433F01C35C491CB7
:100F60006D1E02F80830052908F1010801DA002D8C
:100F7000F1DC00210CE000EB1973491C1B786D1E9D
:100F8000082902F808304FEA091908F1010801DAC6
:100F9000002DF0DC21688B0602D516E0A8F10108CF
:100FA000E04505DD02EB080313F8013C302BF5D0DA
:100FB000B8F1000F09DD02EB080313F8013C2E2BFA
:100FC00003D1090701D4A8F10108002D05DD3E2158
:100FD00002F808106D1E08F10108407C002E02F88E
:100FE000080008F1010804DA2D20764202F8080012
:100FF00002E02B2002F808000A214FF47A708642A2
:1010000008F101080BDB96FBF0F3303302F80830EF
:1010100096FBF0F308F1010800FB136601E0642E73
:101020000CDB642096FBF0F3303302F8083096FBBB
:10103000F0F308F1010800FB136601E00A2E06DB5D
:1010400096FBF1F0303002F8080008F1010896FB39
:10105000F1F001FB1060303002F80800A16908F1DE
:10106000010808EB050202EB0A00081AA0612078CB
:10107000C00602D42046FFF75CF9216A08AE01EBF6
:101080000A00206204E0D4E9012116F8010B904720
:10109000BAF1010AF7D22078C00602D52046FFF740
:1010A00048F96E4609E016F8010B3E280FD0D4E946
:1010B00001219047206A401C2062B8F10108F2D259
:1010C0002046FFF74CF909B00320BDE8F08F206AF5
:1010D0002844206203E0D4E90121302090476D1EAE
:1010E000EBD3F8E79649000002FCFFFF10B5436917
:1010F00013B1AFF3008001E0FFF754F9012010BDF8
:10110000127800F124010A7000224A700122EDE7F2
:1011100011684FF0FF32E9E710B5436913B1AFF33F
:10112000008001E0FFF7D6F9012010BD128800F120
:10113000240182840022C2840122EDE711684FF06D
:10114000FF32E9E72DE9F04116460C46054600F06E
:1011500043F8036893F80101012807D0FF2C12D847
:10116000185D80B101202C70BDE8F081D3F8070133
:101170003246214603F20713C7182846BC46BDE88D
:10118000F041002360474FF0FF30EDE7754600F077
:10119000EBF8AE4605006946534620F00700854649
:1011A00018B020B5FFF754F8BDE820404FF0000616
:1011B0004FF000074FF000084FF0000BAC46ACE8D2
:1011C000C009ACE8C009ACE8C009ACE8C00921F02E
:1011D00007018D467047000010B500F005F8001DAE
:1011E00010BD00BF213F00000048704730000020C4
:1011F0002DE9F0411F46044603260168072A01F441
:10120000006004DB08B116A505E016A503E008B1EF
:1012100015A500E015A521F010002060A069C01EF2
:10122000A0610FB1401EA0612046FFF782F84FB1C8
:10123000D4E9012138469047206A401C2062C01C36
:10124000206206E0206AFAE7D4E9012115F8010BD3
:101250009047761EF8D22046FFF781F8BDE8F0816E
:101260004E414E006E616E00494E4600696E66004A
:101270002DE9F047814616468AB0354878440DC8B6
:101280008DE80D0032487844801C03AC0DC884E81A
:101290000D0041F69B300844372190FBF1F290FBA2
:1012A000F1F5A5F1800501FB12041B3C02D5644257
:1012B000012000E00020DFF898A080460027FA44D3
:1012C000AAF1BE0A0EE0E0070AD03246684607EBF4
:1012D000470101230AEB810103F0ABFD8DE8070014
:1012E00064107F1C002CEED1194F7F44AE3F19E0F3
:1012F000E80715D007EB04100DF1180A90E80E006E
:101300008AE80E00C068F04201D198190890324670
:10131000012306A903A803F08CFD03AB83E80700B3
:101320006D10641C002DE3D14FF001033246694675
:10133000B8F1000F03A802D003F066FD01E003F04E
:1013400078FDC9E90001C9F808200AB0BDE8F087B6
:10135000A046000010B50446AFF300802046BDE86B
:101360001040FEF760BF00000048704710000020EA
:101370004FF0013C50F8042B51F8043B9A4221D124
:10138000A2EB0C03934313EACC1317D150F8042BB0
:1013900051F8043B9A4215D1A2EB0C03934313EA94
:1013A000CC130BD150F8042B51F8043B9A4209D1CD
:1013B000A2EB0C03934313EACC13DBD04FF00000F5
:1013C000704700BFD01A01BAB1FA81F101F01801DB
:1013D00022FA01F0CB40DBB2C0B2C01AC1F1200149
:1013E0002CFA01F3D11A914311EAC311E6D17047E7
:1013F00001491820ABBEFEE726000200704700003E
:1014000080B584B0ADF80E00002002900190BDF8C8
:101410000E0002F0E1FCFF20009000F063F80246AD
:101420000098029941EA0241029100F05BF80246FD
:101430000098029941EA0221029100F053F8014616
:10144000029808430290BDF80E0002F0B5FC9DF82A
:101450000A000006002805D5FFE7029840F07F400B
:10146000019002E002980190FFE7019804F020F853
:101470000021C4F27A5104F09BF84FF0974103F039
:1014800021FF04B080BD000080B582B0ADF8060039
:10149000BDF8060002F0A0FC062000F023F8BDF81D
:1014A000060002F089FC0120009000F0A3FABDF8CC
:1014B00006000021322200F041F80099BDF8060034
:1014C000042200F03BF8BDF806000221542200F08F
:1014D00035F8BDF806000321202200F02FF802B0F5
:1014E00080BD000080B582B08DF8070000208DF827
:1014F000060069466420086040F25C10C2F20000F9
:101500000DF107010DF10602012301F0DFFA9DF84C
:10151000060002B080BD000080B582B0ADF80600C4
:10152000BDF8060002F058FC0820FFF7DBFFBDF80D
:10153000060002F041FC02B080BD000080B582B020
:10154000ADF806008DF805108DF80420BDF80600F2
:1015500002F042FC9DF80510402040EA8100C0B234
:10156000FFF7C0FF9DF80400FFF7BCFFBDF80600C1
:1015700002F022FC02B080BDFFE7FEE780B540F23A
:101580001810C2F2000000F033F880BD84B0039060
:101590000291019200930398C16B026C012090406C
:1015A00048600098039909684860039840681028CB
:1015B00009D1FFE7019803990968886002980399A7
:1015C0000968C86008E00298039909688860019872
:1015D00003990968C860FFE704B0704770470000CE
:1015E00081B0EFF3108072B60090FFE7FEE70000D5
:1015F00080B58EB00D900D98C06B00680C900D9862
:10160000006800680B900C980D99096CC840400761
:10161000002875D5FFE79DF82C00400700286FD5FE
:10162000FFE70D98006800688006002807D4FFE7F0
:101630000D980168086820F004000860FFE70D9825
:1016400000680821C4F20201884203D1FFE70420A8
:101650000A9047E00D9800681C21C4F202018842FC
:1016600003D1FFE74020099039E00D980068302150
:10167000C4F20201884204D1FFE74FF48060089071
:101680002AE00D9800684421C4F20201884204D186
:10169000FFE74FF4804007901BE00D980068582149
:1016A000C4F20201884204D1FFE74FF48020069083
:1016B0000CE00D9801686C22C4F202024FF08060C9
:1016C000914208BF4FF480000690FFE7069807900C
:1016D000FFE707980890FFE708980990FFE7099847
:1016E0000A90FFE70A980421C4F2020108600D98ED
:1016F000C06A20B1FFE70D98C16A8847FFE7B8E0EC
:101700000C980D99096CC8408007002840F1808032
:10171000FFE79DF82C008007002879D5FFE70D989A
:1017200000680068800600280BD4FFE70D98016868
:10173000086820F00A0008600D99012081F8210056
:10174000FFE70D9800680821C4F20201884203D126
:10175000FFE70220059047E00D9800681C21C4F2C5
:101760000201884203D1FFE72020049039E00D9860
:1017700000683021C4F20201884204D1FFE74FF42F
:10178000007003902AE00D9800684421C4F2020121
:10179000884204D1FFE74FF4005002901BE00D98FF
:1017A00000685821C4F20201884204D1FFE74FF4D7
:1017B000003001900CE00D9801686C22C4F2020226
:1017C0004FF00070914208BF4FF400100190FFE706
:1017D00001980290FFE702980390FFE703980490B6
:1017E000FFE704980590FFE705980421C4F2020181
:1017F0000860FFE70D99002081F82000FFE70D98B1
:10180000806A20B1FFE70D98816A8847FFE72FE0E3
:101810000C980D99096CC8400007002827D5FFE7F0
:101820009DF82C000007002821D5FFE70D980168DE
:10183000086820F00E0008600D98C26B016C012052
:1018400000FA01F151600D9988630D9981F821002A
:10185000FFE70D99002081F82000FFE70D98006B4D
:1018600020B1FFE70D98016B8847FFE7FFE7FFE72F
:10187000FFE70EB080BD000083B001900020009013
:10188000019820B9FFE701208DF80B0047E001998E
:1018900008684FF6F872CBF6FD7210444CF6CD4254
:1018A000CCF6CC42A0FB02026FF0030000EA9200EB
:1018B000086401990020C4F20200C8630199022063
:1018C00081F821000198006800680090009843F6B4
:1018D000F0718843009001994868D1F808C0CB683E
:1018E0000A6940EA0C00184310434A6910438A69A8
:1018F0001043C9690143009808430090009801997A
:1019000009680860019900208863019A012182F822
:101910002110019981F820008DF80B00FFE79DF858
:101920000B0003B07047000080B586B004900391AF
:101930000292019300208DF80300FFE7049890F8CD
:101940002000012804D1FFE702208DF817004CE0A9
:101950000499012081F82000FFE7FFE7049890F840
:101960002100012832D1FFE70499022081F82100EB
:1019700004990020886304980168086820F0010039
:10198000086004980399029A019BFFF7FFFD0498F1
:10199000C06A38B1FFE704980168086840F00E009B
:1019A00008600CE004980168086820F004000860F2
:1019B00004980168086840F00A000860FFE704988E
:1019C0000168086840F00100086009E0FFE7049939
:1019D000002081F82000FFE702208DF80300FFE7D8
:1019E0009DF803008DF81700FFE79DF8170006B07B
:1019F00080BD000080B584B0039000F0F1F9029042
:101A0000039801900198013048B1FFE740F20400CB
:101A1000C2F200000178019808440190FFE7FFE757
:101A200000F0DEF90299401A0199884201D2FFE7DD
:101A3000F6E704B080BD000090B00F900E9100203A
:101A40000D900990FFE70E9800680D99C840002896
:101A500000F07F81FFE70D99012088400C900E98DF
:101A600000680C9908400B900B980C99884240F044
:101A70006C81FFE70E9840680590002851D0FFE781
:101A8000059801283AD0FFE7059802283FD0FFE7E4
:101A9000059803285FD0FFE70598112832D0FFE7AB
:101AA0000598122838D0FFE705980021C1F21101EE
:101AB000884236D0FFE705980021C1F21201884222
:101AC0002FD0FFE705980021C1F22101884228D0DC
:101AD000FFE705980021C1F22201884221D0FFE7EB
:101AE00005980021C1F2310188421AD0FFE705981C
:101AF0000021C1F23201884213D02FE00E98C06855
:101B000009902CE00E98C0680430099027E00E98E8
:101B1000C0680830099022E00E98C0680C30099027
:101B20001DE00E98806818B9FFE70420099011E0C5
:101B30000E988068012806D1FFE7082009900C98CC
:101B40000F99086105E0082009900C980F994861E9
:101B5000FFE7FFE703E00020099000E0FFE70B98B4
:101B6000FF2803D8FFE70F98049003E00F98043094
:101B70000490FFE7049808900B98FF2804D8FFE72B
:101B80000D988000039006E00D996FF01F0000EBA8
:101B900081000390FFE70398079008980068079A70
:101BA0000F219140884309999140084308990860A2
:101BB0000E98C079C006002840F1C680FFE7FFE715
:101BC00041F21800C4F20200016841F00101016015
:101BD000006800F0010006900698FFE70D9820F0DD
:101BE00003000821C4F2010140580A900D9800F04A
:101BF000030081000F2000FA01F10A9888430A903F
:101C00000F9840F60001C4F20101884203D1FFE7BA
:101C10000020029026E00F9840F60041C4F2010136
:101C2000884203D1FFE70120019018E00F9841F2AC
:101C30000001C4F20101884203D1FFE702200090B5
:101C40000AE00F9941F20042C4F2010204209142DD
:101C500008BF03200090FFE700980190FFE701987C
:101C60000290FFE702980D9901F00301890000FA44
:101C700001F10A9808430A900A980D9921F003018E
:101C80000822C4F2010288500E988079C00600280C
:101C900009D5FFE70B9A40F20841C4F20101086838
:101CA0001043086008E00B9A40F20841C4F20101B9
:101CB000086890430860FFE70E9880798006002846
:101CC00009D5FFE70B9A40F20C41C4F20101086804
:101CD0001043086008E00B9A40F20C41C4F2010185
:101CE000086890430860FFE70E9880798007002815
:101CF00009D5FFE70B9A40F20441C4F201010868DC
:101D00001043086008E00B9A40F20441C4F201015C
:101D1000086890430860FFE70E988079C00748B1D3
:101D2000FFE70B9A40F20041C4F20101086810433A
:101D3000086008E00B9A40F20041C4F20101086813
:101D400090430860FFE7FFE7FFE70D9801300D9033
:101D500079E610B07047000082B00190ADF8021033
:101D600001988068BDF80210084204D0FFE7012006
:101D70008DF8010003E000208DF80100FFE79DF8D9
:101D8000010002B07047000083B00290ADF8061069
:101D90000298C0680090009ABDF8060002EA0001AF
:101DA000904340EA01400299086103B07047000087
:101DB00082B00190ADF802108DF801209DF801006D
:101DC00028B1FFE7BDF802000199086105E0BDF800
:101DD0000200000401990861FFE702B070470000AB
:101DE00040F22040C2F200000068704740F2040058
:101DF000C2F20000027840F22041C2F200010868FD
:101E0000104408607047000080B542F20001C4F23F
:101E10000201086840F010000860032000F096F806
:101E20000F2000F005F800F03BF8002080BD000016
:101E300080B582B0009040F20000C2F2000000685D
:101E400040F20401C2F200010A784FF47A71B1FB4A
:101E5000F2F1B0FBF1F001F00BF820B1FFE7012047
:101E60008DF8070018E000980F280DD8FFE70099BB
:101E70004FF0FF30002200F04FF8009840F20801C8
:101E8000C2F20001086003E001208DF8070003E0C2
:101E900000208DF80700FFE79DF8070002B080BD25
:101EA00083B0FFE741F21800C4F20200016841F07C
:101EB00001010160006800F0010002900298FFE754
:101EC000FFE741F21C00C4F20200016841F08051BA
:101ED0000160006800F0805001900198FFE7FFE783
:101EE0000421C4F2010108680090009820F0E0602D
:101EF0000090009840F00070009000980860FFE7A4
:101F000003B0704780B582B08DF807009DF90700D7
:101F100002F0C0FA02B080BD80B586B08DF817001F
:101F2000049103920020029002F0CCFA02909DF9F5
:101F30001700019002980499039A01F013FD0146DD
:101F4000019802F0C7FA06B080BD000080B582B0EB
:101F50000190019802F0E0FA02B080BD80B584B033
:101F600002900191029820B9FFE701208DF80F003F
:101F70001BE1019842F20001C4F20201096801F07C
:101F80000701884216D9FFE742F20000C4F20200BE
:101F9000016821F00701019A11430160006800F017
:101FA00007000199884204D0FFE701208DF80F0057
:101FB000FBE0FFE702980078800700282AD5FFE7BA
:101FC000029800784007002809D5FFE741F2040194
:101FD000C4F20201086840F4E0600860FFE702987C
:101FE00000780007002809D5FFE741F20401C4F298
:101FF0000201086840F460500860FFE741F2040104
:10200000C4F20201086820F0F000029A92681043BE
:102010000860FFE702980078C007002860D0FFE75B
:102020000298406801280ED1FFE741F20000C4F297
:10203000020000688003002804D4FFE701208DF827
:102040000F00B2E021E00298406802280ED1FFE7BD
:1020500041F20000C4F2020000688001002804D4AC
:10206000FFE701208DF80F009FE00DE041F2000036
:10207000C4F2020000688007002804D4FFE70120B2
:102080008DF80F0091E0FFE7FFE741F20401C4F291
:102090000201086820F00300029A526810430860A9
:1020A000FFF79EFE0090FFE741F20400C4F2020039
:1020B000006800F00C0002994968B0EB810F0ED067
:1020C000FFE7FFF78DFE0099401A41F289318842FF
:1020D00004D3FFE703208DF80F0066E0E4E7FFE795
:1020E000019842F20001C4F20201096801F00701FF
:1020F000884216D2FFE742F20000C4F202000168F3
:1021000021F00701019A11430160006800F0070007
:102110000199884204D0FFE701208DF80F0044E0C8
:10212000FFE702980078400700280CD5FFE741F24E
:102130000401C4F20201086820F4E060029AD26847
:1021400010430860FFE702980078000700280DD5CB
:10215000FFE741F20401C4F20201086820F4605074
:10216000029A126940EAC2000860FFE700F04CF8EA
:1021700041F20401C4F202010968C9B20A0945F634
:102180003811C0F60001895CC84040F20001C2F27B
:102190000001086040F20800C2F200000068FFF78A
:1021A00047FE00208DF80F00FFE79DF80F0004B0F8
:1021B00080BD000040F20000C2F2000000687047DD
:1021C00080B5FFF7F7FF41F20401C4F2020109688C
:1021D000C1F3022245F64811C0F60001895CC840EF
:1021E00080BD000080B5FFF7E5FF41F20401C4F2B5
:1021F00002010968C1F3C22245F64811C0F6000188
:10220000895CC84080BD000086B000200590049025
:1022100003900290019041F20400C4F202000068B1
:102220000590059800F00C000146009100283FD071
:10223000FFE70098042804D0FFE70098082806D09C
:1022400037E041F20020C0F27A00019037E00598B3
:10225000C0F3834145F66010C0F60000405C029078
:102260009DF81600C007C0B1FFE741F20400C4F2B8
:1022700002000068C0F3404145F67010C0F600004F
:10228000405C0490029841F20021C0F27A01484378
:102290000499B0FBF1F0039007E0029840F60011BA
:1022A000C0F23D0148430390FFE70398019006E028
:1022B000FFE741F20020C0F27A000190FFE70198A9
:1022C00006B0704780B586B00490049820B9FFE747
:1022D00001208DF817002EE304980078C00700282D
:1022E00000F0AE80FFE741F20400C4F20200006893
:1022F00000F00C00042813D0FFE741F20400C4F200
:102300000200006800F00C0008281BD1FFE741F232
:102310000400C4F202000068C003002812D5FFE7E1
:1023200041F20000C4F2020000688003002808D5D2
:10233000FFE70498406820B9FFE701208DF81700F7
:10234000F9E27CE0FFE704984068B0F5803F09D1EE
:10235000FFE741F20001C4F20201086840F4803056
:10236000086032E00498406868B9FFE741F2000174
:10237000C4F20201086820F480300860086820F484
:102380008020086020E004984068B0F5A02F0DD1AF
:10239000FFE741F20001C4F20201086840F4802026
:1023A0000860086840F4803008600CE041F20001E9
:1023B000C4F20201086820F480300860086820F444
:1023C00080200860FFE7FFE7FFE7FFE70498406829
:1023D000D0B1FFE7FFF704FD0390FFE741F20000F3
:1023E000C4F202000068800300280CD4FFE7FFF766
:1023F000F7FC0399401A652804D3FFE703208DF802
:10240000170098E2EAE719E0FFF7EAFC0390FFE71C
:1024100041F20000C4F202000068800300280CD5DD
:10242000FFE7FFF7DDFC0399401A652804D3FFE7B7
:1024300003208DF817007EE2EAE7FFE7FFE7FFE7FA
:10244000049800788007002840F18D80FFE741F272
:102450000400C4F20200006810F00C0F13D0FFE774
:1024600041F20400C4F20200006800F00C000828E9
:1024700029D1FFE741F20400C4F202000068C00362
:10248000002820D4FFE741F20000C4F202000068F7
:102490008007002809D5FFE704980069012804D0C7
:1024A000FFE701208DF8170045E241F20001C4F278
:1024B0000201086820F0F800049A526940EAC2005C
:1024C0000860FFE74EE00498006958B3FFE7002179
:1024D000C4F2422101200860FFF782FC0390FFE76D
:1024E00041F20000C4F202000068800700280CD40A
:1024F000FFE7FFF775FC0399401A032804D3FFE7B1
:1025000003208DF8170016E2EAE741F20001C4F259
:102510000201086820F0F800049A526940EAC200FB
:1025200008601EE00021C4F2422100200860FFF78D
:1025300057FC0390FFE741F20000C4F2020000687C
:10254000800700280CD5FFE7FFF74AFC0399401AE3
:10255000032804D3FFE703208DF81700EBE1EAE737
:10256000FFE7FFE7FFE7049800780007002848D559
:10257000FFE70498806918B3FFE740F28041C4F296
:10258000422101200860FFF72BFC0390FFE741F296
:102590002400C4F202000068800700280CD4FFE782
:1025A000FFF71EFC0399401A032804D3FFE703201A
:1025B0008DF81700BFE1EAE7012001F011FB1FE0F1
:1025C00040F28041C4F2422100200860FFF708FC7D
:1025D0000390FFE741F22400C4F202000068800784
:1025E00000280CD5FFE7FFF7FBFB0399401A0328EF
:1025F00004D3FFE703208DF817009CE1EAE7FFE72B
:10260000FFE7049800784007002840F1D880FFE7F2
:1026100000208DF8070041F21C00C4F2020000689F
:10262000C000002813D4FFE7FFE741F21C00C4F20A
:102630000200016841F080510160006800F08050A4
:1026400000900098FFE701208DF80700FFE747F2B0
:102650000000C4F200000068C005002822D4FFE793
:1026600047F20001C4F20001086840F4807008607D
:10267000FFF7B6FB0390FFE747F20000C4F200004B
:102680000068C00500280CD4FFE7FFF7A9FB0399F9
:10269000401A652804D3FFE703208DF817004AE1AC
:1026A000EAE7FFE7FFE70498C068012809D1FFE7E0
:1026B00041F22001C4F20201086840F00100086004
:1026C00031E00498C06868B9FFE741F22001C4F224
:1026D0000201086820F001000860086820F004008A
:1026E00008601FE00498C06805280DD1FFE741F29B
:1026F0002001C4F20201086840F004000860086884
:1027000040F0010008600CE041F22001C4F2020137
:10271000086820F001000860086820F004000860E4
:10272000FFE7FFE7FFE7FFE70498C068E0B1FFE7D6
:10273000FFF756FB0390FFE741F22000C4F20200CE
:102740000068800700280ED4FFE7FFF749FB0399D4
:10275000401A41F28931884204D3FFE703208DF803
:102760001700E8E0E8E71BE0FFF73AFB0390FFE71C
:1027700041F22000C4F202000068800700280ED554
:10278000FFE7FFF72DFB0399401A41F28931884298
:1027900004D3FFE703208DF81700CCE0E8E7FFE75C
:1027A0009DF80700012809D1FFE741F21C01C4F29E
:1027B0000201086820F080500860FFE7FFE70498F6
:1027C000C069002800F0B380FFE741F20400C4F2C2
:1027D0000200006800F00C00082800F08280FFE78B
:1027E0000498C06902285CD1FFE76021C4F242214D
:1027F00000200860FFF7F4FA0390FFE741F20000C1
:10280000C4F202000068800100280CD5FFE7FFF742
:10281000E7FA0399401A032804D3FFE703208DF851
:10282000170088E0EAE70498006AB0F5803F0CD111
:10283000FFE741F20401C4F20201086820F400300D
:10284000049A926810430860FFE741F20401C4F261
:102850000201086820F47410049B1A6A5B6A1A4328
:10286000104308606021C4F2422101200860FFF794
:10287000B7FA0390FFE741F20000C4F202000068DB
:10288000800100280CD4FFE7FFF7AAFA0399401A49
:10289000032804D3FFE703208DF817004BE0EAE795
:1028A0001EE06021C4F2422100200860FFF798FA80
:1028B0000390FFE741F20000C4F2020000688001CB
:1028C00000280CD5FFE7FFF78BFA0399401A03287D
:1028D00004D3FFE703208DF817002CE0EAE7FFE7B9
:1028E00024E00498C069012804D1FFE701208DF895
:1028F000170020E041F20400C4F2020000680290D8
:10290000029800F480300499096A884208D1FFE7F0
:10291000029800F470100499496A884204D0FFE7D5
:1029200001208DF8170006E0FFE7FFE7FFE7002032
:102930008DF81700FFE79DF8170006B080BD000076
:1029400080B584B00290029820B9FFE701208DF88D
:102950000F006DE00298406A60B9FFE70298406896
:10296000B0F5827F01D1FFE703E002990020C86142
:10297000FFE705E002990020086102994861FFE73E
:10298000029900208862029890F8510040B9FFE750
:102990000299002081F85000029800F04DF8FFE7FE
:1029A0000299022081F8510002980168086820F01D
:1029B00040000860029A019211685068D2F808C07D
:1029C000D36800F482700CF4044C604403F4006398
:1029D0001844136903F002031844536903F0010318
:1029E0001844936903F400731844D36903F038035F
:1029F0001844136A03F080031843926A02F40052E9
:102A0000104308600299488B00F004000968486090
:102A100002980168C86920F40060C861029900202A
:102A20004865029A012182F851108DF80F00FFE7E6
:102A30009DF80F0004B080BD80B58AB009900020D9
:102A400008900790069005900998006843F20001ED
:102A5000C4F20101884237D1FFE7FFE741F21800D5
:102A6000C4F20200016841F480510160006800F482
:102A7000805004900498FFE7FFE741F21800C4F289
:102A80000200016841F004010160006800F00400E8
:102A900003900398FFE7A0200590022006900320F2
:102AA000089040F60000C4F20100019005A90291CF
:102AB000FEF7C2FF01980299402205920022069279
:102AC0000792FEF7B9FFFFE70AB080BD80B58CB072
:102AD000DDF838C00A9009910892ADF81E30012047
:102AE0000390FFF77DF904900A9890F851008DF853
:102AF00017000A9840680690BDF81E00ADF81C004B
:102B00009DF81700012812D0FFE70698B0F5827FE4
:102B100009D1FFE70A98806828B9FFE79DF81700F8
:102B2000042804D0FFE702208DF82F009BE10998CC
:102B300038B1FFE7089820B1FFE7BDF81E0020B9C3
:102B4000FFE701208DF82F008DE1FFE70A9890F84C
:102B50005000012804D1FFE702208DF82F0082E108
:102B60000A99012081F85000FFE7FFE70A9890F8E2
:102B70005100042805D0FFE70A99052081F851008B
:102B8000FFE70A990020486508990A9A9163BDF801
:102B90001E100A9AD187BDF81E100A9A91870999CA
:102BA0000A9A1163BDF81E100A9AD186BDF81E104C
:102BB0000A9A91860A9908640A9948640A980068F2
:102BC000006800F04000402807D0FFE70A9801683D
:102BD000086840F040000860FFE70A98C068B0F558
:102BE000006F40F08180FFE70A98406828B1FFE756
:102BF000BDF81C0001280ED1FFE70A980168006BA0
:102C00000088C8600A99086B023008630A99C88E68
:102C10000138C886FFE7FFE70A98C18E01200190BE
:102C200039B9FFE70A98C08F002818BF012001902A
:102C3000FFE70198C007002855D0FFE70A98006811
:102C400080688007002818D5FFE70A98C08EA0B1D9
:102C5000FFE70398012810D1FFE70A980168006B8D
:102C60000088C8600A99086B023008630A99C88E08
:102C70000138C88600200390FFE70A980068806842
:102C8000C007A8B1FFE70A98C08F88B1FFE70A988C
:102C90000068C0680A99896B08800A99886B0230BD
:102CA00088630A99C88F0138C88701200390FFE71D
:102CB000FFF796F80499401A0E99884212D3FFE75D
:102CC0000E98013070B1FFE70A99012081F8510098
:102CD000FFE70A99002081F85000FFE703208DF8F4
:102CE0002F00C0E098E782E00A98406828B1FFE72B
:102CF000BDF81C0001280ED1FFE70A980168006B9F
:102D0000007808730A99086B013008630A99C88E25
:102D10000138C886FFE7FFE70A98C18E01200090BE
:102D200039B9FFE70A98C08F002818BF012000902A
:102D3000FFE70098C007002858D0FFE70A9800680E
:102D400080688007002818D5FFE70A98C08EA0B1D8
:102D5000FFE70398012810D1FFE70A980168006B8C
:102D6000007808730A99086B013008630A99C88EC5
:102D70000138C88600200390FFE70A980068806841
:102D8000C007A8B1FFE70A98C08F88B1FFE70A988B
:102D90000068C0680A99896B08700A99886B0130CD
:102DA00088630A99C88F0138C88701200390FFE71C
:102DB000FFF716F80499401A0E99884204D3FFE7EA
:102DC0000E98013018B9FFE70E9870B9FFE70A991D
:102DD000012081F85100FFE70A99002081F8500096
:102DE000FFE703208DF82F003DE095E7FFE70A9805
:102DF0000E99049A00F012FF68B1FFE70A992020AB
:102E00004865FFE70A99002081F85000FFE701209C
:102E10008DF82F0027E00A98806870B9FFE7FFE778
:102E2000002002900A980068C06802900A98006822
:102E3000806802900298FFE7FFE70A99012081F875
:102E40005100FFE70A99002081F85000FFE70A9837
:102E5000406D20B1FFE701208DF82F0003E0002036
:102E60008DF82F00FFE79DF82F000CB080BD00000B
:102E700080B582B00190019800F0E4FF02B080BDFF
:102E800085B003900291FFE7039890F83C00012879
:102E900004D1FFE702208DF813005BE003990120C5
:102EA00081F83C00FFE7FFE70399022081F83D002D
:102EB000039800684068019003980068806800905B
:102EC000019820F070000190029801680198084371
:102ED000019001980399096848600398006842F6D8
:102EE0000041C4F20101884218D0FFE7039800684E
:102EF000B0F1804F12D0FFE70398006840F2004124
:102F0000C4F20001884209D0FFE70398006840F648
:102F10000001C4F2000188420ED1FFE7009820F0C2
:102F20008000009002984168009808430090009843
:102F3000039909688860FFE70399012081F83D0043
:102F4000FFE70399002081F83C00FFE700208DF89F
:102F50001300FFE79DF8130005B0704780B582B0FD
:102F60000090009820B9FFE701208DF807003FE0AE
:102F7000009890F83D0040B9FFE70099002081F8E3
:102F80003C00009800F038F8FFE70099022081F833
:102F90003D00009951F8040B00F0BAFF00990120A0
:102FA00081F84600FFE70099012081F83E00009972
:102FB00081F83F00009981F84000009981F84100B4
:102FC000FFE7FFE70099012081F84200009981F8AE
:102FD0004300009981F84400009981F84500FFE71B
:102FE0000099012081F83D0000208DF80700FFE7DF
:102FF0009DF8070002B080BD82B001900198006882
:1030000042F60041C4F20101884210D1FFE7FFE718
:1030100041F21800C4F20200016841F4006101604D
:10302000006800F4006000900098FFE7FFE702B03E
:103030007047000080B586B00490039100208DF8A1
:103040000B00FFE7049890F83C00012804D1FFE74B
:1030500002208DF81700ABE00499012081F83C00B4
:10306000FFE7FFE70499022081F83D00049800681B
:1030700080680190019820F077000190019820F479
:103080007F4001900198049909688860039800685E
:103090000090002872D0FFE7009810286ED0FFE75C
:1030A000009820286AD0FFE70098302866D0FFE714
:1030B0000098402855D0FFE70098502837D0FFE708
:1030C0000098602840D0FFE7009870280BD0FFE7F9
:1030D0000098B0F5805F05D0FFE70098B0F5005F7D
:1030E00016D052E055E004980068039B5A6899682E
:1030F000DB6800F091FF04980068806801900198F7
:1031000040F077000190019804990968886040E0D8
:1031100004980068039B5A689968DB6800F07CFF9C
:1031200004980168886840F48040886031E0049821
:103130000068039A5168D26800F09EFF0498006806
:10314000502100F083FF24E004980068039A51683E
:10315000D26800F0B9FF04980068602100F076FFA3
:1031600017E004980068039A5168D26800F084FF61
:1031700004980068402100F069FF0AE004980068A4
:103180000399096800F062FF03E001208DF80B004D
:10319000FFE70499012081F83D00FFE70499002032
:1031A00081F83C00FFE79DF80B008DF81700FFE762
:1031B0009DF8170006B080BD81B0009001B0704747
:1031C00080B582B00090009820B9FFE701208DF80B
:1031D000070040E00098806908B1FFE700E0FFE7E2
:1031E000009890F8410040B9FFE70099002081F86D
:1031F0004000009800F034F8FFE70099242081F89F
:10320000410000980168C86820F40050C860009828
:1032100001F072F800980168086920F49040086194
:1032200000980168486920F02A0048610098016808
:10323000C86840F40050C860009900204864009AB3
:10324000202182F84110009A82F8421000994863C8
:103250008DF80700FFE79DF8070002B080BD000071
:1032600080B590B00F9000200E900D900C900B90B8
:103270000F98006843F60001C4F2010188425ED154
:10328000FFE7FFE741F21800C4F20200016841F4D1
:1032900080410160006800F480400A900A98FFE7CE
:1032A000FFE741F21800C4F20200016841F0040196
:1032B0000160006800F0040009900998FFE74FF4EE
:1032C00000700B9002200C9003200E9040F600003E
:1032D000C4F2010003900BA90491FEF7ADFB039823
:1032E00004994FF480620B92002205920C920D9289
:1032F000FEF7A2FB059940F21810C2F200000690FA
:103300004422C4F2020202601022426081608022E4
:10331000C260016141618161C161FEF7ADFA18B11E
:10332000FFE7FEF75DF9FFE7FFE70F9840F218119E
:10333000C2F2000181630F984862FFE740E00F98F6
:10334000006844F20041C4F20001884237D1FFE72F
:10335000FFE741F21C00C4F20200016841F40031B1
:103360000160006800F4003008900898FFE7FFE76C
:1033700041F21800C4F20200016841F0040101604A
:10338000006800F0040007900798FFE704200B9006
:1033900002200C9003200E9040F60000C4F20100C1
:1033A00001900BA90291FEF747FB019802990822B0
:1033B0000B9200220C920D92FEF73EFBFFE7FFE717
:1033C00010B080BD80B58AB008900791ADF81A2082
:1033D000059300200290089890F84100202840F0C2
:1033E0008180FFE7079820B1FFE7BDF81A0020B9F8
:1033F000FFE701208DF8270078E008990020486455
:103400000899212081F84100FEF7EAFC0290BDF8FE
:103410001A0008998884BDF81A000899C884089889
:103420008068B0F5805F09D1FFE70898006928B986
:10343000FFE7002004900798039004E007980490A9
:1034400000200390FFE7FFE70898C08C78B3FFE700
:103450000898029B05996A4611608021002200F0BD
:10346000A9FF40B1FFE70899202081F8410003201F
:103470008DF827003AE0049858B9FFE703980088D0
:103480006FF35F2008990968486003980230039041
:1034900008E00498007808990968486004980130A9
:1034A0000490FFE70899C88C0138C884CCE70898D5
:1034B000029B05996A4611604021002200F07AFFC4
:1034C00040B1FFE70899202081F8410003208DF8E2
:1034D00027000BE00899202081F8410000208DF89A
:1034E000270003E002208DF82700FFE79DF8270062
:1034F0000AB080BD80B586B004900391ADF80A2073
:10350000049890F8410020285DD1FFE7039820B18E
:10351000FFE7BDF80A0020B9FFE701208DF817008A
:1035200055E0039804990862BDF80A00049988845C
:10353000BDF80A000499C884049900204864049ADC
:10354000212182F8411004998A6B44F29911C0F646
:103550000001916204998A6B44F21521C0F60001C2
:10356000D16204998A6B44F21D11C0F60001116307
:103570000499896B486303A8019004980268806BE2
:10358000019909680432BDF80A30FEF7CDF90498B4
:1035900001686FF040000860FFE7FFE704980068EB
:1035A00050E8050F40F080000090FFE70099049874
:1035B000026842E805100028F0D1FFE7FFE700208D
:1035C0008DF8170003E002208DF81700FFE79DF843
:1035D000170006B080BD000081B0009001B07047B8
:1035E00081B0009001B07047FFE7FEE780B582B080
:1035F000FFE741F21400C4F20200016841F001014A
:103600000160006800F0010001900198FFE70E20C2
:10361000009000221146FEF77FFC0098FEF772FC36
:1036200002B080BD80B58EB000200D900C900B9044
:103630000A90FFE741F21800C4F20200016841F06D
:1036400020010160006800F0200009900998FFE760
:10365000FFE741F21800C4F20200016841F00401E2
:103660000160006800F0040008900898FFE7FFE799
:1036700041F21800C4F20200016841F00801016043
:10368000006800F0080007900798FFE740F6000088
:10369000C4F2010001900221049100220292FEF77F
:1036A00087FB029A40F60040C4F2010005904FF4F7
:1036B0007841FEF77DFB0198029A04990A91012353
:1036C00003930B930C920D910AA90691FEF7B4F99E
:1036D000029B039A0598069940F2074CCDF828C042
:1036E0000B930C92FEF7A8F9029BDDF80CC0049A2C
:1036F000059806994FF4006ECDF828E0CDF82CC05F
:103700000C930D92FEF798F9039B049A059806997D
:103710004FF4704CCDF828C00B930C930D92FEF72C
:103720008BF90EB080BD000080B582B040F25C1015
:10373000C2F20000019043F20001C4F201010160F5
:103740004FF48271416000218160C16001610122FA
:1037500042614FF4007282612822C26101624162BB
:1037600081620A21C162FFF7EBF818B1FFE7FDF7AC
:1037700037FFFFE702B080BD80B588B0002100911F
:1037800007910691059104910391029140F2B410C2
:10379000C2F20000019042F60042C4F2010202604F
:1037A000416081604FF6FF72C260016141618161D9
:1037B000FFF7D4FB18B1FFE7FDF712FFFFE74FF467
:1037C0008050049040F2B410C2F2000004A9FFF748
:1037D00031FC18B1FFE7FDF703FFFFE7002002907F
:1037E000039040F2B410C2F2000002A9FFF748FBB8
:1037F00018B1FFE7FDF7F4FEFFE708B080BD000059
:1038000080B582B040F2FC10C2F20000019043F695
:103810000001C4F2010101604FF4E1314160002177
:103820008160C16001610C2242618161C161FFF769
:10383000C7FC18B1FFE7FDF7D3FEFFE702B080BD7C
:1038400080B582B040F24420C2F20000019044F200
:103850000041C4F2000101604FF4E13141600021F8
:103860008160C16001610C2242618161C161FFF729
:10387000A7FC18B1FFE7FDF7B3FEFFE702B080BD7C
:10388000FFE7FEE780B586B08DF8130003910020B6
:10389000029003999DF8133003EB830240F2780005
:1038A000C2F2000000EBC20240F27000C2F200005F
:1038B000C35C42F823109DF81320815C01318154D0
:1038C0009DF81310405C0A2811DBFFE79DF81320D8
:1038D00040F27001C2F20001002088549DF81320CC
:1038E00040F27401C2F2000101208854FFE79DF804
:1038F000131040F27400C2F20000405C18B9FFE7F8
:103900000398059029E000208DF80700FFE79DF857
:103910000700092819DCFFE79DF8130000EB800180
:1039200040F27800C2F2000000EBC1009DF80710E1
:1039300050F82110029801F02DFC0290FFE79DF84D
:10394000070001308DF80700E1E702980021C4F27A
:10395000201101F0B7FC0590FFE7059806B080BD87
:10396000FFE7FEE788B0079006910592079800F000
:10397000070004900498C0F10700052803D3FFE76F
:103980000420019004E00498C0F107000190FFE7D3
:103990000198039004980430062803D8FFE700201C
:1039A000009003E0049803380090FFE7009802902D
:1039B00006980399012202FA01F101390840029B9D
:1039C000984005999A40013A1140084308B0704761
:1039D00080B59AB019900021C4F27A41189141F251
:1039E0003210C3F68030179040F27F50CBF21B505C
:1039F000169042F61D50CAF693401590199801F0A2
:103A0000A3FE42F29611C4F27A0101F05BFC14901D
:103A1000149848F20001C4F2544101F039FC30B965
:103A2000FFE748F20000C4F2544014900DE01498EF
:103A30000021CCF2483101F024FC28B9FFE7002036
:103A4000CCF248301490FFE7FFE700201390FFE727
:103A50001398042800F3BF80FFE71498002101F0B9
:103A60001EFC90BBFFE714980A9041F23211C3F696
:103A700080310C9101F09CFD4FF07E5101F08AFBEA
:103A800001460A980B9140F27F51CBF21B5101F095
:103A90008FFD0A9901F08CFD0B9901F07BFB002151
:103AA000C4F27A410D9101F083FD1290149840F216
:103AB0007F51CBF29B5101F07BFD0C9901F06AFB29
:103AC0000D9901F075FD119067E01499084601F019
:103AD0006FFD10901098149901F06AFD0F901498E2
:103AE000029041F23211C3F68031049101F060FD81
:103AF0004FF07E5101F04EFB0190109840F27F5143
:103B0000CBF21B5101F054FD019901F043FB01463A
:103B1000029803910021CCF2C82101F03BFB42F650
:103B20001D51CAF69341079101F042FD0F9901F032
:103B30003FFD039901F02EFB0021C4F27A41099167
:103B400001F036FD1290149840F27F51CBF29B5158
:103B500001F02EFD049901F01DFB08900F980590CF
:103B600010980021CCF2963101F022FD0146059813
:103B700006914FF0814101F01BFD0146069801F0CE
:103B800009FB079901F014FD0146089801F002FBBA
:103B9000099901F00DFD1190FFE71998129901F0B4
:103BA000D3FD119901F08EFB0E900E99149801F03F
:103BB000F1FA14900E9820F000404BF21771C3F602
:103BC000D10101F05EFB08B9FFE704E0FFE71398BD
:103BD000013013903CE714981AB080BD7047000084
:103BE00082B00190019840F20001C2F20001096820
:103BF000C90844F6D352C1F26202A1FB022189092D
:103C000048430090FFE700BFFFE70098411E009186
:103C10000028F8D1FFE702B07047000080B586B0F9
:103C20000490039102920498039B02996A461160E2
:103C30000221012200F028F848B1FFE70499486DFD
:103C400040F02000486503208DF8170017E0049825
:103C5000039B02996A4611608021002200F014F84B
:103C600048B1FFE70499486D40F020004865032003
:103C70008DF8170003E000208DF81700FFE79DF88E
:103C8000170006B080BD000080B58AB0DDF830C0F6
:103C9000089007918DF81B20059305980190FEF779
:103CA0009FF8024601980C99891A08440390FEF780
:103CB00097F80290039840F20001C2F200010968EF
:103CC000C1F3CB3148430490FFE70898006880684F
:103CD00007990840401AB0FA80F040099DF81B107F
:103CE00088425ED0FFE705980130002858D0FFE7F2
:103CF000FEF776F80299401A0399884204D2FFE74A
:103D00000398002842D1FFE708980168486820F02E
:103D1000E000486008984068B0F5827F13D1FFE763
:103D200008988068B0F5004F06D0FFE708988068D3
:103D3000B0F5806F07D1FFE708980168086820F0A8
:103D400040000860FFE70898806AB0F5005F0FD177
:103D5000FFE7FFE708980168086820F40050086052
:103D600008980168086840F400500860FFE7FFE722
:103D70000899012081F85100FFE70899002081F897
:103D80005000FFE703208DF827000EE0049818B9D3
:103D9000FFE700200390FFE7049801380490FFE755
:103DA00093E700208DF82700FFE79DF827000AB071
:103DB00080BD00007047000080B582B0ADF80600FD
:103DC000BDF8061040F60040C4F201000122FDF7E4
:103DD000EFFF02B080BD000080B582B0ADF80600F4
:103DE00040F28C20C2F200000088B8B1FFE740F238
:103DF0008C20C2F200000088BDF8061088420DD069
:103E0000FFE740F28C20C2F20000018840F600403B
:103E1000C4F201000122FDF7CBFFFFE7BDF8061059
:103E200040F60040C4F201000022FDF7C1FFBDF8DA
:103E3000060040F28C21C2F20001088000BF00BFE2
:103E400002B080BD80B582B0009000980138B0F11A
:103E5000807F03D3FFE70120019019E0009801382B
:103E60004EF21401CEF2000108604FF0FF300F2136
:103E700000F030FB4EF21801CEF200010020086085
:103E80004EF21002CEF20002072111600190FFE70E
:103E9000019802B080BD000080B5FDF7A7FF80BD8E
:103EA00080B590B006A800902821FCF718FA009879
:103EB0000023059304930393029301930122069236
:103EC0004FF48031079108930A9202220D920E91CD
:103ED0004FF4E0110F91FEF7F5F918B1FFE7FDF788
:103EE0007FFBFFE70F200190022102910020039049
:103EF0004FF480620492059001A8FEF72FF818B1E4
:103F0000FFE7FDF76DFBFFE710B080BD70470000D5
:103F100083B002900191029800680090029842F6E6
:103F20000041C4F20101884215D0FFE70298B0F1C8
:103F3000804F10D0FFE7029840F20041C4F2000128
:103F4000884208D0FFE7029840F60001C4F2000161
:103F500088420AD1FFE7009820F070000090019895
:103F60004168009808430090FFE7029842F600413C
:103F7000C4F20101884215D0FFE70298B0F1804FEA
:103F800010D0FFE7029840F20041C4F200018842DD
:103F900008D0FFE7029840F60001C4F20001884211
:103FA0000AD1FFE7009820F4407000900198C168A2
:103FB000009808430090FFE7009820F080000199E6
:103FC0004969084300900098029908600198806848
:103FD0000299C8620198006802998862029842F6C4
:103FE0000041C4F20101884205D1FFE70198006950
:103FF00002990863FFE7029901204861029800696D
:10400000C00730B1FFE70299086920F0010008619C
:10401000FFE703B07047000085B00490039102925F
:104020000193049880680090009820F47F400090ED
:1040300003980299019A41EA02210143009808433A
:10404000009000980499886005B0704783B0029092
:104050000191029880680090009820F07000009014
:1040600001980099084340F00700009000980299D9
:10407000886003B07047000085B0049003910292FD
:104080000498006A00900499086A20F00100086210
:10409000049880690190019820F0F0000190029945
:1040A000019840EA01100190009820F00A00009069
:1040B000039900980843009001980499886100983A
:1040C0000499086205B0704785B00490039102928C
:1040D0000498006A00900499086A20F010000862B1
:1040E000049880690190019820F470400190029931
:1040F000019840EA01300190009820F0A000009063
:104100000399009840EA0110009001980499886191
:1041100000980499086205B07047000080B584B02B
:104120000390002002900398406A01900198006873
:104130004069C0B2C0090290019890F8410021285E
:104140000AD1FFE7029838B1FFE701990020C8843F
:10415000019800F0B5F8FFE7019800684069C0F3E6
:1041600080100290019890F8420022280AD1FFE7BF
:10417000029838B1FFE701990020C885019800F046
:1041800055F8FFE70199486C40F010004864019829
:10419000FFF712F804B080BD80B584B00390039897
:1041A000406A0290039800680068800600282AD4BC
:1041B000FFE702990020C884FFE7FFE70298006844
:1041C00050E8050F20F080000190FFE70199029868
:1041D000026842E805100028F0D1FFE7FFE7FFE79B
:1041E000FFE70298006850E8030F40F0400000909D
:1041F000FFE700990298026842E803100028F0D116
:10420000FFE7FFE703E00298FFF7E6F9FFE704B0F6
:1042100080BD000080B582B001900198406A009096
:104220000098FFF7DDF902B080BD000084B0039074
:10423000FFE7FFE70398006850E8030F20F4907051
:104240000290FFE702990398026842E803100028F1
:10425000F0D1FFE7FFE7FFE7FFE70398006850E8CA
:10426000050F20F001000190FFE701990398026813
:1042700042E805100028F0D1FFE7FFE70398006B44
:10428000012814D1FFE7FFE7FFE70398006850E833
:10429000030F20F010000090FFE7009903980268D8
:1042A00042E803100028F0D1FFE7FFE7FFE703999A
:1042B000202081F8420003990020086304B0704771
:1042C00082B00190FFE7FFE70198006850E8030F14
:1042D00020F0C0000090FFE700990198026842E8D2
:1042E00003100028F0D1FFE7FFE70199202081F8B3
:1042F000410002B07047000080B584B0039003987D
:104300000068006920F44050039A1168D268104395
:104310000861039988680A69496910430843029053
:1043200003980068C06841F20C6188430299084311
:1043300003990968C86003980068406920F44070D8
:10434000039A11689269104348610398006843F624
:104350000001C4F20101884204D1FFE7FDF742FFEA
:10436000019003E0FDF72CFF0190FFE70198192170
:104370004843039A116852689200B0FBF2FC48F27D
:104380001F52C5F2EB12ACFB02304309642003FB61
:1043900010CC322000EB0C10A0FB0202F02000EA4F
:1043A000521000EB0310C2F343121044886004B0B3
:1043B00080BD000080B586B0DDF820C00490039178
:1043C0008DF80B200193FFE70498006800680399BB
:1043D0000840401AB0FA80F040099DF80B1088425E
:1043E0004DD1FFE708980130002847D0FFE7FDF7DF
:1043F000F7FC0199401A0899884203D8FFE708980A
:1044000020B9FFE703208DF817003CE0049800680E
:10441000C0684007002830D5FFE7039880282CD0DB
:10442000FFE70398402828D0FFE704980068006859
:1044300000F008010120B0EBD10F1DD1FFE7FFE72D
:1044400000200090049800680068009004980068BC
:10445000406800900098FFE70498FFF7E7FE049992
:1044600008204864FFE70499002081F84000FFE736
:1044700001208DF8170006E0FFE7FFE7A4E7002022
:104480008DF81700FFE79DF8170006B080BD00000B
:10449000FFE7FEE781B08DF803009DF903000028D7
:1044A0000ED4FFE79DF9031001F01F020120904098
:1044B0004A094EF20011CEF2000141F82200FFE756
:1044C00001B070474EF60C50CEF200000068C0F309
:1044D0000220704782B08DF8070000919DF9070017
:1044E00000280AD4FFE7009800019DF907104EF25A
:1044F0000042CEF2000288540BE0009800019DF8C3
:10450000071001F00F014EF61452CEF2000288544B
:10451000FFE702B07047000083B00290029800F0FD
:10452000070000904EF60C51CEF200010868019091
:1045300001984FF6FF02104001900198009A40EA5E
:1045400002200022C0F2FA52104301900198086044
:1045500003B0704780B5C2B0002011904190FDF7C4
:1045600053FCFFF79DFCFFF75DF8FFF73FF8FFF7FF
:10457000DBF8FFF701F9FFF743F9FFF761F945F6BB
:10458000A111C0F6000128A81090FBF773FE109847
:10459000FBF786FE109982B240F2FC10C2F20000D6
:1045A0006423FEF70FFF11982790FFE72798032851
:1045B00013DCFFE7279945F65010C0F6000030F8ED
:1045C000111040F60040C4F201000122FDF7F0FB9B
:1045D000FFE7279801302790E8E76420FDF70AFA03
:1045E00000202690FFE72698032811DCFFE7269994
:1045F00045F65010C0F6000030F81100FCF744FFFB
:104600000A20FDF7F7F9FFE7269801302690EAE740
:1046100045F67211C0F6000128A80F90FBF72AFE9C
:104620000F98FBF73DFE0F9982B240F2FC10C2F2E8
:1046300000006423FEF7C6FE00202590FFE72598C2
:1046400003280EDCFFE7259945F65010C0F6000060
:1046500030F81100FCF760FFFFE725980130259046
:10466000EDE7FFE7FDF7BCFB2490002023902290AC
:10467000219020908DF87F00FFE79DF87F000F28A4
:1046800055D0FFE7FDF7ACFB1E9000201D90FFE723
:104690001D9803284ADCFFE79DF87F001D99C8405C
:1046A000C00708B1FFE73DE01D9945F65810C0F678
:1046B000000030F8111040F60040C4F20100FDF790
:1046C0004BFB50B9FFE71D99012000FA01F19DF85D
:1046D0007F0008438DF87F0023E01E980E901D99FF
:1046E00020A850F8210030B1FFE71D9920A850F80C
:1046F00021000D9002E024980D90FFE70E980D998F
:10470000401A1C901C9851280AD3FFE71D990120DC
:1047100000FA01F19DF87F0008438DF87F00FFE764
:10472000FFE7FFE71D9801301D90B1E7A5E70020E6
:104730001B90FFE71B98032800F3E080FFE70020B1
:10474000CBF680701A909DF87F001B99C840C00777
:1047500058B1FFE71B9945F65010C0F6000030F83D
:104760001100FCF74DFE1A90FFE7AA208DF85F00BC
:1047700055208DF860001B9801308DF861001A9863
:10478000002100F085FD002850D1FFE71A98FFF7BF
:104790001FF916909DF86C001699FFF773F81590A5
:1047A0001B9840F28E22C2F200020A9264210B9101
:1047B00000FB0121089101300790159800F0BEFC24
:1047C000079A0346089809938C4609996B46C3F8E3
:1047D00004C0196045F6C811C0F60001FBF74AFD98
:1047E0000A9A0B991B9800FB01200C90FBF758FDCF
:1047F0000C9982B240F2FC10C2F20000FEF77AFE81
:1048000000208DF8620015A81490149800788DF897
:104810006300149840788DF86400149880788DF8BF
:1048200065001498C0788DF866002DE01B9940F261
:104830008E22C2F2000204926420059001FB002047
:104840004A1C45F69311C0F60001FBF713FD049ACC
:1048500005991B9800FB01200690FBF721FD0699A6
:1048600082B240F2FC10C2F20000FEF743FE0120CB
:104870008DF8620000208DF863008DF864008DF8DB
:1048800065008DF86600FFE700208DF84F000220DC
:104890001290FFE7129807280EDCFFE712990DF13E
:1048A0005F00415C9DF84F0008448DF84F00FFE722
:1048B000129801301290EDE79DF84F008DF86700D7
:1048C00040F60000C4F2010003900221029101228F
:1048D000FDF76EFA40F24420C2F200000DF15F01D4
:1048E00009226423FEF76EFD029903980022FDF76A
:1048F0005FFAFFE71B9801301B901BE740F6004072
:10490000C4F201004FF40061FDF73EFAAAE65FEA47
:10491000400C08BF91F0000F4FEA8C234FEAC122F0
:1049200043EA51514FEA1C5018BF00F5F0404FEADE
:10493000300018BF41F000415FEA6C5C00F0298054
:10494000BCF1FF3F08BF40F080407047130C06BF2A
:1049500012044FF0100C4FF0000C130E04BF1202A3
:104960000CF1080C130F04BF12010CF1040C930F8F
:1049700004BF92000CF1020CD30F04BF52000CF1E3
:10498000010C11464FF00002A0F11F00A0EB0C003B
:10499000704711F0004F08BF704731F000413FF4FD
:1049A000D5AF0B0C06BF09044FF0100C4FF0000CF4
:1049B0000B0E04BF09020CF1080C0B0F04BF090118
:1049C0000CF1040C8B0F04BF89000CF1020CCB0F0F
:1049D00004BF49000CF1010CCCF1200322FA03F3CF
:1049E00041EA030102FA0CF2A0EB0C0000F1010015
:1049F0007047000023F07F4720F07F4C80EA0300DF
:104A000000F00040ACEB070303F57C5303F1FF0318
:104A10002DE9804909B44FEA144324EA03484FEAD8
:104A2000154B25EA0B4E0FF2042606EB13273E78B2
:104A300003FB0667C7F5000707FB06F64FEAD646F5
:104A400006F102064FEA543707FB066CCCF1005C16
:104A50004FEA1C472CEA074C0CFB06F507FB06F453
:104A600004EB15464FEA961649085FEA320234BF56
:104A700000204FF000404FEAD13706FB07FC4FEA19
:104A80001C4C0CFB0BF7D21B03FB0CF761EB070173
:104A90000CFB0EF7B0EB074072EB17420CFB08F76C
:104AA00034BFA2EB0742B2EB074261EB17414FEA7A
:104AB0000C444FEA910706FB07FC4FEA1C4C0CFB29
:104AC0000BF7B0EBC74072EB573203FB0CF734BF68
:104AD000A2EBC742B2EBC74261EB57310CFB0EF7BA
:104AE000B0EBC70072EB57720CFB08F734BFA2EBB8
:104AF000C702B2EBC70261EB57714FEA816141EA2D
:104B000092114FEA826242EA90124FEA806004EB0F
:104B1000CC04039F4FEAD13706FB07FC4FEA1C4C3D
:104B20000CFB0BF7D21B03FB0CF761EB07010CFB33
:104B30000EF7B0EB074072EB17420CFB08F734BFDF
:104B4000A2EB0742B2EB074261EB17414FEA8C55EB
:104B500004EB9C244FEA910706FB07FC4FEA1C4C30
:104B60000CFB0BF7B0EBC74072EB573203FB0CF7B3
:104B700034BFA2EBC742B2EBC74261EB57310CFB2B
:104B80000EF7B0EBC70072EB57720CFB08F734BF9F
:104B9000A2EBC702B2EBC70261EB57714FEA81612A
:104BA00041EA92114FEA826242EA90124FEA806033
:104BB00015EB4C2544F100044FEAD13706FB07FC06
:104BC0004FEA1C4C0CFB0BF7D21B03FB0CF761EB01
:104BD00007010CFB0EF7B0EB074072EB17420CFB22
:104BE00008F734BFA2EB0742B2EB074261EB174173
:104BF0004FEA813141EA92414FEA823242EA9042E1
:104C00004FEA80304FEA0C7615EB1C1544F1000496
:104C100048EA03434EEA0B484FF0000EB2EB080C93
:104C200071EB030724BF624639464EEB0E0E4FF080
:104C3000000B0018524149414BEB0B0BB2EB080C37
:104C400071EB03077BF1000B24BF624639464EEB44
:104C50000E0E4FF0000B0018524149414BEB0B0B6D
:104C6000B2EB080C71EB03077BF1000B24BF62462B
:104C700039464EEB0E0E51EA020718BF46F0010608
:104C800016EB0E7655F1000254F1000103D5BDE894
:104C90008901BDE80088BDE88901BDE80048B61972
:104CA000524141EB0101A3F10103704780807F7EF7
:104CB0007D7C7B7A79787776767574737271717092
:104CC0006F6E6E6D6C6C6B6A6A6968686766666544
:104CD0006464636362616160605F5F5E5E5D5D5CD2
:104CE0005C5B5B5A5A595958585757565655555543
:104CF0005454535352525251515050504F4F4F4EA3
:104D00004E4D4D4D4C4C4C4B4B4B4A4A4A494949F0
:104D10004848484747474746464645454544444432
:104D20004443434343424242424141419C46002B5B
:104D300030D477002BD04FEA37071CB503B44FF0BF
:104D400010004FF01001BAF1000F06D0BCF1000FB7
:104D5000DCBF40F0080040F008014FF000000FBC3D
:104D6000BDE810400BF1010BBBF1010F08BF5FEA7A
:104D7000170722BF12F1010211F101014FF00041AA
:104D800043F1000300F0004043EA00007047F9D30C
:104D90005708D0E746EA06464FEA164613F1400F99
:104DA0001FDD13F1200FDFBF16430A460021203319
:104DB0005B42BED0C3F1200746EA06464FEA1646DC
:104DC00002FA07F746EA070622FA03F2C3F12007C0
:104DD00001FA07F742EA070221FA03F14FF0000354
:104DE000A7E746EA020646EA06464FEA164646EABC
:104DF0000106BCBF46EA0646360C4FF000034FF0F2
:104E000000024FF0000194E72DE9804C70B49A46FF
:104E1000934691E8380007C831EA400C48BF34EAAD
:104E2000430C03D5FFF7E6FDFFF780FFF0BCBDE8BC
:104E3000008C2DE9804C70B49A46934691E8380076
:104E400007C810F0804F08BF13F0804F03D100F067
:104E500005F8FFF76BFFF0BCBDE8008C20F07F4742
:104E600023F07F4C80EA030000F0004007EB0C03C6
:104E7000A3F57C53A3F1FE0392F0000F00F0B38082
:104E800095F0000F00F077802DE901494FEA1140BD
:104E900021EA00484FEA144624EA064700FB06FCD4
:104EA00008FB06F607FB08F818EB06484CEB164C17
:104EB00000FB07F718EB07484CEB17404FEA124B83
:104EC00022EA0B4E4FEA154625EA06470BFB06FC85
:104ED0000EFB06F607FB0EFE1EEB064E4CEB164CC9
:104EE0000BFB07F71EEB074E4CEB174B18EB0B08B1
:104EF00040F1000018EB0E0B58EB000840F10000E9
:104F00008F1A4FF000014FF000063CBFC943661BEB
:104F100014BFB5EB040C00213CBFC943F61B4FEA9C
:104F2000174427EA04454FEA1C472CEA074C04FBC8
:104F3000076205FB07F70CFB05F616EB074642EB8D
:104F4000174204FB0CFC16EB0C4642EB1C421BEB1D
:104F5000060658EB020241414EEA8E0E46EA9E06D4
:104F600001D5BDE80189B619524141EB0101A3F118
:104F70000103BDE801894FEA144524EA05464FEADA
:104F8000114721EA074C05FB07F406FB07F70CFB6A
:104F900006F111EB074144EB174405FB0CFC11EB48
:104FA0000C4144EB1C444FEA124722EA074C05FB34
:104FB00007F206FB07F70CFB06F616EB074642EB7B
:104FC000174205FB0CFC16EB0C4642EB1C456A181D
:104FD00054F1000148BF7047B619524141EB01013D
:104FE000A3F10103704795F0000F37D04FEA11424B
:104FF00021EA02464FEA144724EA074C02FB07F174
:1050000006FB07F70CFB06F414EB074441EB1741D2
:1050100002FB0CFC14EB0C4441EB1C414FEA15471E
:1050200025EA074C02FB07F506FB07F70CFB06F623
:1050300016EB074645EB174502FB0CFC16EB0C463E
:1050400045EB1C42121951F1000148BF7047B619D7
:10505000524141EB0101A3F1010370474FEA1445AE
:1050600024EA05464FEA114721EA074C05FB07F100
:1050700006FB07F70CFB06F212EB074241EB174168
:1050800005FB0CFC12EB0C4251EB1C414FF00006EF
:1050900048BF7047921841EB0101A3F1010370472B
:1050A000490050EAC12018BF04204A0D18BF40F043
:1050B000010040F2FF72B2EB515F08BF40F0020006
:1050C000012808BF0520704730380A2801D2012086
:1050D000704700207047000010B500290AD00878FA
:1050E000002807D005487844FCF742F9002801D091
:1050F000002010BD0248784410BD000016090000D1
:105100000E09000010B500290AD00878002807D041
:1051100005487844FCF72CF9002801D0002010BD88
:105120000248784410BD000006090000FE08000097
:105130000808A0F500114FEA3101704743004FEA1B
:10514000D30C4FEA3C0C43401FBF40070CF16051A9
:1051500013F0FE4F70471CF0006F03D10CF00041BC
:10516000002070470CF0004343EA507040EACC0046
:1051700010B500F09EFA00BF000000924FEA000157
:10518000FFF7D6BF4FF00041A1F500214FF000001E
:105190007047000090EA010F48BF81F0004100F124
:1051A000DA82421A3CBF801A89184FEAD052A2EB29
:1051B000D1534FF07F4C1CEA410F18BF9CEA026F9D
:1051C00000F03B804FF0004C4CEA00204CEA0121FB
:1051D00021FA03FC10EB0C0C1ED202F1FF325FEA45
:1051E0001C2040EBC25038BF70471CF07F0F4FEAC5
:1051F000400C18BFBCF17F4F38BF7047C3F120038C
:10520000994008BF20F00100BCF17F4F38BF7047C4
:10521000A0F1C04000F093BA4FEA3C00000A40EB16
:10522000C25028BF1CF0FF0F4FEA400CE6D018BF59
:10523000BCF17F4F38BF7047EAE79CEA026F05D0A8
:1052400010EA5C0F08BF00F00040704710B500F096
:1052500030FA00BF64FBBE3E10B500F0F5F80CBF9D
:105260000120002010BD10B500F0EEF814BF0120A1
:10527000002010BD10B500F033F98CBF01200020D4
:1052800010BD10B500F02CF92CBF0120002010BD7E
:1052900010B500F059F994BF0120002010BD10B5E1
:1052A00000F052F934BF0120002010BD401058BF5B
:1052B000C0F14040491058BFC1F140418142EFF375
:1052C000008070474FF47F0C1CEAD0121EBF1CEA0E
:1052D000D11392EA0C0F93EA0C0F00F0858090EA4C
:1052E000010F48BF42F4807240F4000C41F400000A
:1052F0002CF07F4120F07F4000B5A2EB03028142F9
:105300000FF2081CACEB504E9EF800E0C0F100001C
:105310004FEA4E0E00FB0EFC38BF49004FEA2C1C32
:105320000CFB0EF34FEACE1E0EEB635E4FEA112C20
:105330000EFB0CFC4FEAC1214FEA1C5300FB03118A
:1053400002F5FA024FEA112C0EFB0CFC4FEA013178
:105350004FEADC4C00FB0C1142EB2242C14228BF59
:1053600009184CEB03335DF804EB10EB410143EB00
:10537000C250B2F57C0F38BF704729D512F0F00F3C
:105380001CBF00F1C04000F00040704700818283E4
:105390008485868788898B8C8D8E8F919293959644
:1053A00097999A9C9D9FA0A2A3A5A7A8AAACAEB0CE
:1053B000B2B3B5B7B9BCBEC0C2C5C7C9CCCED1D4D3
:1053C000D7D9DCDFE2E6E9ECF0F3F7FAFE00000003
:1053D0004FEA400C0CF1807CBCF17E4F28BF704737
:1053E000B0F1C04000F0ABB90CEAD11390EA010F64
:1053F00048BF42F48072624538BF634507D213F458
:105400007F0F16D080EA010000F00040704710B511
:1054100000F04FF9097EFC3E00F005B880EA01007B
:1054200000F00040704780EA010000F0004000F00A
:1054300086B912F47F0F04BF0248704780EA01006A
:1054400000F07DB90000C07F50EA010C00F113802C
:105450001CF5000F58BFBCF5000F01D488427047FF
:1054600007D710F5000F58BF11F5000F15D488426B
:105470007047894270471CF5000F04D5BCF5000F3A
:10548000F7D5814270474FF0807C1CEB400F38BF4E
:105490001CEB410F01D28142704710B500F009F9B1
:1054A000922449004FF000504FF08051FFF7FEBEAC
:1054B00010F0004148BF4042B0FA80F310FA03F206
:1054C000C3F19D030BD051EAC35101EB12205306E7
:1054D00038BF704700F1010008BF20F0010070479D
:1054E00050EA010C00F113801CF5000F58BFBCF509
:1054F000000F01D48842704707D710F5000F58BF3E
:1055000011F5000F15D488427047894270471CF589
:10551000000F04D5BCF5000FF7D5814270474FF05E
:10552000807C1CEB400F38BF1CEB410F01D2814245
:10553000704710B500F0BDF8922449004FF080503C
:105540004FF00051FFF7B2BE50EA010C00F113809A
:105550001CF5000F58BFBCF5000F01D488427047FE
:1055600007D710F5000F58BF11F5000F15D488426A
:105570007047894270471CF5000F04D5BCF5000F39
:10558000F7D5814270474FF0807C1CEB400F38BF4D
:105590001CEB410F01D28142704710B500F089F831
:1055A000922449004FF000504FF08051FFF77EBE2B
:1055B0004FF47F0C1CEAD0121EBF1CEAD11392EAF2
:1055C0000C0F93EA0C0F00F0478090EA010F48BFE0
:1055D00042F480724FF0004C4CEA00204CEA01216A
:1055E00002EB0302A0FB0113A2F50002002918BF81
:1055F00043F001035B0028BF4FEA330342EB224232
:105600005FEA132C4CEBC2502EBFBCEB436FB2F5DC
:105610007C0F70474FEA036CBCF1004F08BF20F0CD
:105620000100B2F57C0F38BF70470BD582F0FF0246
:1056300012F5803FC8BF704700F1C040D8BF00F0EE
:105640000040704700F5000C5FEA4C0C48BF704703
:10565000B0F1C04000F073B80CEAD11390EA010F2A
:1056600048BF42F48072624538BF634504D280EA85
:10567000010000F00040704710B500F01AF800BFBC
:105680008900013E00F007B800F009B85FEA410C5C
:105690005FEA1C6C08D080EA010000F050B85FEAB5
:1056A000400C5FEA1C6CF6D14FF00040A0F5800082
:1056B00070470EF1020E2EF0030E5EF8044B2442EA
:1056C00004D44FEA4102B2F17F4F11D84FEA4003B0
:1056D000B3F17F4F0CD80ED14FEAD07C0CEB4C0CC1
:1056E0000CF1020CB2F17F4F08BF4CEBD17C04E00F
:1056F0004FF0080C01E04FEAD17C0CEB4C0324FA8C
:1057000003F404F00704B4F1040C06D20EEB840C8D
:10571000BDE810404CF0010C6047DFE80CF00708D2
:1057200002024FF00040A0F5800010BD0846420084
:1057300018BFD2F1807288BF00F0004010BDFF2179
:1057400041EAD050C005704790EA010F48BF81F090
:1057500000413FF526AD421A04D882F00042A0EB8A
:10576000020011444FEAD052A2EBD1534FF07F4CCC
:105770001CEA410F18BF9CEA026F4AD04FF0004C60
:105780004CEA00204CEA012121FA03FCB0EB0C0C9E
:105790000FD412F0FE0F36D05FEA4C001DD5001278
:1057A00040EBC25038BF70471CF03F0F18BF704726
:1057B0000BE05FEA1C20A2F1010240EBC25038BFAF
:1057C00070471CF07F0F18BF7047C3F1200399404A
:1057D00014BF401E20F0010070474FEA12238008DA
:1057E00008BF7047B0FA80FCA2EB0C02CCF1280C89
:1057F00060FA0CF093EA122F04BF00EBC25070471E
:105800004FEAC3707047130A5FEADC1008BF7047A5
:10581000F6E79CEA026F04D010EA5C0F08BF002094
:10582000704710B5FFF745FF40DFF63E81F00040BE
:105830007047FBF7A7B9FBF7DBBA000000000000D8
:1058400000000000303132333435363738394142C8
:1058500043444546403058003031323334353637D2
:10586000383961626364656640307800040000087E
:105870000000000000000002000100001030313282
:105880003334353637383961626364656678700061
:105890003031323334353637383941424344454666
:1058A0005850000002400000000000A0000000006E
:1058B00005400000000000C8000000000C4000008F
:1058C0000000409C00000000194000000020BCBE09
:1058D0000000000034400000BFC91B8E000000041F
:1058E000B5400000504BCFD06607E2CF010000006A
:1058F0006C4100003E8251AADFEEA7340100000097
:10590000D9420000DCB5A0E23A301F97FFFFFFFF4D
:10591000B4450000FD25A0C8E9A3C14FFFFFFFFF6C
:10592000FF3F00000000008000000000FF3F00007B
:1059300000000080000000000000000000000000E7
:105940000102030406070809000000000102030425
:10595000001000200040008001000200040000044C
:1059600002030405060708090A0B0C0D0E0F1010A0
:105970000102342D43482050543130303020496EDC
:10598000697469616C697A6174696F6E204F4B212B
:105990000D0A0043482564204572726F72210D0A7A
:1059A000000D0A3D3D3D3D3D3D3D3D3D3D3D3D3DC7
:1059B0003D3D3D3D3D3D3D3D3D3D3D3D3D3D3D3D17
:1059C0003D3D3D3D3D0D0A004348256420543A20AD
:1059D000252E346620430D0A00000000285B0008D5
:1059E000000000201000000028010008385B0008BB
:1059F00010000020180A0000440100081C000000EC
:105A000043000000F8FFFFFF0C0000000E00000044
:105A10000F0000002E0000001001000043000000F5
:105A2000F8FFFFFF004040404040404040404141BF
:105A30004141414040404040404040404040404063
:105A400040404040400502020202020202020202FD
:105A500002020202022020202020202020202002FA
:105A6000020202020202909090909090101010108A
:105A70001010101010101010101010101010101026
:105A800002020202020288888888888808080808BA
:105A90000808080808080808080808080808080886
:105AA00002020202400000000000000000000000AE
:105AB00000000000000000000000000000000000E6
:105AC00000000000000000000000000000000000D6
:105AD00000000000000000000000000000000000C6
