:020000040800F2
:10000000E011002039030008554C0008E1400008C9
:10001000514C0008CD070008155A000800000000E8
:10002000000000000000000000000000790200084D
:100030005908000800000000D5020008C14C000863
:100040005303000853030008530300085303000838
:100050005303000853030008530300085303000828
:10006000530300085303000853030008D107000896
:10007000E107000853030008530300085303000876
:1000800053030008530300085303000853030008F8
:1000900053030008530300085303000853030008E8
:1000A00053030008530300085303000853030008D8
:1000B00053030008530300085303000853030008C8
:1000C00053030008530300085303000853030008B8
:1000D00053030008530300085303000853030008A8
:1000E0005303000853030008530300085303000898
:1000F0005303000853030008530300085303000888
:100100005303000853030008554D0008530300082B
:100110005303000853030008530300085303000867
:100120005303000853030008530300085303000857
:100130005303000853030008530300085303000847
:100140005303000853030008530300085303000837
:100150005303000853030008530300085303000827
:100160005303000853030008530300085303000817
:100170005303000853030008530300085303000807
:1001800053030008530300085303000853030008F7
:100190005303000800000000530300085303000845
:1001A00053030008530300085303000853030008D7
:1001B00053030008530300085303000853030008C7
:1001C00053030008530300085303000853030008B7
:1001D000530300085303000800F002F800F03CF855
:1001E0000AA090E8000C82448344AAF10107DA4592
:1001F00001D100F031F8AFF2090EBAE80F0013F0A8
:10020000010F18BFFB1A43F001031847E85B000019
:10021000085C0000103A24BF78C878C1FAD85207A9
:1002200024BF30C830C144BF04680C607047000070
:100230000023002400250026103A28BF78C1FBD8EF
:10024000520728BF30C148BF0B6070471FB505F08B
:10025000ABFD1FBD10B510BD00F02FF91146FFF723
:10026000F5FF05F0F5FB00F04DF903B4FFF7F2FFE1
:1002700003BC00F055F900002C4B19680868B0E881
:10028000F04F80F30988BFF36F8F4FF0000080F3C9
:10029000118870470000000008480068006880F37B
:1002A00008884FF0000080F3148862B661B6BFF38F
:1002B0004F8FBFF36F8F00DF00BF00BF08ED00E07E
:1002C000DFF80C00016841F470010160704700BF65
:1002D00088ED00E0EFF30980BFF36F8F134B1A68CE
:1002E0001EF0100F08BF20ED108A20E9F04F1060BB
:1002F00009B44FF0500080F31188BFF34F8FBFF364
:100300006F8F05F03DFC4FF0000080F3118809BCB1
:1003100019680868B0E8F04F1EF0100F08BFB0EC85
:10032000108A80F30988BFF36F8F70471400002094
:10033000EFF30580704700000948804709480047EF
:10034000FEE7FEE7FEE7FEE7FEE7FEE7FEE7FEE785
:10035000FEE7FEE704480549054A064B70470000E2
:10036000414D0008D9010008E00B0020E0110020F9
:10037000E00D0020E00D002053EA020C00F069803F
:100380002DE9F04B4FF00006002B1FBFB3FA83F5A9
:1003900003FA05F424FA05F65E4012BF1643B2FADA
:1003A00082F502FA05F4C5F120051EBF22FA05FC0C
:1003B00044EA0C04203556EA044C4FEA144418BFB2
:1003C000641C4FF000084FF00009904271EB030CE1
:1003D00039D3002919BFB1FA81F701FA07F6B0FA4B
:1003E00080F700FA07F6C7F120071EBF20FA07FCC6
:1003F00046EA0C062037B6FBF4FCA7EB0507103FD6
:1004000007F01F0BCBF120060CFA0BFB2CFA06F6BB
:1004100044BFB3460026202FA4BF5E464FF0000B1A
:100420005BEA060C08BF4FF0010B19EB0B09ABFBA5
:10043000027C48EB0608C01B06FB02CC0BFB03CC7E
:1004400071EB0C01C1E70B46024641464846BDE848
:10045000F08B13B54FF000004FF00001AFF30080B8
:10046000BDE81C4070474FF0000200B513469446AB
:100470009646203922BFA0E80C50A0E80C50B1F1FC
:100480002001BFF4F7AF090728BFA0E80C5048BF10
:100490000CC05DF804EB890028BF40F8042B08BFAE
:1004A000704748BF20F8022B11F0804F18BF00F8AA
:1004B000012B7047704770477047754600F02CF865
:1004C000AE4605006946534620F00700854618B041
:1004D00020B5FFF73FFFBDE820404FF000064FF08A
:1004E00000074FF000084FF0000B21F00701AC4669
:1004F000ACE8C009ACE8C009ACE8C009ACE8C00988
:100500008D46704710B50446AFF300802046BDE825
:100510001040FFF7AABE000000487047800B002083
:1005200001491820ABBEFEE726000200704700001C
:1005300010B54FF400410B4801F092FB28B99FED34
:100540000A0A00F07BF8012010BD4021074801F0A5
:1005500087FB28B99FED040A00F070F80220F3E74A
:100560000020F1E7000400480000000000100048EF
:1005700010B52DED028BB0EE408A0D480068C46ABC
:100580009FED0C1ADFED0C0AB0EE480A00F040F8BF
:10059000B0EE408A601C00EE100AB8EE400A20EE71
:1005A000080ABCEEC00A10EE100ABDEC028B10BDAA
:1005B000B80300203333733F0000000010B5012260
:1005C00004210E4801F05EFB00224FF400710C483C
:1005D00001F058FB002280210A4801F053FB002063
:1005E00000F068F80021084801F006F94FF47A702D
:1005F00000F066F8054801F0B1FD10BD000C0048A0
:10060000000400480010004888010020C4010020B8
:10061000F0EE401AF4EEC11AF1EE10FA02DDB0EE7F
:10062000410A7047F4EEE01AF1EE10FA02D2B0EE91
:10063000600AF6E7B0EE610AF3E7000010B52DEDB1
:10064000028BB0EE408AB6EE001AFEEE000AB0EE63
:10065000480AFFF7DDFFB0EE408AB5EEC08AF1EE42
:1006600010FA0CDD01225102114801F00BFBB0EE33
:10067000480AFFF77DFF044600F01CF815E0B5EED0
:10068000C08AF1EE10FA0DD200224FF40071084832
:1006900001F0F8FAB1EE480AFFF76AFF044600F0ED
:1006A00009F802E0002000F005F8BDEC028B10BD57
:1006B000000400480149096848637047B8030020F6
:1006C00070B5044640F6E440844200D90446C4EBC9
:1006D000043040F6E441B0FBF1F52B460022114610
:1006E000014801F065F870BD8801002070B52DED5E
:1006F000028BB0EE408A05469FED261ADFED260AF2
:10070000B0EE480AFFF784FFB0EE408AFFF756FFCD
:10071000322001F0ABF92846FFF7D2FF0A2001F0A2
:10072000A5F900211D4803F07DFA0020FFF7C2FF64
:10073000012280211A4801F0A5FA0A2001F096F959
:10074000FFF7F6FE044664B19FED160AFFF776FF49
:1007500000228021124801F095FA2046BDEC028B60
:1007600070BDB0EE480AFFF769FF142001F07EF972
:10077000FFF7DEFE044654B19FED0A0AFFF75EFF65
:1007800000228021064801F07DFA2046E6E700209D
:10079000E4E70000CDCC4C3DCDCC4CBDB8030020EF
:1007A000001000480000000010B59FED060AFFF79A
:1007B00045FF052001F05AF900228021024801F08E
:1007C00061FA10BD000000000010004800BFFEE705
:1007D00010B5024801F062F810BD000028010020A9
:1007E00010B5024801F05AF810BD000010060020B4
:1007F00030B50E4D0468AC4201D20D4901E00C4900
:1008000020310B460478083C1425B4FBF5F2446C07
:10081000A40803EB84048464054C8034C46402F0AF
:100820001F050124AC40046530BD000008040240EF
:100830000008024001794A1E064B03EB8202426522
:10084000044A403282654A1E02F01F0301229A4088
:10085000C265704700090240704772B600BFFEE7EC
:100860002DE9F0439BB004460E464FF00008306877
:1008700000B100BF00BF94F85800012803D1022046
:100880001BB0BDE8F083012084F8580000BF0020B1
:10089000179018902068B0F1A04F02D158480090EE
:1008A00008E058492068884202D15748009001E08A
:1008B00000200090009850B9E06D40F02000E06505
:1008C00000BF002084F8580000BF0120D8E700983E
:1008D00003F02FFC0746206803F02BFC00287DD195
:1008E000002F7FD12068B0F1A04F03D04449206889
:1008F000884201D1454800E0454805463068D8B3F4
:1009000094F83800716841EA4030A96821F46041E8
:100910000843A8602068B0F1A04F03D03849206890
:10092000884201D1394800E03948384988420AD123
:100930004FF0A04003F0EEFB8146314803F0EAFBA4
:1009400049EA00000DE02F4803F0E4FB81462E4801
:1009500003F0E0FB49EA00092E4803F0DBFB49EA1B
:100960000000E0BBB16830680843A96840F61F7218
:1009700091430843A8603BE0FFE7A86820F460408B
:10098000A8602068B0F1A04F03D01D4920688842BC
:1009900001D11E4800E01E481C4988420AD14FF090
:1009A000A04003F0B7FB8146154803F0B3FB49EACA
:1009B00000000DE0134803F0ADFB8146124803F040
:1009C000A9FB49EA0009134803F0A4FB49EA000027
:1009D00028B9A86840F61F71884301E002E007E0EB
:1009E000A86005E0E06D40F02000E0654FF00108F0
:1009F00000BF002084F8580000BF404640E70000D8
:100A00000001005000040050000500500003005099
:100A100000070050000600502DE9F84F05460C462F
:100A20004FF0000A00200090FE49E068884200D0A4
:100A300000E000BF00BF95F85800012802D1022055
:100A4000BDE8F88F012085F8580000BF286803F042
:100A50006BFB00287DD12968D4E9002001F1300C1E
:100A6000C0F3012B0CEB8B03D3F800C000F01F0E7A
:100A70004FF01F0B0BFA0EFB2CEA0B0C00F01F0BB8
:100A8000C2F3846E0EFA0BFE4CEA0E0CC3F800C0E3
:100A900000BF286803F048FB8146286803F030FB5C
:100AA0008046B9F1000F64D1B8F1000FFBD1A06806
:100AB000B0F1004F0AD121680022286803F03EFB04
:100AC0004FF00041286803F05EFB08E0A26821684F
:100AD000286803F033FB0021286803F054FB6069A9
:100AE0002968C968C1F3C101490000FA01F720690A
:100AF00004283FD028682268216900F1600C0CEBC3
:100B00008103D3F800C0DFF820B30CEA0B0C02F02D
:100B1000F84B4BF0004B4BEA070B4CEA0B0CC3F8BD
:100B200000C000BF2868A269216900F1600C0CEBCD
:100B30008103D3F800C02CF0807C4CEA020CC3F88F
:100B400000C000BF2868227F2169012A02D1520615
:100B500001E0F6E10022134600F1600C0CEB81028B
:100B6000D2F800C02CF0007C4CEA030CC2F800C0A4
:100B700000BFA7E00021286803F0B9FAC0F3120013
:100B800030B90021286803F0B2FAC0F3846007E0AE
:100B90000021286803F0ABFA90FAA0F0B0FA80F0D8
:100BA0002168C1F3120119B92168C1F3846104E01D
:100BB000216891FAA1F1B1FA81F1884204D10022B1
:100BC0001146286803F0D4FA0121286803F08FFA4F
:100BD000C0F3120030B90121286803F088FAC0F38D
:100BE000846007E00121286803F081FA90FAA0F000
:100BF000B0FA80F02168C1F3120119B92168C1F37C
:100C0000846104E0216891FAA1F1B1FA81F188428E
:100C100004D100220121286803F0AAFA02212868E1
:100C200003F065FAC0F3120030B90221286803F01E
:100C30005EFAC0F3846007E00221286803F057FAE7
:100C400090FAA0F0B0FA80F02168C1F3120119B94E
:100C50002168C1F3846104E0216891FAA1F1B1FA3D
:100C600081F1884204D100220221286803F080FA31
:100C70000321286803F03BFAC0F3120030B90321C6
:100C8000286803F034FAC0F3846007E00321286881
:100C900003F02DFA90FAA0F0B0FA80F02168C1F3C9
:100CA000120119B92168C1F3846104E0216891FA45
:100CB000A1F1B1FA81F1884204D100220321286810
:100CC00003F056FA286803F020FA002870D128684B
:100CD000E2682168D0F8B0C0C1F312032CEA030C1B
:100CE00002F0180B514B23FA0BF30B404CEA030CA8
:100CF000C0F8B0C000BF4B49E068884258D12368B3
:100D0000C3F312031BB92368C3F3846304E02368AD
:100D100093FAA3F3B3FA83F35B1C03F01F03092BCD
:100D20003ED82368C3F312031BB92368C3F384635B
:100D300004E0236893FAA3F3B3FA83F35B1C03F094
:100D40001F034FF0010C0CFA03FC2368C3F31203DA
:100D50001BB92368C3F3846304E0236893FAA3F305
:100D6000B3FA83F35B1C03F01F034CEA836C236824
:100D7000C3F312031BB92368C3F3846304E023683D
:100D800093FAA3F3B3FA83F35B1C03F01F0303EBA3
:100D900043034FF0000B4BEA03534CEA03033FE0DD
:100DA0002368C3F3120323B92368C3F3846305E004
:100DB00042E0236893FAA3F3B3FA83F35B1C03F0D6
:100DC0001F034FF0010C0CFA03FC2368C3F312035A
:100DD0001BB92368C3F3846304E0236893FAA3F385
:100DE000B3FA83F35B1C03F01F034CEA836C2368A4
:100DF000C3F312031BB92368C3F3846304E02368BD
:100E000093FAA3F3B3FA83F35B1C03F01F030A3BCB
:100E100003EB43034FF0007B4BEA03534CEA03031D
:100E2000194605E000007F4000F0FF03FFFF0700C8
:100E3000A268286803F082F9484920680840002821
:100E400042D02968B1F1A04F03D0454A29689142A8
:100E500001D1444900E04449084603F043F90646FD
:100E600042492068884203D04149206888422CD1F9
:100E700006F4000048BB2868B0F1A04F03D03D49FC
:100E80002868884263D12A68B2F1A04F03D0344B5E
:100E90002A689A4201D1334A00E0334A104646F4A8
:100EA000000103F05FF9344800683449B0FBF1F009
:100EB000401C00EB40008000009002E00098401EC3
:100EC000009000980028F9D141E02D49206888421F
:100ED0001BD106F08070C0B921492868884203D12F
:100EE00028492868884232D02A68B2F1A04F03D03E
:100EF0001B4B2A689A4201D11A4A00E01A4A10464E
:100F000046F0807103F02EF921E01F4920688842E5
:100F10001DD106F48000D0B911492868884216D046
:100F20002A68B2F1A04F03D00B462A689A4201D139
:100F30000C4A00E00C4A104646F4800103F012F916
:100F400005E0E86D40F02000E8654FF0010A00BFC1
:100F5000002085F8580000BF504671E50000088069
:100F6000000100500003005000070050000021C3A2
:100F70001000C0900006005010000020400D03003B
:100F8000000052C700050050000084CB2DE9F84353
:100F900004464FF000080020009014B90120BDE87D
:100FA000F883606920B194F82400012800D100BFC3
:100FB000E06D30B9204600F045F90020206684F845
:100FC000580020688168C1F3407131B120688168A0
:100FD000914A1140816000BF00BF206803F09FF874
:100FE000B0B9206881688D4A114041F0805181601C
:100FF00000BF8B4800688B49B0FBF1F0401C4000FB
:10100000009002E00098401E009000980028F9D15E
:10101000206803F084F848B9E06D40F01000E06506
:10102000206E40F0010020664FF00108206803F0B8
:101030007BF80646E06D00F0100000287ED1002EFF
:10104000FCD1E06D20F4807040F00200E065206883
:1010500003F05BF888BB2068B0F1A04F03D0724961
:101060002068884201D1714800E071486F49884288
:101070000AD14FF0A04003F048F881466A4803F0D7
:1010800044F849EA00000DE06A4803F03EF8814662
:10109000694803F03AF849EA0009684803F035F86E
:1010A00049EA000048B92268B2F1A04F03D05E4B74
:1010B00022689A4202D15D4A01E009E05C4A10468A
:1010C0006168826822F47C120A43826000BF00BF1C
:1010D000607FE16B41EA4030E1680843A168084362
:1010E00094F8241040EA014594F82400012803D123
:1010F000208D401E45EA4045E06A28B1A08D00F4ED
:101100007870216B084305432068C0684C4908404B
:1011100028432168C8602068006920F04060616B46
:10112000084321680861206802F0EAFF0746EEBB29
:10113000E7BB207F002141EA803100E064E094F8C1
:10114000380041EA40052068C06844F20201884343
:1011500028432168C860206980B12068006940F494
:101160008030216808612068D0F8C0006FF30D005E
:10117000216908432168C1F8C0000DE020680069BA
:1011800020F48030216808612068D0F8C0006FF337
:101190000D002168C1F8C00094F84000012813D167
:1011A000606C40F00101A06C084300E012E0E16CCB
:1011B0000843216D08432168096940F2FC7291439C
:1011C00008432168086105E02068006920F00100FB
:1011D000216808616069012809D12068006B20F04E
:1011E0000F00216A491E08432168086305E0206852
:1011F000006B20F00F0021680863E06D20F0020012
:1012000040F00100E06505E0E06D40F01000E065B1
:101210004FF001084046C2E6C0FFFF5FC0FFFF7FFE
:1012200010000020400D030000010050000300509A
:101230000007005000040050000500500006005058
:101240000740F0FF10B59CB00446142117A8FFF723
:101250000AF9542102A8FFF706F92068B0F1A04F5F
:101260006AD14FF4004002908003139002A801F06D
:1012700027F808B1FFF7F1FA74480068401C734979
:1012800008600846006801280DD100BF7048C06C96
:1012900040F400506E49C8640846C06C00F4005029
:1012A000019000BF00BF00BF6948C06C40F004005F
:1012B0006749C8640846C06C00F00400019000BF94
:1012C00000BF00BF0846C06C40F00100C86408467B
:1012D000C06C00F00100019000BF00BF00BF0846D5
:1012E000C06C40F00200C8640846C06C00F0020008
:1012F000019000BF00BF0F2017900320189000201E
:10130000199017A9534800F0C5FB0B201790032034
:1013100018900020199017A94FF0904000F0BAFBE8
:1013200044F601001790032018900020199017A987
:10133000494800F0AFFB87E0484920688842FAD16D
:10134000C00102908003139002A800F0B9FF08B119
:10135000FFF783FA3D480068401C3C490860084696
:10136000006801280DD100BF3948C06C40F400501E
:101370003749C8640846C06C00F40050019000BFB3
:1013800000BF00BF3248C06C40F001003049C86463
:101390000846C06C00F00100019000BF00BF00BF14
:1013A0000846C06C40F00400C8640846C06C00F0F9
:1013B0000400019000BF00BF00BF0846C06C40F0B1
:1013C0000200C8640846C06C00F00200019000BF33
:1013D00000BFA0201790032018900020199017A993
:1013E0004FF0904000F056FB3020179003201890EB
:1013F0000020199017A9174800F04CFB0420179003
:10140000032018900020199017A9134800F042FB00
:101410001348144908602420486000211148816065
:10142000C160802101614900416189008161002121
:10143000C161016200F0B2FA08B1FFF70EFA00BF15
:1014400008486065846200BF1CB010BD0000002029
:10145000001002400008004800040048000100504D
:1014600008000240280100202DE9F84F04460D46EF
:1014700016460020009004B115B90120BDE8F88F90
:10148000E869012800D100BFA868042800D100BF86
:1014900000BF6079012801D10220EFE701206071CF
:1014A00000BF02202071A868042859D100F0F0FB89
:1014B0008246E6B911E000F0EBFBA0EB0A00012840
:1014C0000BD92068406B00F4004030B1206940F037
:1014D0000800206103202071D0E72068406B00F4F1
:1014E00000400028E7D1686A216808641BE011E029
:1014F00000F0CEFBA0EB0A0001280BD92068406B5E
:1015000000F0004030B1206940F008002061032065
:101510002071B3E72068406B00F000400028E7D15D
:10152000686A216848642068806C06F0100240F206
:10153000FF319140884306F01002A96A91400843A8
:10154000216888642068C06C06F01002FF21914079
:10155000884306F01002E96A914008432168C86494
:10156000E86901280FD12068876B06F010011F2061
:1015700088408743D5F8208006F0100008FA00F074
:101580000743206887632068C76B06F010010720B7
:1015900088408743A869012802D14FF000090CE078
:1015A000A869022802D14FF0010906E0686910B964
:1015B0004FF0010901E04FF000096969A86808438C
:1015C00040EA090806F010014FF480708840874314
:1015D0002879012801D1000200E0002040EA080833
:1015E00006F010014FF400708840874368790128A5
:1015F00001D1400200E0002040EA080827F44047FB
:10160000286802280FD101F09BF983462C498B45AD
:1016100002D947F4004708E02A48834502D947F435
:10162000804702E001E02868074306F0100108FA4D
:1016300001F007432068C7632068006806F01002C5
:101640004FF4804191408843216808602068076812
:1016500006F0100140F6FE7088408743D5F80C80F4
:1016600006F0100108FA01F00743206807602068BF
:10167000006806F01002C02191408843216808608C
:10168000287BC0F38308287CC0F3830048EA002845
:101690002068006E06F0100240F60F7191408843FA
:1016A00006F0100108FA01F10843216808660120DC
:1016B000207100BF0020607100BF0098DEE60000CE
:1016C0000068890900B4C40410B504460CB90120AF
:1016D00010BD207920B900206071204600F008F884
:1016E0000220207100202061012020710020EFE7FE
:1016F00010B586B00446142101A8FEF7B4FE2849AF
:101700002068884226D100BF2648C06C40F4803053
:101710002449C8640846C06C00F48030009000BFC3
:1017200000BF00BF0846C06C40F00100C864084616
:10173000C06C00F00100009000BF00BF10200190BD
:10174000032002900020039001A94FF0904000F088
:10175000A1F923E01449206888420DD100BF114847
:10176000C06C40F480200F49C8640846C06C00F487
:101770008020009000BF11E00C49206888420DD104
:1017800000BF0848C06C40F400200649C864084601
:10179000C06C00F40020009000BF00BF06B010BD78
:1017A00000080050001002400010005000140050CB
:1017B00078B50446002000900CB9012078BD20685F
:1017C000C06B01F010064FF48075B540284000B999
:1017D00000BF2068009029B902F10800009D28444C
:1017E000009004E002F11400009D2844009000984D
:1017F00003600020E2E7000018B502460AB90120A4
:1018000018BD00BF5079012801D10220F8E701205E
:10181000507100BF022010711068006801F01004C0
:101820000123A3401843136818601A4800681A4B34
:10183000B0FBF3F0401C009002E00098401E0090C6
:1018400000980028F9D161B91068006800F03E00E6
:10185000022816D11068406840F0010013685860F3
:101860000FE01068006800F4781301F01004022003
:10187000A040834205D11068406840F00200136820
:1018800058600120107100BF0020507100BF00BFE0
:10189000B6E7000010000020400D030070B50446BC
:1018A000206C05682068066894F8440000F01F0169
:1018B000042088402840E0B106F00400C8B1206848
:1018C000006800F0200028B92068006820F00400BB
:1018D0002168086094F8440000F01F01042088404B
:1018E000216C4860206B002856D02046216B884729
:1018F00052E094F8440000F01F0102208840284084
:1019000018B306F0020000B32068006800F0200061
:1019100040B92068006820F00A00216808600120B2
:1019200084F8250094F8440000F01F01022088404C
:10193000216C486000BF002084F8240000BFE06AEA
:1019400050B32046E16A884726E094F8440000F04E
:101950001F01082088402840F0B106F00800D8B1E7
:101960002068006820F00E002168086094F84400A8
:1019700000F01F0101208840216C48600120E063D5
:1019800084F8250000BF002084F8240000BF606BAD
:1019900010B12046616B884770BD000070B50446E9
:1019A0000CB9012070BD2F49206888420BD22E4906
:1019B0002068401A1421B0FBF1F0800060642A48CE
:1019C000083820640AE027492068401A1421B0FB37
:1019D000F1F080006064234808382064022084F815
:1019E00025002068056847F6F0708543D4E90201B8
:1019F00008432169084361690843A1690843E16913
:101A00000843216A08430543206805602046FEF725
:101A1000EFFEA068B0F5804F01D100206060207912
:101A2000A16C0860D4E913104860606860B1606818
:101A3000042809D82046FEF7FDFE0020616D0860ED
:101A4000D4E91610486003E000206065A065E065F9
:101A50000020E063012084F82500002084F82400A1
:101A600000BF9FE7080402400800024070B504462A
:101A700000F00EF906462546681C10B104480068BF
:101A8000054400BF00F004F9801BA842FAD370BDE2
:101A90000C00002078B502460B460021CAE0012662
:101AA0008E401D6805EA0604002C73D01D7905F0F0
:101AB0000305012D04D01D7905F00305022D13D176
:101AC00090684E000325B540A8434E00DD68B54040
:101AD00028439060506801258D40A8431D79C5F3C7
:101AE00000158D40284350601D7905F00305032D36
:101AF00009D0D0684E000325B540A8434E009D682C
:101B0000B5402843D0601D7905F00305022D13D19F
:101B1000CE0802F1200555F826004D07EE0E0F25E0
:101B2000B540A8434E07F60E1D69B5402843CE08C0
:101B300002F1200545F8260010684E000325B54047
:101B4000A8431D7905F003054E00B54028431060F9
:101B50005D6805F44035002D6BD000BF384D2D6E0B
:101B600045F00105364E356635462D6E05F001050A
:101B7000009500BF00BF4FEAB6358E0855F8260025
:101B80008D072E0F0F25B540A843B2F1904F02D11B
:101B900000251AE04DE02B4DAA4201D1012514E0A9
:101BA000294DAA4201D102250FE0284DAA4201D1B8
:101BB00003250AE0264DAA4201D1042505E0254D62
:101BC000AA4201D1052500E006258E07360FB54053
:101BD0002843214D8E0845F82600204D2868A04353
:101BE0005D6805F4801505B120431C4D28602D1D4E
:101BF0002868A0435D6805F4001505B12043174D22
:101C00002D1D2860154D2D1F2868A0435D6805F423
:101C1000003505B12043114D2D1F28602D1F286868
:101C2000A0435D6805F4803505B120430B4D083DA8
:101C30002860491C1D68CD40002D7FF430AF78BD71
:101C4000001002400004004800080048000C004852
:101C5000001000480014004808000140080401403A
:101C6000024613690B400BB1012000E000207047D1
:101C700010B5426921EA020302EA010443EA04437F
:101C8000836110BD0AB1816100E08162704700008C
:101C90000148006870470000040000200348006805
:101CA000034909680844014908607047040000209E
:101CB0000C00002010B50024032000F0D1F80F2004
:101CC00000F008F808B1012401E000F051F82046C6
:101CD00010BD0000F0B587B004460026002700BF05
:101CE0001E48806D40F008001C4988650846806DDC
:101CF00000F00800009000BF00BF01A902A800F09A
:101D0000FDFD00F023FE06461548B6FBF0F0471E29
:101D100014481549086040F2E7311348C160476034
:101D200000210161816001F046FB054695B90E482E
:101D300001F0CAFB05466DB9322000F03FF8102CC7
:101D400007D200222146322000F04CF807480460F8
:101D500000E00125284607B0F0BD00000010024059
:101D600040420F00000C00407006002008000020D8
:101D700008B500BF1048006E40F001000E4908662B
:101D80000846006E00F00100009000BF00BF00BFD9
:101D90000846806D40F0805088650846806D00F0F0
:101DA0008050009000BF00BF00220F21901E00F065
:101DB00019F800F07BFA08BD001002400146084601
:101DC00000280DDB00BF00BF00F01F0301229A4076
:101DD00043099B0003F1E023C3F8002100BF00BFCB
:101DE00000BF70472DE9F05F80460D46164603F0B0
:101DF00013FE074639462A46334601F00700C0F174
:101E0000070ABAF1040F02D94FF0040A01E0C0F149
:101E1000070AD14600F1040ABAF1070F02D24FF0C7
:101E2000000A01E0A0F1030AD4464FF0010A0AFAC1
:101E300009FAAAF1010A0AEA020A0AFA0CFA4FF0B0
:101E4000010B0BFA0CFBABF1010B0BEA030B4AEA9B
:101E50000B042146404603F0E7FDBDE8F09F00007B
:101E600000BF00F00702064B19684FF6FF03194048
:101E7000044B0B4343EA0221014B196000BF70473A
:101E80000CED00E00000FA0538B5044600250CB959
:101E9000012038BD94F83A00052801D10120F8E767
:101EA00094F83A00022801D10120F2E7A06800B9B5
:101EB00000BFA06900B100BFA068402800D100BFEA
:101EC000E06A102800D100BF00BF4248006E40F019
:101ED0000100404908660846006E00F001000090CD
:101EE00000BF00BF94F83A0010B9002084F8390010
:101EF000204600F073F8A068402802D0A06860284F
:101F000026D12068006820F01000E16A08432168AB
:101F10000860D4E90101084321690843217D0129B2
:101F200001D1090200E000210843616A0843A16A67
:101F30000843218E40EAC14194F8340041EA006030
:101F400021680968244A114008432168086027E095
:101F50002068006820F01000E16A084321680860EA
:101F6000D4E901010843E168084321690843217D60
:101F7000012901D1090200E000210843616A0843F8
:101F8000A16A0843218E40EAC14194F8340041EA35
:101F9000006021680968104A114008432168086000
:101FA0002068806900F0004058B9D4E90601084370
:101FB000216A08432168896921F03F0108432168AB
:101FC000886194F83A0010B9012084F83A00284654
:101FD0005FE7000000100240113E00E010B586B03F
:101FE0000446142101A8FEF73EFA584920688842A9
:101FF00019D100BF5648C06C40F001005449C86474
:102000000846C06C00F00100009000BF00BF042033
:102010000190032002900020039001A94FF090400E
:10202000FFF738FD90E04949091D2068884231D109
:1020300000BF4748C06C40F001004549C8640846ED
:10204000C06C00F00100009000BF00BF00BF084658
:10205000C06C40F00800C8640846C06C00F008007E
:10206000009000BF00BF402001900320029000209C
:10207000039001A94FF09040FFF70CFD4FF4804012
:102080000190032002900020039001A93148FFF73E
:1020900001FD59E02D4908312068884218D100BF60
:1020A0002B48C06C40F002002949C8640846C06C47
:1020B00000F00200009000BF00BF0220019003204A
:1020C00002900020039001A92348FFF7E3FC3BE0C6
:1020D0001E490C312068884218D100BF1C48C06CD2
:1020E00040F002001A49C8640846C06C00F00200C3
:1020F000009000BF00BF88140190032002900020D0
:10210000039001A91448FFF7C5FC1DE00F491031E9
:102110002068884218D100BF0D48C06C40F0010013
:102120000B49C8640846C06C00F00100009000BF75
:1021300000BF88150190032002900020039001A9A0
:102140004FF09040FFF7A6FC06B010BD0003014021
:1021500000100240000C0048000400480146002026
:1021600009B9012014E091F83A20052A01D1012093
:102170000EE091F83A20012A09D10A68126842F06B
:1021800001020B681A60042281F83A2000E0012065
:102190007047000002468ABB4148006800F4C060F6
:1021A000B0F5806F2BD13E488030006820F48070FD
:1021B0003B4BC3F880001846006820F4C06040F430
:1021C000007018603748006832235843364BB0FB24
:1021D000F3F0411C00E0491E3148406900F4806082
:1021E000B0F5806F01D10029F5D12D48406900F488
:1021F0008060B0F5806F51D10320704708E0284817
:102200008030006820F48070254BC3F8800045E0E2
:10221000B2F5007F3AD12248006800F4C060B0F502
:10222000806F2AD11E488030006840F480701C4BBB
:10223000C3F880001846006820F4C06040F40070C5
:1022400018601848006832235843174BB0FBF3F06E
:10225000411C00E0491E1248406900F48060B0F55E
:10226000806F01D10029F5D10D48406900F48060EC
:10227000B0F5806F12D10320BFE7094880300068B5
:1022800040F48070064BC3F8800007E00448006803
:1022900020F4C06040F48060014B18600020ACE77F
:1022A000007000401000002040420F00034880688A
:1022B00040F4804001498860704700000070004091
:1022C0002DE9F84304460027B846206800F40020B2
:1022D000B0F5002F73D1B946FD48806D00F08050F5
:1022E00078B900BFFA48806D40F08050F8498865A1
:1022F0000846806D00F08050009000BF00BF4FF096
:102300000109F448006840F48070F2490860FFF762
:10231000BFFC064606E0FFF7BBFC801B022801D984
:10232000032705E0EB48006800F480700028F2D035
:1023300000BF002F46D1E6489030006800F4407599
:10234000CDB1206DA84216D0E1489030006820F44D
:102350004075DF48D0F8900040F48030DC49C1F887
:1023600090000846D0F8900020F48030C1F890002A
:102370000846C0F8905005F00100A0B1FFF788FCB6
:10238000064608E0FFF784FC801B41F28831884252
:1023900001D9032706E0CE489030006800F0020023
:1023A0000028EFD000BF5FB9C9489030006820F422
:1023B0004070216D0843C649C1F8900003E00CE06D
:1023C000B84600E0B846B9F1010F05D1C048806DAC
:1023D00020F08050BE49886500BF207800F00100E1
:1023E00048B1BB488830006820F0030061680843AA
:1023F000B749C1F88800207800F00200022809D10E
:10240000B3488830006820F00C00A1680843B04948
:10241000C1F88800207800F00400042809D1AC48F5
:102420008830006820F03000E1680843A849C1F80E
:102430008800207800F00800082809D1A4488830D6
:10244000006820F0C00021690843A149C1F8880054
:10245000207800F01000102809D19D4888300068CD
:1024600020F44070616908439949C1F888002078D8
:1024700000F02000202809D195488830006820F419
:102480004060A16908439249C1F88800207800F0B3
:102490004000402809D18E488830006820F4405020
:1024A000E16908438A49C1F88800207800F080007B
:1024B000802809D186488830006820F44040216A8D
:1024C00008438349C1F88800208800F48070B0F583
:1024D000807F09D17E488830006820F44030616AEE
:1024E00008437B49C1F88800206800F40030B0F54B
:1024F000003F09D176489C30006820F00300A16AB3
:1025000008437349C1F89C00208800F40070B0F5BE
:10251000007F09D16E488830006820F44020E16ACD
:1025200008436B49C1F88800208800F48060B0F54A
:10253000806F13D166488830006820F44010216B0A
:102540000843634988310860206BB0F5801F05D1CE
:102550005F48C06840F480105D49C860208800F47E
:102560000060B0F5006F13D159488830006820F43E
:102570004000616B0843564988310860606BB0F5D4
:10258000800F05D15248C06840F480105049C8609F
:10259000208800F48050B0F5805F13D14C4888301B
:1025A000006820F04070A16B0843494988310860F9
:1025B000A06BB0F1807F05D14548C06840F4801021
:1025C0004349C860208800F40050B0F5005F13D183
:1025D0003F488830006820F04060E16B08433C4988
:1025E00088310860E06BB0F1006F05D13848C068F1
:1025F00040F480103649C860208800F48040B0F56F
:10260000804F13D132488830006820F04060216C40
:1026100008432F4988310860206CB0F1006F05D164
:102620002B48C06840F480102949C860208800F415
:102630000040B0F5004F13D125488830006820F0E5
:102640004050616C0843224988310860606CB0F1E9
:10265000805F05D11E48C06840F480301C49C860C6
:10266000206800F48030B0F5803F13D118488830DE
:10267000006820F04040A16C08431549883108608B
:10268000A06CB0F1804F05D11148C06840F4803093
:102690000F49C860206800F48020B0F5802F13D166
:1026A0000B489C30006820F44010E16C0843084956
:1026B0009C310860E06CB0F5001F05D10448C0688B
:1026C00040F480100249C8604046BDE8F88300002D
:1026D00000100240007000402DE9F04104460D4614
:1026E0004FF0000814B90120BDE8F0817D48006872
:1026F00000F00F00A8420ED27A48006820F00F00C8
:102700002843784908600846006800F00F00A84296
:1027100001D00120E8E7207800F00100002864D013
:102720006068032823D17048006800F0007008B981
:102730000120D9E702F090FA06466C48864237D964
:102740006948806800F0F00030B1207800F00200A5
:1027500002282DD1A06858BB6348806820F0F000A3
:1027600040F08000604988604FF0800820E0606899
:10277000022806D15C48006800F4003040B901200E
:10278000B2E75948006800F4806008B90120ABE75F
:1027900000F000F906465548864209D9524880683B
:1027A00020F0F00040F080004F4988604FF0800832
:1027B0004D48806820F00300616808434A498860FA
:1027C000FFF766FA074608E0FFF762FAC01B41F21E
:1027D0008831884201D9032086E74348806800F0A9
:1027E0000C006168B0EB810FEED1207800F00200A0
:1027F000022820D1207800F00400042805D13A48AE
:10280000806840F4E06038498860207800F0080073
:10281000082807D13448806820F4605040F4E06014
:10282000314988603048806820F0F000A168084392
:102830002D49886008E0B8F1800F05D12A488068EA
:1028400020F0F000284988602648006800F00F005A
:10285000A84219D92348006820F00F0028432149D5
:102860000860FFF715FA074608E0FFF711FAC01BEA
:1028700041F28831884201D9032035E719480068C0
:1028800000F00F00A842F0D1207800F004000428E6
:1028900007D11548806820F4E060E16808431249D8
:1028A0008860207800F00800082808D10E48806869
:1028B00020F46050216940EAC1000B49886000F0B3
:1028C00069F809498968C1F30311094A515C01F0AB
:1028D0001F01C8400749086007480068FFF7FAF978
:1028E00002E70000002002400010024000B4C404CF
:1028F000DA5D000810000020080000200F220260AE
:102900000D4A926802F0030242600B4A926802F09C
:10291000F0028260084A926802F4E062C260064AED
:10292000926802F46052D2080261044A126802F00E
:102930000F020A60704700000010024000200240B1
:1029400001480068704700001000002000B5FFF744
:10295000F7FF05498968C1F30221044A515C01F07F
:102960001F01C84000BD000000100240EA5D0008E1
:1029700000B5FFF7E5FF05498968C1F3C221044AA4
:10298000515C01F01F01C84000BD00000010024072
:10299000EA5D000870B5224DAD6805F00C05042D08
:1029A00001D120483AE01E4DAD6805F00C05082D18
:1029B00001D11D4832E01A4DAD6805F00C050C2D13
:1029C0002BD1174DED6805F00304154DED68C5F3E7
:1029D00003156A1C022C0CD0032C09D1124DB5FB37
:1029E000F2F50F4EF668C6F3062605FB06F10AE07F
:1029F00000BF0C4DB5FBF2F5094EF668C6F306268E
:102A000005FB06F100BF00BF054DED68C5F341654C
:102A10006D1C6B00B1FBF3F000E0002070BD000006
:102A2000001002400024F40000127A002DE9F8435F
:102A3000044614B90120BDE8F883207800F00100B5
:102A4000002865D0FC48806800F00C07FA48C06890
:102A500000F003060C2F01D1032E01D0082F0AD15C
:102A6000F548006800F40030002851D06068002864
:102A70004ED10120DFE700BF6068B0F5803F06D18E
:102A8000ED48006840F48030EB4908601AE0606867
:102A9000B0F5A02F0BD1E848006840F48020E6494B
:102AA00008600846006840F4803008600AE0E248A8
:102AB000006820F48030E04908600846006820F48F
:102AC0008020086000BF606888B1FFF7E1F8054624
:102AD00006E0FFF7DDF8401B642801D90320AAE7D0
:102AE000D548006800F400300028F2D010E0FFF76D
:102AF000CFF8054606E0FFF7CBF8401B642801D964
:102B0000032098E7CC48006800F400300028F2D198
:102B1000207800F00200022860D1C748806800F0E9
:102B20000C07C548C06800F003060C2F01D1022E27
:102B300001D0042F18D1C048006800F4806018B19B
:102B4000E06808B9012076E7BB48406820F0FE4005
:102B5000217C40EA0160B8494860B8480068FFF746
:102B6000B9F818B3012066E7E06800B3B24800681E
:102B700040F48070B0490860FFF78AF8054606E027
:102B8000FFF786F8401B022801D9032053E7AA4823
:102B9000006800F480600028F2D0A748406820F068
:102BA000FE40217C40EA0160A349486016E0A2484B
:102BB000006820F48070A0490860FFF769F80546B6
:102BC00006E0FFF765F8401B022801D9032032E731
:102BD0009948006800F480600028F2D1207800F065
:102BE0000800082836D16069D0B193489430006855
:102BF00040F001009049C1F89400FFF749F80546FC
:102C000006E0FFF745F8401B022801D9032012E730
:102C100089489430006800F002000028F1D019E0E3
:102C200085489430006820F001008349C1F8940081
:102C3000FFF72EF8054606E0FFF72AF8401B0228AA
:102C400001D90320F7E67C489430006800F00200C8
:102C50000028F1D1207800F00400042872D14FF050
:102C600000087548806D012121EA107078B100BF1D
:102C70007148806D40F080506F4988650846806DCE
:102C800000F08050009000BF00BF4FF001086C487A
:102C9000006800F48070B0B96948006840F4807042
:102CA00067490860FEF7F4FF054606E0FEF7F0FF0F
:102CB000401B022801D90320BDE66148006800F4EA
:102CC00080700028F2D000BFA068012808D15A48BF
:102CD0009030006840F001005749C1F8900021E0B1
:102CE000A06805280FD154489030006840F00400D7
:102CF0005149C1F890000846D0F8900040F001001A
:102D0000C1F890000EE04C489030006820F00100BF
:102D10004949C1F890000846D0F8900020F004001E
:102D2000C1F8900000BFA068A8B1FEF7B1FF05464A
:102D300009E0FEF7ADFF401B41F28831884202D91D
:102D4000032078E625E03C489030006800F002005F
:102D50000028EED013E0FEF79BFF054608E0FEF7E3
:102D600097FF401B41F28831884201D9032062E677
:102D700031489030006800F002000028EFD1B8F12F
:102D8000010F05D12C48806D20F080502A498865BC
:102D900000BF207800F02000202836D1A069D0B1F3
:102DA00025489830006840F001002349C1F8980098
:102DB000FEF76EFF054606E0FEF76AFF401B02289D
:102DC00001D9032037E61C489830006800F0020063
:102DD0000028F1D019E018489830006820F0010070
:102DE0001549C1F89800FEF753FF054606E0FEF7C7
:102DF0004FFF401B022801D903201CE60E489830E3
:102E0000006800F002000028F1D1E069002860D0DD
:102E10000948806800F00C000C287AD0E06902288C
:102E200058D10548006820F0807003490860FEF71B
:102E30002FFF05460DE000000010024008000020B2
:102E400000700040FEF724FF401B022801D9032038
:102E5000F1E54A48006800F000700028F2D1D4E99A
:102E60000810401E41EA0011A06A41EA0021208EAC
:102E70000122C2EB500041EA40513420005DC2EB18
:102E8000500041EA40612C20005D41EAC0603B49AE
:102E9000C9683B4A114008433849C8600846006881
:102EA00040F0807008600846C06840F08070C860DC
:102EB000FEF7EEFE054606E0FEF7EAFE401B02289E
:102EC00001D90320B7E52D48006800F00070002804
:102ED000F2D051E02948006820F08070274908604E
:102EE000FEF7D6FE054606E0FEF7D2FE401B02289E
:102EF00001D903209FE52148006800F000700028F8
:102F0000F2D11E48C0681F4908401C49C86033E020
:102F1000FFE7E069012800D18DE51848C66806F092
:102F20000301206A814225D106F0F001606A401E4B
:102F3000B1EB001F1ED106F4FE41A06AB1EB002FD9
:102F400018D106F078412C20005DB1EBC06F11D193
:102F500006F4C001208E0122C2EB5000B1EB405FAD
:102F600008D106F0C0613420005DC2EB5000B1EB27
:102F7000406F01D001205EE500205CE500100240BA
:102F80000C809F01FCFFEEFE2DE9F04104460D464A
:102F900016461F4614B90120BDE8F081D4F8880018
:102FA00028B9002084F88400204600F0BFFF2420C8
:102FB000C4F888002068006820F0010021680860DB
:102FC000A06A10B1204602F0C3F9204602F0E8FAE8
:102FD000012800D1E0E72068806840F48040216843
:102FE00088602068806820F4004028432168886059
:102FF0004FEA465848EA07482068006807490840F1
:1030000040EA0800216808602068006840F001007C
:1030100021680860204602F017FABDE7FFFF00FCB8
:1030200070B504460CB9012070BD606A38B960689B
:10303000B0F5827F00D105E00021E16102E00021CE
:10304000216161610021A16294F85D0028B900202E
:1030500084F85C00204600F061F8022084F85D00EE
:103060002068006820F0400021680860E068B0F542
:10307000E06F01D9002501E04FF48055E068B0F51C
:10308000706F05D0E068B0F5E06F01D00021A1625B
:10309000A08800F48270218901F404410843217C56
:1030A00001F002010843217D01F001010843218B59
:1030B00001F400710843217F01F038010843202109
:1030C000095D01F080010843218D01F4005108439E
:1030D000216808600421A06901EA104094F82410D6
:1030E00001F01001084394F8341001F0080108437E
:1030F000A18901F47061084305F4805108432168F7
:1031000048602068C06920F400602168C861002020
:103110002066012084F85D00002085E710B586B0A8
:103120000446142101A8FDF79EF92E492068884223
:1031300028D100BF2C48006E40F480502A49086610
:103140000846006E00F48050009000BF00BF00BF32
:103150000846C06C40F00200C8640846C06C00F02D
:103160000200009000BF00BF3820019002200290B2
:103170000020039004900520059001A91B48FEF74C
:1031800089FC2CE01A492068884228D100BF1648E3
:10319000806D40F40040144988650846806D00F455
:1031A0000040009000BF00BF00BF0846C06C40F068
:1031B0000400C8640846C06C00F00400009000BF22
:1031C00000BF4FF4E05001900220029000200390D5
:1031D00004900620059001A90648FEF75BFC06B0A6
:1031E00010BD000000300140001002400004004803
:1031F000003C0040000800487047704770470000DE
:1032000010B50346002200BF93F83C00012801D10D
:10321000022010BD012083F83C0000BF22F0FF0017
:10322000CC6840EA040222F440708C6840EA040250
:1032300022F480604C6840EA040222F400600C68CA
:1032400040EA040222F480500C6940EA040222F4AD
:1032500000504C6940EA040222F480400C6B40EAC2
:10326000040222F470200C8B40EA044222F08050C9
:10327000CC6940EA0402144C1868A04207D0134CF1
:103280001868A04203D0124C1868A04213D122F44F
:1032900070000C8D40EA045222F080700C6A40EA03
:1032A000040222F000704C6A40EA040222F000504E
:1032B000CC6A40EA04021868426400BF002083F828
:1032C0003C0000BF00BFA4E7002C014000340140D7
:1032D00000500140704770477047000030B502460B
:1032E0000B4600BF92F83C00012801D1022030BDFE
:1032F000012082F83C0000BF022082F83D001068E7
:10330000416810688468234D1068A84207D0224D98
:103310001068A84203D0214D1068A84203D121F4BF
:103320007001586801431E48014018680143106845
:103330004160184D1068A8421BD01068B0F1804F52
:1033400017D0184D1068A84213D0174D1068A84226
:103350000FD0164D1068A8420BD00F4D1068A84230
:1033600007D0134D1068A84203D00C4D1068A84236
:1033700005D124F08004986804431068846001201B
:1033800082F83D0000BF002082F83C0000BF00BF73
:10339000ADE70000002C0140003401400050014026
:1033A0008FFFFFFD0004004000080040000C0040BB
:1033B00000400140704710B504460CB9012010BD13
:1033C00094F83D0028B9002084F83C00204600F025
:1033D00029F8022084F83D00211D206801F0C2FC7C
:1033E000012084F8480000BF84F83E0001213F20FE
:1033F00001554020015541200155422001554320EF
:10340000015500BF00BF012084F84400452001554C
:10341000462001554720015500BF012084F83D009A
:103420000020CCE708B5244A016891420DD100BFC5
:103430002249096E41F40061204A11661146096E65
:1034400001F40061009100BF35E00168B1F1804FE7
:103450000DD100BF1949896D41F00101174A9165ED
:103460001146896D01F00101009100BF23E0144A6B
:10347000016891420DD100BF1049896D41F00201F0
:103480000E4A91651146896D01F00201009100BF5D
:1034900011E00C4A016891420DD100BF0749896DC6
:1034A00041F00401054A91651146896D01F004015E
:1034B000009100BF00BF08BD002C01400010024079
:1034C0000004004000080040014691F83D0001283A
:1034D00001D001207047022081F83D000868C068D3
:1034E00040F001000B68D8601C4B086898421BD064
:1034F0000868B0F1804F17D0194B0868984213D074
:10350000184B086898420FD0174B086898420BD0A8
:10351000164B0868984207D0154B0868984203D0AC
:10352000144B0868984210D108688068124B00EA72
:103530000302062A0FD0B2F5803F0CD0086800685D
:1035400040F001000B68186005E00868006840F072
:1035500001000B6818600020BCE70000002C01404F
:103560000004004000080040000C0040003401400E
:103570000040014000500140070001002DE9F041EA
:1035800004460D46002700BF94F83C00012802D1F4
:103590000220BDE8F081012084F83C0000BF022039
:1035A00084F83D00206886684248064026F47F463D
:1035B000206886602868B0F5005F33D015DC4028AD
:1035C00051D008DC002858D0102857D0202856D0D9
:1035D000302862D154E0502831D0602839D070288A
:1035E00013D0B0F5805F58D10EE000F00F01002934
:1035F00053D10011A0F5803008284ED2DFE800F04A
:10360000414243444546474849E0D5E902136A68C8
:10361000206801F030FC2068866846F07706206854
:1036200086603CE0D5E902136A68206801F023FC5B
:103630002068806840F48040216888602FE0EA6854
:103640006968206801F030FE5021206801F01EFCFE
:1036500025E0EA686968206801F039FE6021206889
:1036600001F014FC1BE0EA686968206801F01CFEA8
:103670004021206801F00AFC11E000BF00BF00BF3C
:1036800000BF00BF00BF00BF00BF00BF00BF00BF42
:103690002968206801F0FAFB01E0012700BF00BFA4
:1036A000012084F83D0000BF002084F83C0000BFEA
:1036B00038466EE788FFCEFF704770B50446206835
:1036C000C6682068056905F00200022819D106F0D5
:1036D0000200022815D1401F2168086101202077CF
:1036E0002068806900F0030018B12046FFF7E4FF6E
:1036F00005E0204600F0A4F9204600F092FA0020F0
:10370000207705F00400042819D106F004000428ED
:1037100015D1C043216808610220207720688069A4
:1037200000F4407018B12046FFF7C6FF05E02046C0
:1037300000F086F9204600F074FA0020207705F0AA
:103740000800082819D106F00800082815D1C04340
:1037500021680861042020772068C06900F0030018
:1037600018B12046FFF7A8FF05E0204600F068F9F1
:10377000204600F056FA0020207705F010001028AF
:1037800019D106F01000102815D1C0432168086136
:10379000082020772068C06900F4407018B12046E6
:1037A000FFF78AFF05E0204600F04AF9204600F0C6
:1037B00038FA0020207705F0010048B106F001003A
:1037C00030B16FF0010021680861204600F0E0FA96
:1037D00005F08000802804D005F40050B0F5005FAB
:1037E0000AD106F08000802806D16FF402502168CB
:1037F00008612046FFF701FD05F48070B0F5807F79
:103800000AD106F08000802806D16FF4807021680C
:1038100008612046FFF7F0FC05F04000402809D180
:1038200006F04000402805D1C043216808612046C9
:1038300000F0BAFA05F02000202809D106F0200097
:10384000202805D1C043216808612046FFF7D6FC37
:1038500005F48010B0F5801F0BD106F48010B0F590
:10386000801F06D16FF48010216808612046FFF7A1
:1038700032FD05F40010B0F5001F0BD106F4001066
:10388000B0F5001F06D16FF40010216808612046D2
:10389000FFF720FD05F48000B0F5800F0BD106F492
:1038A0008000B0F5800F06D16FF4800021680861B8
:1038B0002046FFF711FD05F40000B0F5000F0BD115
:1038C00006F40000B0F5000F06D16FF40000216887
:1038D00008612046FFF76EFD70BD000010B586B090
:1038E0000446142101A8FCF7BEFD4F492068884218
:1038F00038D100BF4D48C06C40F010004B49C8643F
:103900000846C06C00F01000009000BF00BF00BF70
:103910000846C06C40F00100C8640846C06C00F066
:103920000100009000BF00BF4FF4944001900220BE
:1039300002900020039004900220059001A93C48C9
:10394000FEF7A8F84FF4806001900220029000205A
:10395000039004900620059001A94FF09040FEF7D7
:1039600099F85EE02068B0F1804F1BD100BF2F486E
:10397000C06C40F008002D49C8640846C06C00F0D7
:103980000800009000BF00BF0820019002200290B4
:103990000020039004900220059001A92548FEF71D
:1039A00079F83EE02449206888421BD100BF1F48B7
:1039B000C06C40F010001D49C8640846C06C00F09F
:1039C0001000009000BF00BF0C2001900220029068
:1039D0000020039004900220059001A91448FEF7EE
:1039E00059F81EE01549206888421AD100BF0F48D7
:1039F000C06C40F008000D49C8640846C06C00F077
:103A00000800009000BF00BF8814019002200290BF
:103A10000020039004900220059001A90548FEF7BC
:103A200039F806B010BD0000002C01400010024023
:103A300000100048000C004800040040000800404E
:103A400070472DE9F04104460D461646002700BF99
:103A500094F83C00012802D10220BDE8F081012049
:103A600084F83C0000BF0C2E51D005DC4EB1042E72
:103A70001ED0082E7AD133E0102E60D0142EF9D14A
:103A800075E02946206801F00DFA2068806940F051
:103A90000800216888612068806920F0040021689E
:103AA000886120688069296908432168886178E015
:103AB0002946206801F054FA2068806940F40060CB
:103AC000216888612068806920F4806021688861AD
:103AD00020688069296940EA01202168886160E0E6
:103AE0002946206801F0A0FA2068C06940F008006B
:103AF0002168C8612068C06920F004002168C8619D
:103B00002068C069296908432168C86149E02946DD
:103B1000206801F0EBFA2068C06940F40060216879
:103B2000C8612068C06920F480602168C86120688D
:103B3000C069296940EA01202168C86131E029464D
:103B4000206801F037FB2068006D40F00800216814
:103B500008652068006D20F0040021680865206871
:103B6000006D29690843216808651AE017E02946B5
:103B7000206801F05BFB2068006D40F40060216864
:103B800008652068006D20F4806021680865206861
:103B9000006D296940EA01202168086501E00127DC
:103BA00000BF00BF00BF002084F83C0000BF3846C3
:103BB00053E710B504460CB9012010BD94F83D0040
:103BC00028B9002084F83C00204600F029F80220A3
:103BD00084F83D00211D206801F0C4F8012084F81C
:103BE000480000BF84F83E0001213F2001554020DD
:103BF000015541200155422001554320015500BF88
:103C000000BF012084F8440045200155462001559D
:103C10004720015500BF012084F83D000020CCE77B
:103C20007047704770B504460D4615B994F83E00CC
:103C300015E0042D02D13F20005D10E0082D02D1D7
:103C40004020005D0BE00C2D02D14120005D06E01C
:103C5000102D02D14220005D01E04320005D0128CB
:103C600001D0012070BD1DB9022084F83E001AE089
:103C7000042D03D102213F20015514E0082D03D16A
:103C80000221402001550EE00C2D03D102214120DC
:103C9000015508E0102D03D102214220015502E018
:103CA00002214320015501222946206801F0D2F863
:103CB0002D492068884213D02C49206888420FD0B3
:103CC0002B49206888420BD02A492068884207D0B7
:103CD00029492068884203D028492068884201D1B8
:103CE000012000E0002028B12068406C40F4004032
:103CF000216848641C49206888421BD02068B0F1C4
:103D0000804F17D01E492068884213D01D49206873
:103D100088420FD01C49206888420BD01349206884
:103D2000884207D012492068884203D0134920688E
:103D3000884210D120688068144900EA0106062EE6
:103D40000FD0B6F5803F0CD02068006840F001002D
:103D50002168086005E02068006840F001002168E3
:103D6000086000207EE70000002C01400034014084
:103D70000040014000440140004801400050014023
:103D80000004004000080040000C00400700010053
:103D900010B5044603492068884201D1FDF77EFF33
:103DA00010BD0000000C00407047014600BF91F8B4
:103DB0008400012801D102207047012081F884008D
:103DC00000BF2420C1F888000868026808680068FD
:103DD00020F001000B68186022F0005200204866B5
:103DE000086802602020C1F8880000BF002081F828
:103DF000840000BF00BFDFE770B504460D4600BF7A
:103E000094F88400012801D1022070BD012084F8BB
:103E1000840000BF2420C4F8880020680668206859
:103E2000006820F00100216808602068806820F0A8
:103E30006060284321688860204601F05DFA2068B0
:103E400006602020C4F8880000BF002084F88400A9
:103E500000BF00BFD9E770B504460D4600BF94F817
:103E60008400012801D1022070BD012084F8840063
:103E700000BF2420C4F88800206806682068006815
:103E800020F00100216808602068806820F0604010
:103E9000284321688860204601F02EFA20680660D9
:103EA0002020C4F8880000BF002084F8840000BFF0
:103EB00000BFD9E710B504460CB9012010BDA069B8
:103EC00000B100E000BFD4F8880028B9002084F8D1
:103ED0008400204600F02AF82420C4F888002068D6
:103EE000006820F0010021680860A06A10B1204637
:103EF00001F02EFA204601F053FB012800D1DDE746
:103F00002068406820F490402168486020688068FC
:103F100020F02A00216888602068006840F00100D5
:103F200021680860204601F08FFAC7E710B59CB001
:103F30000446142117A8FCF796FA542102A8FCF7AE
:103F400092FA60492068884268D1012002900020DE
:103F5000039002A8FEF7B4F908B1FCF77EFC00BF9D
:103F60005948006E40F48040574908660846006E84
:103F700000F48040019000BF00BF00BF0846C06C45
:103F800040F00100C8640846C06C00F001000190D8
:103F900000BF00BF00BF0846C06C40F00200C8640C
:103FA0000846C06C00F00200019000BF00BF4FF453
:103FB0009050179002201890002019901A90072016
:103FC0001B9017A94FF09040FDF764FD80201790DB
:103FD00002201890002019901A9007201B9017A912
:103FE0003A48FDF757FD3A483A49086018204860BA
:103FF000002138488160C160802101610021416158
:104000008161C1610162FDF7C9FC08B1FCF725FCC3
:1040100000BF3048C4F88000846251E02E49206817
:1040200088424DD1022002900020049002A8FEF7A1
:1040300047F908B1FCF711FC00BF2348806D40F43C
:104040000030214988650846806D00F400300190F9
:1040500000BF00BF00BF0846C06C40F00100C8644C
:104060000846C06C00F00100019000BF00BF00BF17
:104070000846C06C40F00800C8640846C06C00F0F8
:104080000800019000BF00BF4FF4004017900220CD
:104090001890002019901A9007201B9017A94FF034
:1040A0009040FDF7F7FC2020179002201890002088
:1040B00019901A9007201B9017A90848FDF7EAFCF1
:1040C0001CB010BD00380140001002400004004840
:1040D0001C0002401006002000440040000C004874
:1040E00000BFFEE70146886800F0E07070470246B6
:1040F00002F1600000EB8103186800F0F84070479F
:1041000001468868C0F3C00070470146886800F027
:10411000010070470146886800F0010070470146C1
:104120008868C0F30070704701468868C0F380005B
:10413000704701468868C0F38000704770B500F191
:104140001404C1F3406504EB85031C68C1F30456F5
:104150000725B540AC43C1F3045502FA05F52C43DD
:104160001C6070BD826822F0E0720A438260704772
:1041700010B500F1600404EB81031C6824F00044D6
:1041800014431C6010BD426922F000420A434261A0
:104190007047000000B58BB00020089009900A908D
:1041A00020216846FCF75FF94FF0A0401F490860E6
:1041B0004FF44030486000211C488160C1600161BB
:1041C0004161042181610021017741770121016270
:1041D000002180F82410C162016380F83810C163A7
:1041E00080F84010FCF7D2FE08B1FCF736FB002047
:1041F000089008A90D48FCF733FB08B1FCF72DFB2C
:104200000B48009006200190002002907F20039030
:10421000042004900020059069460448FCF7FCFB4C
:1042200008B1FCF71AFB0BB000BD000050000020E5
:104230000200300400B589B0202101A8FCF713F971
:104240003448354908604FF4403048600021324816
:104250008160C1600161012141610421816100210E
:104260000177417705210162002180F824104FF485
:10427000A861C1624FF480610163002180F83810A9
:10428000C16380F84010FCF781FE08B1FCF7E5FA45
:104290002248019006200290002003907F20049085
:1042A000042005900020069001A91B48FCF7B4FBF0
:1042B00008B1FCF7D2FA1A4801900C20029001A92B
:1042C0001548FCF7A9FB08B1FCF7C7FA154801909F
:1042D0001220029001A91048FCF79EFB08B1FCF7E0
:1042E000BCFA114801901820029001A90A48FCF775
:1042F00093FB08B1FCF7B1FA0C4801904FF48070C1
:10430000029001A90448FCF787FB08B1FCF7A5FA65
:1043100009B000BD00010050BC0000201000C0101A
:104320002000F0140008302E00106032002090367B
:1043300000B58DB0302101A8FCF795F8104811495F
:1043400008600846FDF7C0F908B1FCF786FA0220BC
:10435000019000208DF808008DF80900039004906A
:10436000059006900120079000200890002201A9E6
:104370000448FDF779F808B1FCF76FFA0DB000BDFD
:10438000000800508801002000B58DB0302101A840
:10439000FCF769F81448154908600846FDF794F9D8
:1043A00008B1FCF75AFA0220019000208DF80800AD
:1043B0008DF8090003900490059002200690079064
:1043C00000200890002201A90848FDF74DF808B127
:1043D000FCF743FA102201A90448FDF745F808B19B
:1043E000FCF73BFA0DB000BD001000509C0100200E
:1043F00000B58DB0302101A8FCF735F814481549F7
:1044000008600846FDF760F908B1FCF726FA0220BB
:10441000019000208DF808008DF8090003900490A9
:10442000059002200690079000200890002201A924
:104430000848FDF719F808B1FCF70FFA102201A996
:104440000448FDF711F808B1FCF707FA0DB000BDFC
:1044500000140050B001002008B500BF1548806C62
:1044600040F00400134988640846806C00F00400A2
:10447000009000BF00BF00BF0846806C40F0010004
:1044800088640846806C00F00100009000BF00BF07
:10449000002205210B20FDF7A5FC0B20FDF78EFC6B
:1044A000002205210C20FDF79DFC0C20FDF786FC69
:1044B00008BD00000010024000B587B0142102A81A
:1044C000FBF7D1FF00BF6E48C06C40F010006C4994
:1044D000C8640846C06C00F01000019000BF00BF27
:1044E00000BF0846C06C40F00400C8640846C06CB9
:1044F00000F00400019000BF00BF00BF0846C06C80
:1045000040F02000C8640846C06C00F02000019014
:1045100000BF00BF00BF0846C06C40F00100C86487
:104520000846C06C00F00100019000BF00BF00BF52
:104530000846C06C40F00200C8640846C06C00F039
:104540000200019000BF00BF00BF0846C06C40F0F1
:104550000800C8640846C06C00F00800019000BF65
:1045600000BF002240F2B3514648FDF78BFB00220A
:104570004FF409514448FDF785FB00224AF2D70168
:104580004248FDF77FFB00224FF460714048FDF781
:1045900079FB00224FF400614FF09040FDF772FB71
:1045A00040F2B35002900120039000200490059047
:1045B00002A93448FDF76EFA4020029000200390D3
:1045C000049002A92F48FDF765FA4EF240000290D0
:1045D00000200390049002A92D48FDF75BFA4FF4E8
:1045E0000070029000200390049002A92948FDF772
:1045F00051FA4FF4095002900120039000200490DA
:10460000059002A92048FDF745FA4FF400400290BA
:1046100000200390049002A91B48FDF73BFA4FF4D9
:104620007060029000200390049002A91748FDF7E3
:1046300031FA4AF2D7000290012003900020049042
:10464000059002A91148FDF725FA4FF46070029019
:104650000120039000200490059002A90C48FDF76A
:1046600019FA4FF40060029001200390002004909A
:10467000059002A94FF09040FDF70CFA07B000BD7D
:10468000001002400010004800040048000C0048E0
:10469000000800480014004810B50A480A4908609C
:1046A000002048606021084881600C2101610021E0
:1046B00001758161C162FDF7E7FB08B1FCF7CDF838
:1046C00010BD000000030140C401002010B50A48DD
:1046D0000A490860002048606021084881600C2178
:1046E0000161002101758161C162FDF7CDFB08B157
:1046F000FCF7B3F810BD00000403014000020020E5
:1047000010B50A480A49086000204860602108483E
:1047100081600C210161002101758161C162FDF799
:10472000B3FB08B1FCF799F810BD00000803014085
:104730003C02002010B50A480A4908600020486081
:104740006021084881600C210161002101758161AF
:10475000C162FDF799FB08B1FCF77FF810BD0000BE
:104760000C0301407802002010B50A480A4908608D
:10477000002048606021084881600C21016100210F
:1047800001758161C162FDF77FFB08B1FCF765F837
:1047900010BD000010030140B402002010B5124803
:1047A000124908604FF48270486000210F48816010
:1047B0004FF44071C1600021016141614FF400710B
:1047C00081612021C1610021016241628162072172
:1047D000C1620021016308214163FEF721FC08B199
:1047E000FCF73BF810BD000000300140F002002053
:1047F00010B51248124908604FF4827048600021D9
:104800000F4881604FF44071C16000210161416136
:104810004FF4007181612821C16100210162416270
:1048200081620721C1620021016308214163FEF713
:10483000F7FB08B1FCF711F810BD0000003C004088
:104840005403002000B59BB00020179018901990D9
:104850001A901490159016901C210DA8FBF703FEDA
:1048600034216846FBF7FFFD4248434908600020B9
:10487000486000214048816040F2A361C16000218E
:10488000016141618161FEF796FD08B1FBF7E5FF2B
:104890004FF48050179017A93748FEF76FFE08B104
:1048A000FBF7DBFF3448FFF784F908B1FBF7D5FFCE
:1048B000002014904FF4000015900020169014A9C9
:1048C0002D48FEF70BFD08B1FBF7C7FF60200D90E8
:1048D00000200E900F9010901190129013900022D3
:1048E0000DA92548FFF7ADF808B1FBF7B6FF042284
:1048F0000DA92148FFF7A5F808B1FBF7AEFF082284
:104900000DA91D48FFF79DF808B1FBF7A6FF0C2283
:104910000DA91948FFF795F808B1FBF79EFF702025
:104920000D9010220DA91448FFF78BF808B1FBF782
:1049300094FF0020009001900290039004904FF4A7
:104940000050059000200690079008904FF00070EE
:10495000099000200A900B900C9069460648FEF7DB
:104960004FFC08B1FBF779FF0348FEF7B7FF1BB018
:1049700000BD0000002C0140B803002000B58FB03E
:1049800000200B900C900D900E90089009900A90CA
:104990001C2101A8FBF767FD4FF080401E4908600D
:1049A0000020486000211C488160491EC160002130
:1049B00001618161FEF7FFFC08B1FBF74EFF4FF488
:1049C00080500B900BA91448FEF7D8FD08B1FBF7F7
:1049D00044FF1148FFF7EDF808B1FBF73EFF002058
:1049E00008900A9008A90C48FEF778FC08B1FBF77C
:1049F00034FF602001900020029003900590002277
:104A000001A90548FFF71DF808B1FBF726FF02488A
:104A1000FEF764FF0FB000BD0404002000B58FB0A6
:104A200000200B900C900D900E90089009900A9029
:104A30001C2101A8FBF717FD23482449086000202A
:104A400048600021214881604FF6FF71C16000215C
:104A500001618161FEF7AFFC08B1FBF7FEFE4FF488
:104A600080500B900BA91948FEF788FD08B1FBF7A1
:104A7000F4FE1648FFF79DF808B1FBF7EEFE0020A4
:104A800008900A9008A91148FEF728FC08B1FBF726
:104A9000E4FE602001900020029003900590002227
:104AA00001A90A48FEF7CDFF08B1FBF7D6FE0422A4
:104AB00001A90648FEF7C5FF08B1FBF7CEFE034883
:104AC000FEF70CFF0FB000BD0004004050040020B2
:104AD00000B58FB000200B900C900D900E900890B8
:104AE00009900A901C2101A8FBF7BDFC1F48204932
:104AF00008600020486000211D4881604FF6FF716A
:104B0000C160002101618161FEF755FC08B1FBF72E
:104B1000A4FE4FF480500B900BA91548FEF72EFD14
:104B200008B1FBF79AFE1248FFF743F808B1FBF70C
:104B300094FE002008900A9008A90D48FEF7CEFBCD
:104B400008B1FBF78AFE60200190002002900390DC
:104B50000590002201A90648FEF773FF08B1FBF794
:104B60007CFE0348FEF7BAFE0FB000BD000800400F
:104B70009C04002010B51948194908604FF4E13031
:104B80004860002116488160C16001610C214161CB
:104B900000218161C1610162416200201049886287
:104BA00000231A4619460E48FEF7EEF908B1FBF746
:104BB00054FE00210A48FFF74EF908B1FBF74DFEFD
:104BC00000210748FFF718F908B1FBF746FE044833
:104BD000FFF7EBF808B1FBF740FE10BD00380140CD
:104BE000E804002010B51848184908604FF4E13077
:104BF0004860002115488160C16001610C2141615C
:104C000000218161C1610162416200200F49886217
:104C10000846FFF74FF908B1FBF71FFE00210B48CC
:104C2000FFF719F908B1FBF718FE00210748FFF755
:104C3000E3F808B1FBF711FE0448FFF7B6F808B136
:104C4000FBF70BFE10BD0000004400407C05002077
:104C500000BFFEE700BFFEE770B5164DED6805F03A
:104C60000304144DED68C5F303156B1C022C0CD026
:104C7000032C09D1104DB5FBF3F50E4EF668C6F3C3
:104C8000062605FB06F10AE000BF0C4DB5FBF3F567
:104C9000084EF668C6F3062605FB06F100BF00BF06
:104CA000044DED68C5F341656D1C6A00B1FBF2F07F
:104CB00070BD00000010024000127A000024F400D1
:104CC00010B54FF0E020006900F0BCFF012801D0D2
:104CD00000F09EFF10BD00B593B0382105A8FBF78A
:104CE000C2FB14216846FBF7BEFB0020FDF752FA19
:104CF000012005900004069002200C9003210D91E4
:104D000002210E9155210F910221109111911291C2
:104D100005A8FDF78BFE08B1FBF79FFD0F20009063
:104D20000320019000200290039004900421684623
:104D3000FDF7D2FC08B1FBF790FD13B000BD0000F9
:104D40000348006840F470000149086070470000A3
:104D500088ED00E010B50248FEF7AFFC10BD000082
:104D60007006002010B50268314B984211D0B0F1A6
:104D7000804F0ED02F4B98420BD02F4B984208D02B
:104D80002E4B984205D02E4B984202D02D4B984284
:104D900003D122F070024B681A43254B98421AD077
:104DA000B0F1804F17D0234B984214D0224B984239
:104DB00011D0224B98420ED0214B98420BD0224B5F
:104DC000984208D0214B984205D0214B984202D0FE
:104DD0001C4B984203D122F44072CB681A4322F054
:104DE00080034C6943EA040202608B68C3620B686B
:104DF00083620F4B98420ED0114B98420BD0124B4E
:104E0000984208D0114B984205D0114B984202D0DD
:104E10000C4B984201D10B69036301234361036981
:104E200003F001031BB1036923F00103036110BD0B
:104E3000002C01400004004000080040000C00402D
:104E40000034014000500140004001400044014056
:104E50000048014030B501F01F05012404FA05F3B4
:104E6000046A9C430462046A01F01F0502FA05F516
:104E70002C43046230BD30B50C46816821F47F417B
:104E800042EA032525432943816030BD0A468168F3
:104E9000034B194042F0070319438160704700003B
:104EA0008FFFCFFF30B5026A056A25F00105056264
:104EB00043688469234D2C4024F003040D682C437F
:104EC00022F002028D682A431F4DA84200D113E050
:104ED0001E4DA84200D10FE01D4DA84200D10BE0AD
:104EE0001C4DA84200D107E01B4DA84200D103E0B1
:104EF0001A4DA84206D100BF22F00802CD682A430D
:104F000022F00402104DA8420ED0104DA8420BD042
:104F10000F4DA84208D00F4DA84205D00E4DA84213
:104F200002D00E4DA84207D123F4807323F40073FE
:104F30004D692B438D692B43436084614D68456304
:104F4000026230BD8FFFFEFF002C014000340140A3
:104F50000040014000440140004801400050014031
:104F600030B5026A056A25F0100505624368846958
:104F7000264D2C4024F440740D6844EA052422F0A8
:104F800020028D6842EA0512214DA84200D113E0AB
:104F9000204DA84200D10FE01F4DA84200D100BF14
:104FA0001E4DA84200D100BF1D4DA84200D100BF38
:104FB0001C4DA84207D100BF22F08002CD6842EA12
:104FC000051222F04002124DA8420ED0114DA84207
:104FD0000BD0114DA84208D0104DA84205D0104D5D
:104FE000A84202D00F4DA84209D123F4806323F4D4
:104FF00000634D6943EA85038D6943EA8503436095
:1050000084614D688563026230BD0000FF8FFFFE42
:10501000002C0140003401400040014000440140A8
:10502000004801400050014030B5026A056A25F48D
:10503000807505624368C469254D2C4024F0030443
:105040000D682C4322F400728D6842EA0522214D3E
:10505000A84200D113E0204DA84200D10FE01F4D1F
:10506000A84200D100BF1E4DA84200D100BF1D4D77
:10507000A84200D100BF1C4DA84207D100BF22F4B6
:105080000062CD6842EA052222F48062114DA842F6
:105090000ED0114DA8420BD0104DA84208D0104D93
:1050A000A84205D00F4DA84202D00F4DA84209D109
:1050B00023F4805323F400534D6943EA05138D69AB
:1050C00043EA05134360C4614D68C563026230BDA5
:1050D0008FFFFEFF002C01400034014000400140E2
:1050E00000440140004801400050014030B5026AD0
:1050F000056A25F4805505624368C469264D2C4035
:1051000024F440740D6844EA052422F400528D68AA
:1051100042EA0532214DA84200D113E0204DA842B9
:1051200000D10FE01F4DA84200D100BF1E4DA84284
:1051300000D100BF1D4DA84200D100BF1C4DA842A8
:1051400007D100BF22F40042CD6842EA053222F4C2
:105150008042124DA8420ED0114DA8420BD0114DE5
:10516000A84208D0104DA84205D0104DA84202D048
:105170000F4DA84209D123F4804323F400434D6925
:1051800043EA85138D6943EA85134360C4614D6822
:105190000564026230BD0000FF8FFFFE002C01405D
:1051A00000340140004001400044014000480140FB
:1051B0000050014030B5026A056A25F48035056269
:1051C0004368046D124D2C400D682C4322F40032CC
:1051D0000D8942EA05420F4DA8420ED00E4DA8425D
:1051E0000BD00E4DA84208D00D4DA84205D00D4D54
:1051F000A84202D00C4DA84204D123F480334D695B
:1052000043EA0523436004654D688564026230BD4E
:105210008FFFFEFF002C01400034014000400140A0
:1052200000440140004801400050014030B5026A8E
:10523000056A25F4801505624368046D134D2C4002
:105240000D6844EA052422F400120D8942EA055251
:105250000F4DA8420ED00F4DA8420BD00E4DA842C4
:1052600008D00E4DA84205D00D4DA84202D00D4DDC
:10527000A84204D123F480234D6943EA8523436087
:1052800004654D68C564026230BD0000FF8FFFFEFB
:10529000002C014000340140004001400044014026
:1052A000004801400050014030B50B461446026AE8
:1052B000056A25F001050562816921F0F00141EAE6
:1052C000041122F00A021A438161026230BD30B536
:1052D0000B461446026A056A25F0100505628169CD
:1052E00021F4704141EA043122F0A00242EA0312A3
:1052F0008161026230BD000070B5456E2DB9012597
:10530000A0F86A50A0F868501CE00823082405683B
:10531000AD68C5F342610568AD686A0F0A4DAD5CC2
:1053200015FB04F5094EB65C95FBF6F5A0F86A503E
:10533000054D6D5C15FB03F5044E765C95FBF6F5AB
:10534000A0F8685070BD0000CA5D0008D25D00087A
:1053500090F8281001F00801082907D10168496870
:1053600021F40041826B11430268516090F82810CB
:1053700001F0010139B10168496821F40031C26AC4
:1053800011430268516090F8281001F002010229CF
:1053900007D10168496821F48031026B114302682A
:1053A000516090F8281001F00401042907D1016828
:1053B000496821F48021426B11430268516090F8E2
:1053C000281001F01001102907D10168896821F423
:1053D0008051C26B11430268916090F8281001F06F
:1053E0002001202907D10168896821F40051026C4D
:1053F00011430268916090F8281001F040014029A3
:1054000013D10168496821F48011426C114302688C
:105410005160416CB1F5801F07D10168496821F4E2
:10542000C001826C11430268516090F8281001F0AD
:105430008001802907D10168496821F40021C26CEC
:10544000114302685160704738B504460020C4F823
:105450009000FCF71DFC05462068006800F008007D
:10546000082821D16FF07E402B4600224FF4001116
:105470000090204600F078FAB0B100BF00BF21686C
:1054800051E8001F21F08000226842E80001002955
:10549000F5D100BF2020C4F8880000BF002084F8A8
:1054A000840000BF032038BD2068006800F00400BD
:1054B000042830D16FF07E402B4600224FF480014B
:1054C0000090204600F050FA28B300BF00BF2168CA
:1054D00051E8001F21F49070226842E80001002981
:1054E000F5D100BF00BF00BF2168083151E8001F9F
:1054F00021F001002168083141E80002002AF3D1BF
:1055000000BF2020C4F88C0000BF002084F8840075
:1055100000BF0320C7E72020C4F88800C4F88C002F
:105520000020E066206700BF84F8840000BF00BF51
:10553000B9E7000000BF00BF026852E8002F22F464
:105540009071036843E80012002AF5D100BF00BF44
:1055500000BF0268083252E8002F104B02EA030134
:105560000268083242E80013002BF2D100BFC16E7E
:1055700001290CD100BF00BF026852E8002F22F0C1
:105580001001036843E80012002AF5D100BF202172
:10559000C0F88C100021C16641677047FEFFFFEF25
:1055A0002DE9FE4F044600200290E449206888421D
:1055B00000D100E000BF2169A06808436169084389
:1055C000E16940EA010820680068DD49084040EAD6
:1055D0000800216808602068406820F44050E168B5
:1055E000084321684860D4F81880D449206888426C
:1055F00002D0206A40EA080820688068D149084043
:1056000040EA0800216888602068C06A20F00F0026
:10561000616A08432168C86200BFCB49206888429C
:1056200016D1CA48006800F0030030B1012808D044
:10563000022804D0032808D105E0012507E002254F
:1056400005E0042503E0082501E0102500BF8DE0FA
:10565000BF492068884216D1BC48006800F00C00A1
:1056600030B1042808D0082804D00C2808D105E05F
:10567000002507E0022505E0042503E0082501E0F8
:10568000102500BF72E0B3492068884216D1AF48A8
:10569000006800F0300030B1102808D0202804D075
:1056A000302808D105E0002507E0022505E00425A3
:1056B00003E0082501E0102500BF57E0A649206857
:1056C000884216D1A148006800F0C00030B14028DF
:1056D00008D0802804D0C02808D105E0002507E0C4
:1056E000022505E0042503E0082501E0102500BFA0
:1056F0003CE09A492068884219D19448006800F437
:10570000407048B1B0F5807F0AD0B0F5007F05D079
:10571000B0F5407F08D105E0002507E0022505E04F
:10572000042503E0082501E0102500BF1EE08349A1
:105730002068884219D18548006800F4406048B16B
:10574000B0F5806F0AD0B0F5006F05D0B0F5406FAE
:1057500008D105E0002507E0022505E0042503E067
:10576000082501E0102500BF00E0102500BF7349A7
:10577000206888425BD135B1022D08D0042D08D0B5
:10578000082D0DD109E0FDF7E1F806460CE0744E56
:105790000AE0FDF7FFF8064606E04FF4004603E096
:1057A00000260120029000BF00BF002E10D06D49DE
:1057B000606A31F81000B6FBF0F9606800EB400059
:1057C000484503D860680003484502D20120029092
:1057D000A8E06449606A31F810C062460023304690
:1057E0001946FAF7C9FD4FF4807C0022A0FB0C3B60
:1057F00001FB0CB100FB02106168490859185041C7
:10580000CDE90010D4F804C062460023084601998F
:10581000FAF7B2FD0746B7F5407F05D3B7F5801F0D
:1058200002D22068C7607DE0012002907AE0E06942
:10583000B0F5004F3FD1092D17D2DFE805F005097B
:105840000D160F1616161300FDF780F8064610E029
:10585000FDF78EF806460CE0414E0AE0FDF79AF897
:10586000064606E04FF4004603E0002601200290C1
:1058700000BF00BF86B33B49606A31F81000B6FB39
:10588000F0F04000616800EB5100B0FBF1F7102F21
:105890000ED3B7F5803F0BD24FF6F07007EA000A3F
:1058A000C7F342004AEA000A2068C0F80CA039E0B9
:1058B0000120029036E0092D18D2DFE805F0050935
:1058C0000E17101717171400FDF740F8064611E0E1
:1058D000FDF74EF806460DE024E0214E0AE0FDF704
:1058E00059F8064606E04FF4004603E00026012082
:1058F000029000BF00BFAEB11A49606A31F81000D3
:10590000B6FBF0F0616800EB5100B0FBF1F7102F2F
:1059100006D3B7F5803F03D2B8B22168C86001E072
:10592000012002900120A4F86A00A4F86800002079
:105930006067A0670298BDE8FE8F0000008000400D
:10594000F369FFCFFFF4FF110038014088100240D7
:105950000044004000480040004C0040005000401F
:105960000024F400B25D00082DE9F04104460D4624
:1059700017469846069E41E0701C00283ED0FCF772
:1059800087F9A0EB0800B04200D816B90320BDE8A3
:10599000F0812068006800F0040070B3802D2DD0E5
:1059A000402D2BD02068C069C0F3C00078B108201A
:1059B000216808622046FFF7BDFD0820C4F890006A
:1059C00000BF002084F8840000BF0120DFE72068CA
:1059D000C069C0F3C02080B14FF400602168086244
:1059E0002046FFF7A7FD2020C4F8900000BF00204C
:1059F00084F8840000BF0320C9E7FFE72068C0697E
:105A00002840A84201D1012000E00020B842B3D0D4
:105A10000020BCE700BFFEE702480068C0F3022098
:105A2000704700000CED00E010B5002804DB0A0709
:105A3000130E054A135406E00A07140E034A00F039
:105A40000F031B1FD45410BD00E400E018ED00E06C
:105A5000FCF730F9FFF73FF9FEF72EFDFEF7FCFCEF
:105A6000FEF798FBFEF7E6FBFEF762FCFEF78CFC08
:105A7000FEF7BEFCFEF710FEFEF728FEFEF740FE26
:105A8000FEF758FEFEF770FEFEF7DCFEFEF786FE20
:105A9000FEF774FFFEF7C2FFFFF71AF8FFF76AF888
:105AA000FFF7A0F8FEF7A4FE00211248FBF7A4FEC2
:105AB0004FF49B63002211460E48FBF779FE0E4817
:105AC000FCF74CFB4FF47A709FED0C0BFAF70EFECF
:105AD0000FE04FF400410B48FCF7C2F808B9FAF7A1
