:020000040800F2
:1000000040DD002079030008C983000889750008D5
:10001000C583000883240008DDAA00080000000052
:10002000000000000000000000000000B90200080D
:100030008F2D00080000000015030008598C0008EF
:100040009303000893030008930300089303000838
:100050009303000893030008930300089303000828
:1000600093030008930300089303000891250008F8
:10007000A1250008B1250008930300089303000898
:1000800093030008930300089303000893030008F8
:1000900093030008930300089303000893030008E8
:1000A00093030008930300089303000893030008D8
:1000B00093030008930300089303000893030008C8
:1000C00093030008930300089303000893030008B8
:1000D00093030008CDAA00089303000893030008C7
:1000E0009303000893030008930300089303000898
:1000F0009303000893030008930300089303000888
:100100009303000893030008930300089303000877
:100110009303000893030008ED8C00089303000884
:100120009303000893030008930300089303000857
:100130009303000893030008930300089303000847
:100140009303000893030008930300089303000837
:100150009303000893030008930300089303000827
:100160009303000893030008930300089303000817
:100170009303000893030008930300089303000807
:1001800093030008930300089303000893030008F7
:100190009303000800000000930300089303000885
:1001A00093030008930300089303000893030008D7
:1001B00093030008930300089303000893030008C7
:1001C00093030008930300089303000893030008B7
:1001D000930300089303000800F002F800F05CF8B5
:1001E0000AA090E8000C82448344AAF10107DA4592
:1001F00001D100F051F8AFF2090EBAE80F0013F088
:10020000010F18BFFB1A43F0010318479CDD0000E3
:10021000BCDD00000A444FF0000C10F8013B13F065
:10022000070408BF10F8014B1D1108BF10F8015B4F
:10023000641E05D010F8016B641E01F8016BF9D142
:1002400013F0080F1EBF10F8014BAD1C0C1B09D199
:100250006D1E58BF01F801CBFAD505E014F8016B0B
:1002600001F8016B6D1EF9D59142D6D3704700009D
:100270000023002400250026103A28BF78C1FBD8AF
:10028000520728BF30C148BF0B6070471FB50DF043
:10029000CFFC1FBD10B510BD00F0D0F91146FFF71F
:1002A000F5FF0AF03FFD00F0EEF903B4FFF7F2FFAF
:1002B00003BC00F0F5F900002C4B19680868B0E8A1
:1002C000F04F80F30988BFF36F8F4FF0000080F389
:1002D000118870470000000008480068006880F33B
:1002E00008884FF0000080F3148862B661B6BFF34F
:1002F0004F8FBFF36F8F00DF00BF00BF08ED00E03E
:10030000DFF80C00016841F470010160704700BF24
:1003100088ED00E0EFF30980BFF36F8F134B1A688D
:100320001EF0100F08BF20ED108A20E9F04F10607A
:1003300009B44FF0500080F31188BFF34F8FBFF323
:100340006F8F0CF02DFB4FF0000080F3118809BC7B
:1003500019680868B0E8F04F1EF0100F08BFB0EC45
:10036000108A80F30988BFF36F8F70476000002008
:10037000EFF30580704700000948804709480047AF
:10038000FEE7FEE7FEE7FEE7FEE7FEE7FEE7FEE745
:10039000FEE7FEE704480549054A064B70470000A2
:1003A000D98C0008D9010008403D002040DD002024
:1003B000405D0020405D002053EA020C00F069809F
:1003C0002DE9F04B4FF00006002B1FBFB3FA83F569
:1003D00003FA05F424FA05F65E4012BF1643B2FA9A
:1003E00082F502FA05F4C5F120051EBF22FA05FCCC
:1003F00044EA0C04203556EA044C4FEA144418BF72
:10040000641C4FF000084FF00009904271EB030CA0
:1004100039D3002919BFB1FA81F701FA07F6B0FA0A
:1004200080F700FA07F6C7F120071EBF20FA07FC85
:1004300046EA0C062037B6FBF4FCA7EB0507103F95
:1004400007F01F0BCBF120060CFA0BFB2CFA06F67B
:1004500044BFB3460026202FA4BF5E464FF0000BDA
:100460005BEA060C08BF4FF0010B19EB0B09ABFB65
:10047000027C48EB0608C01B06FB02CC0BFB03CC3E
:1004800071EB0C01C1E70B46024641464846BDE808
:10049000F08B13B54FF000004FF00001AFF3008078
:1004A000BDE81C407047032A40F2308010F0030C76
:1004B00000F0158011F8013BBCF1020F624498BFB7
:1004C00011F801CB00F8013B38BF11F8013BA2F154
:1004D000040298BF00F801CB38BF00F8013B11F0CF
:1004E000030300F02580083AC0F0088051F8043B6F
:1004F000083A51F804CBA0E80810F5E7121D5CBFDC
:1005000051F8043B40F8043BAFF30080D20724BF0E
:1005100011F8013B11F801CB48BF11F8012B24BFA2
:1005200000F8013B00F801CB48BF00F8012B7047F1
:1005300010B5203AC0F00B80B1E81850203AA0E87E
:100540001850B1E81850A0E81850BFF4F5AF5FEAB2
:10055000027C24BFB1E81850A0E8185044BF18C965
:1005600018C0BDE810405FEA827C24BF51F8043B0C
:1005700040F8043B08BF7047D20728BF31F8023B60
:1005800048BF11F8012B28BF20F8023B48BF00F8F4
:10059000012B704702F0FF0343EA032242EA0242C2
:1005A00000F02CB84FF0000200B513469446964672
:1005B000203922BFA0E80C50A0E80C50B1F1200176
:1005C000BFF4F7AF090728BFA0E80C5048BF0CC024
:1005D0005DF804EB890028BF40F8042B08BF704782
:1005E00048BF20F8022B11F0804F18BF00F8012BF4
:1005F00070477047704770474FF000020429C0F001
:10060000128010F0030C3FF4CFAFCCF1040CBCF11E
:10061000020F18BF00F8012BA8BF20F8022BA1EB96
:100620000C01FFF7C1BF5FEAC17C24BF00F8012BBA
:1006300000F8012B48BF00F8012B7047754600F009
:100640002BF8AE4605006946534620F00700854664
:1006500018B020B5FFF79EFEBDE820404FF0000621
:100660004FF000074FF000084FF0000B21F007019A
:10067000AC46ACE8C009ACE8C009ACE8C009ACE8DD
:10068000C0098D46704710B50446AFF30080204680
:10069000BDE81040FFF709BE00487047E03C00206D
:1006A00001491820ABBEFEE726000200704700009B
:1006B0002DE9F05F044688464FF000094746206860
:1006C00006F098FF8246206806F07BFF8346BAF169
:1006D000000F02D1BBF1000F72D02068C06800F09B
:1006E000007000B3607F01281DD1207F01281AD13E
:1006F00001270FE0334881450AD3E06D40F0100038
:10070000E065206E40F0010020660120BDE8F09F0A
:1007100009F1010920680068C0F380100028E9D0C1
:10072000402021680860022F10D0206806F062FF88
:1007300060B1206806F04AFF40B920688168224A0B
:10074000114041F01001816000BF00BF012F10D0A7
:10075000206806F036FF60B1206806F037FF40B928
:1007600020688168184A114041F02001816000BF73
:1007700000BF022F03D0032F03D10C2503E008256F
:1007800001E0042500BF00BF04F000F8064612E0B7
:1007900003F0FCFF801B05280DD9206880682840E5
:1007A00048B1E06D40F01000E065206E40F00100BF
:1007B00020660120AAE72068806828400028E7D149
:1007C0000020A3E7000040A3C0FFFF7F70B50546EF
:1007D000AC6AE06D00F0500098BBE06D40F4007032
:1007E000E0652068006800F00800A8B1206806F005
:1007F0000BFF10B32068C06800F40050E8B9E06D4A
:1008000020F48070E065E06D00F48050A8B9E06DE0
:1008100040F00100E06510E02068C06800F00200D0
:1008200058B9E06D20F48070E065E06D00F4805010
:1008300018B9E06D40F00100E065204602F09AFE34
:100840000CE0FFE7E06D00F0100018B1204602F068
:10085000B3FE03E0606D416B2846884770BD70B5FC
:100860000546AC6AE06D40F04000E065206E40F067
:1008700004002066204602F09FFE70BD70B504465D
:10088000A56A284602F096FE70BD000070B50446C9
:10089000206806F09BFE0646206806F09CFE98B392
:1008A00096BB2068806800F00D0001280AD12068FE
:1008B00081681A4A1140891C816000BF03202168A9
:1008C000086009E0E06D40F01000E065206E40F047
:1008D00001002066012070BD03F058FF054614E0BA
:1008E00003F054FF401B02280FD92068806800F0F5
:1008F000010050B1E06D40F01000E065206E40F066
:10090000010020660120E6E705E02068806800F02D
:1009100001000028E4D10020DDE70000C0FFFF7FD8
:1009200038B5044600200090206806F054FE0028E8
:1009300058D1206880682C49084048B1E06D40F0EB
:100940001000E065206E40F001002066012038BDF7
:10095000206806F01BFE2168B1F1A04F03D0234AA6
:100960002168914201D1224900E02249084606F05F
:1009700015FE00F4000080B11F4800681F49B0FB5D
:10098000F1F0401C00EB40008000009002E0009875
:10099000401E009000980028F9D103F0F7FE0546AC
:1009A0001AE0206806F017FE10B9206806F0EEFD88
:1009B00003F0ECFE401B02280ED92068006800F00E
:1009C000010048B9E06D40F01000E065206E40F095
:1009D000010020660120BAE72068006800F00100ED
:1009E0000028DED00020B2E73F0000800001005068
:1009F00000030050000700505C000020400D030081
:100A000070B58AB00546142105A8FFF7CBFD142167
:100A10006846FFF7C7FD05B9012500262DE0022035
:100A20000AF01AFA002424E0294A611D32F8110064
:100A300000F010FB05A800EB8400D0ED000A30EEBA
:100A4000200A05A800EB840080ED000A214931F856
:100A5000140000F0FFFA684600EB8400D0ED000AB5
:100A600030EE200A684600EB840080ED000A601C2E
:100A7000C4B2052CD8D3701C86B2AE42CFDB0024A2
:100A800021E005A800EB8400D0ED000A00EE105A2A
:100A9000B8EE400A80EE801A0F4800EB840080ED2B
:100AA000001A684600EB8400D0ED000A00EE105AF0
:100AB000B8EE400A80EE801A084800EB840080ED12
:100AC000001A601CC4B2052CDBD30AB070BD000054
:100AD000E2380020F6380020F40000200801002051
:100AE00030B589B0202101A8FFF75CFD06200390F6
:100AF0007F2004900420059000200690002417E039
:100B00000D4850F8240001900C4850F82400029041
:100B100001A90B4802F074FA05463DB10948006886
:100B2000401C08490860284609B030BD601CC4B2AA
:100B30000A2CE5D30020F7E710DD000838DD0008B7
:100B40008C040020EC00002030B589B0202101A8E1
:100B5000FFF728FD042003907F20049004200590D7
:100B600000200690002417E00D4850F82400019062
:100B70000C4850F82400029001A90B4802F040FAFA
:100B800005463DB109480068401C084908602846F0
:100B900009B030BD601CC4B2052CE5D30020F7E7D6
:100BA00060DD000874DD0008F8040020F00000207B
:100BB000002007E0194931F81010194A22F81010E6
:100BC000411CC8B20A28F5D315490988154A118075
:100BD00013494988144A118011498988134A1180A0
:100BE0000F49C988124A11800D490989114A11809B
:100BF0000B494989104A1180094989890F4A118096
:100C00000749C9890E4A11800549098A0D4A118090
:100C10000349498A0C4A118070470000C4380020FB
:100C2000E23800201C0100201E01002020010020CD
:100C3000220100202401002026010020280100209C
:100C40002A0100202C0100202E010020002007E0B6
:100C50000F4931F810100F4A22F81010411CC8B289
:100C60000528F5D30B4909880B4A118009494988A1
:100C70000A4A118007498988094A11800549C988AB
:100C8000084A118003490989074A1180704700000A
:100C9000D8380020F638002094010020960100206A
:100CA000980100209A0100209C010020F0EE401ADB
:100CB00031EEE02AB3EE040A61EE002A82EE220A47
:100CC0007047000010B52DED028B002463E0AC49A5
:100CD00031F8140000F0BEF9AA4800EB840080ED62
:100CE000000AA84800EB840090ED000AA64800EB3B
:100CF0008400D0ED000A20EE200AA44800EB840016
:100D000080ED000A9E4A611D32F8110000F0A2F940
:100D1000B0EE408A9E4800EB840080ED008A9D483A
:100D200000EB840090ED000AB0EE401A9A4800EB08
:100D3000840090ED000AF0EE400AB0EE480AFFF79A
:100D4000B5FF964800EB840080ED000A944931F825
:100D5000140000F07FF9B0EE408A924800EB840066
:100D600080ED008A904800EB840090ED000AB0EE20
:100D7000401A8E4800EB840090ED000AF0EE400A25
:100D8000B0EE480AFFF792FF894800EB840080ED3F
:100D9000000A601CC4B2052C99D37A4890ED000A71
:100DA000844880ED000A774890ED010A824880ED82
:100DB000000A744890ED020A804880ED000A7148EC
:100DC00090ED030A7E4880ED000A6E4890ED040A1B
:100DD0007C4880ED000A6D4890ED000A7A4880ED6D
:100DE000000A6A4890ED010A784880ED000A6748D9
:100DF00090ED020A764880ED000A644890ED030AFF
:100E0000744880ED000A614890ED040A724880ED54
:100E1000000A5F4890ED000A704880ED000A5C48C7
:100E200090ED010A6E4880ED000A594890ED020AE3
:100E30006C4880ED000A564890ED030A6A4880ED40
:100E4000000A534890ED040A684880ED000A5248B1
:100E500090ED000A664880ED000A4F4890ED010AC7
:100E6000644880ED000A4C4890ED020A624880ED2B
:100E7000000A494890ED030A604880ED000A4648A0
:100E800090ED040A5E4880ED000A444890ED000AA7
:100E90005C4880ED000A414890ED010A5A4880ED17
:100EA000000A3E4890ED020A584880ED000A3B488F
:100EB00090ED030A564880ED000A384890ED040A88
:100EC000544880ED000A374890ED000A524880ED02
:100ED000000A344890ED010A504880ED000A31487C
:100EE00090ED020A4E4880ED000A2E4890ED030A6C
:100EF0004C4880ED000A2B4890ED040A4A4880EDEA
:100F0000000A2A4890ED000A484880ED000A274868
:100F100090ED010A464880ED000A244890ED020A4F
:100F2000444880ED000A214890ED030A424880EDD4
:100F3000000A1E4890ED040A404880ED000A1C4853
:100F400090ED000A3E4880ED000A194890ED010A34
:100F50003C4880ED000A164890ED020A3A4880EDC0
:100F6000000A134890ED030A384880ED000A104843
:100F700090ED040A364880ED000ABDEC028B10BDEE
:100F8000E238002000390020D4DC000814390020A9
:100F900028390020E8DC0008F40000203C3900205B
:100FA000F638002050390020FCDC00080801002041
:100FB0006439002030010020340100203801002075
:100FC0003C01002040010020440100204801002095
:100FD0004C01002050010020540100205801002045
:100FE0005C010020600100206401002068010020F5
:100FF0006C010020700100207401002078010020A5
:101000007C01002080010020840100208801002054
:101010008C01002090010020A0010020A4010020EC
:10102000A8010020AC010020B0010020B401002084
:10103000B8010020BC010020C0010020C401002034
:10104000C8010020CC010020D0010020D4010020E4
:10105000D801002000EE100AB8EE400ADFED040AC5
:1010600060EE200A9FED031A80EE810A70470000AF
:101070003333534000F07F4510B500F021F80D499F
:1010800008700846007808B1012010BD00F044F84F
:10109000094908700846007808B10220F5E700F019
:1010A00067F8064908700846007808B10320ECE7A5
:1010B0000020EAE7E0000020E1000020E20000203C
:1010C00010B5124802F0CEFDFFF70AFD04460CB140
:1010D000204610BD7F210D4801F05EFE044634B16C
:1010E0000B480068401C0A4908602046F1E70A22C4
:1010F0000849064802F00AFD044624B10448006885
:10110000401C034908602046E3E700008C040020EF
:10111000EC000020C438002010B5124802F0A2FDF7
:10112000FFF712FD04460CB1204610BD7F210D488B
:1011300001F032FE044634B10B480068401C0A49F5
:1011400008602046F1E705220849064802F0DEFC67
:10115000044624B104480068401C03490860204646
:10116000E3E70000F8040020F0000020D838002059
:1011700010B508480068006800F0010008B10020C0
:1011800010BD0020034909684862024805F0AAF82A
:10119000F6E70000D0090020F0EE400AF5EEC00AA4
:1011A000F1EE10FA02D2B1EE600A7047B0EE600ABA
:1011B000FBE70000002032E000EB8001194A12F842
:1011C0002110194A115400EB8001164A02EB8101EB
:1011D00091ED020A154901EB800181ED000A00EB57
:1011E000800102EB810191ED010A114901EB8001BF
:1011F00081ED000A00EB800102EB810191ED030A11
:101200000C4901EB800181ED000A00EB800102EB4B
:101210008101098A084A22F81010411CC8B202282C
:10122000CAD37047C0390020E8010020F001002037
:10123000F801002000020020EA0100202DE9FE4311
:1012400004468846052C01D3BDE8FE832748047078
:10125000274880F80080012026490855264850F884
:101260002400401C244941F824002448007800B19F
:10127000EAE7204601F016FA074607B9E4E72048F6
:10128000005D00B1E0E702A9384601F012FC054616
:101290001C4805555DB99DF808001B4908559DF887
:1012A00009001A49085501201549085501E0104860
:1012B000057006226946384601F012FB05461448BF
:1012C000055585B9002609E01DF8060004EB440128
:1012D000104A02EB41018855701CC6B2062EF3D3AA
:1012E00001200749085500BFAEE700004A02002070
:1012F0004B0200201702002078390020DC0100207A
:101300004C020020510200205B02002060020020FD
:1013100056020020650200202DE9FE4304460F46D8
:101320004FF00009052C02D30020BDE8FE8347489A
:101330000470474850F82400401C454941F82400F7
:101340004448075544480470444807700120444904
:101350000855002043490855FF2043490855434993
:101360000855002508E0FF2004EB4401404A02EB49
:1013700041014855681CC5B2062DF4D33D4800789C
:1013800008B10020D1E7204601F08CF98046B8F181
:10139000000F01D10020C8E702A9404601F089FBF7
:1013A000064635490E5516BB9DF808002E490855CE
:1013B0009DF809002D4908559DF8080000F03200FD
:1013C000284908559DF8080000F0C1F981462B48CE
:1013D000005D60B92A4806559DF80800294908555E
:1013E0009DF809002849085501202449085506227E
:1013F0006946404601F074FA0646244806551EBB6D
:10140000002509E01DF8050004EB4401184A02EB31
:1014100041014855681CC5B2062DF3D31748005D3D
:1014200090B91B480655002509E01DF8050004EB9E
:101430004401184A02EB41014855681CC5B2062D0B
:10144000F3D301200D49085548466EE7830200207A
:101450008C390020840200204A0200204B02002028
:10146000170200209D020020930200209802002015
:10147000A2020020DC010020890200204C02002092
:10148000510200205B020020600200208E0200203A
:1014900056020020650200202DE9FC4105460F465A
:1014A000052D00D20FB9BDE8FC81002408E0FF2023
:1014B00005EB4501134A02EB41010855601CC4B21B
:1014C000062CF4D3002010494855062269463846B8
:1014D00001F006FA06460D48465586B9002409E093
:1014E0001DF8040005EB4501064A02EB41010855D1
:1014F000601CC4B2062CF3D301200349485500BF39
:10150000D1E70000260200201C020020210200205A
:10151000014611B940F2371070474FF49C70FBE759
:10152000014609B9002070470220FCE70146022964
:1015300001D30020704701EB8100044A02EB8000D8
:10154000008A08B10020F5E70120F3E7C039002048
:10155000014611B940F22D1070474FF49770FBE728
:101560002DE9F04106462948007808B1BDE8F08130
:1015700027480068301AB0F5FA7F00D2F6E7244811
:10158000066000243DE02348005D00B937E02046B6
:1015900001F088F8074607B931E0384601F0AEF8A7
:1015A000054615B329462046FFF7B6FE00B926E0EA
:1015B000042C10D140F23B11002000F0F3FB40F26C
:1015C0003B11012000F0EEFB002000F01FFD012088
:1015D00000F01CFD12E0012C08D840F23711002069
:1015E00000F0E0FB002000F011FD07E04FF49C71DB
:1015F000012000F0D7FB012000F008FD00BF601CB7
:10160000C4B2052CBFD300BFB0E70000DC0100204E
:10161000CC0200200D02002070B586B03F48007853
:1016200008B106B070BD00240BE03D4800EB84001B
:1016300090ED000A01A800EB840080ED000A601C18
:10164000C4B2052CF1D39DED050AF7EE000AB4EE05
:10165000E00AF1EE10FA19DD9DED050AF3EE040A39
:10166000B4EEE00AF1EE10FA10D240F2311100208F
:1016700000F098FB40F23111012000F093FB0020B4
:1016800000F0C4FC012000F0C1FCCAE7002441E0E6
:101690002046FFF745FF054601A800EB850090EDC9
:1016A000000AF7EE000AB4EEE00AF1EE10FA0BDDE4
:1016B00001A800EB850090ED000AF3EE040AB4EEF9
:1016C000E00AF1EE10FA18D301A9681C01EB8000C2
:1016D00090ED000AF7EE000AB4EEE00AF1EE10FA1F
:1016E00016DD681C01EB800090ED000AF3EE040AA1
:1016F000B4EEE00AF1EE10FA0AD22046FFF728FF16
:1017000006463146204600F04DFB204600F07EFCA8
:10171000601CC4B2022CBBD300BF82E7DD010020F5
:1017200014390020F0EE401AF4EEE01AF1EE10FA4F
:1017300002D2B0EE600A7047F4EEC11AF1EE10FA70
:1017400002DDB0EE410AF6E7B0EE610AF3E70146CA
:1017500001F032020AB1012070470020FCE70000CE
:1017600010B5002202210C2009F018FC6549086020
:101770000846006818B901206349087010BD0024AC
:1017800061E0002004EB8401604A02F8210004EBD0
:10179000840102EB8101487004EB840102EB8101BA
:1017A000887004EB840102EB8101C870B3EE090A72
:1017B00004EB8400114601EB800080ED010AB3EEDA
:1017C000090A04EB840001EB800080ED020A9FED22
:1017D000500A04EB840001EB800080ED030A002036
:1017E00004EB840102EB8101088204EB440101EB6C
:1017F000C401484A02EB8100DFED471A9FED441A0D
:10180000DFED460A9FED460A06F094FE04EB440124
:1018100001EBC4013F4A02EB8100DFED421A9FED6C
:10182000421ADFED400A9FED400A06F0C1FE00209B
:101830003E4941F8340001EBC40148603C4941F89D
:101840002400601CC4B2022C9BD3002450E0002171
:10185000384A1155384A42F82410384A1155384A46
:101860001155384A1155FF21374A1155374A11553C
:10187000002008E0FF2104EB4402354B03EB420259
:101880001154411CC8B20628F4D30021314A115525
:10189000314A1155002008E0FF2104EB44022F4B90
:1018A00003EB42021154411CC8B20628F4D30021B4
:1018B0002B4A42F824102B4A11552B4A11552B4A1A
:1018C0001155FF212A4A11552A4A115500212A4A49
:1018D0001155002008E0FF2104EB4402274B03EBE5
:1018E00042021154411CC8B20628F4D3601CC4B291
:1018F000052CACD3FFF75EFC00200349087000BF45
:101900003CE70000C8020020DE010020C0390020B2
:1019100000000000E8390020CDCC4C3E6F12033BA4
:10192000295C0F3D6666E63E6666E6BE403A0020EC
:10193000D00200204C020020783900205102002003
:1019400056020020120200205B02002060020020EC
:10195000650200201C020020210200202602002037
:101960008C39002084020020890200208E02002091
:1019700093020020980200209D020020A202002075
:101980000146792907D07A2905D07B2903D07C2903
:1019900001D0842901D1012070470020FCE700001C
:1019A00010B54FF0FF310248006809F087FB10BD09
:1019B0004000002038B505460C46022C00D338BD47
:1019C0000D48006828B90D480068401C0B490860A4
:1019D000F5E78DF800508DF8014000231A4669465E
:1019E0000548006809F028FB20B104480068401C45
:1019F0000249086000BFE2E7C8020020E4010020BD
:101A00002DE9F04104460125052C02D30120BDE853
:101A1000F0812D48007840B101202C4908552C490F
:101A2000085500202B490855F1E72848005D08B10A
:101A30000020ECE7204600F035FE07460FB90120F4
:101A4000E5E7012628E024480655204600F03AFE46
:101A500005461DB9204600F007FE05462DB94FF496
:101A6000FA61384601F0DFF805461DB9384600F046
:101A700081FE054625B939462046FFF70DFD0DE0EC
:101A800029462046FFF7DAFB384601F0F8F8052032
:101A900009F0E2F9701CC6B2032ED4D900BF0DB90B
:101AA000012000E00020094908550DB9012000E09F
:101AB0000020074908550DB1012000E0002005492C
:101AC00008552846A3E70000DC0100200D02002095
:101AD00012020020170200200802002008B515E0BD
:101AE0009DF80100022800D310E09DF8000020B905
:101AF0009DF8010000F0F6F907E09DF800000128CC
:101B000003D19DF8010000F081FA00BF064800688B
:101B100040B100231A4669460348006809F0FEF9FF
:101B20000028DDD008BD0000C802002010B5044622
:101B30000F48007808B1002010BD0E480068201A38
:101B400040F2DC51884201D20020F5E700224FF438
:101B500000614FF0904002F013FE04F114000649BA
:101B600008600448046001200149087000BFE3E7F1
:101B7000C4020020DC020020D80200202DE9F04140
:101B80002DED028B00260024C0E02046FFF7C8FCA4
:101B9000054604EB84006C4911F8200028B104EBE1
:101BA000840001EB8000008A48B19FED680A04EBD5
:101BB0008400654901EB800080ED030AA4E0012662
:101BC00004EB8400604901EB8000807800B99BE061
:101BD000002004EB84015C4A02EB810188705C48C0
:101BE00050F8240008B309F046F9594951F8241077
:101BF000401A00EE100AB8EE400ADFED560A20EE59
:101C0000200AF0EE408AB7EE001ADFED530AB0EE7C
:101C1000680AFFF787FD04EB440000EBC4004F495E
:101C200001EB800080ED0A0A0AE09FED4D0A04EB0B
:101C3000440000EBC400494901EB800080ED0A0A32
:101C400009F019F9424941F8240004EB84013E4AA5
:101C500002EB8101D1ED010AB0EE600A04EB440110
:101C600001EBC4013D4A02EB810006F0ADFC04EB40
:101C70008401354A02EB8101D1ED020AB0EE600A1F
:101C800004EB440101EBC401344A02EB810006F08D
:101C9000E3FBB0EE408A9FED331ADFED330AB0EE7E
:101CA000480AFFF73FFDB0EE408A04EB8400264966
:101CB00001EB800080ED038AB0EE480AFFF76CFA72
:101CC000DFED240AB4EEE00AF1EE10FA03D29FED44
:101CD0001F0AB0EE408AB0EE480A284600F080F8AD
:101CE00030B9691CC8B2B0EE480A00F079F850B1BA
:101CF0002046FFF70DFC07463946204600F052F813
:101D0000204600F083F900BF601CC4B2022CFFF42F
:101D10003CAFAEB19FED150A042000F061F878B138
:101D200040F23B11002000F03DF840F23B11012051
:101D300000F038F8002000F069F9012000F066F9A1
:101D4000BDEC028BBDE8F081C0390020000000002E
:101D5000D00200206F12833A0AD7A33CE839002052
:101D6000CDCC4C3D6666E63E6666E6BECDCC4C3ECE
:101D700010B504460948007870B109480068201A77
:101D8000B0F1004F08D20122D1024FF0904002F092
:101D9000F7FC00200149087010BD0000C4020020BB
:101DA000D802002070B504460D46022C00D370BD49
:101DB00004EB8400074901EB80000582064820F807
:101DC00014502846FFF7DCFD10B9FF2003490855E1
:101DD00000BFECE7C0390020EA010020C202002069
:101DE00070B52DED028B0446B0EE408A052C03D36E
:101DF0000120BDEC028B70BD2148007808B10020A5
:101E0000F7E7B0EE480AFFF7C7F9DFED1E0AB4EEB8
:101E1000E00AF1EE10FA04D21B48005D08B9002078
:101E2000E7E7204600F03EFC06460EB90120E0E759
:101E30002046FFF7E5FD05460DB12846D9E71248D3
:101E4000005D80B9304600F06BFF054645B10020CB
:101E50000D49085529462046FFF7F0F92846C8E7FE
:101E6000012009490855B0EE480A304600F067FEE7
:101E700005461DB129462046FFF7E0F92846B8E798
:101E8000DC0100206F12833A12020020044800781F
:101E900010B90348007D08B1012070470020FCE71D
:101EA000C039002070B50446052C02D20A480078DB
:101EB00000B170BD204600F0F5FB054655B19FED21
:101EC000070A284600F03BFE284600F0D8FE002016
:101ED0000349085500BFECE7DC01002000000000CA
:101EE000120200202DE9F0410446022C01D3BDE886
:101EF000F0812046FFF71AFB18B9204600F086F85B
:101F0000F5E72046FFF70CFB05462F462846FFF76E
:101F100077FD064636B9681CC7B2691CC8B2FFF720
:101F20006FFD064626B904270420FFF769FD064623
:101F3000F6B1042F10D140F23B110020FFF732FF21
:101F400040F23B110120FFF72DFF002000F05EF86A
:101F5000012000F05BF80AE02046FFF7D9FA80463E
:101F600041462046FFF71EFF204600F04FF8BEE72F
:101F700004EB440101EBC4011F4A02EB810006F0AF
:101F800005FB04EB84011D4A02EB8101D1ED010A3E
:101F9000B0EE600A04EB440101EBC401164A02EB07
:101FA000810006F011FB6000154951F82000154929
:101FB00041F83400012000EB4400114951F82000A1
:101FC000104901EBC401486008F055FF0E4941F883
:101FD0002400002004EB8401084A02EB8101887090
:101FE000012004EB840102F8210004EB840102EBE0
:101FF0008101487000BF7AE7E8390020C03900202D
:1020000004030020403A0020D002002070B50446AE
:10201000022C00D370BD2046FFF782FA054600204F
:1020200004EB84011E4A02F8210004EB840102EB58
:102030008101487004EB840102EB810188709FEDFF
:10204000190A04EB8400114601EB800080ED030ABD
:1020500004EB440101EBC401134A02EB810006F0DA
:1020600095FA9FED100A2846FFF7BAFE691CC8B220
:102070009FED0C0AFFF7B4FE2846FFF713FF691C1B
:10208000C8B2FFF70FFFFFF701FF38B99FED050A50
:102090000420FFF7A5FE0420FFF704FF00BFB9E707
:1020A000C039002000000000E839002010B50446C7
:1020B000FFF776FC2046FFF75BFEFFF70FFD20469B
:1020C00000F088F8FFF7A8FA2046FFF749FAFFF773
:1020D00055FDFFF76FF804480068401C024908608E
:1020E00000F032F810BD0000E001002030B50446D9
:1020F000039D042C01D3002030BD085D08B10020F1
:10210000FAE752F8240008B90020F5E753F8240054
:10211000281AB0F57A7F01D90020EDE70120EBE71E
:10212000014631B1012906D0022906D0032908D180
:1021300005E0792070477A20FCE77B20FAE77C20D5
:10214000F8E78420F6E7000010B50248006809F0BF
:102150003FF810BD40000020FEB505460E4605B90B
:10216000FEBDFFF71DFC002414E004EB84001849B9
:1021700001EB800090ED020A01A800EB840080EDE5
:10218000000A04EB840001EB8000008A2DF81400A3
:10219000601CC4B2022CE8D3FFF7D6FF002413E082
:1021A00001A800EB8400D0ED000AB0EE600A3246D0
:1021B0002146284607F096FF3DF814202146284680
:1021C00007F0F8FE601CC4B2022CE9D300BFC7E7D9
:1021D000C03900202DE9F04F8FB08046002527E060
:1021E000764800EB850090ED000A0BA800EB850017
:1021F00080ED000A7248405D0AA94855714850F8C0
:10220000250006A941F825006F4850F8250002A9CD
:1022100041F8250006A850F825006C4941F8250032
:1022200002A850F825006A4941F82500681CC5B28B
:10223000042DD5D30024BBE06006060E701CC7B287
:1022400002AB06AA0AA93046CDF80080FFF74EFF80
:10225000814602AB06AA0AA93846CDF80080FFF7EE
:1022600045FF824606A850F826005A4951F8341016
:1022700088420AD006A850F82700564901EBC4014D
:102280004968884201D0012000E000200190B9F1A6
:10229000000F45D0BAF1000F42D00BA800EB86002A
:1022A00090ED000A0BA800EB8700D0ED000A30EE9D
:1022B000200AF6EE000A20EE200A04EB84004649CC
:1022C00001EB800080ED020A019848B306A850F89F
:1022D0002600404941F8340006A850F8270001EBD9
:1022E000C4014860012004EB84013B4A02EB8101F8
:1022F0008870002004EB840102EB8101C87037492B
:10230000085504EB840102EB8101088AFFF738FBD2
:1023100030B1FF203249085500212046FFF742FD29
:1023200004EB84002C4911F8200000B93EE0B9F11B
:10233000000F02D0BAF1000F37D1B9F1000F01D16F
:10234000304600E03846834604EB8400224901EB26
:102350008000C078032819D24046FFF7E7FB18B386
:1023600004EB84001C4901EB8000C078401C04EBA6
:102370008401194A02EB8101C87004EB8400114604
:1023800001EB8000C078154908550DE0144800F8AD
:1023900004B05846FFF7C4FE014600902046FFF700
:1023A00001FD2046FFF732FE00BF00BF601CC4B233
:1023B000022CFFF441AF0FB0BDE8F08FF402002013
:1023C000090000200403002014030020B03900207D
:1023D000A0390020403A0020C0390020C00200206F
:1023E000C202002070B500201B49096888631A49A1
:1023F0000968C86318490968086418490968486386
:1024000017490968C86314480068C56A681C400811
:1024100014490860084600680F490968886400206C
:102420000E49096848620E49096848620A49096804
:1024300048620A4800F018F804460CB1204670BD06
:10244000074800F011F804460CB12046F7E70248AF
:1024500000F00AF8F3E7000054080020A00800206C
:10246000840900203000002010B504462068006870
:1024700000F0010008B1002010BD204603F032FF3B
:10248000FAE700BFFEE700002DE9F04108F0F3FC99
:102490000546002445E0E0B206F046F90746062F5F
:1024A00000D13DE02148005D78B3214850F8240078
:1024B00000B935E01E4850F824002E1AB6F5FA6F20
:1024C0000CD31C48005DF8B92B46022239461A4845
:1024D00007F0DCFB01201749085515E0B6F5FA7F37
:1024E00012D3164850F8240028B1144850F824009C
:1024F000281A962808D32B46012239460E4807F0A1
:10250000C5FB0E4840F8245009E0FFE700200849C9
:1025100041F82400094941F824000649085500BF44
:10252000641C062CB7DBBDE8F0810000BA3C00203B
:102530005004002011000020083C00206804002006
:1025400010B52DED028B0446B0EE408A022C02D36A
:10255000BDEC028B10BDFFF723FA04EB84000449A5
:1025600001EB800080ED018AFFF7EEFD00BFEFE791
:10257000C039002010B5044621460020FFF71AFAA2
:1025800010BD10B5044621460120FFF713FA10BD17
:1025900010B5024801F09FFE10BD0000C4050020E8
:1025A00010B5024801F097FE10BD0000440B00205A
:1025B00010B5024801F08FFE10BD00006405002038
:1025C00030B50E4D0468AC4201D20D4901E00C4912
:1025D00020310B460478083C1425B4FBF5F2446C1A
:1025E000A40803EB84048464054C8034C46402F0C2
:1025F0001F050124AC40046530BD00000804024002
:102600000008024001794A1E064B03EB8202426534
:10261000044A403282654A1E02F01F0301229A409A
:10262000C26570470009024030B5D0E913546C60B0
:10263000446D14B1D0E916546C6090F8444004F035
:102640001F050124AC40056C6C60046863608468FD
:10265000102C04D10468A2600468E16003E00468FF
:10266000A1600468E26030BD70B586B006463046B1
:1026700000F018F8054615B9012006B070BD2846CF
:1026800000F04EFB04460CB12046F6E7684600F029
:1026900003F99DE8070003AB07C303A9284600F030
:1026A0008CF8EAE70146052901D30020704701EBC9
:1026B000410000EBC100024A02EBC000F6E7000057
:1026C000503A002010B50446052C01D3012010BD5E
:1026D00004EB440202EB0412064B03EB820104EB11
:1026E000440202EBC402044B03EBC20000F03CF9CD
:1026F000EDE7000088DD0008503A002070B5044680
:10270000204600F0B1F908B9012070BD206BA8B1D6
:10271000A18E206B02F022F8054694F84A0020B101
:102720000DB9012000E000200546012D06D19FEDE6
:10273000100A204600F003FA0420E6E7A06BA8B1D7
:10274000A18FA06B02F00AF8064694F84A0020B167
:102750000EB9012000E000200646012E06D19FEDB3
:10276000040A204600F0EBF90520CEE70020CCE774
:102770000000000038B505466A460221284600F0F0
:10278000B5F904460CB1204638BD9DF8000040F074
:1027900001020221284600F0DAFA04460CB1204674
:1027A000F2E7012001F0E0FE9DF8000000F0FE02DB
:1027B0000221284600F0CBFAE6E72DE9F0478146F2
:1027C0000C4614B90120BDE8F087484600F0A0FA95
:1027D00006460EB13046F6E720788007070E60788F
:1027E00008B147F02007A07800F0030047EAC007CF
:1027F000E07800F007000743207940074FEA50686F
:10280000A07908B148F08008607900F00F0040EA34
:102810000808E0798007050E207A08B145F0200508
:10282000607A00F0030045EAC005A07A08B145F0DF
:102830000405E07A00F0030005433A4603214846C8
:1028400000F085FA06460EB13046BCE74246042148
:10285000484600F07CFA06460EB13046B3E72A46F9
:102860000521484600F073FA06460EB13046AAE745
:102870004846FFF77FFFA6E710B50446A18B01226B
:10288000A06901F07DFF10BD10B50446A18B0022A8
:10289000A06901F075FF10BD0EB500218DF8001084
:1028A0008DF801108DF8021007218DF803108DF8B6
:1028B000041000218DF805108DF806108DF8071012
:1028C0008DF808108DF809108DF80A1001218DF887
:1028D0000B100099016001994160029981600EBD61
:1028E0002DE9F84380460D461646062E00D90626E9
:1028F00000240FE06A462146404600F0F7F80746FC
:1029000017B13846BDE8F88315B19DF80000285589
:10291000601CC4B2B442EDDB0020F3E770B52DEDCE
:10292000028B0446B0EE408A60680068C56A94ED88
:10293000110AB0EE401ADFED0B0AB0EE480A00F0C3
:10294000A3F8B0EE408A681C00EE100AB8EE400A08
:1029500020EE080ABCEEC00A10EE100ABDEC028B95
:1029600070BD00000000000070B504460D4604B1C3
:102970000DB9012070BD58212046FDF713FE4C22F1
:1029800029462046FDF7D4FDE08F08B90A20E087EC
:10299000B4F8400010B90220A4F84000B4F8420096
:1029A00018B940F6E440A4F8420094ED110AB5EEDF
:1029B000C00AF1EE10FA03D89FED080A84ED110A5F
:1029C000204600F051F808B90120D3E7012084F82F
:1029D0005600204600F004F8CCE700003333733F84
:1029E00010B50446204600F03FF808B9012010BD9C
:1029F0002046FFF741FFA18D0022A06A01F0C0FE32
:102A0000A18C0022206A01F0BBFED4E9010104F090
:102A10008DF808B10320EAE70021204600F0DDF838
:102A200094F8480088B1E06808B90120DFE7D4E9EC
:102A3000030101F079FB08B10320D8E7002120460B
:102A400000F0F1F808B10320D1E794F8490048B14B
:102A5000606908B90120CAE7606902F0FDF808B1B1
:102A60000320C4E70020C2E7014659B1086848B115
:102A7000486838B1886928B1086A18B1886A08B10D
:102A8000012070470020FCE7F0EE401AF4EEC11A76
:102A9000F1EE10FA02DDB0EE410A7047F4EEE01AF2
:102AA000F1EE10FA02D2B0EE600AF6E7B0EE610A7B
:102AB000F3E770B506460C460CB9012070BDFF2047
:102AC0002070607022460021304600F00FF8054665
:102AD0000DB12846F2E7621C0121304600F006F8ED
:102AE00005460DB12846E9E70020E7E72DE9F84360
:102AF00080460C461546002000900DB10F2C02D9DF
:102B00000120BDE8F88304F00F004FF4004141EAD2
:102B1000C0266A463146404600F0C4F807461FB159
:102B2000FF2028703846ECE7BDF800002870062C1E
:102B300003D2297808F1500001550020E1E770B573
:102B40002DED028B0446B0EE408A2046FFF78CFF45
:102B500018B90120BDEC028B70BD94ED110AB0EEE6
:102B6000401A94ED110AB1EE400AF0EE400AB0EEC0
:102B7000480AFFF789FFB0EE408AB5EEC08AF1EE51
:102B800010FA0FDDA18D0122A06A01F0F9FDB0EE6F
:102B9000480A2046FFF7C2FE05462946204600F0B7
:102BA0001CF818E0B5EEC08AF1EE10FA0FD2A18D34
:102BB0000022A06A01F0E4FDB1EE480A2046FFF7CA
:102BC000ADFE05462946204600F007F803E0002147
:102BD000204600F002F80020BCE782681AB942687B
:102BE000126851631EE08268042A03D142681268A9
:102BF000916317E08268082A03D142681268D163A2
:102C000010E082680C2A03D142681268116409E05E
:102C10008268102A03D142681268916402E0426817
:102C20001268D164704770B504460D462046FFF720
:102C30001BFF08B9012070BD94F8480008B90020B6
:102C4000F9E7E06810B1B4F8420008B90120F2E7F2
:102C5000B4F84200A84201DAB4F84250C5EB05309E
:102C6000B4F84210B0FBF1F633460022D4E9030178
:102C700001F036FA08B10320DDE70020DBE710B5EC
:102C800004462046FFF7F0FE08B9012010BD0021E0
:102C90002046FFF7A2FFA18C0022206A01F070FD00
:102CA0000020F3E7FEB504460D4616462046FFF722
:102CB000DBFE00B10EB90120FEBD280A8DF8080028
:102CC000E8B28DF8090000208DF804008DF80500A9
:102CD0002046FFF7D9FDE08F0090022301AA02A948
:102CE000206803F007F807462046FFF7C5FD24F8E3
:102CF0004C5F9DF805009DF8041040EA01206080BB
:102D000060884C3C30800FB10220D5E70020D3E72B
:102D100010B5044618220221204600F018F810BD14
:102D200010B504462046FFF79FFE08B9012010BDEC
:102D300000212046FFF751FFA18C0122206A01F0FB
:102D40001FFDB4F8400001F00FFC0020EFE72DE973
:102D5000F84307460C461546002000900F2C02D978
:102D60000120BDE8F88304F00F0045EAC0201FFAF7
:102D700080F86A4641463846FFF794FF064626B972
:102D8000062C02D207F1500005553046E9E770479E
:102D900072B600BFFEE70000F8B504460D460020FD
:102DA000009000BF94F85800012801D10220F8BD1E
:102DB000012084F8580000BF2046FDF767FD064655
:102DC0008EBBE06D20F4885040F00200E065206882
:102DD00081681B4A114005F0804242F000421143D5
:102DE000816000BF13E00098401C009015490098D6
:102DF00088420CD3E06D20F0020040F01000E06546
:102E000000BF002084F8580000BF0120CFE72068F1
:102E10008168C90F0029E6D1E06D20F0020040F082
:102E20000100E06504E0FFE7E06D40F01000E065C0
:102E300000BF002084F8580000BF3046B7E700000C
:102E4000C0FFFF3F02DE04002DE9F0439BB00446C3
:102E50000E464FF00008306800B100BF00BF94F884
:102E60005800012803D102201BB0BDE8F0830120E7
:102E700084F8580000BF0020179018902068B0F127
:102E8000A04F02D15848009008E058492068884275
:102E900002D15748009001E000200090009850B9FE
:102EA000E06D40F02000E06500BF002084F858008D
:102EB00000BF0120D8E7009804F0A1FB0746206876
:102EC00004F09DFB00287DD1002F7FD12068B0F158
:102ED000A04F03D044492068884201D1454800E012
:102EE000454805463068D8B394F83800716841EA1F
:102EF0004030A96821F460410843A8602068B0F11F
:102F0000A04F03D038492068884201D1394800E0F9
:102F10003948384988420AD14FF0A04004F060FB9C
:102F20008146314804F05CFB49EA00000DE02F487F
:102F300004F056FB81462E4804F052FB49EA000992
:102F40002E4804F04DFB49EA0000E0BBB168306850
:102F50000843A96840F61F7291430843A8603BE00C
:102F6000FFE7A86820F46040A8602068B0F1A04F97
:102F700003D01D492068884201D11E4800E01E4848
:102F80001C4988420AD14FF0A04004F029FB814639
:102F9000154804F025FB49EA00000DE0134804F051
:102FA0001FFB8146124804F01BFB49EA0009134845
:102FB00004F016FB49EA000028B9A86840F61F7122
:102FC000884301E002E007E0A86005E0E06D40F022
:102FD0002000E0654FF0010800BF002084F8580091
:102FE00000BF404640E700000001005000040050D0
:102FF000000500500003005000070050000600507C
:103000002DE9F84F05460C464FF0000A00200090CD
:10301000FE49E068884200D000E000BF00BF95F89C
:103020005800012802D10220BDE8F88F012085F860
:10303000580000BF286804F0DDFA00287DD1296817
:10304000D4E9002001F1300CC0F3012B0CEB8B0311
:10305000D3F800C000F01F0E4FF01F0B0BFA0EFB51
:103060002CEA0B0C00F01F0BC2F3846E0EFA0BFE61
:103070004CEA0E0CC3F800C000BF286804F0BAFA8E
:103080008146286804F09DFA8046B9F1000F64D1AA
:10309000B8F1000FFBD1A068B0F1004F0AD1216850
:1030A0000022286804F0C2FA4FF00041286804F0BA
:1030B000E2FA08E0A2682168286804F0B7FA002163
:1030C000286804F0D8FA60692968C968C1F3C101A9
:1030D000490000FA01F7206904283FD028682268D7
:1030E000216900F1600C0CEB8103D3F800C0DFF81C
:1030F00020B30CEA0B0C02F0F84B4BF0004B4BEA00
:10310000070B4CEA0B0CC3F800C000BF2868A2698B
:10311000216900F1600C0CEB8103D3F800C02CF0A6
:10312000807C4CEA020CC3F800C000BF2868227FF4
:103130002169012A02D1520601E0F6E1002213467C
:1031400000F1600C0CEB8102D2F800C02CF0007C86
:103150004CEA030CC2F800C000BFA7E000212868B9
:1031600004F026FAC0F3120030B90021286804F0F8
:103170001FFAC0F3846007E00021286804F018FA01
:1031800090FAA0F0B0FA80F02168C1F3120119B9E9
:103190002168C1F3846104E0216891FAA1F1B1FAD8
:1031A00081F1884204D100221146286804F058FABF
:1031B0000121286804F0FCF9C0F3120030B90121A4
:1031C000286804F0F5F9C0F3846007E0012128685D
:1031D00004F0EEF990FAA0F0B0FA80F02168C1F3A3
:1031E000120119B92168C1F3846104E0216891FAE0
:1031F000A1F1B1FA81F1884204D1002201212868AD
:1032000004F02EFA0221286804F0D2F9C0F312006B
:1032100030B90221286804F0CBF9C0F3846007E0DC
:103220000221286804F0C4F990FAA0F0B0FA80F006
:103230002168C1F3120119B92168C1F3846104E066
:10324000216891FAA1F1B1FA81F1884204D10022FA
:103250000221286804F004FA0321286804F0A8F980
:10326000C0F3120030B90321286804F0A1F9C0F3BB
:10327000846007E00321286804F09AF990FAA0F02E
:10328000B0FA80F02168C1F3120119B92168C1F3C5
:10329000846104E0216891FAA1F1B1FA81F18842D8
:1032A00004D100220321286804F0DAF9286804F028
:1032B00092F9002870D12868E2682168D0F8B0C07F
:1032C000C1F312032CEA030C02F0180B514B23FA42
:1032D0000BF30B404CEA030CC0F8B0C000BF4B49E5
:1032E000E068884258D12368C3F312031BB92368EE
:1032F000C3F3846304E0236893FAA3F3B3FA83F37C
:103300005B1C03F01F03092B3ED82368C3F3120391
:103310001BB92368C3F3846304E0236893FAA3F31F
:10332000B3FA83F35B1C03F01F034FF0010C0CFA9C
:1033300003FC2368C3F312031BB92368C3F384633C
:1033400004E0236893FAA3F3B3FA83F35B1C03F05E
:103350001F034CEA836C2368C3F312031BB9236871
:10336000C3F3846304E0236893FAA3F3B3FA83F30B
:103370005B1C03F01F0303EB43034FF0000B4BEA0E
:1033800003534CEA03033FE02368C3F3120323B95A
:103390002368C3F3846305E042E0236893FAA3F350
:1033A000B3FA83F35B1C03F01F034FF0010C0CFA1C
:1033B00003FC2368C3F312031BB92368C3F38463BC
:1033C00004E0236893FAA3F3B3FA83F35B1C03F0DE
:1033D0001F034CEA836C2368C3F312031BB92368F1
:1033E000C3F3846304E0236893FAA3F3B3FA83F38B
:1033F0005B1C03F01F030A3B03EB43034FF0007B0E
:103400004BEA03534CEA0303194605E000007F40F2
:1034100000F0FF03FFFF0700A268286804F006F928
:10342000484920680840002842D02968B1F1A04FDF
:1034300003D0454A2968914201D1444900E04449FA
:10344000084604F0ABF8064642492068884203D09B
:103450004149206888422CD106F4000048BB286806
:10346000B0F1A04F03D03D492868884263D12A6853
:10347000B2F1A04F03D0344B2A689A4201D1334AAB
:1034800000E0334A104646F4000104F0E3F8344803
:1034900000683449B0FBF1F0401C00EB40008000B4
:1034A000009002E00098401E009000980028F9D19A
:1034B00041E02D49206888421BD106F08070C0B9D8
:1034C00021492868884203D128492868884232D097
:1034D0002A68B2F1A04F03D01B4B2A689A4201D14F
:1034E0001A4A00E01A4A104646F0807104F0B2F819
:1034F00021E01F49206888421DD106F48000D0B920
:1035000011492868884216D02A68B2F1A04F03D02A
:103510000B462A689A4201D10C4A00E00C4A104638
:1035200046F4800104F096F805E0E86D40F02000D4
:10353000E8654FF0010A00BF002085F8580000BF81
:10354000504671E500000880000100500003005063
:1035500000070050000021C31000C090000600507A
:103560005C000020400D0300000052C70005005021
:10357000000084CB10B504462068B0F1A04F07D1FD
:10358000FDF716FB08480068401C074908600AE080
:1035900006492068884206D1FDF758FB04480068B8
:1035A000401C0349086010BDE400002000010050E9
:1035B000E8000020704700000168B1F1A04F05D17C
:1035C00007490968491C064A116008E0054A016874
:1035D000914204D104490968491C034A11607047AB
:1035E000EC00002000010050F00000202DE9F8431D
:1035F00004464FF000080020009014B90120BDE8F7
:10360000F883606920B194F82400012800D100BF3C
:10361000E06D30B9204600F045F90020206684F8BE
:10362000580020688168C1F3407131B12068816819
:10363000914A1140816000BF00BF206803F0D5FFB0
:10364000B0B9206881688D4A114041F08051816095
:1036500000BF8B4800688B49B0FBF1F0401C400074
:10366000009002E00098401E009000980028F9D1D8
:10367000206803F0BAFF48B9E06D40F01000E06543
:10368000206E40F0010020664FF00108206803F032
:10369000B1FF0646E06D00F0100000287ED1002E3C
:1036A000FCD1E06D20F4807040F00200E0652068FD
:1036B00003F091FF88BB2068B0F1A04F03D072499E
:1036C0002068884201D1714800E071486F49884202
:1036D0000AD14FF0A04003F07EFF81466A4803F014
:1036E0007AFF49EA00000DE06A4803F074FF814662
:1036F000694803F070FF49EA0009684803F06BFF6E
:1037000049EA000048B92268B2F1A04F03D05E4BED
:1037100022689A4202D15D4A01E009E05C4A104603
:103720006168826822F47C120A43826000BF00BF95
:10373000607FE16B41EA4030E1680843A1680843DB
:1037400094F8241040EA014594F82400012803D19C
:10375000208D401E45EA4045E06A28B1A08D00F466
:103760007870216B084305432068C0684C490840C5
:1037700028432168C8602068006920F04060616BC0
:10378000084321680861206803F01BFF0746EEBB71
:10379000E7BB207F002141EA803100E064E094F83B
:1037A000380041EA40052068C06844F202018843BD
:1037B00028432168C860206980B12068006940F40E
:1037C0008030216808612068D0F8C0006FF30D00D8
:1037D000216908432168C1F8C0000DE02068006934
:1037E00020F48030216808612068D0F8C0006FF3B1
:1037F0000D002168C1F8C00094F84000012813D1E1
:10380000606C40F00101A06C084300E012E0E16C44
:103810000843216D08432168096940F2FC72914315
:1038200008432168086105E02068006920F0010074
:10383000216808616069012809D12068006B20F0C7
:103840000F00216A491E08432168086305E02068CB
:10385000006B20F00F0021680863E06D20F002008B
:1038600040F00100E06505E0E06D40F01000E0652B
:103870004FF001084046C2E6C0FFFF5FC0FFFF7F78
:103880005C000020400D03000001005000030050C8
:1038900000070050000400500005005000060050D2
:1038A0000740F0FF10B59CB00446142117A8FCF7A0
:1038B00079FE542102A8FCF775FE2068B0F1A04FF4
:1038C0007DD14FF4004002908003139002A801F0D4
:1038D00075FA08B1FFF75CFA84480068401C834918
:1038E00008600846006801280DD100BF8048C06C00
:1038F00040F400507E49C8640846C06C00F4005093
:10390000019000BF00BF00BF7948C06C40F00400C8
:103910007749C8640846C06C00F00400019000BFFD
:1039200000BF00BF0846C06C40F00100C8640846F4
:10393000C06C00F00100019000BF00BF00BF08464E
:10394000C06C40F00200C8640846C06C00F0020081
:10395000019000BF00BF0F20179003201890002097
:10396000199017A9634800F013FE0B20179003204D
:1039700018900020199017A94FF0904000F008FE11
:1039800044F601001790032018900020199017A901
:10399000594800F0FDFD5948594908600520486024
:1039A000002157488160C160802101614900416167
:1039B000890081612021C1610021016200E009E0EC
:1039C00000F008FD08B1FFF7E3F900BF4C4860655F
:1039D000846289E04B4920688842FAD1C001029094
:1039E0008003139002A801F0E9F908B1FFF7D0F9BC
:1039F0003E480068401C3D490860084600680128B0
:103A00000DD100BF3A48C06C40F400503849C8643A
:103A10000846C06C00F40050019000BF00BF00BF1A
:103A20003348C06C40F001003149C8640846C06C9E
:103A300000F00100019000BF00BF00BF0846C06C4D
:103A400040F00400C8640846C06C00F00400019017
:103A500000BF00BF00BF0846C06C40F00200C86451
:103A60000846C06C00F00200019000BF00BFA0201B
:103A70001790032018900020199017A94FF090403C
:103A800000F086FD30201790032018900020199038
:103A900017A9184800F07CFD042017900320189007
:103AA0000020199017A9144800F072FD1348283817
:103AB0001549086024204860002113488160C160D6
:103AC0008021016149004161890081612021C1613A
:103AD0000021016200F07EFC08B1FFF759F900BF38
:103AE00009486065846200BF1CB010BD4C00002016
:103AF0000010024000080048000400483000024066
:103B00006405002000010050C40500202DE9F041AB
:103B100004460F4690462168B1F1A04F03D0484AB1
:103B20002168914201D1474900E04749084603F026
:103B30003AFD0646206803F05DFD00287CD100BFF9
:103B400094F85800012802D10220BDE8F08101203C
:103B500084F8580000BF3D492068884201D1012007
:103B600000E0002020B91EB1052E01D0092E5DD144
:103B70002046FCF7D5FE0546002D52D1E06D40F6FB
:103B80000161884340F48070E0652D4920688842D7
:103B900002D14FF0A04006E02D492068884201D1B3
:103BA0002C4800E020682168884200D01EB9E06DF2
:103BB00020F48010E065E06D00F4805020B1206EAC
:103BC00020F00600206601E0002020662248616D9A
:103BD000C8622248616D08632148616D48631C20FA
:103BE0002168086000BF002084F8580000BF2068EA
:103BF000406840F01000216848602068C06840F0CC
:103C000001002168C860226802F1400143463A463B
:103C1000606D00F047FC0546206803F0FFFC0CE0F7
:103C20000AE000BF002084F8580006E0012500BF2C
:103C3000002084F8580000E00225284685E70000AF
:103C40000001005000030050000700500006005023
:103C50000005005000040050CD0700087D08000852
:103C60005F08000870B5044600BF94F858000128AA
:103C700001D1022070BD012084F8580000BF03214B
:103C80002046FCF715FD05464DBB2068C06820F0B6
:103C900001002168C860606D90F82500022808D1F5
:103CA000606D00F093FA05461DB1E06D40F04000F4
:103CB000E0652068406820F010002168486025B960
:103CC0002046FCF7E3FD054602E02046FCF7DEFD5A
:103CD0002DB9E06D20F4885040F00100E06500BF90
:103CE000002084F8580000BF2846C3E77047000052
:103CF0002DE9F84F04460D4616460020009004B109
:103D000015B90120BDE8F88FE869012800D100BF8E
:103D1000A868042800D100BF00BF6079012801D144
:103D20000220EFE70120607100BF02202071A86827
:103D3000042859D100F02AFD8246E6B911E000F0CE
:103D400025FDA0EB0A0001280BD92068406B00F488
:103D5000004030B1206940F008002061032020714C
:103D6000D0E72068406B00F400400028E7D1686A83
:103D7000216808641BE011E000F008FDA0EB0A00D8
:103D800001280BD92068406B00F0004030B1206959
:103D900040F00800206103202071B3E72068406BE9
:103DA00000F000400028E7D1686A21684864206874
:103DB000806C06F0100240F2FF319140884306F01B
:103DC0001002A96A91400843216888642068C06C89
:103DD00006F01002FF219140884306F01002E96AC4
:103DE000914008432168C864E86901280FD1206820
:103DF000876B06F010011F2088408743D5F820808C
:103E000006F0100008FA00F0074320688763206876
:103E1000C76B06F01001072088408743A869012876
:103E200002D14FF000090CE0A869022802D14FF03E
:103E3000010906E0686910B94FF0010901E04FF08F
:103E400000096969A868084340EA090806F01001FA
:103E50004FF48070884087432879012801D10002FF
:103E600000E0002040EA080806F010014FF400705E
:103E7000884087436879012801D1400200E0002092
:103E800040EA080827F44047286802280FD101F0CB
:103E9000D5FA83462C498B4502D947F4004708E000
:103EA0002A48834502D947F4804702E001E02868A8
:103EB000074306F0100108FA01F007432068C763C2
:103EC0002068006806F010024FF48041914088435A
:103ED000216808602068076806F0100140F6FE704F
:103EE00088408743D5F80C8006F0100108FA01F0ED
:103EF0000743206807602068006806F01002C021B0
:103F00009140884321680860287BC0F38308287C9F
:103F1000C0F3830048EA00282068006E06F0100213
:103F200040F60F719140884306F0100108FA01F144
:103F30000843216808660120207100BF00206071DD
:103F400000BF0098DEE600000068890900B4C404E0
:103F5000704770B50446206805682068466B05F414
:103F60000050B0F5005F17D106F40050B0F5005FC7
:103F700012D104202071206940F0010020614FF42B
:103F80000050216848632068006820F48050216850
:103F900008602046FFF7DCFF05F00050B0F1005F3D
:103FA00017D106F00050B0F1005F12D1042020714B
:103FB000206940F0020020614FF000502168486302
:103FC0002068006820F08050216808602046FFF7D4
:103FD0008DFE70BD10B504460CB9012010BD2079CE
:103FE00020B900206071204600F008F802202071FE
:103FF00000202061012020710020EFE710B586B07D
:104000000446142101A8FCF7CDFA31492068884202
:104010002ED100BF2F48C06C40F480302D49C864B9
:104020000846C06C00F48030009000BF00BF00BFA5
:104030000846C06C40F00100C8640846C06C00F03F
:104040000100009000BF00BF1020019003200290EB
:104050000020039001A94FF0904000F099FA00224F
:104060000F21362000F03CFC362000F025FC2CE02F
:1040700019492068884216D100BF1648C06C40F428
:1040800080201449C8640846C06C00F48020009069
:1040900000BF00BF00220F21362000F021FC362097
:1040A00000F00AFC11E00D49206888420DD100BFE4
:1040B0000848C06C40F400200649C8640846C06C3B
:1040C00000F40020009000BF00BF06B010BD00004B
:1040D0000008005000100240001000500014005072
:1040E00078B50446002000900CB9012078BD206806
:1040F000C06B01F010064FF48075B540284000B940
:1041000000BF2068009029B902F10800009D2844F2
:10411000009004E002F11400009D284400900098F3
:1041200003600020E2E7000018B502460AB901204A
:1041300018BD00BF5079012801D10220F8E7012005
:10414000507100BF022010711068006801F0100467
:104150000123A3401843136818601A4800681A4BDB
:10416000B0FBF3F0401C009002E00098401E00906D
:1041700000980028F9D161B91068006800F03E008D
:10418000022816D11068406840F00100136858609A
:104190000FE01068006800F4781301F010040220AA
:1041A000A040834205D11068406840F002001368C7
:1041B00058600120107100BF0020507100BF00BF87
:1041C000B6E700005C000020400D0300014600201F
:1041D00091F82520022A03D00422CA63012027E097
:1041E0000A68126822F00E020B681A608A6C126864
:1041F00022F480728B6C1A600A68126822F0010245
:104200000B681A6091F8442002F01F0301229A40C3
:104210000B6C5A60D1E913325A604A6D42B14A6D53
:10422000126822F480724B6D1A60D1E916325A601E
:10423000012281F8252000BF002281F8242000BF40
:10424000704770B50446002594F8250002280BD06D
:104250000420E063012084F8250000BF002084F8DA
:10426000240000BF012534E02068006820F00E0023
:10427000216808602068006820F00100216808605B
:10428000A06C006820F48070A16C086094F8440071
:1042900000F01F0101208840216C4860D4E9131010
:1042A0004860606D40B1606D006820F48070616DA1
:1042B0000860D4E916104860012084F8250000BF8A
:1042C000002084F8240000BFA06B10B12046A16B31
:1042D0008847284670BD70B50446206C0568206884
:1042E000066894F8440000F01F010420884028402C
:1042F000E0B106F00400C8B12068006800F02000BA
:1043000028B92068006820F004002168086094F84B
:10431000440000F01F0104208840216C4860206B9D
:10432000002856D02046216B884752E094F844007C
:1043300000F01F0102208840284018B306F0020058
:1043400000B32068006800F0200040B920680068D1
:1043500020F00A0021680860012084F8250094F804
:10436000440000F01F0102208840216C486000BF1B
:10437000002084F8240000BFE06A50B32046E16AC0
:10438000884726E094F8440000F01F010820884088
:104390002840F0B106F00800D8B12068006820F08D
:1043A0000E002168086094F8440000F01F0101200D
:1043B0008840216C48600120E06384F8250000BF3C
:1043C000002084F8240000BF606B10B12046616BB0
:1043D000884770BD70B504460CB9012070BD2F49E7
:1043E000206888420BD22E492068401A1421B0FB65
:1043F000F1F0800060642A48083820640AE0274908
:104400002068401A1421B0FBF1F08000606423485A
:1044100008382064022084F825002068056847F6E3
:10442000F0708543D4E902010843216908436169BA
:104430000843A1690843E1690843216A0843054329
:10444000206805602046FEF7BBF8A068B0F5804FF5
:1044500001D1002060602079A16C0860D4E91310BC
:104460004860606860B16068042809D82046FEF79B
:10447000C9F80020616D0860D4E91610486003E0B7
:1044800000206065A065E0650020E063012084F8FD
:104490002500002084F8240000BF9FE708040240A4
:1044A000080002402DE9F04104460D4616461F461D
:1044B0004FF0000800BF94F82400012802D1022028
:1044C000BDE8F081012084F8240000BF94F82500A5
:1044D00001283FD1022084F825000020E0632068F5
:1044E000006820F00100216808603B4632462946FA
:1044F0002046FEF799F8206B30B12068006840F044
:104500000E00216808600BE02068006820F00400BD
:10451000216808602068006840F00A00216808608F
:10452000A06C006800F4803028B1A06C006840F4F2
:104530008070A16C0860606D28B1606D006840F407
:104540008070616D08602068006840F0010021689B
:10455000086006E000BF002084F8240000BF4FF090
:1045600002084046ACE7000070B5044600F00EF9C2
:1045700006462546681C10B104480068054400BF83
:1045800000F004F9801BA842FAD370BD5800002047
:1045900078B502460B460021CAE001268E401D6810
:1045A00005EA0604002C73D01D7905F00305012DE2
:1045B00004D01D7905F00305022D13D190684E003B
:1045C0000325B540A8434E00DD68B5402843906000
:1045D000506801258D40A8431D79C5F300158D4015
:1045E000284350601D7905F00305032D09D0D068DC
:1045F0004E000325B540A8434E009D68B5402843B2
:10460000D0601D7905F00305022D13D1CE0802F10B
:10461000200555F826004D07EE0E0F25B540A8439E
:104620004E07F60E1D69B5402843CE0802F120055D
:1046300045F8260010684E000325B540A8431D79B3
:1046400005F003054E00B540284310605D6805F491
:104650004035002D6BD000BF384D2D6E45F0010563
:10466000364E356635462D6E05F00105009500BFC6
:1046700000BF4FEAB6358E0855F826008D072E0F7D
:104680000F25B540A843B2F1904F02D100251AE0A2
:104690004DE02B4DAA4201D1012514E0294DAA423B
:1046A00001D102250FE0284DAA4201D103250AE0DD
:1046B000264DAA4201D1042505E0254DAA4201D18B
:1046C000052500E006258E07360FB5402843214D0D
:1046D0008E0845F82600204D2868A0435D6805F443
:1046E000801505B120431C4D28602D1D2868A0436E
:1046F0005D6805F4001505B12043174D2D1D286098
:10470000154D2D1F2868A0435D6805F4003505B1DF
:104710002043114D2D1F28602D1F2868A0435D6880
:1047200005F4803505B120430B4D083D2860491C38
:104730001D68CD40002D7FF430AF78BD00100240E1
:104740000004004800080048000C00480010004821
:1047500000140048080001400804014002461369A3
:104760000B400BB1012000E00020704710B54269FA
:1047700021EA020302EA010443EA0443836110BD13
:104780000AB1816100E08162704700000148006861
:104790007047000050000020034800680349096882
:1047A000084401490860704750000020580000206C
:1047B00010B50024032000F0D1F80F2000F008F815
:1047C00008B1012401E000F051F8204610BD0000BE
:1047D000F0B587B004460026002700BF1E48806D54
:1047E00040F010001C4988650846806D00F01000FC
:1047F000009000BF00BF01A902A800F0FDFD00F07D
:1048000023FE06461548B6FBF0F0471E144815492E
:10481000086040F2E7311348C16047600021016140
:10482000816001F0AEFC054695B90E4801F0AEFD81
:1048300005466DB9362000F03FF8102C07D2002253
:104840002146362000F04CF80748046000E00125BE
:10485000284607B0F0BD00000010024040420F00A3
:1048600000100040A40B00205400002008B500BF39
:104870001048006E40F001000E4908660846006EC0
:1048800000F00100009000BF00BF00BF0846806D2F
:1048900040F0805088650846806D00F080500090A0
:1048A00000BF00BF00220F21901E00F019F800F099
:1048B0007BFA08BD001002400146084600280DDBC7
:1048C00000BF00BF00F01F0301229A4043099B0074
:1048D00003F1E023C3F8002100BF00BF00BF704711
:1048E0002DE9F05F80460D46164606F0F9F80746BA
:1048F00039462A46334601F00700C0F1070ABAF1EB
:10490000040F02D94FF0040A01E0C0F1070AD146B2
:1049100000F1040ABAF1070F02D24FF0000A01E0D9
:10492000A0F1030AD4464FF0010A0AFA09FAAAF1E3
:10493000010A0AEA020A0AFA0CFA4FF0010B0BFA12
:104940000CFBABF1010B0BEA030B4AEA0B0421460B
:10495000404606F0CDF8BDE8F09F000000BF00F033
:104960000702064B19684FF6FF031940044B0B432F
:1049700043EA0221014B196000BF70470CED00E0D3
:104980000000FA0538B5044600250CB9012038BDF1
:1049900094F83A00052801D10120F8E794F83A008C
:1049A000022801D10120F2E7A06800B900BFA06988
:1049B00000B100BFA068402800D100BFE06A102805
:1049C00000D100BF00BF4248006E40F001004049E6
:1049D00008660846006E00F00100009000BF00BFAE
:1049E00094F83A0010B9002084F83900204600F00D
:1049F00073F8A068402802D0A068602826D12068FB
:104A0000006820F01000E16A084321680860D4E9DA
:104A10000101084321690843217D012901D10902CF
:104A200000E000210843616A0843A16A0843218E1F
:104A300040EAC14194F8340041EA00602168096805
:104A4000244A114008432168086027E02068006874
:104A500020F01000E16A084321680860D4E90101F0
:104A60000843E168084321690843217D012901D1F8
:104A7000090200E000210843616A0843A16A084373
:104A8000218E40EAC14194F8340041EA0060216877
:104A90000968104A1140084321680860206880694D
:104AA00000F0004058B9D4E906010843216A0843E0
:104AB0002168896921F03F0108432168886194F8E1
:104AC0003A0010B9012084F83A0028465FE7000058
:104AD00000100240113E00E010B586B004461421DB
:104AE00001A8FBF75FFD58492068884219D100BF33
:104AF0005648C06C40F001005449C8640846C06C78
:104B000000F00100009000BF00BF042001900320CE
:104B100002900020039001A94FF09040FFF738FD6C
:104B200090E04949091D2068884231D100BF4748BB
:104B3000C06C40F001004549C8640846C06C00F0F4
:104B40000100009000BF00BF00BF0846C06C40F0ED
:104B50000800C8640846C06C00F00800009000BF60
:104B600000BF40200190032002900020039001A983
:104B70004FF09040FFF70CFD4FF480400190032070
:104B800002900020039001A93148FFF701FD59E090
:104B90002D4908312068884218D100BF2B48C06CCD
:104BA00040F002002949C8640846C06C00F00200C9
:104BB000009000BF00BF022001900320029000205F
:104BC000039001A92348FFF7E3FC3BE01E490C31A9
:104BD0002068884218D100BF1C48C06C40F0020019
:104BE0001A49C8640846C06C00F00200009000BF7B
:104BF00000BF88140190032002900020039001A9B7
:104C00001448FFF7C5FC1DE00F49103120688842A9
:104C100018D100BF0D48C06C40F001000B49C864BA
:104C20000846C06C00F00100009000BF00BF88156E
:104C30000190032002900020039001A94FF09040C2
:104C4000FFF7A6FC06B010BD0003014000100240B3
:104C5000000C0048000400480146002009B901206A
:104C600014E091F83A20052A01D101200EE091F8D4
:104C70003A20012A09D10A68126842F001020B6841
:104C80001A60042281F83A2000E0012070470000F9
:104C900002468ABB4148006800F4C060B0F5806FEE
:104CA0002BD13E488030006820F480703B4BC3F825
:104CB00080001846006820F4C06040F4007018605E
:104CC0003748006832235843364BB0FBF3F0411CA1
:104CD00000E0491E3148406900F48060B0F5806F03
:104CE00001D10029F5D12D48406900F48060B0F56C
:104CF000806F51D10320704708E028488030006859
:104D000020F48070254BC3F8800045E0B2F5007FA9
:104D10003AD12248006800F4C060B0F5806F2AD113
:104D20001E488030006840F480701C4BC3F880003F
:104D30001846006820F4C06040F4007018601848FD
:104D4000006832235843174BB0FBF3F0411C00E0DE
:104D5000491E1248406900F48060B0F5806F01D1AF
:104D60000029F5D10D48406900F48060B0F5806FEE
:104D700012D10320BFE709488030006840F48070FA
:104D8000064BC3F8800007E00448006820F4C060C8
:104D900040F48060014B18600020ACE700700040D8
:104DA0005C00002040420F000348806840F48040CF
:104DB0000149886070470000007000402DE9F84309
:104DC00004460027B846206800F40020B0F5002F04
:104DD00073D1B946FD48806D00F0805078B900BFAE
:104DE000FA48806D40F08050F84988650846806D2B
:104DF00000F08050009000BF00BF4FF00109F44860
:104E0000006840F48070F2490860FFF7BFFC064676
:104E100006E0FFF7BBFC801B022801D9032705E051
:104E2000EB48006800F480700028F2D000BF002F2B
:104E300046D1E6489030006800F44075CDB1206D51
:104E4000A84216D0E1489030006820F44075DF4851
:104E5000D0F8900040F48030DC49C1F8900008465A
:104E6000D0F8900020F48030C1F890000846C0F8D7
:104E7000905005F00100A0B1FFF788FC064608E05D
:104E8000FFF784FC801B41F28831884201D9032757
:104E900006E0CE489030006800F002000028EFD015
:104EA00000BF5FB9C9489030006820F44070216DA0
:104EB0000843C649C1F8900003E00CE0B84600E0A2
:104EC000B846B9F1010F05D1C048806D20F080507F
:104ED000BE49886500BF207800F0010048B1BB489A
:104EE0008830006820F0030061680843B749C1F8C2
:104EF0008800207800F00200022809D1B3488830E9
:104F0000006820F00C00A1680843B049C1F888008F
:104F1000207800F00400042809D1AC4888300068EB
:104F200020F03000E1680843A849C1F888002078E3
:104F300000F00800082809D1A4488830006820F053
:104F4000C00021690843A149C1F88800207800F019
:104F50001000102809D19D488830006820F4407066
:104F6000616908439949C1F88800207800F0200061
:104F7000202809D195488830006820F44060A16954
:104F800008439249C1F88800207800F0400040288A
:104F900009D18E488830006820F44050E169084308
:104FA0008A49C1F88800207800F08000802809D163
:104FB00086488830006820F44040216A08438349CD
:104FC000C1F88800208800F48070B0F5807F09D196
:104FD0007E488830006820F44030616A08437B498D
:104FE000C1F88800206800F40030B0F5003F09D116
:104FF00076489C30006820F00300A16A084373499A
:10500000C1F89C00208800F40070B0F5007F09D141
:105010006E488830006820F44020E16A08436B49FC
:10502000C1F88800208800F48060B0F5806F13D14B
:1050300066488830006820F44010216B08436349BB
:1050400088310860206BB0F5801F05D15F48C068CB
:1050500040F480105D49C860208800F40060B0F51D
:10506000006F13D159488830006820F44000616B0C
:105070000843564988310860606BB0F5800F05D150
:105080005248C06840F480105049C860208800F43D
:105090008050B0F5805F13D14C488830006820F014
:1050A0004070A16B0843494988310860A06BB0F19A
:1050B000807F05D14548C06840F480104349C860EE
:1050C000208800F40050B0F5005F13D13F488830CD
:1050D000006820F04060E16B08433C49883108607B
:1050E000E06BB0F1006F05D13848C06840F4801023
:1050F0003649C860208800F48040B0F5804F13D155
:1051000032488830006820F04060216C08432F4905
:1051100088310860206CB0F1006F05D12B48C06861
:1051200040F480102949C860208800F40040B0F5A0
:10513000004F13D125488830006820F04050616C42
:105140000843224988310860606CB0F1805F05D166
:105150001E48C06840F480301C49C860206800F4D4
:105160008030B0F5803F13D118488830006820F0B7
:105170004040A16C0843154988310860A06CB0F12B
:10518000804F05D11148C06840F480300F49C86095
:10519000206800F48020B0F5802F13D10B489C309C
:1051A000006820F44010E16C084308499C31086015
:1051B000E06CB0F5001F05D10448C06840F48010D1
:1051C0000249C8604046BDE8F88300000010024074
:1051D000007000402DE9F04104460D464FF00008F4
:1051E00014B90120BDE8F0817D48006800F00F008F
:1051F000A8420ED27A48006820F00F002843784970
:1052000008600846006800F00F00A84201D00120A5
:10521000E8E7207800F00100002864D060680328E7
:1052200023D17048006800F0007008B90120D9E768
:1052300003F060FB06466C48864237D969488068AF
:1052400000F0F00030B1207800F0020002282DD1EB
:10525000A06858BB6348806820F0F00040F08000F0
:10526000604988604FF0800820E06068022806D11D
:105270005C48006800F4003040B90120B2E75948AA
:10528000006800F4806008B90120ABE700F000F985
:1052900006465548864209D95248806820F0F000F9
:1052A00040F080004F4988604FF080084D4880688A
:1052B00020F00300616808434A498860FFF766FAF6
:1052C000074608E0FFF762FAC01B41F288318842C6
:1052D00001D9032086E74348806800F00C0061682C
:1052E000B0EB810FEED1207800F00200022820D12F
:1052F000207800F00400042805D13A48806840F482
:10530000E06038498860207800F00800082807D15C
:105310003448806820F4605040F4E060314988608F
:105320003048806820F0F000A16808432D4988606B
:1053300008E0B8F1800F05D12A48806820F0F0001D
:10534000284988602648006800F00F00A84219D953
:105350002348006820F00F00284321490860FFF728
:1053600015FA074608E0FFF711FAC01B41F2883131
:10537000884201D9032035E71948006800F00F0082
:10538000A842F0D1207800F00400042807D1154885
:10539000806820F4E060E168084312498860207862
:1053A00000F00800082808D10E48806820F46050FA
:1053B000216940EAC1000B49886000F069F8094999
:1053C0008968C1F30311094A515C01F01F01C8400B
:1053D0000749086007480068FFF7FAF902E700008C
:1053E000002002400010024000B4C404BCDC0008ED
:1053F0005C000020540000200F2202600D4A9268D9
:1054000002F0030242600B4A926802F0F0028260EE
:10541000084A926802F4E062C260064A926802F4A6
:105420006052D2080261044A126802F00F020A6058
:105430007047000000100240002002400148006850
:10544000704700005C00002000B5FFF7F7FF05493A
:105450008968C1F30221044A515C01F01F01C84070
:1054600000BD000000100240CCDC000800B5FFF7D2
:10547000E5FF05498968C1F3C221044A515C01F086
:105480001F01C84000BD000000100240CCDC000835
:1054900070B5224DAD6805F00C05042D01D12048F2
:1054A0003AE01E4DAD6805F00C05082D01D11D48F0
:1054B00032E01A4DAD6805F00C050C2D2BD1174DBF
:1054C000ED6805F00304154DED68C5F303156A1C7E
:1054D000022C0CD0032C09D1124DB5FBF2F50F4E66
:1054E000F668C6F3062605FB06F10AE000BF0C4D80
:1054F000B5FBF2F5094EF668C6F3062605FB06F184
:1055000000BF00BF054DED68C5F341656D1C6B0024
:10551000B1FBF3F000E0002070BD0000001002407D
:105520000024F40000127A002DE9F843044614B96F
:105530000120BDE8F883207800F00100002865D044
:10554000FC48806800F00C07FA48C06800F00306C9
:105550000C2F01D1032E01D0082F0AD1F548006885
:1055600000F40030002851D0606800284ED101209E
:10557000DFE700BF6068B0F5803F06D1ED48006806
:1055800040F48030EB4908601AE06068B0F5A02F65
:105590000BD1E848006840F48020E64908600846DE
:1055A000006840F4803008600AE0E248006820F4B7
:1055B0008030E04908600846006820F480200860D8
:1055C00000BF606888B1FFF7E1F8054606E0FFF725
:1055D000DDF8401B642801D90320AAE7D5480068FC
:1055E00000F400300028F2D010E0FFF7CFF80546B5
:1055F00006E0FFF7CBF8401B642801D9032098E7A9
:10560000CC48006800F400300028F2D1207800F087
:105610000200022860D1C748806800F00C07C54826
:10562000C06800F003060C2F01D1022E01D0042F18
:1056300018D1C048006800F4806018B1E06808B96B
:10564000012076E7BB48406820F0FE40217C40EA1C
:105650000160B8494860B8480068FFF7B9F818B366
:10566000012066E7E06800B3B248006840F480704B
:10567000B0490860FFF78AF8054606E0FFF786F8AC
:10568000401B022801D9032053E7AA48006800F410
:1056900080600028F2D0A748406820F0FE40217CBE
:1056A00040EA0160A349486016E0A248006820F47F
:1056B0008070A0490860FFF769F8054606E0FFF72B
:1056C00065F8401B022801D9032032E79948006899
:1056D00000F480600028F2D1207800F0080008284B
:1056E00036D16069D0B193489430006840F0010031
:1056F0009049C1F89400FFF749F8054606E0FFF726
:1057000045F8401B022801D9032012E7894894304C
:10571000006800F002000028F1D019E085489430BC
:10572000006820F001008349C1F89400FFF72EF8CB
:10573000054606E0FFF72AF8401B022801D903209E
:10574000F7E67C489430006800F002000028F1D1B0
:10575000207800F00400042872D14FF0000875484A
:10576000806D012121EA107078B100BF7148806D11
:1057700040F080506F4988650846806D00F0805089
:10578000009000BF00BF4FF001086C48006800F4B3
:105790008070B0B96948006840F48070674908605B
:1057A000FEF7F4FF054606E0FEF7F0FF401B022877
:1057B00001D90320BDE66148006800F4807000282C
:1057C000F2D000BFA068012808D15A489030006884
:1057D00040F001005749C1F8900021E0A068052879
:1057E0000FD154489030006840F004005149C1F88E
:1057F00090000846D0F8900040F00100C1F89000F9
:105800000EE04C489030006820F001004949C1F892
:1058100090000846D0F8900020F00400C1F89000F5
:1058200000BFA068A8B1FEF7B1FF054609E0FEF78A
:10583000ADFF401B41F28831884202D9032078E64F
:1058400025E03C489030006800F002000028EED0CF
:1058500013E0FEF79BFF054608E0FEF797FF401BAD
:1058600041F28831884201D9032062E63148903004
:10587000006800F002000028EFD1B8F1010F05D157
:105880002C48806D20F080502A49886500BF207820
:1058900000F02000202836D1A069D0B125489830EA
:1058A000006840F001002349C1F89800FEF76EFF40
:1058B000054606E0FEF76AFF401B022801D90320D7
:1058C00037E61C489830006800F002000028F1D04C
:1058D00019E018489830006820F001001549C1F817
:1058E0009800FEF753FF054606E0FEF74FFF401B0A
:1058F000022801D903201CE60E489830006800F009
:1059000002000028F1D1E069002860D009488068D1
:1059100000F00C000C287AD0E069022858D1054824
:10592000006820F0807003490860FEF72FFF0546ED
:105930000DE0000000100240540000200070004004
:10594000FEF724FF401B022801D90320F1E54A4855
:10595000006800F000700028F2D1D4E90810401E61
:1059600041EA0011A06A41EA0021208E0122C2EB27
:10597000500041EA40513420005DC2EB500041EA42
:1059800040612C20005D41EAC0603B49C9683B4A48
:10599000114008433849C8600846006840F08070EC
:1059A00008600846C06840F08070C860FEF7EEFEF0
:1059B000054606E0FEF7EAFE401B022801D9032057
:1059C000B7E52D48006800F000700028F2D051E0E3
:1059D0002948006820F0807027490860FEF7D6FE4D
:1059E000054606E0FEF7D2FE401B022801D903203F
:1059F0009FE52148006800F000700028F2D11E48A1
:105A0000C0681F4908401C49C86033E0FFE7E069EF
:105A1000012800D18DE51848C66806F00301206A08
:105A2000814225D106F0F001606A401EB1EB001FF3
:105A30001ED106F4FE41A06AB1EB002F18D106F08A
:105A400078412C20005DB1EBC06F11D106F4C0018C
:105A5000208E0122C2EB5000B1EB405F08D106F06E
:105A6000C0613420005DC2EB5000B1EB406F01D04B
:105A700001205EE500205CE5001002400C809F01E3
:105A8000FCFFEEFE2DE9F04104460D4616461F468A
:105A900014B90120BDE8F081D4F8880028B90020AD
:105AA00084F88400204601F03BFC2420C4F88800E0
:105AB0002068006820F0010021680860A06A10B129
:105AC000204604F05DFB204604F062FD012800D171
:105AD000E0E72068806840F48040216888602068A2
