:020000040800F2
:10000000C0D4002039030008F15500089D490008BC
:10001000ED550008510B00084D6600080000000077
:10002000000000000000000000000000790200084D
:100030002B0D000800000000D5020008E55800085C
:100040005303000853030008530300085303000838
:100050005303000853030008530300085303000828
:10006000530300085303000853030008550B00080E
:10007000650B0008530300085303000853030008EE
:1000800053030008530300085303000853030008F8
:1000900053030008530300085303000853030008E8
:1000A00053030008530300085303000853030008D8
:1000B00053030008530300085303000853030008C8
:1000C00053030008530300085303000853030008B8
:1000D00053030008530300085303000853030008A8
:1000E0005303000853030008530300085303000898
:1000F0005303000853030008530300085303000888
:100100005303000853030008530300085303000877
:1001100053030008530300087959000853030008EB
:100120005303000853030008530300085303000857
:100130005303000853030008530300085303000847
:100140005303000853030008530300085303000837
:100150005303000853030008530300085303000827
:100160005303000853030008530300085303000817
:100170005303000853030008530300085303000807
:1001800053030008530300085303000853030008F7
:100190005303000800000000530300085303000845
:1001A00053030008530300085303000853030008D7
:1001B00053030008530300085303000853030008C7
:1001C00053030008530300085303000853030008B7
:1001D000530300085303000800F002F800F03CF855
:1001E0000AA090E8000C82448344AAF10107DA4592
:1001F00001D100F031F8AFF2090EBAE80F0013F0A8
:10020000010F18BFFB1A43F001031847688700006D
:1002100088870000103A24BF78C878C1FAD85207FE
:1002200024BF30C830C144BF04680C607047000070
:100230000023002400250026103A28BF78C1FBD8EF
:10024000520728BF30C148BF0B6070471FB508F088
:100250002DFB1FBD10B510BD00F0D0F91146FFF702
:10026000F5FF06F015FA00F0EEF903B4FFF7F2FF20
:1002700003BC00F0F5F900002C4B19680868B0E8E1
:10028000F04F80F30988BFF36F8F4FF0000080F3C9
:10029000118870470000000008480068006880F37B
:1002A00008884FF0000080F3148862B661B6BFF38F
:1002B0004F8FBFF36F8F00DF00BF00BF08ED00E07E
:1002C000DFF80C00016841F470010160704700BF65
:1002D00088ED00E0EFF30980BFF36F8F134B1A68CE
:1002E0001EF0100F08BF20ED108A20E9F04F1060BB
:1002F00009B44FF0500080F31188BFF34F8FBFF364
:100300006F8F07F07BFB4FF0000080F3118809BC72
:1003100019680868B0E8F04F1EF0100F08BFB0EC85
:10032000108A80F30988BFF36F8F70472400002084
:10033000EFF30580704700000948804709480047EF
:10034000FEE7FEE7FEE7FEE7FEE7FEE7FEE7FEE785
:10035000FEE7FEE704480549054A064B70470000E2
:1003600065590008D9010008C0340020C0D400201D
:10037000C0540020C054002053EA020C00F06980F1
:100380002DE9F04B4FF00006002B1FBFB3FA83F5A9
:1003900003FA05F424FA05F65E4012BF1643B2FADA
:1003A00082F502FA05F4C5F120051EBF22FA05FC0C
:1003B00044EA0C04203556EA044C4FEA144418BFB2
:1003C000641C4FF000084FF00009904271EB030CE1
:1003D00039D3002919BFB1FA81F701FA07F6B0FA4B
:1003E00080F700FA07F6C7F120071EBF20FA07FCC6
:1003F00046EA0C062037B6FBF4FCA7EB0507103FD6
:1004000007F01F0BCBF120060CFA0BFB2CFA06F6BB
:1004100044BFB3460026202FA4BF5E464FF0000B1A
:100420005BEA060C08BF4FF0010B19EB0B09ABFBA5
:10043000027C48EB0608C01B06FB02CC0BFB03CC7E
:1004400071EB0C01C1E70B46024641464846BDE848
:10045000F08B13B54FF000004FF00001AFF30080B8
:10046000BDE81C407047032A40F2308010F0030CB6
:1004700000F0158011F8013BBCF1020F624498BFF7
:1004800011F801CB00F8013B38BF11F8013BA2F194
:10049000040298BF00F801CB38BF00F8013B11F00F
:1004A000030300F05780083AC0F0088051F8043B7D
:1004B000083A51F804CBA0E80810F5E7121D5CBF1C
:1004C00051F8043B40F8043BAFF30080D20724BF4F
:1004D00011F8013B11F801CB48BF11F8012B24BFE3
:1004E00000F8013B00F801CB48BF00F8012B704732
:1004F00002F0FF0343EA032242EA024200F05EB840
:100500004FF0000200B5134694469646203922BFAC
:10051000A0E80C50A0E80C50B1F12001BFF4F7AFF7
:10052000090728BFA0E80C5048BF0CC05DF804EBD9
:10053000890028BF40F8042B08BF704748BF20F847
:10054000022B11F0804F18BF00F8012B7047704745
:100550007047704710B5203AC0F00B80B1E81850D2
:10056000203AA0E81850B1E81850A0E81850BFF49D
:10057000F5AF5FEA027C24BFB1E81850A0E818503C
:1005800044BF18C918C0BDE810405FEA827C24BF90
:1005900051F8043B40F8043B08BF7047D20728BF1E
:1005A00031F8023B48BF11F8012B28BF20F8023B6D
:1005B00048BF00F8012B70474FF000020429C0F03B
:1005C000128010F0030C3FF49DAFCCF1040CBCF191
:1005D000020F18BF00F8012BA8BF20F8022BA1EBD7
:1005E0000C01FFF78FBF5FEAC17C24BF00F8012B2D
:1005F00000F8012B48BF00F8012B7047754600F04A
:100600002BF8AE4605006946534620F007008546A4
:1006100018B020B5FFF79EFEBDE820404FF0000661
:100620004FF000074FF000084FF0000B21F00701DA
:10063000AC46ACE8C009ACE8C009ACE8C009ACE81D
:10064000C0098D46704710B50446AFF300802046C0
:10065000BDE81040FFF709BE004870475C34002039
:1006600001491820ABBEFEE72600020070470000DB
:1006700070B5022000F0C6FA04461548047044F034
:1006800001001449087008460178022000F03EFB82
:1006900005460DB1284670BD052006F05DF8022024
:1006A00000F0B0FA0C49087004F0FE01022000F0DE
:1006B0002DFB05460DB12846EDE7052006F04CF868
:1006C000022000F09FFA054908700020E3E70000CF
:1006D000C6000020C7000020C8000020C90000207C
:1006E00070B5032000F08EFA04460B48047004F045
:1006F000DF042146032000F009FB05460DB1284622
:1007000070BD052006F028F8032000F07BFA0349AD
:1007100008700020F4E70000CA000020CB00002091
:1007200010B5002409E0204600F06CFA0449085591
:10073000012006F011F8601CC4B2082CF3D310BDE0
:10074000B200002010B52DED028BB0EE408A0D48AE
:100750000068C46A9FED0C1ADFED0C0AB0EE480A7F
:1007600000F044F8B0EE408A601C00EE100AB8EECB
:10077000400A20EE080ABCEEC00A10EE100ABDECDA
:10078000028B10BD380400203333733F000000009B
:1007900010B501221021104801F034FD0022012182
:1007A0000E4801F02FFD00224FF400710B4801F0BC
:1007B00029FD04210A4803F093FE002000F082F88E
:1007C0000021084801F0D8FA4FF47A7000F080F860
:1007D000054801F083FF10BD000C004800100048E0
:1007E000380400200802002080020020F0EE401AA9
:1007F000F4EEC11AF1EE10FA02DDB0EE410A7047D4
:10080000F4EEE01AF1EE10FA02D2B0EE600AF6E76A
:10081000B0EE610AF3E7000010B5002000F0F2F935
:1008200007490870012000F0EDF9064908700448F6
:10083000007820B100F074F901200349087010BD60
:10084000C4000020C5000020A700002010B52DED39
:10085000028BB0EE408AB6EE001AFEEE000AB0EE51
:10086000480AFFF7C3FFB0EE408AB5EEC08AF1EE4A
:1008700010FA0CDD01221146114801F0C3FCB0EE64
:10088000480AFFF75FFF044600F01CF814E0B5EEDD
:10089000C08AF1EE10FA0CD200220121084801F0C2
:1008A000B1FCB1EE480AFFF74DFF044600F00AF82C
:1008B00002E0002000F006F8BDEC028B10BD000045
:1008C0000010004801490968886370473804002017
:1008D00070B5044640F6E440844200D90446C4EBB7
:1008E000043040F6E441B0FBF1F52B4600221146FE
:1008F000014801F01DFA70BD0802002070B52DED11
:10090000028BB0EE408A0546B6EE001AFEEE000AF3
:10091000B0EE480AFFF76AFFB0EE408A0A202D4980
:10092000087000F069F804462CB12B48047020468A
:10093000BDEC028B70BD2948007818B10120264912
:100940000870F5E70B20234908702846FFF7C0FF21
:10095000B0EE480AFFF77AFF142005F0FDFE0020F4
:1009600000F050F91E490870012000F04BF91D49B4
:100970000870B42005F0F0FE002000F043F91A4999
:100980000870012000F03EF9184908704FF44870D3
:1009900005F0E2FE002000F035F91549087001204D
:1009A00000F030F913490870FFF7BAFE0E480078DE
:1009B00010B90F48007828B100F0B2F801200649BC
:1009C0000870B5E70C200349087000200249087040
:1009D00000BFADE7A8000020A7000020BC00002059
:1009E000BE000020BF000020C0000020C100002089
:1009F000C2000020C300002070B501203E490870ED
:100A0000FFF7C6FE322005F0A7FE4FF47A70FFF71D
:100A10005FFF9FED3A0AFFF719FF012251023848A4
:100A200001F0F0FB142005F097FE042000F0EAF836
:100A300034490870032000F0E5F8324908700220BC
:100A400000F0E0F82F4908701821022000F05EF94C
:100A5000142005F081FE022000F0D4F82949087026
:100A6000142005F079FE002000F0CCF805460120A6
:100A700000F0C8F80646C721032000F047F914200B
:100A800005F06AFE032000F0BDF81E490870002042
:100A900000F0B8F81C490870012000F0B3F81B49B9
:100AA0000870042000F0AEF819490870FFF718FE2E
:100AB00004460CB1204670BDFFF7DAFD04460CB1C8
:100AC0002046F8E7142005F047FE002000F09AF8D1
:100AD00010490870012000F095F80F4908700420B3
:100AE00000F090F80D490870FFF71AFE0220024945
:100AF00008700020DFE70000A800002000000000D0
:100B000000100048CB000020BA000020BB000020ED
:100B1000CC000020BC000020BD000020CD00002043
:100B200010B59FED080AFFF791FE052005F014FEB1
:100B300000224FF40071044801F064FB6320034974
:100B4000087010BD0000000000100048A800002040
:100B500000BFFEE710B5024801F060F910BD0000CB
:100B6000A801002010B5024801F058F910BD00009E
:100B7000DC06002030B50E4D0468AC4201D20D49B0
:100B800001E00C4920310B460478083C1425B4FBE5
:100B9000F5F2446CA40803EB84048464054C8034AF
:100BA000C46402F01F050124AC40046530BD0000A0
:100BB000080402400008024001794A1E064B03EB7C
:100BC00082024265044A403282654A1E02F01F03D7
:100BD00001229A40C26570470009024010B5012207
:100BE0001021024801F00EFB10BD0000000C00486F
:100BF00010B500221021024801F004FB10BD0000D6
:100C0000000C004838B50446FF2000906946204695
:100C100000F003F89DF8000038BDF8B507460C4613
:100C2000002000900CB90320F8BD07F00F004FF42E
:100C3000004141EAC0256946284600F00BF8064607
:100C40001EB1FF2020703046EEE7BDF80000207096
:100C50000020E9E7FEB504460D460DB90320FEBDB0
:100C6000200A8DF80800E0B28DF8090000208DF808
:100C700004008DF805009DF808001C4908709DF8D7
:100C800009001B4908701B480480FFF7B1FF0120D1
:100C900005F062FD0A20022301AA02A9009016486D
:100CA00002F06AFD0646FFF799FF012005F054FDAA
:100CB0009DF80400114908709DF80500104908705E
:100CC0009DF805009DF8041040EA01200D490880B8
:100CD0001EB104200C490870C1E70A48008828802A
:100CE00000200949087000BFB9E70000A9000020F2
:100CF000AA000020AE00002070030020AB000020FE
:100D0000AC000020B0000020A6000020F8B504468A
:100D10000D460020009004F00F0045EAC02086B286
:100D200069463046FFF796FFF8BD704772B600BFC0
:100D3000FEE700002DE9F0439BB004460E464FF05D
:100D40000008306800B100BF00BF94F858000128C7
:100D500003D102201BB0BDE8F083012084F85800C5
:100D600000BF0020179018902068B0F1A04F02D16A
:100D70005848009008E058492068884202D15748F6
:100D8000009001E000200090009850B9E06D40F024
:100D90002000E06500BF002084F8580000BF01205B
:100DA000D8E7009803F023FE0746206803F01FFEF3
:100DB00000287DD1002F7FD12068B0F1A04F03D053
:100DC00044492068884201D1454800E0454805462D
:100DD0003068D8B394F83800716841EA4030A968A7
:100DE00021F460410843A8602068B0F1A04F03D00F
:100DF00038492068884201D1394800E039483849EB
:100E000088420AD14FF0A04003F0E2FD814631480C
:100E100003F0DEFD49EA00000DE02F4803F0D8FDA5
:100E200081462E4803F0D4FD49EA00092E4803F01C
:100E3000CFFD49EA0000E0BBB16830680843A9680B
:100E400040F61F7291430843A8603BE0FFE7A868A3
:100E500020F46040A8602068B0F1A04F03D01D4985
:100E60002068884201D11E4800E01E481C49884283
:100E70000AD14FF0A04003F0ABFD8146154803F0C6
:100E8000A7FD49EA00000DE0134803F0A1FD8146EB
:100E9000124803F09DFD49EA0009134803F098FD4C
:100EA00049EA000028B9A86840F61F71884301E0AC
:100EB00002E007E0A86005E0E06D40F02000E0659A
:100EC0004FF0010800BF002084F8580000BF4046E2
:100ED00040E70000000100500004005000050050F1
:100EE0000003005000070050000600502DE9F84FA5
:100EF00005460C464FF0000A00200090FE49E068CD
:100F0000884200D000E000BF00BF95F858000128DB
:100F100002D10220BDE8F88F012085F8580000BFFB
:100F2000286803F05FFD00287DD12968D4E90020FE
:100F300001F1300CC0F3012B0CEB8B03D3F800C094
:100F400000F01F0E4FF01F0B0BFA0EFB2CEA0B0CE0
:100F500000F01F0BC2F3846E0EFA0BFE4CEA0E0C6F
:100F6000C3F800C000BF286803F03CFD8146286834
:100F700003F024FD8046B9F1000F64D1B8F1000FF1
:100F8000FBD1A068B0F1004F0AD121680022286887
:100F900003F032FD4FF00041286803F052FD08E0F5
:100FA000A2682168286803F027FD0021286803F063
:100FB00048FD60692968C968C1F3C101490000FAA8
:100FC00001F7206904283FD028682268216900F1D0
:100FD000600C0CEB8103D3F800C0DFF820B30CEAFF
:100FE0000B0C02F0F84B4BF0004B4BEA070B4CEAB2
:100FF0000B0CC3F800C000BF2868A269216900F18A
:10100000600C0CEB8103D3F800C02CF0807C4CEA20
:10101000020CC3F800C000BF2868227F2169012AA2
:1010200002D1520601E0F6E10022134600F1600C05
:101030000CEB8102D2F800C02CF0007C4CEA030CCF
:10104000C2F800C000BFA7E00021286803F0ADFC93
:10105000C0F3120030B90021286803F0A6FCC0F3E9
:10106000846007E00021286803F09FFC90FAA0F05C
:10107000B0FA80F02168C1F3120119B92168C1F3F7
:10108000846104E0216891FAA1F1B1FA81F188420A
:1010900004D100221146286803F0C8FC0121286809
:1010A00003F083FCC0F3120030B90121286803F07B
:1010B0007CFCC0F3846007E00121286803F075FC24
:1010C00090FAA0F0B0FA80F02168C1F3120119B9CA
:1010D0002168C1F3846104E0216891FAA1F1B1FAB9
:1010E00081F1884204D100220121286803F09EFC8E
:1010F0000221286803F059FCC0F3120030B9022124
:10110000286803F052FCC0F3846007E002212868DD
:1011100003F04BFC90FAA0F0B0FA80F02168C1F324
:10112000120119B92168C1F3846104E0216891FAC0
:10113000A1F1B1FA81F1884204D10022022128688C
:1011400003F074FC0321286803F02FFCC0F31200A5
:1011500030B90321286803F028FCC0F3846007E05D
:101160000321286803F021FC90FAA0F0B0FA80F087
:101170002168C1F3120119B92168C1F3846104E047
:10118000216891FAA1F1B1FA81F1884204D10022DB
:101190000321286803F04AFC286803F014FC0028A7
:1011A00070D12868E2682168D0F8B0C0C1F312039A
:1011B0002CEA030C02F0180B514B23FA0BF30B40F3
:1011C0004CEA030CC0F8B0C000BF4B49E06888424D
:1011D00058D12368C3F312031BB92368C3F3846394
:1011E00004E0236893FAA3F3B3FA83F35B1C03F0E0
:1011F0001F03092B3ED82368C3F312031BB92368CE
:10120000C3F3846304E0236893FAA3F3B3FA83F38C
:101210005B1C03F01F034FF0010C0CFA03FC236866
:10122000C3F312031BB92368C3F3846304E0236888
:1012300093FAA3F3B3FA83F35B1C03F01F034CEAA6
:10124000836C2368C3F312031BB92368C3F384635D
:1012500004E0236893FAA3F3B3FA83F35B1C03F06F
:101260001F0303EB43034FF0000B4BEA03534CEA1D
:1012700003033FE02368C3F3120323B92368C3F3D6
:10128000846305E042E0236893FAA3F3B3FA83F39F
:101290005B1C03F01F034FF0010C0CFA03FC2368E6
:1012A000C3F312031BB92368C3F3846304E0236808
:1012B00093FAA3F3B3FA83F35B1C03F01F034CEA26
:1012C000836C2368C3F312031BB92368C3F38463DD
:1012D00004E0236893FAA3F3B3FA83F35B1C03F0EF
:1012E0001F030A3B03EB43034FF0007B4BEA03531E
:1012F0004CEA0303194605E000007F4000F0FF03BD
:10130000FFFF0700A268286803F076FB48492068C1
:101310000840002842D02968B1F1A04F03D0454AC7
:101320002968914201D1444900E04449084603F04C
:1013300037FB064642492068884203D0414920686D
:1013400088422CD106F4000048BB2868B0F1A04FB9
:1013500003D03D492868884263D12A68B2F1A04F82
:1013600003D0344B2A689A4201D1334A00E0334A11
:10137000104646F4000103F053FB3448006834493A
:10138000B0FBF1F0401C00EB40008000009002E058
:101390000098401E009000980028F9D141E02D49A6
:1013A000206888421BD106F08070C0B921492868A6
:1013B000884203D128492868884232D02A68B2F18D
:1013C000A04F03D01B4B2A689A4201D11A4A00E071
:1013D0001A4A104646F0807103F022FB21E01F49B3
:1013E000206888421DD106F48000D0B911492868D0
:1013F000884216D02A68B2F1A04F03D00B462A6863
:101400009A4201D10C4A00E00C4A104646F4800191
:1014100003F006FB05E0E86D40F02000E8654FF0C2
:10142000010A00BF002085F8580000BF504671E552
:101430000000088000010050000300500007005029
:10144000000021C31000C0900006005020000020C2
:10145000400D0300000052C700050050000084CB7F
:101460002DE9F84304464FF000080020009014B91D
:101470000120BDE8F883606920B194F824000128B8
:1014800000D100BFE06D30B9204600F045F90020E2
:10149000206684F8580020688168C1F3407131B13A
:1014A00020688168914A1140816000BF00BF2068B8
:1014B00003F093FAB0B9206881688D4A114041F079
:1014C0008051816000BF8B4800688B49B0FBF1F010
:1014D000401C4000009002E00098401E00900098E0
:1014E0000028F9D1206803F078FA48B9E06D40F09F
:1014F0001000E065206E40F0010020664FF001080A
:10150000206803F06FFA0646E06D00F01000002836
:101510007ED1002EFCD1E06D20F4807040F00200FE
:10152000E065206803F04FFA88BB2068B0F1A04F57
:1015300003D072492068884201D1714800E07148A7
:101540006F4988420AD14FF0A04003F03CFA81462F
:101550006A4803F038FA49EA00000DE06A4803F0EF
:1015600032FA8146694803F02EFA49EA00096848D0
:1015700003F029FA49EA000048B92268B2F1A04F05
:1015800003D05E4B22689A4202D15D4A01E009E035
:101590005C4A10466168826822F47C120A438260C9
:1015A00000BF00BF607FE16B41EA4030E168084363
:1015B000A168084394F8241040EA014594F82400F7
:1015C000012803D1208D401E45EA4045E06A28B13C
:1015D000A08D00F47870216B084305432068C06833
:1015E0004C49084028432168C8602068006920F001
:1015F0004060616B084321680861206803F0DEF9F0
:101600000746EEBBE7BB207F002141EA803100E0C6
:1016100064E094F8380041EA40052068C06844F26C
:101620000201884328432168C860206980B120688E
:10163000006940F48030216808612068D0F8C0005B
:101640006FF30D00216908432168C1F8C0000DE067
:101650002068006920F48030216808612068D0F893
:10166000C0006FF30D002168C1F8C00094F840007D
:10167000012813D1606C40F00101A06C084300E028
:1016800012E0E16C0843216D08432168096940F2CA
:10169000FC72914308432168086105E020680069F5
:1016A00020F00100216808616069012809D12068E3
:1016B000006B20F00F00216A491E0843216808636F
:1016C00005E02068006B20F00F0021680863E06DE2
:1016D00020F0020040F00100E06505E0E06D40F020
:1016E0001000E0654FF001084046C2E6C0FFFF5F12
:1016F000C0FFFF7F20000020400D030000010050CC
:101700000003005000070050000400500005005086
:10171000000600500740F0FF10B59CB004461421AD
:1017200017A8FEF7EDFE542102A8FEF7E9FE206897
:10173000B0F1A04F6AD14FF40040029080031390A3
:1017400002A801F07DF808B1FFF7F0FA74480068CC
:10175000401C734908600846006801280DD100BF8D
:101760007048C06C40F400506E49C8640846C06CB4
:1017700000F40050019000BF00BF00BF6948C06C7A
:1017800040F004006749C8640846C06C00F00400DB
:10179000019000BF00BF00BF0846C06C40F00100D0
:1017A000C8640846C06C00F00100019000BF00BF93
:1017B00000BF0846C06C40F00200C8640846C06C18
:1017C00000F00200019000BF00BF0F20179003201F
:1017D00018900020199017A9534800F01BFC0B200B
:1017E0001790032018900020199017A94FF09040EF
:1017F00000F010FC44F60100179003201890002020
:10180000199017A9494800F005FC87E0484920686D
:101810008842FAD1C00102908003139002A801F01F
:101820000FF808B1FFF782FA3D480068401C3C49B8
:1018300008600846006801280DD100BF3948C06C17
:1018400040F400503749C8640846C06C00F40050AA
:10185000019000BF00BF00BF3248C06C40F00100E3
:101860003049C8640846C06C00F00100019000BF18
:1018700000BF00BF0846C06C40F00400C8640846C2
:10188000C06C00F00400019000BF00BF00BF08461C
:10189000C06C40F00200C8640846C06C00F0020052
:1018A000019000BF00BFA0201790032018900020D7
:1018B000199017A94FF0904000F0ACFB3020179022
:1018C000032018900020199017A9174800F0A2FBD8
:1018D00004201790032018900020199017A913488E
:1018E00000F098FB13481449086024204860002148
:1018F00011488160C1608021016149004161890016
:1019000081610021C161016200F008FB08B1FFF7AD
:101910000DFA00BF08486065846200BF1CB010BDAE
:101920001000002000100240000800480004004899
:101930000001005008000240A8010020704700008C
:101940002DE9F84F04460D4616460020009004B1DC
:1019500015B90120BDE8F88FE869012800D100BF62
:10196000A868042800D100BF00BF6079012801D118
:101970000220EFE70120607100BF02202071A868FB
:10198000042859D100F044FC8246E6B911E000F089
:101990003FFCA0EB0A0001280BD92068406B00F443
:1019A000004030B1206940F0080020610320207120
:1019B000D0E72068406B00F400400028E7D1686A57
:1019C000216808641BE011E000F022FCA0EB0A0093
:1019D00001280BD92068406B00F0004030B120692D
:1019E00040F00800206103202071B3E72068406BBD
:1019F00000F000400028E7D1686A21684864206848
:101A0000806C06F0100240F2FF319140884306F0EE
:101A10001002A96A91400843216888642068C06C5C
:101A200006F01002FF219140884306F01002E96A97
:101A3000914008432168C864E86901280FD12068F3
:101A4000876B06F010011F2088408743D5F820805F
:101A500006F0100008FA00F007432068876320684A
:101A6000C76B06F01001072088408743A86901284A
:101A700002D14FF000090CE0A869022802D14FF012
:101A8000010906E0686910B94FF0010901E04FF063
:101A900000096969A868084340EA090806F01001CE
:101AA0004FF48070884087432879012801D10002D3
:101AB00000E0002040EA080806F010014FF4007032
:101AC000884087436879012801D1400200E0002066
:101AD00040EA080827F44047286802280FD101F09F
:101AE000EFF983462C498B4502D947F4004708E0BB
:101AF0002A48834502D947F4804702E001E028687C
:101B0000074306F0100108FA01F007432068C76395
:101B10002068006806F010024FF48041914088432D
:101B2000216808602068076806F0100140F6FE7022
:101B300088408743D5F80C8006F0100108FA01F0C0
:101B40000743206807602068006806F01002C02183
:101B50009140884321680860287BC0F38308287C73
:101B6000C0F3830048EA00282068006E06F01002E7
:101B700040F60F719140884306F0100108FA01F118
:101B80000843216808660120207100BF00206071B1
:101B900000BF0098DEE600000068890900B4C404B4
:101BA000704770B50446206805682068466B05F4E8
:101BB0000050B0F5005F17D106F40050B0F5005F9B
:101BC00012D104202071206940F0010020614FF4FF
:101BD0000050216848632068006820F48050216824
:101BE00008602046FFF7DCFF05F00050B0F1005F11
:101BF00017D106F00050B0F1005F12D1042020711F
:101C0000206940F0020020614FF0005021684863D5
:101C10002068006820F08050216808602046FFF7A7
:101C20008DFE70BD10B504460CB9012010BD2079A1
:101C300020B900206071204600F008F802202071D1
:101C400000202061012020710020EFE710B586B050
:101C50000446142101A8FEF753FC3149206888424C
:101C60002ED100BF2F48C06C40F480302D49C8648D
:101C70000846C06C00F48030009000BF00BF00BF79
:101C80000846C06C40F00100C8640846C06C00F013
:101C90000100009000BF00BF1020019003200290BF
:101CA0000020039001A94FF0904000F0B3F900220A
:101CB0000F21362000F056FB362000F03FFB2CE0D1
:101CC00019492068884216D100BF1648C06C40F4FC
:101CD00080201449C8640846C06C00F4802000903D
:101CE00000BF00BF00220F21362000F03BFB362052
:101CF00000F024FB11E00D49206888420DD100BF9F
:101D00000848C06C40F400200649C8640846C06C0E
:101D100000F40020009000BF00BF06B010BD00001E
:101D20000008005000100240001000500014005045
:101D300078B50446002000900CB9012078BD2068D9
:101D4000C06B01F010064FF48075B540284000B913
:101D500000BF2068009029B902F10800009D2844C6
:101D6000009004E002F11400009D284400900098C7
:101D700003600020E2E7000018B502460AB901201E
:101D800018BD00BF5079012801D10220F8E70120D9
:101D9000507100BF022010711068006801F010043B
:101DA0000123A3401843136818601A4800681A4BAF
:101DB000B0FBF3F0401C009002E00098401E009041
:101DC00000980028F9D161B91068006800F03E0061
:101DD000022816D11068406840F00100136858606E
:101DE0000FE01068006800F4781301F0100402207E
:101DF000A040834205D11068406840F0020013689B
:101E000058600120107100BF0020507100BF00BF5A
:101E1000B6E7000020000020400D030070B5044626
:101E2000206C05682068066894F8440000F01F01E3
:101E3000042088402840E0B106F00400C8B12068C2
:101E4000006800F0200028B92068006820F0040035
:101E50002168086094F8440000F01F0104208840C5
:101E6000216C4860206B002856D02046216B8847A3
:101E700052E094F8440000F01F01022088402840FE
:101E800018B306F0020000B32068006800F02000DC
:101E900040B92068006820F00A002168086001202D
:101EA00084F8250094F8440000F01F0102208840C7
:101EB000216C486000BF002084F8240000BFE06A65
:101EC00050B32046E16A884726E094F8440000F0C9
:101ED0001F01082088402840F0B106F00800D8B162
:101EE0002068006820F00E002168086094F8440023
:101EF00000F01F0101208840216C48600120E06350
:101F000084F8250000BF002084F8240000BF606B27
:101F100010B12046616B884770BD000070B5044663
:101F20000CB9012070BD2F49206888420BD22E4980
:101F30002068401A1421B0FBF1F0800060642A4848
:101F4000083820640AE027492068401A1421B0FBB1
:101F5000F1F080006064234808382064022084F88F
:101F600025002068056847F6F0708543D4E9020132
:101F700008432169084361690843A1690843E1698D
:101F80000843216A08430543206805602046FEF7A0
:101F9000F1FDA068B0F5804F01D10020606020798C
:101FA000A16C0860D4E913104860606860B1606893
:101FB000042809D82046FEF7FFFD0020616D086067
:101FC000D4E91610486003E000206065A065E06574
:101FD0000020E063012084F82500002084F824001C
:101FE00000BF9FE7080402400800024070B50446A5
:101FF00000F00EF906462546681C10B1044800683A
:10200000054400BF00F004F9801BA842FAD370BD5C
:102010001C00002078B502460B460021CAE00126CC
:102020008E401D6805EA0604002C73D01D7905F06A
:102030000305012D04D01D7905F00305022D13D1F0
:1020400090684E000325B540A8434E00DD68B540BA
:1020500028439060506801258D40A8431D79C5F341
:1020600000158D40284350601D7905F00305032DB0
:1020700009D0D0684E000325B540A8434E009D68A6
:10208000B5402843D0601D7905F00305022D13D11A
:10209000CE0802F1200555F826004D07EE0E0F255B
:1020A000B540A8434E07F60E1D69B5402843CE083B
:1020B00002F1200545F8260010684E000325B540C2
:1020C000A8431D7905F003054E00B5402843106074
:1020D0005D6805F44035002D6BD000BF384D2D6E86
:1020E00045F00105364E356635462D6E05F0010585
:1020F000009500BF00BF4FEAB6358E0855F82600A0
:102100008D072E0F0F25B540A843B2F1904F02D195
:1021100000251AE04DE02B4DAA4201D1012514E023
:10212000294DAA4201D102250FE0284DAA4201D132
:1021300003250AE0264DAA4201D1042505E0254DDC
:10214000AA4201D1052500E006258E07360FB540CD
:102150002843214D8E0845F82600204D2868A043CD
:102160005D6805F4801505B120431C4D28602D1DC8
:102170002868A0435D6805F4001505B12043174D9C
:102180002D1D2860154D2D1F2868A0435D6805F49E
:10219000003505B12043114D2D1F28602D1F2868E3
:1021A000A0435D6805F4803505B120430B4D083D23
:1021B0002860491C1D68CD40002D7FF430AF78BDEC
:1021C000001002400004004800080048000C0048CD
:1021D00000100048001400480800014008040140B5
:1021E000024613690B400BB1012000E0002070474C
:1021F00010B5426921EA020302EA010443EA0443FA
:10220000836110BD0AB1816100E081627047000006
:10221000014800687047000014000020034800686F
:102220000349096808440149086070471400002008
:102230001C00002010B50024032000F0D1F80F206E
:1022400000F008F808B1012401E000F051F8204640
:1022500010BD0000F0B587B004460026002700BF7F
:102260001E48806D40F010001C4988650846806D4E
:1022700000F01000009000BF00BF01A902A800F00C
:10228000FDFD00F023FE06461548B6FBF0F0471EA4
:1022900014481549086040F2E7311348C1604760AF
:1022A00000210161816001F0AEFC054695B90E4840
:1022B00001F046FD05466DB9362000F03FF8102CC0
:1022C00007D200222146362000F04CF8074804606F
:1022D00000E00125284607B0F0BD000000100240D4
:1022E00040420F00001000403C0700201800002072
:1022F00008B500BF1048006E40F001000E490866A6
:102300000846006E00F00100009000BF00BF00BF53
:102310000846806D40F0805088650846806D00F06A
:102320008050009000BF00BF00220F21901E00F0DF
:1023300019F800F07BFA08BD00100240014608467B
:1023400000280DDB00BF00BF00F01F0301229A40F0
:1023500043099B0003F1E023C3F8002100BF00BF45
:1023600000BF70472DE9F05F80460D46164604F029
:102370006FF9074639462A46334601F00700C0F197
:10238000070ABAF1040F02D94FF0040A01E0C0F1C4
:10239000070AD14600F1040ABAF1070F02D24FF042
:1023A000000A01E0A0F1030AD4464FF0010A0AFA3C
:1023B00009FAAAF1010A0AEA020A0AFA0CFA4FF02B
:1023C000010B0BFA0CFBABF1010B0BEA030B4AEA16
:1023D0000B042146404604F043F9BDE8F09F00009D
:1023E00000BF00F00702064B19684FF6FF031940C3
:1023F000044B0B4343EA0221014B196000BF7047B5
:102400000CED00E00000FA0538B5044600250CB9D3
:10241000012038BD94F83A00052801D10120F8E7E1
:1024200094F83A00022801D10120F2E7A06800B92F
:1024300000BFA06900B100BFA068402800D100BF64
:10244000E06A102800D100BF00BF4248006E40F093
:102450000100404908660846006E00F00100009047
:1024600000BF00BF94F83A0010B9002084F839008A
:10247000204600F073F8A068402802D0A0686028C9
:1024800026D12068006820F01000E16A0843216826
:102490000860D4E90101084321690843217D01292D
:1024A00001D1090200E000210843616A0843A16AE2
:1024B0000843218E40EAC14194F8340041EA0060AB
:1024C00021680968244A114008432168086027E010
:1024D0002068006820F01000E16A08432168086065
:1024E000D4E901010843E168084321690843217DDB
:1024F000012901D1090200E000210843616A084373
:10250000A16A0843218E40EAC14194F8340041EAAF
:10251000006021680968104A11400843216808607A
:102520002068806900F0004058B9D4E906010843EA
:10253000216A08432168896921F03F010843216825
:10254000886194F83A0010B9012084F83A002846CE
:102550005FE7000000100240113E00E010B586B0B9
:102560000446142101A8FDF7CBFF58492068884292
:1025700019D100BF5648C06C40F001005449C864EE
:102580000846C06C00F00100009000BF00BF0420AE
:102590000190032002900020039001A94FF0904089
:1025A000FFF738FD90E04949091D2068884231D184
:1025B00000BF4748C06C40F001004549C864084668
:1025C000C06C00F00100009000BF00BF00BF0846D3
:1025D000C06C40F00800C8640846C06C00F00800F9
:1025E000009000BF00BF4020019003200290002017
:1025F000039001A94FF09040FFF70CFD4FF480408D
:102600000190032002900020039001A93148FFF7B8
:1026100001FD59E02D4908312068884218D100BFDA
:102620002B48C06C40F002002949C8640846C06CC1
:1026300000F00200009000BF00BF022001900320C4
:1026400002900020039001A92348FFF7E3FC3BE040
:102650001E490C312068884218D100BF1C48C06C4C
:1026600040F002001A49C8640846C06C00F002003D
:10267000009000BF00BF881401900320029000204A
:10268000039001A91448FFF7C5FC1DE00F49103164
:102690002068884218D100BF0D48C06C40F001008E
:1026A0000B49C8640846C06C00F00100009000BFF0
:1026B00000BF88150190032002900020039001A91B
:1026C0004FF09040FFF7A6FC06B010BD000301409C
:1026D00000100240000C00480004004801460020A1
:1026E00009B9012014E091F83A20052A01D101200E
:1026F0000EE091F83A20012A09D10A68126842F0E6
:1027000001020B681A60042281F83A2000E00120DF
:102710007047000002468ABB4148006800F4C06070
:10272000B0F5806F2BD13E488030006820F4807077
:102730003B4BC3F880001846006820F4C06040F4AA
:10274000007018603748006832235843364BB0FB9E
:10275000F3F0411C00E0491E3148406900F48060FC
:10276000B0F5806F01D10029F5D12D48406900F402
:102770008060B0F5806F51D10320704708E0284891
:102780008030006820F48070254BC3F8800045E05D
:10279000B2F5007F3AD12248006800F4C060B0F57D
:1027A000806F2AD11E488030006840F480701C4B36
:1027B000C3F880001846006820F4C06040F4007040
:1027C00018601848006832235843174BB0FBF3F0E9
:1027D000411C00E0491E1248406900F48060B0F5D9
:1027E000806F01D10029F5D10D48406900F4806067
:1027F000B0F5806F12D10320BFE709488030006830
:1028000040F48070064BC3F8800007E0044800687D
:1028100020F4C06040F48060014B18600020ACE7F9
:10282000007000402000002040420F0003488068F4
:1028300040F480400149886070470000007000400B
:102840002DE9F84304460027B846206800F400202C
:10285000B0F5002F73D1B946FD48806D00F080506F
:1028600078B900BFFA48806D40F08050F84988651B
:102870000846806D00F08050009000BF00BF4FF010
:102880000109F448006840F48070F2490860FFF7DD
:10289000BFFC064606E0FFF7BBFC801B022801D9FF
:1028A000032705E0EB48006800F480700028F2D0B0
:1028B00000BF002F46D1E6489030006800F4407514
:1028C000CDB1206DA84216D0E1489030006820F4C8
:1028D0004075DF48D0F8900040F48030DC49C1F802
:1028E00090000846D0F8900020F48030C1F89000A5
:1028F0000846C0F8905005F00100A0B1FFF788FC31
:10290000064608E0FFF784FC801B41F288318842CC
:1029100001D9032706E0CE489030006800F002009D
:102920000028EFD000BF5FB9C9489030006820F49C
:102930004070216D0843C649C1F8900003E00CE0E7
:10294000B84600E0B846B9F1010F05D1C048806D26
:1029500020F08050BE49886500BF207800F001005B
:1029600048B1BB488830006820F003006168084324
:10297000B749C1F88800207800F00200022809D188
:10298000B3488830006820F00C00A1680843B049C3
:10299000C1F88800207800F00400042809D1AC4870
:1029A0008830006820F03000E1680843A849C1F889
:1029B0008800207800F00800082809D1A448883051
:1029C000006820F0C00021690843A149C1F88800CF
:1029D000207800F01000102809D19D488830006848
:1029E00020F44070616908439949C1F88800207853
:1029F00000F02000202809D195488830006820F494
:102A00004060A16908439249C1F88800207800F02D
:102A10004000402809D18E488830006820F440509A
:102A2000E16908438A49C1F88800207800F08000F5
:102A3000802809D186488830006820F44040216A07
:102A400008438349C1F88800208800F48070B0F5FD
:102A5000807F09D17E488830006820F44030616A68
:102A600008437B49C1F88800206800F40030B0F5C5
:102A7000003F09D176489C30006820F00300A16A2D
:102A800008437349C1F89C00208800F40070B0F539
:102A9000007F09D16E488830006820F44020E16A48
:102AA00008436B49C1F88800208800F48060B0F5C5
:102AB000806F13D166488830006820F44010216B85
:102AC0000843634988310860206BB0F5801F05D149
:102AD0005F48C06840F480105D49C860208800F4F9
:102AE0000060B0F5006F13D159488830006820F4B9
:102AF0004000616B0843564988310860606BB0F54F
:102B0000800F05D15248C06840F480105049C86019
:102B1000208800F48050B0F5805F13D14C48883095
:102B2000006820F04070A16B084349498831086073
:102B3000A06BB0F1807F05D14548C06840F480109B
:102B40004349C860208800F40050B0F5005F13D1FD
:102B50003F488830006820F04060E16B08433C4902
:102B600088310860E06BB0F1006F05D13848C0686B
:102B700040F480103649C860208800F48040B0F5E9
:102B8000804F13D132488830006820F04060216CBB
:102B900008432F4988310860206CB0F1006F05D1DF
:102BA0002B48C06840F480102949C860208800F490
:102BB0000040B0F5004F13D125488830006820F060
:102BC0004050616C0843224988310860606CB0F164
:102BD000805F05D11E48C06840F480301C49C86041
:102BE000206800F48030B0F5803F13D11848883059
:102BF000006820F04040A16C084315498831086006
:102C0000A06CB0F1804F05D11148C06840F480300D
:102C10000F49C860206800F48020B0F5802F13D1E0
:102C20000B489C30006820F44010E16C08430849D0
:102C30009C310860E06CB0F5001F05D10448C06805
:102C400040F480100249C8604046BDE8F8830000A7
:102C500000100240007000402DE9F04104460D468E
:102C60004FF0000814B90120BDE8F0817D480068EC
:102C700000F00F00A8420ED27A48006820F00F0042
:102C80002843784908600846006800F00F00A84211
:102C900001D00120E8E7207800F00100002864D08E
:102CA0006068032823D17048006800F0007008B9FC
:102CB0000120D9E702F09EFC06466C48864237D9CF
:102CC0006948806800F0F00030B1207800F0020020
:102CD00002282DD1A06858BB6348806820F0F0001E
:102CE00040F08000604988604FF0800820E0606814
:102CF000022806D15C48006800F4003040B9012089
:102D0000B2E75948006800F4806008B90120ABE7D9
:102D100000F000F906465548864209D952488068B5
:102D200020F0F00040F080004F4988604FF08008AC
:102D30004D48806820F00300616808434A49886074
:102D4000FFF766FA074608E0FFF762FAC01B41F298
:102D50008831884201D9032086E74348806800F023
:102D60000C006168B0EB810FEED1207800F002001A
:102D7000022820D1207800F00400042805D13A4828
:102D8000806840F4E06038498860207800F00800EE
:102D9000082807D13448806820F4605040F4E0608F
:102DA000314988603048806820F0F000A16808430D
:102DB0002D49886008E0B8F1800F05D12A48806865
:102DC00020F0F000284988602648006800F00F00D5
:102DD000A84219D92348006820F00F002843214950
:102DE0000860FFF715FA074608E0FFF711FAC01B65
:102DF00041F28831884201D9032035E7194800683B
:102E000000F00F00A842F0D1207800F00400042860
:102E100007D11548806820F4E060E1680843124952
:102E20008860207800F00800082808D10E488068E3
:102E300020F46050216940EAC1000B49886000F02D
:102E400069F809498968C1F30311094A515C01F025
:102E50001F01C8400749086007480068FFF7FAF9F2
:102E600002E70000002002400010024000B4C40449
:102E70003889000820000020180000200F2202607E
:102E80000D4A926802F0030242600B4A926802F017
:102E9000F0028260084A926802F4E062C260064A68
:102EA000926802F46052D2080261044A126802F089
:102EB0000F020A607047000000100240002002402C
:102EC00001480068704700002000002000B5FFF7AF
:102ED000F7FF05498968C1F30221044A515C01F0FA
:102EE0001F01C84000BD00000010024048890008D2
:102EF00000B5FFF7E5FF05498968C1F3C221044A1F
:102F0000515C01F01F01C84000BD000000100240EC
:102F10004889000870B5224DAD6805F00C05042DF8
:102F200001D120483AE01E4DAD6805F00C05082D92
:102F300001D11D4832E01A4DAD6805F00C050C2D8D
:102F40002BD1174DED6805F00304154DED68C5F361
:102F500003156A1C022C0CD0032C09D1124DB5FBB1
:102F6000F2F50F4EF668C6F3062605FB06F10AE0F9
:102F700000BF0C4DB5FBF2F5094EF668C6F3062608
:102F800005FB06F100BF00BF054DED68C5F34165C7
:102F90006D1C6B00B1FBF3F000E0002070BD000081
:102FA000001002400024F40000127A002DE9F843DA
:102FB000044614B90120BDE8F883207800F0010030
:102FC000002865D0FC48806800F00C07FA48C0680B
:102FD00000F003060C2F01D1032E01D0082F0AD1D7
:102FE000F548006800F40030002851D060680028DF
:102FF0004ED10120DFE700BF6068B0F5803F06D109
:10300000ED48006840F48030EB4908601AE06068E1
:10301000B0F5A02F0BD1E848006840F48020E649C5
:1030200008600846006840F4803008600AE0E24822
:10303000006820F48030E04908600846006820F409
:103040008020086000BF606888B1FFF7E1F805469E
:1030500006E0FFF7DDF8401B642801D90320AAE74A
:10306000D548006800F400300028F2D010E0FFF7E7
:10307000CFF8054606E0FFF7CBF8401B642801D9DE
:10308000032098E7CC48006800F400300028F2D113
:10309000207800F00200022860D1C748806800F064
:1030A0000C07C548C06800F003060C2F01D1022EA2
:1030B00001D0042F18D1C048006800F4806018B116
:1030C000E06808B9012076E7BB48406820F0FE4080
:1030D000217C40EA0160B8494860B8480068FFF7C1
:1030E000B9F818B3012066E7E06800B3B248006899
:1030F00040F48070B0490860FFF78AF8054606E0A2
:10310000FFF786F8401B022801D9032053E7AA489D
:10311000006800F480600028F2D0A748406820F0E2
:10312000FE40217C40EA0160A349486016E0A248C5
:10313000006820F48070A0490860FFF769F8054630
:1031400006E0FFF765F8401B022801D9032032E7AB
:103150009948006800F480600028F2D1207800F0DF
:103160000800082836D16069D0B1934894300068CF
:1031700040F001009049C1F89400FFF749F8054676
:1031800006E0FFF745F8401B022801D9032012E7AB
:1031900089489430006800F002000028F1D019E05E
:1031A00085489430006820F001008349C1F89400FC
:1031B000FFF72EF8054606E0FFF72AF8401B022825
:1031C00001D90320F7E67C489430006800F0020043
:1031D0000028F1D1207800F00400042872D14FF0CB
:1031E00000087548806D012121EA107078B100BF98
:1031F0007148806D40F080506F4988650846806D49
:1032000000F08050009000BF00BF4FF001086C48F4
:10321000006800F48070B0B96948006840F48070BC
:1032200067490860FEF7F4FF054606E0FEF7F0FF89
:10323000401B022801D90320BDE66148006800F464
:1032400080700028F2D000BFA068012808D15A4839
:103250009030006840F001005749C1F8900021E02B
:10326000A06805280FD154489030006840F0040051
:103270005149C1F890000846D0F8900040F0010094
:10328000C1F890000EE04C489030006820F001003A
:103290004949C1F890000846D0F8900020F0040099
:1032A000C1F8900000BFA068A8B1FEF7B1FF0546C5
:1032B00009E0FEF7ADFF401B41F28831884202D998
:1032C000032078E625E03C489030006800F00200DA
:1032D0000028EED013E0FEF79BFF054608E0FEF75E
:1032E00097FF401B41F28831884201D9032062E6F2
:1032F00031489030006800F002000028EFD1B8F1AA
:10330000010F05D12C48806D20F080502A49886536
:1033100000BF207800F02000202836D1A069D0B16D
:1033200025489830006840F001002349C1F8980012
:10333000FEF76EFF054606E0FEF76AFF401B022817
:1033400001D9032037E61C489830006800F00200DD
:103350000028F1D019E018489830006820F00100EA
:103360001549C1F89800FEF753FF054606E0FEF741
:103370004FFF401B022801D903201CE60E4898305D
:10338000006800F002000028F1D1E069002860D058
:103390000948806800F00C000C287AD0E069022807
:1033A00058D10548006820F0807003490860FEF796
:1033B0002FFF05460DE0000000100240180000201D
:1033C00000700040FEF724FF401B022801D90320B3
:1033D000F1E54A48006800F000700028F2D1D4E915
:1033E0000810401E41EA0011A06A41EA0021208E27
:1033F0000122C2EB500041EA40513420005DC2EB93
:10340000500041EA40612C20005D41EAC0603B4928
:10341000C9683B4A114008433849C86008460068FB
:1034200040F0807008600846C06840F08070C86056
:10343000FEF7EEFE054606E0FEF7EAFE401B022818
:1034400001D90320B7E52D48006800F0007000287E
:10345000F2D051E02948006820F0807027490860C8
:10346000FEF7D6FE054606E0FEF7D2FE401B022818
:1034700001D903209FE52148006800F00070002872
:10348000F2D11E48C0681F4908401C49C86033E09B
:10349000FFE7E069012800D18DE51848C66806F00D
:1034A0000301206A814225D106F0F001606A401EC6
:1034B000B1EB001F1ED106F4FE41A06AB1EB002F54
:1034C00018D106F078412C20005DB1EBC06F11D10E
:1034D00006F4C001208E0122C2EB5000B1EB405F28
:1034E00008D106F0C0613420005DC2EB5000B1EBA2
:1034F000406F01D001205EE500205CE50010024035
:103500000C809F01FCFFEEFE2DE9F04104460D46C4
:1035100016461F4614B90120BDE8F081D4F8880092
:1035200028B9002084F88400204601F05DF92420A9
:10353000C4F888002068006820F001002168086055
:10354000A06A10B1204602F01FFD204602F044FEA2
:10355000012800D1E0E72068806840F480402168BD
:1035600088602068806820F40040284321688860D3
:103570004FEA465848EA074820680068074908406B
:1035800040EA0800216808602068006840F00100F7
:1035900021680860204602F073FDBDE7FFFF00FCD4
:1035A00070B504460CB9012070BD606A38B9606816
:1035B000B0F5827F00D105E00021E16102E0002149
:1035C000216161610021A16294F85D0028B90020A9
:1035D00084F85C00204600F061F8022084F85D0069
:1035E0002068006820F0400021680860E068B0F5BD
:1035F000E06F01D9002501E04FF48055E068B0F597
:10360000706F05D0E068B0F5E06F01D00021A162D5
:10361000A08800F48270218901F404410843217CD0
:1036200001F002010843217D01F001010843218BD3
:1036300001F400710843217F01F038010843202183
:10364000095D01F080010843218D01F40051084318
:10365000216808600421A06901EA104094F8241050
:1036600001F01001084394F8341001F008010843F8
:10367000A18901F47061084305F480510843216871
:1036800048602068C06920F400602168C86100209B
:103690002066012084F85D00002085E710B586B023
:1036A0000446142101A8FCF72BFF2E49206888420C
:1036B00028D100BF2C48006E40F480502A4908668B
:1036C0000846006E00F48050009000BF00BF00BFAD
:1036D0000846C06C40F00200C8640846C06C00F0A8
:1036E0000200009000BF00BF38200190022002902D
:1036F0000020039004900520059001A91B48FEF7C7
:1037000089FC2CE01A492068884228D100BF16485D
:10371000806D40F40040144988650846806D00F4CF
:103720000040009000BF00BF00BF0846C06C40F0E2
:103730000400C8640846C06C00F00400009000BF9C
:1037400000BF4FF4E050019002200290002003904F
:1037500004900620059001A90648FEF75BFC06B020
:1037600010BD00000030014000100240000400487D
:10377000003C0040000800482DE9FF5F04468946F0
:1037800092461D460E9E012001900020009000BF31
:1037900094F85C00012803D1022004B0BDE8F09F3A
:1037A000012084F85C0000BFFEF732FD074694F864
:1037B0005D00029060680390A846AB46029801281D
:1037C0000BD00398B0F5827F04D1A06810B902989D
:1037D000042802D00220009030E1B9F1000F03D09C
:1037E000BAF1000F00D015B90120009026E194F83D
:1037F0005D00042802D0052084F85D0000202066CA
:10380000C4F840A0A4F84650A4F84450C4F8389036
:10381000E587A587E0642065E068B0F5E06F02D831
:10382000BBF1010F06D92068406820F48050216860
:10383000486005E02068406840F480502168486096
:103840002068006800F04000402805D0206800682B
:1038500040F0400021680860E068B0F5E06F51D9A1
:10386000606810B1B8F1010F09D1A06B0088216820
:10387000C860A06B801CA063E08F401EE08739E029
:103880002068806800F00200022810D1E08F70B13B
:10389000019801280BD1A06B00882168C860A06B3B
:1038A000801CA063E08F401EE0870020019020680C
:1038B000806800F0010080B1B4F8460068B120686B
:1038C000C068216C0880206C801C2064B4F846001D
:1038D000401EA4F8460001200190FEF799FCC01B91
:1038E000B04207D3701C28B103200090012084F857
:1038F0005D00A3E0E08F0028C2D1B4F846000028A4
:10390000BED188E0606810B1B8F1010F17D1E08F27
:1039100001280AD9A06B00882168C860A06B801CB0
:10392000A063E08F801EE08709E0A06B007821682B
:103930000873A06B401CA063E08F401EE08763E02B
:103940002068806800F0020002281ED1E08FE0B1FC
:103950000198012819D1E08F01280AD9A06B0088AD
:103960002168C860A06B801CA063E08F801EE08788
:1039700009E0A06B007821680873A06B401CA0636D
:10398000E08F401EE087002001902068806800F0F2
:10399000010058B3B4F8460040B3B4F8460001281B
:1039A00016D92068C068216C0880206C801C2064B7
:1039B000B4F84600801EA4F84600B4F8460001287A
:1039C00012D82068406840F48050216848600BE0BD
:1039D0002068007B216C0870206C401C2064B4F8C7
:1039E0004600401EA4F8460001200190FEF710FC9E
:1039F000C01BB04201D3701C00B92EB90320009047
:103A0000012084F85D0019E0E08F002898D1B4F817
:103A10004600002894D13A463146204601F01EFE69
:103A200018B10120009020202066206E10B10120E6
:103A3000009002E0012084F85D0000BF00BF00207C
:103A400084F85C0000BF0098A7E670477047704795
:103A500010B50346002200BF93F83C00012801D1B5
:103A6000022010BD012083F83C0000BF22F0FF00BF
:103A7000CC6840EA040222F440708C6840EA0402F8
:103A800022F480604C6840EA040222F400600C6872
:103A900040EA040222F480500C6940EA040222F455
:103AA00000504C6940EA040222F480400C6B40EA6A
:103AB000040222F470200C8B40EA044222F0805071
:103AC000CC6940EA0402144C1868A04207D0134C99
:103AD0001868A04203D0124C1868A04213D122F4F7
:103AE00070000C8D40EA045222F080700C6A40EAAB
:103AF000040222F000704C6A40EA040222F00050F6
:103B0000CC6A40EA04021868426400BF002083F8CF
:103B10003C0000BF00BFA4E7002C0140003401407E
:103B200000500140704770477047000030B50246B2
:103B30000B4600BF92F83C00012801D1022030BDA5
:103B4000012082F83C0000BF022082F83D0010688E
:103B5000416810688468234D1068A84207D0224D40
:103B60001068A84203D0214D1068A84203D121F467
:103B70007001586801431E480140186801431068ED
:103B80004160184D1068A8421BD01068B0F1804FFA
:103B900017D0184D1068A84213D0174D1068A842CE
:103BA0000FD0164D1068A8420BD00F4D1068A842D8
:103BB00007D0134D1068A84203D00C4D1068A842DE
:103BC00005D124F0800498680443106884600120C3
:103BD00082F83D0000BF002082F83C0000BF00BF1B
:103BE000ADE70000002C01400034014000500140CE
:103BF0008FFFFFFD0004004000080040000C004063
:103C000000400140704710B504460CB9012010BDBA
:103C100094F83D0028B9002084F83C00204600F0CC
:103C200029F8022084F83D00211D206801F0B6FE2D
:103C3000012084F8480000BF84F83E0001213F20A5
:103C40000155402001554120015542200155432096
:103C5000015500BF00BF012084F8440045200155F4
:103C6000462001554720015500BF012084F83D0042
:103C70000020CCE708B52D4A016891420DD100BF64
:103C80002B49096E41F40061294A11661146096EFB
:103C900001F40061009100BF47E00168B1F1804F7D
:103CA0000DD100BF2249896D41F00101204A916583
:103CB0001146896D01F00101009100BF35E01D4AF8
:103CC000016891420DD100BF1949896D41F002018F
:103CD000174A91651146896D01F00201009100BFFC
:103CE00023E0154A016891420DD100BF1049896D4A
:103CF00041F004010E4A91651146896D01F00401FD
:103D0000009100BF11E00D4A016891420DD100BF42
:103D10000749896D41F00801054A91651146896D91
:103D200001F00801009100BF00BF08BD002C014058
:103D3000001002400004004000080040000C004059
:103D4000014691F83D00012801D001207047022072
:103D500081F83D000868C06840F001000B68D86039
:103D60001C4B086898421BD00868B0F1804F17D0F0
:103D7000194B0868984213D0184B086898420FD026
:103D8000174B086898420BD0164B0868984207D02A
:103D9000154B0868984203D0144B0868984210D11C
:103DA00008688068124B00EA0302062A0FD0B2F5B9
:103DB000803F0CD00868006840F001000B68186074
:103DC00005E00868006840F001000B6818600020FA
:103DD000BCE70000002C0140000400400008004047
:103DE000000C004000340140004001400050014000
:103DF000070001002DE9F04104460D46002700BFF1
:103E000094F83C00012802D10220BDE8F081012095
:103E100084F83C0000BF022084F83D0020688668DA
:103E20004248064026F47F46206886602868B0F540
:103E3000005F33D015DC402851D008DC002858D072
:103E4000102857D0202856D0302862D154E050286E
:103E500031D0602839D0702813D0B0F5805F58D1A8
:103E60000EE000F00F01002953D10011A0F58030C1
:103E700008284ED2DFE800F0414243444546474817
:103E800049E0D5E902136A68206801F010FE206855
:103E9000866846F07706206886603CE0D5E9021324
:103EA0006A68206801F003FE2068806840F4804062
:103EB000216888602FE0EA686968206802F010F8DD
:103EC0005021206801F0FEFD25E0EA68696820685D
:103ED00002F019F86021206801F0F4FD1BE0EA68A7
:103EE0006968206801F0FCFF4021206801F0EAFDCC
:103EF00011E000BF00BF00BF00BF00BF00BF00BF98
:103F000000BF00BF00BF00BF2968206801F0DAFDD4
:103F100001E0012700BF00BF012084F83D0000BF81
:103F2000002084F83C0000BF38466EE788FFCEFFD3
:103F3000704770B504462068C6682068056905F0BA
:103F40000200022819D106F00200022815D1401FF4
:103F500021680861012020772068806900F0030053
:103F600018B12046FFF7E4FF05E0204600F0C6F94F
:103F7000204600F0B4FA0020207705F00400042861
:103F800019D106F00400042815D1C0432168086146
:103F9000022020772068806900F4407018B1204624
:103FA000FFF7C6FF05E0204600F0A8F9204600F024
:103FB00096FA0020207705F00800082819D106F0AD
:103FC0000800082815D1C043216808610420207723
:103FD0002068C06900F0030018B12046FFF7A8FF71
:103FE00005E0204600F08AF9204600F078FA00202B
:103FF000207705F01000102819D106F010001028C5
:1040000015D1C04321680861082020772068C06965
:1040100000F4407018B12046FFF78AFF05E0204603
:1040200000F06CF9204600F05AFA0020207705F0E5
:10403000010048B106F0010030B16FF001002168C5
:104040000861204600F002FB05F08000802804D0C3
:1040500005F40050B0F5005F0AD106F0800080281A
:1040600006D16FF40250216808612046FFF7EEFC8C
:1040700005F48070B0F5807F0AD106F080008028BA
:1040800006D16FF48070216808612046FFF7DDFCDF
:1040900005F04000402809D106F04000402805D135
:1040A000C04321680861204600F0DCFA05F02000DA
:1040B000202809D106F02000202805D1C04321681E
:1040C00008612046FFF7C3FC05F48010B0F5801F9F
:1040D0000BD106F48010B0F5801F06D16FF480106C
:1040E000216808612046FFF71EFD05F40010B0F5B9
:1040F000001F0BD106F40010B0F5001F06D16FF4BD
:104100000010216808612046FFF70CFD05F48000CF
:10411000B0F5800F0BD106F48000B0F5800F06D10A
:104120006FF48000216808612046FFF7FDFC05F46C
:104130000000B0F5000F0BD106F40000B0F5000F41
:1041400006D16FF40000216808612046FFF75AFD90
:1041500070BD000010B586B00446142101A8FCF71C
:10416000CFF95F492068884238D100BF5D48C06CF4
:1041700040F010005B49C8640846C06C00F01000B5
:10418000009000BF00BF00BF0846C06C40F00100B7
:10419000C8640846C06C00F00100009000BF00BF7A
:1041A0004FF4904001900220029000200390049070
:1041B0000220059001A94C48FDF72CFF4FF48060C8
:1041C00001900220029000200390049006200590A8
:1041D00001A94FF09040FDF71DFF7EE02068B0F18F
:1041E000804F1BD100BF3F48C06C40F008003D49E4
:1041F000C8640846C06C00F00800009000BF00BF13
:1042000008200190022002900020039004900220D8
:10421000059001A93548FDF7FDFE5EE034492068B0
:1042200088421BD100BF2F48C06C40F010002D49C0
:10423000C8640846C06C00F01000009000BF00BFCA
:104240000C20019002200290002003900490022094
:10425000059001A92448FDF7DDFE3EE025492068D0
:1042600088421BD100BF1F48C06C40F008001D49A8
:10427000C8640846C06C00F00800009000BF00BF92
:1042800088140190022002900020039004900220E4
:10429000059001A91548FDF7BDFE1EE016492068EE
:1042A00088421AD100BF0F48C06C40F010000D4981
:1042B000C8640846C06C00F01000009000BF00BF4A
:1042C00088150190022002900020039004900120A4
:1042D000059001A90448FDF79DFE06B010BD000041
:1042E000002C01400010024000100048000C004863
:1042F0000004004000080040000C004070472DE919
:10430000F04104460D461646002700BF94F83C00D5
:10431000012802D10220BDE8F081012084F83C0090
:1043200000BF0C2E51D005DC4EB1042E1ED0082E3D
:104330007AD133E0102E60D0142EF9D175E02946E1
:10434000206801F0CBFB2068806940F008002168FC
:1043500088612068806920F00400216888612068F5
:104360008069296908432168886178E029462068C6
:1043700001F012FC2068806940F4006021688861C7
:104380002068806920F480602168886120688069E5
:10439000296940EA01202168886160E02946206897
:1043A00001F05EFC2068C06940F008002168C86127
:1043B0002068C06920F004002168C8612068C069D5
:1043C000296908432168C86149E02946206801F04D
:1043D000A9FC2068C06940F400602168C8612068B9
:1043E000C06920F480602168C8612068C0692969BB
:1043F00040EA01202168C86131E02946206801F0C7
:10440000F5FC2068006D40F0080021680865206810
:10441000006D20F00400216808652068006D29699E
:104420000843216808651AE017E02946206801F072
:1044300019FD2068006D40F400602168086520685F
:10444000006D20F48060216808652068006D29698E
:1044500040EA01202168086501E0012700BF00BF94
:1044600000BF002084F83C0000BF384653E710B579
:1044700004460CB9012010BD94F83D0028B9002075
:1044800084F83C00204600F029F8022084F83D0022
:10449000211D206801F082FA012084F8480000BF45
:1044A00084F83E0001213F20015540200155412064
:1044B0000155422001554320015500BF00BF012096
:1044C00084F84400452001554620015547200155F8
:1044D00000BF012084F83D000020CCE77047704702
:1044E00070B504460D4615B994F83E0015E0042D4C
:1044F00002D13F20005D10E0082D02D14020005D78
:104500000BE00C2D02D14120005D06E0102D02D100
:104510004220005D01E04320005D012801D0012020
:1045200070BD1DB9022084F83E001AE0042D03D1AD
:1045300002213F20015514E0082D03D10221402023
:1045400001550EE00C2D03D102214120015508E058
:10455000102D03D102214220015502E00221432007
:10456000015501222946206801F090FA2D49206862
:10457000884213D02C49206888420FD02B492068EC
:1045800088420BD02A492068884207D029492068F0
:10459000884203D028492068884201D1012000E0E8
:1045A000002028B12068406C40F400402168486435
:1045B0001C49206888421BD02068B0F1804F17D07A
:1045C0001E492068884213D01D49206888420FD0B8
:1045D0001C49206888420BD013492068884207D0C4
:1045E00012492068884203D013492068884210D1BC
:1045F00020688068144900EA0106062E0FD0B6F53F
:10460000803F0CD02068006840F0010021680860FD
:1046100005E02068006840F0010021680860002083
:104620007EE70000002C01400034014000400140C2
:104630000044014000480140005001400004004097
:1046400000080040000C00400700010010B50446BF
:1046500003492068884201D1FDF7E0FD10BD00004C
:10466000001000407047014600BF91F88400012807
:1046700001D102207047012081F8840000BF24206E
:10468000C1F88800086802680868006820F0010026
:104690000B68186022F0005200204866086802602B
:1046A0002020C1F8880000BF002081F8840000BFEE
:1046B00000BFDFE770B504460D4600BF94F88400E4
:1046C000012801D1022070BD012084F8840000BFC0
:1046D0002420C4F88800206806682068006820F05C
:1046E0000100216808602068806820F0606028432D
:1046F00021688860204601F01BFC206806602020AD
:10470000C4F8880000BF002084F8840000BF00BF08
:10471000D9E770B504460D4600BF94F8840001281F
:1047200001D1022070BD012084F8840000BF242044
:10473000C4F88800206806682068006820F001003E
:10474000216808602068806820F060402843216864
:104750008860204601F0ECFB206806602020C4F849
:10476000880000BF002084F8840000BF00BFD9E7A4
:1047700010B504460CB9012010BDA06900B100E0DD
:1047800000BFD4F8880028B9002084F884002046AF
:1047900000F02AF82420C4F888002068006820F07F
:1047A000010021680860A06A10B1204601F0ECFB0E
:1047B000204601F011FD012800D1DDE720684068A6
:1047C00020F49040216848602068806820F02A002A
:1047D000216888602068006840F001002168086056
:1047E000204601F04DFCC7E710B59CB004461421EB
:1047F00017A8FBF785FE542102A8FBF781FE60494C
:104800002068884268D1012002900020039002A80D
:10481000FEF716F808B1FCF789FA00BF5948006E98
:1048200040F48040574908660846006E00F4804016
:10483000019000BF00BF00BF0846C06C40F00100FF
:10484000C8640846C06C00F00100019000BF00BFC2
:1048500000BF0846C06C40F00200C8640846C06C47
:1048600000F00200019000BF00BF4FF4905017907D
:1048700002201890002019901A9007201B9017A969
:104880004FF09040FDF7C6FB802017900220189053
:10489000002019901A9007201B9017A93A48FDF79D
:1048A000B9FB3A483A490860182048600021384866
:1048B0008160C16080210161002141618161C1612C
:1048C0000162FDF72BFB08B1FCF730FA00BF30485E
:1048D000C4F88000846251E02E49206888424DD19E
:1048E000022002900020049002A8FDF7A9FF08B161
:1048F000FCF71CFA00BF2348806D40F400302149CA
:1049000088650846806D00F40030019000BF00BF4C
:1049100000BF0846C06C40F00100C8640846C06C87
:1049200000F00100019000BF00BF00BF0846C06C4E
:1049300040F00800C8640846C06C00F00800019010
:1049400000BF00BF4FF400401790022018900020D5
:1049500019901A9007201B9017A94FF09040FDF76F
:1049600059FB2020179002201890002019901A90CF
:1049700007201B9017A90848FDF74CFB1CB010BD81
:104980000038014000100240000400481C000240B2
:10499000DC06002000440040000C004800BFFEE799
:1049A0000146886800F0E0707047024602F160003E
:1049B00000EB8103186800F0F840704701468868F2
:1049C000C0F3C00070470146886800F001007047DE
:1049D0000146886800F00100704701468868C0F30E
:1049E0000070704701468868C0F380007047014638
:1049F0008868C0F38000704770B500F11404C1F3FB
:104A0000406504EB85031C68C1F304560725B540D7
:104A1000AC43C1F3045502FA05F52C431C6070BD8C
:104A2000826822F0E0720A438260704710B500F19C
:104A3000600404EB81031C6824F0004414431C60F0
:104A400010BD426922F000420A43426170470000F3
:104A500000B58BB00020089009900A90202168468C
:104A6000FBF74EFD4FF0A0401F4908604FF4403067
:104A7000486000211C488160C160016141610421DE
:104A8000816100210177417701210162002180F8D5
:104A90002410C162016380F83810C16380F84010AF
:104AA000FCF7DEFC08B1FCF741F90020089008A9EA
:104AB0000D48FCF73FF908B1FCF738F90B480090B6
:104AC00006200190002002907F2003900420049093
:104AD0000020059069460448FCF708FA08B1FCF785
:104AE00025F90BB000BD0000D0000020020030040A
:104AF00000B589B0202101A8FBF702FD34483549F3
:104B000008604FF440304860002132488160C16045
:104B10000161012141610421816100210177417717
:104B200005210162002180F824104FF4A861C162C0
:104B30004FF480610163002180F83810C16380F870
:104B40004010FCF78DFC08B1FCF7F0F8224801900A
:104B500006200290002003907F20049004200590FE
:104B60000020069001A91B48FCF7C0F908B1FCF72A
:104B7000DDF81A4801900C20029001A91548FCF7B5
:104B8000B5F908B1FCF7D2F815480190122002904F
:104B900001A91048FCF7AAF908B1FCF7C7F81148B9
:104BA00001901820029001A90A48FCF79FF908B16A
:104BB000FCF7BCF80C4801904FF48070029001A9FA
:104BC0000448FCF793F908B1FCF7B0F809B000BD50
:104BD000000100503C0100201000C0102000F01423
:104BE0000008302E001060320020903600B58DB0E5
:104BF000302101A8FBF784FC1048114908600846E1
:104C0000FDF710F808B1FCF791F8022001900020A0
:104C10008DF808008DF80900039004900590069027
:104C20000120079000200890002201A90448FCF709
:104C300087FE08B1FCF77AF80DB000BD00080050FF
:104C40000802002000B58DB0302101A8FBF758FC08
:104C50001448154908600846FCF7E4FF08B1FCF762
:104C600065F80220019000208DF808008DF80900F9
:104C70000390049005900220069007900020089071
:104C8000002201A90848FCF75BFE08B1FCF74EF8CA
:104C9000102201A90448FCF753FE08B1FCF746F8BE
:104CA0000DB000BD001000501C02002000B58DB0FA
:104CB000302101A8FBF724FC144815490860084678
:104CC000FCF7B0FF08B1FCF731F80220019000209A
:104CD0008DF808008DF809000390049005900220DB
:104CE0000690079000200890002201A90848FCF7D0
:104CF00027FE08B1FCF71AF8102201A90448FCF7B6
:104D00001FFE08B1FCF712F80DB000BD00140050F2
:104D10003002002008B500BF1548806C40F0040048
:104D2000134988640846806C00F00400009000BFBE
:104D300000BF00BF0846806C40F001008864084650
:104D4000806C00F00100009000BF00BF0022052130
:104D50000B20FDF707FB0B20FDF7F0FA00220521E1
:104D60000C20FDF7FFFA0C20FDF7E8FA08BD000063
:104D70000010024010B50A4801F044FD09490860DE
:104D8000094A0021094801F096FD09490860094ACD
:104D90000021094801F08FFD0849086010BD00009E
:104DA000008900080C000020B8880008915800080D
:104DB00004000020DC880008CD580008080000200E
:104DC00000B587B0142102A8FBF79AFB00BF6E481C
:104DD000C06C40F010006C49C8640846C06C00F01C
:104DE0001000019000BF00BF00BF0846C06C40F03B
:104DF0000400C8640846C06C00F00400019000BFC5
:104E000000BF00BF0846C06C40F02000C8640846E0
:104E1000C06C00F02000019000BF00BF00BF08463A
:104E2000C06C40F00100C8640846C06C00F001008E
:104E3000019000BF00BF00BF0846C06C40F00200F8
:104E4000C8640846C06C00F00200019000BF00BFBB
:104E500000BF0846C06C40F00800C8640846C06C3B
:104E600000F00800019000BF00BF002240F2B361D3
:104E70004648FDF7C7F900224FF409514448FDF7B1
:104E8000C1F900224AF2D7014248FDF7BBF90022DE
:104E90004FF460714048FDF7B5F900224FF400610E
:104EA0004FF09040FDF7AEF940F2B3600290012060
:104EB000039000200490059002A93448FDF7AAF859
:104EC0004020029000200390049002A92F48FDF793
:104ED000A1F84EF24000029000200390049002A935
:104EE0002D48FDF797F84FF40070029000200390D2
:104EF000049002A92948FDF78DF84FF4095002905B
:104F00000120039000200490059002A92048FDF79D
:104F100081F84FF40040029000200390049002A911
:104F20001B48FDF777F84FF4706002900020039063
:104F3000049002A91748FDF76DF84AF2D7000290D5
:104F40000120039000200490059002A91148FDF76C
:104F500061F84FF4607002900120039000200490EB
:104F6000059002A90C48FDF755F84FF40060029037
:104F70000120039000200490059002A94FF090407A
:104F8000FDF748F807B000BD0010024000100048CF
:104F900000040048000C00480008004800140048C5
:104FA00010B50A480A490860002048606021084896
:104FB00081600C210161002101758161C162FDF7F1
:104FC00023FA08B1FBF7B2FE10BD00000003014058
:104FD0004402002010B50A480A49086000204860D1
:104FE0006021084881600C21016100210175816107
:104FF000C162FDF709FA08B1FBF798FE10BD000089
:10500000040301408002002010B50A480A490860E4
:10501000002048606021084881600C210161002166
:1050200001758161C162FDF7EFF908B1FBF77EFE02
:1050300010BD000008030140BC02002010B50A4862
:105040000A490860002048606021084881600C21FE
:105050000161002101758161C162FDF7D5F908B1D7
:10506000FBF764FE10BD00000C030140F8020020B5
:1050700010B50A480A4908600020486060210848C5
:1050800081600C210161002101758161C162FDF720
:10509000BBF908B1FBF74AFE10BD00001003014048
:1050A0003403002010B51248124908604FF4827092
:1050B000486000210F4881604FF4E061C160002129
:1050C000016101214161490281613821C1610021F1
:1050D0000162416281620721C162002101630821EE
:1050E0004163FEF75DFA08B1FBF720FE10BD00003A
:1050F000003001407003002010B5124812490860CA
:105100004FF48270486000210F4881604FF4407175
:10511000C1600021016141614FF40071816128216A
:10512000C16100210162416281620721C1620021E7
:10513000016308214163FEF733FA08B1FBF7F6FD7E
:1051400010BD0000003C0040D403002000B59BB01F
:1051500000201790189019901A901490159016909E
:105160001C210DA8FBF7CCF934216846FBF7C8F9E0
:105170003E483F4908600020486000213C4881606B
:1051800042F23311C1600021016141618161FEF78A
:105190003AFD08B1FBF7CAFD4FF48050179017A9EC
:1051A0003348FEF727FE08B1FBF7C0FD3048FFF794
:1051B0005EF908B1FBF7BAFD002014904FF400002F
:1051C00015900020169014A92948FEF7AFFC08B1ED
:1051D000FBF7ACFD60200D9000200E900F9010901A
:1051E00011901290139004220DA92148FFF787F81F
:1051F00008B1FBF79BFD08220DA91D48FFF77FF8BA
:1052000008B1FBF793FD0C220DA91948FFF777F8B9
:1052100008B1FBF78BFD70200D9010220DA91448EA
:10522000FFF76DF808B1FBF781FD002000900190B9
:105230000290039004904FF40050059000200690D7
:10524000079008904FF00070099000200A900B9092
:105250000C9069460648FEF7FBFB08B1FBF766FDBC
:105260000348FEF777FF1BB000BD0000002C014093
:105270003804002000B58FB000200B900C900D90EA
:105280000E90089009900A901C2101A8FBF738F9AC
:105290004FF080401E4908600020486000211C48F3
:1052A0008160491EC160002101618161FEF7ABFC94
:1052B00008B1FBF73BFD4FF480500B900BA914484D
:1052C000FEF798FD08B1FBF731FD1148FFF7CFF865
:1052D00008B1FBF72BFD002008900A9008A90C48A4
:1052E000FEF724FC08B1FBF721FD602001900020AF
:1052F000029003900590002201A90548FEF7FFFFE8
:1053000008B1FBF713FD0248FEF724FF0FB000BD04
:105310008404002000B58FB000200B900C900D90FD
:105320000E90089009900A901C2101A8FBF7E8F85C
:1053300023482449086000204860002121488160FA
:1053400042F23311C160002101618161FEF75BFC13
:1053500008B1FBF7EBFC4FF480500B900BA91948F8
:10536000FEF748FD08B1FBF7E1FC1648FFF77FF8B0
:1053700008B1FBF7DBFC002008900A9008A911484F
:10538000FEF7D4FB08B1FBF7D1FC602001900020B0
:10539000029003900590002201A90A48FEF7AFFF92
:1053A00008B1FBF7C3FC042201A90648FEF7A7FFDA
:1053B00008B1FBF7BBFC0348FEF7CCFE0FB000BD05
:1053C00000040040D004002000B58FB000200B90F6
:1053D0000C900D900E90089009900A901C2101A845
:1053E000FBF78EF81F482049086000204860002124
:1053F0001D4881604FF6FF71C1600021016181612C
:10540000FEF701FC08B1FBF791FC4FF480500B90C4
:105410000BA91548FEF7EEFC08B1FBF787FC124814
:10542000FFF725F808B1FBF781FC002008900A90EF
:1054300008A90D48FEF77AFB08B1FBF777FC60205E
:1054400001900020029003900590002201A90648D7
:10545000FEF755FF08B1FBF769FC0348FEF77AFE3B
:105460000FB000BD000800401C05002000B58FB043
:1054700000200B900C900D900E90089009900A90CF
:105480001C2101A8FBF73CF81F48204908600020B8
:10549000486000211D48816042F23311C160002143
:1054A00001618161FEF7AFFB08B1FBF73FFC4FF4F0
:1054B00080500B900BA91548FEF79CFC08B1FBF738
:1054C00035FC1248FEF7D3FF08B1FBF72FFC002094
:1054D00008900A9008A90D48FEF728FB08B1FBF7D1
:1054E00025FC602001900020029003900590082286
:1054F00001A90648FEF703FF08B1FBF717FC0348B4
:10550000FEF728FE0FB000BD000C0040680500202B
:1055100010B51948194908604FF4E130486000217E
:1055200016488160C16001610C21416100218161E7
:10553000C1610162416200201049886200231A465D
:1055400019460E48FDF7E0FF08B1FBF7EFFB00211D
:105550000A48FFF7DEF808B1FBF7E8FB002107482F
:10556000FFF7A8F808B1FBF7E1FB0448FFF77BF869
:1055700008B1FBF7DBFB10BD00380140B40500208B
:1055800010B51848184908604FF4E1304860002110
:1055900015488160C16001610C2141610021816178
:1055A000C1610162416200200F4988620846FFF72D
:1055B000DFF808B1FBF7BAFB00210B48FFF7A9F8A9
:1055C00008B1FBF7B3FB00210748FFF773F808B1F8
:1055D000FBF7ACFB0448FFF746F808B1FBF7A6FB66
:1055E00010BD0000004400404806002000BFFEE758
:1055F00000BFFEE770B5164DED6805F00304144DCD
:10560000ED68C5F303156B1C022C0CD0032C09D1DB
:10561000104DB5FBF3F50E4EF668C6F3062605FBF6
:1056200006F10AE000BF0C4DB5FBF3F5084EF66835
:10563000C6F3062605FB06F100BF00BF044DED686A
:10564000C5F341656D1C6A00B1FBF2F070BD00004E
:105650000010024000127A000024F400F8B504465D
:105660000E461546334600224FF4C05120460095A1
:1056700000F026F828B1206E40F0200020660320BC
:10568000F8BD3346002280212046009500F094F8B2
:1056900028B1206E40F0200020660320F0E733465A
:1056A00000224FF4C0612046009500F009F828B1AF
:1056B000206E40F0200020660320E1E70020DFE7B5
:1056C0002DE9FC5F04460D4616461F46DDF8309076
:1056D00000200090FCF79CFDA0EB0900A7EB000860
:1056E000FCF796FD8246206800F10C0B31480068FB
:1056F000C0EBC00000EB8000000D00FB08F0019043
:1057000050E0B5F5C06F05D126B99BF800000090B8
:105710009DF80000781C002844D0FCF779FDA0EB30
:105720000A00404502D2B8F1000F34D12068406829
:1057300020F0E000216848606068B0F5827F0DD1FC
:10574000A068B0F5004F03D0A068B0F5806F05D118
:105750002068006820F0400021680860A06AB0F569
:10576000005F0DD100BF2068006820F40050216860
:1057700008602068006840F400502168086000BF9D
:10578000012084F85D0000BF002084F85C0000BFA9
:105790000320BDE8FC9F019808B94FF0000801986C
:1057A000401E0190206880682840B042A9D10020A6
:1057B000EFE70000200000202DE9F84F04460D46D9
:1057C00090461E46DDF82890FCF722FDA0EB09006C
:1057D000371AFCF71DFD82462C480068C0F3CB3019
:1057E0007843009045E0701C002842D0FCF710FD83
:1057F000A0EB0A00B84200D2A7BB2068406820F0A6
:10580000E000216848606068B0F5827F0DD1A06833
:10581000B0F5004F03D0A068B0F5806F05D12068C7
:10582000006820F0400021680860A06AB0F5005FC1
:105830000DD100BF2068006820F400502168086086
:105840002068006840F400502168086000BF012013
:1058500084F85D0000BF002084F85C0000BF0320D6
:10586000BDE8F88FFFE7009800B900270098401EB8
:105870000090206880682840A84201D1012000E003
:1058800000204045AFD10020EAE7000020000020C2
:105890004FF47A7000F060FF4FF47A709FED080AC1
:1058A000FBF72CF80749087000BFFAF7B5FF064868
:1058B0000078401C04490870C82000F04DFFF4E750
:1058C000CDCCCCBE010000200200002000BF4FF470
:1058D00000410348FCF78CFC642000F03DFFF6E734
:1058E000000C004810B54FF0E020006902F088FD80
:1058F000012801D002F07EF910BD00B593B0382127
:1059000005A8FAF7FDFD14216846FAF7F9FD002015
:10591000FCF700FF012005900004069002200C9087
:1059200003210D9102210E9155210F910221109119
:105930001191129105A8FDF739FB08B1FBF7F6F9B3
:105940000F2000900320019000200290039004900B
:1059500004216846FDF780F908B1FBF7E7F913B0B9
:1059600000BD00000348006840F470000149086071
:105970007047000088ED00E010B50548FEF7D9FA41
:105980000448FCF70EF90448FCF70BF910BD0000C1
:105990003C070020080200201C02002010B502680D
:1059A000314B984211D0B0F1804F0ED02F4B98421E
:1059B0000BD02F4B984208D02E4B984205D02E4B3F
:1059C000984202D02D4B984203D122F070024B68CE
:1059D0001A43254B98421AD0B0F1804F17D0234B71
:1059E000984214D0224B984211D0224B98420ED0AC
:1059F000214B98420BD0224B984208D0214B984221
:105A000005D0214B984202D01C4B984203D122F47E
:105A10004072CB681A4322F080034C6943EA0402C7
:105A200002608B68C3620B6883620F4B98420ED092
:105A3000114B98420BD0124B984208D0114B984210
:105A400005D0114B984202D00C4B984201D10B6902
:105A5000036301234361036903F001031BB103697D
:105A600023F00103036110BD002C0140000400403D
:105A700000080040000C004000340140005001408C
:105A800000400140004401400048014030B501F0B1
:105A90001F05012404FA05F3046A9C430462046AA6
:105AA00001F01F0502FA05F52C43046230BD30B544
:105AB0000C46816821F47F4142EA032525432943AE
:105AC000816030BD0A468168034B194042F00703EC
:105AD00019438160704700008FFFCFFF30B5026A25
