:020000040800F2
:1000000050070020890100083D1F0008DD1C000882
:10001000391F0008910200080D27000800000000A9
:10002000000000000000000000000000ED1F0008BC
:100030009502000800000000AD1F000845200008E0
:10004000A3010008A3010008A3010008A301000800
:10005000A3010008A3010008A3010008A3010008F0
:10006000A3010008A3010008A3010008A3010008E0
:10007000A3010008A3010008A3010008A3010008D0
:10008000A3010008A3010008A3010008A3010008C0
:10009000A3010008A3010008A3010008A3010008B0
:1000A000A3010008A3010008A3010008A3010008A0
:1000B000A3010008A3010008A3010008A301000890
:1000C000A3010008A3010008A3010008A301000880
:1000D000A3010008A3010008A3010008A301000870
:1000E000A3010008A3010008A301000800F002F822
:1000F00000F03AF80AA090E8000C82448344AAF188
:100100000107DA4501D100F02FF8AFF2090EBAE885
:100110000F0013F0010F18BFFB1A43F0010318473B
:100120004827000068270000103A24BF78C878C12B
:10013000FAD8520724BF30C830C144BF04680C60ED
:10014000704700000023002400250026103A28BF35
:1001500078C1FBD8520728BF30C148BF0B60704739
:100160001FB51FBD10B510BD00F058F81146FFF7C0
:10017000F7FF02F015FB00F076F803B4FFF7F2FF8B
:1001800003BC00F07DF8000009488047094800479B
:10019000FEE7FEE7FEE7FEE7FEE7FEE7FEE7FEE737
:1001A000FEE7FEE704480549054A064B7047000094
:1001B000B9200008ED000008500100205007002081
:1001C00050030020500300204FF0000200B51346FA
:1001D00094469646203922BFA0E80C50A0E80C5067
:1001E000B1F12001BFF4F7AF090728BFA0E80C5018
:1001F00048BF0CC05DF804EB890028BF40F8042B11
:1002000008BF704748BF20F8022B11F0804F18BF7D
:1002100000F8012B7047704770477047754600F033
:100220002BF8AE4605006946534620F00700854688
:1002300018B020B5FFF7B6FFBDE820404FF000062C
:100240004FF000074FF000084FF0000BAC46ACE851
:10025000C009ACE8C009ACE8C009ACE8C00921F0AD
:1002600007018D46704710B50446AFF30080204665
:10027000BDE81040FFF781BF004870471000002024
:1002800001491820ABBEFEE72600020070470000BF
:10029000FFE7FEE77047000081B0EFF3108072B611
:1002A0000090FFE7FEE7000080B584B0039000F007
:1002B000D9F90290039801900198013048B1FFE705
:1002C00040F20400C2F20000017801980844019055
:1002D000FFE7FFE700F0C6F90299401A019988424A
:1002E00001D2FFE7F6E704B080BD000090B00F90A8
:1002F0000E9100200D900990FFE70E9800680D996F
:10030000C840002800F07F81FFE70D990120884058
:100310000C900E9800680C9908400B900B980C9963
:10032000884240F06C81FFE70E98406805900028F5
:1003300051D0FFE7059801283AD0FFE70598022839
:100340003FD0FFE7059803285FD0FFE70598112805
:1003500032D0FFE70598122838D0FFE70598002132
:10036000C1F21101884236D0FFE705980021C1F2A1
:10037000120188422FD0FFE705980021C1F2210128
:10038000884228D0FFE705980021C1F22201884267
:1003900021D0FFE705980021C1F2310188421AD02F
:1003A000FFE705980021C1F23201884213D02FE007
:1003B0000E98C06809902CE00E98C068043009902F
:1003C00027E00E98C0680830099022E00E98C068B7
:1003D0000C3009901DE00E98806818B9FFE70420E2
:1003E000099011E00E988068012806D1FFE70820E7
:1003F00009900C980F99086105E0082009900C9865
:100400000F994861FFE7FFE703E00020099000E053
:10041000FFE70B98FF2803D8FFE70F98049003E04D
:100420000F9804300490FFE7049808900B98FF2879
:1004300004D8FFE70D988000039006E00D996FF057
:100440001F0000EB81000390FFE7039807900898D6
:100450000068079A0F219140884309999140084309
:10046000089908600E98C079C006002840F1C6803F
:10047000FFE7FFE741F21800C4F20200016841F013
:1004800001010160006800F0010006900698FFE796
:100490000D9820F003000821C4F2010140580A9091
:1004A0000D9800F0030081000F2000FA01F10A9876
:1004B00088430A900F9840F60001C4F20101884277
:1004C00003D1FFE70020029026E00F9840F600419C
:1004D000C4F20101884203D1FFE70120019018E036
:1004E0000F9841F20001C4F20101884203D1FFE7F5
:1004F000022000900AE00F9941F20042C4F201028A
:100500000420914208BF03200090FFE7009801906B
:10051000FFE701980290FFE702980D9901F00301AF
:10052000890000FA01F10A9808430A900A980D9987
:1005300021F003010822C4F2010288500E9880794C
:10054000C006002809D5FFE70B9A40F20841C4F223
:10055000010108681043086008E00B9A40F2084166
:10056000C4F20101086890430860FFE70E988079A3
:100570008006002809D5FFE70B9A40F20C41C4F22F
:10058000010108681043086008E00B9A40F20C4132
:10059000C4F20101086890430860FFE70E98807973
:1005A0008007002809D5FFE70B9A40F20441C4F206
:1005B000010108681043086008E00B9A40F204410A
:1005C000C4F20101086890430860FFE70E98807943
:1005D000C00748B1FFE70B9A40F20041C4F20101A5
:1005E00008681043086008E00B9A40F20041C4F22A
:1005F0000101086890430860FFE7FFE7FFE70D98F7
:1006000001300D9079E610B07047000083B0029081
:10061000ADF806100298C0680090009ABDF8060078
:1006200002EA0001904340EA01400299086103B0E8
:100630007047000082B00190ADF802108DF80120E3
:100640009DF8010028B1FFE7BDF80200019908619B
:1006500005E0BDF80200000401990861FFE702B05F
:100660007047000040F24810C2F200000068704776
:1006700040F20400C2F20000027840F24811C2F2D7
:1006800000010868104408607047000080B542F21D
:100690000001C4F20201086840F010000860032065
:1006A00000F08CF80F2000F005F800F03BF8002077
:1006B00080BD000080B582B0009040F20000C2F220
:1006C0000000006840F20401C2F200010A784FF411
:1006D0007A71B1FBF2F1B0FBF1F000F069FD20B1ED
:1006E000FFE701208DF8070018E000980F280DD8CB
:1006F000FFE700994FF0FF30002200F045F8009826
:1007000040F20801C2F20001086003E001208DF808
:10071000070003E000208DF80700FFE79DF80700C1
:1007200002B080BD83B0FFE741F21800C4F20200BE
:10073000016841F001010160006800F001000290D1
:100740000298FFE7FFE741F21C00C4F202000168D3
:1007500041F080510160006800F0805001900198E4
:10076000FFE7FFE70421C4F2010108680090009848
:1007700020F0E0600090009840F000700090009839
:100780000860FFE703B0704780B586B08DF81700AA
:10079000049103920020029001F0BAFF02909DF9AB
:1007A0001700019002980499039A01F0C9FB0146D1
:1007B000019801F0B5FF06B080BD000080B582B0A1
:1007C0000190019801F0CEFF02B080BD80B584B0E9
:1007D00002900191029820B9FFE701208DF80F00E7
:1007E0001BE1019842F20001C4F20201096801F024
:1007F0000701884216D9FFE742F20000C4F2020066
:10080000016821F00701019A11430160006800F0BE
:1008100007000199884204D0FFE701208DF80F00FE
:10082000FBE0FFE702980078800700282AD5FFE761
:10083000029800784007002809D5FFE741F204013B
:10084000C4F20201086840F4E0600860FFE7029823
:1008500000780007002809D5FFE741F20401C4F23F
:100860000201086840F460500860FFE741F20401AB
:10087000C4F20201086820F0F000029A9268104366
:100880000860FFE702980078C007002860D0FFE703
:100890000298406801280ED1FFE741F20000C4F23F
:1008A000020000688003002804D4FFE701208DF8CF
:1008B0000F00B2E021E00298406802280ED1FFE765
:1008C00041F20000C4F2020000688001002804D454
:1008D000FFE701208DF80F009FE00DE041F20000DE
:1008E000C4F2020000688007002804D4FFE701205A
:1008F0008DF80F0091E0FFE7FFE741F20401C4F239
:100900000201086820F00300029A52681043086050
:10091000FFF7A8FE0090FFE741F20400C4F20200D6
:10092000006800F00C0002994968B0EB810F0ED00E
:10093000FFE7FFF797FE0099401A41F2893188429C
:1009400004D3FFE703208DF80F0066E0E4E7FFE73C
:10095000019842F20001C4F20201096801F00701A6
:10096000884216D2FFE742F20000C4F2020001689A
:1009700021F00701019A11430160006800F00700AF
:100980000199884204D0FFE701208DF80F0044E070
:10099000FFE702980078400700280CD5FFE741F2F6
:1009A0000401C4F20201086820F4E060029AD268EF
:1009B00010430860FFE702980078000700280DD573
:1009C000FFE741F20401C4F20201086820F460501C
:1009D000029A126940EAC2000860FFE700F04CF892
:1009E00041F20401C4F202010968C9B20A0942F6DF
:1009F0003C01C0F60001895CC84040F20001C2F22F
:100A00000001086040F20800C2F200000068FFF731
:100A100051FE00208DF80F00FFE79DF80F0004B095
:100A200080BD000040F20000C2F200000068704784
:100A300080B5FFF7F7FF41F20401C4F20201096833
:100A4000C1F3022242F64C01C0F60001895CC840A5
:100A500080BD000080B5FFF7E5FF41F20401C4F25C
:100A600002010968C1F3C22242F64C01C0F600013E
:100A7000895CC84080BD000086B0002005900490CD
:100A800003900290019041F20400C4F20200006859
:100A90000590059800F00C000146009100283FD019
:100AA000FFE70098042804D0FFE70098082806D044
:100AB00037E041F20020C0F27A00019037E005985B
:100AC000C0F3834142F65400C0F60000405C02903F
:100AD0009DF81600C007C0B1FFE741F20400C4F260
:100AE00002000068C0F3404142F66400C0F6000016
:100AF000405C0490029841F20021C0F27A01484320
:100B00000499B0FBF1F0039007E0029840F6001161
:100B1000C0F23D0148430390FFE70398019006E0CF
:100B2000FFE741F20020C0F27A000190FFE7019850
:100B300006B0704780B586B00490049820B9FFE7EE
:100B400001208DF817002EE304980078C0070028D4
:100B500000F0AE80FFE741F20400C4F2020000683A
:100B600000F00C00042813D0FFE741F20400C4F2A7
:100B70000200006800F00C0008281BD1FFE741F2DA
:100B80000400C4F202000068C003002812D5FFE789
:100B900041F20000C4F2020000688003002808D57A
:100BA000FFE70498406820B9FFE701208DF817009F
:100BB000F9E27CE0FFE704984068B0F5803F09D196
:100BC000FFE741F20001C4F20201086840F48030FE
:100BD000086032E00498406868B9FFE741F200011C
:100BE000C4F20201086820F480300860086820F42C
:100BF0008020086020E004984068B0F5A02F0DD157
:100C0000FFE741F20001C4F20201086840F48020CD
:100C10000860086840F4803008600CE041F2000190
:100C2000C4F20201086820F480300860086820F4EB
:100C300080200860FFE7FFE7FFE7FFE704984068D0
:100C4000D0B1FFE7FFF70EFD0390FFE741F2000090
:100C5000C4F202000068800300280CD4FFE7FFF70D
:100C600001FD0399401A652804D3FFE703208DF89E
:100C7000170098E2EAE719E0FFF7F4FC0390FFE7BA
:100C800041F20000C4F202000068800300280CD585
:100C9000FFE7FFF7E7FC0399401A652804D3FFE755
:100CA00003208DF817007EE2EAE7FFE7FFE7FFE7A2
:100CB000049800788007002840F18D80FFE741F21A
:100CC0000400C4F20200006810F00C0F13D0FFE71C
:100CD00041F20400C4F20200006800F00C00082891
:100CE00029D1FFE741F20400C4F202000068C0030A
:100CF000002820D4FFE741F20000C4F2020000689F
:100D00008007002809D5FFE704980069012804D06E
:100D1000FFE701208DF8170045E241F20001C4F21F
:100D20000201086820F0F800049A526940EAC20003
:100D30000860FFE74EE00498006958B3FFE7002120
:100D4000C4F2422101200860FFF78CFC0390FFE70A
:100D500041F20000C4F202000068800700280CD4B1
:100D6000FFE7FFF77FFC0399401A032804D3FFE74E
:100D700003208DF8170016E2EAE741F20001C4F201
:100D80000201086820F0F800049A526940EAC200A3
:100D900008601EE00021C4F2422100200860FFF735
:100DA00061FC0390FFE741F20000C4F2020000681A
:100DB000800700280CD5FFE7FFF754FC0399401A81
:100DC000032804D3FFE703208DF81700EBE1EAE7DF
:100DD000FFE7FFE7FFE7049800780007002848D501
:100DE000FFE70498806918B3FFE740F28041C4F23E
:100DF000422101200860FFF735FC0390FFE741F234
:100E00002400C4F202000068800700280CD4FFE729
:100E1000FFF728FC0399401A032804D3FFE70320B7
:100E20008DF81700BFE1EAE7012001F0C1F81FE0EB
:100E300040F28041C4F2422100200860FFF712FC1A
:100E40000390FFE741F22400C4F20200006880072B
:100E500000280CD5FFE7FFF705FC0399401A03288B
:100E600004D3FFE703208DF817009CE1EAE7FFE7D2
:100E7000FFE7049800784007002840F1D880FFE79A
:100E800000208DF8070041F21C00C4F20200006847
:100E9000C000002813D4FFE7FFE741F21C00C4F2B2
:100EA0000200016841F080510160006800F080504C
:100EB00000900098FFE701208DF80700FFE747F258
:100EC0000000C4F200000068C005002822D4FFE73B
:100ED00047F20001C4F20001086840F48070086025
:100EE000FFF7C0FB0390FFE747F20000C4F20000E9
:100EF0000068C00500280CD4FFE7FFF7B3FB039997
:100F0000401A652804D3FFE703208DF817004AE153
:100F1000EAE7FFE7FFE70498C068012809D1FFE787
:100F200041F22001C4F20201086840F001000860AB
:100F300031E00498C06868B9FFE741F22001C4F2CB
:100F40000201086820F001000860086820F0040031
:100F500008601FE00498C06805280DD1FFE741F242
:100F60002001C4F20201086840F00400086008682B
:100F700040F0010008600CE041F22001C4F20201DF
:100F8000086820F001000860086820F0040008608C
:100F9000FFE7FFE7FFE7FFE70498C068E0B1FFE77E
:100FA000FFF760FB0390FFE741F22000C4F202006C
:100FB0000068800700280ED4FFE7FFF753FB039972
:100FC000401A41F28931884204D3FFE703208DF8AB
:100FD0001700E8E0E8E71BE0FFF744FB0390FFE7BA
:100FE00041F22000C4F202000068800700280ED5FC
:100FF000FFE7FFF737FB0399401A41F28931884236
:1010000004D3FFE703208DF81700CCE0E8E7FFE703
:101010009DF80700012809D1FFE741F21C01C4F245
:101020000201086820F080500860FFE7FFE704989D
:10103000C069002800F0B380FFE741F20400C4F269
:101040000200006800F00C00082800F08280FFE732
:101050000498C06902285CD1FFE76021C4F24221F4
:1010600000200860FFF7FEFA0390FFE741F200005E
:10107000C4F202000068800100280CD5FFE7FFF7EA
:10108000F1FA0399401A032804D3FFE703208DF8EF
:10109000170088E0EAE70498006AB0F5803F0CD1B9
:1010A000FFE741F20401C4F20201086820F40030B5
:1010B000049A926810430860FFE741F20401C4F209
:1010C0000201086820F47410049B1A6A5B6A1A43D0
:1010D000104308606021C4F2422101200860FFF73C
:1010E000C1FA0390FFE741F20000C4F20200006879
:1010F000800100280CD4FFE7FFF7B4FA0399401AE7
:10110000032804D3FFE703208DF817004BE0EAE73C
:101110001EE06021C4F2422100200860FFF7A2FA1D
:101120000390FFE741F20000C4F202000068800172
:1011300000280CD5FFE7FFF795FA0399401A03281A
:1011400004D3FFE703208DF817002CE0EAE7FFE760
:1011500024E00498C069012804D1FFE701208DF83C
:10116000170020E041F20400C4F20200006802907F
:10117000029800F480300499096A884208D1FFE798
:10118000029800F470100499496A884204D0FFE77D
:1011900001208DF8170006E0FFE7FFE7FFE70020DA
:1011A0008DF81700FFE79DF8170006B080BD00001E
:1011B00080B582B00190019800F01AFF02B080BDA6
:1011C00084B00290019100200090FFE7029890F80F
:1011D0003C00012804D1FFE702208DF80F0044E015
:1011E0000299012081F83C00FFE7FFE7009820F01A
:1011F000FF000199C96808430090009820F44070EE
:101200000199896808430090009820F48060019952
:10121000496808430090009820F40060019909682B
:1012200008430090009820F4805001990969084310
:101230000090009820F400500199496908430090FB
:10124000009820F480400199C969084300900098F3
:10125000029909684864FFE70299002081F83C0080
:10126000FFE700208DF80F00FFE79DF80F0004B0A6
:101270007047000085B003900291FFE7039890F853
:101280003C00012804D1FFE702208DF813005BE049
:101290000399012081F83C00FFE7FFE70399022052
:1012A00081F83D0003980068406801900398006849
:1012B00080680090019820F0700001900298016809
:1012C00001980843019001980399096848600398C0
:1012D000006842F60041C4F20101884218D0FFE7DD
:1012E00003980068B0F1804F12D0FFE703980068C0
:1012F00040F20041C4F20001884209D0FFE70398A0
:10130000006840F60001C4F2000188420ED1FFE7F8
:10131000009820F0800000900298416800980843EF
:1013200000900098039909688860FFE703990120FD
:1013300081F83D00FFE70399002081F83C00FFE7BA
:1013400000208DF81300FFE79DF8130005B07047EB
:1013500080B58AB008900791079828B9FFE70898E8
:1013600090F8420005901CE00798042805D1FFE79B
:10137000089890F84300049010E00798082805D1D9
:10138000FFE7089890F84400039004E0089890F86C
:1013900045000390FFE703980490FFE70498059049
:1013A000FFE70598012804D0FFE701208DF827000A
:1013B00070E0079828B9FFE70899022081F84200F9
:1013C0001EE00798042806D1FFE70899022081F85B
:1013D0004300029012E00798082806D1FFE7089919
:1013E000022081F84400019005E00899022081F86C
:1013F00045000190FFE701980290FFE70298FFE7A0
:10140000089800680799042200F0F8FE089801681F
:10141000486C40F4004048640898006842F6004177
:10142000C4F20101884218D0FFE708980068B0F1C3
:10143000804F12D0FFE70898006840F20041C4F2E4
:101440000001884209D0FFE70898006840F60001D3
:10145000C4F20001884212D1FFE708980068806852
:1014600000F0070006900698062807D0FFE70898C6
:101470000168086840F001000860FFE706E008988E
:101480000168086840F001000860FFE700208DF85F
:101490002700FFE79DF827000AB080BD80B582B025
:1014A0000090009820B9FFE701208DF807003FE089
:1014B000009890F83D0040B9FFE70099002081F8BE
:1014C0003C00009800F038F8FFE70099022081F80E
:1014D0003D00009951F8040B00F0F0FD0099012047
:1014E00081F84600FFE70099012081F83E0000994D
:1014F00081F83F00009981F84000009981F841008F
:10150000FFE7FFE70099012081F84200009981F888
:101510004300009981F84400009981F84500FFE7F5
:101520000099012081F83D0000208DF80700FFE7B9
:101530009DF8070002B080BD82B00190019800685C
:1015400042F60041C4F20101884210D1FFE7FFE7F3
:1015500041F21800C4F20200016841F40061016028
:10156000006800F4006000900098FFE7FFE702B019
:101570007047000080B586B00490039100208DF87C
:101580000B00FFE7049890F83C00012804D1FFE726
:1015900002208DF81700ABE00499012081F83C008F
:1015A000FFE7FFE70499022081F83D0004980068F6
:1015B00080680190019820F077000190019820F454
:1015C0007F40019001980499096888600398006839
:1015D0000090002872D0FFE7009810286ED0FFE737
:1015E000009820286AD0FFE70098302866D0FFE7EF
:1015F0000098402855D0FFE70098502837D0FFE7E3
:101600000098602840D0FFE7009870280BD0FFE7D3
:101610000098B0F5805F05D0FFE70098B0F5005F57
:1016200016D052E055E004980068039B5A68996808
:10163000DB6800F0FFFD0498006880680190019865
:1016400040F077000190019804990968886040E0B3
:1016500004980068039B5A689968DB6800F0EAFD0B
:1016600004980168886840F48040886031E00498FC
:101670000068039A5168D26800F098FF04980068E7
:10168000502100F0F1FD24E004980068039A5168AD
:10169000D26800F0B3FF04980068602100F0E4FD18
:1016A00017E004980068039A5168D26800F07EFF42
:1016B00004980068402100F0D7FD0AE00498006813
:1016C0000399096800F0D0FD03E001208DF80B00BC
:1016D000FFE70499012081F83D00FFE7049900200D
:1016E00081F83C00FFE79DF80B008DF81700FFE73D
:1016F0009DF8170006B080BD80B58AB00990002023
:1017000008900790069005900998006842F60041FD
:10171000C4F2010188424FD1FFE7FFE741F2180010
:10172000C4F20200016841F004010160006800F0A9
:10173000040004900498FFE7FFE741F21800C4F2A8
:101740000200016841F008010160006800F0080033
:1017500003900398FFE74FF460700590022000901B
:101760000690089040F60000C4F2010005A901911E
:10177000FEF7BCFD009801990122059206900890A1
:1017800040F60040C4F20100FEF7B0FDFFE704217F
:10179000C4F2010108680290029820F0C000029093
:1017A000029840F0E0600290029840F04000029001
:1017B00002980860FFE7FFE70AB080BD80B586B0F9
:1017C00004900391029200208DF80700FFE704982F
:1017D00090F83C00012804D1FFE702208DF81700A3
:1017E00089E00499012081F83C00FFE7FFE70298B7
:1017F00000900C2800F270800099DFE801F0076D7E
:101800006D6D206D6D6D3A6D6D6D530004980068BF
:10181000039900F03FFD04980168886940F00800D2
:10182000886104980168886920F004008861039841
:1018300002690498016888691043886150E004983F
:101840000068039900F08EFD04980168886940F4EF
:101850000060886104980168886920F4806088616C
:101860000398026904980168886940EA0220886147
:1018700036E004980068039900F0E0FD04980168E0
:10188000C86940F00800C86104980168C86920F080
:101890000400C8610398026904980168C86910438C
:1018A000C8611DE004980068039900F033FE0498B5
:1018B0000168C86940F40060C86104980168C8699B
:1018C00020F48060C8610398026904980168C869BF
:1018D00040EA0220C86103E001208DF80700FFE71D
:1018E000FFE70499002081F83C00FFE79DF807001E
:1018F0008DF81700FFE79DF8170006B080BD0000C7
:1019000080B582B00090009820B9FFE701208DF8E3
:1019100007003FE0009890F83D0040B9FFE70099CC
:10192000002081F83C00009800F038F8FFE70099AB
:10193000022081F83D00009951F8040B00F0BEFB35
:101940000099012081F84600FFE70099012081F805
:101950003E00009981F83F00009981F8400000990D
:1019600081F84100FFE7FFE70099012081F842007C
:10197000009981F84300009981F84400009981F8AA
:101980004500FFE70099012081F83D0000208DF817
:101990000700FFE79DF8070002B080BD81B000900E
:1019A00001B0704780B58AB008900791079828B9B0
:1019B000FFE7089890F83E0005901CE0079804287F
:1019C00005D1FFE7089890F83F00049010E00798D1
:1019D000082805D1FFE7089890F84000039004E03C
:1019E000089890F841000390FFE703980490FFE700
:1019F00004980590FFE70598012804D0FFE701202F
:101A00008DF827007AE0079828B9FFE708990220A7
:101A100081F83E001EE00798042806D1FFE70899E8
:101A2000022081F83F00029012E00798082806D1B2
:101A3000FFE70899022081F84000019005E008992D
:101A4000022081F841000190FFE701980290FFE732
:101A50000298FFE7089800680799012200F0B2FB9E
:101A60000898006842F60041C4F20101884207D19B
:101A7000FFE708980168486C40F400404864FFE7BD
:101A80000898006842F60041C4F20101884218D06B
:101A9000FFE708980068B0F1804F12D0FFE7089880
:101AA000006840F20041C4F20001884209D0FFE71B
:101AB0000898006840F60001C4F20001884212D183
:101AC000FFE708980068806800F007000690069815
:101AD000062807D0FFE708980168086840F0010071
:101AE0000860FFE706E008980168086840F0010018
:101AF0000860FFE700208DF82700FFE79DF827002A
:101B00000AB080BD80B582B00090009820B9FFE790
:101B100001208DF8070040E00098806908B1FFE7D8
:101B200000E0FFE7009890F8410040B9FFE7009916
:101B3000002081F84000009800F034F8FFE7009999
:101B4000242081F8410000980168C86820F4005002
:101B5000C860009800F07CFD00980168086920F4D6
:101B60009040086100980168486920F02A004861A7
:101B700000980168C86840F40050C86000990020CF
:101B80004864009A202182F84110009A82F842109D
:101B9000009948638DF80700FFE79DF8070002B041
:101BA00080BD000080B58EB00D9000200C900B9091
:101BB0000A9009900D98006843F60001C4F20101F3
:101BC000884248D1FFE7FFE741F21800C4F2020063
:101BD000016841F480410160006800F48040089091
:101BE0000898FFE7FFE741F21800C4F2020001681D
:101BF00041F008010160006800F0080007900798B4
:101C0000FFE74020099002200A9003200C9040F644
:101C10000040C4F20100029009A90391FEF766FB9F
:101C2000029803998022099200220A920B92FEF7F1
:101C30005DFBFFE70421C4F20101086806900698E5
:101C400040F0E0600690069840F004000690069888
:101C50000860FFE740E00D98006844F20041C4F2DC
:101C60000001884237D1FFE7FFE741F21C00C4F2D0
:101C70000200016841F400310160006800F40030A6
:101C800005900598FFE7FFE741F21800C4F2020053
:101C9000016841F004010160006800F00400049054
:101CA0000498FFE70420099002200A9003200C907A
:101CB00040F60000C4F20100009009A90191FEF76E
:101CC00015FB009801990822099200220A920B92B2
:101CD000FEF70CFBFFE7FFE70EB080BDFFE7FEE776
:101CE00080B58AB000200990089007900690FFE721
:101CF00041F21800C4F20200016841F020010160C5
:101D0000006800F0200005900598FFE7FFE741F22A
:101D10001800C4F20200016841F00401016000688B
:101D200000F0040004900498FFE7FFE741F2180078
:101D3000C4F20200016841F008010160006800F08F
:101D4000080003900398FFE740F60040C4F201004A
:101D500002904FF44041009100220192FEF76AFC8C
:101D6000009A019902980692012207920891022195
:101D7000099106A9FEF7BAFA0AB080BD80B598B0FD
:101D800000210191179116911591149113911291BF
:101D9000119110910F910E910D910C910B910A914F
:101DA000099108910791069105910491039140F2E0
:101DB0007000C2F20000029042F60042C4F201023A
:101DC00002604160816040F2CF22C26001614161E6
:101DD00080218161FFF762FB18B1FFE7FEF75CFA33
:101DE000FFE74FF48050149040F27000C2F2000000
:101DF00014A9FFF7BFFB18B1FFE7FEF74DFAFFE7A5
:101E000040F27000C2F20000FFF77AFD18B1FFE760
:101E1000FEF742FAFFE700201290139040F27000A4
:101E2000C2F2000012A9FFF725FA18B1FFE7FEF78A
:101E300033FAFFE760200B9000220C920D920E9275
:101E40000F921092119240F27000C2F200000BA9A2
:101E5000FFF7B4FC18B1FFE7FEF71EFAFFE740F208
:101E60007000C2F200000BA90422FFF7A7FC18B112
:101E7000FFE7FEF711FAFFE70020039004900590BA
:101E80001A21069107904FF4005108910A9040F2F0
:101E90007000C2F2000003A9FFF792F918B1FFE742
:101EA000FEF7FAF9FFE740F27000C2F20000FFF718
:101EB00023FC18B080BD000080B582B040F2B800AD
:101EC000C2F20000019043F60001C4F2010101607A
:101ED0004FF4E131416000218160C16001610C2259
:101EE00042618161C161FFF70DFE18B1FFE7FEF7A6
:101EF000D3F9FFE702B080BD80B582B040F2001098
:101F0000C2F20000019044F20041C4F200010160FD
:101F10004FF4E131416000218160C16001610C2218
:101F200042618161C161FFF7EDFD18B1FFE7FEF786
:101F3000B3F9FFE702B080BDFFE7FEE7FFE7FEE78A
:101F400088B0079006910592079800F0070004906A
:101F50000498C0F10700052803D3FFE7042001908F
:101F600004E00498C0F107000190FFE70198039096
:101F700004980430062803D8FFE70020009003E00F
:101F8000049803380090FFE70098029006980399A0
:101F9000012202FA01F101390840029B984005999B
:101FA0009A40013A1140084308B07047704700005A
:101FB00082B00190019840F20001C2F2000109686C
:101FC000C90844F6D352C1F26202A1FB0221890979
:101FD00048430090FFE700BFFFE70098411E0091D3
:101FE0000028F8D1FFE702B07047000070470000FA
:101FF00080B582B0009000980138B0F1807F03D3A3
:10200000FFE70120019019E0009801384EF2140119
:10201000CEF2000108604FF0FF300F2100F080FB8E
:102020004EF21801CEF20001002008604EF21002BC
:10203000CEF20002072111600190FFE7019802B083
:1020400080BD000080B5FEF713FB80BD80B590B069
:1020500006A800902821FEF7B7F800980023059302
:102060000493039302930193012206924FF480316B
:10207000079108930A9202220D920E914FF4E011FB
:102080000F91FEF757FD18B1FFE7FEF705F9FFE7DF
:102090000F20019002210291002003904FF48062F2
:1020A0000492059001A8FEF791FB18B1FFE7FEF737
:1020B000F3F8FFE710B080BD7047000083B00290D6
:1020C0000191029800680090029842F60041C4F223
:1020D0000101884215D0FFE70298B0F1804F10D07F
:1020E000FFE7029840F20041C4F20001884208D0A4
:1020F000FFE7029840F60001C4F2000188420AD1CD
:10210000FFE7009820F07000009001984168009867
:1021100008430090FFE7029842F60041C4F2010133
:10212000884215D0FFE70298B0F1804F10D0FFE74A
:10213000029840F20041C4F20001884208D0FFE753
:10214000029840F60001C4F2000188420AD1FFE77C
:10215000009820F4407000900198C16800980843EE
:102160000090FFE7009820F080000199496908433A
:102170000090009802990860019880680299C862EE
:102180000198006802998862029842F60041C4F200
:102190000101884205D1FFE70198006902990863AF
:1021A000FFE702990120486102980069C00730B139
:1021B000FFE70299086920F001000861FFE703B01A
:1021C0007047000084B0039002910192029800F0E1
:1021D0001F01012088400090009A0399086A9043EB
:1021E00008620198029901F01F0100FA01F20399B7
:1021F000086A1043086204B07047000084B003907E
:1022000002910192029800F00F0104208840009092
:10221000009A0399086A904308620198029901F0B4
:102220000F0100FA01F20399086A1043086204B032
:102230007047000085B004900391029201930498C6
:1022400080680090009820F47F40009003980299E5
:10225000019A41EA02210143009808430090009846
:102260000499886005B0704783B00290019102988C
:1022700080680090009820F070000090019800990C
:10228000084340F00700009000980299886003B06E
:102290007047000085B0049003910498006A019093
:1022A0000499086A20F001000862049840680090D0
:1022B000049880690290029820F0700002900298C1
:1022C00020F00300029003980168029808430290EE
:1022D000019820F00200019003988168019808435A
:1022E0000190049842F60041C4F2010188420ED1E7
:1022F000FFE7019820F0080001900398C168019859
:1023000008430190019820F004000190FFE7049831
:1023100042F60041C4F20101884213D1FFE7009860
:1023200020F480700090009820F4007000900398D2
:102330004169009808430090039881690098084318
:102340000090FFE70098049948600298049988611A
:10235000039840680499486301980499086205B09D
:102360007047000085B0049003910498006A0190C2
:102370000499086A20F010000862049840680090F0
:10238000049880690290029820F4E040029002983C
:1023900020F44070029003980168029840EA0120FE
:1023A0000290019820F02000019003988168019824
:1023B00040EA01100190049842F60041C4F2010184
:1023C00088420FD1FFE7019820F080000190039828
:1023D000C168019840EA01100190019820F0400086
:1023E0000190FFE7049842F60041C4F201018842DF
:1023F00015D1FFE7009820F480600090009820F449
:102400000060009003984169009840EA81000090C4
:1024100003988169009840EA81000090FFE70098E6
:102420000499486002980499886103984068049967
:10243000886301980499086205B0704785B00490DC
:1024400003910498006A01900499086A20F480704E
:1024500008620498406800900498C069029002984D
:1024600020F070000290029820F003000290039880
:102470000168029808430290019820F400700190CE
:1024800003988168019840EA01200190049842F67F
:102490000041C4F2010188420FD1FFE7019820F406
:1024A000006001900398C168019840EA0120019002
:1024B000019820F480600190FFE7049842F6004103
:1024C000C4F20101884215D1FFE7009820F4805042
:1024D0000090009820F40050009003984169009803
:1024E00040EA0110009003988169009840EA0110C9
:1024F0000090FFE700980499486002980499C86129
:10250000039840680499C86301980499086205B06B
:102510007047000085B0049003910498006A019010
:102520000499086A20F4805008620498406800907A
:102530000498C0690290029820F4E040029002984A
:1025400020F44070029003980168029840EA01204C
:102550000290019820F4005001900398816801983E
:1025600040EA01300190049842F60041C4F20101B2
:1025700088420BD1FFE7009820F480400090039838
:102580004169009840EA81100090FFE700980499A3
:10259000486002980499C8610398406804990864E7
:1025A00001980499086205B07047000085B0049056
:1025B000039102920498006A00900499086A20F03E
:1025C00001000862049880690190019820F0F000F1
:1025D00001900299019840EA01100190009820F0C2
:1025E0000A0000900399009808430090019804990C
:1025F000886100980499086205B0704785B004901E
:10260000039102920498006A00900499086A20F0ED
:1026100010000862049880690190019820F47040CD
:1026200001900299019840EA01300190009820F051
:10263000A00000900399009840EA011000900198D2
:102640000499886100980499086205B070470000F9
:1026500080B584B0039003980068006920F440506E
:10266000039A1168D26810430861039988680A695F
:10267000496910430843029003980068C06841F21A
:102680000C6188430299084303990968C86003985C
:102690000068406920F44070039A11689269104301
:1026A00048610398006843F60001C4F201018842C2
:1026B00004D1FFE7FEF7CEF9019003E0FEF7B8F989
:1026C0000190FFE7019819214843039A1168526865
:1026D0009200B0FBF2FC48F21F52C5F2EB12ACFBC9
:1026E00002304309642003FB10CC322000EB0C10B5
:1026F000A0FB0202F02000EA521000EB0310C2F32C
:1027000043121044886004B080BD0000FFE7FEE77C
:102710004EF60C50CEF200000068C0F30220704765
:1027200082B08DF8070000919DF9070000280AD4B7
:10273000FFE7009800019DF907104EF20042CEF22B
:10274000000288540BE0009800019DF8071001F08A
:102750000F014EF61452CEF200028854FFE702B089
:102760007047000083B00290029800F007000090CC
:102770004EF60C51CEF200010868019001984FF618
:10278000FF02104001900198009A40EA02200022C6
:10279000C0F2FA52104301900198086003B07047EC
:1027A00080B586B0002003900590FDF76FFFFFF71E
:1027B0004DFCFFF795FAFFF7E1FAFFF77DFBFFF716
:1027C0009BFB039A40F60040C4F2010000904FF4D6
:1027D0000041FDF72FFF0098039A4FF48041FDF769
:1027E00029FF039940F27000C2F200000290FFF747
:1027F000D9F803990298FEF7ABFD029804210191E4
:10280000FFF7D0F801990298FEF7A2FD029903980C
:102810000B684FF4F0729A634FF4B4720492096833
:102820004863FFE740F60040C4F201000421FDF7D1
:10283000EDFE4FF4FA70FDF737FDF3E700000000FE
:102840000000000001020304060708090000000060
:102850000102030402030405060708090A0B0C0D14
:102860000E0F101001020000882800080000002050
:10287000100000002801000898280008100000201F
:10288000400700004401000800127A000100000027
:08289000100000000000000030
:04000005080000ED02
:00000001FF
