:020000040800F2
:10000000800B002079020008F13C00083134000820
:10001000ED3C000871040008B55300080000000022
:10002000000000000000000000000000E93F0008A0
:100030008104000800000000E53F0008ED3F0008D3
:10004000930200089302000893020008930200083C
:10005000930200089302000893020008930200082C
:100060009302000893020008930200087504000838
:10007000930200089302000893020008930200080C
:100080009302000800000000930200089302000899
:1000900093020008930200089302000893020008EC
:1000A00093020008930200089302000893020008DC
:1000B00093020008930200089302000893020008CC
:1000C00093020008930200089302000893020008BC
:1000D0009302000893020008A95300089302000845
:1000E000930200089302000893020008930200089C
:1000F0009302000893020008930200080000000029
:1001000000000000930200080000000093020008B5
:100110009302000800000000930200089302000808
:10012000930200089302000893020008930200085B
:100130009302000800000000000000009302000885
:100140009302000893020008000000000000000075
:10015000000000000000000000000000000000009F
:1001600000000000000000000000000093020008F2
:1001700093020008000000000000000000000000E2
:1001800000000000930200080000000000000000D2
:10019000000000000000000000000000000000005F
:1001A0000000000000000000930200089302000815
:1001B0009302000893020008930200080000000068
:1001C0000000000093020008000000000000000092
:1001D000930200089302000800F002F800F03CF8D7
:1001E0000AA090E8000C82448344AAF10107DA4592
:1001F00001D100F031F8AFF2090EBAE80F0013F0A8
:10020000010F18BFFB1A43F0010318477455000093
:1002100094550000103A24BF78C878C1FAD8520724
:1002200024BF30C830C144BF04680C607047000070
:100230000023002400250026103A28BF78C1FBD8EF
:10024000520728BF30C148BF0B6070471FB505F08B
:100250004FFA1FBD10B510BD00F0D0F81146FFF7E2
:10026000F5FF05F0A9F800F0EEF803B4FFF7F2FF90
:1002700003BC00F0F5F80000094880470948004732
:10028000FEE7FEE7FEE7FEE7FEE7FEE7FEE7FEE746
:10029000FEE7FEE704480549054A064B70470000A3
:1002A000F13F0008D901000880050020800B0020E4
:1002B000800700208007002053EA020C00F06980CC
:1002C0002DE9F04B4FF00006002B1FBFB3FA83F56A
:1002D00003FA05F424FA05F65E4012BF1643B2FA9B
:1002E00082F502FA05F4C5F120051EBF22FA05FCCD
:1002F00044EA0C04203556EA044C4FEA144418BF73
:10030000641C4FF000084FF00009904271EB030CA1
:1003100039D3002919BFB1FA81F701FA07F6B0FA0B
:1003200080F700FA07F6C7F120071EBF20FA07FC86
:1003300046EA0C062037B6FBF4FCA7EB0507103F96
:1003400007F01F0BCBF120062CFA06F60CFA0BFB7C
:1003500044BFB3460026202FA4BF5E464FF0000BDB
:100360005BEA060C08BF4FF0010B19EB0B0948EBD9
:100370000608ABFB027C06FB02CC0BFB03CCC01BCC
:1003800071EB0C01C1E70B46024641464846BDE809
:10039000F08B13B5084318BF4FF0FF300146AFF3A1
:1003A0000080BDE81C4070474FF0000200B51346C6
:1003B00094469646203922BFA0E80C50A0E80C5085
:1003C000B1F12001BFF4F7AF090728BFA0E80C5036
:1003D00048BF0CC05DF804EB890028BF40F8042B2F
:1003E00008BF704748BF20F8022B11F0804F18BF9C
:1003F00000F8012B7047704770477047754600F052
:100400002BF8AE4605006946534620F007008546A6
:1004100018B020B5FFF73EFFBDE820404FF00006C2
:100420004FF000074FF000084FF0000BAC46ACE86F
:10043000C009ACE8C009ACE8C009ACE8C00921F0CB
:1004400007018D46704710B50446AFF30080204683
:10045000BDE81040FFF709BF0048704710000020BA
:1004600001491820ABBEFEE72600020070470000DD
:10047000FEE7000040F2C000C2F2000000F082B8C7
:1004800070470000EFF3108072B600BFFEE7000077
:10049000002804BF0120704780B590F8251002297C
:1004A00024D10168D0E910CE826C0B6823F00103DF
:1004B0000B600B6823F00E030B60116821F4807150
:1004C00011600EF01F01012202FA01F1CCF80410B4
:1004D000D0E913215160416D31B10A6822F4807274
:1004E0000A60D0E916124A60002102E00421C163CB
:1004F0000121012280F82520002280F82420BDE877
:10050000804008467047000080B590F82510022909
:100510002ED10168D0E910CE826C0B6823F0010364
:100520000B600B6823F00E030B60116821F48071DF
:1005300011600EF01F02012101FA02F2CCF8042032
:10054000D0E913325A60426D32B1136823F48073DC
:100550001360D0E91623536080F82510826B0021C8
:1005600080F824100AB190470021084680BD00BFE2
:100570000421C1630121002280F8251080F8242085
:10058000084680BDB0B5D0E910C30268DCF80010A1
:1005900003F01F030424D2F800E09C400C4218BF73
:1005A0001EF0040522D102249C400C4218BF1EF00C
:1005B000020529D1D940090724D51EF0080108BF3A
:1005C000B0BD116821F00E011160012101FA03F2A2
:1005D000CCF80420C16380F82510416B002280F81C
:1005E000242079B1BDE8B040084700BF11688906F2
:1005F00003D4116821F004011160CCF80440016BB0
:100600000029EFD1B0BD00BF1168890606D411687A
:1006100021F00A011160012180F82510CCF8044076
:10062000C16A0022002980F82420DBD1EAE700001B
:1006300000284FF0010100F096802DE9F04F40F2C4
:10064000000CC4F2020C02684FF6F8330CF5816E10
:10065000CBF6FD73724538BF03F580634CF6CD448D
:100660001344CCF6CC44A3FB04380CF580656FF042
:100670000307D0E902BAD0F810903CBF0025C4F2BD
:10068000020507EA98076FF00703C0E91057022533
:1006900053FA82F380F82550A3FB0434156847F61B
:1006A000F07325EA030343EA0B0343EA0A034569AF
:1006B00043EA090386692B43C5693343066A2B4322
:1006C000334313600CF50263724538BF0CF50063C9
:1006D00072454FF0060202EB141238BF22093B4468
:1006E0000CF5086702F01F0240F6840C01FA02F2D2
:1006F000BBF5804FC4F2020CC7648364026505D168
:10070000002141601960CCF800201DE0416801F033
:100710007F0E013903294FF00001C3F800E0CCF847
:10072000002011D8AEF101020CEB820747F87C1FC4
:1007300002F01F01012202FA01F30CF1BC0239465A
:10074000CCF8C03002E000BF0022002300F1540CBE
:100750008CE80E0000210122C16380F8252080F87A
:100760002410BDE8F04F0846704700002DE9F04125
:1007700090F824C0BCF1010F43D04FF0010C80F879
:1007800024C090F825C0BCF1010F37D14FF0020C06
:1007900080F825C04FF0000CC0F83CC0D0F800C075
:1007A00000F14C0E9EE83040DCF80060BEF1000F16
:1007B00026F00106CCF8006065601CBFD0E9164544
:1007C0006560D0E91076012506F01F068468B54003
:1007D000D0F830807D60CCF804300B46102C04BF7C
:1007E00013460A46CCF80830CCF80C20DCF8001090
:1007F000B8F1000F08D041F00E010DE0002180F8A3
:1008000024100220BDE8F08121F00401CCF8001092
:10081000DCF8001041F00A01CCF80010806C01688F
:10082000C90303D5016841F480710160BEF1000F76
:1008300005D0DEF8000040F48070CEF80000DCF84F
:10084000000040F00100CCF800000020BDE8F0817D
:10085000B0B5044600F020F9054640F20000C2F2AF
:1008600000004068611C18BF044400BF00F014F988
:10087000401BA042FAD3B0BD2DE9F04F85B08E46A3
:1008800041F20042C4F60002DEF800400621904228
:10089000039008BF0521002C009100F0E58003982B
:1008A000002500F138424FEAB223009801270026C4
:1008B0004FF00008052B38BF18460090CDF808E02F
:1008C0000EE000BFDEF8004008F1010834FA07F13D
:1008D00006F1020607F1010705F1040500F0C480E6
:1008E000A7F1010C012000FA0CF314EA0309E9D086
:1008F000DEF804A00AF0030BABF10104012C19D8B7
:1009000003990320D1F808E000FA06F202982EEAD3
:100910000202C468DDF808E0B44022438A604A68F5
:100920009A43CAF3001303FA0CF31A430B464A60C6
:1009300010E000BF039BBBF1030F0BD1DEF80820D2
:10094000012A07D14FF0030B0BFA06F2D0433246CF
:100950002BE000BF4FEA4800DA6801900320DEF880
:10096000084000FA06F39A43D84304FA06F31A4300
:10097000039BBBF1020FDA6016D16FF0030101EAAD
:100980005C021A44D2F820A005F01C040F21DEF806
:100990001030A1402AEA0101A3401943039B1162D0
:1009A000DEF804A00AF0030B019A19680BFA02F2B0
:1009B000014011431960DDF808E01AF4403F3FF4AC
:1009C00081AF41F26000C4F2020001684FF6084AAC
:1009D00041F0010101600168CFF6FF7A01F00101E9
:1009E000049104992CF0030140F2004CC4F2010C74
:1009F000614405F00C030F2051F80A2000FA03F4BB
:100A00000098A24300FA03F31A4341F80A20DCF8E5
:100A10000810DEF8042041EA090340F20C40D40239
:100A200058BF21EA0903CCF80830C4F2010001687C
:100A3000940241EA090358BF21EA09030360DCF884
:100A40000410940341EA090358BF21EA0903CCF8D2
:100A50000430DCF80010D20341EA090358BF21EA50
:100A60000903CCF800302DE705B0BDE8F08F000099
:100A70000069084018BF012070470000426902EA7F
:100A80000103914341EA0341816170471823002A21
:100A900008BF2823C150704740F27850C2F20000CE
:100AA0000068704740F2000040F27851C2F2000046
:100AB000C2F2000140680A681044086070470000F4
:100AC00080B5032000F088F80F2000F009F8002816
:100AD0001CBF012080BD00F029F8002080BD00006F
:100AE00070B540F20006C2F200067168E1B104463A
:100AF00040F20800C2F200004FF47A720068B2FBC4
:100B0000F1F1B0FBF1F000F07BFF0F2C4FF001058D
:100B100008D838B94FF0FF3021460022002500F0F8
:100B20002FF83460284670BD012070BD82B041F2BC
:100B30005800C4F20200816841F0010181608168BF
:100B400001F0010101910199016841F080510160BA
:100B5000006800F080500090009802B000F0E0B80B
:100B6000002848BF704700F01F01012202FA01F17E
:100B70004EF200124009CEF2000242F820107047F7
:100B800010B54EF60C5CCEF2000CDCF80030C3F36E
:100B9000022E8EF00704042C28BF0424BEF10303A8
:100BA0004FF0FF3E0EFA04F438BF0023A1439940F2
:100BB0000EFA03F39A43114300F00F02043A624421
:100BC00009010C3200F16043B0F1FF3FC8BF03F5EB
:100BD0006442117010BD00004EF60C51CEF20001BF
:100BE0000A684FF6FF031A4060F30A2242F0806061
:100BF00040F0FD7008607047B0F5007F42D00028DB
:100C000040F0808047F21400C4F2000050F8141C39
:100C1000C26E01F4C06122F48072B1F5806FC266C9
:100C20002ED150F8141C012262F34A2140F8141C02
:100C300040F20801C2F200010968322251434DF628
:100C40008362C4F21B32A1FB0212910C02685205AE
:100C500011D54A1C0FD0026852050CD559B1026853
:100C6000520508D5012906D00268520503D502298C
:100C7000A1F10401EAD10068400544BF0320704798
:100C80000020704747F21400C4F2000050F8141C12
:100C9000C26E01F4C06142F48072B1F5806FC26629
:100CA000EED150F8141C012262F34A2140F8141CC2
:100CB00040F20801C2F200010968322251434DF6A8
:100CC0008362C4F21B32A1FB0212910C026852052E
:100CD00011D54A1C0FD0026852050CD559B10268D3
:100CE000520508D5012906D00268520503D502290C
:100CF000A1F10401EAD10068400544BF0320704718
:100D0000BEE700BF47F21400C4F2000050F8141C04
:100D1000022262F34A2140F8141C002070470000B0
:100D200047F20800C4F20000016841F4804101600C
:100D3000704700002DE9F04182B00446807841F20E
:100D400088060007C4F2020602D400202FE000BF8C
:100D500056F8300C10F080580BD156F8300C40F09B
:100D6000805046F8300C56F8300C00F0805001905E
:100D7000019847F20007C4F20007386840F4807019
:100D80003860FFF789FE05463868C00500F1D68057
:100D9000FFF782FE401B0228F6D90320B8F1000FAE
:100DA00005D156F8301C21F0805146F8301C2168DE
:100DB000CA0713D18A0719D44A071FD40A0725D4B2
:100DC0008A062BD44A0631D40A0637D4CA053DD444
:100DD0008A0543D44A0549D457E000BF32686368A6
:100DE00022F003021A4332608A07E5D53268A3680D
:100DF00022F00C021A4332604A07DFD53268E368FA
:100E000022F030021A4332600A07D9D532682369CA
:100E100022F0C0021A4332608A06D3D53268636971
:100E200022F440621A4332604A06CDD53268A36983
:100E300022F440521A4332600A06C7D53268E36989
:100E400022F440421A433260CA05C1D53268236A8F
:100E500022F440321A4332608A05BBD53268636A95
:100E600022F440221A4332604A050ED53268A36A42
:100E700022F440121A43B3F5801F326005D156F8B0
:100E80007C2C42F4801246F87C2C0A050ED5326880
:100E9000E36A22F440021A43B3F5800F326005D1B1
:100EA00056F87C2C42F4801246F87C2CCA040ED5ED
:100EB0003268236B22F040721A43B3F1807F3260B4
:100EC00005D156F87C2C42F4801246F87C2C8A041A
:100ED0000ED53268636B22F040621A43B3F1006FA3
:100EE000326005D156F87C2C42F4801246F87C2CF6
:100EF0004A040ED53268A36B22F040621A43B3F164
:100F0000006F326005D156F87C2C42F4801246F80E
:100F10007C2C09040ED53168E26B21F0405111435D
:100F2000B2F1805F316005D156F87C1C41F480310C
:100F300046F87C1C02B0BDE8F08100BFB06810F438
:100F4000407010D0216C88420BD0B068B16820F49A
:100F5000407041F48031B160B16821F48031B160FA
:100F6000B060C0070CD1B068216C20F44070084319
:100F7000B0600020B8F1000F7FF419AF11E700BF97
:100F8000FFF78AFD054641F2883700BFB068800749
:100F9000E9D4FFF781FD401BB842F7D9FDE6000018
:100FA0002DE9F04700286DD042F2000AC4F2020A8F
:100FB0000446DAF800000D4600F00F0088420CD21B
:100FC000DAF8000020F00F002843CAF80000DAF831
:100FD000000000F00F00A84254D1216841F2080837
:100FE000C807C4F2020803D1880740F1D880BDE0E9
:100FF000606802283AD0032840D158F8082C9201A2
:1010000040D5D8F80420D8F8043042F2004702F066
:101010000302C3F30313C0F2F4070133032A04BF2E
:1010200041F20027C0F27A07D8F80420B7FBF3F3A7
:10103000D8F80470C2F306225A43C7F3416302276B
:1010400007EB4303B2FBF3F24BF20043C0F2C4439D
:101050009A4261D9D8F8002012F0F00F51D08907D8
:101060005AD5A168002957D14BE000BF58F8081C99
:1010700089035CBF0120BDE8F08707E058F8081C31
:10108000490503D40120BDE8F08700BFD8F800105F
:1010900001F00C0104293FD0D8F8001001F00C0138
:1010A000082939D0D8F8001001F00C010C2933D1EF
:1010B000D8F80410D8F8042042F2004301F00301EC
:1010C000C2F30312C0F2F4030132032904BF41F258
:1010D0000023C0F27A03D8F80410B3FBF2F2D8F878
:1010E0000430C1F306215143C3F34162022303EBF1
:1010F0004202B1FBF2F14BF20042C0F2C442914213
:101100000AD9D8F80010082262F307114FF001093C
:10111000C8F8001002E000BF4FF00009D8F8001036
:1011200021F003010843C8F80000FFF7B5FC0646AC
:1011300041F28837D8F80000616800F00C00B0EB8D
:10114000810F07D0FFF7A8FC801BB842F2D903201B
:10115000BDE8F0872168880708D4B9F1000F1ED0D8
:10116000D8F8000020F0F00017E000BF480705D5D0
:10117000D8F8000040F4E060C8F80000080706D581
:10118000D8F80000072262F30D20C8F80000D8F854
:101190000000A26820F0F0001043C8F80000DAF860
:1011A000000000F00F00A8421BD9DAF8000020F080
:1011B0000F002843CAF80000FFF76EFC064641F214
:1011C000883700BFDAF8000000F00F00A84207D00F
:1011D000FFF762FC801BB842F4D90320BDE8F0871A
:1011E0002168480707D5D8F80000E26820F4E060DD
:1011F0001043C8F80000080708D5D8F80000216996
:1012000020F4605040EAC100C8F80000D8F800009F
:1012100042F20041C0F2F40100F00C00042808463C
:101220002DD0D8F8000000F00C00082841F2002072
:10123000C0F27A0023D0D8F8002002F00C020C2A69
:101240001CD1D8F80420D8F8043002F00302C3F30C
:1012500003130133032A08BF0146D8F80400B1FB89
:10126000F3F1D8F80420C0F306204843C2F34161EB
:10127000022202EB4101B0FBF1F000E00020D8F8BF
:10128000001045F22072C1F30311C0F60002515C58
:1012900040F2080201F01F0120FA01F140F20000C3
:1012A000C2F200000068C2F200021160BDE8F0471F
:1012B000FFF716BC40F2080041F20801C2F200003C
:1012C000C4F202010068096845F23072C1F30221DC
:1012D000C0F60002515C01F01F01C84070470000D9
:1012E00040F2080041F20801C2F20000C4F202011B
:1012F0000068096845F23072C1F3C221C0F60002ED
:10130000515C01F01F01C8407047000041F20C0120
:10131000C4F2020151F8040C42F20042C0F2F4029D
:1013200000F00C000428104608BF704751F8040C68
:1013300000F00C00082841F20020C0F27A0021D011
:1013400051F8043C03F00C030C2B1CBF0020704729
:10135000D1F800C00B680CF0030CC3F30313013386
:10136000BCF1030F08BF02460868B2FBF3F209683C
:10137000C0F306205043C1F34161022202EB410158
:10138000B0FBF1F0704700002DE9F04182B0002879
:1013900000F006810446007841F20006C007C4F25E
:1013A000020655D12078800774D42078000700F118
:1013B00097802078400700F1B7802078800600F100
:1013C0000781E569002D00F03082B06800F00C0064
:1013D0000C2840F05981012D00F0E280F068216A6C
:1013E00000F003028A4240F0DB80626A6FF00F0374
:1013F00000F0F00103EB0212914240F0D180A16AAB
:1014000000F4FE42B2EB012F40F0CA80E16A00F026
:101410007842B2EBC16F40F0C380226B0023CFF65D
:10142000E07303EB025200F4C0016FF31402914227
:1014300040F0B680616B4FF07E4202EB016100F03C
:10144000C06001F07E41884240F0AA80EDE100BF1B
:10145000B06800F00C01F06808295BD0032281F02D
:101460000C0122EA00000844B0FA80F0400951D192
:101470006068B0F5803F07D0B0F5A02F40F0DA806B
:10148000306840F480203060306840F48030306054
:10149000DBE000BFB068F16800F00C00042869D000
:1014A00001F0030180F00C0081F002010844B0FA61
:1014B00080F040095ED1E1683068002900F0D280F8
:1014C00040F480703060FFF7E7FA05463068400569
:1014D00000F1FC80FFF7E0FA401B0228F6D92EE16C
:1014E0006169D6F89400002900F0908040F0010076
:1014F000C6F89400FFF7D0FA054600BFD6F894006E
:1015000080073FF556AFFFF7C7FA401B0228F5D911
:1015100015E100BF306880037FF544AF60680028A4
:101520007FF440AF3CE000BFB06D10F0805808D1B0
:10153000B06D40F08050B065B06D00F0805001900B
:10154000019847F20007C4F200073868C0052BD4A1
:10155000386840F480703860FFF79EFA054600BF97
:101560003868C00520D4FFF797FA401B0228F7D946
:10157000E5E000BF3068400501D5E06880B17068E3
:10158000216920F0FE4040EA0160706040F20000F6
:10159000C2F200000068FFF7A3FA00283FF405AF8D
:1015A000012002B0BDE8F081A068012808D005281C
:1015B00040F0AA80D6F8900040F00400C6F89000F1
:1015C000D6F8900040F00100C6F89000A9E000BFF6
:1015D000A169D6F89800002900F0808040F0010051
:1015E000C6F89800FFF758FA054600BFD6F89800ED
:1015F00080073FF5E6AEFFF74FFA401B02284FF099
:101600000300F3D902B0BDE8F08100BF20F0010073
:10161000C6F89400FFF740FA054600BFD6F89400DC
:1016200080077FF5C6AEFFF737FA401B0228F5D9D1
:1016300085E000BF3168002821F4803131603168D5
:1016400021F48021316000F07F80FFF725FA054604
:10165000306880033FF5A6AEFFF71EFA401B6428F2
:10166000F6D96CE020F480703060FFF715FA05467B
:10167000306840057FF599AEFFF70EFA401B02284F
:101680004FF00300F4D9BDE7306820F0807030607F
:10169000FFF702FA022D05460CD100BF3068800129
:1016A00040F17E80FFF7F8F9401B02284FF003005D
:1016B000F4D9A7E73068800140F1B080FFF7ECF97A
:1016C000401B02284FF00300F4D99BE770682169A2
:1016D00020F0FE4040EA0160706066E620F0010004
:1016E000C6F89800FFF7D8F9054600BFD6F898006D
:1016F00080077FF566AEFFF7CFF9401B02284FF059
:101700000300F3D97EE700BFD6F8901021F0010165
:10171000C6F89010D6F8901021F00401C6F8901089
:1017200010B3FFF7B9F9054641F28837D6F89000B3
:1017300080072BD4FFF7B0F9401BB842F6D903203D
:1017400002B0BDE8F08100BFFFF7A6F9054600BF73
:10175000306880037FF526AEFFF79EF9401B6428B2
:101760004FF00300F4D94DE7FFF796F9054641F233
:10177000883700BFD6F89000800707D5FFF78CF9AF
:10178000401BB8424FF00300F4D93BE7B8F1000F1B
:101790007FF413AEB06D20F08050B0650DE600BF51
:1017A000F06848F20C01C0F29F1104F1200700EA32
:1017B000010C8ECF6FF00F00D4E90C5400EB021037
:1017C0000022CFF6E07241EA0C0102EB0552084319
:1017D0006FF314024FF07E4540EA032005EB0465E9
:1017E000104305F07E4540EAC7602843F06030684A
:1017F00040F080703060F06840F08070F060FFF77B
:101800004BF90446306880010FD4FFF745F9001BFF
:1018100002284FF00300F5D9F4E600BFF0684FF658
:10182000FC71CFF6EE610840F060002002B0BDE828
:10183000F0810000F0B581B0F0B10446D0F8880026
:101840001E4615460F4628B9002084F8840020461D
:1018500001F0C6FC2420C4F888002068A16A026850
:1018600022F00102026011B1204602F009FF204679
:1018700003F000FA012803D1012001B0F0BD00BF40
:101880002168886840F480408860886820F40040BF
:10189000384388600A68300440EA45506FF31942C3
:1018A00010430860086840F0010220460A6001B059
:1018B000BDE8F04002F058BF002804BF0120704787
:1018C000B0B50446406A28B10020206104F114003C
:1018D00006E000BF6068B0F5827F03D004F11C0011
:1018E000002101600025A56294F85D0020B9204622
:1018F00084F85C5000F052F8022084F85D00206803
:10190000D4F80CE00268BEF5E06F22F040020260FD
:101910004EF4006298BF0125B2F5706F1CBF002322
:10192000A3624FEA053CD4E90135D4E9042103F46C
:10193000827305F404452B4402F002021A44A369A1
:1019400001F00101E569114403F40072114405F04E
:101950003802256A114405F08002A56A114405F495
:101960000052114301600421626A0EF4706501EABD
:101970001341636B45EA0C0502F01002294303F0A2
:101980000803114319434160C16921F40061C16139
:1019900000200121206684F85D10B0BD80B586B0BE
:1019A000006843F20001C4F20101884202D006B08F
:1019B00080BD00BF41F24C00C4F20200416941F415
:1019C00080514161416901F480510191019901689F
:1019D00041F001010160006801A900F001000190DF
:1019E0000198E0200190022002900020CDE9030040
:1019F000052005904FF09040FEF73EFF06B080BDF9
:101A0000411E0020B0EB116F1CBF012070474EF249
:101A10001002CEF2000251604EF62351CEF20001C8
:101A2000F0230B700721906011607047B0B590F8FB
:101A30003C20012A04BF0220B0BDD1E90232D1E925
:101A400000CE22F47C5223F4705343EA020448F29D
:101A5000FF73CEF6F0730EEA0302224303F500642F
:101A600004EA0C0442EA040C0C6903F5C05222405B
:101A70004C6942EA0C02224303F5605422400C6B8D
:101A800003F5F04323401A438B6940F2000CCC6904
:101A9000CEF6FF7C0CEA03431443D0F800C043F2B7
:101AA0000042C4F20102944543EA040305D042F621
:101AB0000042C4F20102944516D14FF6FF72CDF6F2
:101AC0000F421A40D1E9083ED1E90A410025CDF67E
:101AD000F04505EA0454224323F008531A432EF03C
:101AE00000531A4342EA01030021CCF8443080F845
:101AF0003C100846B0BD00000168486D40F400325B
:101B000000204A657047000070B590F83C20012A1B
:101B10004FF0020247D080F83D20026843F2004CAB
:101B200054689368C4F2010C42F6004E6245C4F258
:101B3000010E01D0724503D14D6824F470042C438A
:101B40004FF68F75CFF6FF550E682C4042F6FF35E5
:101B5000C4F201053443AA4254600FDCB2F1804F55
:101B600016D040F20046C4F20006B24210D040F651
:101B70000006C4F20006B2420AD00EE0724507D059
:101B800044F20006C4F20106B24201D0624504D11B
:101B9000896823F08003194391600121002280F8B5
:101BA0003D1080F83C20104670BD000041B108296E
:101BB00010D0042914BF00F1470200F145020BE0E8
:101BC00090F84420012A1CBF01207047022280F8AF
:101BD000442013E000F146021278012A1CBF0120C4
:101BE00070470222082907D0042914BF80F8472033
:101BF00080F8452002E000BF80F84620026801F02E
:101C00000F000421136A01FA00F023EA00011162B7
:101C1000116A08431062506C42F6FF31C4F20101B0
:101C200040F400408A42506410DCB2F1804F1FD073
:101C300040F20040C4F20000824219D040F6000099
:101C4000C4F20000824213D01FE000BF42F6004001
:101C5000C4F2010082420BD044F20000C4F2010041
:101C6000824205D043F20040C4F2010082420CD10E
:101C700090680721C0F20101014006294FF00000E1
:101C800008D0B1F5803F08BF7047106840F00100F0
:101C90001060002070470000002804BF012070473A
:101CA00010B5044690F83D0028B9002084F83C00A7
:101CB000204600F023F8022084F83D002068211D12
:101CC00002F0A0F9012084F8480084F83E0084F86E
:101CD0003F0084F8400084F8410084F8420084F812
:101CE000430084F8440084F8450084F8460084F8F2
:101CF000470084F83D00002010BD000081B000685E
:101D000043F2FF31C4F2010188421DDCB0F1804F83
:101D10003CD040F20041C4F20001884248D042F673
:101D20000041C4F20101884271D141F26000C4F265
:101D30000200016841F400610160006800F4006085
:101D40000090009801B0704743F20041C4F20101D5
:101D500088423FD044F20001C4F20101884249D0D8
:101D600044F20041C4F20101884250D141F26000C6
:101D7000C4F20200016841F400310160006800F41F
:101D800000300090009801B0704700BF41F2600041
:101D9000C4F2020050F8081C41F0010140F8081C90
:101DA00050F8080C00F001000090009801B0704756
:101DB00041F26000C4F2020050F8081C41F0020138
:101DC00040F8081C50F8080C00F002000090009841
:101DD00001B0704741F26000C4F20200016841F4B2
:101DE00000510160006800F400500090009801B0BC
:101DF000704700BF41F26000C4F20200016841F484
:101E000080310160006800F480300090009801B0DB
:101E10007047000010B590F83C20012A4FF00202F4
:101E200000F0BB8080F83D2004688822A368CFF6CC
:101E3000CE721A40A2600B686F2B0FDD1F22C0F21A
:101E40001002934242DCB3F5005F53DA702B00F0CE
:101E5000A780B3F5805F00F09980EFE02F2B41DD84
:101E60004F2B4DDC302B00F08780402B40F0E6807C
:101E7000D1F804C0D1F80CE0236A216A21F00102F4
:101E8000A4F18041A1F596314FEAB12107292262E0
:101E900009D8012202FA01F111F0E50F1EBF216AF3
:101EA00021F004012162A16923F00A0221F0F0016E
:101EB00041EA0E1142EA0C02A1612262A1684FF6CA
:101EC0008872CFF6CF72114047315EE03F21C0F2F9
:101ED00010018B4246DC2021C0F210018B424BD016
:101EE000302145E0002B47D0102B45D0202B43D08C
:101EF000A4E000BF64D0B3F1101F3DD09EE000BF4E
:101F0000502B6DD0602B40F09980D1F804C0D1F8EF
:101F10000CE0236A226A43F20041C4F201018C42C0
:101F200022F01001216205D042F60041C4F2010105
:101F30008C4203D1216A21F040012162A16923F082
:101F4000A00221F4704141EA0E3142EA0C12A16173
:101F50002262A1684FF68872CFF6CF7211406731C6
:101F600013E000BF4021C0F210018B4204D0702169
:101F7000C0F210018B4261D1A1684FF68872CFF692
:101F8000CF721140194341F00701A16000220121E5
:101F900080F83D10002180F83C10104610BD00BFB5
:101FA000D1E901C3C968A26843EA0C0322F47F4265
:101FB00043EA01211143A160A16841F07701E4E700
:101FC000D1E901C3C968A26843EA0C0322F47F4245
:101FD00043EA01211143A160A16841F48041D4E7A3
:101FE000D1F804C0D1F80CE0236A216A21F0010283
:101FF000A4F18041A1F596314FEAB121072922626F
:1020000009D8012202FA01F111F0E50F1EBF216A81
:1020100021F004012162A16923F00A0221F0F001FC
:1020200041EA0E1142EA0C02A1612262A1684FF658
:102030008872CFF6CF7211405731A6E70122A6E78A
:102040002DE9F04387B0006843F2FF31C4F201018B
:1020500088424FF000010691CDE90411CDE902114B
:1020600052DCB0F1804F00F08F8040F20041C4F2AA
:102070000001884200F0A08042F60041C4F2010154
:10208000884240F0218141F24C00C4F20200016814
:1020900040F2004441F0040101600168C4F600040C
:1020A00001F0040101910199016804F5806541F096
:1020B0000201016000680DF1080800F002000190C3
:1020C00001980F20029002270026284641460397D8
:1020D000CDE904660697FEF7CFFB2020CDE9020785
:1020E0004FF0060928464146CDE90466CDF8189020
:1020F000FEF7C2FB46F20200CDE90207CDE9046615
:10210000CDF81890DCE000BF43F20041C4F20101B9
:10211000884267D044F20001C4F20101884200F015
:10212000A18044F20041C4F20101884240F0CC8019
:1021300041F24C00C4F202000168022441F00101A6
:1021400001600168002501F0010101910199016818
:10215000012641F002010160006802A900F00200BE
:10216000019001984FF4805002904FF090400394FA
:10217000CDE904550696FEF77FFB402002A931C148
:10218000CDE9055698E000BF41F24C00C4F20200D0
:1021900001684FF0904441F00101016000680221A4
:1021A00000F00100019001980120039100210290AC
:1021B000CDE90411069083E041F24C00C4F2020024
:1021C000016841F0020101600068002100F0020096
:1021D000019001981020029002200390CDE9041193
:1021E000069069E041F24C00C4F20200016840F23E
:1021F000004841F0040101600168C4F6000801F0E4
:10220000040101910199016808F5806441F002011F
:102210000160006802AE00F00200019001984FF4E6
:102220000050029006204FF002090025069020463B
:102230003146CDF80C90CDE90455FEF71DFB012089
:10224000CDE90209042740463146CDE904550697F9
:10225000FEF712FB4FF4BE50CDE90209CDE904555B
:1022600006972DE041F24C00C4F2020001680224FE
:1022700041F0010101600168002501F001010191B7
:102280000199016841F002010160006802A900F0B3
:1022900002000190019804200290092006904FF05E
:1022A00090400394CDE90455FEF7E6FA4FF4004060
:1022B00002A931C1CDE9055440F20044C4F600043E
:1022C00002A92046FEF7D8FA07B0BDE8F083000067
:1022D0002DE9F04190F83C30012B04BF0220BDE80D
:1022E000F0814FEAB202052A00F28C81DFE812F099
:1022F00006005200A600FA004E01920103681D6A12
:102300001A6AA3F1804622F001021A621A465C683A
:1023100052F818CF8F68A6F59636D1F800E025F070
:1023200002054FEAB626072E45EA07050CD8012715
:10233000B74017F0E50F07D01F6A25F0080527F012
:1023400004071F62CF683D43072E0BD8012707FA09
:1023500006F616F0E50F1FBF24F44074D1E90567B7
:1023600034433C434FF68C76CFF6FE760CEA0607F4
:1023700047EA0E075C609F614F6809695F631D62F1
:102380009F6947F008079F619F6927F004079F61D5
:102390007DE100BF036843F200461C6A1A6AC4F27A
:1023A000010622F010021A621A465D6852F818EF10
:1023B000B3428E68D1F800C024F0200444EA061429
:1023C00005D042F60046C4F20106B34208D11E6AA7
:1023D00024F0800426F040061E62CE6844EA06140B
:1023E000A3F18046A6F596364FEAB626072E0DD8FD
:1023F000012707FA06F616F0E50F1FBF25F4406522
:10240000D1E9056745EA860545EA870548F6FF46AE
:10241000CFF6FF660EEA060747EA0C275D609F616C
:102420004F6809699F631C629F6947F400679F6159
:102430009F6927F480679F6128E100BF036843F22A
:1024400000461C6A1A6AC4F2010622F480721A62FB
:102450001A465D6852F81CEFB3428E68D1F800C08E
:1024600024F4007444EA062405D042F60046C4F27F
:102470000106B34208D11E6A24F4006426F4806683
:102480001E62CE6844EA0624A3F18046A6F596367D
:102490004FEAB626072E0DD8012707FA06F616F0E2
:1024A000E50F1FBF25F44055D1E9056745EA06153C
:1024B00045EA07154FF68C76CFF6FE760EEA06074C
:1024C00047EA0C075D60DF614F680969DF631C62E2
:1024D000DF6947F00807DF61DF6927F00407DF6184
:1024E000D5E000BF036843F200461C6A1A6AC4F2D2
:1024F000010622F480521A621A465D6852F81CEFF7
:10250000B3428E68D1F800C024F4005444EA063483
:1025100005D042F60046C4F20106B34208D11E6A55
:1025200024F4004426F480461E62CE6844EA063451
:10253000A3F18046A6F596364FEAB626072E0DD8AB
:10254000012707FA06F616F0E50F1FBF25F44045F0
:10255000D1E9056745EA861545EA871548F6FF463D
:10256000CFF6FF660EEA060747EA0C275D60DF61DB
:102570004F6809691F641C62DF6947F40067DF6107
:10258000DF6927F48067DF6180E000BF0368D3F86C
:1025900020C01A6AA3F1804722F480321A621A46D8
:1025A000A7F596375D6852F8508FD1F800E08E6835
:1025B0004FEAB727072F09D80124BC4014F0E50FD4
:1025C0001EBF4C6925F4803545EA04252CF40037FC
:1025D00047EA06474FF68C76CFF6FE76033606EAD4
:1025E000080646EA0E065D601E654E6809699E642F
:1025F0001F621F6D47F008071F651F6D27F0040756
:102600001F6544E00121002280F83C200846BDE817
:10261000F08100BF0368D3F820C01A6AA3F1804795
:1026200022F480121A621A46A7F596375D6852F8AE
:10263000508FD1F800E08E684FEAB727072F09D8EE
:102640000124BC4014F0E50F1EBF4C6925F4802521
:1026500045EA84252CF4001747EA065748F6FF465A
:10266000CFF6FF6606F5407606EA080646EA0E262D
:102670005D601E654E680969DE641F621F6D47F468
:1026800000671F651F6D27F480671F6509021368C7
:10269000194311600021002280F83C200846BDE863
:1026A000F0810000002804BF0120704710B50446E7
:1026B00090F83D0028B9002084F83C00204600F046
:1026C00023F8022084F83D002068211D01F09AFCC7
:1026D000012084F8480084F83E0084F83F0084F824
:1026E000400084F8410084F8420084F8430084F8F4
:1026F000440084F8450084F8460084F8470084F8D4
:102700003D00002010BD00007047000061B10A1FAD
:102710004FEAB202032A11D8DFE802F00214181CB3
:1027200000F13F0318E000BF90F83E20012A1CBFD3
:1027300001207047022280F83E202CE000F1430384
:102740000AE000BF00F1400306E000BF00F14103D2
:1027500002E000BF00F142031B78012B1CBF0120E7
:102760007047032A08D8DFE802F0030B0F1300BFFD
:10277000022280F83F200EE0022280F843200AE087
:10278000022280F8402006E0022280F8412002E088
:10279000022280F84220026801F01F010120136A22
:1027A00000FA01F18B431362136A0B43A2F18041DB
:1027B000A1F596314FEAB1210629136244D8884029
:1027C00010F0650F40D0506C42F6FF31C4F20101A9
:1027D00040F400408A42506410DCB2F1804F1FD0B8
:1027E00040F20040C4F20000824219D040F60000DE
:1027F000C4F20000824213D01FE000BF42F6004046
:10280000C4F2010082420BD044F20000C4F2010085
:10281000824205D043F20040C4F2010082420CD152
:1028200090680721C0F20101014006294FF0000025
:1028300008D0B1F5803F08BF7047106840F0010034
:1028400010600020704700BF42F6FF30C4F2010064
:102850008242C2DD43F6FF70C4F20100824207DC0F
:1028600042F60040C4F201008242D3D1D8E700BF53
:1028700044F20000C4F201008242D1D044F60000CC
:10288000C4F20100824202BF506C40F40040506428
:10289000D3E7000090F88410012904BF022070479C
:1028A0002421C0F8881002681168136823F001031E
:1028B000136021F000530021416613602022C0F80C
:1028C000882080F8841008467047000010B5044640
:1028D000D0F88C0020281CBF022010BD00294FF02A
:1028E000010018BF002A01D110BD00BF0120E06621
:1028F00000202067204602F00FFB0028F4D1E06E94
:1029000001281CBF012010BD20681021016250E881
:10291000000F216840F0100041E8000252B300BFF0
:10292000206850E8000F216840F0100041E80002E4
:1029300002B3206850E8000F216840F0100041E821
:102940000002BAB1206850E8000F216840F0100082
:1029500041E8000272B1206850E8000F216840F0A1
:10296000100041E80002002A4FF0000008BF10BD2F
:10297000D6E700BF002010BDB0B50446006844F2A1
:102980000042C4F20002904218BFB0BD40F275454B
:10299000C2F20005284601F0E3F940F2E030C2F24D
:1029A000000029464FF48072FFF790FFD4F88000B2
:1029B0000068016821F004010160B0BD70470000AB
:1029C000B0B590F88420012A04BF0220B0BD2422B3
:1029D000C0F888200268D0F864E0D2F800C013681C
:1029E000BEF1000F23F001031360936823F06063CE
:1029F00041EA0301916019D09368916845F2707EB5
:102A0000490FC0F6000E45F278751EF80140C0F679
:102A10000005695CC3F34263E400B4FBF1F11EF806
:102A20000340EB5CE500B5FBF3F301E0012101237A
:102A3000A0F86A102021A0F86830C2F800C0C0F8E1
:102A40008810002180F884100846B0BDB0B590F819
:102A50008420012A04BF0220B0BD2422C0F88820AF
:102A60000268D0F864E0D2F800C01368BEF1000F2D
:102A700023F001031360936823F0604341EA0301EC
:102A8000916019D09368916845F2707E490FC0F645
:102A9000000E45F278751EF80140C0F60005695C2D
:102AA000C3F34263E400B4FBF1F11EF80340EB5CB6
:102AB000E500B5FBF3F301E001210123A0F86A1062
:102AC0002021A0F86830C2F800C0C0F888100021AA
:102AD00080F884100846B0BD7047000070470000C1
:102AE0007047000070B5026840F62F03D1690446B4
:102AF000106896680B40202B0ED100F0200306F0E2
:102B000080555B1919D0616F002900F07F80204645
:102B1000BDE87040084700BF40F60F0319420CD0D3
:102B20000123C1F2000306EA030C40F22013C0F2B5
:102B30000043034013EB0C036AD1E36E012B05D174
:102B400011F0100318BF10F010034DD1CB020BD5BC
:102B500016F4800308D04FF4801120461162BDE8BE
:102B60007040FFF7BBBF00BF0B0606D500F0800327
:102B700006F400069B1940F093814B0640F1188142
:102B800010F0400300F0148152E8000F216820F09B
:102B9000400041E80002002A00F01681206850E859
:102BA000000F216820F0400041E80002002A00F0F8
:102BB0000B81206850E8000F216820F0400041E8B8
:102BC0000002002A00F00081206850E8000F216810
:102BD00020F0400041E80002002A00F0F580206863
:102BE00050E8000FD2E700BF102010629068400646
:102BF0001AD4B4F85C00B4F85E10B4F85E30002B60
:102C00001CBF401A5FEA004140F0148270BD00BF53
:102C1000CB0718BF10F4807340F0E0808B0706F0FC
:102C2000010E00F1E780F0E0D4F88000D0F800C099
:102C3000DCF80430B4F85C0099B2002900F0E481BB
:102C4000814280F0E181A4F85E30DCF8000080066B
:102C500000F1A18052E8000F216820F4807041E863
:102C60000002FAB1206850E8000F216820F480705B
:102C700041E80002B2B1206850E8000F216820F45A
:102C8000807041E800026AB1206850E8000F2168B6
:102C900020F4807041E8000222B1206850E8000F63
:102CA000DAE700BF206850E8020F216820F0010039
:102CB00041E80202BAB3206850E8020F216820F010
:102CC000010041E8020272B3206850E8020F216857
:102CD00020F0010041E802022AB3206850E8020F08
:102CE000216820F0010041E80202002ADAD11AE04E
:102CF000206850E8020F216820F0400041E80202FD
:102D0000DAB1206850E8020F216820F0400041E865
:102D1000020292B1206850E8020F216820F04000C2
:102D200041E802024AB1206850E8020F216820F011
:102D3000400041E80202002ADAD12020C4F88C00C9
:102D40000020E066206850E8000F216820F01000A5
:102D500041E80002DAB1206850E8000F216820F055
:102D6000100041E8000292B1206850E8000F21688D
:102D700020F0100041E800024AB1206850E8000F3E
:102D8000216820F0100041E80002002ADAD1D4F8CE
:102D90008000FDF77DFB02202067B4F85C00B4F8EA
:102DA0005E10401A81B22046BDE87040FFF7E4BDD6
:102DB0000A0240F1338110F0804200F02F8120465A
:102DC000BDE87040FFF788BE20200021C4F88800CD
:102DD0002046A167BDE8704000F0D8BA0123136215
:102DE000D4F8903043F00103C4F890308B0706F01C
:102DF000010E0AD5BEF1000F07D002231362D4F8EA
:102E0000903043F00403C4F890304B070AD5BEF16C
:102E1000000F07D004231362D4F8903043F002036C
:102E2000C4F890300B070CD500F0200353EA0C03D4
:102E300007D008231362D4F8903043F00803C4F895
:102E400090300B050BD510F0806308D04FF4006371
:102E50001362D4F8903043F02003C4F89030D4F8D3
:102E60009030002B3FF4D2AE11F020011EBF00F0D5
:102E7000200006F0805110EB010040F07781D4F87B
:102E80009000916800F0280001F0400140180DD139
:102E90002046FFF725FE0020C4F8900070BD00BF5B
:102EA000A16F00297FF433AEB0E600BF52E8000FF7
:102EB000216820F4907041E80002FAB1206850E8DF
:102EC000000F216820F4907041E80002B2B1206840
:102ED00050E8000F216820F4907041E800026AB1C8
:102EE000206850E8000F216820F4907041E800024B
:102EF00022B1206850E8000FDAE700BF4FF6FE70FD
:102F0000CEF6FF70216851E8021F2268014042E8B6
:102F10000213C3B1216851E8021F2268014042E850
:102F2000021383B1216851E8021F2268014042E880
:102F3000021343B1216851E8021F2268014042E8B0
:102F40000213002BDED1E06E012824D1206850E866
:102F5000000F216820F0100041E80002DAB120687B
:102F600050E8000F216820F0100041E8000292B103
:102F7000206850E8000F216820F0100041E80002AE
:102F80004AB1206850E8000F216820F0100041E8A5
:102F90000002002ADAD120200021C4F88C00E1666A
:102FA000206861678168490640F1DA8050E8020FC5
:102FB000216820F0400041E80202002A00F0BC80B5
:102FC000206850E8020F216820F0400041E802022A
:102FD000002A00F0B180206850E8020F216820F03C
:102FE000400041E80202002A00F0A680206850E874
:102FF000020F216820F0400041E80202002A00F0A0
:103000009B802068D2E700BF88427FF4FFADDCF8E8
:10301000000080067FF5FAAD022286E0C9017FF547
:10302000F5ADB0F1FF3FC8BF70BD2046BDE87040B0
:10303000FFF7C4BC52E8001F226821F4907142E8F7
:103040000013FBB1216851E8001F226821F4907140
:1030500042E80013B3B1216851E8001F226821F44F
:10306000907142E800136BB1216851E8001F22689B
:1030700021F4907142E8001323B1216851E8001F48
:10308000DAE700BF4FF6FE71CEF6FF71226852E814
:10309000022F23680A4043E80226C6B1226852E89C
:1030A000022F23680A4043E8022686B1226852E8CC
:1030B000022F23680A4043E8022646B1226852E8FC
:1030C000022F23680A4043E80226002EDED1202189
:1030D000C4F88C100021E166616700BF216851E8E7
:1030E000001F226821F0100142E80013DBB12168C3
:1030F00051E8001F226821F0100142E8001393B14B
:10310000216851E8001F226821F0100142E80013F5
:103110004BB1216851E8001F226821F0100142E8FC
:103120000013002BDAD1022281B220462267BDE8CB
:103130007040FFF721BC00BFD4F8800080B144F696
:10314000D901C0F600018163FDF7DEF900283FF4E4
:103150005DADD4F88000816BBDE87040084700BFCA
:103160002046BDE87040FFF7BBBC00BF616F00297F
:103170003FF485AE20468847226880E610B5D8B176
:103180000446D0F8880028B9002084F8840020463E
:1031900000F026F82420C4F888002068A16A02689C
:1031A00022F00102026011B1204601F069FA2046C6
:1031B00001F060FD012801D1012010BD216848689F
:1031C00020F490404860886820F02A0088600868F1
:1031D00040F0010220460A60BDE8104001F0C4BA88
:1031E0002DE9F04198B0044600201790CDE9150074
:1031F000CDE9130002A84421FDF7D6F8206844F277
:103200000041C4F20001884250D043F60001C4F2EC
:103210000101884240F0B2800120029002A8FDF72F
:1032200089FD002818BFFDF72DF941F24C00C4F2CA
:103230000200416913AC41F48041416141690225BA
:1032400001F48041019101990168002641F00401D7
:1032500001600168072701F00401019101990168EB
:1032600041F0010101600068214600F00100019079
:1032700001981020139040F20040C4F6000000F5C1
:1032800080601495CDE915661797FDF7F5FA4FF4B0
:10329000806013A961C14FF090402146CDE91667C7
:1032A000FDF7EAFA18B0BDE8F08100BF4FF0020860
:1032B00002A8CDF80880FDF73DFD002818BFFDF7F6
:1032C000E1F841F24C00C4F20200C16813AD41F4D0
:1032D0000031C160C168002701F4003101910199FA
:1032E0000168072641F001010160016801F0010158
:1032F00001910199016841F00201016000682946CD
:1033000000F00200019001980A20CDE913084FF067
:103310009040CDE915771796FDF7AEFA0820CDE974
:10332000130840F20040C4F600002946CDE91577A5
:103330001796FDF7A1FA40F2C0050820C2F2000579
:10334000C4F202001A21802285E883002846C5E9DC
:103350000372C5E90577C5E90777FDF769F9002824
:1033600018BFFDF78FF8262003210022C4F88050F3
:10337000AC62FDF705FC2620FDF7F2FB18B0BDE8B6
:10338000F0810000704700007047000070470000A7
:1033900040F20801C2F2000109684DF68362C4F2EE
:1033A0001B32A1FB0212110D01FB00F2D2B112F08F
:1033B0000303A2F101010BD0012B084600BF08D086
:1033C00000BF022B1ABFD01E00BF901E01E000BF3D
:1033D0001046032938BF704700BF00BF00BF043844
:1033E00000BFF9D17047000080B54FF090404FF416
:1033F0000061FDF73DFB0138B0FA80F0400980BD67
:1034000002464FF090404FF40071FDF73FBB0000C3
:1034100002464FF090404FF40061FDF737BB0000CB
:1034200002464FF090404FF48071FDF72FBB000033
:10343000FEE7000080B582B041F24800C4F202000D
:103440000168002241F004010160016801F00401FB
:1034500001910199016841F00101016000680021BA
:1034600000F00100009000980B20FDF789FB0B2075
:1034700002B0BDE88040FDF773BB0000F0B587B037
:10348000002641F24C000696C4F20200016840F2A8
:10349000004441F0040101600168C4F6000401F039
:1034A0000401019101990168002241F020010160AD
:1034B00001684FF4286501F020010191019901682C
:1034C00041F001010160016801F0010101910199E0
:1034D000016841F00201016000684FF4286100F0CA
:1034E0000200019001982046FDF7D0FA4FF090407D
:1034F0004FF4306100224FF43067FDF7C7FA0295B0
:10350000012002ADCDE90306204629460596FDF7C8
:10351000B3F94FF4805002904FF48810CDE90306C0
:1035200020462946FDF7A8F91120CDE903064FF002
:103530009040294602970596FDF79EF907B0F0BD29
:1035400010B540F2201043F20001C2F20000C4F2B4
:1035500001014FF4827200234FF4407C4FF4007E4F
:10356000302480E80E1007210822C0E90433C0E9A6
:1035700006E4C0E90833C0E90A31C0E90C32FEF7BD
:103580009BF9002808BF10BDBDE81040FCF77ABFCA
:1035900010B59CB0002401A834211B94CDE9194436
:1035A000CDE91644CDE91444CDE91244CDE91044E7
:1035B000CDE90E44FCF7F8FE40F2D01044F20001D1
:1035C000C2F20000C4F2010140F2A363042280E8C9
:1035D0001600C0E90334C0E90544FEF75DFB00288E
:1035E00018BFFCF74FFF4FF48050189040F2D010F6
:1035F000C2F2000018A9FEF70DFC002818BFFCF766
:1036000041FF40F2D010C2F20000FFF74BF8002853
:1036100018BFFCF737FF40F2D0100024C2F20000C0
:1036200015A915941794FEF76FFA002818BFFCF738
:1036300029FF6020CDE90E0440F2D010C2F2000054
:103640000EA90022CDE91044CDE912441494FEF7EE
:103650003FFE002818BFFCF715FF40F2D014C2F25D
:1036600000042046FEF748FA4FF4006001904FF442
:103670008060029000206421CDE904104FF40051D5
:103680000390CDE906100D9001A92046FEF7CEF972
:10369000002818BFFCF7F6FE40F2D010C2F200007E
:1036A000FEF7CEFC1CB010BDB0B594B06846342116
:1036B000FCF77AFE40F21C2044F20041C2F2000006
:1036C000C4F201010023042240F2A36580E82E0029
:1036D000C0E904338361FEF7DFFA002818BFFCF766
:1036E000D1FE40F21C20C2F20000FEF7DBFF0028F2
:1036F00018BFFCF7C7FE60200D9040F21C2000258B
:10370000C2F200000DA90022CDE90E55CDE91055F9
:10371000CDE91255FEF7DCFD002818BFFCF7B2FE1C
:1037200040F21C24C2F200042046FEF7E5F94FF4F3
:10373000006000904FF48060CDE901056420CDE980
:1037400003054FF40050CDE90505694620460C9568
:10375000FEF76CF9002818BFFCF794FE40F21C201D
:10376000C2F20000FEF76CFC14B0B0BD10B59CB006
:10377000002401A834211B94CDE91944CDE9164455
:10378000CDE91444CDE91244CDE91044CDE90E440D
:10379000FCF70AFE40F2841042F60041C2F200003B
:1037A000C4F2010140F2A363042280E81600C0E9DC
:1037B0000334C0E90544FEF76FFA002818BFFCF790
:1037C00061FE4FF48050189040F28410C2F2000065
:1037D00018A9FEF71FFB002818BFFCF753FE40F2A4
:1037E0008410C2F20000FEF75DFF002818BFFCF74E
:1037F00049FE40F284100024C2F2000015A9CDE970
:1038000015441794FEF780F9002818BFFCF73AFE1C
:103810006020CDE90E0440F28410C2F200000EA92F
:103820000022CDE91044CDE912441494FEF750FD76
:10383000002818BFFCF726FE40F28410C2F20000F8
:103840000EA90422FEF744FD002818BFFCF71AFE5B
:1038500040F28410C2F200000EA90822FEF738FDE3
:10386000002818BFFCF70EFE40F28410C2F20000E0
:103870000EA90C22FEF72CFD002818BFFCF702FE53
:1038800040F28414C2F200042046FEF735F94FF4EA
:10389000006001904FF48060029000206321CDE928
:1038A00004104FF40051CDE906104FF00071039061
:1038B000CDE90800CDE90A10CDE90C0001A92046A8
:1038C000FEF7B4F8002818BFFCF7DCFD40F28410C6
:1038D000C2F20000FEF7B4FB1CB010BD10B58EB0F4
:1038E00040F268200021C2F200004FF080424323E2
:1038F00040F2E7340D91CDE90B11CDE90811CDE986
:103900000611CDE90411CDE90211CDE90011C0E99C
:103910000023C0E9021401618161FEF7BDF90028AE
:1039200018BFFCF7AFFD4FF480500A9040F26820BA
:10393000C2F200000AA9FEF76DFA002818BFFCF7D2
:10394000A1FD40F26820C2F20000FEF7ABFE0028A5
:1039500018BFFCF797FD40F268200024C2F2000077
:1039600007A907940994FEF7CFF8002818BFFCF7C1
:1039700089FD6020CDE9000440F26820C2F2000019
:103980006946002202940494FEF7A2FC002818BFA6
:10399000FCF778FD40F26820C2F20000FEF750FB11
:1039A0000EB010BD10B58EB040F2B42040F200420F
:1039B0000021C2F20000C4F20002542340F2E734B6
:1039C0000D91CDE90B11CDE90811CDE90611CDE935
:1039D0000411CDE90211CDE90011C0E90023C0E9CD
:1039E000021401618161FEF757F9002818BFFCF746
:1039F00049FD4FF480500A9040F2B420C2F200001A
:103A00000AA9FEF707FA002818BFFCF73BFD40F2B1
:103A1000B420C2F20000FEF745FE002818BFFCF7F4
:103A200031FD40F2B4200024C2F2000007A907943F
:103A30000994FEF769F8002818BFFCF723FD602001
:103A4000CDE9000440F2B420C2F200006946002231
:103A500002940494FEF73CFC002818BFFCF712FD0A
:103A600040F2B420C2F20000FEF7EAFA0EB010BD38
:103A700010B59CB0002401A834211B94CDE9194451
:103A8000CDE91644CDE91444CDE91244CDE9104402
:103A9000CDE90E44FCF788FC40F2003043F20041CF
:103AA000C2F20000C4F2010140F2A362C0E90014B6
:103AB000C0E90242C0E904448461FEF7EDF8002841
:103AC00018BFFCF7DFFC4FF48050189040F2003034
:103AD000C2F2000018A9FEF79DF9002818BFFCF7F4
:103AE000D1FC40F20030C2F20000FEF7DBFD0028FE
:103AF00018BFFCF7C7FC40F200300024C2F20000FF
:103B000015A9CDE915441794FDF7FEFF002818BF4D
:103B1000FCF7B8FC6020CDE90E0440F20030C2F2A0
:103B200000000EA90022CDE91044CDE912441494FE
:103B3000FEF7CEFB002818BFFCF7A4FC40F20030D3
:103B4000C2F200000EA90422FEF7C2FB002818BF33
:103B5000FCF798FC40F20030C2F200000EA90822E7
:103B6000FEF7B6FB002818BFFCF78CFC40F20030D3
:103B7000C2F200000EA90C22FEF7AAFB002818BF13
:103B8000FCF780FC40F20034C2F200042046FDF74E
:103B9000B3FF4FF4006001904FF48060029000206A
:103BA0006421CDE904104FF40051CDE906104FF027
:103BB00000710390CDE90800CDE90A10CDE90C00B1
:103BC00001A92046FDF732FF002818BFFCF75AFC78
:103BD00040F20030C2F20000FEF732FA1CB010BD15
:103BE00080B540F24C3043F60001C2F20000C4F24E
:103BF000010100234FF00C0C4FF4E13280E80E007D
:103C0000C0E90333C0E905C3C0E90733C0E909339C
:103C1000FFF7B4FA002818BFFCF734FC40F24C3030
:103C2000C2F200000021FEF711FF002818BFFCF7C8
:103C300029FC40F24C30C2F200000021FEF7C0FE29
:103C4000002818BFFCF71EFC40F24C30C2F2000006
:103C5000FEF720FE002808BF80BDBDE88040FCF7CD
:103C600011BC000080B540F2E03044F20041C2F2E5
:103C70000000C4F200014FF4E13200234FF00C0CBD
:103C800080E80E00C0E90333C0E905C3C0E907338B
:103C9000C0E90933002100220023FDF7CBFD0028F5
:103CA00018BFFCF7EFFB40F2E030C2F20000002149
:103CB000FEF7CCFE002818BFFCF7E4FB40F2E03032
:103CC000C2F200000021FEF77BFE002818BFFCF7BF
:103CD000D9FB40F2E030C2F20000FEF7DBFD002825
:103CE00008BF80BDBDE88040FCF7CCBBFEE700000C
:103CF000FEE7000010B540F27004C2F20004207824
:103D000000230130C1B2092988BF002004F8200B2C
:103D1000C2B22046032100F087FB20460121012288
:103D2000BDE8104000F042BB40F27000C2F200005B
:103D300020300521012200F039BB000040F2700064
:103D4000C2F20000017800230131CAB2092A88BFFB
:103D5000002100F8201BCAB2032100F065BB00005F
:103D60002DE9F04F81B0002900F0398140F2700A4E
:103D7000C2F2000A9AF801509AF80260012901F093
:103D80000102009248D10021009A002A00F0278108
:103D9000405CE9B2002900F00B81012900F00E819E
:103DA000022940F01C81711CCAB28AF802105AFA2A
:103DB00086F1092AC871C0F012819AF809209AF890
:103DC0000A709AF80B109AF80C30B81808449AF850
:103DD0000D6018449AF80E50304428449AF80F4069
:103DE000C0B284424FF0000040F0F780013AD4B2F4
:103DF000032C00F2F2800AEB0200002FC77040F0A3
:103E0000EB8041EA032040EA064040EA05600AEB05
:103E100082010861E0E000BF21F0010900214FF0BC
:103E2000AA0E374606E000BF00253E46023189450E
:103E30003746A9D0445CEAB2022A09D0012A41D00F
:103E4000002A57D1AA2C49D18AF807E001254FE072
:103E50007E1CF2B25AFA87F3092A8AF80260DC71F2
:103E60003ED39AF809809AF80A309AF80BB09AF87B
:103E70000CC003EB08025A449AF80DE002EB0C0464
:103E80009AF80E7074443C449AF80F50E4B2A5427C
:103E90004FF0000512D1A8F10104E2B2032A0DD8B7
:103EA0000AEB0402D37043B94BEA0C2242EA0E42F9
:103EB00042EA07620AEB84031A61002537464FF095
:103EC000AA0E15E0AA2C0FD0552C0FD1552202278F
:103ED0008AF808208AF80270022509E0002509E026
:103EE0000225374606E000BF012501E0002500BF9E
:103EF0008AF8015042185478EAB28AB3012A35D0C0
:103F0000022A7FF492AF7E1CF2B25AFA87F3092A92
:103F10008AF80260DC7137D39AF809409AF80A30BF
:103F20009AF80BB09AF80C801A195A449AF80DC0F6
:103F300002EB08059AF80E7065443D449AF80F208C
:103F4000EDB2AA424FF0000522D1013CE2B2032AB1
:103F50001ED80AEB0402D370F3B1002518E000BFAD
:103F6000AA2C7FF461AF8AF807E00BE0AA2C09D0F5
:103F7000552C0BD1552202268AF808208AF80260B7
:103F8000022505E0012502E002254FE700253E4617
:103F90008AF801504AE700BF4BEA082242EA0C4285
:103FA00042EA07620AEB84031A610025F0E700BFCA
:103FB000AA2814D1AA208AF807000BE0AA2809D061
:103FC000552809D155208AF8080002208AF80200F5
:103FD00003E000BF012000E000208AF8010001B0EA
:103FE000BDE8F08F7047000070470000FCF75ABD35
:103FF0004EF68850CEF20000016841F47001016075
:104000007047000080B540F2FF7ED0F800C0C4F2D7
:10401000000E704522DD40F60002C4F2000290421C
:1040200025D043F20042C4F2010290421FD042F672
:104030000042C4F20102904219D043F2FF32C4F2AE
:10404000010290421EDC70452CDCB0F1804F3FD065
:1040500040F20042C4F2000238E000BFB0F1804FED
:1040600005D040F20042C4F200029042E5D14A6815
:104070002CF0700342EA030C43F2FF32C4F2010257
:104080009042E0DD44F2FF32C4F20102904213DCC0
:1040900043F20042C4F20102904219D044F20002FD
:1040A00012E000BF40F60002C4F2000290420FD0BE
:1040B00042F6004208E000BF44F60002C4F20102EA
:1040C000904205D044F20042C4F20102904204D171
:1040D000CA682CF4407342EA030C8A680B68D1F872
:1040E00014E0C262A0F18042A2F596324FEAB222F9
:1040F000072A836207D8012303FA02F212F0E50FC0
:104100001CBF0969016302682CF0800142F00402BF
:1041100041EA0E01026001224261016080BD00009F
:1041200010B50168044600208847216901208847AE
:104130002046402100F098F8216801208847216935
:10414000012088472168002088472169012088478D
:104150002046C02100F088F82046002100F084F8B5
:104160002046002100F080F82046002100F07CF875
:104170002046002100F078F82046002100F074F875
:104180002046002100F070F82046002100F06CF875
:104190002046002100F068F82046002100F064F875
:1041A0002046002100F060F82046002100F05CF875
:1041B0002046002100F058F82046002100F054F875
:1041C0002046002100F050F82046002100F04CF875
:1041D0002046002100F048F821680120BDE8104089
:1041E00008470000B0B5044691E82D00096984E84D
:1041F0002D00216140F20310A08200202168C4F844
:104200001600A076C4E90700C4E90900E0620120B5
:1042100088476168012088472046FFF781FF607D5D
:1042200040B1257D4FF6F170C1F6FF7060F3DF05F8
:1042300001E000BF80252168002088472169012016
:104240008847E9B2204600F00FF82168012088472E
:1042500021690120BDE8B0400847000004299CBF47
:1042600000EB8100C2617047B0B54268044600208F
:104270000D469047A16805F001008847216901209B
:104280008847616801208847216901208847616863
:1042900000208847A168C5F34000884721690120B4
:1042A0008847616801208847216901208847616843
:1042B00000208847A168C5F3800088472169012054
:1042C0008847616801208847216901208847616823
:1042D00000208847A168C5F3C000884721690120F4
:1042E0008847616801208847216901208847616803
:1042F00000208847A168C5F3001088472169012084
:1043000088476168012088472169012088476168E2
:1043100000208847A168C5F3401088472169012023
:1043200088476168012088472169012088476168C2
:1043300000208847A168C5F38010884721690120C3
:1043400088476168012088472169012088476168A2
:1043500000208847A168E80988472169012088472B
:1043600061680120884721690120BDE8B040084705
:10437000B0B54275002A0268044601756FF07F05EA
:104380004FF0000018BF41F08805904721690120D7
:10439000884705F08F012046FFF766FF216801205E
:1043A000884721690120BDE8B0400847A1F1080312
:1043B00013F1070F38BF7047B0B540F27443C2F233
:1043C00000030446481E0125197805FA00F021EA89
:1043D0000005002A18BF41EA0005216800201D7071
:1043E000884721690120884720464421FFF73CFF88
:1043F0002168012088472169012088472168002021
:1044000088472169012088472046C821FFF72CFFF3
:10441000E9B22046FFF728FF21680120884721697B
:104420000120BDE8B0400847032994BF0F2A704718
:1044300070B5044645F260700D46C0F60000216874
:10444000865C0020002B18BF46F080068847216953
:104450000120884720464421FFF706FF21680120FC
:104460008847216901208847216800208847216901
:1044700001208847C02040EA4500C1B22046FFF72E
:10448000F3FEF1B22046FFF7EFFE216801208847D6
:1044900021690120BDE87040084700002DE9F04F78
:1044A00081B00329B5EE400A28BF03214FF000096F
:1044B000F1EE10FAB8BF4FF00109B1EE401AB8BFE3
:1044C000B0EE410A044649B102290BD0012914BFBC
:1044D0009FED6A1AB2EE041A06E000BFB7EE001AAA
:1044E00002E000BF9FED641A20EE010AB6EE001A4A
:1044F00030EE010ABCEEC00A10EE102A42F20F7034
:10450000824238BF104682B2D30842F2C5077B43CD
:104510004CF6CD471B0DCCF6CC47A3FB077C4CF6E5
:10452000CD4702FB07F5ED0C05EB8506A0EB460039
:104530008DF8030005FB07F0C00C00EB8000A5EB35
:1045400040008DF80200900841F27B425043420C3B
:10455000C0F34740CD277843C00A00EB8000A2EBB0
:1045600040008DF801004FEADC006A4600EB800055
:1045700081F0030702F1010AA3EB4000A7F1010853
:10458000012500268DF80000B91BB0FA80F218BF93
:104590000121520911400D40012D03D1B0452BD10D
:1045A00001202EE00F285DD845F26071C0F60001B1
:1045B00011F800B021680020B74208BF6BF07F0BF4
:1045C000884721690120884720464421FFF74CFE97
:1045D000216801208847216901208847216800203F
:1045E0008847216901208847C02040EA4600C1B2BF
:1045F0002046FFF739FE2AE01AF80600002818BF07
:104600000120216809EA000B002088472169012068
:10461000884720464421FFF727FE2168012088476C
:1046200021690120884721680020884721690120ED
:104630008847C02040EA4600C1B22046FFF714FE7A
:10464000BBF1000F89EA0B0918BF4FF0400B5FFA6E
:104650008BF12046FFF708FE216801208847216979
:1046600001208847032E03D01AF8060001368BE795
:1046700001B0BDE8F08F00BF0000C84200007A44DE
:1046800080B5816A0A070DD4CA0716D18A071FD4DC
:104690004A0728D4CA0631D48A063AD44A0658D5DD
:1046A00042E000BF0268D0F838C0536823F40043EA
:1046B00043EA0C035360CA07E8D00268D0F82CC064
:1046C000536823F4003343EA0C0353608A07DFD5B1
:1046D0000268D0F830C0536823F4803343EA0C03F7
:1046E00053604A07D6D50268D0F834C0536823F423
:1046F000802343EA0C035360CA06CDD50268D0F884
:104700003CC0936823F4805343EA0C0393608A0609
:10471000C4D50268D0F840C0936823F4005343EA3C
:104720000C0393604A0614D50268D0F844C053685D
:10473000BCF5801F23F4801343EA0C03536008D1B7
:10474000D2F804C0D0F848E02CF4C00343EA0E03CA
:104750005360090658BF80BD0168C06C4A6822F4E6
:1047600000221043486080BDB0B582B004460020EE
:10477000C4F89000FCF790F9216805460A68120712
:1047800037D56FF07E4C20464FF4001100222B46A7
:10479000CDF800C000F064FC50B300BF206850E8C2
:1047A000000F216820F0800041E80002DAB12068A3
:1047B00050E8000F216820F0800041E8000292B12B
:1047C000206850E8000F216820F0800041E80002D6
:1047D0004AB1206850E8000F216820F0800041E8CD
:1047E0000002002ADAD12020C4F8880060E000BF6F
:1047F00021680868400761D56FF07E4C20464FF471
:10480000800100222B46CDF800C000F029FC0028D2
:1048100054D000BF206850E8000F216820F4907049
:1048200041E80002E2B1206850E8000F216820F45E
:10483000907041E800029AB1206850E8000F2168AA
:1048400020F4907041E8000252B1206850E8000F57
:10485000216820F4907041E80002002ADAD100BFFC
:10486000206850E8020F216820F0010041E80202B0
:10487000DAB1206850E8020F216820F0010041E819
:10488000020292B1206850E8020F216820F0010076
:1048900041E802024AB1206850E8020F216820F086
:1048A000010041E80202002ADAD12020C4F88C007D
:1048B0000320002184F8841002B0B0BD2020C4F889
:1048C0008800C4F88C000020E0662067002184F88E
:1048D000841002B0B0BD0000806AFEF701B900008C
:1048E000806A0268D0F88830D0F88CC091680906D8
:1048F00053D5212B51D152E8001F00BF026821F08F
:10490000C00142E80013D3B3016851E8001F0268F8
:1049100021F0C00142E800138BB3016851E8001F89
:10492000026821F0C00142E8001343B3016851E876
:10493000001F026821F0C00142E80013FBB10168CA
:1049400051E8001FDAE700BF016851E8021F026862
:1049500021F4000142E80213DBB1016851E8021FB3
:10496000026821F4000142E8021393B1016851E8A2
:10497000021F026821F4000142E802134BB10168F2
:1049800051E8021F026821F4000142E80213002BE3
:10499000DAD12021C0F8881002689168490640F1F8
:1049A0008480BCF1220F40F0808052E8001F00BFDD
:1049B000026821F4907142E80013FBB1016851E8EC
:1049C000001F026821F4907142E80013B3B101683E
:1049D00051E8001F026821F4907142E800136BB1A6
:1049E000016851E8001F026821F4907142E8001349
:1049F00023B1016851E8001FDAE700BF4FF6FE7CE3
:104A0000CEF6FF7C026852E8022F036802EA0C022D
:104A100043E80221D9B1016851E8021F026801EAA6
:104A20000C0142E8021393B1016851E8021F0268C9
:104A300001EA0C0142E802134BB1016851E8021F80
:104A4000026801EA0C0142E80213002BDAD1C16EC0
:104A5000012924D1016851E8001F026821F01001EA
:104A600042E80013DBB1016851E8001F026821F041
:104A7000100142E8001393B1016851E8001F026879
:104A800021F0100142E800134BB1016851E8001F0A
:104A9000026821F0100142E80013002BDAD1202136
:104AA000C0F88C100021C1664167D0F8901041F029
:104AB0001001C0F89010FEF713B800000268844699
:104AC000806A1268920600F1A0800022A0F85E20A1
:104AD000026852E8002F036822F4807243E8002144
:104AE000E1B1016851E8001F026821F4807142E8D9
:104AF00000139BB1016851E8001F026821F4807126
:104B000042E8001353B1016851E8001F026821F424
:104B1000807142E80013002BDAD100BF016851E830
:104B2000021F026821F0010142E80213BBB30168D1
:104B300051E8021F026821F0010142E8021373B339
:104B4000016851E8021F026821F0010142E80213E6
:104B50002BB3016851E8021F026821F0010142E80D
:104B60000213002BDAD11AE0016851E8021F026833
:104B700021F0400142E80213DBB1016851E8021F55
:104B8000026821F0400142E8021393B1016851E844
:104B9000021F026821F0400142E802134BB1016894
:104BA00051E8021F026821F0400142E80213002B85
:104BB000DAD12021C0F88C10C16E012925D100BFA7
:104BC000016851E8001F026821F0100142E800135B
:104BD000DBB1016851E8001F026821F0100142E8D2
:104BE000001393B1016851E8001F026821F0100121
:104BF00042E800134BB1016851E8001F026821F040
:104C0000100142E80013002BDAD100220267C16EC6
:104C1000012918BFFEF7B6BBA0F85E20DCF8001033
:104C20004A68B0F85C1093B28B4238BFA0F85E209F
:104C3000B0F85E20891A89B2FDF79EBE0146806AEF
:104C400001220267C26E012A18BFFEF79DBBB0F8B1
:104C50005C205308A0F85E30096849688BB2934223
:104C600098BFA0F85E10B0F85E10511A89B2FDF737
:104C700083BE000070B504462269D4E902130068BF
:104C80000A436169E6691143026846F6F315CCF6FA
:104C9000FF7531432A4011430160416848F2000C1E
:104CA00021F4405119434160A269C4F2000C6045EF
:104CB0001CBF216A0A4381684FF2FF43C1F2FF1310
:104CC000194011438160C16AD4F824E021F00F013A
:104CD00041EA0E01C16244F6FF31C4F2000188428C
:104CE0004FF0100314DD44F60041C4F20001884285
:104CF00022D0604528D043F60001C4F20101884269
:104D000038D141F28801C4F202010B687EA22DE085
:104D100044F20041C4F2000188421DD044F6000173
:104D2000C4F20001884225D141F28801C4F2020197
:104D300009680B0916E000BF41F28801C4F20201C4
:104D400009688B090EE000BF41F28801C4F202013C
:104D500009688B0A06E000BF41F28801C4F2020133
:104D600009688B0845F25072C0F6000203F0030197
:104D700052F82130604542F20040C0F2F40015D0F4
:104D8000B6F5004F24D1082B4FF0010100F2B3809B
:104D9000DFE803F0065E6CB164B1B1B16A0000BF38
:104DA000FCF788FA002856D15CE000BF082B4FF0D2
:104DB000010100F2A080DFE803F0059E259E1D9E04
:104DC0009E9E2300FCF776FAC0B1D4F824E019E0E7
:104DD000082B4FF0010100F28E80DFE803F005653B
:104DE000738C6B8C8C8C7100FCF764FA00285ED19C
:104DF00064E000BFFCF78AFA0028E6D100217AE0DF
:104E00004FF4004045F23871C0F6000131F81E1031
:104E10006268B0FBF1F002EB420188424FF0010101
:104E200069D31303984266D8010E000210EB5200BA
:104E300041F100010023FBF73FFA4FF60052A0F5C5
:104E40004071C0F20F0291424FD3012153E000BFE5
:104E5000FCF746FA30B1D4F824E007E0FCF756FA44
:104E60000028F8D1002146E04FF4004045F23871A7
:104E7000C0F6000131F81E106268B0FBF1F0510875
:104E800001EB4000B0FBF2F04FF6EF72A0F1100121
:104E9000914207D84FF6F0710140C0F34200084438
:104EA00023E000BF012126E0FCF71AFA30B1D4F864
:104EB00024E007E0FCF72AFA0028F8D100211AE0E4
:104EC0004FF4004045F23871C0F6000131F81E1071
:104ED0004FF6EF72B0FBF1F0616800EB5100B0FBF0
:104EE000F1F0A0F11001914204D82168C8600021BE
:104EF00001E000BF01214FF00110A066002208462A
:104F00006267A26770BD00BF0100000004000000DE
:104F10000200000008000000B0B513460A46816593
:104F200000210446A0F85C30C0F890102220C4F89C
:104F30008C00D4F88000E8B144F6E105C0F6000525
:104F40004563256844F6BD2C44F63D4EC0F6000C82
:104F5000C0F6000E816305F12401C0E90BCEFBF71A
:104F600005FC38B11020C4F890002020C4F88C0053
:104F70000120B0BD206928B3206850E8000F2168E7
:104F800040F4807041E80002E2B1206850E8000F70
:104F9000216840F4807041E800029AB1206850E82E
:104FA000000F216840F4807041E8000252B120688F
:104FB00050E8000F216840F4807041E80002002AA8
:104FC000DAD100BF206850E8020F216840F00100EC
:104FD00041E80202E2B1206850E8020F216840F087
:104FE000010041E802029AB1206850E8020F2168EE
:104FF00040F0010041E8020252B1206850E8020F7F
:10500000216840F0010041E80202002ADAD100BF25
:10501000206850E8020F216840F0400041E8020299
:10502000DAB1206850E8020F216840F0400041E802
:10503000020292B1206850E8020F216840F040005F
:1050400041E802024AB1206850E8020F216840F0AE
:10505000400041E80202002ADAD10020B0BD000081
:105060002DE9F041804600681546C2690E461140A0
:10507000891BB1FA81F14909A94223D1069C2CB3BD
:10508000611C29D1C1693140891BB1FA81F14909FB
:10509000A94217D1C1693140891BB1FA81F149098F
:1050A000A9420FD1C1693140891BB1FA81F1490987
:1050B000A94207D1C1693140891BB1FA81F149097F
:1050C000A942DFD00020BDE8F08100BFFBF7E4FC7F
:1050D0000320BDE8F08100BF1F4607E0C0693040F3
:1050E000801BB0FA80F04009A842EBD1FBF7D4FC5A
:1050F000C01BA04242D8D8F8000001684907EDD58E
:10510000402EEBD0802EE9D0C16909073AD4C1699D
:105110000905E3D54FF40061016250E8000FD8F8AB
:10512000001020F4907041E80002002A60D0D8F806
:10513000000050E8000FD8F8001020F4907041E80B
:105140000002002A54D0D8F8000050E8000FD8F828
:10515000001020F4907041E80002002A48D0D8F8EE
:10516000000050E8000FD8F8001020F4907041E8DB
:105170000002EAB3D8F80000CFE700BF0320BDE883
:10518000F08100BF0821016250E8000FD8F800103C
:1051900020F4907041E80002002A00F09780D8F8CF
:1051A000000050E8000FD8F8001020F4907041E89B
:1051B0000002002A00F08A80D8F8000050E8000FB2
:1051C000D8F8001020F4907041E80002002A7DD049
:1051D000D8F8000050E8000FD8F8001020F49070C4
:1051E00041E80002002A71D0D8F80000CCE700BFE7
:1051F0004FF6FE70CEF6FF70D8F8001051E8021F8F
:10520000D8F80020014042E80213F3B1D8F80010AA
:1052100051E8021FD8F80020014042E80213A3B170
:10522000D8F8001051E8021FD8F80020014042E8E9
:10523000021353B1D8F8001051E8021FD8F800202B
:10524000014042E80213002BD6D1D8F86C000128A7
:105250002CD1D8F8000050E8000FD8F8001020F04A
:10526000100041E800020AB3D8F8000050E8000F2F
:10527000D8F8001020F0100041E80002B2B1D8F8D0
:10528000000050E8000FD8F8001020F0100041E8AE
:1052900000025AB1D8F8000050E8000FD8F800100A
:1052A00020F0100041E80002002AD2D12020002185
:1052B000C8F88C00C8F86C10C8F87410C8F89000D2
:1052C000032088F88410BDE8F08100BF4FF6FE701F
:1052D000CEF6FF70D8F8001051E8021FD8F8002071
:1052E000014042E80213F3B1D8F8001051E8021F60
:1052F000D8F80020014042E80213A3B1D8F800100A
:1053000051E8021FD8F80020014042E8021353B1CF
:10531000D8F8001051E8021FD8F80020014042E8F8
:105320000213002BD6D1D8F86C0001282CD1D8F864
:10533000000050E8000FD8F8001020F0100041E8FD
:1053400000020AB3D8F8000050E8000FD8F80010A7
:1053500020F0100041E80002B2B1D8F8000050E897
:10536000000FD8F8001020F0100041E800025AB1F8
:10537000D8F8000050E8000FD8F8001020F0100016
:1053800041E80002002AD2D12020C8F88C00002079
:105390000821C8F86C00C8F87400C8F8901088F8A4
:1053A00084000120BDE8F08140F2E030C2F200004C
:1053B000FDF798BBFEE7000094B0FBF781FB0024EB
:1053C00000200C94CDE90A44CDE90844FBF714FC15
:1053D000012006904FF480300790022003255521CC
:1053E0000D90CDE90E50CDE91010CDE9120006A8C0
:1053F000FBF7CAFF20B1EFF3108072B6FEE700BFE3
:105400000F20CDE9010501A80421CDE9034405944D
:10541000FBF7C6FD20B1EFF3108072B6FEE700BFC8
:1054200040F20044C4F60004FEF728F8FEF702F844
:10543000FEF786F8FEF79AF9FEF750FAFEF7B2FA91
:10544000FEF716FBFEF7A4F8FEF72EF9FEF7C8FBF1
:10545000FEF708FC40F2E035C2F2000540F275416B
:10546000C2F2000128464FF48072FDF72FFAD5F8FA
:10547000800040F284160068C2F20006016800272E
:1054800021F00401016030460021FDF73FF930466C
:105490000021FCF78BFB30460421FDF737F930463D
:1054A0000421FCF783FB30460821FDF72FF9304635
:1054B0000821FCF77BFB30460C21FDF727F930462D
:1054C0000C21FCF773FB40F20039C2F20009484698
:1054D0000021FDF71BF948460021FCF767FB484611
:1054E0000421FDF713F948460421FCF75FFB484609
:1054F0000821FDF70BF948460821FCF757FB484601
:105500000C21FDF703F948460C21FCF74FFB40F254
:10551000D018C2F2000840460021FDF7F7F84046D7
:105520000021FCF743FB40F21C25C2F2000528468F
:105530000021FDF7EBF828460021FCF737FB306827
:10554000002147638763C7630764D9F80000476396
:105550008763C7630764D8F8000047632868476318
:1055600040F26827C2F200073846FDF7CFF840F254
:10557000B428C2F2000840460021FDF7C7F8386899
:1055800040F2E73AC0F834A04FF47A70FBF760F9C4
:1055900045F20C70C0F6000090E84E0040F2700535
:1055A00000690DF1180CC2F200058CE84E0005F1FF
:1055B00020060A9006A93046FEF714FE3046052163
:1055C0000122FEF7D5FE43F6F542C0F60002304652
:1055D0000021FEF743FE43F62952C0F60002304692
:1055E0000121FEF73BFE43F63D52C0F60002304675
:1055F0000221FEF733FE9FED3D0A30460121FEF702
:105600004DFF304604210122FEF7D0FE3046052131
:105610000122FEF7CBFE38684FF4FA714163D8F8E7
:1056200000006427C0F834A06420FBF711F9D9F812
:10563000000087636420FBF70BF9D9F80000C8214C
:1056400081636420FBF704F9D9F800004FF49671E8
:1056500081636420FBF7FCF8D9F800004FF4C871AF
:1056600081636420FBF7F4F8D9F800004FF4167159
:1056700081636420FBF7ECF8D9F800004FF448711F
:10568000816320464FF400710122FBF7FFF900BF50
:1056900020468021FBF7F2F94FF47A70FBF7D8F837
:1056A00095ED040A30460121FEF7F8FE304604214C
:1056B0000122FEF77BFE304605210022FEF776FE32
:1056C0004FF47A70FBF7C4F895ED050A30460121D6
:1056D000FEF7E4FE304604210022FEF767FE304666
:1056E00005210122FEF762FED2E700BF6666A6C072
:1056F000F1EE100A4FF6FF71C0F2C03120EA01004E
:1057000040F04070E1EE100A7047000021340008BC
:105710000134000811340008E9330008913300080F
:105720000000000000000000010203040607080951
:105730000000000001020304010002000400060052
:1057400008000A000C00100020004000800000014A
:10575000000000000400000002000000080000003B
:105760003F065B4F666D7D077F6F777C395E797191
:1057700001010103070100000804020408010101FE
:10578000A0570008000000201000000014020008CC
:10579000B057000810000020700B00003002000815
:1057A00010000000010000000024F40000000000D0
:04000005080001D915
:00000001FF
